{
	"Samples/interface2.sol": {
		"calculate": {
			"abi": [
				{
					"inputs": [],
					"name": "getResult",
					"outputs": [
						{
							"internalType": "uint256",
							"name": "",
							"type": "uint256"
						}
					],
					"stateMutability": "pure",
					"type": "function"
				},
				{
					"inputs": [],
					"name": "multiply",
					"outputs": [
						{
							"internalType": "uint256",
							"name": "",
							"type": "uint256"
						}
					],
					"stateMutability": "pure",
					"type": "function"
				}
			],
			"devdoc": {
				"kind": "dev",
				"methods": {},
				"version": 1
			},
			"evm": {
				"assembly": "    /* \"Samples/interface2.sol\":89:472  contract calculate is calculator{\r... */\n  mstore(0x40, 0x80)\n  callvalue\n  dup1\n  iszero\n  tag_1\n  jumpi\n  0x00\n  dup1\n  revert\ntag_1:\n  pop\n  dataSize(sub_0)\n  dup1\n  dataOffset(sub_0)\n  0x00\n  codecopy\n  0x00\n  return\nstop\n\nsub_0: assembly {\n        /* \"Samples/interface2.sol\":89:472  contract calculate is calculator{\r... */\n      mstore(0x40, 0x80)\n      callvalue\n      dup1\n      iszero\n      tag_1\n      jumpi\n      0x00\n      dup1\n      revert\n    tag_1:\n      pop\n      jumpi(tag_2, lt(calldatasize, 0x04))\n      shr(0xe0, calldataload(0x00))\n      dup1\n      0xde292789\n      eq\n      tag_3\n      jumpi\n      dup1\n      0xf3593cd0\n      eq\n      tag_4\n      jumpi\n    tag_2:\n      0x00\n      dup1\n      revert\n        /* \"Samples/interface2.sol\":128:287  function getResult() external pure override returns(uint){\r... */\n    tag_3:\n      tag_5\n      tag_6\n      jump\t// in\n    tag_5:\n      mload(0x40)\n      tag_7\n      swap2\n      swap1\n      tag_8\n      jump\t// in\n    tag_7:\n      mload(0x40)\n      dup1\n      swap2\n      sub\n      swap1\n      return\n        /* \"Samples/interface2.sol\":293:469  function multiply() external pure override returns(uint){\r... */\n    tag_4:\n      tag_9\n      tag_10\n      jump\t// in\n    tag_9:\n      mload(0x40)\n      tag_11\n      swap2\n      swap1\n      tag_8\n      jump\t// in\n    tag_11:\n      mload(0x40)\n      dup1\n      swap2\n      sub\n      swap1\n      return\n        /* \"Samples/interface2.sol\":128:287  function getResult() external pure override returns(uint){\r... */\n    tag_6:\n        /* \"Samples/interface2.sol\":180:184  uint */\n      0x00\n        /* \"Samples/interface2.sol\":196:202  uint a */\n      dup1\n        /* \"Samples/interface2.sol\":205:206  1 */\n      0x01\n        /* \"Samples/interface2.sol\":196:206  uint a = 1 */\n      swap1\n      pop\n        /* \"Samples/interface2.sol\":217:223  uint b */\n      0x00\n        /* \"Samples/interface2.sol\":226:227  2 */\n      0x02\n        /* \"Samples/interface2.sol\":217:227  uint b = 2 */\n      swap1\n      pop\n        /* \"Samples/interface2.sol\":238:249  uint result */\n      0x00\n        /* \"Samples/interface2.sol\":254:255  b */\n      dup2\n        /* \"Samples/interface2.sol\":252:253  a */\n      dup4\n        /* \"Samples/interface2.sol\":252:255  a+b */\n      tag_13\n      swap2\n      swap1\n      tag_14\n      jump\t// in\n    tag_13:\n        /* \"Samples/interface2.sol\":238:255  uint result = a+b */\n      swap1\n      pop\n        /* \"Samples/interface2.sol\":273:279  result */\n      dup1\n        /* \"Samples/interface2.sol\":266:279  return result */\n      swap4\n      pop\n      pop\n      pop\n      pop\n        /* \"Samples/interface2.sol\":128:287  function getResult() external pure override returns(uint){\r... */\n      swap1\n      jump\t// out\n        /* \"Samples/interface2.sol\":293:469  function multiply() external pure override returns(uint){\r... */\n    tag_10:\n        /* \"Samples/interface2.sol\":344:348  uint */\n      0x00\n        /* \"Samples/interface2.sol\":364:370  uint a */\n      dup1\n        /* \"Samples/interface2.sol\":372:373  5 */\n      0x05\n        /* \"Samples/interface2.sol\":364:373  uint a= 5 */\n      swap1\n      pop\n        /* \"Samples/interface2.sol\":388:394  uint b */\n      0x00\n        /* \"Samples/interface2.sol\":396:397  6 */\n      0x06\n        /* \"Samples/interface2.sol\":388:397  uint b= 6 */\n      swap1\n      pop\n        /* \"Samples/interface2.sol\":412:423  uint result */\n      0x00\n        /* \"Samples/interface2.sol\":428:429  b */\n      dup2\n        /* \"Samples/interface2.sol\":426:427  a */\n      dup4\n        /* \"Samples/interface2.sol\":426:429  a*b */\n      tag_16\n      swap2\n      swap1\n      tag_17\n      jump\t// in\n    tag_16:\n        /* \"Samples/interface2.sol\":412:429  uint result = a*b */\n      swap1\n      pop\n        /* \"Samples/interface2.sol\":451:457  result */\n      dup1\n        /* \"Samples/interface2.sol\":444:457  return result */\n      swap4\n      pop\n      pop\n      pop\n      pop\n        /* \"Samples/interface2.sol\":293:469  function multiply() external pure override returns(uint){\r... */\n      swap1\n      jump\t// out\n        /* \"#utility.yul\":7:125   */\n    tag_19:\n        /* \"#utility.yul\":94:118   */\n      tag_21\n        /* \"#utility.yul\":112:117   */\n      dup2\n        /* \"#utility.yul\":94:118   */\n      tag_22\n      jump\t// in\n    tag_21:\n        /* \"#utility.yul\":89:92   */\n      dup3\n        /* \"#utility.yul\":82:119   */\n      mstore\n        /* \"#utility.yul\":7:125   */\n      pop\n      pop\n      jump\t// out\n        /* \"#utility.yul\":131:353   */\n    tag_8:\n        /* \"#utility.yul\":224:228   */\n      0x00\n        /* \"#utility.yul\":262:264   */\n      0x20\n        /* \"#utility.yul\":251:260   */\n      dup3\n        /* \"#utility.yul\":247:265   */\n      add\n        /* \"#utility.yul\":239:265   */\n      swap1\n      pop\n        /* \"#utility.yul\":275:346   */\n      tag_24\n        /* \"#utility.yul\":343:344   */\n      0x00\n        /* \"#utility.yul\":332:341   */\n      dup4\n        /* \"#utility.yul\":328:345   */\n      add\n        /* \"#utility.yul\":319:325   */\n      dup5\n        /* \"#utility.yul\":275:346   */\n      tag_19\n      jump\t// in\n    tag_24:\n        /* \"#utility.yul\":131:353   */\n      swap3\n      swap2\n      pop\n      pop\n      jump\t// out\n        /* \"#utility.yul\":359:664   */\n    tag_14:\n        /* \"#utility.yul\":399:402   */\n      0x00\n        /* \"#utility.yul\":418:438   */\n      tag_26\n        /* \"#utility.yul\":436:437   */\n      dup3\n        /* \"#utility.yul\":418:438   */\n      tag_22\n      jump\t// in\n    tag_26:\n        /* \"#utility.yul\":413:438   */\n      swap2\n      pop\n        /* \"#utility.yul\":452:472   */\n      tag_27\n        /* \"#utility.yul\":470:471   */\n      dup4\n        /* \"#utility.yul\":452:472   */\n      tag_22\n      jump\t// in\n    tag_27:\n        /* \"#utility.yul\":447:472   */\n      swap3\n      pop\n        /* \"#utility.yul\":606:607   */\n      dup3\n        /* \"#utility.yul\":538:604   */\n      0xffffffffffffffffffffffffffffffffffffffffffffffffffffffffffffffff\n        /* \"#utility.yul\":534:608   */\n      sub\n        /* \"#utility.yul\":531:532   */\n      dup3\n        /* \"#utility.yul\":528:609   */\n      gt\n        /* \"#utility.yul\":525:632   */\n      iszero\n      tag_28\n      jumpi\n        /* \"#utility.yul\":612:630   */\n      tag_29\n      tag_30\n      jump\t// in\n    tag_29:\n        /* \"#utility.yul\":525:632   */\n    tag_28:\n        /* \"#utility.yul\":656:657   */\n      dup3\n        /* \"#utility.yul\":653:654   */\n      dup3\n        /* \"#utility.yul\":649:658   */\n      add\n        /* \"#utility.yul\":642:658   */\n      swap1\n      pop\n        /* \"#utility.yul\":359:664   */\n      swap3\n      swap2\n      pop\n      pop\n      jump\t// out\n        /* \"#utility.yul\":670:1018   */\n    tag_17:\n        /* \"#utility.yul\":710:717   */\n      0x00\n        /* \"#utility.yul\":733:753   */\n      tag_32\n        /* \"#utility.yul\":751:752   */\n      dup3\n        /* \"#utility.yul\":733:753   */\n      tag_22\n      jump\t// in\n    tag_32:\n        /* \"#utility.yul\":728:753   */\n      swap2\n      pop\n        /* \"#utility.yul\":767:787   */\n      tag_33\n        /* \"#utility.yul\":785:786   */\n      dup4\n        /* \"#utility.yul\":767:787   */\n      tag_22\n      jump\t// in\n    tag_33:\n        /* \"#utility.yul\":762:787   */\n      swap3\n      pop\n        /* \"#utility.yul\":955:956   */\n      dup2\n        /* \"#utility.yul\":887:953   */\n      0xffffffffffffffffffffffffffffffffffffffffffffffffffffffffffffffff\n        /* \"#utility.yul\":883:957   */\n      div\n        /* \"#utility.yul\":880:881   */\n      dup4\n        /* \"#utility.yul\":877:958   */\n      gt\n        /* \"#utility.yul\":872:873   */\n      dup3\n        /* \"#utility.yul\":865:874   */\n      iszero\n        /* \"#utility.yul\":858:875   */\n      iszero\n        /* \"#utility.yul\":854:959   */\n      and\n        /* \"#utility.yul\":851:982   */\n      iszero\n      tag_34\n      jumpi\n        /* \"#utility.yul\":962:980   */\n      tag_35\n      tag_30\n      jump\t// in\n    tag_35:\n        /* \"#utility.yul\":851:982   */\n    tag_34:\n        /* \"#utility.yul\":1010:1011   */\n      dup3\n        /* \"#utility.yul\":1007:1008   */\n      dup3\n        /* \"#utility.yul\":1003:1012   */\n      mul\n        /* \"#utility.yul\":992:1012   */\n      swap1\n      pop\n        /* \"#utility.yul\":670:1018   */\n      swap3\n      swap2\n      pop\n      pop\n      jump\t// out\n        /* \"#utility.yul\":1024:1101   */\n    tag_22:\n        /* \"#utility.yul\":1061:1068   */\n      0x00\n        /* \"#utility.yul\":1090:1095   */\n      dup2\n        /* \"#utility.yul\":1079:1095   */\n      swap1\n      pop\n        /* \"#utility.yul\":1024:1101   */\n      swap2\n      swap1\n      pop\n      jump\t// out\n        /* \"#utility.yul\":1107:1287   */\n    tag_30:\n        /* \"#utility.yul\":1155:1232   */\n      0x4e487b7100000000000000000000000000000000000000000000000000000000\n        /* \"#utility.yul\":1152:1153   */\n      0x00\n        /* \"#utility.yul\":1145:1233   */\n      mstore\n        /* \"#utility.yul\":1252:1256   */\n      0x11\n        /* \"#utility.yul\":1249:1250   */\n      0x04\n        /* \"#utility.yul\":1242:1257   */\n      mstore\n        /* \"#utility.yul\":1276:1280   */\n      0x24\n        /* \"#utility.yul\":1273:1274   */\n      0x00\n        /* \"#utility.yul\":1266:1281   */\n      revert\n\n    auxdata: 0xa2646970667358221220b68094d4bd15314ece4bc062f5fb376bf5ad80eaea12755247c46c563503bfca64736f6c63430008070033\n}\n",
				"bytecode": {
					"linkReferences": {},
					"object": "608060405234801561001057600080fd5b5061020c806100206000396000f3fe608060405234801561001057600080fd5b50600436106100365760003560e01c8063de2927891461003b578063f3593cd014610059575b600080fd5b610043610077565b60405161005091906100d2565b60405180910390f35b61006161009d565b60405161006e91906100d2565b60405180910390f35b600080600190506000600290506000818361009291906100ed565b905080935050505090565b60008060059050600060069050600081836100b89190610143565b905080935050505090565b6100cc8161019d565b82525050565b60006020820190506100e760008301846100c3565b92915050565b60006100f88261019d565b91506101038361019d565b9250827fffffffffffffffffffffffffffffffffffffffffffffffffffffffffffffffff03821115610138576101376101a7565b5b828201905092915050565b600061014e8261019d565b91506101598361019d565b9250817fffffffffffffffffffffffffffffffffffffffffffffffffffffffffffffffff0483118215151615610192576101916101a7565b5b828202905092915050565b6000819050919050565b7f4e487b7100000000000000000000000000000000000000000000000000000000600052601160045260246000fdfea2646970667358221220b68094d4bd15314ece4bc062f5fb376bf5ad80eaea12755247c46c563503bfca64736f6c63430008070033",
					"opcodes": "PUSH1 0x80 PUSH1 0x40 MSTORE CALLVALUE DUP1 ISZERO PUSH2 0x10 JUMPI PUSH1 0x0 DUP1 REVERT JUMPDEST POP PUSH2 0x20C DUP1 PUSH2 0x20 PUSH1 0x0 CODECOPY PUSH1 0x0 RETURN INVALID PUSH1 0x80 PUSH1 0x40 MSTORE CALLVALUE DUP1 ISZERO PUSH2 0x10 JUMPI PUSH1 0x0 DUP1 REVERT JUMPDEST POP PUSH1 0x4 CALLDATASIZE LT PUSH2 0x36 JUMPI PUSH1 0x0 CALLDATALOAD PUSH1 0xE0 SHR DUP1 PUSH4 0xDE292789 EQ PUSH2 0x3B JUMPI DUP1 PUSH4 0xF3593CD0 EQ PUSH2 0x59 JUMPI JUMPDEST PUSH1 0x0 DUP1 REVERT JUMPDEST PUSH2 0x43 PUSH2 0x77 JUMP JUMPDEST PUSH1 0x40 MLOAD PUSH2 0x50 SWAP2 SWAP1 PUSH2 0xD2 JUMP JUMPDEST PUSH1 0x40 MLOAD DUP1 SWAP2 SUB SWAP1 RETURN JUMPDEST PUSH2 0x61 PUSH2 0x9D JUMP JUMPDEST PUSH1 0x40 MLOAD PUSH2 0x6E SWAP2 SWAP1 PUSH2 0xD2 JUMP JUMPDEST PUSH1 0x40 MLOAD DUP1 SWAP2 SUB SWAP1 RETURN JUMPDEST PUSH1 0x0 DUP1 PUSH1 0x1 SWAP1 POP PUSH1 0x0 PUSH1 0x2 SWAP1 POP PUSH1 0x0 DUP2 DUP4 PUSH2 0x92 SWAP2 SWAP1 PUSH2 0xED JUMP JUMPDEST SWAP1 POP DUP1 SWAP4 POP POP POP POP SWAP1 JUMP JUMPDEST PUSH1 0x0 DUP1 PUSH1 0x5 SWAP1 POP PUSH1 0x0 PUSH1 0x6 SWAP1 POP PUSH1 0x0 DUP2 DUP4 PUSH2 0xB8 SWAP2 SWAP1 PUSH2 0x143 JUMP JUMPDEST SWAP1 POP DUP1 SWAP4 POP POP POP POP SWAP1 JUMP JUMPDEST PUSH2 0xCC DUP2 PUSH2 0x19D JUMP JUMPDEST DUP3 MSTORE POP POP JUMP JUMPDEST PUSH1 0x0 PUSH1 0x20 DUP3 ADD SWAP1 POP PUSH2 0xE7 PUSH1 0x0 DUP4 ADD DUP5 PUSH2 0xC3 JUMP JUMPDEST SWAP3 SWAP2 POP POP JUMP JUMPDEST PUSH1 0x0 PUSH2 0xF8 DUP3 PUSH2 0x19D JUMP JUMPDEST SWAP2 POP PUSH2 0x103 DUP4 PUSH2 0x19D JUMP JUMPDEST SWAP3 POP DUP3 PUSH32 0xFFFFFFFFFFFFFFFFFFFFFFFFFFFFFFFFFFFFFFFFFFFFFFFFFFFFFFFFFFFFFFFF SUB DUP3 GT ISZERO PUSH2 0x138 JUMPI PUSH2 0x137 PUSH2 0x1A7 JUMP JUMPDEST JUMPDEST DUP3 DUP3 ADD SWAP1 POP SWAP3 SWAP2 POP POP JUMP JUMPDEST PUSH1 0x0 PUSH2 0x14E DUP3 PUSH2 0x19D JUMP JUMPDEST SWAP2 POP PUSH2 0x159 DUP4 PUSH2 0x19D JUMP JUMPDEST SWAP3 POP DUP2 PUSH32 0xFFFFFFFFFFFFFFFFFFFFFFFFFFFFFFFFFFFFFFFFFFFFFFFFFFFFFFFFFFFFFFFF DIV DUP4 GT DUP3 ISZERO ISZERO AND ISZERO PUSH2 0x192 JUMPI PUSH2 0x191 PUSH2 0x1A7 JUMP JUMPDEST JUMPDEST DUP3 DUP3 MUL SWAP1 POP SWAP3 SWAP2 POP POP JUMP JUMPDEST PUSH1 0x0 DUP2 SWAP1 POP SWAP2 SWAP1 POP JUMP JUMPDEST PUSH32 0x4E487B7100000000000000000000000000000000000000000000000000000000 PUSH1 0x0 MSTORE PUSH1 0x11 PUSH1 0x4 MSTORE PUSH1 0x24 PUSH1 0x0 REVERT INVALID LOG2 PUSH5 0x6970667358 0x22 SLT KECCAK256 0xB6 DUP1 SWAP5 0xD4 0xBD ISZERO BALANCE 0x4E 0xCE 0x4B 0xC0 PUSH3 0xF5FB37 PUSH12 0xF5AD80EAEA12755247C46C56 CALLDATALOAD SUB 0xBF 0xCA PUSH5 0x736F6C6343 STOP ADDMOD SMOD STOP CALLER "
				},
				"gasEstimates": {
					"creation": {
						"codeDepositCost": "104800",
						"executionCost": "153",
						"totalCost": "104953"
					},
					"external": {
						"getResult()": "infinite",
						"multiply()": "infinite"
					}
				},
				"methodIdentifiers": {
					"getResult()": "de292789",
					"multiply()": "f3593cd0"
				}
			},
			"storageLayout": {
				"storage": [],
				"types": null
			},
			"userdoc": {
				"kind": "user",
				"methods": {},
				"version": 1
			}
		}
	}
}