{
	"Samples/transfer1.sol": {
		"example": {
			"abi": [
				{
					"inputs": [],
					"stateMutability": "nonpayable",
					"type": "constructor"
				},
				{
					"inputs": [
						{
							"internalType": "address",
							"name": "",
							"type": "address"
						},
						{
							"internalType": "address",
							"name": "",
							"type": "address"
						}
					],
					"name": "allowence",
					"outputs": [
						{
							"internalType": "uint256",
							"name": "",
							"type": "uint256"
						}
					],
					"stateMutability": "view",
					"type": "function"
				},
				{
					"inputs": [
						{
							"internalType": "address",
							"name": "spender",
							"type": "address"
						},
						{
							"internalType": "uint256",
							"name": "amount",
							"type": "uint256"
						}
					],
					"name": "approve",
					"outputs": [],
					"stateMutability": "nonpayable",
					"type": "function"
				},
				{
					"inputs": [
						{
							"internalType": "address",
							"name": "",
							"type": "address"
						}
					],
					"name": "balance",
					"outputs": [
						{
							"internalType": "uint256",
							"name": "",
							"type": "uint256"
						}
					],
					"stateMutability": "view",
					"type": "function"
				},
				{
					"inputs": [
						{
							"internalType": "address",
							"name": "checkbalance",
							"type": "address"
						}
					],
					"name": "balanceof",
					"outputs": [
						{
							"internalType": "uint256",
							"name": "",
							"type": "uint256"
						}
					],
					"stateMutability": "view",
					"type": "function"
				},
				{
					"inputs": [
						{
							"internalType": "address",
							"name": "userAddress",
							"type": "address"
						},
						{
							"internalType": "uint256",
							"name": "amount",
							"type": "uint256"
						}
					],
					"name": "mint",
					"outputs": [],
					"stateMutability": "nonpayable",
					"type": "function"
				},
				{
					"inputs": [],
					"name": "totalsupply",
					"outputs": [
						{
							"internalType": "uint256",
							"name": "",
							"type": "uint256"
						}
					],
					"stateMutability": "view",
					"type": "function"
				},
				{
					"inputs": [
						{
							"internalType": "address",
							"name": "to",
							"type": "address"
						},
						{
							"internalType": "uint256",
							"name": "amount",
							"type": "uint256"
						}
					],
					"name": "transfer",
					"outputs": [],
					"stateMutability": "nonpayable",
					"type": "function"
				},
				{
					"inputs": [
						{
							"internalType": "address",
							"name": "from",
							"type": "address"
						},
						{
							"internalType": "address",
							"name": "to",
							"type": "address"
						},
						{
							"internalType": "uint256",
							"name": "amount",
							"type": "uint256"
						}
					],
					"name": "transferfrom",
					"outputs": [],
					"stateMutability": "nonpayable",
					"type": "function"
				}
			],
			"devdoc": {
				"kind": "dev",
				"methods": {},
				"version": 1
			},
			"evm": {
				"assembly": "    /* \"Samples/transfer1.sol\":60:1489  contract example{\r... */\n  mstore(0x40, 0x80)\n    /* \"Samples/transfer1.sol\":229:333  constructor(){\r... */\n  callvalue\n  dup1\n  iszero\n  tag_1\n  jumpi\n  0x00\n  dup1\n  revert\ntag_1:\n  pop\n    /* \"Samples/transfer1.sol\":253:284  mint(msg.sender, 1000 * 10**18) */\n  tag_4\n    /* \"Samples/transfer1.sol\":258:268  msg.sender */\n  caller\n    /* \"Samples/transfer1.sol\":270:283  1000 * 10**18 */\n  0x3635c9adc5dea00000\n    /* \"Samples/transfer1.sol\":253:257  mint */\n  shl(0x20, tag_5)\n    /* \"Samples/transfer1.sol\":253:284  mint(msg.sender, 1000 * 10**18) */\n  0x20\n  shr\n  jump\t// in\ntag_4:\n    /* \"Samples/transfer1.sol\":310:323  1000 * 10**18 */\n  0x3635c9adc5dea00000\n    /* \"Samples/transfer1.sol\":295:307  total_supply */\n  0x02\n    /* \"Samples/transfer1.sol\":295:323  total_supply = 1000 * 10**18 */\n  dup2\n  swap1\n  sstore\n  pop\n    /* \"Samples/transfer1.sol\":60:1489  contract example{\r... */\n  jump(tag_6)\n    /* \"Samples/transfer1.sol\":342:515  function mint(address userAddress, uint amount) public{\r... */\ntag_5:\n    /* \"Samples/transfer1.sol\":438:439  0 */\n  0x00\n    /* \"Samples/transfer1.sol\":415:440  userAddress != address(0) */\n  0xffffffffffffffffffffffffffffffffffffffff\n  and\n    /* \"Samples/transfer1.sol\":415:426  userAddress */\n  dup3\n    /* \"Samples/transfer1.sol\":415:440  userAddress != address(0) */\n  0xffffffffffffffffffffffffffffffffffffffff\n  and\n  eq\n  iszero\n    /* \"Samples/transfer1.sol\":407:466  require(userAddress != address(0), \"mint the zero address\") */\n  tag_8\n  jumpi\n  mload(0x40)\n  0x08c379a000000000000000000000000000000000000000000000000000000000\n  dup2\n  mstore\n  0x04\n  add\n  tag_9\n  swap1\n  tag_10\n  jump\t// in\ntag_9:\n  mload(0x40)\n  dup1\n  swap2\n  sub\n  swap1\n  revert\ntag_8:\n    /* \"Samples/transfer1.sol\":501:507  amount */\n  dup1\n    /* \"Samples/transfer1.sol\":477:484  balance */\n  0x00\n    /* \"Samples/transfer1.sol\":477:497  balance[userAddress] */\n  dup1\n    /* \"Samples/transfer1.sol\":485:496  userAddress */\n  dup5\n    /* \"Samples/transfer1.sol\":477:497  balance[userAddress] */\n  0xffffffffffffffffffffffffffffffffffffffff\n  and\n  0xffffffffffffffffffffffffffffffffffffffff\n  and\n  dup2\n  mstore\n  0x20\n  add\n  swap1\n  dup2\n  mstore\n  0x20\n  add\n  0x00\n  keccak256\n  0x00\n    /* \"Samples/transfer1.sol\":477:507  balance[userAddress] += amount */\n  dup3\n  dup3\n  sload\n  tag_11\n  swap2\n  swap1\n  tag_12\n  jump\t// in\ntag_11:\n  swap3\n  pop\n  pop\n  dup2\n  swap1\n  sstore\n  pop\n    /* \"Samples/transfer1.sol\":342:515  function mint(address userAddress, uint amount) public{\r... */\n  pop\n  pop\n  jump\t// out\n    /* \"#utility.yul\":7:373   */\ntag_14:\n    /* \"#utility.yul\":149:152   */\n  0x00\n    /* \"#utility.yul\":170:237   */\n  tag_16\n    /* \"#utility.yul\":234:236   */\n  0x15\n    /* \"#utility.yul\":229:232   */\n  dup4\n    /* \"#utility.yul\":170:237   */\n  tag_17\n  jump\t// in\ntag_16:\n    /* \"#utility.yul\":163:237   */\n  swap2\n  pop\n    /* \"#utility.yul\":246:339   */\n  tag_18\n    /* \"#utility.yul\":335:338   */\n  dup3\n    /* \"#utility.yul\":246:339   */\n  tag_19\n  jump\t// in\ntag_18:\n    /* \"#utility.yul\":364:366   */\n  0x20\n    /* \"#utility.yul\":359:362   */\n  dup3\n    /* \"#utility.yul\":355:367   */\n  add\n    /* \"#utility.yul\":348:367   */\n  swap1\n  pop\n    /* \"#utility.yul\":7:373   */\n  swap2\n  swap1\n  pop\n  jump\t// out\n    /* \"#utility.yul\":379:798   */\ntag_10:\n    /* \"#utility.yul\":545:549   */\n  0x00\n    /* \"#utility.yul\":583:585   */\n  0x20\n    /* \"#utility.yul\":572:581   */\n  dup3\n    /* \"#utility.yul\":568:586   */\n  add\n    /* \"#utility.yul\":560:586   */\n  swap1\n  pop\n    /* \"#utility.yul\":632:641   */\n  dup2\n    /* \"#utility.yul\":626:630   */\n  dup2\n    /* \"#utility.yul\":622:642   */\n  sub\n    /* \"#utility.yul\":618:619   */\n  0x00\n    /* \"#utility.yul\":607:616   */\n  dup4\n    /* \"#utility.yul\":603:620   */\n  add\n    /* \"#utility.yul\":596:643   */\n  mstore\n    /* \"#utility.yul\":660:791   */\n  tag_21\n    /* \"#utility.yul\":786:790   */\n  dup2\n    /* \"#utility.yul\":660:791   */\n  tag_14\n  jump\t// in\ntag_21:\n    /* \"#utility.yul\":652:791   */\n  swap1\n  pop\n    /* \"#utility.yul\":379:798   */\n  swap2\n  swap1\n  pop\n  jump\t// out\n    /* \"#utility.yul\":804:973   */\ntag_17:\n    /* \"#utility.yul\":888:899   */\n  0x00\n    /* \"#utility.yul\":922:928   */\n  dup3\n    /* \"#utility.yul\":917:920   */\n  dup3\n    /* \"#utility.yul\":910:929   */\n  mstore\n    /* \"#utility.yul\":962:966   */\n  0x20\n    /* \"#utility.yul\":957:960   */\n  dup3\n    /* \"#utility.yul\":953:967   */\n  add\n    /* \"#utility.yul\":938:967   */\n  swap1\n  pop\n    /* \"#utility.yul\":804:973   */\n  swap3\n  swap2\n  pop\n  pop\n  jump\t// out\n    /* \"#utility.yul\":979:1284   */\ntag_12:\n    /* \"#utility.yul\":1019:1022   */\n  0x00\n    /* \"#utility.yul\":1038:1058   */\n  tag_24\n    /* \"#utility.yul\":1056:1057   */\n  dup3\n    /* \"#utility.yul\":1038:1058   */\n  tag_25\n  jump\t// in\ntag_24:\n    /* \"#utility.yul\":1033:1058   */\n  swap2\n  pop\n    /* \"#utility.yul\":1072:1092   */\n  tag_26\n    /* \"#utility.yul\":1090:1091   */\n  dup4\n    /* \"#utility.yul\":1072:1092   */\n  tag_25\n  jump\t// in\ntag_26:\n    /* \"#utility.yul\":1067:1092   */\n  swap3\n  pop\n    /* \"#utility.yul\":1226:1227   */\n  dup3\n    /* \"#utility.yul\":1158:1224   */\n  0xffffffffffffffffffffffffffffffffffffffffffffffffffffffffffffffff\n    /* \"#utility.yul\":1154:1228   */\n  sub\n    /* \"#utility.yul\":1151:1152   */\n  dup3\n    /* \"#utility.yul\":1148:1229   */\n  gt\n    /* \"#utility.yul\":1145:1252   */\n  iszero\n  tag_27\n  jumpi\n    /* \"#utility.yul\":1232:1250   */\n  tag_28\n  tag_29\n  jump\t// in\ntag_28:\n    /* \"#utility.yul\":1145:1252   */\ntag_27:\n    /* \"#utility.yul\":1276:1277   */\n  dup3\n    /* \"#utility.yul\":1273:1274   */\n  dup3\n    /* \"#utility.yul\":1269:1278   */\n  add\n    /* \"#utility.yul\":1262:1278   */\n  swap1\n  pop\n    /* \"#utility.yul\":979:1284   */\n  swap3\n  swap2\n  pop\n  pop\n  jump\t// out\n    /* \"#utility.yul\":1290:1367   */\ntag_25:\n    /* \"#utility.yul\":1327:1334   */\n  0x00\n    /* \"#utility.yul\":1356:1361   */\n  dup2\n    /* \"#utility.yul\":1345:1361   */\n  swap1\n  pop\n    /* \"#utility.yul\":1290:1367   */\n  swap2\n  swap1\n  pop\n  jump\t// out\n    /* \"#utility.yul\":1373:1553   */\ntag_29:\n    /* \"#utility.yul\":1421:1498   */\n  0x4e487b7100000000000000000000000000000000000000000000000000000000\n    /* \"#utility.yul\":1418:1419   */\n  0x00\n    /* \"#utility.yul\":1411:1499   */\n  mstore\n    /* \"#utility.yul\":1518:1522   */\n  0x11\n    /* \"#utility.yul\":1515:1516   */\n  0x04\n    /* \"#utility.yul\":1508:1523   */\n  mstore\n    /* \"#utility.yul\":1542:1546   */\n  0x24\n    /* \"#utility.yul\":1539:1540   */\n  0x00\n    /* \"#utility.yul\":1532:1547   */\n  revert\n    /* \"#utility.yul\":1559:1730   */\ntag_19:\n    /* \"#utility.yul\":1699:1722   */\n  0x6d696e7420746865207a65726f20616464726573730000000000000000000000\n    /* \"#utility.yul\":1695:1696   */\n  0x00\n    /* \"#utility.yul\":1687:1693   */\n  dup3\n    /* \"#utility.yul\":1683:1697   */\n  add\n    /* \"#utility.yul\":1676:1723   */\n  mstore\n    /* \"#utility.yul\":1559:1730   */\n  pop\n  jump\t// out\n    /* \"Samples/transfer1.sol\":60:1489  contract example{\r... */\ntag_6:\n  dataSize(sub_0)\n  dup1\n  dataOffset(sub_0)\n  0x00\n  codecopy\n  0x00\n  return\nstop\n\nsub_0: assembly {\n        /* \"Samples/transfer1.sol\":60:1489  contract example{\r... */\n      mstore(0x40, 0x80)\n      callvalue\n      dup1\n      iszero\n      tag_1\n      jumpi\n      0x00\n      dup1\n      revert\n    tag_1:\n      pop\n      jumpi(tag_2, lt(calldatasize, 0x04))\n      shr(0xe0, calldataload(0x00))\n      dup1\n      0x72dd529b\n      gt\n      tag_11\n      jumpi\n      dup1\n      0x72dd529b\n      eq\n      tag_7\n      jumpi\n      dup1\n      0xa77a8230\n      eq\n      tag_8\n      jumpi\n      dup1\n      0xa9059cbb\n      eq\n      tag_9\n      jumpi\n      dup1\n      0xe3d670d7\n      eq\n      tag_10\n      jumpi\n      jump(tag_2)\n    tag_11:\n      dup1\n      0x095ea7b3\n      eq\n      tag_3\n      jumpi\n      dup1\n      0x3d64125b\n      eq\n      tag_4\n      jumpi\n      dup1\n      0x40c10f19\n      eq\n      tag_5\n      jumpi\n      dup1\n      0x63b0545f\n      eq\n      tag_6\n      jumpi\n    tag_2:\n      0x00\n      dup1\n      revert\n        /* \"Samples/transfer1.sol\":1297:1480  function approve(address spender,uint amount) public{\r... */\n    tag_3:\n      tag_12\n      0x04\n      dup1\n      calldatasize\n      sub\n      dup2\n      add\n      swap1\n      tag_13\n      swap2\n      swap1\n      tag_14\n      jump\t// in\n    tag_13:\n      tag_15\n      jump\t// in\n    tag_12:\n      stop\n        /* \"Samples/transfer1.sol\":617:730  function balanceof(address checkbalance) public view returns(uint){\r... */\n    tag_4:\n      tag_16\n      0x04\n      dup1\n      calldatasize\n      sub\n      dup2\n      add\n      swap1\n      tag_17\n      swap2\n      swap1\n      tag_18\n      jump\t// in\n    tag_17:\n      tag_19\n      jump\t// in\n    tag_16:\n      mload(0x40)\n      tag_20\n      swap2\n      swap1\n      tag_21\n      jump\t// in\n    tag_20:\n      mload(0x40)\n      dup1\n      swap2\n      sub\n      swap1\n      return\n        /* \"Samples/transfer1.sol\":342:515  function mint(address userAddress, uint amount) public{\r... */\n    tag_5:\n      tag_22\n      0x04\n      dup1\n      calldatasize\n      sub\n      dup2\n      add\n      swap1\n      tag_23\n      swap2\n      swap1\n      tag_14\n      jump\t// in\n    tag_23:\n      tag_24\n      jump\t// in\n    tag_22:\n      stop\n        /* \"Samples/transfer1.sol\":950:1289  function transferfrom(address from, address to, uint amount) public{\r... */\n    tag_6:\n      tag_25\n      0x04\n      dup1\n      calldatasize\n      sub\n      dup2\n      add\n      swap1\n      tag_26\n      swap2\n      swap1\n      tag_27\n      jump\t// in\n    tag_26:\n      tag_28\n      jump\t// in\n    tag_25:\n      stop\n        /* \"Samples/transfer1.sol\":523:609  function totalsupply() public view returns(uint){\r... */\n    tag_7:\n      tag_29\n      tag_30\n      jump\t// in\n    tag_29:\n      mload(0x40)\n      tag_31\n      swap2\n      swap1\n      tag_21\n      jump\t// in\n    tag_31:\n      mload(0x40)\n      dup1\n      swap2\n      sub\n      swap1\n      return\n        /* \"Samples/transfer1.sol\":133:194  mapping(address => mapping(address => uint)) public allowence */\n    tag_8:\n      tag_32\n      0x04\n      dup1\n      calldatasize\n      sub\n      dup2\n      add\n      swap1\n      tag_33\n      swap2\n      swap1\n      tag_34\n      jump\t// in\n    tag_33:\n      tag_35\n      jump\t// in\n    tag_32:\n      mload(0x40)\n      tag_36\n      swap2\n      swap1\n      tag_21\n      jump\t// in\n    tag_36:\n      mload(0x40)\n      dup1\n      swap2\n      sub\n      swap1\n      return\n        /* \"Samples/transfer1.sol\":738:942  function transfer(address to, uint amount) public{\r... */\n    tag_9:\n      tag_37\n      0x04\n      dup1\n      calldatasize\n      sub\n      dup2\n      add\n      swap1\n      tag_38\n      swap2\n      swap1\n      tag_14\n      jump\t// in\n    tag_38:\n      tag_39\n      jump\t// in\n    tag_37:\n      stop\n        /* \"Samples/transfer1.sol\":87:126  mapping(address => uint) public balance */\n    tag_10:\n      tag_40\n      0x04\n      dup1\n      calldatasize\n      sub\n      dup2\n      add\n      swap1\n      tag_41\n      swap2\n      swap1\n      tag_18\n      jump\t// in\n    tag_41:\n      tag_42\n      jump\t// in\n    tag_40:\n      mload(0x40)\n      tag_43\n      swap2\n      swap1\n      tag_21\n      jump\t// in\n    tag_43:\n      mload(0x40)\n      dup1\n      swap2\n      sub\n      swap1\n      return\n        /* \"Samples/transfer1.sol\":1297:1480  function approve(address spender,uint amount) public{\r... */\n    tag_15:\n        /* \"Samples/transfer1.sol\":1389:1390  0 */\n      0x00\n        /* \"Samples/transfer1.sol\":1370:1391  spender != address(0) */\n      0xffffffffffffffffffffffffffffffffffffffff\n      and\n        /* \"Samples/transfer1.sol\":1370:1377  spender */\n      dup3\n        /* \"Samples/transfer1.sol\":1370:1391  spender != address(0) */\n      0xffffffffffffffffffffffffffffffffffffffff\n      and\n      eq\n      iszero\n        /* \"Samples/transfer1.sol\":1362:1419  require(spender != address(0), \"approve to zero address\") */\n      tag_45\n      jumpi\n      mload(0x40)\n      0x08c379a000000000000000000000000000000000000000000000000000000000\n      dup2\n      mstore\n      0x04\n      add\n      tag_46\n      swap1\n      tag_47\n      jump\t// in\n    tag_46:\n      mload(0x40)\n      dup1\n      swap2\n      sub\n      swap1\n      revert\n    tag_45:\n        /* \"Samples/transfer1.sol\":1466:1472  amount */\n      dup1\n        /* \"Samples/transfer1.sol\":1432:1441  allowence */\n      0x01\n        /* \"Samples/transfer1.sol\":1432:1453  allowence[msg.sender] */\n      0x00\n        /* \"Samples/transfer1.sol\":1442:1452  msg.sender */\n      caller\n        /* \"Samples/transfer1.sol\":1432:1453  allowence[msg.sender] */\n      0xffffffffffffffffffffffffffffffffffffffff\n      and\n      0xffffffffffffffffffffffffffffffffffffffff\n      and\n      dup2\n      mstore\n      0x20\n      add\n      swap1\n      dup2\n      mstore\n      0x20\n      add\n      0x00\n      keccak256\n        /* \"Samples/transfer1.sol\":1432:1462  allowence[msg.sender][spender] */\n      0x00\n        /* \"Samples/transfer1.sol\":1454:1461  spender */\n      dup5\n        /* \"Samples/transfer1.sol\":1432:1462  allowence[msg.sender][spender] */\n      0xffffffffffffffffffffffffffffffffffffffff\n      and\n      0xffffffffffffffffffffffffffffffffffffffff\n      and\n      dup2\n      mstore\n      0x20\n      add\n      swap1\n      dup2\n      mstore\n      0x20\n      add\n      0x00\n      keccak256\n      0x00\n        /* \"Samples/transfer1.sol\":1432:1472  allowence[msg.sender][spender] += amount */\n      dup3\n      dup3\n      sload\n      tag_48\n      swap2\n      swap1\n      tag_49\n      jump\t// in\n    tag_48:\n      swap3\n      pop\n      pop\n      dup2\n      swap1\n      sstore\n      pop\n        /* \"Samples/transfer1.sol\":1297:1480  function approve(address spender,uint amount) public{\r... */\n      pop\n      pop\n      jump\t// out\n        /* \"Samples/transfer1.sol\":617:730  function balanceof(address checkbalance) public view returns(uint){\r... */\n    tag_19:\n        /* \"Samples/transfer1.sol\":678:682  uint */\n      0x00\n        /* \"Samples/transfer1.sol\":701:708  balance */\n      dup1\n        /* \"Samples/transfer1.sol\":701:722  balance[checkbalance] */\n      0x00\n        /* \"Samples/transfer1.sol\":709:721  checkbalance */\n      dup4\n        /* \"Samples/transfer1.sol\":701:722  balance[checkbalance] */\n      0xffffffffffffffffffffffffffffffffffffffff\n      and\n      0xffffffffffffffffffffffffffffffffffffffff\n      and\n      dup2\n      mstore\n      0x20\n      add\n      swap1\n      dup2\n      mstore\n      0x20\n      add\n      0x00\n      keccak256\n      sload\n        /* \"Samples/transfer1.sol\":694:722  return balance[checkbalance] */\n      swap1\n      pop\n        /* \"Samples/transfer1.sol\":617:730  function balanceof(address checkbalance) public view returns(uint){\r... */\n      swap2\n      swap1\n      pop\n      jump\t// out\n        /* \"Samples/transfer1.sol\":342:515  function mint(address userAddress, uint amount) public{\r... */\n    tag_24:\n        /* \"Samples/transfer1.sol\":438:439  0 */\n      0x00\n        /* \"Samples/transfer1.sol\":415:440  userAddress != address(0) */\n      0xffffffffffffffffffffffffffffffffffffffff\n      and\n        /* \"Samples/transfer1.sol\":415:426  userAddress */\n      dup3\n        /* \"Samples/transfer1.sol\":415:440  userAddress != address(0) */\n      0xffffffffffffffffffffffffffffffffffffffff\n      and\n      eq\n      iszero\n        /* \"Samples/transfer1.sol\":407:466  require(userAddress != address(0), \"mint the zero address\") */\n      tag_52\n      jumpi\n      mload(0x40)\n      0x08c379a000000000000000000000000000000000000000000000000000000000\n      dup2\n      mstore\n      0x04\n      add\n      tag_53\n      swap1\n      tag_54\n      jump\t// in\n    tag_53:\n      mload(0x40)\n      dup1\n      swap2\n      sub\n      swap1\n      revert\n    tag_52:\n        /* \"Samples/transfer1.sol\":501:507  amount */\n      dup1\n        /* \"Samples/transfer1.sol\":477:484  balance */\n      0x00\n        /* \"Samples/transfer1.sol\":477:497  balance[userAddress] */\n      dup1\n        /* \"Samples/transfer1.sol\":485:496  userAddress */\n      dup5\n        /* \"Samples/transfer1.sol\":477:497  balance[userAddress] */\n      0xffffffffffffffffffffffffffffffffffffffff\n      and\n      0xffffffffffffffffffffffffffffffffffffffff\n      and\n      dup2\n      mstore\n      0x20\n      add\n      swap1\n      dup2\n      mstore\n      0x20\n      add\n      0x00\n      keccak256\n      0x00\n        /* \"Samples/transfer1.sol\":477:507  balance[userAddress] += amount */\n      dup3\n      dup3\n      sload\n      tag_55\n      swap2\n      swap1\n      tag_49\n      jump\t// in\n    tag_55:\n      swap3\n      pop\n      pop\n      dup2\n      swap1\n      sstore\n      pop\n        /* \"Samples/transfer1.sol\":342:515  function mint(address userAddress, uint amount) public{\r... */\n      pop\n      pop\n      jump\t// out\n        /* \"Samples/transfer1.sol\":950:1289  function transferfrom(address from, address to, uint amount) public{\r... */\n    tag_28:\n        /* \"Samples/transfer1.sol\":1045:1054  allowence */\n      0x01\n        /* \"Samples/transfer1.sol\":1045:1060  allowence[from] */\n      0x00\n        /* \"Samples/transfer1.sol\":1055:1059  from */\n      dup5\n        /* \"Samples/transfer1.sol\":1045:1060  allowence[from] */\n      0xffffffffffffffffffffffffffffffffffffffff\n      and\n      0xffffffffffffffffffffffffffffffffffffffff\n      and\n      dup2\n      mstore\n      0x20\n      add\n      swap1\n      dup2\n      mstore\n      0x20\n      add\n      0x00\n      keccak256\n        /* \"Samples/transfer1.sol\":1045:1072  allowence[from][msg.sender] */\n      0x00\n        /* \"Samples/transfer1.sol\":1061:1071  msg.sender */\n      caller\n        /* \"Samples/transfer1.sol\":1045:1072  allowence[from][msg.sender] */\n      0xffffffffffffffffffffffffffffffffffffffff\n      and\n      0xffffffffffffffffffffffffffffffffffffffff\n      and\n      dup2\n      mstore\n      0x20\n      add\n      swap1\n      dup2\n      mstore\n      0x20\n      add\n      0x00\n      keccak256\n      sload\n        /* \"Samples/transfer1.sol\":1036:1042  amount */\n      dup2\n        /* \"Samples/transfer1.sol\":1036:1072  amount < allowence[from][msg.sender] */\n      lt\n        /* \"Samples/transfer1.sol\":1028:1091  require(amount < allowence[from][msg.sender], \"not authorized\") */\n      tag_57\n      jumpi\n      mload(0x40)\n      0x08c379a000000000000000000000000000000000000000000000000000000000\n      dup2\n      mstore\n      0x04\n      add\n      tag_58\n      swap1\n      tag_59\n      jump\t// in\n    tag_58:\n      mload(0x40)\n      dup1\n      swap2\n      sub\n      swap1\n      revert\n    tag_57:\n        /* \"Samples/transfer1.sol\":1124:1125  0 */\n      0x00\n        /* \"Samples/transfer1.sol\":1110:1126  to != address(0) */\n      0xffffffffffffffffffffffffffffffffffffffff\n      and\n        /* \"Samples/transfer1.sol\":1110:1112  to */\n      dup3\n        /* \"Samples/transfer1.sol\":1110:1126  to != address(0) */\n      0xffffffffffffffffffffffffffffffffffffffff\n      and\n      eq\n      iszero\n        /* \"Samples/transfer1.sol\":1102:1167  require(to != address(0),\"transfer to zero address not possible\") */\n      tag_60\n      jumpi\n      mload(0x40)\n      0x08c379a000000000000000000000000000000000000000000000000000000000\n      dup2\n      mstore\n      0x04\n      add\n      tag_61\n      swap1\n      tag_62\n      jump\t// in\n    tag_61:\n      mload(0x40)\n      dup1\n      swap2\n      sub\n      swap1\n      revert\n    tag_60:\n        /* \"Samples/transfer1.sol\":1195:1201  amount */\n      dup1\n        /* \"Samples/transfer1.sol\":1178:1185  balance */\n      0x00\n        /* \"Samples/transfer1.sol\":1178:1191  balance[from] */\n      dup1\n        /* \"Samples/transfer1.sol\":1186:1190  from */\n      dup6\n        /* \"Samples/transfer1.sol\":1178:1191  balance[from] */\n      0xffffffffffffffffffffffffffffffffffffffff\n      and\n      0xffffffffffffffffffffffffffffffffffffffff\n      and\n      dup2\n      mstore\n      0x20\n      add\n      swap1\n      dup2\n      mstore\n      0x20\n      add\n      0x00\n      keccak256\n      0x00\n        /* \"Samples/transfer1.sol\":1178:1201  balance[from] -= amount */\n      dup3\n      dup3\n      sload\n      tag_63\n      swap2\n      swap1\n      tag_64\n      jump\t// in\n    tag_63:\n      swap3\n      pop\n      pop\n      dup2\n      swap1\n      sstore\n      pop\n        /* \"Samples/transfer1.sol\":1227:1233  amount */\n      dup1\n        /* \"Samples/transfer1.sol\":1212:1219  balance */\n      0x00\n        /* \"Samples/transfer1.sol\":1212:1223  balance[to] */\n      dup1\n        /* \"Samples/transfer1.sol\":1220:1222  to */\n      dup5\n        /* \"Samples/transfer1.sol\":1212:1223  balance[to] */\n      0xffffffffffffffffffffffffffffffffffffffff\n      and\n      0xffffffffffffffffffffffffffffffffffffffff\n      and\n      dup2\n      mstore\n      0x20\n      add\n      swap1\n      dup2\n      mstore\n      0x20\n      add\n      0x00\n      keccak256\n      0x00\n        /* \"Samples/transfer1.sol\":1212:1233  balance[to] += amount */\n      dup3\n      dup3\n      sload\n      tag_65\n      swap2\n      swap1\n      tag_49\n      jump\t// in\n    tag_65:\n      swap3\n      pop\n      pop\n      dup2\n      swap1\n      sstore\n      pop\n        /* \"Samples/transfer1.sol\":1275:1281  amount */\n      dup1\n        /* \"Samples/transfer1.sol\":1244:1253  allowence */\n      0x01\n        /* \"Samples/transfer1.sol\":1244:1259  allowence[from] */\n      0x00\n        /* \"Samples/transfer1.sol\":1254:1258  from */\n      dup6\n        /* \"Samples/transfer1.sol\":1244:1259  allowence[from] */\n      0xffffffffffffffffffffffffffffffffffffffff\n      and\n      0xffffffffffffffffffffffffffffffffffffffff\n      and\n      dup2\n      mstore\n      0x20\n      add\n      swap1\n      dup2\n      mstore\n      0x20\n      add\n      0x00\n      keccak256\n        /* \"Samples/transfer1.sol\":1244:1271  allowence[from][msg.sender] */\n      0x00\n        /* \"Samples/transfer1.sol\":1260:1270  msg.sender */\n      caller\n        /* \"Samples/transfer1.sol\":1244:1271  allowence[from][msg.sender] */\n      0xffffffffffffffffffffffffffffffffffffffff\n      and\n      0xffffffffffffffffffffffffffffffffffffffff\n      and\n      dup2\n      mstore\n      0x20\n      add\n      swap1\n      dup2\n      mstore\n      0x20\n      add\n      0x00\n      keccak256\n      0x00\n        /* \"Samples/transfer1.sol\":1244:1281  allowence[from][msg.sender] -= amount */\n      dup3\n      dup3\n      sload\n      tag_66\n      swap2\n      swap1\n      tag_64\n      jump\t// in\n    tag_66:\n      swap3\n      pop\n      pop\n      dup2\n      swap1\n      sstore\n      pop\n        /* \"Samples/transfer1.sol\":950:1289  function transferfrom(address from, address to, uint amount) public{\r... */\n      pop\n      pop\n      pop\n      jump\t// out\n        /* \"Samples/transfer1.sol\":523:609  function totalsupply() public view returns(uint){\r... */\n    tag_30:\n        /* \"Samples/transfer1.sol\":566:570  uint */\n      0x00\n        /* \"Samples/transfer1.sol\":589:601  total_supply */\n      sload(0x02)\n        /* \"Samples/transfer1.sol\":582:601  return total_supply */\n      swap1\n      pop\n        /* \"Samples/transfer1.sol\":523:609  function totalsupply() public view returns(uint){\r... */\n      swap1\n      jump\t// out\n        /* \"Samples/transfer1.sol\":133:194  mapping(address => mapping(address => uint)) public allowence */\n    tag_35:\n      mstore(0x20, 0x01)\n      dup2\n      0x00\n      mstore\n      mstore(0x20, keccak256(0x00, 0x40))\n      dup1\n      0x00\n      mstore\n      keccak256(0x00, 0x40)\n      0x00\n      swap2\n      pop\n      swap2\n      pop\n      pop\n      sload\n      dup2\n      jump\t// out\n        /* \"Samples/transfer1.sol\":738:942  function transfer(address to, uint amount) public{\r... */\n    tag_39:\n        /* \"Samples/transfer1.sol\":820:821  0 */\n      0x00\n        /* \"Samples/transfer1.sol\":806:822  to != address(0) */\n      0xffffffffffffffffffffffffffffffffffffffff\n      and\n        /* \"Samples/transfer1.sol\":806:808  to */\n      dup3\n        /* \"Samples/transfer1.sol\":806:822  to != address(0) */\n      0xffffffffffffffffffffffffffffffffffffffff\n      and\n      eq\n      iszero\n        /* \"Samples/transfer1.sol\":798:863  require(to != address(0),\"transfer to zero address not possible\") */\n      tag_69\n      jumpi\n      mload(0x40)\n      0x08c379a000000000000000000000000000000000000000000000000000000000\n      dup2\n      mstore\n      0x04\n      add\n      tag_70\n      swap1\n      tag_62\n      jump\t// in\n    tag_70:\n      mload(0x40)\n      dup1\n      swap2\n      sub\n      swap1\n      revert\n    tag_69:\n        /* \"Samples/transfer1.sol\":897:903  amount */\n      dup1\n        /* \"Samples/transfer1.sol\":874:881  balance */\n      0x00\n        /* \"Samples/transfer1.sol\":874:893  balance[msg.sender] */\n      dup1\n        /* \"Samples/transfer1.sol\":882:892  msg.sender */\n      caller\n        /* \"Samples/transfer1.sol\":874:893  balance[msg.sender] */\n      0xffffffffffffffffffffffffffffffffffffffff\n      and\n      0xffffffffffffffffffffffffffffffffffffffff\n      and\n      dup2\n      mstore\n      0x20\n      add\n      swap1\n      dup2\n      mstore\n      0x20\n      add\n      0x00\n      keccak256\n      0x00\n        /* \"Samples/transfer1.sol\":874:903  balance[msg.sender] -= amount */\n      dup3\n      dup3\n      sload\n      tag_71\n      swap2\n      swap1\n      tag_64\n      jump\t// in\n    tag_71:\n      swap3\n      pop\n      pop\n      dup2\n      swap1\n      sstore\n      pop\n        /* \"Samples/transfer1.sol\":928:934  amount */\n      dup1\n        /* \"Samples/transfer1.sol\":914:921  balance */\n      0x00\n        /* \"Samples/transfer1.sol\":914:925  balance[to] */\n      dup1\n        /* \"Samples/transfer1.sol\":922:924  to */\n      dup5\n        /* \"Samples/transfer1.sol\":914:925  balance[to] */\n      0xffffffffffffffffffffffffffffffffffffffff\n      and\n      0xffffffffffffffffffffffffffffffffffffffff\n      and\n      dup2\n      mstore\n      0x20\n      add\n      swap1\n      dup2\n      mstore\n      0x20\n      add\n      0x00\n      keccak256\n      0x00\n        /* \"Samples/transfer1.sol\":914:934  balance[to] +=amount */\n      dup3\n      dup3\n      sload\n      tag_72\n      swap2\n      swap1\n      tag_49\n      jump\t// in\n    tag_72:\n      swap3\n      pop\n      pop\n      dup2\n      swap1\n      sstore\n      pop\n        /* \"Samples/transfer1.sol\":738:942  function transfer(address to, uint amount) public{\r... */\n      pop\n      pop\n      jump\t// out\n        /* \"Samples/transfer1.sol\":87:126  mapping(address => uint) public balance */\n    tag_42:\n      mstore(0x20, 0x00)\n      dup1\n      0x00\n      mstore\n      keccak256(0x00, 0x40)\n      0x00\n      swap2\n      pop\n      swap1\n      pop\n      sload\n      dup2\n      jump\t// out\n        /* \"#utility.yul\":7:146   */\n    tag_74:\n        /* \"#utility.yul\":53:58   */\n      0x00\n        /* \"#utility.yul\":91:97   */\n      dup2\n        /* \"#utility.yul\":78:98   */\n      calldataload\n        /* \"#utility.yul\":69:98   */\n      swap1\n      pop\n        /* \"#utility.yul\":107:140   */\n      tag_76\n        /* \"#utility.yul\":134:139   */\n      dup2\n        /* \"#utility.yul\":107:140   */\n      tag_77\n      jump\t// in\n    tag_76:\n        /* \"#utility.yul\":7:146   */\n      swap3\n      swap2\n      pop\n      pop\n      jump\t// out\n        /* \"#utility.yul\":152:291   */\n    tag_78:\n        /* \"#utility.yul\":198:203   */\n      0x00\n        /* \"#utility.yul\":236:242   */\n      dup2\n        /* \"#utility.yul\":223:243   */\n      calldataload\n        /* \"#utility.yul\":214:243   */\n      swap1\n      pop\n        /* \"#utility.yul\":252:285   */\n      tag_80\n        /* \"#utility.yul\":279:284   */\n      dup2\n        /* \"#utility.yul\":252:285   */\n      tag_81\n      jump\t// in\n    tag_80:\n        /* \"#utility.yul\":152:291   */\n      swap3\n      swap2\n      pop\n      pop\n      jump\t// out\n        /* \"#utility.yul\":297:626   */\n    tag_18:\n        /* \"#utility.yul\":356:362   */\n      0x00\n        /* \"#utility.yul\":405:407   */\n      0x20\n        /* \"#utility.yul\":393:402   */\n      dup3\n        /* \"#utility.yul\":384:391   */\n      dup5\n        /* \"#utility.yul\":380:403   */\n      sub\n        /* \"#utility.yul\":376:408   */\n      slt\n        /* \"#utility.yul\":373:492   */\n      iszero\n      tag_83\n      jumpi\n        /* \"#utility.yul\":411:490   */\n      tag_84\n      tag_85\n      jump\t// in\n    tag_84:\n        /* \"#utility.yul\":373:492   */\n    tag_83:\n        /* \"#utility.yul\":531:532   */\n      0x00\n        /* \"#utility.yul\":556:609   */\n      tag_86\n        /* \"#utility.yul\":601:608   */\n      dup5\n        /* \"#utility.yul\":592:598   */\n      dup3\n        /* \"#utility.yul\":581:590   */\n      dup6\n        /* \"#utility.yul\":577:599   */\n      add\n        /* \"#utility.yul\":556:609   */\n      tag_74\n      jump\t// in\n    tag_86:\n        /* \"#utility.yul\":546:609   */\n      swap2\n      pop\n        /* \"#utility.yul\":502:619   */\n      pop\n        /* \"#utility.yul\":297:626   */\n      swap3\n      swap2\n      pop\n      pop\n      jump\t// out\n        /* \"#utility.yul\":632:1106   */\n    tag_34:\n        /* \"#utility.yul\":700:706   */\n      0x00\n        /* \"#utility.yul\":708:714   */\n      dup1\n        /* \"#utility.yul\":757:759   */\n      0x40\n        /* \"#utility.yul\":745:754   */\n      dup4\n        /* \"#utility.yul\":736:743   */\n      dup6\n        /* \"#utility.yul\":732:755   */\n      sub\n        /* \"#utility.yul\":728:760   */\n      slt\n        /* \"#utility.yul\":725:844   */\n      iszero\n      tag_88\n      jumpi\n        /* \"#utility.yul\":763:842   */\n      tag_89\n      tag_85\n      jump\t// in\n    tag_89:\n        /* \"#utility.yul\":725:844   */\n    tag_88:\n        /* \"#utility.yul\":883:884   */\n      0x00\n        /* \"#utility.yul\":908:961   */\n      tag_90\n        /* \"#utility.yul\":953:960   */\n      dup6\n        /* \"#utility.yul\":944:950   */\n      dup3\n        /* \"#utility.yul\":933:942   */\n      dup7\n        /* \"#utility.yul\":929:951   */\n      add\n        /* \"#utility.yul\":908:961   */\n      tag_74\n      jump\t// in\n    tag_90:\n        /* \"#utility.yul\":898:961   */\n      swap3\n      pop\n        /* \"#utility.yul\":854:971   */\n      pop\n        /* \"#utility.yul\":1010:1012   */\n      0x20\n        /* \"#utility.yul\":1036:1089   */\n      tag_91\n        /* \"#utility.yul\":1081:1088   */\n      dup6\n        /* \"#utility.yul\":1072:1078   */\n      dup3\n        /* \"#utility.yul\":1061:1070   */\n      dup7\n        /* \"#utility.yul\":1057:1079   */\n      add\n        /* \"#utility.yul\":1036:1089   */\n      tag_74\n      jump\t// in\n    tag_91:\n        /* \"#utility.yul\":1026:1089   */\n      swap2\n      pop\n        /* \"#utility.yul\":981:1099   */\n      pop\n        /* \"#utility.yul\":632:1106   */\n      swap3\n      pop\n      swap3\n      swap1\n      pop\n      jump\t// out\n        /* \"#utility.yul\":1112:1731   */\n    tag_27:\n        /* \"#utility.yul\":1189:1195   */\n      0x00\n        /* \"#utility.yul\":1197:1203   */\n      dup1\n        /* \"#utility.yul\":1205:1211   */\n      0x00\n        /* \"#utility.yul\":1254:1256   */\n      0x60\n        /* \"#utility.yul\":1242:1251   */\n      dup5\n        /* \"#utility.yul\":1233:1240   */\n      dup7\n        /* \"#utility.yul\":1229:1252   */\n      sub\n        /* \"#utility.yul\":1225:1257   */\n      slt\n        /* \"#utility.yul\":1222:1341   */\n      iszero\n      tag_93\n      jumpi\n        /* \"#utility.yul\":1260:1339   */\n      tag_94\n      tag_85\n      jump\t// in\n    tag_94:\n        /* \"#utility.yul\":1222:1341   */\n    tag_93:\n        /* \"#utility.yul\":1380:1381   */\n      0x00\n        /* \"#utility.yul\":1405:1458   */\n      tag_95\n        /* \"#utility.yul\":1450:1457   */\n      dup7\n        /* \"#utility.yul\":1441:1447   */\n      dup3\n        /* \"#utility.yul\":1430:1439   */\n      dup8\n        /* \"#utility.yul\":1426:1448   */\n      add\n        /* \"#utility.yul\":1405:1458   */\n      tag_74\n      jump\t// in\n    tag_95:\n        /* \"#utility.yul\":1395:1458   */\n      swap4\n      pop\n        /* \"#utility.yul\":1351:1468   */\n      pop\n        /* \"#utility.yul\":1507:1509   */\n      0x20\n        /* \"#utility.yul\":1533:1586   */\n      tag_96\n        /* \"#utility.yul\":1578:1585   */\n      dup7\n        /* \"#utility.yul\":1569:1575   */\n      dup3\n        /* \"#utility.yul\":1558:1567   */\n      dup8\n        /* \"#utility.yul\":1554:1576   */\n      add\n        /* \"#utility.yul\":1533:1586   */\n      tag_74\n      jump\t// in\n    tag_96:\n        /* \"#utility.yul\":1523:1586   */\n      swap3\n      pop\n        /* \"#utility.yul\":1478:1596   */\n      pop\n        /* \"#utility.yul\":1635:1637   */\n      0x40\n        /* \"#utility.yul\":1661:1714   */\n      tag_97\n        /* \"#utility.yul\":1706:1713   */\n      dup7\n        /* \"#utility.yul\":1697:1703   */\n      dup3\n        /* \"#utility.yul\":1686:1695   */\n      dup8\n        /* \"#utility.yul\":1682:1704   */\n      add\n        /* \"#utility.yul\":1661:1714   */\n      tag_78\n      jump\t// in\n    tag_97:\n        /* \"#utility.yul\":1651:1714   */\n      swap2\n      pop\n        /* \"#utility.yul\":1606:1724   */\n      pop\n        /* \"#utility.yul\":1112:1731   */\n      swap3\n      pop\n      swap3\n      pop\n      swap3\n      jump\t// out\n        /* \"#utility.yul\":1737:2211   */\n    tag_14:\n        /* \"#utility.yul\":1805:1811   */\n      0x00\n        /* \"#utility.yul\":1813:1819   */\n      dup1\n        /* \"#utility.yul\":1862:1864   */\n      0x40\n        /* \"#utility.yul\":1850:1859   */\n      dup4\n        /* \"#utility.yul\":1841:1848   */\n      dup6\n        /* \"#utility.yul\":1837:1860   */\n      sub\n        /* \"#utility.yul\":1833:1865   */\n      slt\n        /* \"#utility.yul\":1830:1949   */\n      iszero\n      tag_99\n      jumpi\n        /* \"#utility.yul\":1868:1947   */\n      tag_100\n      tag_85\n      jump\t// in\n    tag_100:\n        /* \"#utility.yul\":1830:1949   */\n    tag_99:\n        /* \"#utility.yul\":1988:1989   */\n      0x00\n        /* \"#utility.yul\":2013:2066   */\n      tag_101\n        /* \"#utility.yul\":2058:2065   */\n      dup6\n        /* \"#utility.yul\":2049:2055   */\n      dup3\n        /* \"#utility.yul\":2038:2047   */\n      dup7\n        /* \"#utility.yul\":2034:2056   */\n      add\n        /* \"#utility.yul\":2013:2066   */\n      tag_74\n      jump\t// in\n    tag_101:\n        /* \"#utility.yul\":2003:2066   */\n      swap3\n      pop\n        /* \"#utility.yul\":1959:2076   */\n      pop\n        /* \"#utility.yul\":2115:2117   */\n      0x20\n        /* \"#utility.yul\":2141:2194   */\n      tag_102\n        /* \"#utility.yul\":2186:2193   */\n      dup6\n        /* \"#utility.yul\":2177:2183   */\n      dup3\n        /* \"#utility.yul\":2166:2175   */\n      dup7\n        /* \"#utility.yul\":2162:2184   */\n      add\n        /* \"#utility.yul\":2141:2194   */\n      tag_78\n      jump\t// in\n    tag_102:\n        /* \"#utility.yul\":2131:2194   */\n      swap2\n      pop\n        /* \"#utility.yul\":2086:2204   */\n      pop\n        /* \"#utility.yul\":1737:2211   */\n      swap3\n      pop\n      swap3\n      swap1\n      pop\n      jump\t// out\n        /* \"#utility.yul\":2217:2583   */\n    tag_103:\n        /* \"#utility.yul\":2359:2362   */\n      0x00\n        /* \"#utility.yul\":2380:2447   */\n      tag_105\n        /* \"#utility.yul\":2444:2446   */\n      0x15\n        /* \"#utility.yul\":2439:2442   */\n      dup4\n        /* \"#utility.yul\":2380:2447   */\n      tag_106\n      jump\t// in\n    tag_105:\n        /* \"#utility.yul\":2373:2447   */\n      swap2\n      pop\n        /* \"#utility.yul\":2456:2549   */\n      tag_107\n        /* \"#utility.yul\":2545:2548   */\n      dup3\n        /* \"#utility.yul\":2456:2549   */\n      tag_108\n      jump\t// in\n    tag_107:\n        /* \"#utility.yul\":2574:2576   */\n      0x20\n        /* \"#utility.yul\":2569:2572   */\n      dup3\n        /* \"#utility.yul\":2565:2577   */\n      add\n        /* \"#utility.yul\":2558:2577   */\n      swap1\n      pop\n        /* \"#utility.yul\":2217:2583   */\n      swap2\n      swap1\n      pop\n      jump\t// out\n        /* \"#utility.yul\":2589:2955   */\n    tag_109:\n        /* \"#utility.yul\":2731:2734   */\n      0x00\n        /* \"#utility.yul\":2752:2819   */\n      tag_111\n        /* \"#utility.yul\":2816:2818   */\n      0x0e\n        /* \"#utility.yul\":2811:2814   */\n      dup4\n        /* \"#utility.yul\":2752:2819   */\n      tag_106\n      jump\t// in\n    tag_111:\n        /* \"#utility.yul\":2745:2819   */\n      swap2\n      pop\n        /* \"#utility.yul\":2828:2921   */\n      tag_112\n        /* \"#utility.yul\":2917:2920   */\n      dup3\n        /* \"#utility.yul\":2828:2921   */\n      tag_113\n      jump\t// in\n    tag_112:\n        /* \"#utility.yul\":2946:2948   */\n      0x20\n        /* \"#utility.yul\":2941:2944   */\n      dup3\n        /* \"#utility.yul\":2937:2949   */\n      add\n        /* \"#utility.yul\":2930:2949   */\n      swap1\n      pop\n        /* \"#utility.yul\":2589:2955   */\n      swap2\n      swap1\n      pop\n      jump\t// out\n        /* \"#utility.yul\":2961:3327   */\n    tag_114:\n        /* \"#utility.yul\":3103:3106   */\n      0x00\n        /* \"#utility.yul\":3124:3191   */\n      tag_116\n        /* \"#utility.yul\":3188:3190   */\n      0x17\n        /* \"#utility.yul\":3183:3186   */\n      dup4\n        /* \"#utility.yul\":3124:3191   */\n      tag_106\n      jump\t// in\n    tag_116:\n        /* \"#utility.yul\":3117:3191   */\n      swap2\n      pop\n        /* \"#utility.yul\":3200:3293   */\n      tag_117\n        /* \"#utility.yul\":3289:3292   */\n      dup3\n        /* \"#utility.yul\":3200:3293   */\n      tag_118\n      jump\t// in\n    tag_117:\n        /* \"#utility.yul\":3318:3320   */\n      0x20\n        /* \"#utility.yul\":3313:3316   */\n      dup3\n        /* \"#utility.yul\":3309:3321   */\n      add\n        /* \"#utility.yul\":3302:3321   */\n      swap1\n      pop\n        /* \"#utility.yul\":2961:3327   */\n      swap2\n      swap1\n      pop\n      jump\t// out\n        /* \"#utility.yul\":3333:3699   */\n    tag_119:\n        /* \"#utility.yul\":3475:3478   */\n      0x00\n        /* \"#utility.yul\":3496:3563   */\n      tag_121\n        /* \"#utility.yul\":3560:3562   */\n      0x25\n        /* \"#utility.yul\":3555:3558   */\n      dup4\n        /* \"#utility.yul\":3496:3563   */\n      tag_106\n      jump\t// in\n    tag_121:\n        /* \"#utility.yul\":3489:3563   */\n      swap2\n      pop\n        /* \"#utility.yul\":3572:3665   */\n      tag_122\n        /* \"#utility.yul\":3661:3664   */\n      dup3\n        /* \"#utility.yul\":3572:3665   */\n      tag_123\n      jump\t// in\n    tag_122:\n        /* \"#utility.yul\":3690:3692   */\n      0x40\n        /* \"#utility.yul\":3685:3688   */\n      dup3\n        /* \"#utility.yul\":3681:3693   */\n      add\n        /* \"#utility.yul\":3674:3693   */\n      swap1\n      pop\n        /* \"#utility.yul\":3333:3699   */\n      swap2\n      swap1\n      pop\n      jump\t// out\n        /* \"#utility.yul\":3705:3823   */\n    tag_124:\n        /* \"#utility.yul\":3792:3816   */\n      tag_126\n        /* \"#utility.yul\":3810:3815   */\n      dup2\n        /* \"#utility.yul\":3792:3816   */\n      tag_127\n      jump\t// in\n    tag_126:\n        /* \"#utility.yul\":3787:3790   */\n      dup3\n        /* \"#utility.yul\":3780:3817   */\n      mstore\n        /* \"#utility.yul\":3705:3823   */\n      pop\n      pop\n      jump\t// out\n        /* \"#utility.yul\":3829:4248   */\n    tag_54:\n        /* \"#utility.yul\":3995:3999   */\n      0x00\n        /* \"#utility.yul\":4033:4035   */\n      0x20\n        /* \"#utility.yul\":4022:4031   */\n      dup3\n        /* \"#utility.yul\":4018:4036   */\n      add\n        /* \"#utility.yul\":4010:4036   */\n      swap1\n      pop\n        /* \"#utility.yul\":4082:4091   */\n      dup2\n        /* \"#utility.yul\":4076:4080   */\n      dup2\n        /* \"#utility.yul\":4072:4092   */\n      sub\n        /* \"#utility.yul\":4068:4069   */\n      0x00\n        /* \"#utility.yul\":4057:4066   */\n      dup4\n        /* \"#utility.yul\":4053:4070   */\n      add\n        /* \"#utility.yul\":4046:4093   */\n      mstore\n        /* \"#utility.yul\":4110:4241   */\n      tag_129\n        /* \"#utility.yul\":4236:4240   */\n      dup2\n        /* \"#utility.yul\":4110:4241   */\n      tag_103\n      jump\t// in\n    tag_129:\n        /* \"#utility.yul\":4102:4241   */\n      swap1\n      pop\n        /* \"#utility.yul\":3829:4248   */\n      swap2\n      swap1\n      pop\n      jump\t// out\n        /* \"#utility.yul\":4254:4673   */\n    tag_59:\n        /* \"#utility.yul\":4420:4424   */\n      0x00\n        /* \"#utility.yul\":4458:4460   */\n      0x20\n        /* \"#utility.yul\":4447:4456   */\n      dup3\n        /* \"#utility.yul\":4443:4461   */\n      add\n        /* \"#utility.yul\":4435:4461   */\n      swap1\n      pop\n        /* \"#utility.yul\":4507:4516   */\n      dup2\n        /* \"#utility.yul\":4501:4505   */\n      dup2\n        /* \"#utility.yul\":4497:4517   */\n      sub\n        /* \"#utility.yul\":4493:4494   */\n      0x00\n        /* \"#utility.yul\":4482:4491   */\n      dup4\n        /* \"#utility.yul\":4478:4495   */\n      add\n        /* \"#utility.yul\":4471:4518   */\n      mstore\n        /* \"#utility.yul\":4535:4666   */\n      tag_131\n        /* \"#utility.yul\":4661:4665   */\n      dup2\n        /* \"#utility.yul\":4535:4666   */\n      tag_109\n      jump\t// in\n    tag_131:\n        /* \"#utility.yul\":4527:4666   */\n      swap1\n      pop\n        /* \"#utility.yul\":4254:4673   */\n      swap2\n      swap1\n      pop\n      jump\t// out\n        /* \"#utility.yul\":4679:5098   */\n    tag_47:\n        /* \"#utility.yul\":4845:4849   */\n      0x00\n        /* \"#utility.yul\":4883:4885   */\n      0x20\n        /* \"#utility.yul\":4872:4881   */\n      dup3\n        /* \"#utility.yul\":4868:4886   */\n      add\n        /* \"#utility.yul\":4860:4886   */\n      swap1\n      pop\n        /* \"#utility.yul\":4932:4941   */\n      dup2\n        /* \"#utility.yul\":4926:4930   */\n      dup2\n        /* \"#utility.yul\":4922:4942   */\n      sub\n        /* \"#utility.yul\":4918:4919   */\n      0x00\n        /* \"#utility.yul\":4907:4916   */\n      dup4\n        /* \"#utility.yul\":4903:4920   */\n      add\n        /* \"#utility.yul\":4896:4943   */\n      mstore\n        /* \"#utility.yul\":4960:5091   */\n      tag_133\n        /* \"#utility.yul\":5086:5090   */\n      dup2\n        /* \"#utility.yul\":4960:5091   */\n      tag_114\n      jump\t// in\n    tag_133:\n        /* \"#utility.yul\":4952:5091   */\n      swap1\n      pop\n        /* \"#utility.yul\":4679:5098   */\n      swap2\n      swap1\n      pop\n      jump\t// out\n        /* \"#utility.yul\":5104:5523   */\n    tag_62:\n        /* \"#utility.yul\":5270:5274   */\n      0x00\n        /* \"#utility.yul\":5308:5310   */\n      0x20\n        /* \"#utility.yul\":5297:5306   */\n      dup3\n        /* \"#utility.yul\":5293:5311   */\n      add\n        /* \"#utility.yul\":5285:5311   */\n      swap1\n      pop\n        /* \"#utility.yul\":5357:5366   */\n      dup2\n        /* \"#utility.yul\":5351:5355   */\n      dup2\n        /* \"#utility.yul\":5347:5367   */\n      sub\n        /* \"#utility.yul\":5343:5344   */\n      0x00\n        /* \"#utility.yul\":5332:5341   */\n      dup4\n        /* \"#utility.yul\":5328:5345   */\n      add\n        /* \"#utility.yul\":5321:5368   */\n      mstore\n        /* \"#utility.yul\":5385:5516   */\n      tag_135\n        /* \"#utility.yul\":5511:5515   */\n      dup2\n        /* \"#utility.yul\":5385:5516   */\n      tag_119\n      jump\t// in\n    tag_135:\n        /* \"#utility.yul\":5377:5516   */\n      swap1\n      pop\n        /* \"#utility.yul\":5104:5523   */\n      swap2\n      swap1\n      pop\n      jump\t// out\n        /* \"#utility.yul\":5529:5751   */\n    tag_21:\n        /* \"#utility.yul\":5622:5626   */\n      0x00\n        /* \"#utility.yul\":5660:5662   */\n      0x20\n        /* \"#utility.yul\":5649:5658   */\n      dup3\n        /* \"#utility.yul\":5645:5663   */\n      add\n        /* \"#utility.yul\":5637:5663   */\n      swap1\n      pop\n        /* \"#utility.yul\":5673:5744   */\n      tag_137\n        /* \"#utility.yul\":5741:5742   */\n      0x00\n        /* \"#utility.yul\":5730:5739   */\n      dup4\n        /* \"#utility.yul\":5726:5743   */\n      add\n        /* \"#utility.yul\":5717:5723   */\n      dup5\n        /* \"#utility.yul\":5673:5744   */\n      tag_124\n      jump\t// in\n    tag_137:\n        /* \"#utility.yul\":5529:5751   */\n      swap3\n      swap2\n      pop\n      pop\n      jump\t// out\n        /* \"#utility.yul\":5838:6007   */\n    tag_106:\n        /* \"#utility.yul\":5922:5933   */\n      0x00\n        /* \"#utility.yul\":5956:5962   */\n      dup3\n        /* \"#utility.yul\":5951:5954   */\n      dup3\n        /* \"#utility.yul\":5944:5963   */\n      mstore\n        /* \"#utility.yul\":5996:6000   */\n      0x20\n        /* \"#utility.yul\":5991:5994   */\n      dup3\n        /* \"#utility.yul\":5987:6001   */\n      add\n        /* \"#utility.yul\":5972:6001   */\n      swap1\n      pop\n        /* \"#utility.yul\":5838:6007   */\n      swap3\n      swap2\n      pop\n      pop\n      jump\t// out\n        /* \"#utility.yul\":6013:6318   */\n    tag_49:\n        /* \"#utility.yul\":6053:6056   */\n      0x00\n        /* \"#utility.yul\":6072:6092   */\n      tag_142\n        /* \"#utility.yul\":6090:6091   */\n      dup3\n        /* \"#utility.yul\":6072:6092   */\n      tag_127\n      jump\t// in\n    tag_142:\n        /* \"#utility.yul\":6067:6092   */\n      swap2\n      pop\n        /* \"#utility.yul\":6106:6126   */\n      tag_143\n        /* \"#utility.yul\":6124:6125   */\n      dup4\n        /* \"#utility.yul\":6106:6126   */\n      tag_127\n      jump\t// in\n    tag_143:\n        /* \"#utility.yul\":6101:6126   */\n      swap3\n      pop\n        /* \"#utility.yul\":6260:6261   */\n      dup3\n        /* \"#utility.yul\":6192:6258   */\n      0xffffffffffffffffffffffffffffffffffffffffffffffffffffffffffffffff\n        /* \"#utility.yul\":6188:6262   */\n      sub\n        /* \"#utility.yul\":6185:6186   */\n      dup3\n        /* \"#utility.yul\":6182:6263   */\n      gt\n        /* \"#utility.yul\":6179:6286   */\n      iszero\n      tag_144\n      jumpi\n        /* \"#utility.yul\":6266:6284   */\n      tag_145\n      tag_146\n      jump\t// in\n    tag_145:\n        /* \"#utility.yul\":6179:6286   */\n    tag_144:\n        /* \"#utility.yul\":6310:6311   */\n      dup3\n        /* \"#utility.yul\":6307:6308   */\n      dup3\n        /* \"#utility.yul\":6303:6312   */\n      add\n        /* \"#utility.yul\":6296:6312   */\n      swap1\n      pop\n        /* \"#utility.yul\":6013:6318   */\n      swap3\n      swap2\n      pop\n      pop\n      jump\t// out\n        /* \"#utility.yul\":6324:6515   */\n    tag_64:\n        /* \"#utility.yul\":6364:6368   */\n      0x00\n        /* \"#utility.yul\":6384:6404   */\n      tag_148\n        /* \"#utility.yul\":6402:6403   */\n      dup3\n        /* \"#utility.yul\":6384:6404   */\n      tag_127\n      jump\t// in\n    tag_148:\n        /* \"#utility.yul\":6379:6404   */\n      swap2\n      pop\n        /* \"#utility.yul\":6418:6438   */\n      tag_149\n        /* \"#utility.yul\":6436:6437   */\n      dup4\n        /* \"#utility.yul\":6418:6438   */\n      tag_127\n      jump\t// in\n    tag_149:\n        /* \"#utility.yul\":6413:6438   */\n      swap3\n      pop\n        /* \"#utility.yul\":6457:6458   */\n      dup3\n        /* \"#utility.yul\":6454:6455   */\n      dup3\n        /* \"#utility.yul\":6451:6459   */\n      lt\n        /* \"#utility.yul\":6448:6482   */\n      iszero\n      tag_150\n      jumpi\n        /* \"#utility.yul\":6462:6480   */\n      tag_151\n      tag_146\n      jump\t// in\n    tag_151:\n        /* \"#utility.yul\":6448:6482   */\n    tag_150:\n        /* \"#utility.yul\":6507:6508   */\n      dup3\n        /* \"#utility.yul\":6504:6505   */\n      dup3\n        /* \"#utility.yul\":6500:6509   */\n      sub\n        /* \"#utility.yul\":6492:6509   */\n      swap1\n      pop\n        /* \"#utility.yul\":6324:6515   */\n      swap3\n      swap2\n      pop\n      pop\n      jump\t// out\n        /* \"#utility.yul\":6521:6617   */\n    tag_152:\n        /* \"#utility.yul\":6558:6565   */\n      0x00\n        /* \"#utility.yul\":6587:6611   */\n      tag_154\n        /* \"#utility.yul\":6605:6610   */\n      dup3\n        /* \"#utility.yul\":6587:6611   */\n      tag_155\n      jump\t// in\n    tag_154:\n        /* \"#utility.yul\":6576:6611   */\n      swap1\n      pop\n        /* \"#utility.yul\":6521:6617   */\n      swap2\n      swap1\n      pop\n      jump\t// out\n        /* \"#utility.yul\":6623:6749   */\n    tag_155:\n        /* \"#utility.yul\":6660:6667   */\n      0x00\n        /* \"#utility.yul\":6700:6742   */\n      0xffffffffffffffffffffffffffffffffffffffff\n        /* \"#utility.yul\":6693:6698   */\n      dup3\n        /* \"#utility.yul\":6689:6743   */\n      and\n        /* \"#utility.yul\":6678:6743   */\n      swap1\n      pop\n        /* \"#utility.yul\":6623:6749   */\n      swap2\n      swap1\n      pop\n      jump\t// out\n        /* \"#utility.yul\":6755:6832   */\n    tag_127:\n        /* \"#utility.yul\":6792:6799   */\n      0x00\n        /* \"#utility.yul\":6821:6826   */\n      dup2\n        /* \"#utility.yul\":6810:6826   */\n      swap1\n      pop\n        /* \"#utility.yul\":6755:6832   */\n      swap2\n      swap1\n      pop\n      jump\t// out\n        /* \"#utility.yul\":6838:7018   */\n    tag_146:\n        /* \"#utility.yul\":6886:6963   */\n      0x4e487b7100000000000000000000000000000000000000000000000000000000\n        /* \"#utility.yul\":6883:6884   */\n      0x00\n        /* \"#utility.yul\":6876:6964   */\n      mstore\n        /* \"#utility.yul\":6983:6987   */\n      0x11\n        /* \"#utility.yul\":6980:6981   */\n      0x04\n        /* \"#utility.yul\":6973:6988   */\n      mstore\n        /* \"#utility.yul\":7007:7011   */\n      0x24\n        /* \"#utility.yul\":7004:7005   */\n      0x00\n        /* \"#utility.yul\":6997:7012   */\n      revert\n        /* \"#utility.yul\":7147:7264   */\n    tag_85:\n        /* \"#utility.yul\":7256:7257   */\n      0x00\n        /* \"#utility.yul\":7253:7254   */\n      dup1\n        /* \"#utility.yul\":7246:7258   */\n      revert\n        /* \"#utility.yul\":7270:7441   */\n    tag_108:\n        /* \"#utility.yul\":7410:7433   */\n      0x6d696e7420746865207a65726f20616464726573730000000000000000000000\n        /* \"#utility.yul\":7406:7407   */\n      0x00\n        /* \"#utility.yul\":7398:7404   */\n      dup3\n        /* \"#utility.yul\":7394:7408   */\n      add\n        /* \"#utility.yul\":7387:7434   */\n      mstore\n        /* \"#utility.yul\":7270:7441   */\n      pop\n      jump\t// out\n        /* \"#utility.yul\":7447:7611   */\n    tag_113:\n        /* \"#utility.yul\":7587:7603   */\n      0x6e6f7420617574686f72697a6564000000000000000000000000000000000000\n        /* \"#utility.yul\":7583:7584   */\n      0x00\n        /* \"#utility.yul\":7575:7581   */\n      dup3\n        /* \"#utility.yul\":7571:7585   */\n      add\n        /* \"#utility.yul\":7564:7604   */\n      mstore\n        /* \"#utility.yul\":7447:7611   */\n      pop\n      jump\t// out\n        /* \"#utility.yul\":7617:7790   */\n    tag_118:\n        /* \"#utility.yul\":7757:7782   */\n      0x617070726f766520746f207a65726f2061646472657373000000000000000000\n        /* \"#utility.yul\":7753:7754   */\n      0x00\n        /* \"#utility.yul\":7745:7751   */\n      dup3\n        /* \"#utility.yul\":7741:7755   */\n      add\n        /* \"#utility.yul\":7734:7783   */\n      mstore\n        /* \"#utility.yul\":7617:7790   */\n      pop\n      jump\t// out\n        /* \"#utility.yul\":7796:8020   */\n    tag_123:\n        /* \"#utility.yul\":7936:7970   */\n      0x7472616e7366657220746f207a65726f2061646472657373206e6f7420706f73\n        /* \"#utility.yul\":7932:7933   */\n      0x00\n        /* \"#utility.yul\":7924:7930   */\n      dup3\n        /* \"#utility.yul\":7920:7934   */\n      add\n        /* \"#utility.yul\":7913:7971   */\n      mstore\n        /* \"#utility.yul\":8005:8012   */\n      0x7369626c65000000000000000000000000000000000000000000000000000000\n        /* \"#utility.yul\":8000:8002   */\n      0x20\n        /* \"#utility.yul\":7992:7998   */\n      dup3\n        /* \"#utility.yul\":7988:8003   */\n      add\n        /* \"#utility.yul\":7981:8013   */\n      mstore\n        /* \"#utility.yul\":7796:8020   */\n      pop\n      jump\t// out\n        /* \"#utility.yul\":8026:8148   */\n    tag_77:\n        /* \"#utility.yul\":8099:8123   */\n      tag_167\n        /* \"#utility.yul\":8117:8122   */\n      dup2\n        /* \"#utility.yul\":8099:8123   */\n      tag_152\n      jump\t// in\n    tag_167:\n        /* \"#utility.yul\":8092:8097   */\n      dup2\n        /* \"#utility.yul\":8089:8124   */\n      eq\n        /* \"#utility.yul\":8079:8142   */\n      tag_168\n      jumpi\n        /* \"#utility.yul\":8138:8139   */\n      0x00\n        /* \"#utility.yul\":8135:8136   */\n      dup1\n        /* \"#utility.yul\":8128:8140   */\n      revert\n        /* \"#utility.yul\":8079:8142   */\n    tag_168:\n        /* \"#utility.yul\":8026:8148   */\n      pop\n      jump\t// out\n        /* \"#utility.yul\":8154:8276   */\n    tag_81:\n        /* \"#utility.yul\":8227:8251   */\n      tag_170\n        /* \"#utility.yul\":8245:8250   */\n      dup2\n        /* \"#utility.yul\":8227:8251   */\n      tag_127\n      jump\t// in\n    tag_170:\n        /* \"#utility.yul\":8220:8225   */\n      dup2\n        /* \"#utility.yul\":8217:8252   */\n      eq\n        /* \"#utility.yul\":8207:8270   */\n      tag_171\n      jumpi\n        /* \"#utility.yul\":8266:8267   */\n      0x00\n        /* \"#utility.yul\":8263:8264   */\n      dup1\n        /* \"#utility.yul\":8256:8268   */\n      revert\n        /* \"#utility.yul\":8207:8270   */\n    tag_171:\n        /* \"#utility.yul\":8154:8276   */\n      pop\n      jump\t// out\n\n    auxdata: 0xa26469706673582212207ff0a884c35e33c8c7e0ab637aefb9ad82ce8717c938760e4d38767f0f941fb564736f6c63430008070033\n}\n",
				"bytecode": {
					"linkReferences": {},
					"object": "60806040523480156200001157600080fd5b506200002d33683635c9adc5dea000006200004360201b60201c565b683635c9adc5dea000006002819055506200022a565b600073ffffffffffffffffffffffffffffffffffffffff168273ffffffffffffffffffffffffffffffffffffffff161415620000b6576040517f08c379a0000000000000000000000000000000000000000000000000000000008152600401620000ad9062000138565b60405180910390fd5b806000808473ffffffffffffffffffffffffffffffffffffffff1673ffffffffffffffffffffffffffffffffffffffff16815260200190815260200160002060008282546200010691906200016b565b925050819055505050565b6000620001206015836200015a565b91506200012d8262000201565b602082019050919050565b60006020820190508181036000830152620001538162000111565b9050919050565b600082825260208201905092915050565b60006200017882620001c8565b91506200018583620001c8565b9250827fffffffffffffffffffffffffffffffffffffffffffffffffffffffffffffffff03821115620001bd57620001bc620001d2565b5b828201905092915050565b6000819050919050565b7f4e487b7100000000000000000000000000000000000000000000000000000000600052601160045260246000fd5b7f6d696e7420746865207a65726f20616464726573730000000000000000000000600082015250565b610c31806200023a6000396000f3fe608060405234801561001057600080fd5b50600436106100885760003560e01c806372dd529b1161005b57806372dd529b14610111578063a77a82301461012f578063a9059cbb1461015f578063e3d670d71461017b57610088565b8063095ea7b31461008d5780633d64125b146100a957806340c10f19146100d957806363b0545f146100f5575b600080fd5b6100a760048036038101906100a29190610882565b6101ab565b005b6100c360048036038101906100be91906107c2565b6102b2565b6040516100d091906109dd565b60405180910390f35b6100f360048036038101906100ee9190610882565b6102fa565b005b61010f600480360381019061010a919061082f565b6103c3565b005b610119610633565b60405161012691906109dd565b60405180910390f35b610149600480360381019061014491906107ef565b61063d565b60405161015691906109dd565b60405180910390f35b61017960048036038101906101749190610882565b610662565b005b610195600480360381019061019091906107c2565b610780565b6040516101a291906109dd565b60405180910390f35b600073ffffffffffffffffffffffffffffffffffffffff168273ffffffffffffffffffffffffffffffffffffffff16141561021b576040517f08c379a00000000000000000000000000000000000000000000000000000000081526004016102129061099d565b60405180910390fd5b80600160003373ffffffffffffffffffffffffffffffffffffffff1673ffffffffffffffffffffffffffffffffffffffff16815260200190815260200160002060008473ffffffffffffffffffffffffffffffffffffffff1673ffffffffffffffffffffffffffffffffffffffff16815260200190815260200160002060008282546102a79190610a09565b925050819055505050565b60008060008373ffffffffffffffffffffffffffffffffffffffff1673ffffffffffffffffffffffffffffffffffffffff168152602001908152602001600020549050919050565b600073ffffffffffffffffffffffffffffffffffffffff168273ffffffffffffffffffffffffffffffffffffffff16141561036a576040517f08c379a00000000000000000000000000000000000000000000000000000000081526004016103619061095d565b60405180910390fd5b806000808473ffffffffffffffffffffffffffffffffffffffff1673ffffffffffffffffffffffffffffffffffffffff16815260200190815260200160002060008282546103b89190610a09565b925050819055505050565b600160008473ffffffffffffffffffffffffffffffffffffffff1673ffffffffffffffffffffffffffffffffffffffff16815260200190815260200160002060003373ffffffffffffffffffffffffffffffffffffffff1673ffffffffffffffffffffffffffffffffffffffff168152602001908152602001600020548110610481576040517f08c379a00000000000000000000000000000000000000000000000000000000081526004016104789061097d565b60405180910390fd5b600073ffffffffffffffffffffffffffffffffffffffff168273ffffffffffffffffffffffffffffffffffffffff1614156104f1576040517f08c379a00000000000000000000000000000000000000000000000000000000081526004016104e8906109bd565b60405180910390fd5b806000808573ffffffffffffffffffffffffffffffffffffffff1673ffffffffffffffffffffffffffffffffffffffff168152602001908152602001600020600082825461053f9190610a5f565b92505081905550806000808473ffffffffffffffffffffffffffffffffffffffff1673ffffffffffffffffffffffffffffffffffffffff16815260200190815260200160002060008282546105949190610a09565b9250508190555080600160008573ffffffffffffffffffffffffffffffffffffffff1673ffffffffffffffffffffffffffffffffffffffff16815260200190815260200160002060003373ffffffffffffffffffffffffffffffffffffffff1673ffffffffffffffffffffffffffffffffffffffff16815260200190815260200160002060008282546106279190610a5f565b92505081905550505050565b6000600254905090565b6001602052816000526040600020602052806000526040600020600091509150505481565b600073ffffffffffffffffffffffffffffffffffffffff168273ffffffffffffffffffffffffffffffffffffffff1614156106d2576040517f08c379a00000000000000000000000000000000000000000000000000000000081526004016106c9906109bd565b60405180910390fd5b806000803373ffffffffffffffffffffffffffffffffffffffff1673ffffffffffffffffffffffffffffffffffffffff16815260200190815260200160002060008282546107209190610a5f565b92505081905550806000808473ffffffffffffffffffffffffffffffffffffffff1673ffffffffffffffffffffffffffffffffffffffff16815260200190815260200160002060008282546107759190610a09565b925050819055505050565b60006020528060005260406000206000915090505481565b6000813590506107a781610bcd565b92915050565b6000813590506107bc81610be4565b92915050565b6000602082840312156107d8576107d7610afe565b5b60006107e684828501610798565b91505092915050565b6000806040838503121561080657610805610afe565b5b600061081485828601610798565b925050602061082585828601610798565b9150509250929050565b60008060006060848603121561084857610847610afe565b5b600061085686828701610798565b935050602061086786828701610798565b9250506040610878868287016107ad565b9150509250925092565b6000806040838503121561089957610898610afe565b5b60006108a785828601610798565b92505060206108b8858286016107ad565b9150509250929050565b60006108cf6015836109f8565b91506108da82610b03565b602082019050919050565b60006108f2600e836109f8565b91506108fd82610b2c565b602082019050919050565b60006109156017836109f8565b915061092082610b55565b602082019050919050565b60006109386025836109f8565b915061094382610b7e565b604082019050919050565b61095781610ac5565b82525050565b60006020820190508181036000830152610976816108c2565b9050919050565b60006020820190508181036000830152610996816108e5565b9050919050565b600060208201905081810360008301526109b681610908565b9050919050565b600060208201905081810360008301526109d68161092b565b9050919050565b60006020820190506109f2600083018461094e565b92915050565b600082825260208201905092915050565b6000610a1482610ac5565b9150610a1f83610ac5565b9250827fffffffffffffffffffffffffffffffffffffffffffffffffffffffffffffffff03821115610a5457610a53610acf565b5b828201905092915050565b6000610a6a82610ac5565b9150610a7583610ac5565b925082821015610a8857610a87610acf565b5b828203905092915050565b6000610a9e82610aa5565b9050919050565b600073ffffffffffffffffffffffffffffffffffffffff82169050919050565b6000819050919050565b7f4e487b7100000000000000000000000000000000000000000000000000000000600052601160045260246000fd5b600080fd5b7f6d696e7420746865207a65726f20616464726573730000000000000000000000600082015250565b7f6e6f7420617574686f72697a6564000000000000000000000000000000000000600082015250565b7f617070726f766520746f207a65726f2061646472657373000000000000000000600082015250565b7f7472616e7366657220746f207a65726f2061646472657373206e6f7420706f7360008201527f7369626c65000000000000000000000000000000000000000000000000000000602082015250565b610bd681610a93565b8114610be157600080fd5b50565b610bed81610ac5565b8114610bf857600080fd5b5056fea26469706673582212207ff0a884c35e33c8c7e0ab637aefb9ad82ce8717c938760e4d38767f0f941fb564736f6c63430008070033",
					"opcodes": "PUSH1 0x80 PUSH1 0x40 MSTORE CALLVALUE DUP1 ISZERO PUSH3 0x11 JUMPI PUSH1 0x0 DUP1 REVERT JUMPDEST POP PUSH3 0x2D CALLER PUSH9 0x3635C9ADC5DEA00000 PUSH3 0x43 PUSH1 0x20 SHL PUSH1 0x20 SHR JUMP JUMPDEST PUSH9 0x3635C9ADC5DEA00000 PUSH1 0x2 DUP2 SWAP1 SSTORE POP PUSH3 0x22A JUMP JUMPDEST PUSH1 0x0 PUSH20 0xFFFFFFFFFFFFFFFFFFFFFFFFFFFFFFFFFFFFFFFF AND DUP3 PUSH20 0xFFFFFFFFFFFFFFFFFFFFFFFFFFFFFFFFFFFFFFFF AND EQ ISZERO PUSH3 0xB6 JUMPI PUSH1 0x40 MLOAD PUSH32 0x8C379A000000000000000000000000000000000000000000000000000000000 DUP2 MSTORE PUSH1 0x4 ADD PUSH3 0xAD SWAP1 PUSH3 0x138 JUMP JUMPDEST PUSH1 0x40 MLOAD DUP1 SWAP2 SUB SWAP1 REVERT JUMPDEST DUP1 PUSH1 0x0 DUP1 DUP5 PUSH20 0xFFFFFFFFFFFFFFFFFFFFFFFFFFFFFFFFFFFFFFFF AND PUSH20 0xFFFFFFFFFFFFFFFFFFFFFFFFFFFFFFFFFFFFFFFF AND DUP2 MSTORE PUSH1 0x20 ADD SWAP1 DUP2 MSTORE PUSH1 0x20 ADD PUSH1 0x0 KECCAK256 PUSH1 0x0 DUP3 DUP3 SLOAD PUSH3 0x106 SWAP2 SWAP1 PUSH3 0x16B JUMP JUMPDEST SWAP3 POP POP DUP2 SWAP1 SSTORE POP POP POP JUMP JUMPDEST PUSH1 0x0 PUSH3 0x120 PUSH1 0x15 DUP4 PUSH3 0x15A JUMP JUMPDEST SWAP2 POP PUSH3 0x12D DUP3 PUSH3 0x201 JUMP JUMPDEST PUSH1 0x20 DUP3 ADD SWAP1 POP SWAP2 SWAP1 POP JUMP JUMPDEST PUSH1 0x0 PUSH1 0x20 DUP3 ADD SWAP1 POP DUP2 DUP2 SUB PUSH1 0x0 DUP4 ADD MSTORE PUSH3 0x153 DUP2 PUSH3 0x111 JUMP JUMPDEST SWAP1 POP SWAP2 SWAP1 POP JUMP JUMPDEST PUSH1 0x0 DUP3 DUP3 MSTORE PUSH1 0x20 DUP3 ADD SWAP1 POP SWAP3 SWAP2 POP POP JUMP JUMPDEST PUSH1 0x0 PUSH3 0x178 DUP3 PUSH3 0x1C8 JUMP JUMPDEST SWAP2 POP PUSH3 0x185 DUP4 PUSH3 0x1C8 JUMP JUMPDEST SWAP3 POP DUP3 PUSH32 0xFFFFFFFFFFFFFFFFFFFFFFFFFFFFFFFFFFFFFFFFFFFFFFFFFFFFFFFFFFFFFFFF SUB DUP3 GT ISZERO PUSH3 0x1BD JUMPI PUSH3 0x1BC PUSH3 0x1D2 JUMP JUMPDEST JUMPDEST DUP3 DUP3 ADD SWAP1 POP SWAP3 SWAP2 POP POP JUMP JUMPDEST PUSH1 0x0 DUP2 SWAP1 POP SWAP2 SWAP1 POP JUMP JUMPDEST PUSH32 0x4E487B7100000000000000000000000000000000000000000000000000000000 PUSH1 0x0 MSTORE PUSH1 0x11 PUSH1 0x4 MSTORE PUSH1 0x24 PUSH1 0x0 REVERT JUMPDEST PUSH32 0x6D696E7420746865207A65726F20616464726573730000000000000000000000 PUSH1 0x0 DUP3 ADD MSTORE POP JUMP JUMPDEST PUSH2 0xC31 DUP1 PUSH3 0x23A PUSH1 0x0 CODECOPY PUSH1 0x0 RETURN INVALID PUSH1 0x80 PUSH1 0x40 MSTORE CALLVALUE DUP1 ISZERO PUSH2 0x10 JUMPI PUSH1 0x0 DUP1 REVERT JUMPDEST POP PUSH1 0x4 CALLDATASIZE LT PUSH2 0x88 JUMPI PUSH1 0x0 CALLDATALOAD PUSH1 0xE0 SHR DUP1 PUSH4 0x72DD529B GT PUSH2 0x5B JUMPI DUP1 PUSH4 0x72DD529B EQ PUSH2 0x111 JUMPI DUP1 PUSH4 0xA77A8230 EQ PUSH2 0x12F JUMPI DUP1 PUSH4 0xA9059CBB EQ PUSH2 0x15F JUMPI DUP1 PUSH4 0xE3D670D7 EQ PUSH2 0x17B JUMPI PUSH2 0x88 JUMP JUMPDEST DUP1 PUSH4 0x95EA7B3 EQ PUSH2 0x8D JUMPI DUP1 PUSH4 0x3D64125B EQ PUSH2 0xA9 JUMPI DUP1 PUSH4 0x40C10F19 EQ PUSH2 0xD9 JUMPI DUP1 PUSH4 0x63B0545F EQ PUSH2 0xF5 JUMPI JUMPDEST PUSH1 0x0 DUP1 REVERT JUMPDEST PUSH2 0xA7 PUSH1 0x4 DUP1 CALLDATASIZE SUB DUP2 ADD SWAP1 PUSH2 0xA2 SWAP2 SWAP1 PUSH2 0x882 JUMP JUMPDEST PUSH2 0x1AB JUMP JUMPDEST STOP JUMPDEST PUSH2 0xC3 PUSH1 0x4 DUP1 CALLDATASIZE SUB DUP2 ADD SWAP1 PUSH2 0xBE SWAP2 SWAP1 PUSH2 0x7C2 JUMP JUMPDEST PUSH2 0x2B2 JUMP JUMPDEST PUSH1 0x40 MLOAD PUSH2 0xD0 SWAP2 SWAP1 PUSH2 0x9DD JUMP JUMPDEST PUSH1 0x40 MLOAD DUP1 SWAP2 SUB SWAP1 RETURN JUMPDEST PUSH2 0xF3 PUSH1 0x4 DUP1 CALLDATASIZE SUB DUP2 ADD SWAP1 PUSH2 0xEE SWAP2 SWAP1 PUSH2 0x882 JUMP JUMPDEST PUSH2 0x2FA JUMP JUMPDEST STOP JUMPDEST PUSH2 0x10F PUSH1 0x4 DUP1 CALLDATASIZE SUB DUP2 ADD SWAP1 PUSH2 0x10A SWAP2 SWAP1 PUSH2 0x82F JUMP JUMPDEST PUSH2 0x3C3 JUMP JUMPDEST STOP JUMPDEST PUSH2 0x119 PUSH2 0x633 JUMP JUMPDEST PUSH1 0x40 MLOAD PUSH2 0x126 SWAP2 SWAP1 PUSH2 0x9DD JUMP JUMPDEST PUSH1 0x40 MLOAD DUP1 SWAP2 SUB SWAP1 RETURN JUMPDEST PUSH2 0x149 PUSH1 0x4 DUP1 CALLDATASIZE SUB DUP2 ADD SWAP1 PUSH2 0x144 SWAP2 SWAP1 PUSH2 0x7EF JUMP JUMPDEST PUSH2 0x63D JUMP JUMPDEST PUSH1 0x40 MLOAD PUSH2 0x156 SWAP2 SWAP1 PUSH2 0x9DD JUMP JUMPDEST PUSH1 0x40 MLOAD DUP1 SWAP2 SUB SWAP1 RETURN JUMPDEST PUSH2 0x179 PUSH1 0x4 DUP1 CALLDATASIZE SUB DUP2 ADD SWAP1 PUSH2 0x174 SWAP2 SWAP1 PUSH2 0x882 JUMP JUMPDEST PUSH2 0x662 JUMP JUMPDEST STOP JUMPDEST PUSH2 0x195 PUSH1 0x4 DUP1 CALLDATASIZE SUB DUP2 ADD SWAP1 PUSH2 0x190 SWAP2 SWAP1 PUSH2 0x7C2 JUMP JUMPDEST PUSH2 0x780 JUMP JUMPDEST PUSH1 0x40 MLOAD PUSH2 0x1A2 SWAP2 SWAP1 PUSH2 0x9DD JUMP JUMPDEST PUSH1 0x40 MLOAD DUP1 SWAP2 SUB SWAP1 RETURN JUMPDEST PUSH1 0x0 PUSH20 0xFFFFFFFFFFFFFFFFFFFFFFFFFFFFFFFFFFFFFFFF AND DUP3 PUSH20 0xFFFFFFFFFFFFFFFFFFFFFFFFFFFFFFFFFFFFFFFF AND EQ ISZERO PUSH2 0x21B JUMPI PUSH1 0x40 MLOAD PUSH32 0x8C379A000000000000000000000000000000000000000000000000000000000 DUP2 MSTORE PUSH1 0x4 ADD PUSH2 0x212 SWAP1 PUSH2 0x99D JUMP JUMPDEST PUSH1 0x40 MLOAD DUP1 SWAP2 SUB SWAP1 REVERT JUMPDEST DUP1 PUSH1 0x1 PUSH1 0x0 CALLER PUSH20 0xFFFFFFFFFFFFFFFFFFFFFFFFFFFFFFFFFFFFFFFF AND PUSH20 0xFFFFFFFFFFFFFFFFFFFFFFFFFFFFFFFFFFFFFFFF AND DUP2 MSTORE PUSH1 0x20 ADD SWAP1 DUP2 MSTORE PUSH1 0x20 ADD PUSH1 0x0 KECCAK256 PUSH1 0x0 DUP5 PUSH20 0xFFFFFFFFFFFFFFFFFFFFFFFFFFFFFFFFFFFFFFFF AND PUSH20 0xFFFFFFFFFFFFFFFFFFFFFFFFFFFFFFFFFFFFFFFF AND DUP2 MSTORE PUSH1 0x20 ADD SWAP1 DUP2 MSTORE PUSH1 0x20 ADD PUSH1 0x0 KECCAK256 PUSH1 0x0 DUP3 DUP3 SLOAD PUSH2 0x2A7 SWAP2 SWAP1 PUSH2 0xA09 JUMP JUMPDEST SWAP3 POP POP DUP2 SWAP1 SSTORE POP POP POP JUMP JUMPDEST PUSH1 0x0 DUP1 PUSH1 0x0 DUP4 PUSH20 0xFFFFFFFFFFFFFFFFFFFFFFFFFFFFFFFFFFFFFFFF AND PUSH20 0xFFFFFFFFFFFFFFFFFFFFFFFFFFFFFFFFFFFFFFFF AND DUP2 MSTORE PUSH1 0x20 ADD SWAP1 DUP2 MSTORE PUSH1 0x20 ADD PUSH1 0x0 KECCAK256 SLOAD SWAP1 POP SWAP2 SWAP1 POP JUMP JUMPDEST PUSH1 0x0 PUSH20 0xFFFFFFFFFFFFFFFFFFFFFFFFFFFFFFFFFFFFFFFF AND DUP3 PUSH20 0xFFFFFFFFFFFFFFFFFFFFFFFFFFFFFFFFFFFFFFFF AND EQ ISZERO PUSH2 0x36A JUMPI PUSH1 0x40 MLOAD PUSH32 0x8C379A000000000000000000000000000000000000000000000000000000000 DUP2 MSTORE PUSH1 0x4 ADD PUSH2 0x361 SWAP1 PUSH2 0x95D JUMP JUMPDEST PUSH1 0x40 MLOAD DUP1 SWAP2 SUB SWAP1 REVERT JUMPDEST DUP1 PUSH1 0x0 DUP1 DUP5 PUSH20 0xFFFFFFFFFFFFFFFFFFFFFFFFFFFFFFFFFFFFFFFF AND PUSH20 0xFFFFFFFFFFFFFFFFFFFFFFFFFFFFFFFFFFFFFFFF AND DUP2 MSTORE PUSH1 0x20 ADD SWAP1 DUP2 MSTORE PUSH1 0x20 ADD PUSH1 0x0 KECCAK256 PUSH1 0x0 DUP3 DUP3 SLOAD PUSH2 0x3B8 SWAP2 SWAP1 PUSH2 0xA09 JUMP JUMPDEST SWAP3 POP POP DUP2 SWAP1 SSTORE POP POP POP JUMP JUMPDEST PUSH1 0x1 PUSH1 0x0 DUP5 PUSH20 0xFFFFFFFFFFFFFFFFFFFFFFFFFFFFFFFFFFFFFFFF AND PUSH20 0xFFFFFFFFFFFFFFFFFFFFFFFFFFFFFFFFFFFFFFFF AND DUP2 MSTORE PUSH1 0x20 ADD SWAP1 DUP2 MSTORE PUSH1 0x20 ADD PUSH1 0x0 KECCAK256 PUSH1 0x0 CALLER PUSH20 0xFFFFFFFFFFFFFFFFFFFFFFFFFFFFFFFFFFFFFFFF AND PUSH20 0xFFFFFFFFFFFFFFFFFFFFFFFFFFFFFFFFFFFFFFFF AND DUP2 MSTORE PUSH1 0x20 ADD SWAP1 DUP2 MSTORE PUSH1 0x20 ADD PUSH1 0x0 KECCAK256 SLOAD DUP2 LT PUSH2 0x481 JUMPI PUSH1 0x40 MLOAD PUSH32 0x8C379A000000000000000000000000000000000000000000000000000000000 DUP2 MSTORE PUSH1 0x4 ADD PUSH2 0x478 SWAP1 PUSH2 0x97D JUMP JUMPDEST PUSH1 0x40 MLOAD DUP1 SWAP2 SUB SWAP1 REVERT JUMPDEST PUSH1 0x0 PUSH20 0xFFFFFFFFFFFFFFFFFFFFFFFFFFFFFFFFFFFFFFFF AND DUP3 PUSH20 0xFFFFFFFFFFFFFFFFFFFFFFFFFFFFFFFFFFFFFFFF AND EQ ISZERO PUSH2 0x4F1 JUMPI PUSH1 0x40 MLOAD PUSH32 0x8C379A000000000000000000000000000000000000000000000000000000000 DUP2 MSTORE PUSH1 0x4 ADD PUSH2 0x4E8 SWAP1 PUSH2 0x9BD JUMP JUMPDEST PUSH1 0x40 MLOAD DUP1 SWAP2 SUB SWAP1 REVERT JUMPDEST DUP1 PUSH1 0x0 DUP1 DUP6 PUSH20 0xFFFFFFFFFFFFFFFFFFFFFFFFFFFFFFFFFFFFFFFF AND PUSH20 0xFFFFFFFFFFFFFFFFFFFFFFFFFFFFFFFFFFFFFFFF AND DUP2 MSTORE PUSH1 0x20 ADD SWAP1 DUP2 MSTORE PUSH1 0x20 ADD PUSH1 0x0 KECCAK256 PUSH1 0x0 DUP3 DUP3 SLOAD PUSH2 0x53F SWAP2 SWAP1 PUSH2 0xA5F JUMP JUMPDEST SWAP3 POP POP DUP2 SWAP1 SSTORE POP DUP1 PUSH1 0x0 DUP1 DUP5 PUSH20 0xFFFFFFFFFFFFFFFFFFFFFFFFFFFFFFFFFFFFFFFF AND PUSH20 0xFFFFFFFFFFFFFFFFFFFFFFFFFFFFFFFFFFFFFFFF AND DUP2 MSTORE PUSH1 0x20 ADD SWAP1 DUP2 MSTORE PUSH1 0x20 ADD PUSH1 0x0 KECCAK256 PUSH1 0x0 DUP3 DUP3 SLOAD PUSH2 0x594 SWAP2 SWAP1 PUSH2 0xA09 JUMP JUMPDEST SWAP3 POP POP DUP2 SWAP1 SSTORE POP DUP1 PUSH1 0x1 PUSH1 0x0 DUP6 PUSH20 0xFFFFFFFFFFFFFFFFFFFFFFFFFFFFFFFFFFFFFFFF AND PUSH20 0xFFFFFFFFFFFFFFFFFFFFFFFFFFFFFFFFFFFFFFFF AND DUP2 MSTORE PUSH1 0x20 ADD SWAP1 DUP2 MSTORE PUSH1 0x20 ADD PUSH1 0x0 KECCAK256 PUSH1 0x0 CALLER PUSH20 0xFFFFFFFFFFFFFFFFFFFFFFFFFFFFFFFFFFFFFFFF AND PUSH20 0xFFFFFFFFFFFFFFFFFFFFFFFFFFFFFFFFFFFFFFFF AND DUP2 MSTORE PUSH1 0x20 ADD SWAP1 DUP2 MSTORE PUSH1 0x20 ADD PUSH1 0x0 KECCAK256 PUSH1 0x0 DUP3 DUP3 SLOAD PUSH2 0x627 SWAP2 SWAP1 PUSH2 0xA5F JUMP JUMPDEST SWAP3 POP POP DUP2 SWAP1 SSTORE POP POP POP POP JUMP JUMPDEST PUSH1 0x0 PUSH1 0x2 SLOAD SWAP1 POP SWAP1 JUMP JUMPDEST PUSH1 0x1 PUSH1 0x20 MSTORE DUP2 PUSH1 0x0 MSTORE PUSH1 0x40 PUSH1 0x0 KECCAK256 PUSH1 0x20 MSTORE DUP1 PUSH1 0x0 MSTORE PUSH1 0x40 PUSH1 0x0 KECCAK256 PUSH1 0x0 SWAP2 POP SWAP2 POP POP SLOAD DUP2 JUMP JUMPDEST PUSH1 0x0 PUSH20 0xFFFFFFFFFFFFFFFFFFFFFFFFFFFFFFFFFFFFFFFF AND DUP3 PUSH20 0xFFFFFFFFFFFFFFFFFFFFFFFFFFFFFFFFFFFFFFFF AND EQ ISZERO PUSH2 0x6D2 JUMPI PUSH1 0x40 MLOAD PUSH32 0x8C379A000000000000000000000000000000000000000000000000000000000 DUP2 MSTORE PUSH1 0x4 ADD PUSH2 0x6C9 SWAP1 PUSH2 0x9BD JUMP JUMPDEST PUSH1 0x40 MLOAD DUP1 SWAP2 SUB SWAP1 REVERT JUMPDEST DUP1 PUSH1 0x0 DUP1 CALLER PUSH20 0xFFFFFFFFFFFFFFFFFFFFFFFFFFFFFFFFFFFFFFFF AND PUSH20 0xFFFFFFFFFFFFFFFFFFFFFFFFFFFFFFFFFFFFFFFF AND DUP2 MSTORE PUSH1 0x20 ADD SWAP1 DUP2 MSTORE PUSH1 0x20 ADD PUSH1 0x0 KECCAK256 PUSH1 0x0 DUP3 DUP3 SLOAD PUSH2 0x720 SWAP2 SWAP1 PUSH2 0xA5F JUMP JUMPDEST SWAP3 POP POP DUP2 SWAP1 SSTORE POP DUP1 PUSH1 0x0 DUP1 DUP5 PUSH20 0xFFFFFFFFFFFFFFFFFFFFFFFFFFFFFFFFFFFFFFFF AND PUSH20 0xFFFFFFFFFFFFFFFFFFFFFFFFFFFFFFFFFFFFFFFF AND DUP2 MSTORE PUSH1 0x20 ADD SWAP1 DUP2 MSTORE PUSH1 0x20 ADD PUSH1 0x0 KECCAK256 PUSH1 0x0 DUP3 DUP3 SLOAD PUSH2 0x775 SWAP2 SWAP1 PUSH2 0xA09 JUMP JUMPDEST SWAP3 POP POP DUP2 SWAP1 SSTORE POP POP POP JUMP JUMPDEST PUSH1 0x0 PUSH1 0x20 MSTORE DUP1 PUSH1 0x0 MSTORE PUSH1 0x40 PUSH1 0x0 KECCAK256 PUSH1 0x0 SWAP2 POP SWAP1 POP SLOAD DUP2 JUMP JUMPDEST PUSH1 0x0 DUP2 CALLDATALOAD SWAP1 POP PUSH2 0x7A7 DUP2 PUSH2 0xBCD JUMP JUMPDEST SWAP3 SWAP2 POP POP JUMP JUMPDEST PUSH1 0x0 DUP2 CALLDATALOAD SWAP1 POP PUSH2 0x7BC DUP2 PUSH2 0xBE4 JUMP JUMPDEST SWAP3 SWAP2 POP POP JUMP JUMPDEST PUSH1 0x0 PUSH1 0x20 DUP3 DUP5 SUB SLT ISZERO PUSH2 0x7D8 JUMPI PUSH2 0x7D7 PUSH2 0xAFE JUMP JUMPDEST JUMPDEST PUSH1 0x0 PUSH2 0x7E6 DUP5 DUP3 DUP6 ADD PUSH2 0x798 JUMP JUMPDEST SWAP2 POP POP SWAP3 SWAP2 POP POP JUMP JUMPDEST PUSH1 0x0 DUP1 PUSH1 0x40 DUP4 DUP6 SUB SLT ISZERO PUSH2 0x806 JUMPI PUSH2 0x805 PUSH2 0xAFE JUMP JUMPDEST JUMPDEST PUSH1 0x0 PUSH2 0x814 DUP6 DUP3 DUP7 ADD PUSH2 0x798 JUMP JUMPDEST SWAP3 POP POP PUSH1 0x20 PUSH2 0x825 DUP6 DUP3 DUP7 ADD PUSH2 0x798 JUMP JUMPDEST SWAP2 POP POP SWAP3 POP SWAP3 SWAP1 POP JUMP JUMPDEST PUSH1 0x0 DUP1 PUSH1 0x0 PUSH1 0x60 DUP5 DUP7 SUB SLT ISZERO PUSH2 0x848 JUMPI PUSH2 0x847 PUSH2 0xAFE JUMP JUMPDEST JUMPDEST PUSH1 0x0 PUSH2 0x856 DUP7 DUP3 DUP8 ADD PUSH2 0x798 JUMP JUMPDEST SWAP4 POP POP PUSH1 0x20 PUSH2 0x867 DUP7 DUP3 DUP8 ADD PUSH2 0x798 JUMP JUMPDEST SWAP3 POP POP PUSH1 0x40 PUSH2 0x878 DUP7 DUP3 DUP8 ADD PUSH2 0x7AD JUMP JUMPDEST SWAP2 POP POP SWAP3 POP SWAP3 POP SWAP3 JUMP JUMPDEST PUSH1 0x0 DUP1 PUSH1 0x40 DUP4 DUP6 SUB SLT ISZERO PUSH2 0x899 JUMPI PUSH2 0x898 PUSH2 0xAFE JUMP JUMPDEST JUMPDEST PUSH1 0x0 PUSH2 0x8A7 DUP6 DUP3 DUP7 ADD PUSH2 0x798 JUMP JUMPDEST SWAP3 POP POP PUSH1 0x20 PUSH2 0x8B8 DUP6 DUP3 DUP7 ADD PUSH2 0x7AD JUMP JUMPDEST SWAP2 POP POP SWAP3 POP SWAP3 SWAP1 POP JUMP JUMPDEST PUSH1 0x0 PUSH2 0x8CF PUSH1 0x15 DUP4 PUSH2 0x9F8 JUMP JUMPDEST SWAP2 POP PUSH2 0x8DA DUP3 PUSH2 0xB03 JUMP JUMPDEST PUSH1 0x20 DUP3 ADD SWAP1 POP SWAP2 SWAP1 POP JUMP JUMPDEST PUSH1 0x0 PUSH2 0x8F2 PUSH1 0xE DUP4 PUSH2 0x9F8 JUMP JUMPDEST SWAP2 POP PUSH2 0x8FD DUP3 PUSH2 0xB2C JUMP JUMPDEST PUSH1 0x20 DUP3 ADD SWAP1 POP SWAP2 SWAP1 POP JUMP JUMPDEST PUSH1 0x0 PUSH2 0x915 PUSH1 0x17 DUP4 PUSH2 0x9F8 JUMP JUMPDEST SWAP2 POP PUSH2 0x920 DUP3 PUSH2 0xB55 JUMP JUMPDEST PUSH1 0x20 DUP3 ADD SWAP1 POP SWAP2 SWAP1 POP JUMP JUMPDEST PUSH1 0x0 PUSH2 0x938 PUSH1 0x25 DUP4 PUSH2 0x9F8 JUMP JUMPDEST SWAP2 POP PUSH2 0x943 DUP3 PUSH2 0xB7E JUMP JUMPDEST PUSH1 0x40 DUP3 ADD SWAP1 POP SWAP2 SWAP1 POP JUMP JUMPDEST PUSH2 0x957 DUP2 PUSH2 0xAC5 JUMP JUMPDEST DUP3 MSTORE POP POP JUMP JUMPDEST PUSH1 0x0 PUSH1 0x20 DUP3 ADD SWAP1 POP DUP2 DUP2 SUB PUSH1 0x0 DUP4 ADD MSTORE PUSH2 0x976 DUP2 PUSH2 0x8C2 JUMP JUMPDEST SWAP1 POP SWAP2 SWAP1 POP JUMP JUMPDEST PUSH1 0x0 PUSH1 0x20 DUP3 ADD SWAP1 POP DUP2 DUP2 SUB PUSH1 0x0 DUP4 ADD MSTORE PUSH2 0x996 DUP2 PUSH2 0x8E5 JUMP JUMPDEST SWAP1 POP SWAP2 SWAP1 POP JUMP JUMPDEST PUSH1 0x0 PUSH1 0x20 DUP3 ADD SWAP1 POP DUP2 DUP2 SUB PUSH1 0x0 DUP4 ADD MSTORE PUSH2 0x9B6 DUP2 PUSH2 0x908 JUMP JUMPDEST SWAP1 POP SWAP2 SWAP1 POP JUMP JUMPDEST PUSH1 0x0 PUSH1 0x20 DUP3 ADD SWAP1 POP DUP2 DUP2 SUB PUSH1 0x0 DUP4 ADD MSTORE PUSH2 0x9D6 DUP2 PUSH2 0x92B JUMP JUMPDEST SWAP1 POP SWAP2 SWAP1 POP JUMP JUMPDEST PUSH1 0x0 PUSH1 0x20 DUP3 ADD SWAP1 POP PUSH2 0x9F2 PUSH1 0x0 DUP4 ADD DUP5 PUSH2 0x94E JUMP JUMPDEST SWAP3 SWAP2 POP POP JUMP JUMPDEST PUSH1 0x0 DUP3 DUP3 MSTORE PUSH1 0x20 DUP3 ADD SWAP1 POP SWAP3 SWAP2 POP POP JUMP JUMPDEST PUSH1 0x0 PUSH2 0xA14 DUP3 PUSH2 0xAC5 JUMP JUMPDEST SWAP2 POP PUSH2 0xA1F DUP4 PUSH2 0xAC5 JUMP JUMPDEST SWAP3 POP DUP3 PUSH32 0xFFFFFFFFFFFFFFFFFFFFFFFFFFFFFFFFFFFFFFFFFFFFFFFFFFFFFFFFFFFFFFFF SUB DUP3 GT ISZERO PUSH2 0xA54 JUMPI PUSH2 0xA53 PUSH2 0xACF JUMP JUMPDEST JUMPDEST DUP3 DUP3 ADD SWAP1 POP SWAP3 SWAP2 POP POP JUMP JUMPDEST PUSH1 0x0 PUSH2 0xA6A DUP3 PUSH2 0xAC5 JUMP JUMPDEST SWAP2 POP PUSH2 0xA75 DUP4 PUSH2 0xAC5 JUMP JUMPDEST SWAP3 POP DUP3 DUP3 LT ISZERO PUSH2 0xA88 JUMPI PUSH2 0xA87 PUSH2 0xACF JUMP JUMPDEST JUMPDEST DUP3 DUP3 SUB SWAP1 POP SWAP3 SWAP2 POP POP JUMP JUMPDEST PUSH1 0x0 PUSH2 0xA9E DUP3 PUSH2 0xAA5 JUMP JUMPDEST SWAP1 POP SWAP2 SWAP1 POP JUMP JUMPDEST PUSH1 0x0 PUSH20 0xFFFFFFFFFFFFFFFFFFFFFFFFFFFFFFFFFFFFFFFF DUP3 AND SWAP1 POP SWAP2 SWAP1 POP JUMP JUMPDEST PUSH1 0x0 DUP2 SWAP1 POP SWAP2 SWAP1 POP JUMP JUMPDEST PUSH32 0x4E487B7100000000000000000000000000000000000000000000000000000000 PUSH1 0x0 MSTORE PUSH1 0x11 PUSH1 0x4 MSTORE PUSH1 0x24 PUSH1 0x0 REVERT JUMPDEST PUSH1 0x0 DUP1 REVERT JUMPDEST PUSH32 0x6D696E7420746865207A65726F20616464726573730000000000000000000000 PUSH1 0x0 DUP3 ADD MSTORE POP JUMP JUMPDEST PUSH32 0x6E6F7420617574686F72697A6564000000000000000000000000000000000000 PUSH1 0x0 DUP3 ADD MSTORE POP JUMP JUMPDEST PUSH32 0x617070726F766520746F207A65726F2061646472657373000000000000000000 PUSH1 0x0 DUP3 ADD MSTORE POP JUMP JUMPDEST PUSH32 0x7472616E7366657220746F207A65726F2061646472657373206E6F7420706F73 PUSH1 0x0 DUP3 ADD MSTORE PUSH32 0x7369626C65000000000000000000000000000000000000000000000000000000 PUSH1 0x20 DUP3 ADD MSTORE POP JUMP JUMPDEST PUSH2 0xBD6 DUP2 PUSH2 0xA93 JUMP JUMPDEST DUP2 EQ PUSH2 0xBE1 JUMPI PUSH1 0x0 DUP1 REVERT JUMPDEST POP JUMP JUMPDEST PUSH2 0xBED DUP2 PUSH2 0xAC5 JUMP JUMPDEST DUP2 EQ PUSH2 0xBF8 JUMPI PUSH1 0x0 DUP1 REVERT JUMPDEST POP JUMP INVALID LOG2 PUSH5 0x6970667358 0x22 SLT KECCAK256 PUSH32 0xF0A884C35E33C8C7E0AB637AEFB9AD82CE8717C938760E4D38767F0F941FB564 PUSH20 0x6F6C634300080700330000000000000000000000 "
				},
				"gasEstimates": {
					"creation": {
						"codeDepositCost": "624200",
						"executionCost": "infinite",
						"totalCost": "infinite"
					},
					"external": {
						"allowence(address,address)": "infinite",
						"approve(address,uint256)": "infinite",
						"balance(address)": "2880",
						"balanceof(address)": "2864",
						"mint(address,uint256)": "infinite",
						"totalsupply()": "2437",
						"transfer(address,uint256)": "infinite",
						"transferfrom(address,address,uint256)": "infinite"
					}
				},
				"methodIdentifiers": {
					"allowence(address,address)": "a77a8230",
					"approve(address,uint256)": "095ea7b3",
					"balance(address)": "e3d670d7",
					"balanceof(address)": "3d64125b",
					"mint(address,uint256)": "40c10f19",
					"totalsupply()": "72dd529b",
					"transfer(address,uint256)": "a9059cbb",
					"transferfrom(address,address,uint256)": "63b0545f"
				}
			},
			"storageLayout": {
				"storage": [
					{
						"astId": 5,
						"contract": "Samples/transfer1.sol:example",
						"label": "balance",
						"offset": 0,
						"slot": "0",
						"type": "t_mapping(t_address,t_uint256)"
					},
					{
						"astId": 11,
						"contract": "Samples/transfer1.sol:example",
						"label": "allowence",
						"offset": 0,
						"slot": "1",
						"type": "t_mapping(t_address,t_mapping(t_address,t_uint256))"
					},
					{
						"astId": 13,
						"contract": "Samples/transfer1.sol:example",
						"label": "total_supply",
						"offset": 0,
						"slot": "2",
						"type": "t_uint256"
					}
				],
				"types": {
					"t_address": {
						"encoding": "inplace",
						"label": "address",
						"numberOfBytes": "20"
					},
					"t_mapping(t_address,t_mapping(t_address,t_uint256))": {
						"encoding": "mapping",
						"key": "t_address",
						"label": "mapping(address => mapping(address => uint256))",
						"numberOfBytes": "32",
						"value": "t_mapping(t_address,t_uint256)"
					},
					"t_mapping(t_address,t_uint256)": {
						"encoding": "mapping",
						"key": "t_address",
						"label": "mapping(address => uint256)",
						"numberOfBytes": "32",
						"value": "t_uint256"
					},
					"t_uint256": {
						"encoding": "inplace",
						"label": "uint256",
						"numberOfBytes": "32"
					}
				}
			},
			"userdoc": {
				"kind": "user",
				"methods": {},
				"version": 1
			}
		}
	}
}