{
	"Samples/taskarray.sol": {
		"arraytask": {
			"abi": [
				{
					"inputs": [
						{
							"internalType": "uint256",
							"name": "number",
							"type": "uint256"
						}
					],
					"name": "arraySequence",
					"outputs": [
						{
							"internalType": "uint256[]",
							"name": "",
							"type": "uint256[]"
						}
					],
					"stateMutability": "nonpayable",
					"type": "function"
				}
			],
			"devdoc": {
				"kind": "dev",
				"methods": {},
				"version": 1
			},
			"evm": {
				"assembly": "    /* \"Samples/taskarray.sol\":59:273  contract arraytask{\r... */\n  mstore(0x40, 0x80)\n  callvalue\n  dup1\n  iszero\n  tag_1\n  jumpi\n  0x00\n  dup1\n  revert\ntag_1:\n  pop\n  dataSize(sub_0)\n  dup1\n  dataOffset(sub_0)\n  0x00\n  codecopy\n  0x00\n  return\nstop\n\nsub_0: assembly {\n        /* \"Samples/taskarray.sol\":59:273  contract arraytask{\r... */\n      mstore(0x40, 0x80)\n      callvalue\n      dup1\n      iszero\n      tag_1\n      jumpi\n      0x00\n      dup1\n      revert\n    tag_1:\n      pop\n      jumpi(tag_2, lt(calldatasize, 0x04))\n      shr(0xe0, calldataload(0x00))\n      dup1\n      0x0909f2fd\n      eq\n      tag_3\n      jumpi\n    tag_2:\n      0x00\n      dup1\n      revert\n        /* \"Samples/taskarray.sol\":111:266  function arraySequence(uint256 number) public returns(uint256[] memory) {\r... */\n    tag_3:\n      tag_4\n      0x04\n      dup1\n      calldatasize\n      sub\n      dup2\n      add\n      swap1\n      tag_5\n      swap2\n      swap1\n      tag_6\n      jump\t// in\n    tag_5:\n      tag_7\n      jump\t// in\n    tag_4:\n      mload(0x40)\n      tag_8\n      swap2\n      swap1\n      tag_9\n      jump\t// in\n    tag_8:\n      mload(0x40)\n      dup1\n      swap2\n      sub\n      swap1\n      return\n    tag_7:\n        /* \"Samples/taskarray.sol\":165:181  uint256[] memory */\n      0x60\n        /* \"Samples/taskarray.sol\":203:212  arrayshow */\n      0x00\n        /* \"Samples/taskarray.sol\":218:224  number */\n      dup3\n        /* \"Samples/taskarray.sol\":203:225  arrayshow.push(number) */\n      swap1\n      dup1\n      0x01\n      dup2\n      sload\n      add\n      dup1\n      dup3\n      sstore\n      dup1\n      swap2\n      pop\n      pop\n      0x01\n      swap1\n      sub\n      swap1\n      0x00\n      mstore\n      keccak256(0x00, 0x20)\n      add\n      0x00\n      swap1\n      swap2\n      swap1\n      swap2\n      swap1\n      swap2\n      pop\n      sstore\n        /* \"Samples/taskarray.sol\":243:252  arrayshow */\n      0x00\n        /* \"Samples/taskarray.sol\":236:252  return arrayshow */\n      dup1\n      sload\n      dup1\n      0x20\n      mul\n      0x20\n      add\n      mload(0x40)\n      swap1\n      dup2\n      add\n      0x40\n      mstore\n      dup1\n      swap3\n      swap2\n      swap1\n      dup2\n      dup2\n      mstore\n      0x20\n      add\n      dup3\n      dup1\n      sload\n      dup1\n      iszero\n      tag_12\n      jumpi\n      0x20\n      mul\n      dup3\n      add\n      swap2\n      swap1\n      0x00\n      mstore\n      keccak256(0x00, 0x20)\n      swap1\n    tag_13:\n      dup2\n      sload\n      dup2\n      mstore\n      0x20\n      add\n      swap1\n      0x01\n      add\n      swap1\n      dup1\n      dup4\n      gt\n      tag_13\n      jumpi\n    tag_12:\n      pop\n      pop\n      pop\n      pop\n      pop\n      swap1\n      pop\n        /* \"Samples/taskarray.sol\":111:266  function arraySequence(uint256 number) public returns(uint256[] memory) {\r... */\n      swap2\n      swap1\n      pop\n      jump\t// out\n        /* \"#utility.yul\":7:146   */\n    tag_15:\n        /* \"#utility.yul\":53:58   */\n      0x00\n        /* \"#utility.yul\":91:97   */\n      dup2\n        /* \"#utility.yul\":78:98   */\n      calldataload\n        /* \"#utility.yul\":69:98   */\n      swap1\n      pop\n        /* \"#utility.yul\":107:140   */\n      tag_17\n        /* \"#utility.yul\":134:139   */\n      dup2\n        /* \"#utility.yul\":107:140   */\n      tag_18\n      jump\t// in\n    tag_17:\n        /* \"#utility.yul\":7:146   */\n      swap3\n      swap2\n      pop\n      pop\n      jump\t// out\n        /* \"#utility.yul\":152:481   */\n    tag_6:\n        /* \"#utility.yul\":211:217   */\n      0x00\n        /* \"#utility.yul\":260:262   */\n      0x20\n        /* \"#utility.yul\":248:257   */\n      dup3\n        /* \"#utility.yul\":239:246   */\n      dup5\n        /* \"#utility.yul\":235:258   */\n      sub\n        /* \"#utility.yul\":231:263   */\n      slt\n        /* \"#utility.yul\":228:347   */\n      iszero\n      tag_20\n      jumpi\n        /* \"#utility.yul\":266:345   */\n      tag_21\n      tag_22\n      jump\t// in\n    tag_21:\n        /* \"#utility.yul\":228:347   */\n    tag_20:\n        /* \"#utility.yul\":386:387   */\n      0x00\n        /* \"#utility.yul\":411:464   */\n      tag_23\n        /* \"#utility.yul\":456:463   */\n      dup5\n        /* \"#utility.yul\":447:453   */\n      dup3\n        /* \"#utility.yul\":436:445   */\n      dup6\n        /* \"#utility.yul\":432:454   */\n      add\n        /* \"#utility.yul\":411:464   */\n      tag_15\n      jump\t// in\n    tag_23:\n        /* \"#utility.yul\":401:464   */\n      swap2\n      pop\n        /* \"#utility.yul\":357:474   */\n      pop\n        /* \"#utility.yul\":152:481   */\n      swap3\n      swap2\n      pop\n      pop\n      jump\t// out\n        /* \"#utility.yul\":487:666   */\n    tag_24:\n        /* \"#utility.yul\":556:566   */\n      0x00\n        /* \"#utility.yul\":577:623   */\n      tag_26\n        /* \"#utility.yul\":619:622   */\n      dup4\n        /* \"#utility.yul\":611:617   */\n      dup4\n        /* \"#utility.yul\":577:623   */\n      tag_27\n      jump\t// in\n    tag_26:\n        /* \"#utility.yul\":655:659   */\n      0x20\n        /* \"#utility.yul\":650:653   */\n      dup4\n        /* \"#utility.yul\":646:660   */\n      add\n        /* \"#utility.yul\":632:660   */\n      swap1\n      pop\n        /* \"#utility.yul\":487:666   */\n      swap3\n      swap2\n      pop\n      pop\n      jump\t// out\n        /* \"#utility.yul\":702:1434   */\n    tag_28:\n        /* \"#utility.yul\":821:824   */\n      0x00\n        /* \"#utility.yul\":850:904   */\n      tag_30\n        /* \"#utility.yul\":898:903   */\n      dup3\n        /* \"#utility.yul\":850:904   */\n      tag_31\n      jump\t// in\n    tag_30:\n        /* \"#utility.yul\":920:1006   */\n      tag_32\n        /* \"#utility.yul\":999:1005   */\n      dup2\n        /* \"#utility.yul\":994:997   */\n      dup6\n        /* \"#utility.yul\":920:1006   */\n      tag_33\n      jump\t// in\n    tag_32:\n        /* \"#utility.yul\":913:1006   */\n      swap4\n      pop\n        /* \"#utility.yul\":1030:1086   */\n      tag_34\n        /* \"#utility.yul\":1080:1085   */\n      dup4\n        /* \"#utility.yul\":1030:1086   */\n      tag_35\n      jump\t// in\n    tag_34:\n        /* \"#utility.yul\":1109:1116   */\n      dup1\n        /* \"#utility.yul\":1140:1141   */\n      0x00\n        /* \"#utility.yul\":1125:1409   */\n    tag_36:\n        /* \"#utility.yul\":1150:1156   */\n      dup4\n        /* \"#utility.yul\":1147:1148   */\n      dup2\n        /* \"#utility.yul\":1144:1157   */\n      lt\n        /* \"#utility.yul\":1125:1409   */\n      iszero\n      tag_38\n      jumpi\n        /* \"#utility.yul\":1226:1232   */\n      dup2\n        /* \"#utility.yul\":1220:1233   */\n      mload\n        /* \"#utility.yul\":1253:1316   */\n      tag_39\n        /* \"#utility.yul\":1312:1315   */\n      dup9\n        /* \"#utility.yul\":1297:1310   */\n      dup3\n        /* \"#utility.yul\":1253:1316   */\n      tag_24\n      jump\t// in\n    tag_39:\n        /* \"#utility.yul\":1246:1316   */\n      swap8\n      pop\n        /* \"#utility.yul\":1339:1399   */\n      tag_40\n        /* \"#utility.yul\":1392:1398   */\n      dup4\n        /* \"#utility.yul\":1339:1399   */\n      tag_41\n      jump\t// in\n    tag_40:\n        /* \"#utility.yul\":1329:1399   */\n      swap3\n      pop\n        /* \"#utility.yul\":1185:1409   */\n      pop\n        /* \"#utility.yul\":1172:1173   */\n      0x01\n        /* \"#utility.yul\":1169:1170   */\n      dup2\n        /* \"#utility.yul\":1165:1174   */\n      add\n        /* \"#utility.yul\":1160:1174   */\n      swap1\n      pop\n        /* \"#utility.yul\":1125:1409   */\n      jump(tag_36)\n    tag_38:\n        /* \"#utility.yul\":1129:1143   */\n      pop\n        /* \"#utility.yul\":1425:1428   */\n      dup6\n        /* \"#utility.yul\":1418:1428   */\n      swap4\n      pop\n        /* \"#utility.yul\":826:1434   */\n      pop\n      pop\n      pop\n        /* \"#utility.yul\":702:1434   */\n      swap3\n      swap2\n      pop\n      pop\n      jump\t// out\n        /* \"#utility.yul\":1440:1548   */\n    tag_27:\n        /* \"#utility.yul\":1517:1541   */\n      tag_43\n        /* \"#utility.yul\":1535:1540   */\n      dup2\n        /* \"#utility.yul\":1517:1541   */\n      tag_44\n      jump\t// in\n    tag_43:\n        /* \"#utility.yul\":1512:1515   */\n      dup3\n        /* \"#utility.yul\":1505:1542   */\n      mstore\n        /* \"#utility.yul\":1440:1548   */\n      pop\n      pop\n      jump\t// out\n        /* \"#utility.yul\":1554:1927   */\n    tag_9:\n        /* \"#utility.yul\":1697:1701   */\n      0x00\n        /* \"#utility.yul\":1735:1737   */\n      0x20\n        /* \"#utility.yul\":1724:1733   */\n      dup3\n        /* \"#utility.yul\":1720:1738   */\n      add\n        /* \"#utility.yul\":1712:1738   */\n      swap1\n      pop\n        /* \"#utility.yul\":1784:1793   */\n      dup2\n        /* \"#utility.yul\":1778:1782   */\n      dup2\n        /* \"#utility.yul\":1774:1794   */\n      sub\n        /* \"#utility.yul\":1770:1771   */\n      0x00\n        /* \"#utility.yul\":1759:1768   */\n      dup4\n        /* \"#utility.yul\":1755:1772   */\n      add\n        /* \"#utility.yul\":1748:1795   */\n      mstore\n        /* \"#utility.yul\":1812:1920   */\n      tag_46\n        /* \"#utility.yul\":1915:1919   */\n      dup2\n        /* \"#utility.yul\":1906:1912   */\n      dup5\n        /* \"#utility.yul\":1812:1920   */\n      tag_28\n      jump\t// in\n    tag_46:\n        /* \"#utility.yul\":1804:1920   */\n      swap1\n      pop\n        /* \"#utility.yul\":1554:1927   */\n      swap3\n      swap2\n      pop\n      pop\n      jump\t// out\n        /* \"#utility.yul\":2014:2146   */\n    tag_35:\n        /* \"#utility.yul\":2081:2085   */\n      0x00\n        /* \"#utility.yul\":2104:2107   */\n      dup2\n        /* \"#utility.yul\":2096:2107   */\n      swap1\n      pop\n        /* \"#utility.yul\":2134:2138   */\n      0x20\n        /* \"#utility.yul\":2129:2132   */\n      dup3\n        /* \"#utility.yul\":2125:2139   */\n      add\n        /* \"#utility.yul\":2117:2139   */\n      swap1\n      pop\n        /* \"#utility.yul\":2014:2146   */\n      swap2\n      swap1\n      pop\n      jump\t// out\n        /* \"#utility.yul\":2152:2266   */\n    tag_31:\n        /* \"#utility.yul\":2219:2225   */\n      0x00\n        /* \"#utility.yul\":2253:2258   */\n      dup2\n        /* \"#utility.yul\":2247:2259   */\n      mload\n        /* \"#utility.yul\":2237:2259   */\n      swap1\n      pop\n        /* \"#utility.yul\":2152:2266   */\n      swap2\n      swap1\n      pop\n      jump\t// out\n        /* \"#utility.yul\":2272:2385   */\n    tag_41:\n        /* \"#utility.yul\":2342:2346   */\n      0x00\n        /* \"#utility.yul\":2374:2378   */\n      0x20\n        /* \"#utility.yul\":2369:2372   */\n      dup3\n        /* \"#utility.yul\":2365:2379   */\n      add\n        /* \"#utility.yul\":2357:2379   */\n      swap1\n      pop\n        /* \"#utility.yul\":2272:2385   */\n      swap2\n      swap1\n      pop\n      jump\t// out\n        /* \"#utility.yul\":2391:2575   */\n    tag_33:\n        /* \"#utility.yul\":2490:2501   */\n      0x00\n        /* \"#utility.yul\":2524:2530   */\n      dup3\n        /* \"#utility.yul\":2519:2522   */\n      dup3\n        /* \"#utility.yul\":2512:2531   */\n      mstore\n        /* \"#utility.yul\":2564:2568   */\n      0x20\n        /* \"#utility.yul\":2559:2562   */\n      dup3\n        /* \"#utility.yul\":2555:2569   */\n      add\n        /* \"#utility.yul\":2540:2569   */\n      swap1\n      pop\n        /* \"#utility.yul\":2391:2575   */\n      swap3\n      swap2\n      pop\n      pop\n      jump\t// out\n        /* \"#utility.yul\":2581:2658   */\n    tag_44:\n        /* \"#utility.yul\":2618:2625   */\n      0x00\n        /* \"#utility.yul\":2647:2652   */\n      dup2\n        /* \"#utility.yul\":2636:2652   */\n      swap1\n      pop\n        /* \"#utility.yul\":2581:2658   */\n      swap2\n      swap1\n      pop\n      jump\t// out\n        /* \"#utility.yul\":2787:2904   */\n    tag_22:\n        /* \"#utility.yul\":2896:2897   */\n      0x00\n        /* \"#utility.yul\":2893:2894   */\n      dup1\n        /* \"#utility.yul\":2886:2898   */\n      revert\n        /* \"#utility.yul\":2910:3032   */\n    tag_18:\n        /* \"#utility.yul\":2983:3007   */\n      tag_58\n        /* \"#utility.yul\":3001:3006   */\n      dup2\n        /* \"#utility.yul\":2983:3007   */\n      tag_44\n      jump\t// in\n    tag_58:\n        /* \"#utility.yul\":2976:2981   */\n      dup2\n        /* \"#utility.yul\":2973:3008   */\n      eq\n        /* \"#utility.yul\":2963:3026   */\n      tag_59\n      jumpi\n        /* \"#utility.yul\":3022:3023   */\n      0x00\n        /* \"#utility.yul\":3019:3020   */\n      dup1\n        /* \"#utility.yul\":3012:3024   */\n      revert\n        /* \"#utility.yul\":2963:3026   */\n    tag_59:\n        /* \"#utility.yul\":2910:3032   */\n      pop\n      jump\t// out\n\n    auxdata: 0xa2646970667358221220671b3179cfe0fbebb9deae4803c0fd695d72ac2a8f03fba211a4d161b936c28564736f6c63430008070033\n}\n",
				"bytecode": {
					"linkReferences": {},
					"object": "608060405234801561001057600080fd5b50610261806100206000396000f3fe608060405234801561001057600080fd5b506004361061002b5760003560e01c80630909f2fd14610030575b600080fd5b61004a600480360381019061004591906100f8565b610060565b60405161005791906101aa565b60405180910390f35b6060600082908060018154018082558091505060019003906000526020600020016000909190919091505560008054806020026020016040519081016040528092919081815260200182805480156100d757602002820191906000526020600020905b8154815260200190600101908083116100c3575b50505050509050919050565b6000813590506100f281610214565b92915050565b60006020828403121561010e5761010d61020f565b5b600061011c848285016100e3565b91505092915050565b6000610131838361019b565b60208301905092915050565b6000610148826101dc565b61015281856101f4565b935061015d836101cc565b8060005b8381101561018e5781516101758882610125565b9750610180836101e7565b925050600181019050610161565b5085935050505092915050565b6101a481610205565b82525050565b600060208201905081810360008301526101c4818461013d565b905092915050565b6000819050602082019050919050565b600081519050919050565b6000602082019050919050565b600082825260208201905092915050565b6000819050919050565b600080fd5b61021d81610205565b811461022857600080fd5b5056fea2646970667358221220671b3179cfe0fbebb9deae4803c0fd695d72ac2a8f03fba211a4d161b936c28564736f6c63430008070033",
					"opcodes": "PUSH1 0x80 PUSH1 0x40 MSTORE CALLVALUE DUP1 ISZERO PUSH2 0x10 JUMPI PUSH1 0x0 DUP1 REVERT JUMPDEST POP PUSH2 0x261 DUP1 PUSH2 0x20 PUSH1 0x0 CODECOPY PUSH1 0x0 RETURN INVALID PUSH1 0x80 PUSH1 0x40 MSTORE CALLVALUE DUP1 ISZERO PUSH2 0x10 JUMPI PUSH1 0x0 DUP1 REVERT JUMPDEST POP PUSH1 0x4 CALLDATASIZE LT PUSH2 0x2B JUMPI PUSH1 0x0 CALLDATALOAD PUSH1 0xE0 SHR DUP1 PUSH4 0x909F2FD EQ PUSH2 0x30 JUMPI JUMPDEST PUSH1 0x0 DUP1 REVERT JUMPDEST PUSH2 0x4A PUSH1 0x4 DUP1 CALLDATASIZE SUB DUP2 ADD SWAP1 PUSH2 0x45 SWAP2 SWAP1 PUSH2 0xF8 JUMP JUMPDEST PUSH2 0x60 JUMP JUMPDEST PUSH1 0x40 MLOAD PUSH2 0x57 SWAP2 SWAP1 PUSH2 0x1AA JUMP JUMPDEST PUSH1 0x40 MLOAD DUP1 SWAP2 SUB SWAP1 RETURN JUMPDEST PUSH1 0x60 PUSH1 0x0 DUP3 SWAP1 DUP1 PUSH1 0x1 DUP2 SLOAD ADD DUP1 DUP3 SSTORE DUP1 SWAP2 POP POP PUSH1 0x1 SWAP1 SUB SWAP1 PUSH1 0x0 MSTORE PUSH1 0x20 PUSH1 0x0 KECCAK256 ADD PUSH1 0x0 SWAP1 SWAP2 SWAP1 SWAP2 SWAP1 SWAP2 POP SSTORE PUSH1 0x0 DUP1 SLOAD DUP1 PUSH1 0x20 MUL PUSH1 0x20 ADD PUSH1 0x40 MLOAD SWAP1 DUP2 ADD PUSH1 0x40 MSTORE DUP1 SWAP3 SWAP2 SWAP1 DUP2 DUP2 MSTORE PUSH1 0x20 ADD DUP3 DUP1 SLOAD DUP1 ISZERO PUSH2 0xD7 JUMPI PUSH1 0x20 MUL DUP3 ADD SWAP2 SWAP1 PUSH1 0x0 MSTORE PUSH1 0x20 PUSH1 0x0 KECCAK256 SWAP1 JUMPDEST DUP2 SLOAD DUP2 MSTORE PUSH1 0x20 ADD SWAP1 PUSH1 0x1 ADD SWAP1 DUP1 DUP4 GT PUSH2 0xC3 JUMPI JUMPDEST POP POP POP POP POP SWAP1 POP SWAP2 SWAP1 POP JUMP JUMPDEST PUSH1 0x0 DUP2 CALLDATALOAD SWAP1 POP PUSH2 0xF2 DUP2 PUSH2 0x214 JUMP JUMPDEST SWAP3 SWAP2 POP POP JUMP JUMPDEST PUSH1 0x0 PUSH1 0x20 DUP3 DUP5 SUB SLT ISZERO PUSH2 0x10E JUMPI PUSH2 0x10D PUSH2 0x20F JUMP JUMPDEST JUMPDEST PUSH1 0x0 PUSH2 0x11C DUP5 DUP3 DUP6 ADD PUSH2 0xE3 JUMP JUMPDEST SWAP2 POP POP SWAP3 SWAP2 POP POP JUMP JUMPDEST PUSH1 0x0 PUSH2 0x131 DUP4 DUP4 PUSH2 0x19B JUMP JUMPDEST PUSH1 0x20 DUP4 ADD SWAP1 POP SWAP3 SWAP2 POP POP JUMP JUMPDEST PUSH1 0x0 PUSH2 0x148 DUP3 PUSH2 0x1DC JUMP JUMPDEST PUSH2 0x152 DUP2 DUP6 PUSH2 0x1F4 JUMP JUMPDEST SWAP4 POP PUSH2 0x15D DUP4 PUSH2 0x1CC JUMP JUMPDEST DUP1 PUSH1 0x0 JUMPDEST DUP4 DUP2 LT ISZERO PUSH2 0x18E JUMPI DUP2 MLOAD PUSH2 0x175 DUP9 DUP3 PUSH2 0x125 JUMP JUMPDEST SWAP8 POP PUSH2 0x180 DUP4 PUSH2 0x1E7 JUMP JUMPDEST SWAP3 POP POP PUSH1 0x1 DUP2 ADD SWAP1 POP PUSH2 0x161 JUMP JUMPDEST POP DUP6 SWAP4 POP POP POP POP SWAP3 SWAP2 POP POP JUMP JUMPDEST PUSH2 0x1A4 DUP2 PUSH2 0x205 JUMP JUMPDEST DUP3 MSTORE POP POP JUMP JUMPDEST PUSH1 0x0 PUSH1 0x20 DUP3 ADD SWAP1 POP DUP2 DUP2 SUB PUSH1 0x0 DUP4 ADD MSTORE PUSH2 0x1C4 DUP2 DUP5 PUSH2 0x13D JUMP JUMPDEST SWAP1 POP SWAP3 SWAP2 POP POP JUMP JUMPDEST PUSH1 0x0 DUP2 SWAP1 POP PUSH1 0x20 DUP3 ADD SWAP1 POP SWAP2 SWAP1 POP JUMP JUMPDEST PUSH1 0x0 DUP2 MLOAD SWAP1 POP SWAP2 SWAP1 POP JUMP JUMPDEST PUSH1 0x0 PUSH1 0x20 DUP3 ADD SWAP1 POP SWAP2 SWAP1 POP JUMP JUMPDEST PUSH1 0x0 DUP3 DUP3 MSTORE PUSH1 0x20 DUP3 ADD SWAP1 POP SWAP3 SWAP2 POP POP JUMP JUMPDEST PUSH1 0x0 DUP2 SWAP1 POP SWAP2 SWAP1 POP JUMP JUMPDEST PUSH1 0x0 DUP1 REVERT JUMPDEST PUSH2 0x21D DUP2 PUSH2 0x205 JUMP JUMPDEST DUP2 EQ PUSH2 0x228 JUMPI PUSH1 0x0 DUP1 REVERT JUMPDEST POP JUMP INVALID LOG2 PUSH5 0x6970667358 0x22 SLT KECCAK256 PUSH8 0x1B3179CFE0FBEBB9 0xDE 0xAE BASEFEE SUB 0xC0 REVERT PUSH10 0x5D72AC2A8F03FBA211A4 0xD1 PUSH2 0xB936 0xC2 DUP6 PUSH5 0x736F6C6343 STOP ADDMOD SMOD STOP CALLER "
				},
				"gasEstimates": {
					"creation": {
						"codeDepositCost": "121800",
						"executionCost": "171",
						"totalCost": "121971"
					},
					"external": {
						"arraySequence(uint256)": "infinite"
					}
				},
				"methodIdentifiers": {
					"arraySequence(uint256)": "0909f2fd"
				}
			},
			"storageLayout": {
				"storage": [
					{
						"astId": 4,
						"contract": "Samples/taskarray.sol:arraytask",
						"label": "arrayshow",
						"offset": 0,
						"slot": "0",
						"type": "t_array(t_uint256)dyn_storage"
					}
				],
				"types": {
					"t_array(t_uint256)dyn_storage": {
						"base": "t_uint256",
						"encoding": "dynamic_array",
						"label": "uint256[]",
						"numberOfBytes": "32"
					},
					"t_uint256": {
						"encoding": "inplace",
						"label": "uint256",
						"numberOfBytes": "32"
					}
				}
			},
			"userdoc": {
				"kind": "user",
				"methods": {},
				"version": 1
			}
		}
	}
}