{
	"Samples/erc20.sol": {
		"example": {
			"abi": [
				{
					"inputs": [],
					"stateMutability": "nonpayable",
					"type": "constructor"
				},
				{
					"inputs": [
						{
							"internalType": "address",
							"name": "_userAddress",
							"type": "address"
						},
						{
							"internalType": "uint256",
							"name": "_amount",
							"type": "uint256"
						}
					],
					"name": "_mint",
					"outputs": [],
					"stateMutability": "nonpayable",
					"type": "function"
				},
				{
					"inputs": [
						{
							"internalType": "address",
							"name": "",
							"type": "address"
						}
					],
					"name": "allowence",
					"outputs": [
						{
							"internalType": "uint256",
							"name": "",
							"type": "uint256"
						}
					],
					"stateMutability": "view",
					"type": "function"
				},
				{
					"inputs": [
						{
							"internalType": "uint256",
							"name": "amount",
							"type": "uint256"
						},
						{
							"internalType": "address",
							"name": "from",
							"type": "address"
						}
					],
					"name": "approve",
					"outputs": [],
					"stateMutability": "nonpayable",
					"type": "function"
				},
				{
					"inputs": [
						{
							"internalType": "address",
							"name": "",
							"type": "address"
						}
					],
					"name": "balance",
					"outputs": [
						{
							"internalType": "uint256",
							"name": "",
							"type": "uint256"
						}
					],
					"stateMutability": "view",
					"type": "function"
				},
				{
					"inputs": [
						{
							"internalType": "address",
							"name": "checkbalance",
							"type": "address"
						}
					],
					"name": "balanceof",
					"outputs": [
						{
							"internalType": "uint256",
							"name": "",
							"type": "uint256"
						}
					],
					"stateMutability": "view",
					"type": "function"
				},
				{
					"inputs": [],
					"name": "totalsupply",
					"outputs": [
						{
							"internalType": "uint256",
							"name": "",
							"type": "uint256"
						}
					],
					"stateMutability": "view",
					"type": "function"
				},
				{
					"inputs": [
						{
							"internalType": "address",
							"name": "to",
							"type": "address"
						},
						{
							"internalType": "uint256",
							"name": "amount",
							"type": "uint256"
						}
					],
					"name": "transfer",
					"outputs": [],
					"stateMutability": "nonpayable",
					"type": "function"
				},
				{
					"inputs": [
						{
							"internalType": "address",
							"name": "from",
							"type": "address"
						},
						{
							"internalType": "address",
							"name": "to",
							"type": "address"
						},
						{
							"internalType": "uint256",
							"name": "amount",
							"type": "uint256"
						}
					],
					"name": "transferfrom",
					"outputs": [],
					"stateMutability": "nonpayable",
					"type": "function"
				}
			],
			"devdoc": {
				"kind": "dev",
				"methods": {},
				"version": 1
			},
			"evm": {
				"assembly": "    /* \"Samples/erc20.sol\":60:1182  contract example{\r... */\n  mstore(0x40, 0x80)\n    /* \"Samples/erc20.sol\":85:199  constructor() {\r... */\n  callvalue\n  dup1\n  iszero\n  tag_1\n  jumpi\n  0x00\n  dup1\n  revert\ntag_1:\n  pop\n    /* \"Samples/erc20.sol\":110:147  _mint(msg.sender, 1000000000 *10**18) */\n  tag_4\n    /* \"Samples/erc20.sol\":116:126  msg.sender */\n  caller\n    /* \"Samples/erc20.sol\":128:146  1000000000 *10**18 */\n  0x033b2e3c9fd0803ce8000000\n    /* \"Samples/erc20.sol\":110:115  _mint */\n  shl(0x20, tag_5)\n    /* \"Samples/erc20.sol\":110:147  _mint(msg.sender, 1000000000 *10**18) */\n  0x20\n  shr\n  jump\t// in\ntag_4:\n    /* \"Samples/erc20.sol\":173:191  1000000000 *10**18 */\n  0x033b2e3c9fd0803ce8000000\n    /* \"Samples/erc20.sol\":158:170  total_supply */\n  0x02\n    /* \"Samples/erc20.sol\":158:191  total_supply = 1000000000 *10**18 */\n  dup2\n  swap1\n  sstore\n  pop\n    /* \"Samples/erc20.sol\":60:1182  contract example{\r... */\n  jump(tag_6)\n    /* \"Samples/erc20.sol\":421:531  function _mint(address _userAddress, uint256 _amount) public{\r... */\ntag_5:\n    /* \"Samples/erc20.sol\":516:523  _amount */\n  dup1\n    /* \"Samples/erc20.sol\":492:499  balance */\n  0x00\n    /* \"Samples/erc20.sol\":492:513  balance[_userAddress] */\n  dup1\n    /* \"Samples/erc20.sol\":500:512  _userAddress */\n  dup5\n    /* \"Samples/erc20.sol\":492:513  balance[_userAddress] */\n  0xffffffffffffffffffffffffffffffffffffffff\n  and\n  0xffffffffffffffffffffffffffffffffffffffff\n  and\n  dup2\n  mstore\n  0x20\n  add\n  swap1\n  dup2\n  mstore\n  0x20\n  add\n  0x00\n  keccak256\n    /* \"Samples/erc20.sol\":492:523  balance[_userAddress] = _amount */\n  dup2\n  swap1\n  sstore\n  pop\n    /* \"Samples/erc20.sol\":421:531  function _mint(address _userAddress, uint256 _amount) public{\r... */\n  pop\n  pop\n  jump\t// out\n    /* \"Samples/erc20.sol\":60:1182  contract example{\r... */\ntag_6:\n  dataSize(sub_0)\n  dup1\n  dataOffset(sub_0)\n  0x00\n  codecopy\n  0x00\n  return\nstop\n\nsub_0: assembly {\n        /* \"Samples/erc20.sol\":60:1182  contract example{\r... */\n      mstore(0x40, 0x80)\n      callvalue\n      dup1\n      iszero\n      tag_1\n      jumpi\n      0x00\n      dup1\n      revert\n    tag_1:\n      pop\n      jumpi(tag_2, lt(calldatasize, 0x04))\n      shr(0xe0, calldataload(0x00))\n      dup1\n      0xa9059cbb\n      gt\n      tag_11\n      jumpi\n      dup1\n      0xa9059cbb\n      eq\n      tag_7\n      jumpi\n      dup1\n      0xaef46244\n      eq\n      tag_8\n      jumpi\n      dup1\n      0xe3d670d7\n      eq\n      tag_9\n      jumpi\n      dup1\n      0xfebe4909\n      eq\n      tag_10\n      jumpi\n      jump(tag_2)\n    tag_11:\n      dup1\n      0x3d64125b\n      eq\n      tag_3\n      jumpi\n      dup1\n      0x4e6ec247\n      eq\n      tag_4\n      jumpi\n      dup1\n      0x63b0545f\n      eq\n      tag_5\n      jumpi\n      dup1\n      0x72dd529b\n      eq\n      tag_6\n      jumpi\n    tag_2:\n      0x00\n      dup1\n      revert\n        /* \"Samples/erc20.sol\":539:652  function balanceof(address checkbalance) public view returns(uint){\r... */\n    tag_3:\n      tag_12\n      0x04\n      dup1\n      calldatasize\n      sub\n      dup2\n      add\n      swap1\n      tag_13\n      swap2\n      swap1\n      tag_14\n      jump\t// in\n    tag_13:\n      tag_15\n      jump\t// in\n    tag_12:\n      mload(0x40)\n      tag_16\n      swap2\n      swap1\n      tag_17\n      jump\t// in\n    tag_16:\n      mload(0x40)\n      dup1\n      swap2\n      sub\n      swap1\n      return\n        /* \"Samples/erc20.sol\":421:531  function _mint(address _userAddress, uint256 _amount) public{\r... */\n    tag_4:\n      tag_18\n      0x04\n      dup1\n      calldatasize\n      sub\n      dup2\n      add\n      swap1\n      tag_19\n      swap2\n      swap1\n      tag_20\n      jump\t// in\n    tag_19:\n      tag_21\n      jump\t// in\n    tag_18:\n      stop\n        /* \"Samples/erc20.sol\":795:1070  function transferfrom(address from,address to,uint amount)public {\r... */\n    tag_5:\n      tag_22\n      0x04\n      dup1\n      calldatasize\n      sub\n      dup2\n      add\n      swap1\n      tag_23\n      swap2\n      swap1\n      tag_24\n      jump\t// in\n    tag_23:\n      tag_25\n      jump\t// in\n    tag_22:\n      stop\n        /* \"Samples/erc20.sol\":327:413  function totalsupply() public view returns(uint){\r... */\n    tag_6:\n      tag_26\n      tag_27\n      jump\t// in\n    tag_26:\n      mload(0x40)\n      tag_28\n      swap2\n      swap1\n      tag_17\n      jump\t// in\n    tag_28:\n      mload(0x40)\n      dup1\n      swap2\n      sub\n      swap1\n      return\n        /* \"Samples/erc20.sol\":660:787  function transfer(address to, uint amount) public{\r... */\n    tag_7:\n      tag_29\n      0x04\n      dup1\n      calldatasize\n      sub\n      dup2\n      add\n      swap1\n      tag_30\n      swap2\n      swap1\n      tag_20\n      jump\t// in\n    tag_30:\n      tag_31\n      jump\t// in\n    tag_29:\n      stop\n        /* \"Samples/erc20.sol\":253:294  mapping(address => uint) public allowence */\n    tag_8:\n      tag_32\n      0x04\n      dup1\n      calldatasize\n      sub\n      dup2\n      add\n      swap1\n      tag_33\n      swap2\n      swap1\n      tag_14\n      jump\t// in\n    tag_33:\n      tag_34\n      jump\t// in\n    tag_32:\n      mload(0x40)\n      tag_35\n      swap2\n      swap1\n      tag_17\n      jump\t// in\n    tag_35:\n      mload(0x40)\n      dup1\n      swap2\n      sub\n      swap1\n      return\n        /* \"Samples/erc20.sol\":207:246  mapping(address => uint) public balance */\n    tag_9:\n      tag_36\n      0x04\n      dup1\n      calldatasize\n      sub\n      dup2\n      add\n      swap1\n      tag_37\n      swap2\n      swap1\n      tag_14\n      jump\t// in\n    tag_37:\n      tag_38\n      jump\t// in\n    tag_36:\n      mload(0x40)\n      tag_39\n      swap2\n      swap1\n      tag_17\n      jump\t// in\n    tag_39:\n      mload(0x40)\n      dup1\n      swap2\n      sub\n      swap1\n      return\n        /* \"Samples/erc20.sol\":1078:1172  function approve(uint amount, address from) public{\r... */\n    tag_10:\n      tag_40\n      0x04\n      dup1\n      calldatasize\n      sub\n      dup2\n      add\n      swap1\n      tag_41\n      swap2\n      swap1\n      tag_42\n      jump\t// in\n    tag_41:\n      tag_43\n      jump\t// in\n    tag_40:\n      stop\n        /* \"Samples/erc20.sol\":539:652  function balanceof(address checkbalance) public view returns(uint){\r... */\n    tag_15:\n        /* \"Samples/erc20.sol\":600:604  uint */\n      0x00\n        /* \"Samples/erc20.sol\":623:630  balance */\n      dup1\n        /* \"Samples/erc20.sol\":623:644  balance[checkbalance] */\n      0x00\n        /* \"Samples/erc20.sol\":631:643  checkbalance */\n      dup4\n        /* \"Samples/erc20.sol\":623:644  balance[checkbalance] */\n      0xffffffffffffffffffffffffffffffffffffffff\n      and\n      0xffffffffffffffffffffffffffffffffffffffff\n      and\n      dup2\n      mstore\n      0x20\n      add\n      swap1\n      dup2\n      mstore\n      0x20\n      add\n      0x00\n      keccak256\n      sload\n        /* \"Samples/erc20.sol\":616:644  return balance[checkbalance] */\n      swap1\n      pop\n        /* \"Samples/erc20.sol\":539:652  function balanceof(address checkbalance) public view returns(uint){\r... */\n      swap2\n      swap1\n      pop\n      jump\t// out\n        /* \"Samples/erc20.sol\":421:531  function _mint(address _userAddress, uint256 _amount) public{\r... */\n    tag_21:\n        /* \"Samples/erc20.sol\":516:523  _amount */\n      dup1\n        /* \"Samples/erc20.sol\":492:499  balance */\n      0x00\n        /* \"Samples/erc20.sol\":492:513  balance[_userAddress] */\n      dup1\n        /* \"Samples/erc20.sol\":500:512  _userAddress */\n      dup5\n        /* \"Samples/erc20.sol\":492:513  balance[_userAddress] */\n      0xffffffffffffffffffffffffffffffffffffffff\n      and\n      0xffffffffffffffffffffffffffffffffffffffff\n      and\n      dup2\n      mstore\n      0x20\n      add\n      swap1\n      dup2\n      mstore\n      0x20\n      add\n      0x00\n      keccak256\n        /* \"Samples/erc20.sol\":492:523  balance[_userAddress] = _amount */\n      dup2\n      swap1\n      sstore\n      pop\n        /* \"Samples/erc20.sol\":421:531  function _mint(address _userAddress, uint256 _amount) public{\r... */\n      pop\n      pop\n      jump\t// out\n        /* \"Samples/erc20.sol\":795:1070  function transferfrom(address from,address to,uint amount)public {\r... */\n    tag_25:\n        /* \"Samples/erc20.sol\":888:897  allowence */\n      0x01\n        /* \"Samples/erc20.sol\":888:903  allowence[from] */\n      0x00\n        /* \"Samples/erc20.sol\":898:902  from */\n      dup5\n        /* \"Samples/erc20.sol\":888:903  allowence[from] */\n      0xffffffffffffffffffffffffffffffffffffffff\n      and\n      0xffffffffffffffffffffffffffffffffffffffff\n      and\n      dup2\n      mstore\n      0x20\n      add\n      swap1\n      dup2\n      mstore\n      0x20\n      add\n      0x00\n      keccak256\n      sload\n        /* \"Samples/erc20.sol\":879:885  amount */\n      dup2\n        /* \"Samples/erc20.sol\":879:903  amount < allowence[from] */\n      lt\n        /* \"Samples/erc20.sol\":871:919  require(amount < allowence[from], \"not Allowed\") */\n      tag_47\n      jumpi\n      mload(0x40)\n      0x08c379a000000000000000000000000000000000000000000000000000000000\n      dup2\n      mstore\n      0x04\n      add\n      tag_48\n      swap1\n      tag_49\n      jump\t// in\n    tag_48:\n      mload(0x40)\n      dup1\n      swap2\n      sub\n      swap1\n      revert\n    tag_47:\n        /* \"Samples/erc20.sol\":948:955  balance */\n      0x00\n        /* \"Samples/erc20.sol\":948:961  balance[from] */\n      dup1\n        /* \"Samples/erc20.sol\":956:960  from */\n      dup5\n        /* \"Samples/erc20.sol\":948:961  balance[from] */\n      0xffffffffffffffffffffffffffffffffffffffff\n      and\n      0xffffffffffffffffffffffffffffffffffffffff\n      and\n      dup2\n      mstore\n      0x20\n      add\n      swap1\n      dup2\n      mstore\n      0x20\n      add\n      0x00\n      keccak256\n      sload\n        /* \"Samples/erc20.sol\":938:944  amount */\n      dup2\n        /* \"Samples/erc20.sol\":938:961  amount <= balance[from] */\n      gt\n      iszero\n        /* \"Samples/erc20.sol\":930:995  require(amount <= balance[from], \"amount must be less than from\") */\n      tag_50\n      jumpi\n      mload(0x40)\n      0x08c379a000000000000000000000000000000000000000000000000000000000\n      dup2\n      mstore\n      0x04\n      add\n      tag_51\n      swap1\n      tag_52\n      jump\t// in\n    tag_51:\n      mload(0x40)\n      dup1\n      swap2\n      sub\n      swap1\n      revert\n    tag_50:\n        /* \"Samples/erc20.sol\":1023:1029  amount */\n      dup1\n        /* \"Samples/erc20.sol\":1006:1013  balance */\n      0x00\n        /* \"Samples/erc20.sol\":1006:1019  balance[from] */\n      dup1\n        /* \"Samples/erc20.sol\":1014:1018  from */\n      dup6\n        /* \"Samples/erc20.sol\":1006:1019  balance[from] */\n      0xffffffffffffffffffffffffffffffffffffffff\n      and\n      0xffffffffffffffffffffffffffffffffffffffff\n      and\n      dup2\n      mstore\n      0x20\n      add\n      swap1\n      dup2\n      mstore\n      0x20\n      add\n      0x00\n      keccak256\n      0x00\n        /* \"Samples/erc20.sol\":1006:1029  balance[from] -= amount */\n      dup3\n      dup3\n      sload\n      tag_53\n      swap2\n      swap1\n      tag_54\n      jump\t// in\n    tag_53:\n      swap3\n      pop\n      pop\n      dup2\n      swap1\n      sstore\n      pop\n        /* \"Samples/erc20.sol\":1055:1061  amount */\n      dup1\n        /* \"Samples/erc20.sol\":1040:1047  balance */\n      0x00\n        /* \"Samples/erc20.sol\":1040:1051  balance[to] */\n      dup1\n        /* \"Samples/erc20.sol\":1048:1050  to */\n      dup5\n        /* \"Samples/erc20.sol\":1040:1051  balance[to] */\n      0xffffffffffffffffffffffffffffffffffffffff\n      and\n      0xffffffffffffffffffffffffffffffffffffffff\n      and\n      dup2\n      mstore\n      0x20\n      add\n      swap1\n      dup2\n      mstore\n      0x20\n      add\n      0x00\n      keccak256\n      0x00\n        /* \"Samples/erc20.sol\":1040:1061  balance[to] += amount */\n      dup3\n      dup3\n      sload\n      tag_55\n      swap2\n      swap1\n      tag_56\n      jump\t// in\n    tag_55:\n      swap3\n      pop\n      pop\n      dup2\n      swap1\n      sstore\n      pop\n        /* \"Samples/erc20.sol\":795:1070  function transferfrom(address from,address to,uint amount)public {\r... */\n      pop\n      pop\n      pop\n      jump\t// out\n        /* \"Samples/erc20.sol\":327:413  function totalsupply() public view returns(uint){\r... */\n    tag_27:\n        /* \"Samples/erc20.sol\":370:374  uint */\n      0x00\n        /* \"Samples/erc20.sol\":393:405  total_supply */\n      sload(0x02)\n        /* \"Samples/erc20.sol\":386:405  return total_supply */\n      swap1\n      pop\n        /* \"Samples/erc20.sol\":327:413  function totalsupply() public view returns(uint){\r... */\n      swap1\n      jump\t// out\n        /* \"Samples/erc20.sol\":660:787  function transfer(address to, uint amount) public{\r... */\n    tag_31:\n        /* \"Samples/erc20.sol\":741:747  amount */\n      dup1\n        /* \"Samples/erc20.sol\":720:727  balance */\n      0x00\n        /* \"Samples/erc20.sol\":720:739  balance[msg.sender] */\n      dup1\n        /* \"Samples/erc20.sol\":728:738  msg.sender */\n      caller\n        /* \"Samples/erc20.sol\":720:739  balance[msg.sender] */\n      0xffffffffffffffffffffffffffffffffffffffff\n      and\n      0xffffffffffffffffffffffffffffffffffffffff\n      and\n      dup2\n      mstore\n      0x20\n      add\n      swap1\n      dup2\n      mstore\n      0x20\n      add\n      0x00\n      keccak256\n        /* \"Samples/erc20.sol\":720:747  balance[msg.sender] =amount */\n      dup2\n      swap1\n      sstore\n      pop\n        /* \"Samples/erc20.sol\":773:779  amount */\n      dup1\n        /* \"Samples/erc20.sol\":758:765  balance */\n      0x00\n        /* \"Samples/erc20.sol\":758:769  balance[to] */\n      dup1\n        /* \"Samples/erc20.sol\":766:768  to */\n      dup5\n        /* \"Samples/erc20.sol\":758:769  balance[to] */\n      0xffffffffffffffffffffffffffffffffffffffff\n      and\n      0xffffffffffffffffffffffffffffffffffffffff\n      and\n      dup2\n      mstore\n      0x20\n      add\n      swap1\n      dup2\n      mstore\n      0x20\n      add\n      0x00\n      keccak256\n      0x00\n        /* \"Samples/erc20.sol\":758:779  balance[to] += amount */\n      dup3\n      dup3\n      sload\n      tag_59\n      swap2\n      swap1\n      tag_56\n      jump\t// in\n    tag_59:\n      swap3\n      pop\n      pop\n      dup2\n      swap1\n      sstore\n      pop\n        /* \"Samples/erc20.sol\":660:787  function transfer(address to, uint amount) public{\r... */\n      pop\n      pop\n      jump\t// out\n        /* \"Samples/erc20.sol\":253:294  mapping(address => uint) public allowence */\n    tag_34:\n      mstore(0x20, 0x01)\n      dup1\n      0x00\n      mstore\n      keccak256(0x00, 0x40)\n      0x00\n      swap2\n      pop\n      swap1\n      pop\n      sload\n      dup2\n      jump\t// out\n        /* \"Samples/erc20.sol\":207:246  mapping(address => uint) public balance */\n    tag_38:\n      mstore(0x20, 0x00)\n      dup1\n      0x00\n      mstore\n      keccak256(0x00, 0x40)\n      0x00\n      swap2\n      pop\n      swap1\n      pop\n      sload\n      dup2\n      jump\t// out\n        /* \"Samples/erc20.sol\":1078:1172  function approve(uint amount, address from) public{\r... */\n    tag_43:\n        /* \"Samples/erc20.sol\":1158:1164  amount */\n      dup2\n        /* \"Samples/erc20.sol\":1139:1148  allowence */\n      0x01\n        /* \"Samples/erc20.sol\":1139:1154  allowence[from] */\n      0x00\n        /* \"Samples/erc20.sol\":1149:1153  from */\n      dup4\n        /* \"Samples/erc20.sol\":1139:1154  allowence[from] */\n      0xffffffffffffffffffffffffffffffffffffffff\n      and\n      0xffffffffffffffffffffffffffffffffffffffff\n      and\n      dup2\n      mstore\n      0x20\n      add\n      swap1\n      dup2\n      mstore\n      0x20\n      add\n      0x00\n      keccak256\n      0x00\n        /* \"Samples/erc20.sol\":1139:1164  allowence[from] += amount */\n      dup3\n      dup3\n      sload\n      tag_61\n      swap2\n      swap1\n      tag_56\n      jump\t// in\n    tag_61:\n      swap3\n      pop\n      pop\n      dup2\n      swap1\n      sstore\n      pop\n        /* \"Samples/erc20.sol\":1078:1172  function approve(uint amount, address from) public{\r... */\n      pop\n      pop\n      jump\t// out\n        /* \"#utility.yul\":7:146   */\n    tag_63:\n        /* \"#utility.yul\":53:58   */\n      0x00\n        /* \"#utility.yul\":91:97   */\n      dup2\n        /* \"#utility.yul\":78:98   */\n      calldataload\n        /* \"#utility.yul\":69:98   */\n      swap1\n      pop\n        /* \"#utility.yul\":107:140   */\n      tag_65\n        /* \"#utility.yul\":134:139   */\n      dup2\n        /* \"#utility.yul\":107:140   */\n      tag_66\n      jump\t// in\n    tag_65:\n        /* \"#utility.yul\":7:146   */\n      swap3\n      swap2\n      pop\n      pop\n      jump\t// out\n        /* \"#utility.yul\":152:291   */\n    tag_67:\n        /* \"#utility.yul\":198:203   */\n      0x00\n        /* \"#utility.yul\":236:242   */\n      dup2\n        /* \"#utility.yul\":223:243   */\n      calldataload\n        /* \"#utility.yul\":214:243   */\n      swap1\n      pop\n        /* \"#utility.yul\":252:285   */\n      tag_69\n        /* \"#utility.yul\":279:284   */\n      dup2\n        /* \"#utility.yul\":252:285   */\n      tag_70\n      jump\t// in\n    tag_69:\n        /* \"#utility.yul\":152:291   */\n      swap3\n      swap2\n      pop\n      pop\n      jump\t// out\n        /* \"#utility.yul\":297:626   */\n    tag_14:\n        /* \"#utility.yul\":356:362   */\n      0x00\n        /* \"#utility.yul\":405:407   */\n      0x20\n        /* \"#utility.yul\":393:402   */\n      dup3\n        /* \"#utility.yul\":384:391   */\n      dup5\n        /* \"#utility.yul\":380:403   */\n      sub\n        /* \"#utility.yul\":376:408   */\n      slt\n        /* \"#utility.yul\":373:492   */\n      iszero\n      tag_72\n      jumpi\n        /* \"#utility.yul\":411:490   */\n      tag_73\n      tag_74\n      jump\t// in\n    tag_73:\n        /* \"#utility.yul\":373:492   */\n    tag_72:\n        /* \"#utility.yul\":531:532   */\n      0x00\n        /* \"#utility.yul\":556:609   */\n      tag_75\n        /* \"#utility.yul\":601:608   */\n      dup5\n        /* \"#utility.yul\":592:598   */\n      dup3\n        /* \"#utility.yul\":581:590   */\n      dup6\n        /* \"#utility.yul\":577:599   */\n      add\n        /* \"#utility.yul\":556:609   */\n      tag_63\n      jump\t// in\n    tag_75:\n        /* \"#utility.yul\":546:609   */\n      swap2\n      pop\n        /* \"#utility.yul\":502:619   */\n      pop\n        /* \"#utility.yul\":297:626   */\n      swap3\n      swap2\n      pop\n      pop\n      jump\t// out\n        /* \"#utility.yul\":632:1251   */\n    tag_24:\n        /* \"#utility.yul\":709:715   */\n      0x00\n        /* \"#utility.yul\":717:723   */\n      dup1\n        /* \"#utility.yul\":725:731   */\n      0x00\n        /* \"#utility.yul\":774:776   */\n      0x60\n        /* \"#utility.yul\":762:771   */\n      dup5\n        /* \"#utility.yul\":753:760   */\n      dup7\n        /* \"#utility.yul\":749:772   */\n      sub\n        /* \"#utility.yul\":745:777   */\n      slt\n        /* \"#utility.yul\":742:861   */\n      iszero\n      tag_77\n      jumpi\n        /* \"#utility.yul\":780:859   */\n      tag_78\n      tag_74\n      jump\t// in\n    tag_78:\n        /* \"#utility.yul\":742:861   */\n    tag_77:\n        /* \"#utility.yul\":900:901   */\n      0x00\n        /* \"#utility.yul\":925:978   */\n      tag_79\n        /* \"#utility.yul\":970:977   */\n      dup7\n        /* \"#utility.yul\":961:967   */\n      dup3\n        /* \"#utility.yul\":950:959   */\n      dup8\n        /* \"#utility.yul\":946:968   */\n      add\n        /* \"#utility.yul\":925:978   */\n      tag_63\n      jump\t// in\n    tag_79:\n        /* \"#utility.yul\":915:978   */\n      swap4\n      pop\n        /* \"#utility.yul\":871:988   */\n      pop\n        /* \"#utility.yul\":1027:1029   */\n      0x20\n        /* \"#utility.yul\":1053:1106   */\n      tag_80\n        /* \"#utility.yul\":1098:1105   */\n      dup7\n        /* \"#utility.yul\":1089:1095   */\n      dup3\n        /* \"#utility.yul\":1078:1087   */\n      dup8\n        /* \"#utility.yul\":1074:1096   */\n      add\n        /* \"#utility.yul\":1053:1106   */\n      tag_63\n      jump\t// in\n    tag_80:\n        /* \"#utility.yul\":1043:1106   */\n      swap3\n      pop\n        /* \"#utility.yul\":998:1116   */\n      pop\n        /* \"#utility.yul\":1155:1157   */\n      0x40\n        /* \"#utility.yul\":1181:1234   */\n      tag_81\n        /* \"#utility.yul\":1226:1233   */\n      dup7\n        /* \"#utility.yul\":1217:1223   */\n      dup3\n        /* \"#utility.yul\":1206:1215   */\n      dup8\n        /* \"#utility.yul\":1202:1224   */\n      add\n        /* \"#utility.yul\":1181:1234   */\n      tag_67\n      jump\t// in\n    tag_81:\n        /* \"#utility.yul\":1171:1234   */\n      swap2\n      pop\n        /* \"#utility.yul\":1126:1244   */\n      pop\n        /* \"#utility.yul\":632:1251   */\n      swap3\n      pop\n      swap3\n      pop\n      swap3\n      jump\t// out\n        /* \"#utility.yul\":1257:1731   */\n    tag_20:\n        /* \"#utility.yul\":1325:1331   */\n      0x00\n        /* \"#utility.yul\":1333:1339   */\n      dup1\n        /* \"#utility.yul\":1382:1384   */\n      0x40\n        /* \"#utility.yul\":1370:1379   */\n      dup4\n        /* \"#utility.yul\":1361:1368   */\n      dup6\n        /* \"#utility.yul\":1357:1380   */\n      sub\n        /* \"#utility.yul\":1353:1385   */\n      slt\n        /* \"#utility.yul\":1350:1469   */\n      iszero\n      tag_83\n      jumpi\n        /* \"#utility.yul\":1388:1467   */\n      tag_84\n      tag_74\n      jump\t// in\n    tag_84:\n        /* \"#utility.yul\":1350:1469   */\n    tag_83:\n        /* \"#utility.yul\":1508:1509   */\n      0x00\n        /* \"#utility.yul\":1533:1586   */\n      tag_85\n        /* \"#utility.yul\":1578:1585   */\n      dup6\n        /* \"#utility.yul\":1569:1575   */\n      dup3\n        /* \"#utility.yul\":1558:1567   */\n      dup7\n        /* \"#utility.yul\":1554:1576   */\n      add\n        /* \"#utility.yul\":1533:1586   */\n      tag_63\n      jump\t// in\n    tag_85:\n        /* \"#utility.yul\":1523:1586   */\n      swap3\n      pop\n        /* \"#utility.yul\":1479:1596   */\n      pop\n        /* \"#utility.yul\":1635:1637   */\n      0x20\n        /* \"#utility.yul\":1661:1714   */\n      tag_86\n        /* \"#utility.yul\":1706:1713   */\n      dup6\n        /* \"#utility.yul\":1697:1703   */\n      dup3\n        /* \"#utility.yul\":1686:1695   */\n      dup7\n        /* \"#utility.yul\":1682:1704   */\n      add\n        /* \"#utility.yul\":1661:1714   */\n      tag_67\n      jump\t// in\n    tag_86:\n        /* \"#utility.yul\":1651:1714   */\n      swap2\n      pop\n        /* \"#utility.yul\":1606:1724   */\n      pop\n        /* \"#utility.yul\":1257:1731   */\n      swap3\n      pop\n      swap3\n      swap1\n      pop\n      jump\t// out\n        /* \"#utility.yul\":1737:2211   */\n    tag_42:\n        /* \"#utility.yul\":1805:1811   */\n      0x00\n        /* \"#utility.yul\":1813:1819   */\n      dup1\n        /* \"#utility.yul\":1862:1864   */\n      0x40\n        /* \"#utility.yul\":1850:1859   */\n      dup4\n        /* \"#utility.yul\":1841:1848   */\n      dup6\n        /* \"#utility.yul\":1837:1860   */\n      sub\n        /* \"#utility.yul\":1833:1865   */\n      slt\n        /* \"#utility.yul\":1830:1949   */\n      iszero\n      tag_88\n      jumpi\n        /* \"#utility.yul\":1868:1947   */\n      tag_89\n      tag_74\n      jump\t// in\n    tag_89:\n        /* \"#utility.yul\":1830:1949   */\n    tag_88:\n        /* \"#utility.yul\":1988:1989   */\n      0x00\n        /* \"#utility.yul\":2013:2066   */\n      tag_90\n        /* \"#utility.yul\":2058:2065   */\n      dup6\n        /* \"#utility.yul\":2049:2055   */\n      dup3\n        /* \"#utility.yul\":2038:2047   */\n      dup7\n        /* \"#utility.yul\":2034:2056   */\n      add\n        /* \"#utility.yul\":2013:2066   */\n      tag_67\n      jump\t// in\n    tag_90:\n        /* \"#utility.yul\":2003:2066   */\n      swap3\n      pop\n        /* \"#utility.yul\":1959:2076   */\n      pop\n        /* \"#utility.yul\":2115:2117   */\n      0x20\n        /* \"#utility.yul\":2141:2194   */\n      tag_91\n        /* \"#utility.yul\":2186:2193   */\n      dup6\n        /* \"#utility.yul\":2177:2183   */\n      dup3\n        /* \"#utility.yul\":2166:2175   */\n      dup7\n        /* \"#utility.yul\":2162:2184   */\n      add\n        /* \"#utility.yul\":2141:2194   */\n      tag_63\n      jump\t// in\n    tag_91:\n        /* \"#utility.yul\":2131:2194   */\n      swap2\n      pop\n        /* \"#utility.yul\":2086:2204   */\n      pop\n        /* \"#utility.yul\":1737:2211   */\n      swap3\n      pop\n      swap3\n      swap1\n      pop\n      jump\t// out\n        /* \"#utility.yul\":2217:2583   */\n    tag_92:\n        /* \"#utility.yul\":2359:2362   */\n      0x00\n        /* \"#utility.yul\":2380:2447   */\n      tag_94\n        /* \"#utility.yul\":2444:2446   */\n      0x1d\n        /* \"#utility.yul\":2439:2442   */\n      dup4\n        /* \"#utility.yul\":2380:2447   */\n      tag_95\n      jump\t// in\n    tag_94:\n        /* \"#utility.yul\":2373:2447   */\n      swap2\n      pop\n        /* \"#utility.yul\":2456:2549   */\n      tag_96\n        /* \"#utility.yul\":2545:2548   */\n      dup3\n        /* \"#utility.yul\":2456:2549   */\n      tag_97\n      jump\t// in\n    tag_96:\n        /* \"#utility.yul\":2574:2576   */\n      0x20\n        /* \"#utility.yul\":2569:2572   */\n      dup3\n        /* \"#utility.yul\":2565:2577   */\n      add\n        /* \"#utility.yul\":2558:2577   */\n      swap1\n      pop\n        /* \"#utility.yul\":2217:2583   */\n      swap2\n      swap1\n      pop\n      jump\t// out\n        /* \"#utility.yul\":2589:2955   */\n    tag_98:\n        /* \"#utility.yul\":2731:2734   */\n      0x00\n        /* \"#utility.yul\":2752:2819   */\n      tag_100\n        /* \"#utility.yul\":2816:2818   */\n      0x0b\n        /* \"#utility.yul\":2811:2814   */\n      dup4\n        /* \"#utility.yul\":2752:2819   */\n      tag_95\n      jump\t// in\n    tag_100:\n        /* \"#utility.yul\":2745:2819   */\n      swap2\n      pop\n        /* \"#utility.yul\":2828:2921   */\n      tag_101\n        /* \"#utility.yul\":2917:2920   */\n      dup3\n        /* \"#utility.yul\":2828:2921   */\n      tag_102\n      jump\t// in\n    tag_101:\n        /* \"#utility.yul\":2946:2948   */\n      0x20\n        /* \"#utility.yul\":2941:2944   */\n      dup3\n        /* \"#utility.yul\":2937:2949   */\n      add\n        /* \"#utility.yul\":2930:2949   */\n      swap1\n      pop\n        /* \"#utility.yul\":2589:2955   */\n      swap2\n      swap1\n      pop\n      jump\t// out\n        /* \"#utility.yul\":2961:3079   */\n    tag_103:\n        /* \"#utility.yul\":3048:3072   */\n      tag_105\n        /* \"#utility.yul\":3066:3071   */\n      dup2\n        /* \"#utility.yul\":3048:3072   */\n      tag_106\n      jump\t// in\n    tag_105:\n        /* \"#utility.yul\":3043:3046   */\n      dup3\n        /* \"#utility.yul\":3036:3073   */\n      mstore\n        /* \"#utility.yul\":2961:3079   */\n      pop\n      pop\n      jump\t// out\n        /* \"#utility.yul\":3085:3504   */\n    tag_52:\n        /* \"#utility.yul\":3251:3255   */\n      0x00\n        /* \"#utility.yul\":3289:3291   */\n      0x20\n        /* \"#utility.yul\":3278:3287   */\n      dup3\n        /* \"#utility.yul\":3274:3292   */\n      add\n        /* \"#utility.yul\":3266:3292   */\n      swap1\n      pop\n        /* \"#utility.yul\":3338:3347   */\n      dup2\n        /* \"#utility.yul\":3332:3336   */\n      dup2\n        /* \"#utility.yul\":3328:3348   */\n      sub\n        /* \"#utility.yul\":3324:3325   */\n      0x00\n        /* \"#utility.yul\":3313:3322   */\n      dup4\n        /* \"#utility.yul\":3309:3326   */\n      add\n        /* \"#utility.yul\":3302:3349   */\n      mstore\n        /* \"#utility.yul\":3366:3497   */\n      tag_108\n        /* \"#utility.yul\":3492:3496   */\n      dup2\n        /* \"#utility.yul\":3366:3497   */\n      tag_92\n      jump\t// in\n    tag_108:\n        /* \"#utility.yul\":3358:3497   */\n      swap1\n      pop\n        /* \"#utility.yul\":3085:3504   */\n      swap2\n      swap1\n      pop\n      jump\t// out\n        /* \"#utility.yul\":3510:3929   */\n    tag_49:\n        /* \"#utility.yul\":3676:3680   */\n      0x00\n        /* \"#utility.yul\":3714:3716   */\n      0x20\n        /* \"#utility.yul\":3703:3712   */\n      dup3\n        /* \"#utility.yul\":3699:3717   */\n      add\n        /* \"#utility.yul\":3691:3717   */\n      swap1\n      pop\n        /* \"#utility.yul\":3763:3772   */\n      dup2\n        /* \"#utility.yul\":3757:3761   */\n      dup2\n        /* \"#utility.yul\":3753:3773   */\n      sub\n        /* \"#utility.yul\":3749:3750   */\n      0x00\n        /* \"#utility.yul\":3738:3747   */\n      dup4\n        /* \"#utility.yul\":3734:3751   */\n      add\n        /* \"#utility.yul\":3727:3774   */\n      mstore\n        /* \"#utility.yul\":3791:3922   */\n      tag_110\n        /* \"#utility.yul\":3917:3921   */\n      dup2\n        /* \"#utility.yul\":3791:3922   */\n      tag_98\n      jump\t// in\n    tag_110:\n        /* \"#utility.yul\":3783:3922   */\n      swap1\n      pop\n        /* \"#utility.yul\":3510:3929   */\n      swap2\n      swap1\n      pop\n      jump\t// out\n        /* \"#utility.yul\":3935:4157   */\n    tag_17:\n        /* \"#utility.yul\":4028:4032   */\n      0x00\n        /* \"#utility.yul\":4066:4068   */\n      0x20\n        /* \"#utility.yul\":4055:4064   */\n      dup3\n        /* \"#utility.yul\":4051:4069   */\n      add\n        /* \"#utility.yul\":4043:4069   */\n      swap1\n      pop\n        /* \"#utility.yul\":4079:4150   */\n      tag_112\n        /* \"#utility.yul\":4147:4148   */\n      0x00\n        /* \"#utility.yul\":4136:4145   */\n      dup4\n        /* \"#utility.yul\":4132:4149   */\n      add\n        /* \"#utility.yul\":4123:4129   */\n      dup5\n        /* \"#utility.yul\":4079:4150   */\n      tag_103\n      jump\t// in\n    tag_112:\n        /* \"#utility.yul\":3935:4157   */\n      swap3\n      swap2\n      pop\n      pop\n      jump\t// out\n        /* \"#utility.yul\":4244:4413   */\n    tag_95:\n        /* \"#utility.yul\":4328:4339   */\n      0x00\n        /* \"#utility.yul\":4362:4368   */\n      dup3\n        /* \"#utility.yul\":4357:4360   */\n      dup3\n        /* \"#utility.yul\":4350:4369   */\n      mstore\n        /* \"#utility.yul\":4402:4406   */\n      0x20\n        /* \"#utility.yul\":4397:4400   */\n      dup3\n        /* \"#utility.yul\":4393:4407   */\n      add\n        /* \"#utility.yul\":4378:4407   */\n      swap1\n      pop\n        /* \"#utility.yul\":4244:4413   */\n      swap3\n      swap2\n      pop\n      pop\n      jump\t// out\n        /* \"#utility.yul\":4419:4724   */\n    tag_56:\n        /* \"#utility.yul\":4459:4462   */\n      0x00\n        /* \"#utility.yul\":4478:4498   */\n      tag_117\n        /* \"#utility.yul\":4496:4497   */\n      dup3\n        /* \"#utility.yul\":4478:4498   */\n      tag_106\n      jump\t// in\n    tag_117:\n        /* \"#utility.yul\":4473:4498   */\n      swap2\n      pop\n        /* \"#utility.yul\":4512:4532   */\n      tag_118\n        /* \"#utility.yul\":4530:4531   */\n      dup4\n        /* \"#utility.yul\":4512:4532   */\n      tag_106\n      jump\t// in\n    tag_118:\n        /* \"#utility.yul\":4507:4532   */\n      swap3\n      pop\n        /* \"#utility.yul\":4666:4667   */\n      dup3\n        /* \"#utility.yul\":4598:4664   */\n      0xffffffffffffffffffffffffffffffffffffffffffffffffffffffffffffffff\n        /* \"#utility.yul\":4594:4668   */\n      sub\n        /* \"#utility.yul\":4591:4592   */\n      dup3\n        /* \"#utility.yul\":4588:4669   */\n      gt\n        /* \"#utility.yul\":4585:4692   */\n      iszero\n      tag_119\n      jumpi\n        /* \"#utility.yul\":4672:4690   */\n      tag_120\n      tag_121\n      jump\t// in\n    tag_120:\n        /* \"#utility.yul\":4585:4692   */\n    tag_119:\n        /* \"#utility.yul\":4716:4717   */\n      dup3\n        /* \"#utility.yul\":4713:4714   */\n      dup3\n        /* \"#utility.yul\":4709:4718   */\n      add\n        /* \"#utility.yul\":4702:4718   */\n      swap1\n      pop\n        /* \"#utility.yul\":4419:4724   */\n      swap3\n      swap2\n      pop\n      pop\n      jump\t// out\n        /* \"#utility.yul\":4730:4921   */\n    tag_54:\n        /* \"#utility.yul\":4770:4774   */\n      0x00\n        /* \"#utility.yul\":4790:4810   */\n      tag_123\n        /* \"#utility.yul\":4808:4809   */\n      dup3\n        /* \"#utility.yul\":4790:4810   */\n      tag_106\n      jump\t// in\n    tag_123:\n        /* \"#utility.yul\":4785:4810   */\n      swap2\n      pop\n        /* \"#utility.yul\":4824:4844   */\n      tag_124\n        /* \"#utility.yul\":4842:4843   */\n      dup4\n        /* \"#utility.yul\":4824:4844   */\n      tag_106\n      jump\t// in\n    tag_124:\n        /* \"#utility.yul\":4819:4844   */\n      swap3\n      pop\n        /* \"#utility.yul\":4863:4864   */\n      dup3\n        /* \"#utility.yul\":4860:4861   */\n      dup3\n        /* \"#utility.yul\":4857:4865   */\n      lt\n        /* \"#utility.yul\":4854:4888   */\n      iszero\n      tag_125\n      jumpi\n        /* \"#utility.yul\":4868:4886   */\n      tag_126\n      tag_121\n      jump\t// in\n    tag_126:\n        /* \"#utility.yul\":4854:4888   */\n    tag_125:\n        /* \"#utility.yul\":4913:4914   */\n      dup3\n        /* \"#utility.yul\":4910:4911   */\n      dup3\n        /* \"#utility.yul\":4906:4915   */\n      sub\n        /* \"#utility.yul\":4898:4915   */\n      swap1\n      pop\n        /* \"#utility.yul\":4730:4921   */\n      swap3\n      swap2\n      pop\n      pop\n      jump\t// out\n        /* \"#utility.yul\":4927:5023   */\n    tag_127:\n        /* \"#utility.yul\":4964:4971   */\n      0x00\n        /* \"#utility.yul\":4993:5017   */\n      tag_129\n        /* \"#utility.yul\":5011:5016   */\n      dup3\n        /* \"#utility.yul\":4993:5017   */\n      tag_130\n      jump\t// in\n    tag_129:\n        /* \"#utility.yul\":4982:5017   */\n      swap1\n      pop\n        /* \"#utility.yul\":4927:5023   */\n      swap2\n      swap1\n      pop\n      jump\t// out\n        /* \"#utility.yul\":5029:5155   */\n    tag_130:\n        /* \"#utility.yul\":5066:5073   */\n      0x00\n        /* \"#utility.yul\":5106:5148   */\n      0xffffffffffffffffffffffffffffffffffffffff\n        /* \"#utility.yul\":5099:5104   */\n      dup3\n        /* \"#utility.yul\":5095:5149   */\n      and\n        /* \"#utility.yul\":5084:5149   */\n      swap1\n      pop\n        /* \"#utility.yul\":5029:5155   */\n      swap2\n      swap1\n      pop\n      jump\t// out\n        /* \"#utility.yul\":5161:5238   */\n    tag_106:\n        /* \"#utility.yul\":5198:5205   */\n      0x00\n        /* \"#utility.yul\":5227:5232   */\n      dup2\n        /* \"#utility.yul\":5216:5232   */\n      swap1\n      pop\n        /* \"#utility.yul\":5161:5238   */\n      swap2\n      swap1\n      pop\n      jump\t// out\n        /* \"#utility.yul\":5244:5424   */\n    tag_121:\n        /* \"#utility.yul\":5292:5369   */\n      0x4e487b7100000000000000000000000000000000000000000000000000000000\n        /* \"#utility.yul\":5289:5290   */\n      0x00\n        /* \"#utility.yul\":5282:5370   */\n      mstore\n        /* \"#utility.yul\":5389:5393   */\n      0x11\n        /* \"#utility.yul\":5386:5387   */\n      0x04\n        /* \"#utility.yul\":5379:5394   */\n      mstore\n        /* \"#utility.yul\":5413:5417   */\n      0x24\n        /* \"#utility.yul\":5410:5411   */\n      0x00\n        /* \"#utility.yul\":5403:5418   */\n      revert\n        /* \"#utility.yul\":5553:5670   */\n    tag_74:\n        /* \"#utility.yul\":5662:5663   */\n      0x00\n        /* \"#utility.yul\":5659:5660   */\n      dup1\n        /* \"#utility.yul\":5652:5664   */\n      revert\n        /* \"#utility.yul\":5676:5855   */\n    tag_97:\n        /* \"#utility.yul\":5816:5847   */\n      0x616d6f756e74206d757374206265206c657373207468616e2066726f6d000000\n        /* \"#utility.yul\":5812:5813   */\n      0x00\n        /* \"#utility.yul\":5804:5810   */\n      dup3\n        /* \"#utility.yul\":5800:5814   */\n      add\n        /* \"#utility.yul\":5793:5848   */\n      mstore\n        /* \"#utility.yul\":5676:5855   */\n      pop\n      jump\t// out\n        /* \"#utility.yul\":5861:6022   */\n    tag_102:\n        /* \"#utility.yul\":6001:6014   */\n      0x6e6f7420416c6c6f776564000000000000000000000000000000000000000000\n        /* \"#utility.yul\":5997:5998   */\n      0x00\n        /* \"#utility.yul\":5989:5995   */\n      dup3\n        /* \"#utility.yul\":5985:5999   */\n      add\n        /* \"#utility.yul\":5978:6015   */\n      mstore\n        /* \"#utility.yul\":5861:6022   */\n      pop\n      jump\t// out\n        /* \"#utility.yul\":6028:6150   */\n    tag_66:\n        /* \"#utility.yul\":6101:6125   */\n      tag_140\n        /* \"#utility.yul\":6119:6124   */\n      dup2\n        /* \"#utility.yul\":6101:6125   */\n      tag_127\n      jump\t// in\n    tag_140:\n        /* \"#utility.yul\":6094:6099   */\n      dup2\n        /* \"#utility.yul\":6091:6126   */\n      eq\n        /* \"#utility.yul\":6081:6144   */\n      tag_141\n      jumpi\n        /* \"#utility.yul\":6140:6141   */\n      0x00\n        /* \"#utility.yul\":6137:6138   */\n      dup1\n        /* \"#utility.yul\":6130:6142   */\n      revert\n        /* \"#utility.yul\":6081:6144   */\n    tag_141:\n        /* \"#utility.yul\":6028:6150   */\n      pop\n      jump\t// out\n        /* \"#utility.yul\":6156:6278   */\n    tag_70:\n        /* \"#utility.yul\":6229:6253   */\n      tag_143\n        /* \"#utility.yul\":6247:6252   */\n      dup2\n        /* \"#utility.yul\":6229:6253   */\n      tag_106\n      jump\t// in\n    tag_143:\n        /* \"#utility.yul\":6222:6227   */\n      dup2\n        /* \"#utility.yul\":6219:6254   */\n      eq\n        /* \"#utility.yul\":6209:6272   */\n      tag_144\n      jumpi\n        /* \"#utility.yul\":6268:6269   */\n      0x00\n        /* \"#utility.yul\":6265:6266   */\n      dup1\n        /* \"#utility.yul\":6258:6270   */\n      revert\n        /* \"#utility.yul\":6209:6272   */\n    tag_144:\n        /* \"#utility.yul\":6156:6278   */\n      pop\n      jump\t// out\n\n    auxdata: 0xa26469706673582212204e71408203ff62a7b493c3d46325b0f453e936b2b95240c144a1ea6b20dcffc464736f6c63430008070033\n}\n",
				"bytecode": {
					"linkReferences": {},
					"object": "608060405234801561001057600080fd5b5061002d336b033b2e3c9fd0803ce800000061004560201b60201c565b6b033b2e3c9fd0803ce800000060028190555061008c565b806000808473ffffffffffffffffffffffffffffffffffffffff1673ffffffffffffffffffffffffffffffffffffffff168152602001908152602001600020819055505050565b6108b68061009b6000396000f3fe608060405234801561001057600080fd5b50600436106100885760003560e01c8063a9059cbb1161005b578063a9059cbb14610113578063aef462441461012f578063e3d670d71461015f578063febe49091461018f57610088565b80633d64125b1461008d5780634e6ec247146100bd57806363b0545f146100d957806372dd529b146100f5575b600080fd5b6100a760048036038101906100a29190610545565b6101ab565b6040516100b491906106da565b60405180910390f35b6100d760048036038101906100d291906105c5565b6101f3565b005b6100f360048036038101906100ee9190610572565b61023a565b005b6100fd6103eb565b60405161010a91906106da565b60405180910390f35b61012d600480360381019061012891906105c5565b6103f5565b005b61014960048036038101906101449190610545565b610491565b60405161015691906106da565b60405180910390f35b61017960048036038101906101749190610545565b6104a9565b60405161018691906106da565b60405180910390f35b6101a960048036038101906101a49190610605565b6104c1565b005b60008060008373ffffffffffffffffffffffffffffffffffffffff1673ffffffffffffffffffffffffffffffffffffffff168152602001908152602001600020549050919050565b806000808473ffffffffffffffffffffffffffffffffffffffff1673ffffffffffffffffffffffffffffffffffffffff168152602001908152602001600020819055505050565b600160008473ffffffffffffffffffffffffffffffffffffffff1673ffffffffffffffffffffffffffffffffffffffff1681526020019081526020016000205481106102bb576040517f08c379a00000000000000000000000000000000000000000000000000000000081526004016102b2906106ba565b60405180910390fd5b6000808473ffffffffffffffffffffffffffffffffffffffff1673ffffffffffffffffffffffffffffffffffffffff1681526020019081526020016000205481111561033c576040517f08c379a00000000000000000000000000000000000000000000000000000000081526004016103339061069a565b60405180910390fd5b806000808573ffffffffffffffffffffffffffffffffffffffff1673ffffffffffffffffffffffffffffffffffffffff168152602001908152602001600020600082825461038a919061075c565b92505081905550806000808473ffffffffffffffffffffffffffffffffffffffff1673ffffffffffffffffffffffffffffffffffffffff16815260200190815260200160002060008282546103df9190610706565b92505081905550505050565b6000600254905090565b806000803373ffffffffffffffffffffffffffffffffffffffff1673ffffffffffffffffffffffffffffffffffffffff16815260200190815260200160002081905550806000808473ffffffffffffffffffffffffffffffffffffffff1673ffffffffffffffffffffffffffffffffffffffff16815260200190815260200160002060008282546104869190610706565b925050819055505050565b60016020528060005260406000206000915090505481565b60006020528060005260406000206000915090505481565b81600160008373ffffffffffffffffffffffffffffffffffffffff1673ffffffffffffffffffffffffffffffffffffffff16815260200190815260200160002060008282546105109190610706565b925050819055505050565b60008135905061052a81610852565b92915050565b60008135905061053f81610869565b92915050565b60006020828403121561055b5761055a6107fb565b5b60006105698482850161051b565b91505092915050565b60008060006060848603121561058b5761058a6107fb565b5b60006105998682870161051b565b93505060206105aa8682870161051b565b92505060406105bb86828701610530565b9150509250925092565b600080604083850312156105dc576105db6107fb565b5b60006105ea8582860161051b565b92505060206105fb85828601610530565b9150509250929050565b6000806040838503121561061c5761061b6107fb565b5b600061062a85828601610530565b925050602061063b8582860161051b565b9150509250929050565b6000610652601d836106f5565b915061065d82610800565b602082019050919050565b6000610675600b836106f5565b915061068082610829565b602082019050919050565b610694816107c2565b82525050565b600060208201905081810360008301526106b381610645565b9050919050565b600060208201905081810360008301526106d381610668565b9050919050565b60006020820190506106ef600083018461068b565b92915050565b600082825260208201905092915050565b6000610711826107c2565b915061071c836107c2565b9250827fffffffffffffffffffffffffffffffffffffffffffffffffffffffffffffffff03821115610751576107506107cc565b5b828201905092915050565b6000610767826107c2565b9150610772836107c2565b925082821015610785576107846107cc565b5b828203905092915050565b600061079b826107a2565b9050919050565b600073ffffffffffffffffffffffffffffffffffffffff82169050919050565b6000819050919050565b7f4e487b7100000000000000000000000000000000000000000000000000000000600052601160045260246000fd5b600080fd5b7f616d6f756e74206d757374206265206c657373207468616e2066726f6d000000600082015250565b7f6e6f7420416c6c6f776564000000000000000000000000000000000000000000600082015250565b61085b81610790565b811461086657600080fd5b50565b610872816107c2565b811461087d57600080fd5b5056fea26469706673582212204e71408203ff62a7b493c3d46325b0f453e936b2b95240c144a1ea6b20dcffc464736f6c63430008070033",
					"opcodes": "PUSH1 0x80 PUSH1 0x40 MSTORE CALLVALUE DUP1 ISZERO PUSH2 0x10 JUMPI PUSH1 0x0 DUP1 REVERT JUMPDEST POP PUSH2 0x2D CALLER PUSH12 0x33B2E3C9FD0803CE8000000 PUSH2 0x45 PUSH1 0x20 SHL PUSH1 0x20 SHR JUMP JUMPDEST PUSH12 0x33B2E3C9FD0803CE8000000 PUSH1 0x2 DUP2 SWAP1 SSTORE POP PUSH2 0x8C JUMP JUMPDEST DUP1 PUSH1 0x0 DUP1 DUP5 PUSH20 0xFFFFFFFFFFFFFFFFFFFFFFFFFFFFFFFFFFFFFFFF AND PUSH20 0xFFFFFFFFFFFFFFFFFFFFFFFFFFFFFFFFFFFFFFFF AND DUP2 MSTORE PUSH1 0x20 ADD SWAP1 DUP2 MSTORE PUSH1 0x20 ADD PUSH1 0x0 KECCAK256 DUP2 SWAP1 SSTORE POP POP POP JUMP JUMPDEST PUSH2 0x8B6 DUP1 PUSH2 0x9B PUSH1 0x0 CODECOPY PUSH1 0x0 RETURN INVALID PUSH1 0x80 PUSH1 0x40 MSTORE CALLVALUE DUP1 ISZERO PUSH2 0x10 JUMPI PUSH1 0x0 DUP1 REVERT JUMPDEST POP PUSH1 0x4 CALLDATASIZE LT PUSH2 0x88 JUMPI PUSH1 0x0 CALLDATALOAD PUSH1 0xE0 SHR DUP1 PUSH4 0xA9059CBB GT PUSH2 0x5B JUMPI DUP1 PUSH4 0xA9059CBB EQ PUSH2 0x113 JUMPI DUP1 PUSH4 0xAEF46244 EQ PUSH2 0x12F JUMPI DUP1 PUSH4 0xE3D670D7 EQ PUSH2 0x15F JUMPI DUP1 PUSH4 0xFEBE4909 EQ PUSH2 0x18F JUMPI PUSH2 0x88 JUMP JUMPDEST DUP1 PUSH4 0x3D64125B EQ PUSH2 0x8D JUMPI DUP1 PUSH4 0x4E6EC247 EQ PUSH2 0xBD JUMPI DUP1 PUSH4 0x63B0545F EQ PUSH2 0xD9 JUMPI DUP1 PUSH4 0x72DD529B EQ PUSH2 0xF5 JUMPI JUMPDEST PUSH1 0x0 DUP1 REVERT JUMPDEST PUSH2 0xA7 PUSH1 0x4 DUP1 CALLDATASIZE SUB DUP2 ADD SWAP1 PUSH2 0xA2 SWAP2 SWAP1 PUSH2 0x545 JUMP JUMPDEST PUSH2 0x1AB JUMP JUMPDEST PUSH1 0x40 MLOAD PUSH2 0xB4 SWAP2 SWAP1 PUSH2 0x6DA JUMP JUMPDEST PUSH1 0x40 MLOAD DUP1 SWAP2 SUB SWAP1 RETURN JUMPDEST PUSH2 0xD7 PUSH1 0x4 DUP1 CALLDATASIZE SUB DUP2 ADD SWAP1 PUSH2 0xD2 SWAP2 SWAP1 PUSH2 0x5C5 JUMP JUMPDEST PUSH2 0x1F3 JUMP JUMPDEST STOP JUMPDEST PUSH2 0xF3 PUSH1 0x4 DUP1 CALLDATASIZE SUB DUP2 ADD SWAP1 PUSH2 0xEE SWAP2 SWAP1 PUSH2 0x572 JUMP JUMPDEST PUSH2 0x23A JUMP JUMPDEST STOP JUMPDEST PUSH2 0xFD PUSH2 0x3EB JUMP JUMPDEST PUSH1 0x40 MLOAD PUSH2 0x10A SWAP2 SWAP1 PUSH2 0x6DA JUMP JUMPDEST PUSH1 0x40 MLOAD DUP1 SWAP2 SUB SWAP1 RETURN JUMPDEST PUSH2 0x12D PUSH1 0x4 DUP1 CALLDATASIZE SUB DUP2 ADD SWAP1 PUSH2 0x128 SWAP2 SWAP1 PUSH2 0x5C5 JUMP JUMPDEST PUSH2 0x3F5 JUMP JUMPDEST STOP JUMPDEST PUSH2 0x149 PUSH1 0x4 DUP1 CALLDATASIZE SUB DUP2 ADD SWAP1 PUSH2 0x144 SWAP2 SWAP1 PUSH2 0x545 JUMP JUMPDEST PUSH2 0x491 JUMP JUMPDEST PUSH1 0x40 MLOAD PUSH2 0x156 SWAP2 SWAP1 PUSH2 0x6DA JUMP JUMPDEST PUSH1 0x40 MLOAD DUP1 SWAP2 SUB SWAP1 RETURN JUMPDEST PUSH2 0x179 PUSH1 0x4 DUP1 CALLDATASIZE SUB DUP2 ADD SWAP1 PUSH2 0x174 SWAP2 SWAP1 PUSH2 0x545 JUMP JUMPDEST PUSH2 0x4A9 JUMP JUMPDEST PUSH1 0x40 MLOAD PUSH2 0x186 SWAP2 SWAP1 PUSH2 0x6DA JUMP JUMPDEST PUSH1 0x40 MLOAD DUP1 SWAP2 SUB SWAP1 RETURN JUMPDEST PUSH2 0x1A9 PUSH1 0x4 DUP1 CALLDATASIZE SUB DUP2 ADD SWAP1 PUSH2 0x1A4 SWAP2 SWAP1 PUSH2 0x605 JUMP JUMPDEST PUSH2 0x4C1 JUMP JUMPDEST STOP JUMPDEST PUSH1 0x0 DUP1 PUSH1 0x0 DUP4 PUSH20 0xFFFFFFFFFFFFFFFFFFFFFFFFFFFFFFFFFFFFFFFF AND PUSH20 0xFFFFFFFFFFFFFFFFFFFFFFFFFFFFFFFFFFFFFFFF AND DUP2 MSTORE PUSH1 0x20 ADD SWAP1 DUP2 MSTORE PUSH1 0x20 ADD PUSH1 0x0 KECCAK256 SLOAD SWAP1 POP SWAP2 SWAP1 POP JUMP JUMPDEST DUP1 PUSH1 0x0 DUP1 DUP5 PUSH20 0xFFFFFFFFFFFFFFFFFFFFFFFFFFFFFFFFFFFFFFFF AND PUSH20 0xFFFFFFFFFFFFFFFFFFFFFFFFFFFFFFFFFFFFFFFF AND DUP2 MSTORE PUSH1 0x20 ADD SWAP1 DUP2 MSTORE PUSH1 0x20 ADD PUSH1 0x0 KECCAK256 DUP2 SWAP1 SSTORE POP POP POP JUMP JUMPDEST PUSH1 0x1 PUSH1 0x0 DUP5 PUSH20 0xFFFFFFFFFFFFFFFFFFFFFFFFFFFFFFFFFFFFFFFF AND PUSH20 0xFFFFFFFFFFFFFFFFFFFFFFFFFFFFFFFFFFFFFFFF AND DUP2 MSTORE PUSH1 0x20 ADD SWAP1 DUP2 MSTORE PUSH1 0x20 ADD PUSH1 0x0 KECCAK256 SLOAD DUP2 LT PUSH2 0x2BB JUMPI PUSH1 0x40 MLOAD PUSH32 0x8C379A000000000000000000000000000000000000000000000000000000000 DUP2 MSTORE PUSH1 0x4 ADD PUSH2 0x2B2 SWAP1 PUSH2 0x6BA JUMP JUMPDEST PUSH1 0x40 MLOAD DUP1 SWAP2 SUB SWAP1 REVERT JUMPDEST PUSH1 0x0 DUP1 DUP5 PUSH20 0xFFFFFFFFFFFFFFFFFFFFFFFFFFFFFFFFFFFFFFFF AND PUSH20 0xFFFFFFFFFFFFFFFFFFFFFFFFFFFFFFFFFFFFFFFF AND DUP2 MSTORE PUSH1 0x20 ADD SWAP1 DUP2 MSTORE PUSH1 0x20 ADD PUSH1 0x0 KECCAK256 SLOAD DUP2 GT ISZERO PUSH2 0x33C JUMPI PUSH1 0x40 MLOAD PUSH32 0x8C379A000000000000000000000000000000000000000000000000000000000 DUP2 MSTORE PUSH1 0x4 ADD PUSH2 0x333 SWAP1 PUSH2 0x69A JUMP JUMPDEST PUSH1 0x40 MLOAD DUP1 SWAP2 SUB SWAP1 REVERT JUMPDEST DUP1 PUSH1 0x0 DUP1 DUP6 PUSH20 0xFFFFFFFFFFFFFFFFFFFFFFFFFFFFFFFFFFFFFFFF AND PUSH20 0xFFFFFFFFFFFFFFFFFFFFFFFFFFFFFFFFFFFFFFFF AND DUP2 MSTORE PUSH1 0x20 ADD SWAP1 DUP2 MSTORE PUSH1 0x20 ADD PUSH1 0x0 KECCAK256 PUSH1 0x0 DUP3 DUP3 SLOAD PUSH2 0x38A SWAP2 SWAP1 PUSH2 0x75C JUMP JUMPDEST SWAP3 POP POP DUP2 SWAP1 SSTORE POP DUP1 PUSH1 0x0 DUP1 DUP5 PUSH20 0xFFFFFFFFFFFFFFFFFFFFFFFFFFFFFFFFFFFFFFFF AND PUSH20 0xFFFFFFFFFFFFFFFFFFFFFFFFFFFFFFFFFFFFFFFF AND DUP2 MSTORE PUSH1 0x20 ADD SWAP1 DUP2 MSTORE PUSH1 0x20 ADD PUSH1 0x0 KECCAK256 PUSH1 0x0 DUP3 DUP3 SLOAD PUSH2 0x3DF SWAP2 SWAP1 PUSH2 0x706 JUMP JUMPDEST SWAP3 POP POP DUP2 SWAP1 SSTORE POP POP POP POP JUMP JUMPDEST PUSH1 0x0 PUSH1 0x2 SLOAD SWAP1 POP SWAP1 JUMP JUMPDEST DUP1 PUSH1 0x0 DUP1 CALLER PUSH20 0xFFFFFFFFFFFFFFFFFFFFFFFFFFFFFFFFFFFFFFFF AND PUSH20 0xFFFFFFFFFFFFFFFFFFFFFFFFFFFFFFFFFFFFFFFF AND DUP2 MSTORE PUSH1 0x20 ADD SWAP1 DUP2 MSTORE PUSH1 0x20 ADD PUSH1 0x0 KECCAK256 DUP2 SWAP1 SSTORE POP DUP1 PUSH1 0x0 DUP1 DUP5 PUSH20 0xFFFFFFFFFFFFFFFFFFFFFFFFFFFFFFFFFFFFFFFF AND PUSH20 0xFFFFFFFFFFFFFFFFFFFFFFFFFFFFFFFFFFFFFFFF AND DUP2 MSTORE PUSH1 0x20 ADD SWAP1 DUP2 MSTORE PUSH1 0x20 ADD PUSH1 0x0 KECCAK256 PUSH1 0x0 DUP3 DUP3 SLOAD PUSH2 0x486 SWAP2 SWAP1 PUSH2 0x706 JUMP JUMPDEST SWAP3 POP POP DUP2 SWAP1 SSTORE POP POP POP JUMP JUMPDEST PUSH1 0x1 PUSH1 0x20 MSTORE DUP1 PUSH1 0x0 MSTORE PUSH1 0x40 PUSH1 0x0 KECCAK256 PUSH1 0x0 SWAP2 POP SWAP1 POP SLOAD DUP2 JUMP JUMPDEST PUSH1 0x0 PUSH1 0x20 MSTORE DUP1 PUSH1 0x0 MSTORE PUSH1 0x40 PUSH1 0x0 KECCAK256 PUSH1 0x0 SWAP2 POP SWAP1 POP SLOAD DUP2 JUMP JUMPDEST DUP2 PUSH1 0x1 PUSH1 0x0 DUP4 PUSH20 0xFFFFFFFFFFFFFFFFFFFFFFFFFFFFFFFFFFFFFFFF AND PUSH20 0xFFFFFFFFFFFFFFFFFFFFFFFFFFFFFFFFFFFFFFFF AND DUP2 MSTORE PUSH1 0x20 ADD SWAP1 DUP2 MSTORE PUSH1 0x20 ADD PUSH1 0x0 KECCAK256 PUSH1 0x0 DUP3 DUP3 SLOAD PUSH2 0x510 SWAP2 SWAP1 PUSH2 0x706 JUMP JUMPDEST SWAP3 POP POP DUP2 SWAP1 SSTORE POP POP POP JUMP JUMPDEST PUSH1 0x0 DUP2 CALLDATALOAD SWAP1 POP PUSH2 0x52A DUP2 PUSH2 0x852 JUMP JUMPDEST SWAP3 SWAP2 POP POP JUMP JUMPDEST PUSH1 0x0 DUP2 CALLDATALOAD SWAP1 POP PUSH2 0x53F DUP2 PUSH2 0x869 JUMP JUMPDEST SWAP3 SWAP2 POP POP JUMP JUMPDEST PUSH1 0x0 PUSH1 0x20 DUP3 DUP5 SUB SLT ISZERO PUSH2 0x55B JUMPI PUSH2 0x55A PUSH2 0x7FB JUMP JUMPDEST JUMPDEST PUSH1 0x0 PUSH2 0x569 DUP5 DUP3 DUP6 ADD PUSH2 0x51B JUMP JUMPDEST SWAP2 POP POP SWAP3 SWAP2 POP POP JUMP JUMPDEST PUSH1 0x0 DUP1 PUSH1 0x0 PUSH1 0x60 DUP5 DUP7 SUB SLT ISZERO PUSH2 0x58B JUMPI PUSH2 0x58A PUSH2 0x7FB JUMP JUMPDEST JUMPDEST PUSH1 0x0 PUSH2 0x599 DUP7 DUP3 DUP8 ADD PUSH2 0x51B JUMP JUMPDEST SWAP4 POP POP PUSH1 0x20 PUSH2 0x5AA DUP7 DUP3 DUP8 ADD PUSH2 0x51B JUMP JUMPDEST SWAP3 POP POP PUSH1 0x40 PUSH2 0x5BB DUP7 DUP3 DUP8 ADD PUSH2 0x530 JUMP JUMPDEST SWAP2 POP POP SWAP3 POP SWAP3 POP SWAP3 JUMP JUMPDEST PUSH1 0x0 DUP1 PUSH1 0x40 DUP4 DUP6 SUB SLT ISZERO PUSH2 0x5DC JUMPI PUSH2 0x5DB PUSH2 0x7FB JUMP JUMPDEST JUMPDEST PUSH1 0x0 PUSH2 0x5EA DUP6 DUP3 DUP7 ADD PUSH2 0x51B JUMP JUMPDEST SWAP3 POP POP PUSH1 0x20 PUSH2 0x5FB DUP6 DUP3 DUP7 ADD PUSH2 0x530 JUMP JUMPDEST SWAP2 POP POP SWAP3 POP SWAP3 SWAP1 POP JUMP JUMPDEST PUSH1 0x0 DUP1 PUSH1 0x40 DUP4 DUP6 SUB SLT ISZERO PUSH2 0x61C JUMPI PUSH2 0x61B PUSH2 0x7FB JUMP JUMPDEST JUMPDEST PUSH1 0x0 PUSH2 0x62A DUP6 DUP3 DUP7 ADD PUSH2 0x530 JUMP JUMPDEST SWAP3 POP POP PUSH1 0x20 PUSH2 0x63B DUP6 DUP3 DUP7 ADD PUSH2 0x51B JUMP JUMPDEST SWAP2 POP POP SWAP3 POP SWAP3 SWAP1 POP JUMP JUMPDEST PUSH1 0x0 PUSH2 0x652 PUSH1 0x1D DUP4 PUSH2 0x6F5 JUMP JUMPDEST SWAP2 POP PUSH2 0x65D DUP3 PUSH2 0x800 JUMP JUMPDEST PUSH1 0x20 DUP3 ADD SWAP1 POP SWAP2 SWAP1 POP JUMP JUMPDEST PUSH1 0x0 PUSH2 0x675 PUSH1 0xB DUP4 PUSH2 0x6F5 JUMP JUMPDEST SWAP2 POP PUSH2 0x680 DUP3 PUSH2 0x829 JUMP JUMPDEST PUSH1 0x20 DUP3 ADD SWAP1 POP SWAP2 SWAP1 POP JUMP JUMPDEST PUSH2 0x694 DUP2 PUSH2 0x7C2 JUMP JUMPDEST DUP3 MSTORE POP POP JUMP JUMPDEST PUSH1 0x0 PUSH1 0x20 DUP3 ADD SWAP1 POP DUP2 DUP2 SUB PUSH1 0x0 DUP4 ADD MSTORE PUSH2 0x6B3 DUP2 PUSH2 0x645 JUMP JUMPDEST SWAP1 POP SWAP2 SWAP1 POP JUMP JUMPDEST PUSH1 0x0 PUSH1 0x20 DUP3 ADD SWAP1 POP DUP2 DUP2 SUB PUSH1 0x0 DUP4 ADD MSTORE PUSH2 0x6D3 DUP2 PUSH2 0x668 JUMP JUMPDEST SWAP1 POP SWAP2 SWAP1 POP JUMP JUMPDEST PUSH1 0x0 PUSH1 0x20 DUP3 ADD SWAP1 POP PUSH2 0x6EF PUSH1 0x0 DUP4 ADD DUP5 PUSH2 0x68B JUMP JUMPDEST SWAP3 SWAP2 POP POP JUMP JUMPDEST PUSH1 0x0 DUP3 DUP3 MSTORE PUSH1 0x20 DUP3 ADD SWAP1 POP SWAP3 SWAP2 POP POP JUMP JUMPDEST PUSH1 0x0 PUSH2 0x711 DUP3 PUSH2 0x7C2 JUMP JUMPDEST SWAP2 POP PUSH2 0x71C DUP4 PUSH2 0x7C2 JUMP JUMPDEST SWAP3 POP DUP3 PUSH32 0xFFFFFFFFFFFFFFFFFFFFFFFFFFFFFFFFFFFFFFFFFFFFFFFFFFFFFFFFFFFFFFFF SUB DUP3 GT ISZERO PUSH2 0x751 JUMPI PUSH2 0x750 PUSH2 0x7CC JUMP JUMPDEST JUMPDEST DUP3 DUP3 ADD SWAP1 POP SWAP3 SWAP2 POP POP JUMP JUMPDEST PUSH1 0x0 PUSH2 0x767 DUP3 PUSH2 0x7C2 JUMP JUMPDEST SWAP2 POP PUSH2 0x772 DUP4 PUSH2 0x7C2 JUMP JUMPDEST SWAP3 POP DUP3 DUP3 LT ISZERO PUSH2 0x785 JUMPI PUSH2 0x784 PUSH2 0x7CC JUMP JUMPDEST JUMPDEST DUP3 DUP3 SUB SWAP1 POP SWAP3 SWAP2 POP POP JUMP JUMPDEST PUSH1 0x0 PUSH2 0x79B DUP3 PUSH2 0x7A2 JUMP JUMPDEST SWAP1 POP SWAP2 SWAP1 POP JUMP JUMPDEST PUSH1 0x0 PUSH20 0xFFFFFFFFFFFFFFFFFFFFFFFFFFFFFFFFFFFFFFFF DUP3 AND SWAP1 POP SWAP2 SWAP1 POP JUMP JUMPDEST PUSH1 0x0 DUP2 SWAP1 POP SWAP2 SWAP1 POP JUMP JUMPDEST PUSH32 0x4E487B7100000000000000000000000000000000000000000000000000000000 PUSH1 0x0 MSTORE PUSH1 0x11 PUSH1 0x4 MSTORE PUSH1 0x24 PUSH1 0x0 REVERT JUMPDEST PUSH1 0x0 DUP1 REVERT JUMPDEST PUSH32 0x616D6F756E74206D757374206265206C657373207468616E2066726F6D000000 PUSH1 0x0 DUP3 ADD MSTORE POP JUMP JUMPDEST PUSH32 0x6E6F7420416C6C6F776564000000000000000000000000000000000000000000 PUSH1 0x0 DUP3 ADD MSTORE POP JUMP JUMPDEST PUSH2 0x85B DUP2 PUSH2 0x790 JUMP JUMPDEST DUP2 EQ PUSH2 0x866 JUMPI PUSH1 0x0 DUP1 REVERT JUMPDEST POP JUMP JUMPDEST PUSH2 0x872 DUP2 PUSH2 0x7C2 JUMP JUMPDEST DUP2 EQ PUSH2 0x87D JUMPI PUSH1 0x0 DUP1 REVERT JUMPDEST POP JUMP INVALID LOG2 PUSH5 0x6970667358 0x22 SLT KECCAK256 0x4E PUSH18 0x408203FF62A7B493C3D46325B0F453E936B2 0xB9 MSTORE BLOCKHASH 0xC1 DIFFICULTY LOG1 0xEA PUSH12 0x20DCFFC464736F6C63430008 SMOD STOP CALLER "
				},
				"gasEstimates": {
					"creation": {
						"codeDepositCost": "446000",
						"executionCost": "infinite",
						"totalCost": "infinite"
					},
					"external": {
						"_mint(address,uint256)": "22855",
						"allowence(address)": "2836",
						"approve(uint256,address)": "infinite",
						"balance(address)": "2858",
						"balanceof(address)": "2842",
						"totalsupply()": "2504",
						"transfer(address,uint256)": "infinite",
						"transferfrom(address,address,uint256)": "infinite"
					}
				},
				"methodIdentifiers": {
					"_mint(address,uint256)": "4e6ec247",
					"allowence(address)": "aef46244",
					"approve(uint256,address)": "febe4909",
					"balance(address)": "e3d670d7",
					"balanceof(address)": "3d64125b",
					"totalsupply()": "72dd529b",
					"transfer(address,uint256)": "a9059cbb",
					"transferfrom(address,address,uint256)": "63b0545f"
				}
			},
			"storageLayout": {
				"storage": [
					{
						"astId": 27,
						"contract": "Samples/erc20.sol:example",
						"label": "balance",
						"offset": 0,
						"slot": "0",
						"type": "t_mapping(t_address,t_uint256)"
					},
					{
						"astId": 31,
						"contract": "Samples/erc20.sol:example",
						"label": "allowence",
						"offset": 0,
						"slot": "1",
						"type": "t_mapping(t_address,t_uint256)"
					},
					{
						"astId": 33,
						"contract": "Samples/erc20.sol:example",
						"label": "total_supply",
						"offset": 0,
						"slot": "2",
						"type": "t_uint256"
					}
				],
				"types": {
					"t_address": {
						"encoding": "inplace",
						"label": "address",
						"numberOfBytes": "20"
					},
					"t_mapping(t_address,t_uint256)": {
						"encoding": "mapping",
						"key": "t_address",
						"label": "mapping(address => uint256)",
						"numberOfBytes": "32",
						"value": "t_uint256"
					},
					"t_uint256": {
						"encoding": "inplace",
						"label": "uint256",
						"numberOfBytes": "32"
					}
				}
			},
			"userdoc": {
				"kind": "user",
				"methods": {},
				"version": 1
			}
		}
	}
}