{
	"Samples/payable.sol": {
		"bankingsystem": {
			"abi": [
				{
					"inputs": [],
					"stateMutability": "payable",
					"type": "constructor"
				},
				{
					"inputs": [],
					"name": "Owner",
					"outputs": [
						{
							"internalType": "address payable",
							"name": "",
							"type": "address"
						}
					],
					"stateMutability": "view",
					"type": "function"
				},
				{
					"inputs": [],
					"name": "deposit",
					"outputs": [],
					"stateMutability": "payable",
					"type": "function"
				},
				{
					"inputs": [
						{
							"internalType": "address payable",
							"name": "_to",
							"type": "address"
						},
						{
							"internalType": "uint256",
							"name": "_amount",
							"type": "uint256"
						}
					],
					"name": "transfer",
					"outputs": [],
					"stateMutability": "nonpayable",
					"type": "function"
				},
				{
					"inputs": [],
					"name": "withdraw",
					"outputs": [],
					"stateMutability": "nonpayable",
					"type": "function"
				}
			],
			"devdoc": {
				"kind": "dev",
				"methods": {},
				"version": 1
			},
			"evm": {
				"assembly": "    /* \"Samples/payable.sol\":62:745  contract bankingsystem{\r... */\n  mstore(0x40, 0x80)\n    /* \"Samples/payable.sol\":179:189  msg.sender */\n  caller\n    /* \"Samples/payable.sol\":163:168  Owner */\n  0x00\n  dup1\n    /* \"Samples/payable.sol\":163:190  Owner = payable(msg.sender) */\n  0x0100\n  exp\n  dup2\n  sload\n  dup2\n  0xffffffffffffffffffffffffffffffffffffffff\n  mul\n  not\n  and\n  swap1\n  dup4\n  0xffffffffffffffffffffffffffffffffffffffff\n  and\n  mul\n  or\n  swap1\n  sstore\n  pop\n    /* \"Samples/payable.sol\":62:745  contract bankingsystem{\r... */\n  dataSize(sub_0)\n  dup1\n  dataOffset(sub_0)\n  0x00\n  codecopy\n  0x00\n  return\nstop\n\nsub_0: assembly {\n        /* \"Samples/payable.sol\":62:745  contract bankingsystem{\r... */\n      mstore(0x40, 0x80)\n      jumpi(tag_1, lt(calldatasize, 0x04))\n      shr(0xe0, calldataload(0x00))\n      dup1\n      0x3ccfd60b\n      eq\n      tag_2\n      jumpi\n      dup1\n      0xa9059cbb\n      eq\n      tag_3\n      jumpi\n      dup1\n      0xb4a99a4e\n      eq\n      tag_4\n      jumpi\n      dup1\n      0xd0e30db0\n      eq\n      tag_5\n      jumpi\n    tag_1:\n      0x00\n      dup1\n      revert\n        /* \"Samples/payable.sol\":250:501  function withdraw() public {\r... */\n    tag_2:\n      callvalue\n      dup1\n      iszero\n      tag_6\n      jumpi\n      0x00\n      dup1\n      revert\n    tag_6:\n      pop\n      tag_7\n      tag_8\n      jump\t// in\n    tag_7:\n      stop\n        /* \"Samples/payable.sol\":509:736  function transfer(address payable _to, uint _amount) public {\r... */\n    tag_3:\n      callvalue\n      dup1\n      iszero\n      tag_9\n      jumpi\n      0x00\n      dup1\n      revert\n    tag_9:\n      pop\n      tag_10\n      0x04\n      dup1\n      calldatasize\n      sub\n      dup2\n      add\n      swap1\n      tag_11\n      swap2\n      swap1\n      tag_12\n      jump\t// in\n    tag_11:\n      tag_13\n      jump\t// in\n    tag_10:\n      stop\n        /* \"Samples/payable.sol\":93:121  address payable public Owner */\n    tag_4:\n      callvalue\n      dup1\n      iszero\n      tag_14\n      jumpi\n      0x00\n      dup1\n      revert\n    tag_14:\n      pop\n      tag_15\n      tag_16\n      jump\t// in\n    tag_15:\n      mload(0x40)\n      tag_17\n      swap2\n      swap1\n      tag_18\n      jump\t// in\n    tag_17:\n      mload(0x40)\n      dup1\n      swap2\n      sub\n      swap1\n      return\n        /* \"Samples/payable.sol\":206:242  function deposit() public payable {} */\n    tag_5:\n      tag_19\n      tag_20\n      jump\t// in\n    tag_19:\n      stop\n        /* \"Samples/payable.sol\":250:501  function withdraw() public {\r... */\n    tag_8:\n        /* \"Samples/payable.sol\":348:359  uint amount */\n      0x00\n        /* \"Samples/payable.sol\":362:383  address(this).balance */\n      selfbalance\n        /* \"Samples/payable.sol\":348:383  uint amount = address(this).balance */\n      swap1\n      pop\n        /* \"Samples/payable.sol\":395:407  bool success */\n      0x00\n        /* \"Samples/payable.sol\":413:418  Owner */\n      dup1\n      0x00\n      swap1\n      sload\n      swap1\n      0x0100\n      exp\n      swap1\n      div\n      0xffffffffffffffffffffffffffffffffffffffff\n      and\n        /* \"Samples/payable.sol\":413:423  Owner.call */\n      0xffffffffffffffffffffffffffffffffffffffff\n      and\n        /* \"Samples/payable.sol\":431:437  amount */\n      dup3\n        /* \"Samples/payable.sol\":413:442  Owner.call{value: amount}(\"\") */\n      mload(0x40)\n      tag_22\n      swap1\n      tag_23\n      jump\t// in\n    tag_22:\n      0x00\n      mload(0x40)\n      dup1\n      dup4\n      sub\n      dup2\n      dup6\n      dup8\n      gas\n      call\n      swap3\n      pop\n      pop\n      pop\n      returndatasize\n      dup1\n      0x00\n      dup2\n      eq\n      tag_26\n      jumpi\n      mload(0x40)\n      swap2\n      pop\n      and(add(returndatasize, 0x3f), not(0x1f))\n      dup3\n      add\n      0x40\n      mstore\n      returndatasize\n      dup3\n      mstore\n      returndatasize\n      0x00\n      0x20\n      dup5\n      add\n      returndatacopy\n      jump(tag_25)\n    tag_26:\n      0x60\n      swap2\n      pop\n    tag_25:\n      pop\n        /* \"Samples/payable.sol\":394:442  (bool success, ) = Owner.call{value: amount}(\"\") */\n      pop\n      swap1\n      pop\n        /* \"Samples/payable.sol\":461:468  success */\n      dup1\n        /* \"Samples/payable.sol\":453:493  require(success, \"Failed to send Ether\") */\n      tag_27\n      jumpi\n      mload(0x40)\n      0x08c379a000000000000000000000000000000000000000000000000000000000\n      dup2\n      mstore\n      0x04\n      add\n      tag_28\n      swap1\n      tag_29\n      jump\t// in\n    tag_28:\n      mload(0x40)\n      dup1\n      swap2\n      sub\n      swap1\n      revert\n    tag_27:\n        /* \"Samples/payable.sol\":277:501  {\r... */\n      pop\n      pop\n        /* \"Samples/payable.sol\":250:501  function withdraw() public {\r... */\n      jump\t// out\n        /* \"Samples/payable.sol\":509:736  function transfer(address payable _to, uint _amount) public {\r... */\n    tag_13:\n        /* \"Samples/payable.sol\":631:643  bool success */\n      0x00\n        /* \"Samples/payable.sol\":649:652  _to */\n      dup3\n        /* \"Samples/payable.sol\":649:657  _to.call */\n      0xffffffffffffffffffffffffffffffffffffffff\n      and\n        /* \"Samples/payable.sol\":665:672  _amount */\n      dup3\n        /* \"Samples/payable.sol\":649:677  _to.call{value: _amount}(\"\") */\n      mload(0x40)\n      tag_31\n      swap1\n      tag_23\n      jump\t// in\n    tag_31:\n      0x00\n      mload(0x40)\n      dup1\n      dup4\n      sub\n      dup2\n      dup6\n      dup8\n      gas\n      call\n      swap3\n      pop\n      pop\n      pop\n      returndatasize\n      dup1\n      0x00\n      dup2\n      eq\n      tag_34\n      jumpi\n      mload(0x40)\n      swap2\n      pop\n      and(add(returndatasize, 0x3f), not(0x1f))\n      dup3\n      add\n      0x40\n      mstore\n      returndatasize\n      dup3\n      mstore\n      returndatasize\n      0x00\n      0x20\n      dup5\n      add\n      returndatacopy\n      jump(tag_33)\n    tag_34:\n      0x60\n      swap2\n      pop\n    tag_33:\n      pop\n        /* \"Samples/payable.sol\":630:677  (bool success, ) = _to.call{value: _amount}(\"\") */\n      pop\n      swap1\n      pop\n        /* \"Samples/payable.sol\":696:703  success */\n      dup1\n        /* \"Samples/payable.sol\":688:728  require(success, \"Failed to send Ether\") */\n      tag_35\n      jumpi\n      mload(0x40)\n      0x08c379a000000000000000000000000000000000000000000000000000000000\n      dup2\n      mstore\n      0x04\n      add\n      tag_36\n      swap1\n      tag_29\n      jump\t// in\n    tag_36:\n      mload(0x40)\n      dup1\n      swap2\n      sub\n      swap1\n      revert\n    tag_35:\n        /* \"Samples/payable.sol\":569:736  {\r... */\n      pop\n        /* \"Samples/payable.sol\":509:736  function transfer(address payable _to, uint _amount) public {\r... */\n      pop\n      pop\n      jump\t// out\n        /* \"Samples/payable.sol\":93:121  address payable public Owner */\n    tag_16:\n      0x00\n      dup1\n      sload\n      swap1\n      0x0100\n      exp\n      swap1\n      div\n      0xffffffffffffffffffffffffffffffffffffffff\n      and\n      dup2\n      jump\t// out\n        /* \"Samples/payable.sol\":206:242  function deposit() public payable {} */\n    tag_20:\n      jump\t// out\n        /* \"#utility.yul\":7:162   */\n    tag_39:\n        /* \"#utility.yul\":61:66   */\n      0x00\n        /* \"#utility.yul\":99:105   */\n      dup2\n        /* \"#utility.yul\":86:106   */\n      calldataload\n        /* \"#utility.yul\":77:106   */\n      swap1\n      pop\n        /* \"#utility.yul\":115:156   */\n      tag_41\n        /* \"#utility.yul\":150:155   */\n      dup2\n        /* \"#utility.yul\":115:156   */\n      tag_42\n      jump\t// in\n    tag_41:\n        /* \"#utility.yul\":7:162   */\n      swap3\n      swap2\n      pop\n      pop\n      jump\t// out\n        /* \"#utility.yul\":168:307   */\n    tag_43:\n        /* \"#utility.yul\":214:219   */\n      0x00\n        /* \"#utility.yul\":252:258   */\n      dup2\n        /* \"#utility.yul\":239:259   */\n      calldataload\n        /* \"#utility.yul\":230:259   */\n      swap1\n      pop\n        /* \"#utility.yul\":268:301   */\n      tag_45\n        /* \"#utility.yul\":295:300   */\n      dup2\n        /* \"#utility.yul\":268:301   */\n      tag_46\n      jump\t// in\n    tag_45:\n        /* \"#utility.yul\":168:307   */\n      swap3\n      swap2\n      pop\n      pop\n      jump\t// out\n        /* \"#utility.yul\":313:803   */\n    tag_12:\n        /* \"#utility.yul\":389:395   */\n      0x00\n        /* \"#utility.yul\":397:403   */\n      dup1\n        /* \"#utility.yul\":446:448   */\n      0x40\n        /* \"#utility.yul\":434:443   */\n      dup4\n        /* \"#utility.yul\":425:432   */\n      dup6\n        /* \"#utility.yul\":421:444   */\n      sub\n        /* \"#utility.yul\":417:449   */\n      slt\n        /* \"#utility.yul\":414:533   */\n      iszero\n      tag_48\n      jumpi\n        /* \"#utility.yul\":452:531   */\n      tag_49\n      tag_50\n      jump\t// in\n    tag_49:\n        /* \"#utility.yul\":414:533   */\n    tag_48:\n        /* \"#utility.yul\":572:573   */\n      0x00\n        /* \"#utility.yul\":597:658   */\n      tag_51\n        /* \"#utility.yul\":650:657   */\n      dup6\n        /* \"#utility.yul\":641:647   */\n      dup3\n        /* \"#utility.yul\":630:639   */\n      dup7\n        /* \"#utility.yul\":626:648   */\n      add\n        /* \"#utility.yul\":597:658   */\n      tag_39\n      jump\t// in\n    tag_51:\n        /* \"#utility.yul\":587:658   */\n      swap3\n      pop\n        /* \"#utility.yul\":543:668   */\n      pop\n        /* \"#utility.yul\":707:709   */\n      0x20\n        /* \"#utility.yul\":733:786   */\n      tag_52\n        /* \"#utility.yul\":778:785   */\n      dup6\n        /* \"#utility.yul\":769:775   */\n      dup3\n        /* \"#utility.yul\":758:767   */\n      dup7\n        /* \"#utility.yul\":754:776   */\n      add\n        /* \"#utility.yul\":733:786   */\n      tag_43\n      jump\t// in\n    tag_52:\n        /* \"#utility.yul\":723:786   */\n      swap2\n      pop\n        /* \"#utility.yul\":678:796   */\n      pop\n        /* \"#utility.yul\":313:803   */\n      swap3\n      pop\n      swap3\n      swap1\n      pop\n      jump\t// out\n        /* \"#utility.yul\":809:951   */\n    tag_53:\n        /* \"#utility.yul\":912:944   */\n      tag_55\n        /* \"#utility.yul\":938:943   */\n      dup2\n        /* \"#utility.yul\":912:944   */\n      tag_56\n      jump\t// in\n    tag_55:\n        /* \"#utility.yul\":907:910   */\n      dup3\n        /* \"#utility.yul\":900:945   */\n      mstore\n        /* \"#utility.yul\":809:951   */\n      pop\n      pop\n      jump\t// out\n        /* \"#utility.yul\":957:1323   */\n    tag_57:\n        /* \"#utility.yul\":1099:1102   */\n      0x00\n        /* \"#utility.yul\":1120:1187   */\n      tag_59\n        /* \"#utility.yul\":1184:1186   */\n      0x14\n        /* \"#utility.yul\":1179:1182   */\n      dup4\n        /* \"#utility.yul\":1120:1187   */\n      tag_60\n      jump\t// in\n    tag_59:\n        /* \"#utility.yul\":1113:1187   */\n      swap2\n      pop\n        /* \"#utility.yul\":1196:1289   */\n      tag_61\n        /* \"#utility.yul\":1285:1288   */\n      dup3\n        /* \"#utility.yul\":1196:1289   */\n      tag_62\n      jump\t// in\n    tag_61:\n        /* \"#utility.yul\":1314:1316   */\n      0x20\n        /* \"#utility.yul\":1309:1312   */\n      dup3\n        /* \"#utility.yul\":1305:1317   */\n      add\n        /* \"#utility.yul\":1298:1317   */\n      swap1\n      pop\n        /* \"#utility.yul\":957:1323   */\n      swap2\n      swap1\n      pop\n      jump\t// out\n        /* \"#utility.yul\":1329:1727   */\n    tag_63:\n        /* \"#utility.yul\":1488:1491   */\n      0x00\n        /* \"#utility.yul\":1509:1592   */\n      tag_65\n        /* \"#utility.yul\":1590:1591   */\n      0x00\n        /* \"#utility.yul\":1585:1588   */\n      dup4\n        /* \"#utility.yul\":1509:1592   */\n      tag_66\n      jump\t// in\n    tag_65:\n        /* \"#utility.yul\":1502:1592   */\n      swap2\n      pop\n        /* \"#utility.yul\":1601:1694   */\n      tag_67\n        /* \"#utility.yul\":1690:1693   */\n      dup3\n        /* \"#utility.yul\":1601:1694   */\n      tag_68\n      jump\t// in\n    tag_67:\n        /* \"#utility.yul\":1719:1720   */\n      0x00\n        /* \"#utility.yul\":1714:1717   */\n      dup3\n        /* \"#utility.yul\":1710:1721   */\n      add\n        /* \"#utility.yul\":1703:1721   */\n      swap1\n      pop\n        /* \"#utility.yul\":1329:1727   */\n      swap2\n      swap1\n      pop\n      jump\t// out\n        /* \"#utility.yul\":1733:2112   */\n    tag_23:\n        /* \"#utility.yul\":1917:1920   */\n      0x00\n        /* \"#utility.yul\":1939:2086   */\n      tag_70\n        /* \"#utility.yul\":2082:2085   */\n      dup3\n        /* \"#utility.yul\":1939:2086   */\n      tag_63\n      jump\t// in\n    tag_70:\n        /* \"#utility.yul\":1932:2086   */\n      swap2\n      pop\n        /* \"#utility.yul\":2103:2106   */\n      dup2\n        /* \"#utility.yul\":2096:2106   */\n      swap1\n      pop\n        /* \"#utility.yul\":1733:2112   */\n      swap2\n      swap1\n      pop\n      jump\t// out\n        /* \"#utility.yul\":2118:2372   */\n    tag_18:\n        /* \"#utility.yul\":2227:2231   */\n      0x00\n        /* \"#utility.yul\":2265:2267   */\n      0x20\n        /* \"#utility.yul\":2254:2263   */\n      dup3\n        /* \"#utility.yul\":2250:2268   */\n      add\n        /* \"#utility.yul\":2242:2268   */\n      swap1\n      pop\n        /* \"#utility.yul\":2278:2365   */\n      tag_72\n        /* \"#utility.yul\":2362:2363   */\n      0x00\n        /* \"#utility.yul\":2351:2360   */\n      dup4\n        /* \"#utility.yul\":2347:2364   */\n      add\n        /* \"#utility.yul\":2338:2344   */\n      dup5\n        /* \"#utility.yul\":2278:2365   */\n      tag_53\n      jump\t// in\n    tag_72:\n        /* \"#utility.yul\":2118:2372   */\n      swap3\n      swap2\n      pop\n      pop\n      jump\t// out\n        /* \"#utility.yul\":2378:2797   */\n    tag_29:\n        /* \"#utility.yul\":2544:2548   */\n      0x00\n        /* \"#utility.yul\":2582:2584   */\n      0x20\n        /* \"#utility.yul\":2571:2580   */\n      dup3\n        /* \"#utility.yul\":2567:2585   */\n      add\n        /* \"#utility.yul\":2559:2585   */\n      swap1\n      pop\n        /* \"#utility.yul\":2631:2640   */\n      dup2\n        /* \"#utility.yul\":2625:2629   */\n      dup2\n        /* \"#utility.yul\":2621:2641   */\n      sub\n        /* \"#utility.yul\":2617:2618   */\n      0x00\n        /* \"#utility.yul\":2606:2615   */\n      dup4\n        /* \"#utility.yul\":2602:2619   */\n      add\n        /* \"#utility.yul\":2595:2642   */\n      mstore\n        /* \"#utility.yul\":2659:2790   */\n      tag_74\n        /* \"#utility.yul\":2785:2789   */\n      dup2\n        /* \"#utility.yul\":2659:2790   */\n      tag_57\n      jump\t// in\n    tag_74:\n        /* \"#utility.yul\":2651:2790   */\n      swap1\n      pop\n        /* \"#utility.yul\":2378:2797   */\n      swap2\n      swap1\n      pop\n      jump\t// out\n        /* \"#utility.yul\":2884:3031   */\n    tag_66:\n        /* \"#utility.yul\":2985:2996   */\n      0x00\n        /* \"#utility.yul\":3022:3025   */\n      dup2\n        /* \"#utility.yul\":3007:3025   */\n      swap1\n      pop\n        /* \"#utility.yul\":2884:3031   */\n      swap3\n      swap2\n      pop\n      pop\n      jump\t// out\n        /* \"#utility.yul\":3037:3206   */\n    tag_60:\n        /* \"#utility.yul\":3121:3132   */\n      0x00\n        /* \"#utility.yul\":3155:3161   */\n      dup3\n        /* \"#utility.yul\":3150:3153   */\n      dup3\n        /* \"#utility.yul\":3143:3162   */\n      mstore\n        /* \"#utility.yul\":3195:3199   */\n      0x20\n        /* \"#utility.yul\":3190:3193   */\n      dup3\n        /* \"#utility.yul\":3186:3200   */\n      add\n        /* \"#utility.yul\":3171:3200   */\n      swap1\n      pop\n        /* \"#utility.yul\":3037:3206   */\n      swap3\n      swap2\n      pop\n      pop\n      jump\t// out\n        /* \"#utility.yul\":3212:3316   */\n    tag_56:\n        /* \"#utility.yul\":3257:3264   */\n      0x00\n        /* \"#utility.yul\":3286:3310   */\n      tag_80\n        /* \"#utility.yul\":3304:3309   */\n      dup3\n        /* \"#utility.yul\":3286:3310   */\n      tag_81\n      jump\t// in\n    tag_80:\n        /* \"#utility.yul\":3275:3310   */\n      swap1\n      pop\n        /* \"#utility.yul\":3212:3316   */\n      swap2\n      swap1\n      pop\n      jump\t// out\n        /* \"#utility.yul\":3322:3448   */\n    tag_81:\n        /* \"#utility.yul\":3359:3366   */\n      0x00\n        /* \"#utility.yul\":3399:3441   */\n      0xffffffffffffffffffffffffffffffffffffffff\n        /* \"#utility.yul\":3392:3397   */\n      dup3\n        /* \"#utility.yul\":3388:3442   */\n      and\n        /* \"#utility.yul\":3377:3442   */\n      swap1\n      pop\n        /* \"#utility.yul\":3322:3448   */\n      swap2\n      swap1\n      pop\n      jump\t// out\n        /* \"#utility.yul\":3454:3531   */\n    tag_83:\n        /* \"#utility.yul\":3491:3498   */\n      0x00\n        /* \"#utility.yul\":3520:3525   */\n      dup2\n        /* \"#utility.yul\":3509:3525   */\n      swap1\n      pop\n        /* \"#utility.yul\":3454:3531   */\n      swap2\n      swap1\n      pop\n      jump\t// out\n        /* \"#utility.yul\":3660:3777   */\n    tag_50:\n        /* \"#utility.yul\":3769:3770   */\n      0x00\n        /* \"#utility.yul\":3766:3767   */\n      dup1\n        /* \"#utility.yul\":3759:3771   */\n      revert\n        /* \"#utility.yul\":3783:3953   */\n    tag_62:\n        /* \"#utility.yul\":3923:3945   */\n      0x4661696c656420746f2073656e64204574686572000000000000000000000000\n        /* \"#utility.yul\":3919:3920   */\n      0x00\n        /* \"#utility.yul\":3911:3917   */\n      dup3\n        /* \"#utility.yul\":3907:3921   */\n      add\n        /* \"#utility.yul\":3900:3946   */\n      mstore\n        /* \"#utility.yul\":3783:3953   */\n      pop\n      jump\t// out\n        /* \"#utility.yul\":3959:4073   */\n    tag_68:\n      pop\n      jump\t// out\n        /* \"#utility.yul\":4079:4217   */\n    tag_42:\n        /* \"#utility.yul\":4160:4192   */\n      tag_91\n        /* \"#utility.yul\":4186:4191   */\n      dup2\n        /* \"#utility.yul\":4160:4192   */\n      tag_56\n      jump\t// in\n    tag_91:\n        /* \"#utility.yul\":4153:4158   */\n      dup2\n        /* \"#utility.yul\":4150:4193   */\n      eq\n        /* \"#utility.yul\":4140:4211   */\n      tag_92\n      jumpi\n        /* \"#utility.yul\":4207:4208   */\n      0x00\n        /* \"#utility.yul\":4204:4205   */\n      dup1\n        /* \"#utility.yul\":4197:4209   */\n      revert\n        /* \"#utility.yul\":4140:4211   */\n    tag_92:\n        /* \"#utility.yul\":4079:4217   */\n      pop\n      jump\t// out\n        /* \"#utility.yul\":4223:4345   */\n    tag_46:\n        /* \"#utility.yul\":4296:4320   */\n      tag_94\n        /* \"#utility.yul\":4314:4319   */\n      dup2\n        /* \"#utility.yul\":4296:4320   */\n      tag_83\n      jump\t// in\n    tag_94:\n        /* \"#utility.yul\":4289:4294   */\n      dup2\n        /* \"#utility.yul\":4286:4321   */\n      eq\n        /* \"#utility.yul\":4276:4339   */\n      tag_95\n      jumpi\n        /* \"#utility.yul\":4335:4336   */\n      0x00\n        /* \"#utility.yul\":4332:4333   */\n      dup1\n        /* \"#utility.yul\":4325:4337   */\n      revert\n        /* \"#utility.yul\":4276:4339   */\n    tag_95:\n        /* \"#utility.yul\":4223:4345   */\n      pop\n      jump\t// out\n\n    auxdata: 0xa2646970667358221220120d6e6dfae053e9e9ce962549e07a162b5936a0f2ca094c90d62f4ca7cef90664736f6c63430008070033\n}\n",
				"bytecode": {
					"linkReferences": {},
					"object": "6080604052336000806101000a81548173ffffffffffffffffffffffffffffffffffffffff021916908373ffffffffffffffffffffffffffffffffffffffff160217905550610462806100536000396000f3fe60806040526004361061003f5760003560e01c80633ccfd60b14610044578063a9059cbb1461005b578063b4a99a4e14610084578063d0e30db0146100af575b600080fd5b34801561005057600080fd5b506100596100b9565b005b34801561006757600080fd5b50610082600480360381019061007d9190610290565b61018f565b005b34801561009057600080fd5b50610099610240565b6040516100a6919061033a565b60405180910390f35b6100b7610264565b005b600047905060008060009054906101000a900473ffffffffffffffffffffffffffffffffffffffff1673ffffffffffffffffffffffffffffffffffffffff168260405161010590610325565b60006040518083038185875af1925050503d8060008114610142576040519150601f19603f3d011682016040523d82523d6000602084013e610147565b606091505b505090508061018b576040517f08c379a000000000000000000000000000000000000000000000000000000000815260040161018290610355565b60405180910390fd5b5050565b60008273ffffffffffffffffffffffffffffffffffffffff16826040516101b590610325565b60006040518083038185875af1925050503d80600081146101f2576040519150601f19603f3d011682016040523d82523d6000602084013e6101f7565b606091505b505090508061023b576040517f08c379a000000000000000000000000000000000000000000000000000000000815260040161023290610355565b60405180910390fd5b505050565b60008054906101000a900473ffffffffffffffffffffffffffffffffffffffff1681565b565b600081359050610275816103fe565b92915050565b60008135905061028a81610415565b92915050565b600080604083850312156102a7576102a66103cd565b5b60006102b585828601610266565b92505060206102c68582860161027b565b9150509250929050565b6102d981610391565b82525050565b60006102ec601483610380565b91506102f7826103d2565b602082019050919050565b600061030f600083610375565b915061031a826103fb565b600082019050919050565b600061033082610302565b9150819050919050565b600060208201905061034f60008301846102d0565b92915050565b6000602082019050818103600083015261036e816102df565b9050919050565b600081905092915050565b600082825260208201905092915050565b600061039c826103a3565b9050919050565b600073ffffffffffffffffffffffffffffffffffffffff82169050919050565b6000819050919050565b600080fd5b7f4661696c656420746f2073656e64204574686572000000000000000000000000600082015250565b50565b61040781610391565b811461041257600080fd5b50565b61041e816103c3565b811461042957600080fd5b5056fea2646970667358221220120d6e6dfae053e9e9ce962549e07a162b5936a0f2ca094c90d62f4ca7cef90664736f6c63430008070033",
					"opcodes": "PUSH1 0x80 PUSH1 0x40 MSTORE CALLER PUSH1 0x0 DUP1 PUSH2 0x100 EXP DUP2 SLOAD DUP2 PUSH20 0xFFFFFFFFFFFFFFFFFFFFFFFFFFFFFFFFFFFFFFFF MUL NOT AND SWAP1 DUP4 PUSH20 0xFFFFFFFFFFFFFFFFFFFFFFFFFFFFFFFFFFFFFFFF AND MUL OR SWAP1 SSTORE POP PUSH2 0x462 DUP1 PUSH2 0x53 PUSH1 0x0 CODECOPY PUSH1 0x0 RETURN INVALID PUSH1 0x80 PUSH1 0x40 MSTORE PUSH1 0x4 CALLDATASIZE LT PUSH2 0x3F JUMPI PUSH1 0x0 CALLDATALOAD PUSH1 0xE0 SHR DUP1 PUSH4 0x3CCFD60B EQ PUSH2 0x44 JUMPI DUP1 PUSH4 0xA9059CBB EQ PUSH2 0x5B JUMPI DUP1 PUSH4 0xB4A99A4E EQ PUSH2 0x84 JUMPI DUP1 PUSH4 0xD0E30DB0 EQ PUSH2 0xAF JUMPI JUMPDEST PUSH1 0x0 DUP1 REVERT JUMPDEST CALLVALUE DUP1 ISZERO PUSH2 0x50 JUMPI PUSH1 0x0 DUP1 REVERT JUMPDEST POP PUSH2 0x59 PUSH2 0xB9 JUMP JUMPDEST STOP JUMPDEST CALLVALUE DUP1 ISZERO PUSH2 0x67 JUMPI PUSH1 0x0 DUP1 REVERT JUMPDEST POP PUSH2 0x82 PUSH1 0x4 DUP1 CALLDATASIZE SUB DUP2 ADD SWAP1 PUSH2 0x7D SWAP2 SWAP1 PUSH2 0x290 JUMP JUMPDEST PUSH2 0x18F JUMP JUMPDEST STOP JUMPDEST CALLVALUE DUP1 ISZERO PUSH2 0x90 JUMPI PUSH1 0x0 DUP1 REVERT JUMPDEST POP PUSH2 0x99 PUSH2 0x240 JUMP JUMPDEST PUSH1 0x40 MLOAD PUSH2 0xA6 SWAP2 SWAP1 PUSH2 0x33A JUMP JUMPDEST PUSH1 0x40 MLOAD DUP1 SWAP2 SUB SWAP1 RETURN JUMPDEST PUSH2 0xB7 PUSH2 0x264 JUMP JUMPDEST STOP JUMPDEST PUSH1 0x0 SELFBALANCE SWAP1 POP PUSH1 0x0 DUP1 PUSH1 0x0 SWAP1 SLOAD SWAP1 PUSH2 0x100 EXP SWAP1 DIV PUSH20 0xFFFFFFFFFFFFFFFFFFFFFFFFFFFFFFFFFFFFFFFF AND PUSH20 0xFFFFFFFFFFFFFFFFFFFFFFFFFFFFFFFFFFFFFFFF AND DUP3 PUSH1 0x40 MLOAD PUSH2 0x105 SWAP1 PUSH2 0x325 JUMP JUMPDEST PUSH1 0x0 PUSH1 0x40 MLOAD DUP1 DUP4 SUB DUP2 DUP6 DUP8 GAS CALL SWAP3 POP POP POP RETURNDATASIZE DUP1 PUSH1 0x0 DUP2 EQ PUSH2 0x142 JUMPI PUSH1 0x40 MLOAD SWAP2 POP PUSH1 0x1F NOT PUSH1 0x3F RETURNDATASIZE ADD AND DUP3 ADD PUSH1 0x40 MSTORE RETURNDATASIZE DUP3 MSTORE RETURNDATASIZE PUSH1 0x0 PUSH1 0x20 DUP5 ADD RETURNDATACOPY PUSH2 0x147 JUMP JUMPDEST PUSH1 0x60 SWAP2 POP JUMPDEST POP POP SWAP1 POP DUP1 PUSH2 0x18B JUMPI PUSH1 0x40 MLOAD PUSH32 0x8C379A000000000000000000000000000000000000000000000000000000000 DUP2 MSTORE PUSH1 0x4 ADD PUSH2 0x182 SWAP1 PUSH2 0x355 JUMP JUMPDEST PUSH1 0x40 MLOAD DUP1 SWAP2 SUB SWAP1 REVERT JUMPDEST POP POP JUMP JUMPDEST PUSH1 0x0 DUP3 PUSH20 0xFFFFFFFFFFFFFFFFFFFFFFFFFFFFFFFFFFFFFFFF AND DUP3 PUSH1 0x40 MLOAD PUSH2 0x1B5 SWAP1 PUSH2 0x325 JUMP JUMPDEST PUSH1 0x0 PUSH1 0x40 MLOAD DUP1 DUP4 SUB DUP2 DUP6 DUP8 GAS CALL SWAP3 POP POP POP RETURNDATASIZE DUP1 PUSH1 0x0 DUP2 EQ PUSH2 0x1F2 JUMPI PUSH1 0x40 MLOAD SWAP2 POP PUSH1 0x1F NOT PUSH1 0x3F RETURNDATASIZE ADD AND DUP3 ADD PUSH1 0x40 MSTORE RETURNDATASIZE DUP3 MSTORE RETURNDATASIZE PUSH1 0x0 PUSH1 0x20 DUP5 ADD RETURNDATACOPY PUSH2 0x1F7 JUMP JUMPDEST PUSH1 0x60 SWAP2 POP JUMPDEST POP POP SWAP1 POP DUP1 PUSH2 0x23B JUMPI PUSH1 0x40 MLOAD PUSH32 0x8C379A000000000000000000000000000000000000000000000000000000000 DUP2 MSTORE PUSH1 0x4 ADD PUSH2 0x232 SWAP1 PUSH2 0x355 JUMP JUMPDEST PUSH1 0x40 MLOAD DUP1 SWAP2 SUB SWAP1 REVERT JUMPDEST POP POP POP JUMP JUMPDEST PUSH1 0x0 DUP1 SLOAD SWAP1 PUSH2 0x100 EXP SWAP1 DIV PUSH20 0xFFFFFFFFFFFFFFFFFFFFFFFFFFFFFFFFFFFFFFFF AND DUP2 JUMP JUMPDEST JUMP JUMPDEST PUSH1 0x0 DUP2 CALLDATALOAD SWAP1 POP PUSH2 0x275 DUP2 PUSH2 0x3FE JUMP JUMPDEST SWAP3 SWAP2 POP POP JUMP JUMPDEST PUSH1 0x0 DUP2 CALLDATALOAD SWAP1 POP PUSH2 0x28A DUP2 PUSH2 0x415 JUMP JUMPDEST SWAP3 SWAP2 POP POP JUMP JUMPDEST PUSH1 0x0 DUP1 PUSH1 0x40 DUP4 DUP6 SUB SLT ISZERO PUSH2 0x2A7 JUMPI PUSH2 0x2A6 PUSH2 0x3CD JUMP JUMPDEST JUMPDEST PUSH1 0x0 PUSH2 0x2B5 DUP6 DUP3 DUP7 ADD PUSH2 0x266 JUMP JUMPDEST SWAP3 POP POP PUSH1 0x20 PUSH2 0x2C6 DUP6 DUP3 DUP7 ADD PUSH2 0x27B JUMP JUMPDEST SWAP2 POP POP SWAP3 POP SWAP3 SWAP1 POP JUMP JUMPDEST PUSH2 0x2D9 DUP2 PUSH2 0x391 JUMP JUMPDEST DUP3 MSTORE POP POP JUMP JUMPDEST PUSH1 0x0 PUSH2 0x2EC PUSH1 0x14 DUP4 PUSH2 0x380 JUMP JUMPDEST SWAP2 POP PUSH2 0x2F7 DUP3 PUSH2 0x3D2 JUMP JUMPDEST PUSH1 0x20 DUP3 ADD SWAP1 POP SWAP2 SWAP1 POP JUMP JUMPDEST PUSH1 0x0 PUSH2 0x30F PUSH1 0x0 DUP4 PUSH2 0x375 JUMP JUMPDEST SWAP2 POP PUSH2 0x31A DUP3 PUSH2 0x3FB JUMP JUMPDEST PUSH1 0x0 DUP3 ADD SWAP1 POP SWAP2 SWAP1 POP JUMP JUMPDEST PUSH1 0x0 PUSH2 0x330 DUP3 PUSH2 0x302 JUMP JUMPDEST SWAP2 POP DUP2 SWAP1 POP SWAP2 SWAP1 POP JUMP JUMPDEST PUSH1 0x0 PUSH1 0x20 DUP3 ADD SWAP1 POP PUSH2 0x34F PUSH1 0x0 DUP4 ADD DUP5 PUSH2 0x2D0 JUMP JUMPDEST SWAP3 SWAP2 POP POP JUMP JUMPDEST PUSH1 0x0 PUSH1 0x20 DUP3 ADD SWAP1 POP DUP2 DUP2 SUB PUSH1 0x0 DUP4 ADD MSTORE PUSH2 0x36E DUP2 PUSH2 0x2DF JUMP JUMPDEST SWAP1 POP SWAP2 SWAP1 POP JUMP JUMPDEST PUSH1 0x0 DUP2 SWAP1 POP SWAP3 SWAP2 POP POP JUMP JUMPDEST PUSH1 0x0 DUP3 DUP3 MSTORE PUSH1 0x20 DUP3 ADD SWAP1 POP SWAP3 SWAP2 POP POP JUMP JUMPDEST PUSH1 0x0 PUSH2 0x39C DUP3 PUSH2 0x3A3 JUMP JUMPDEST SWAP1 POP SWAP2 SWAP1 POP JUMP JUMPDEST PUSH1 0x0 PUSH20 0xFFFFFFFFFFFFFFFFFFFFFFFFFFFFFFFFFFFFFFFF DUP3 AND SWAP1 POP SWAP2 SWAP1 POP JUMP JUMPDEST PUSH1 0x0 DUP2 SWAP1 POP SWAP2 SWAP1 POP JUMP JUMPDEST PUSH1 0x0 DUP1 REVERT JUMPDEST PUSH32 0x4661696C656420746F2073656E64204574686572000000000000000000000000 PUSH1 0x0 DUP3 ADD MSTORE POP JUMP JUMPDEST POP JUMP JUMPDEST PUSH2 0x407 DUP2 PUSH2 0x391 JUMP JUMPDEST DUP2 EQ PUSH2 0x412 JUMPI PUSH1 0x0 DUP1 REVERT JUMPDEST POP JUMP JUMPDEST PUSH2 0x41E DUP2 PUSH2 0x3C3 JUMP JUMPDEST DUP2 EQ PUSH2 0x429 JUMPI PUSH1 0x0 DUP1 REVERT JUMPDEST POP JUMP INVALID LOG2 PUSH5 0x6970667358 0x22 SLT KECCAK256 SLT 0xD PUSH15 0x6DFAE053E9E9CE962549E07A162B59 CALLDATASIZE LOG0 CALLCODE 0xCA MULMOD 0x4C SWAP1 0xD6 0x2F 0x4C 0xA7 0xCE 0xF9 MOD PUSH5 0x736F6C6343 STOP ADDMOD SMOD STOP CALLER "
				},
				"gasEstimates": {
					"creation": {
						"codeDepositCost": "224400",
						"executionCost": "24511",
						"totalCost": "248911"
					},
					"external": {
						"Owner()": "2533",
						"deposit()": "164",
						"transfer(address,uint256)": "infinite",
						"withdraw()": "infinite"
					}
				},
				"methodIdentifiers": {
					"Owner()": "b4a99a4e",
					"deposit()": "d0e30db0",
					"transfer(address,uint256)": "a9059cbb",
					"withdraw()": "3ccfd60b"
				}
			},
			"storageLayout": {
				"storage": [
					{
						"astId": 3,
						"contract": "Samples/payable.sol:bankingsystem",
						"label": "Owner",
						"offset": 0,
						"slot": "0",
						"type": "t_address_payable"
					}
				],
				"types": {
					"t_address_payable": {
						"encoding": "inplace",
						"label": "address payable",
						"numberOfBytes": "20"
					}
				}
			},
			"userdoc": {
				"kind": "user",
				"methods": {},
				"version": 1
			}
		}
	}
}