{
	"Samples/weeklyTask2.sol": {
		"property": {
			"abi": [
				{
					"inputs": [],
					"stateMutability": "nonpayable",
					"type": "constructor"
				},
				{
					"stateMutability": "payable",
					"type": "fallback"
				},
				{
					"inputs": [
						{
							"internalType": "uint256",
							"name": "propertyID",
							"type": "uint256"
						},
						{
							"internalType": "uint256",
							"name": "PropertyNo",
							"type": "uint256"
						},
						{
							"internalType": "string",
							"name": "propertyName",
							"type": "string"
						},
						{
							"internalType": "string",
							"name": "PropertyDetails",
							"type": "string"
						},
						{
							"internalType": "uint256",
							"name": "Price",
							"type": "uint256"
						}
					],
					"name": "SellingProperty",
					"outputs": [],
					"stateMutability": "nonpayable",
					"type": "function"
				},
				{
					"inputs": [
						{
							"internalType": "uint256",
							"name": "propertyID",
							"type": "uint256"
						}
					],
					"name": "buyingproperty",
					"outputs": [],
					"stateMutability": "payable",
					"type": "function"
				},
				{
					"inputs": [
						{
							"internalType": "uint256",
							"name": "",
							"type": "uint256"
						}
					],
					"name": "propertyList",
					"outputs": [
						{
							"internalType": "uint256",
							"name": "propertyno",
							"type": "uint256"
						},
						{
							"internalType": "string",
							"name": "propertyname",
							"type": "string"
						},
						{
							"internalType": "string",
							"name": "propertydetails",
							"type": "string"
						},
						{
							"internalType": "address",
							"name": "owner",
							"type": "address"
						},
						{
							"internalType": "uint256",
							"name": "price",
							"type": "uint256"
						},
						{
							"internalType": "bool",
							"name": "sold",
							"type": "bool"
						}
					],
					"stateMutability": "view",
					"type": "function"
				},
				{
					"inputs": [
						{
							"internalType": "uint256",
							"name": "",
							"type": "uint256"
						}
					],
					"name": "propertySell",
					"outputs": [
						{
							"internalType": "uint256",
							"name": "propertyno",
							"type": "uint256"
						},
						{
							"internalType": "string",
							"name": "propertyname",
							"type": "string"
						},
						{
							"internalType": "string",
							"name": "propertydetails",
							"type": "string"
						},
						{
							"internalType": "address",
							"name": "owner",
							"type": "address"
						},
						{
							"internalType": "uint256",
							"name": "price",
							"type": "uint256"
						},
						{
							"internalType": "bool",
							"name": "sold",
							"type": "bool"
						}
					],
					"stateMutability": "view",
					"type": "function"
				},
				{
					"stateMutability": "payable",
					"type": "receive"
				}
			],
			"devdoc": {
				"kind": "dev",
				"methods": {},
				"version": 1
			},
			"evm": {
				"assembly": "    /* \"Samples/weeklyTask2.sol\":59:1472  contract property{\r... */\n  mstore(0x40, 0x80)\n    /* \"Samples/weeklyTask2.sol\":460:508  constructor(){\r... */\n  callvalue\n  dup1\n  iszero\n  tag_1\n  jumpi\n  0x00\n  dup1\n  revert\ntag_1:\n  pop\n    /* \"Samples/weeklyTask2.sol\":490:500  msg.sender */\n  caller\n    /* \"Samples/weeklyTask2.sol\":484:489  owner */\n  0x02\n  0x00\n    /* \"Samples/weeklyTask2.sol\":484:500  owner=msg.sender */\n  0x0100\n  exp\n  dup2\n  sload\n  dup2\n  0xffffffffffffffffffffffffffffffffffffffff\n  mul\n  not\n  and\n  swap1\n  dup4\n  0xffffffffffffffffffffffffffffffffffffffff\n  and\n  mul\n  or\n  swap1\n  sstore\n  pop\n    /* \"Samples/weeklyTask2.sol\":59:1472  contract property{\r... */\n  dataSize(sub_0)\n  dup1\n  dataOffset(sub_0)\n  0x00\n  codecopy\n  0x00\n  return\nstop\n\nsub_0: assembly {\n        /* \"Samples/weeklyTask2.sol\":59:1472  contract property{\r... */\n      mstore(0x40, 0x80)\n      jumpi(tag_1, lt(calldatasize, 0x04))\n      shr(0xe0, calldataload(0x00))\n      dup1\n      0x51d2a3b2\n      eq\n      tag_3\n      jumpi\n      dup1\n      0x68221a65\n      eq\n      tag_4\n      jumpi\n      dup1\n      0x92ff78ba\n      eq\n      tag_5\n      jumpi\n      dup1\n      0x9543b149\n      eq\n      tag_6\n      jumpi\n      jump(tag_2)\n    tag_1:\n      jumpi(tag_2, calldatasize)\n      stop\n    tag_2:\n      stop\n        /* \"Samples/weeklyTask2.sol\":338:390  mapping(uint => propertyDetails) public propertyList */\n    tag_3:\n      callvalue\n      dup1\n      iszero\n      tag_11\n      jumpi\n      0x00\n      dup1\n      revert\n    tag_11:\n      pop\n      tag_12\n      0x04\n      dup1\n      calldatasize\n      sub\n      dup2\n      add\n      swap1\n      tag_13\n      swap2\n      swap1\n      tag_14\n      jump\t// in\n    tag_13:\n      tag_15\n      jump\t// in\n    tag_12:\n      mload(0x40)\n      tag_16\n      swap7\n      swap6\n      swap5\n      swap4\n      swap3\n      swap2\n      swap1\n      tag_17\n      jump\t// in\n    tag_16:\n      mload(0x40)\n      dup1\n      swap2\n      sub\n      swap1\n      return\n        /* \"Samples/weeklyTask2.sol\":279:331  mapping(uint => propertyDetails) public propertySell */\n    tag_4:\n      callvalue\n      dup1\n      iszero\n      tag_18\n      jumpi\n      0x00\n      dup1\n      revert\n    tag_18:\n      pop\n      tag_19\n      0x04\n      dup1\n      calldatasize\n      sub\n      dup2\n      add\n      swap1\n      tag_20\n      swap2\n      swap1\n      tag_14\n      jump\t// in\n    tag_20:\n      tag_21\n      jump\t// in\n    tag_19:\n      mload(0x40)\n      tag_22\n      swap7\n      swap6\n      swap5\n      swap4\n      swap3\n      swap2\n      swap1\n      tag_17\n      jump\t// in\n    tag_22:\n      mload(0x40)\n      dup1\n      swap2\n      sub\n      swap1\n      return\n        /* \"Samples/weeklyTask2.sol\":1068:1384  function buyingproperty(uint propertyID) public payable {\r... */\n    tag_5:\n      tag_23\n      0x04\n      dup1\n      calldatasize\n      sub\n      dup2\n      add\n      swap1\n      tag_24\n      swap2\n      swap1\n      tag_14\n      jump\t// in\n    tag_24:\n      tag_25\n      jump\t// in\n    tag_23:\n      stop\n        /* \"Samples/weeklyTask2.sol\":516:1060  function SellingProperty( uint propertyID, uint PropertyNo, string memory propertyName,string memory PropertyDetails, uint Price) public {\r... */\n    tag_6:\n      callvalue\n      dup1\n      iszero\n      tag_26\n      jumpi\n      0x00\n      dup1\n      revert\n    tag_26:\n      pop\n      tag_27\n      0x04\n      dup1\n      calldatasize\n      sub\n      dup2\n      add\n      swap1\n      tag_28\n      swap2\n      swap1\n      tag_29\n      jump\t// in\n    tag_28:\n      tag_30\n      jump\t// in\n    tag_27:\n      stop\n        /* \"Samples/weeklyTask2.sol\":338:390  mapping(uint => propertyDetails) public propertyList */\n    tag_15:\n      mstore(0x20, 0x01)\n      dup1\n      0x00\n      mstore\n      keccak256(0x00, 0x40)\n      0x00\n      swap2\n      pop\n      swap1\n      pop\n      dup1\n      0x00\n      add\n      sload\n      swap1\n      dup1\n      0x01\n      add\n      dup1\n      sload\n      tag_31\n      swap1\n      tag_32\n      jump\t// in\n    tag_31:\n      dup1\n      0x1f\n      add\n      0x20\n      dup1\n      swap2\n      div\n      mul\n      0x20\n      add\n      mload(0x40)\n      swap1\n      dup2\n      add\n      0x40\n      mstore\n      dup1\n      swap3\n      swap2\n      swap1\n      dup2\n      dup2\n      mstore\n      0x20\n      add\n      dup3\n      dup1\n      sload\n      tag_33\n      swap1\n      tag_32\n      jump\t// in\n    tag_33:\n      dup1\n      iszero\n      tag_34\n      jumpi\n      dup1\n      0x1f\n      lt\n      tag_35\n      jumpi\n      0x0100\n      dup1\n      dup4\n      sload\n      div\n      mul\n      dup4\n      mstore\n      swap2\n      0x20\n      add\n      swap2\n      jump(tag_34)\n    tag_35:\n      dup3\n      add\n      swap2\n      swap1\n      0x00\n      mstore\n      keccak256(0x00, 0x20)\n      swap1\n    tag_36:\n      dup2\n      sload\n      dup2\n      mstore\n      swap1\n      0x01\n      add\n      swap1\n      0x20\n      add\n      dup1\n      dup4\n      gt\n      tag_36\n      jumpi\n      dup3\n      swap1\n      sub\n      0x1f\n      and\n      dup3\n      add\n      swap2\n    tag_34:\n      pop\n      pop\n      pop\n      pop\n      pop\n      swap1\n      dup1\n      0x02\n      add\n      dup1\n      sload\n      tag_37\n      swap1\n      tag_32\n      jump\t// in\n    tag_37:\n      dup1\n      0x1f\n      add\n      0x20\n      dup1\n      swap2\n      div\n      mul\n      0x20\n      add\n      mload(0x40)\n      swap1\n      dup2\n      add\n      0x40\n      mstore\n      dup1\n      swap3\n      swap2\n      swap1\n      dup2\n      dup2\n      mstore\n      0x20\n      add\n      dup3\n      dup1\n      sload\n      tag_38\n      swap1\n      tag_32\n      jump\t// in\n    tag_38:\n      dup1\n      iszero\n      tag_39\n      jumpi\n      dup1\n      0x1f\n      lt\n      tag_40\n      jumpi\n      0x0100\n      dup1\n      dup4\n      sload\n      div\n      mul\n      dup4\n      mstore\n      swap2\n      0x20\n      add\n      swap2\n      jump(tag_39)\n    tag_40:\n      dup3\n      add\n      swap2\n      swap1\n      0x00\n      mstore\n      keccak256(0x00, 0x20)\n      swap1\n    tag_41:\n      dup2\n      sload\n      dup2\n      mstore\n      swap1\n      0x01\n      add\n      swap1\n      0x20\n      add\n      dup1\n      dup4\n      gt\n      tag_41\n      jumpi\n      dup3\n      swap1\n      sub\n      0x1f\n      and\n      dup3\n      add\n      swap2\n    tag_39:\n      pop\n      pop\n      pop\n      pop\n      pop\n      swap1\n      dup1\n      0x03\n      add\n      0x00\n      swap1\n      sload\n      swap1\n      0x0100\n      exp\n      swap1\n      div\n      0xffffffffffffffffffffffffffffffffffffffff\n      and\n      swap1\n      dup1\n      0x04\n      add\n      sload\n      swap1\n      dup1\n      0x05\n      add\n      0x00\n      swap1\n      sload\n      swap1\n      0x0100\n      exp\n      swap1\n      div\n      0xff\n      and\n      swap1\n      pop\n      dup7\n      jump\t// out\n        /* \"Samples/weeklyTask2.sol\":279:331  mapping(uint => propertyDetails) public propertySell */\n    tag_21:\n      mstore(0x20, 0x00)\n      dup1\n      0x00\n      mstore\n      keccak256(0x00, 0x40)\n      0x00\n      swap2\n      pop\n      swap1\n      pop\n      dup1\n      0x00\n      add\n      sload\n      swap1\n      dup1\n      0x01\n      add\n      dup1\n      sload\n      tag_42\n      swap1\n      tag_32\n      jump\t// in\n    tag_42:\n      dup1\n      0x1f\n      add\n      0x20\n      dup1\n      swap2\n      div\n      mul\n      0x20\n      add\n      mload(0x40)\n      swap1\n      dup2\n      add\n      0x40\n      mstore\n      dup1\n      swap3\n      swap2\n      swap1\n      dup2\n      dup2\n      mstore\n      0x20\n      add\n      dup3\n      dup1\n      sload\n      tag_43\n      swap1\n      tag_32\n      jump\t// in\n    tag_43:\n      dup1\n      iszero\n      tag_44\n      jumpi\n      dup1\n      0x1f\n      lt\n      tag_45\n      jumpi\n      0x0100\n      dup1\n      dup4\n      sload\n      div\n      mul\n      dup4\n      mstore\n      swap2\n      0x20\n      add\n      swap2\n      jump(tag_44)\n    tag_45:\n      dup3\n      add\n      swap2\n      swap1\n      0x00\n      mstore\n      keccak256(0x00, 0x20)\n      swap1\n    tag_46:\n      dup2\n      sload\n      dup2\n      mstore\n      swap1\n      0x01\n      add\n      swap1\n      0x20\n      add\n      dup1\n      dup4\n      gt\n      tag_46\n      jumpi\n      dup3\n      swap1\n      sub\n      0x1f\n      and\n      dup3\n      add\n      swap2\n    tag_44:\n      pop\n      pop\n      pop\n      pop\n      pop\n      swap1\n      dup1\n      0x02\n      add\n      dup1\n      sload\n      tag_47\n      swap1\n      tag_32\n      jump\t// in\n    tag_47:\n      dup1\n      0x1f\n      add\n      0x20\n      dup1\n      swap2\n      div\n      mul\n      0x20\n      add\n      mload(0x40)\n      swap1\n      dup2\n      add\n      0x40\n      mstore\n      dup1\n      swap3\n      swap2\n      swap1\n      dup2\n      dup2\n      mstore\n      0x20\n      add\n      dup3\n      dup1\n      sload\n      tag_48\n      swap1\n      tag_32\n      jump\t// in\n    tag_48:\n      dup1\n      iszero\n      tag_49\n      jumpi\n      dup1\n      0x1f\n      lt\n      tag_50\n      jumpi\n      0x0100\n      dup1\n      dup4\n      sload\n      div\n      mul\n      dup4\n      mstore\n      swap2\n      0x20\n      add\n      swap2\n      jump(tag_49)\n    tag_50:\n      dup3\n      add\n      swap2\n      swap1\n      0x00\n      mstore\n      keccak256(0x00, 0x20)\n      swap1\n    tag_51:\n      dup2\n      sload\n      dup2\n      mstore\n      swap1\n      0x01\n      add\n      swap1\n      0x20\n      add\n      dup1\n      dup4\n      gt\n      tag_51\n      jumpi\n      dup3\n      swap1\n      sub\n      0x1f\n      and\n      dup3\n      add\n      swap2\n    tag_49:\n      pop\n      pop\n      pop\n      pop\n      pop\n      swap1\n      dup1\n      0x03\n      add\n      0x00\n      swap1\n      sload\n      swap1\n      0x0100\n      exp\n      swap1\n      div\n      0xffffffffffffffffffffffffffffffffffffffff\n      and\n      swap1\n      dup1\n      0x04\n      add\n      sload\n      swap1\n      dup1\n      0x05\n      add\n      0x00\n      swap1\n      sload\n      swap1\n      0x0100\n      exp\n      swap1\n      div\n      0xff\n      and\n      swap1\n      pop\n      dup7\n      jump\t// out\n        /* \"Samples/weeklyTask2.sol\":1068:1384  function buyingproperty(uint propertyID) public payable {\r... */\n    tag_25:\n        /* \"Samples/weeklyTask2.sol\":1135:1171  propertyDetails storage updateRecord */\n      0x00\n        /* \"Samples/weeklyTask2.sol\":1197:1209  propertySell */\n      dup1\n        /* \"Samples/weeklyTask2.sol\":1197:1221  propertySell[propertyID] */\n      0x00\n        /* \"Samples/weeklyTask2.sol\":1210:1220  propertyID */\n      dup4\n        /* \"Samples/weeklyTask2.sol\":1197:1221  propertySell[propertyID] */\n      dup2\n      mstore\n      0x20\n      add\n      swap1\n      dup2\n      mstore\n      0x20\n      add\n      0x00\n      keccak256\n        /* \"Samples/weeklyTask2.sol\":1182:1221  updateRecord = propertySell[propertyID] */\n      swap1\n      pop\n        /* \"Samples/weeklyTask2.sol\":1252:1264  updateRecord */\n      dup1\n        /* \"Samples/weeklyTask2.sol\":1252:1270  updateRecord.price */\n      0x04\n      add\n      sload\n        /* \"Samples/weeklyTask2.sol\":1240:1249  msg.value */\n      callvalue\n        /* \"Samples/weeklyTask2.sol\":1240:1270  msg.value >=updateRecord.price */\n      lt\n      iszero\n        /* \"Samples/weeklyTask2.sol\":1232:1294  require(msg.value >=updateRecord.price,\"not required amount\" ) */\n      tag_53\n      jumpi\n      mload(0x40)\n      0x08c379a000000000000000000000000000000000000000000000000000000000\n      dup2\n      mstore\n      0x04\n      add\n      tag_54\n      swap1\n      tag_55\n      jump\t// in\n    tag_54:\n      mload(0x40)\n      dup1\n      swap2\n      sub\n      swap1\n      revert\n    tag_53:\n        /* \"Samples/weeklyTask2.sol\":1325:1335  msg.sender */\n      caller\n        /* \"Samples/weeklyTask2.sol\":1305:1317  updateRecord */\n      dup2\n        /* \"Samples/weeklyTask2.sol\":1305:1323  updateRecord.owner */\n      0x03\n      add\n      0x00\n        /* \"Samples/weeklyTask2.sol\":1305:1335  updateRecord.owner =msg.sender */\n      0x0100\n      exp\n      dup2\n      sload\n      dup2\n      0xffffffffffffffffffffffffffffffffffffffff\n      mul\n      not\n      and\n      swap1\n      dup4\n      0xffffffffffffffffffffffffffffffffffffffff\n      and\n      mul\n      or\n      swap1\n      sstore\n      pop\n        /* \"Samples/weeklyTask2.sol\":1366:1370  true */\n      0x01\n        /* \"Samples/weeklyTask2.sol\":1346:1358  updateRecord */\n      dup2\n        /* \"Samples/weeklyTask2.sol\":1346:1363  updateRecord.sold */\n      0x05\n      add\n      0x00\n        /* \"Samples/weeklyTask2.sol\":1346:1370  updateRecord.sold = true */\n      0x0100\n      exp\n      dup2\n      sload\n      dup2\n      0xff\n      mul\n      not\n      and\n      swap1\n      dup4\n      iszero\n      iszero\n      mul\n      or\n      swap1\n      sstore\n      pop\n        /* \"Samples/weeklyTask2.sol\":1124:1384  {\r... */\n      pop\n        /* \"Samples/weeklyTask2.sol\":1068:1384  function buyingproperty(uint propertyID) public payable {\r... */\n      pop\n      jump\t// out\n        /* \"Samples/weeklyTask2.sol\":516:1060  function SellingProperty( uint propertyID, uint PropertyNo, string memory propertyName,string memory PropertyDetails, uint Price) public {\r... */\n    tag_30:\n        /* \"Samples/weeklyTask2.sol\":679:689  msg.sender */\n      caller\n        /* \"Samples/weeklyTask2.sol\":672:689  owner==msg.sender */\n      0xffffffffffffffffffffffffffffffffffffffff\n      and\n        /* \"Samples/weeklyTask2.sol\":672:677  owner */\n      0x02\n      0x00\n      swap1\n      sload\n      swap1\n      0x0100\n      exp\n      swap1\n      div\n      0xffffffffffffffffffffffffffffffffffffffff\n      and\n        /* \"Samples/weeklyTask2.sol\":672:689  owner==msg.sender */\n      0xffffffffffffffffffffffffffffffffffffffff\n      and\n      eq\n        /* \"Samples/weeklyTask2.sol\":664:726  require(owner==msg.sender, \"only owner can sell the property\") */\n      tag_57\n      jumpi\n      mload(0x40)\n      0x08c379a000000000000000000000000000000000000000000000000000000000\n      dup2\n      mstore\n      0x04\n      add\n      tag_58\n      swap1\n      tag_59\n      jump\t// in\n    tag_58:\n      mload(0x40)\n      dup1\n      swap2\n      sub\n      swap1\n      revert\n    tag_57:\n        /* \"Samples/weeklyTask2.sol\":737:766  propertyDetails memory record */\n      tag_60\n      tag_61\n      jump\t// in\n    tag_60:\n        /* \"Samples/weeklyTask2.sol\":797:807  PropertyNo */\n      dup5\n        /* \"Samples/weeklyTask2.sol\":777:783  record */\n      dup2\n        /* \"Samples/weeklyTask2.sol\":777:794  record.propertyno */\n      0x00\n      add\n        /* \"Samples/weeklyTask2.sol\":777:807  record.propertyno = PropertyNo */\n      dup2\n      dup2\n      mstore\n      pop\n      pop\n        /* \"Samples/weeklyTask2.sol\":840:852  propertyName */\n      dup4\n        /* \"Samples/weeklyTask2.sol\":818:824  record */\n      dup2\n        /* \"Samples/weeklyTask2.sol\":818:837  record.propertyname */\n      0x20\n      add\n        /* \"Samples/weeklyTask2.sol\":818:852  record.propertyname = propertyName */\n      dup2\n      swap1\n      mstore\n      pop\n        /* \"Samples/weeklyTask2.sol\":888:903  PropertyDetails */\n      dup3\n        /* \"Samples/weeklyTask2.sol\":863:869  record */\n      dup2\n        /* \"Samples/weeklyTask2.sol\":863:885  record.propertydetails */\n      0x40\n      add\n        /* \"Samples/weeklyTask2.sol\":863:903  record.propertydetails = PropertyDetails */\n      dup2\n      swap1\n      mstore\n      pop\n        /* \"Samples/weeklyTask2.sol\":929:934  Price */\n      dup2\n        /* \"Samples/weeklyTask2.sol\":914:920  record */\n      dup2\n        /* \"Samples/weeklyTask2.sol\":914:926  record.price */\n      0x80\n      add\n        /* \"Samples/weeklyTask2.sol\":914:934  record.price = Price */\n      dup2\n      dup2\n      mstore\n      pop\n      pop\n        /* \"Samples/weeklyTask2.sol\":959:964  false */\n      0x00\n        /* \"Samples/weeklyTask2.sol\":945:951  record */\n      dup2\n        /* \"Samples/weeklyTask2.sol\":945:956  record.sold */\n      0xa0\n      add\n        /* \"Samples/weeklyTask2.sol\":945:964  record.sold = false */\n      swap1\n      iszero\n      iszero\n      swap1\n      dup2\n      iszero\n      iszero\n      dup2\n      mstore\n      pop\n      pop\n        /* \"Samples/weeklyTask2.sol\":1003:1009  record */\n      dup1\n        /* \"Samples/weeklyTask2.sol\":977:989  propertySell */\n      0x00\n        /* \"Samples/weeklyTask2.sol\":977:1001  propertySell[propertyID] */\n      dup1\n        /* \"Samples/weeklyTask2.sol\":990:1000  propertyID */\n      dup9\n        /* \"Samples/weeklyTask2.sol\":977:1001  propertySell[propertyID] */\n      dup2\n      mstore\n      0x20\n      add\n      swap1\n      dup2\n      mstore\n      0x20\n      add\n      0x00\n      keccak256\n        /* \"Samples/weeklyTask2.sol\":977:1009  propertySell[propertyID] =record */\n      0x00\n      dup3\n      add\n      mload\n      dup2\n      0x00\n      add\n      sstore\n      0x20\n      dup3\n      add\n      mload\n      dup2\n      0x01\n      add\n      swap1\n      dup1\n      mload\n      swap1\n      0x20\n      add\n      swap1\n      tag_62\n      swap3\n      swap2\n      swap1\n      tag_63\n      jump\t// in\n    tag_62:\n      pop\n      0x40\n      dup3\n      add\n      mload\n      dup2\n      0x02\n      add\n      swap1\n      dup1\n      mload\n      swap1\n      0x20\n      add\n      swap1\n      tag_64\n      swap3\n      swap2\n      swap1\n      tag_63\n      jump\t// in\n    tag_64:\n      pop\n      0x60\n      dup3\n      add\n      mload\n      dup2\n      0x03\n      add\n      exp(0x0100, 0x00)\n      dup2\n      sload\n      dup2\n      0xffffffffffffffffffffffffffffffffffffffff\n      mul\n      not\n      and\n      swap1\n      dup4\n      0xffffffffffffffffffffffffffffffffffffffff\n      and\n      mul\n      or\n      swap1\n      sstore\n      pop\n      0x80\n      dup3\n      add\n      mload\n      dup2\n      0x04\n      add\n      sstore\n      0xa0\n      dup3\n      add\n      mload\n      dup2\n      0x05\n      add\n      exp(0x0100, 0x00)\n      dup2\n      sload\n      dup2\n      0xff\n      mul\n      not\n      and\n      swap1\n      dup4\n      iszero\n      iszero\n      mul\n      or\n      swap1\n      sstore\n      pop\n      swap1\n      pop\n      pop\n        /* \"Samples/weeklyTask2.sol\":1021:1035  listofProperty */\n      0x03\n        /* \"Samples/weeklyTask2.sol\":1041:1047  record */\n      dup2\n        /* \"Samples/weeklyTask2.sol\":1021:1048  listofProperty.push(record) */\n      swap1\n      dup1\n      0x01\n      dup2\n      sload\n      add\n      dup1\n      dup3\n      sstore\n      dup1\n      swap2\n      pop\n      pop\n      0x01\n      swap1\n      sub\n      swap1\n      0x00\n      mstore\n      keccak256(0x00, 0x20)\n      swap1\n      0x06\n      mul\n      add\n      0x00\n      swap1\n      swap2\n      swap1\n      swap2\n      swap1\n      swap2\n      pop\n      0x00\n      dup3\n      add\n      mload\n      dup2\n      0x00\n      add\n      sstore\n      0x20\n      dup3\n      add\n      mload\n      dup2\n      0x01\n      add\n      swap1\n      dup1\n      mload\n      swap1\n      0x20\n      add\n      swap1\n      tag_66\n      swap3\n      swap2\n      swap1\n      tag_63\n      jump\t// in\n    tag_66:\n      pop\n      0x40\n      dup3\n      add\n      mload\n      dup2\n      0x02\n      add\n      swap1\n      dup1\n      mload\n      swap1\n      0x20\n      add\n      swap1\n      tag_67\n      swap3\n      swap2\n      swap1\n      tag_63\n      jump\t// in\n    tag_67:\n      pop\n      0x60\n      dup3\n      add\n      mload\n      dup2\n      0x03\n      add\n      exp(0x0100, 0x00)\n      dup2\n      sload\n      dup2\n      0xffffffffffffffffffffffffffffffffffffffff\n      mul\n      not\n      and\n      swap1\n      dup4\n      0xffffffffffffffffffffffffffffffffffffffff\n      and\n      mul\n      or\n      swap1\n      sstore\n      pop\n      0x80\n      dup3\n      add\n      mload\n      dup2\n      0x04\n      add\n      sstore\n      0xa0\n      dup3\n      add\n      mload\n      dup2\n      0x05\n      add\n      exp(0x0100, 0x00)\n      dup2\n      sload\n      dup2\n      0xff\n      mul\n      not\n      and\n      swap1\n      dup4\n      iszero\n      iszero\n      mul\n      or\n      swap1\n      sstore\n      pop\n      pop\n      pop\n        /* \"Samples/weeklyTask2.sol\":653:1060  {\r... */\n      pop\n        /* \"Samples/weeklyTask2.sol\":516:1060  function SellingProperty( uint propertyID, uint PropertyNo, string memory propertyName,string memory PropertyDetails, uint Price) public {\r... */\n      pop\n      pop\n      pop\n      pop\n      pop\n      jump\t// out\n    tag_61:\n      mload(0x40)\n      dup1\n      0xc0\n      add\n      0x40\n      mstore\n      dup1\n      0x00\n      dup2\n      mstore\n      0x20\n      add\n      0x60\n      dup2\n      mstore\n      0x20\n      add\n      0x60\n      dup2\n      mstore\n      0x20\n      add\n      and(0xffffffffffffffffffffffffffffffffffffffff, 0x00)\n      dup2\n      mstore\n      0x20\n      add\n      0x00\n      dup2\n      mstore\n      0x20\n      add\n      iszero(iszero(0x00))\n      dup2\n      mstore\n      pop\n      swap1\n      jump\t// out\n    tag_63:\n      dup3\n      dup1\n      sload\n      tag_68\n      swap1\n      tag_32\n      jump\t// in\n    tag_68:\n      swap1\n      0x00\n      mstore\n      keccak256(0x00, 0x20)\n      swap1\n      0x1f\n      add\n      0x20\n      swap1\n      div\n      dup2\n      add\n      swap3\n      dup3\n      tag_70\n      jumpi\n      0x00\n      dup6\n      sstore\n      jump(tag_69)\n    tag_70:\n      dup3\n      0x1f\n      lt\n      tag_71\n      jumpi\n      dup1\n      mload\n      not(0xff)\n      and\n      dup4\n      dup1\n      add\n      or\n      dup6\n      sstore\n      jump(tag_69)\n    tag_71:\n      dup3\n      dup1\n      add\n      0x01\n      add\n      dup6\n      sstore\n      dup3\n      iszero\n      tag_69\n      jumpi\n      swap2\n      dup3\n      add\n    tag_72:\n      dup3\n      dup2\n      gt\n      iszero\n      tag_73\n      jumpi\n      dup3\n      mload\n      dup3\n      sstore\n      swap2\n      0x20\n      add\n      swap2\n      swap1\n      0x01\n      add\n      swap1\n      jump(tag_72)\n    tag_73:\n    tag_69:\n      pop\n      swap1\n      pop\n      tag_74\n      swap2\n      swap1\n      tag_75\n      jump\t// in\n    tag_74:\n      pop\n      swap1\n      jump\t// out\n    tag_75:\n    tag_76:\n      dup1\n      dup3\n      gt\n      iszero\n      tag_77\n      jumpi\n      0x00\n      dup2\n      0x00\n      swap1\n      sstore\n      pop\n      0x01\n      add\n      jump(tag_76)\n    tag_77:\n      pop\n      swap1\n      jump\t// out\n        /* \"#utility.yul\":7:419   */\n    tag_79:\n        /* \"#utility.yul\":85:90   */\n      0x00\n        /* \"#utility.yul\":110:176   */\n      tag_81\n        /* \"#utility.yul\":126:175   */\n      tag_82\n        /* \"#utility.yul\":168:174   */\n      dup5\n        /* \"#utility.yul\":126:175   */\n      tag_83\n      jump\t// in\n    tag_82:\n        /* \"#utility.yul\":110:176   */\n      tag_84\n      jump\t// in\n    tag_81:\n        /* \"#utility.yul\":101:176   */\n      swap1\n      pop\n        /* \"#utility.yul\":199:205   */\n      dup3\n        /* \"#utility.yul\":192:197   */\n      dup2\n        /* \"#utility.yul\":185:206   */\n      mstore\n        /* \"#utility.yul\":237:241   */\n      0x20\n        /* \"#utility.yul\":230:235   */\n      dup2\n        /* \"#utility.yul\":226:242   */\n      add\n        /* \"#utility.yul\":275:278   */\n      dup5\n        /* \"#utility.yul\":266:272   */\n      dup5\n        /* \"#utility.yul\":261:264   */\n      dup5\n        /* \"#utility.yul\":257:273   */\n      add\n        /* \"#utility.yul\":254:279   */\n      gt\n        /* \"#utility.yul\":251:363   */\n      iszero\n      tag_85\n      jumpi\n        /* \"#utility.yul\":282:361   */\n      tag_86\n      tag_87\n      jump\t// in\n    tag_86:\n        /* \"#utility.yul\":251:363   */\n    tag_85:\n        /* \"#utility.yul\":372:413   */\n      tag_88\n        /* \"#utility.yul\":406:412   */\n      dup5\n        /* \"#utility.yul\":401:404   */\n      dup3\n        /* \"#utility.yul\":396:399   */\n      dup6\n        /* \"#utility.yul\":372:413   */\n      tag_89\n      jump\t// in\n    tag_88:\n        /* \"#utility.yul\":91:419   */\n      pop\n        /* \"#utility.yul\":7:419   */\n      swap4\n      swap3\n      pop\n      pop\n      pop\n      jump\t// out\n        /* \"#utility.yul\":439:779   */\n    tag_90:\n        /* \"#utility.yul\":495:500   */\n      0x00\n        /* \"#utility.yul\":544:547   */\n      dup3\n        /* \"#utility.yul\":537:541   */\n      0x1f\n        /* \"#utility.yul\":529:535   */\n      dup4\n        /* \"#utility.yul\":525:542   */\n      add\n        /* \"#utility.yul\":521:548   */\n      slt\n        /* \"#utility.yul\":511:633   */\n      tag_92\n      jumpi\n        /* \"#utility.yul\":552:631   */\n      tag_93\n      tag_94\n      jump\t// in\n    tag_93:\n        /* \"#utility.yul\":511:633   */\n    tag_92:\n        /* \"#utility.yul\":669:675   */\n      dup2\n        /* \"#utility.yul\":656:676   */\n      calldataload\n        /* \"#utility.yul\":694:773   */\n      tag_95\n        /* \"#utility.yul\":769:772   */\n      dup5\n        /* \"#utility.yul\":761:767   */\n      dup3\n        /* \"#utility.yul\":754:758   */\n      0x20\n        /* \"#utility.yul\":746:752   */\n      dup7\n        /* \"#utility.yul\":742:759   */\n      add\n        /* \"#utility.yul\":694:773   */\n      tag_79\n      jump\t// in\n    tag_95:\n        /* \"#utility.yul\":685:773   */\n      swap2\n      pop\n        /* \"#utility.yul\":501:779   */\n      pop\n        /* \"#utility.yul\":439:779   */\n      swap3\n      swap2\n      pop\n      pop\n      jump\t// out\n        /* \"#utility.yul\":785:924   */\n    tag_96:\n        /* \"#utility.yul\":831:836   */\n      0x00\n        /* \"#utility.yul\":869:875   */\n      dup2\n        /* \"#utility.yul\":856:876   */\n      calldataload\n        /* \"#utility.yul\":847:876   */\n      swap1\n      pop\n        /* \"#utility.yul\":885:918   */\n      tag_98\n        /* \"#utility.yul\":912:917   */\n      dup2\n        /* \"#utility.yul\":885:918   */\n      tag_99\n      jump\t// in\n    tag_98:\n        /* \"#utility.yul\":785:924   */\n      swap3\n      swap2\n      pop\n      pop\n      jump\t// out\n        /* \"#utility.yul\":930:1259   */\n    tag_14:\n        /* \"#utility.yul\":989:995   */\n      0x00\n        /* \"#utility.yul\":1038:1040   */\n      0x20\n        /* \"#utility.yul\":1026:1035   */\n      dup3\n        /* \"#utility.yul\":1017:1024   */\n      dup5\n        /* \"#utility.yul\":1013:1036   */\n      sub\n        /* \"#utility.yul\":1009:1041   */\n      slt\n        /* \"#utility.yul\":1006:1125   */\n      iszero\n      tag_101\n      jumpi\n        /* \"#utility.yul\":1044:1123   */\n      tag_102\n      tag_103\n      jump\t// in\n    tag_102:\n        /* \"#utility.yul\":1006:1125   */\n    tag_101:\n        /* \"#utility.yul\":1164:1165   */\n      0x00\n        /* \"#utility.yul\":1189:1242   */\n      tag_104\n        /* \"#utility.yul\":1234:1241   */\n      dup5\n        /* \"#utility.yul\":1225:1231   */\n      dup3\n        /* \"#utility.yul\":1214:1223   */\n      dup6\n        /* \"#utility.yul\":1210:1232   */\n      add\n        /* \"#utility.yul\":1189:1242   */\n      tag_96\n      jump\t// in\n    tag_104:\n        /* \"#utility.yul\":1179:1242   */\n      swap2\n      pop\n        /* \"#utility.yul\":1135:1252   */\n      pop\n        /* \"#utility.yul\":930:1259   */\n      swap3\n      swap2\n      pop\n      pop\n      jump\t// out\n        /* \"#utility.yul\":1265:2536   */\n    tag_29:\n        /* \"#utility.yul\":1380:1386   */\n      0x00\n        /* \"#utility.yul\":1388:1394   */\n      dup1\n        /* \"#utility.yul\":1396:1402   */\n      0x00\n        /* \"#utility.yul\":1404:1410   */\n      dup1\n        /* \"#utility.yul\":1412:1418   */\n      0x00\n        /* \"#utility.yul\":1461:1464   */\n      0xa0\n        /* \"#utility.yul\":1449:1458   */\n      dup7\n        /* \"#utility.yul\":1440:1447   */\n      dup9\n        /* \"#utility.yul\":1436:1459   */\n      sub\n        /* \"#utility.yul\":1432:1465   */\n      slt\n        /* \"#utility.yul\":1429:1549   */\n      iszero\n      tag_106\n      jumpi\n        /* \"#utility.yul\":1468:1547   */\n      tag_107\n      tag_103\n      jump\t// in\n    tag_107:\n        /* \"#utility.yul\":1429:1549   */\n    tag_106:\n        /* \"#utility.yul\":1588:1589   */\n      0x00\n        /* \"#utility.yul\":1613:1666   */\n      tag_108\n        /* \"#utility.yul\":1658:1665   */\n      dup9\n        /* \"#utility.yul\":1649:1655   */\n      dup3\n        /* \"#utility.yul\":1638:1647   */\n      dup10\n        /* \"#utility.yul\":1634:1656   */\n      add\n        /* \"#utility.yul\":1613:1666   */\n      tag_96\n      jump\t// in\n    tag_108:\n        /* \"#utility.yul\":1603:1666   */\n      swap6\n      pop\n        /* \"#utility.yul\":1559:1676   */\n      pop\n        /* \"#utility.yul\":1715:1717   */\n      0x20\n        /* \"#utility.yul\":1741:1794   */\n      tag_109\n        /* \"#utility.yul\":1786:1793   */\n      dup9\n        /* \"#utility.yul\":1777:1783   */\n      dup3\n        /* \"#utility.yul\":1766:1775   */\n      dup10\n        /* \"#utility.yul\":1762:1784   */\n      add\n        /* \"#utility.yul\":1741:1794   */\n      tag_96\n      jump\t// in\n    tag_109:\n        /* \"#utility.yul\":1731:1794   */\n      swap5\n      pop\n        /* \"#utility.yul\":1686:1804   */\n      pop\n        /* \"#utility.yul\":1871:1873   */\n      0x40\n        /* \"#utility.yul\":1860:1869   */\n      dup7\n        /* \"#utility.yul\":1856:1874   */\n      add\n        /* \"#utility.yul\":1843:1875   */\n      calldataload\n        /* \"#utility.yul\":1902:1920   */\n      0xffffffffffffffff\n        /* \"#utility.yul\":1894:1900   */\n      dup2\n        /* \"#utility.yul\":1891:1921   */\n      gt\n        /* \"#utility.yul\":1888:2005   */\n      iszero\n      tag_110\n      jumpi\n        /* \"#utility.yul\":1924:2003   */\n      tag_111\n      tag_112\n      jump\t// in\n    tag_111:\n        /* \"#utility.yul\":1888:2005   */\n    tag_110:\n        /* \"#utility.yul\":2029:2092   */\n      tag_113\n        /* \"#utility.yul\":2084:2091   */\n      dup9\n        /* \"#utility.yul\":2075:2081   */\n      dup3\n        /* \"#utility.yul\":2064:2073   */\n      dup10\n        /* \"#utility.yul\":2060:2082   */\n      add\n        /* \"#utility.yul\":2029:2092   */\n      tag_90\n      jump\t// in\n    tag_113:\n        /* \"#utility.yul\":2019:2092   */\n      swap4\n      pop\n        /* \"#utility.yul\":1814:2102   */\n      pop\n        /* \"#utility.yul\":2169:2171   */\n      0x60\n        /* \"#utility.yul\":2158:2167   */\n      dup7\n        /* \"#utility.yul\":2154:2172   */\n      add\n        /* \"#utility.yul\":2141:2173   */\n      calldataload\n        /* \"#utility.yul\":2200:2218   */\n      0xffffffffffffffff\n        /* \"#utility.yul\":2192:2198   */\n      dup2\n        /* \"#utility.yul\":2189:2219   */\n      gt\n        /* \"#utility.yul\":2186:2303   */\n      iszero\n      tag_114\n      jumpi\n        /* \"#utility.yul\":2222:2301   */\n      tag_115\n      tag_112\n      jump\t// in\n    tag_115:\n        /* \"#utility.yul\":2186:2303   */\n    tag_114:\n        /* \"#utility.yul\":2327:2390   */\n      tag_116\n        /* \"#utility.yul\":2382:2389   */\n      dup9\n        /* \"#utility.yul\":2373:2379   */\n      dup3\n        /* \"#utility.yul\":2362:2371   */\n      dup10\n        /* \"#utility.yul\":2358:2380   */\n      add\n        /* \"#utility.yul\":2327:2390   */\n      tag_90\n      jump\t// in\n    tag_116:\n        /* \"#utility.yul\":2317:2390   */\n      swap3\n      pop\n        /* \"#utility.yul\":2112:2400   */\n      pop\n        /* \"#utility.yul\":2439:2442   */\n      0x80\n        /* \"#utility.yul\":2466:2519   */\n      tag_117\n        /* \"#utility.yul\":2511:2518   */\n      dup9\n        /* \"#utility.yul\":2502:2508   */\n      dup3\n        /* \"#utility.yul\":2491:2500   */\n      dup10\n        /* \"#utility.yul\":2487:2509   */\n      add\n        /* \"#utility.yul\":2466:2519   */\n      tag_96\n      jump\t// in\n    tag_117:\n        /* \"#utility.yul\":2456:2519   */\n      swap2\n      pop\n        /* \"#utility.yul\":2410:2529   */\n      pop\n        /* \"#utility.yul\":1265:2536   */\n      swap3\n      swap6\n      pop\n      swap3\n      swap6\n      swap1\n      swap4\n      pop\n      jump\t// out\n        /* \"#utility.yul\":2542:2660   */\n    tag_118:\n        /* \"#utility.yul\":2629:2653   */\n      tag_120\n        /* \"#utility.yul\":2647:2652   */\n      dup2\n        /* \"#utility.yul\":2629:2653   */\n      tag_121\n      jump\t// in\n    tag_120:\n        /* \"#utility.yul\":2624:2627   */\n      dup3\n        /* \"#utility.yul\":2617:2654   */\n      mstore\n        /* \"#utility.yul\":2542:2660   */\n      pop\n      pop\n      jump\t// out\n        /* \"#utility.yul\":2666:2775   */\n    tag_122:\n        /* \"#utility.yul\":2747:2768   */\n      tag_124\n        /* \"#utility.yul\":2762:2767   */\n      dup2\n        /* \"#utility.yul\":2747:2768   */\n      tag_125\n      jump\t// in\n    tag_124:\n        /* \"#utility.yul\":2742:2745   */\n      dup3\n        /* \"#utility.yul\":2735:2769   */\n      mstore\n        /* \"#utility.yul\":2666:2775   */\n      pop\n      pop\n      jump\t// out\n        /* \"#utility.yul\":2781:3145   */\n    tag_126:\n        /* \"#utility.yul\":2869:2872   */\n      0x00\n        /* \"#utility.yul\":2897:2936   */\n      tag_128\n        /* \"#utility.yul\":2930:2935   */\n      dup3\n        /* \"#utility.yul\":2897:2936   */\n      tag_129\n      jump\t// in\n    tag_128:\n        /* \"#utility.yul\":2952:3023   */\n      tag_130\n        /* \"#utility.yul\":3016:3022   */\n      dup2\n        /* \"#utility.yul\":3011:3014   */\n      dup6\n        /* \"#utility.yul\":2952:3023   */\n      tag_131\n      jump\t// in\n    tag_130:\n        /* \"#utility.yul\":2945:3023   */\n      swap4\n      pop\n        /* \"#utility.yul\":3032:3084   */\n      tag_132\n        /* \"#utility.yul\":3077:3083   */\n      dup2\n        /* \"#utility.yul\":3072:3075   */\n      dup6\n        /* \"#utility.yul\":3065:3069   */\n      0x20\n        /* \"#utility.yul\":3058:3063   */\n      dup7\n        /* \"#utility.yul\":3054:3070   */\n      add\n        /* \"#utility.yul\":3032:3084   */\n      tag_133\n      jump\t// in\n    tag_132:\n        /* \"#utility.yul\":3109:3138   */\n      tag_134\n        /* \"#utility.yul\":3131:3137   */\n      dup2\n        /* \"#utility.yul\":3109:3138   */\n      tag_135\n      jump\t// in\n    tag_134:\n        /* \"#utility.yul\":3104:3107   */\n      dup5\n        /* \"#utility.yul\":3100:3139   */\n      add\n        /* \"#utility.yul\":3093:3139   */\n      swap2\n      pop\n        /* \"#utility.yul\":2873:3145   */\n      pop\n        /* \"#utility.yul\":2781:3145   */\n      swap3\n      swap2\n      pop\n      pop\n      jump\t// out\n        /* \"#utility.yul\":3151:3517   */\n    tag_136:\n        /* \"#utility.yul\":3293:3296   */\n      0x00\n        /* \"#utility.yul\":3314:3381   */\n      tag_138\n        /* \"#utility.yul\":3378:3380   */\n      0x13\n        /* \"#utility.yul\":3373:3376   */\n      dup4\n        /* \"#utility.yul\":3314:3381   */\n      tag_131\n      jump\t// in\n    tag_138:\n        /* \"#utility.yul\":3307:3381   */\n      swap2\n      pop\n        /* \"#utility.yul\":3390:3483   */\n      tag_139\n        /* \"#utility.yul\":3479:3482   */\n      dup3\n        /* \"#utility.yul\":3390:3483   */\n      tag_140\n      jump\t// in\n    tag_139:\n        /* \"#utility.yul\":3508:3510   */\n      0x20\n        /* \"#utility.yul\":3503:3506   */\n      dup3\n        /* \"#utility.yul\":3499:3511   */\n      add\n        /* \"#utility.yul\":3492:3511   */\n      swap1\n      pop\n        /* \"#utility.yul\":3151:3517   */\n      swap2\n      swap1\n      pop\n      jump\t// out\n        /* \"#utility.yul\":3523:3889   */\n    tag_141:\n        /* \"#utility.yul\":3665:3668   */\n      0x00\n        /* \"#utility.yul\":3686:3753   */\n      tag_143\n        /* \"#utility.yul\":3750:3752   */\n      0x20\n        /* \"#utility.yul\":3745:3748   */\n      dup4\n        /* \"#utility.yul\":3686:3753   */\n      tag_131\n      jump\t// in\n    tag_143:\n        /* \"#utility.yul\":3679:3753   */\n      swap2\n      pop\n        /* \"#utility.yul\":3762:3855   */\n      tag_144\n        /* \"#utility.yul\":3851:3854   */\n      dup3\n        /* \"#utility.yul\":3762:3855   */\n      tag_145\n      jump\t// in\n    tag_144:\n        /* \"#utility.yul\":3880:3882   */\n      0x20\n        /* \"#utility.yul\":3875:3878   */\n      dup3\n        /* \"#utility.yul\":3871:3883   */\n      add\n        /* \"#utility.yul\":3864:3883   */\n      swap1\n      pop\n        /* \"#utility.yul\":3523:3889   */\n      swap2\n      swap1\n      pop\n      jump\t// out\n        /* \"#utility.yul\":3895:4013   */\n    tag_146:\n        /* \"#utility.yul\":3982:4006   */\n      tag_148\n        /* \"#utility.yul\":4000:4005   */\n      dup2\n        /* \"#utility.yul\":3982:4006   */\n      tag_149\n      jump\t// in\n    tag_148:\n        /* \"#utility.yul\":3977:3980   */\n      dup3\n        /* \"#utility.yul\":3970:4007   */\n      mstore\n        /* \"#utility.yul\":3895:4013   */\n      pop\n      pop\n      jump\t// out\n        /* \"#utility.yul\":4019:4438   */\n    tag_55:\n        /* \"#utility.yul\":4185:4189   */\n      0x00\n        /* \"#utility.yul\":4223:4225   */\n      0x20\n        /* \"#utility.yul\":4212:4221   */\n      dup3\n        /* \"#utility.yul\":4208:4226   */\n      add\n        /* \"#utility.yul\":4200:4226   */\n      swap1\n      pop\n        /* \"#utility.yul\":4272:4281   */\n      dup2\n        /* \"#utility.yul\":4266:4270   */\n      dup2\n        /* \"#utility.yul\":4262:4282   */\n      sub\n        /* \"#utility.yul\":4258:4259   */\n      0x00\n        /* \"#utility.yul\":4247:4256   */\n      dup4\n        /* \"#utility.yul\":4243:4260   */\n      add\n        /* \"#utility.yul\":4236:4283   */\n      mstore\n        /* \"#utility.yul\":4300:4431   */\n      tag_151\n        /* \"#utility.yul\":4426:4430   */\n      dup2\n        /* \"#utility.yul\":4300:4431   */\n      tag_136\n      jump\t// in\n    tag_151:\n        /* \"#utility.yul\":4292:4431   */\n      swap1\n      pop\n        /* \"#utility.yul\":4019:4438   */\n      swap2\n      swap1\n      pop\n      jump\t// out\n        /* \"#utility.yul\":4444:4863   */\n    tag_59:\n        /* \"#utility.yul\":4610:4614   */\n      0x00\n        /* \"#utility.yul\":4648:4650   */\n      0x20\n        /* \"#utility.yul\":4637:4646   */\n      dup3\n        /* \"#utility.yul\":4633:4651   */\n      add\n        /* \"#utility.yul\":4625:4651   */\n      swap1\n      pop\n        /* \"#utility.yul\":4697:4706   */\n      dup2\n        /* \"#utility.yul\":4691:4695   */\n      dup2\n        /* \"#utility.yul\":4687:4707   */\n      sub\n        /* \"#utility.yul\":4683:4684   */\n      0x00\n        /* \"#utility.yul\":4672:4681   */\n      dup4\n        /* \"#utility.yul\":4668:4685   */\n      add\n        /* \"#utility.yul\":4661:4708   */\n      mstore\n        /* \"#utility.yul\":4725:4856   */\n      tag_153\n        /* \"#utility.yul\":4851:4855   */\n      dup2\n        /* \"#utility.yul\":4725:4856   */\n      tag_141\n      jump\t// in\n    tag_153:\n        /* \"#utility.yul\":4717:4856   */\n      swap1\n      pop\n        /* \"#utility.yul\":4444:4863   */\n      swap2\n      swap1\n      pop\n      jump\t// out\n        /* \"#utility.yul\":4869:5814   */\n    tag_17:\n        /* \"#utility.yul\":5136:5140   */\n      0x00\n        /* \"#utility.yul\":5174:5177   */\n      0xc0\n        /* \"#utility.yul\":5163:5172   */\n      dup3\n        /* \"#utility.yul\":5159:5178   */\n      add\n        /* \"#utility.yul\":5151:5178   */\n      swap1\n      pop\n        /* \"#utility.yul\":5188:5259   */\n      tag_155\n        /* \"#utility.yul\":5256:5257   */\n      0x00\n        /* \"#utility.yul\":5245:5254   */\n      dup4\n        /* \"#utility.yul\":5241:5258   */\n      add\n        /* \"#utility.yul\":5232:5238   */\n      dup10\n        /* \"#utility.yul\":5188:5259   */\n      tag_146\n      jump\t// in\n    tag_155:\n        /* \"#utility.yul\":5306:5315   */\n      dup2\n        /* \"#utility.yul\":5300:5304   */\n      dup2\n        /* \"#utility.yul\":5296:5316   */\n      sub\n        /* \"#utility.yul\":5291:5293   */\n      0x20\n        /* \"#utility.yul\":5280:5289   */\n      dup4\n        /* \"#utility.yul\":5276:5294   */\n      add\n        /* \"#utility.yul\":5269:5317   */\n      mstore\n        /* \"#utility.yul\":5334:5412   */\n      tag_156\n        /* \"#utility.yul\":5407:5411   */\n      dup2\n        /* \"#utility.yul\":5398:5404   */\n      dup9\n        /* \"#utility.yul\":5334:5412   */\n      tag_126\n      jump\t// in\n    tag_156:\n        /* \"#utility.yul\":5326:5412   */\n      swap1\n      pop\n        /* \"#utility.yul\":5459:5468   */\n      dup2\n        /* \"#utility.yul\":5453:5457   */\n      dup2\n        /* \"#utility.yul\":5449:5469   */\n      sub\n        /* \"#utility.yul\":5444:5446   */\n      0x40\n        /* \"#utility.yul\":5433:5442   */\n      dup4\n        /* \"#utility.yul\":5429:5447   */\n      add\n        /* \"#utility.yul\":5422:5470   */\n      mstore\n        /* \"#utility.yul\":5487:5565   */\n      tag_157\n        /* \"#utility.yul\":5560:5564   */\n      dup2\n        /* \"#utility.yul\":5551:5557   */\n      dup8\n        /* \"#utility.yul\":5487:5565   */\n      tag_126\n      jump\t// in\n    tag_157:\n        /* \"#utility.yul\":5479:5565   */\n      swap1\n      pop\n        /* \"#utility.yul\":5575:5647   */\n      tag_158\n        /* \"#utility.yul\":5643:5645   */\n      0x60\n        /* \"#utility.yul\":5632:5641   */\n      dup4\n        /* \"#utility.yul\":5628:5646   */\n      add\n        /* \"#utility.yul\":5619:5625   */\n      dup7\n        /* \"#utility.yul\":5575:5647   */\n      tag_118\n      jump\t// in\n    tag_158:\n        /* \"#utility.yul\":5657:5730   */\n      tag_159\n        /* \"#utility.yul\":5725:5728   */\n      0x80\n        /* \"#utility.yul\":5714:5723   */\n      dup4\n        /* \"#utility.yul\":5710:5729   */\n      add\n        /* \"#utility.yul\":5701:5707   */\n      dup6\n        /* \"#utility.yul\":5657:5730   */\n      tag_146\n      jump\t// in\n    tag_159:\n        /* \"#utility.yul\":5740:5807   */\n      tag_160\n        /* \"#utility.yul\":5802:5805   */\n      0xa0\n        /* \"#utility.yul\":5791:5800   */\n      dup4\n        /* \"#utility.yul\":5787:5806   */\n      add\n        /* \"#utility.yul\":5778:5784   */\n      dup5\n        /* \"#utility.yul\":5740:5807   */\n      tag_122\n      jump\t// in\n    tag_160:\n        /* \"#utility.yul\":4869:5814   */\n      swap8\n      swap7\n      pop\n      pop\n      pop\n      pop\n      pop\n      pop\n      pop\n      jump\t// out\n        /* \"#utility.yul\":5820:5949   */\n    tag_84:\n        /* \"#utility.yul\":5854:5860   */\n      0x00\n        /* \"#utility.yul\":5881:5901   */\n      tag_162\n      tag_163\n      jump\t// in\n    tag_162:\n        /* \"#utility.yul\":5871:5901   */\n      swap1\n      pop\n        /* \"#utility.yul\":5910:5943   */\n      tag_164\n        /* \"#utility.yul\":5938:5942   */\n      dup3\n        /* \"#utility.yul\":5930:5936   */\n      dup3\n        /* \"#utility.yul\":5910:5943   */\n      tag_165\n      jump\t// in\n    tag_164:\n        /* \"#utility.yul\":5820:5949   */\n      swap2\n      swap1\n      pop\n      jump\t// out\n        /* \"#utility.yul\":5955:6030   */\n    tag_163:\n        /* \"#utility.yul\":5988:5994   */\n      0x00\n        /* \"#utility.yul\":6021:6023   */\n      0x40\n        /* \"#utility.yul\":6015:6024   */\n      mload\n        /* \"#utility.yul\":6005:6024   */\n      swap1\n      pop\n        /* \"#utility.yul\":5955:6030   */\n      swap1\n      jump\t// out\n        /* \"#utility.yul\":6036:6344   */\n    tag_83:\n        /* \"#utility.yul\":6098:6102   */\n      0x00\n        /* \"#utility.yul\":6188:6206   */\n      0xffffffffffffffff\n        /* \"#utility.yul\":6180:6186   */\n      dup3\n        /* \"#utility.yul\":6177:6207   */\n      gt\n        /* \"#utility.yul\":6174:6230   */\n      iszero\n      tag_168\n      jumpi\n        /* \"#utility.yul\":6210:6228   */\n      tag_169\n      tag_170\n      jump\t// in\n    tag_169:\n        /* \"#utility.yul\":6174:6230   */\n    tag_168:\n        /* \"#utility.yul\":6248:6277   */\n      tag_171\n        /* \"#utility.yul\":6270:6276   */\n      dup3\n        /* \"#utility.yul\":6248:6277   */\n      tag_135\n      jump\t// in\n    tag_171:\n        /* \"#utility.yul\":6240:6277   */\n      swap1\n      pop\n        /* \"#utility.yul\":6332:6336   */\n      0x20\n        /* \"#utility.yul\":6326:6330   */\n      dup2\n        /* \"#utility.yul\":6322:6337   */\n      add\n        /* \"#utility.yul\":6314:6337   */\n      swap1\n      pop\n        /* \"#utility.yul\":6036:6344   */\n      swap2\n      swap1\n      pop\n      jump\t// out\n        /* \"#utility.yul\":6350:6449   */\n    tag_129:\n        /* \"#utility.yul\":6402:6408   */\n      0x00\n        /* \"#utility.yul\":6436:6441   */\n      dup2\n        /* \"#utility.yul\":6430:6442   */\n      mload\n        /* \"#utility.yul\":6420:6442   */\n      swap1\n      pop\n        /* \"#utility.yul\":6350:6449   */\n      swap2\n      swap1\n      pop\n      jump\t// out\n        /* \"#utility.yul\":6455:6624   */\n    tag_131:\n        /* \"#utility.yul\":6539:6550   */\n      0x00\n        /* \"#utility.yul\":6573:6579   */\n      dup3\n        /* \"#utility.yul\":6568:6571   */\n      dup3\n        /* \"#utility.yul\":6561:6580   */\n      mstore\n        /* \"#utility.yul\":6613:6617   */\n      0x20\n        /* \"#utility.yul\":6608:6611   */\n      dup3\n        /* \"#utility.yul\":6604:6618   */\n      add\n        /* \"#utility.yul\":6589:6618   */\n      swap1\n      pop\n        /* \"#utility.yul\":6455:6624   */\n      swap3\n      swap2\n      pop\n      pop\n      jump\t// out\n        /* \"#utility.yul\":6630:6726   */\n    tag_121:\n        /* \"#utility.yul\":6667:6674   */\n      0x00\n        /* \"#utility.yul\":6696:6720   */\n      tag_175\n        /* \"#utility.yul\":6714:6719   */\n      dup3\n        /* \"#utility.yul\":6696:6720   */\n      tag_176\n      jump\t// in\n    tag_175:\n        /* \"#utility.yul\":6685:6720   */\n      swap1\n      pop\n        /* \"#utility.yul\":6630:6726   */\n      swap2\n      swap1\n      pop\n      jump\t// out\n        /* \"#utility.yul\":6732:6822   */\n    tag_125:\n        /* \"#utility.yul\":6766:6773   */\n      0x00\n        /* \"#utility.yul\":6809:6814   */\n      dup2\n        /* \"#utility.yul\":6802:6815   */\n      iszero\n        /* \"#utility.yul\":6795:6816   */\n      iszero\n        /* \"#utility.yul\":6784:6816   */\n      swap1\n      pop\n        /* \"#utility.yul\":6732:6822   */\n      swap2\n      swap1\n      pop\n      jump\t// out\n        /* \"#utility.yul\":6828:6954   */\n    tag_176:\n        /* \"#utility.yul\":6865:6872   */\n      0x00\n        /* \"#utility.yul\":6905:6947   */\n      0xffffffffffffffffffffffffffffffffffffffff\n        /* \"#utility.yul\":6898:6903   */\n      dup3\n        /* \"#utility.yul\":6894:6948   */\n      and\n        /* \"#utility.yul\":6883:6948   */\n      swap1\n      pop\n        /* \"#utility.yul\":6828:6954   */\n      swap2\n      swap1\n      pop\n      jump\t// out\n        /* \"#utility.yul\":6960:7037   */\n    tag_149:\n        /* \"#utility.yul\":6997:7004   */\n      0x00\n        /* \"#utility.yul\":7026:7031   */\n      dup2\n        /* \"#utility.yul\":7015:7031   */\n      swap1\n      pop\n        /* \"#utility.yul\":6960:7037   */\n      swap2\n      swap1\n      pop\n      jump\t// out\n        /* \"#utility.yul\":7043:7197   */\n    tag_89:\n        /* \"#utility.yul\":7127:7133   */\n      dup3\n        /* \"#utility.yul\":7122:7125   */\n      dup2\n        /* \"#utility.yul\":7117:7120   */\n      dup4\n        /* \"#utility.yul\":7104:7134   */\n      calldatacopy\n        /* \"#utility.yul\":7189:7190   */\n      0x00\n        /* \"#utility.yul\":7180:7186   */\n      dup4\n        /* \"#utility.yul\":7175:7178   */\n      dup4\n        /* \"#utility.yul\":7171:7187   */\n      add\n        /* \"#utility.yul\":7164:7191   */\n      mstore\n        /* \"#utility.yul\":7043:7197   */\n      pop\n      pop\n      pop\n      jump\t// out\n        /* \"#utility.yul\":7203:7510   */\n    tag_133:\n        /* \"#utility.yul\":7271:7272   */\n      0x00\n        /* \"#utility.yul\":7281:7394   */\n    tag_182:\n        /* \"#utility.yul\":7295:7301   */\n      dup4\n        /* \"#utility.yul\":7292:7293   */\n      dup2\n        /* \"#utility.yul\":7289:7302   */\n      lt\n        /* \"#utility.yul\":7281:7394   */\n      iszero\n      tag_184\n      jumpi\n        /* \"#utility.yul\":7380:7381   */\n      dup1\n        /* \"#utility.yul\":7375:7378   */\n      dup3\n        /* \"#utility.yul\":7371:7382   */\n      add\n        /* \"#utility.yul\":7365:7383   */\n      mload\n        /* \"#utility.yul\":7361:7362   */\n      dup2\n        /* \"#utility.yul\":7356:7359   */\n      dup5\n        /* \"#utility.yul\":7352:7363   */\n      add\n        /* \"#utility.yul\":7345:7384   */\n      mstore\n        /* \"#utility.yul\":7317:7319   */\n      0x20\n        /* \"#utility.yul\":7314:7315   */\n      dup2\n        /* \"#utility.yul\":7310:7320   */\n      add\n        /* \"#utility.yul\":7305:7320   */\n      swap1\n      pop\n        /* \"#utility.yul\":7281:7394   */\n      jump(tag_182)\n    tag_184:\n        /* \"#utility.yul\":7412:7418   */\n      dup4\n        /* \"#utility.yul\":7409:7410   */\n      dup2\n        /* \"#utility.yul\":7406:7419   */\n      gt\n        /* \"#utility.yul\":7403:7504   */\n      iszero\n      tag_185\n      jumpi\n        /* \"#utility.yul\":7492:7493   */\n      0x00\n        /* \"#utility.yul\":7483:7489   */\n      dup5\n        /* \"#utility.yul\":7478:7481   */\n      dup5\n        /* \"#utility.yul\":7474:7490   */\n      add\n        /* \"#utility.yul\":7467:7494   */\n      mstore\n        /* \"#utility.yul\":7403:7504   */\n    tag_185:\n        /* \"#utility.yul\":7252:7510   */\n      pop\n        /* \"#utility.yul\":7203:7510   */\n      pop\n      pop\n      pop\n      jump\t// out\n        /* \"#utility.yul\":7516:7836   */\n    tag_32:\n        /* \"#utility.yul\":7560:7566   */\n      0x00\n        /* \"#utility.yul\":7597:7598   */\n      0x02\n        /* \"#utility.yul\":7591:7595   */\n      dup3\n        /* \"#utility.yul\":7587:7599   */\n      div\n        /* \"#utility.yul\":7577:7599   */\n      swap1\n      pop\n        /* \"#utility.yul\":7644:7645   */\n      0x01\n        /* \"#utility.yul\":7638:7642   */\n      dup3\n        /* \"#utility.yul\":7634:7646   */\n      and\n        /* \"#utility.yul\":7665:7683   */\n      dup1\n        /* \"#utility.yul\":7655:7736   */\n      tag_187\n      jumpi\n        /* \"#utility.yul\":7721:7725   */\n      0x7f\n        /* \"#utility.yul\":7713:7719   */\n      dup3\n        /* \"#utility.yul\":7709:7726   */\n      and\n        /* \"#utility.yul\":7699:7726   */\n      swap2\n      pop\n        /* \"#utility.yul\":7655:7736   */\n    tag_187:\n        /* \"#utility.yul\":7783:7785   */\n      0x20\n        /* \"#utility.yul\":7775:7781   */\n      dup3\n        /* \"#utility.yul\":7772:7786   */\n      lt\n        /* \"#utility.yul\":7752:7770   */\n      dup2\n        /* \"#utility.yul\":7749:7787   */\n      eq\n        /* \"#utility.yul\":7746:7830   */\n      iszero\n      tag_188\n      jumpi\n        /* \"#utility.yul\":7802:7820   */\n      tag_189\n      tag_190\n      jump\t// in\n    tag_189:\n        /* \"#utility.yul\":7746:7830   */\n    tag_188:\n        /* \"#utility.yul\":7567:7836   */\n      pop\n        /* \"#utility.yul\":7516:7836   */\n      swap2\n      swap1\n      pop\n      jump\t// out\n        /* \"#utility.yul\":7842:8123   */\n    tag_165:\n        /* \"#utility.yul\":7925:7952   */\n      tag_192\n        /* \"#utility.yul\":7947:7951   */\n      dup3\n        /* \"#utility.yul\":7925:7952   */\n      tag_135\n      jump\t// in\n    tag_192:\n        /* \"#utility.yul\":7917:7923   */\n      dup2\n        /* \"#utility.yul\":7913:7953   */\n      add\n        /* \"#utility.yul\":8055:8061   */\n      dup2\n        /* \"#utility.yul\":8043:8053   */\n      dup2\n        /* \"#utility.yul\":8040:8062   */\n      lt\n        /* \"#utility.yul\":8019:8037   */\n      0xffffffffffffffff\n        /* \"#utility.yul\":8007:8017   */\n      dup3\n        /* \"#utility.yul\":8004:8038   */\n      gt\n        /* \"#utility.yul\":8001:8063   */\n      or\n        /* \"#utility.yul\":7998:8086   */\n      iszero\n      tag_193\n      jumpi\n        /* \"#utility.yul\":8066:8084   */\n      tag_194\n      tag_170\n      jump\t// in\n    tag_194:\n        /* \"#utility.yul\":7998:8086   */\n    tag_193:\n        /* \"#utility.yul\":8106:8116   */\n      dup1\n        /* \"#utility.yul\":8102:8104   */\n      0x40\n        /* \"#utility.yul\":8095:8117   */\n      mstore\n        /* \"#utility.yul\":7885:8123   */\n      pop\n        /* \"#utility.yul\":7842:8123   */\n      pop\n      pop\n      jump\t// out\n        /* \"#utility.yul\":8129:8309   */\n    tag_190:\n        /* \"#utility.yul\":8177:8254   */\n      0x4e487b7100000000000000000000000000000000000000000000000000000000\n        /* \"#utility.yul\":8174:8175   */\n      0x00\n        /* \"#utility.yul\":8167:8255   */\n      mstore\n        /* \"#utility.yul\":8274:8278   */\n      0x22\n        /* \"#utility.yul\":8271:8272   */\n      0x04\n        /* \"#utility.yul\":8264:8279   */\n      mstore\n        /* \"#utility.yul\":8298:8302   */\n      0x24\n        /* \"#utility.yul\":8295:8296   */\n      0x00\n        /* \"#utility.yul\":8288:8303   */\n      revert\n        /* \"#utility.yul\":8315:8495   */\n    tag_170:\n        /* \"#utility.yul\":8363:8440   */\n      0x4e487b7100000000000000000000000000000000000000000000000000000000\n        /* \"#utility.yul\":8360:8361   */\n      0x00\n        /* \"#utility.yul\":8353:8441   */\n      mstore\n        /* \"#utility.yul\":8460:8464   */\n      0x41\n        /* \"#utility.yul\":8457:8458   */\n      0x04\n        /* \"#utility.yul\":8450:8465   */\n      mstore\n        /* \"#utility.yul\":8484:8488   */\n      0x24\n        /* \"#utility.yul\":8481:8482   */\n      0x00\n        /* \"#utility.yul\":8474:8489   */\n      revert\n        /* \"#utility.yul\":8501:8618   */\n    tag_94:\n        /* \"#utility.yul\":8610:8611   */\n      0x00\n        /* \"#utility.yul\":8607:8608   */\n      dup1\n        /* \"#utility.yul\":8600:8612   */\n      revert\n        /* \"#utility.yul\":8624:8741   */\n    tag_87:\n        /* \"#utility.yul\":8733:8734   */\n      0x00\n        /* \"#utility.yul\":8730:8731   */\n      dup1\n        /* \"#utility.yul\":8723:8735   */\n      revert\n        /* \"#utility.yul\":8747:8864   */\n    tag_112:\n        /* \"#utility.yul\":8856:8857   */\n      0x00\n        /* \"#utility.yul\":8853:8854   */\n      dup1\n        /* \"#utility.yul\":8846:8858   */\n      revert\n        /* \"#utility.yul\":8870:8987   */\n    tag_103:\n        /* \"#utility.yul\":8979:8980   */\n      0x00\n        /* \"#utility.yul\":8976:8977   */\n      dup1\n        /* \"#utility.yul\":8969:8981   */\n      revert\n        /* \"#utility.yul\":8993:9095   */\n    tag_135:\n        /* \"#utility.yul\":9034:9040   */\n      0x00\n        /* \"#utility.yul\":9085:9087   */\n      0x1f\n        /* \"#utility.yul\":9081:9088   */\n      not\n        /* \"#utility.yul\":9076:9078   */\n      0x1f\n        /* \"#utility.yul\":9069:9074   */\n      dup4\n        /* \"#utility.yul\":9065:9079   */\n      add\n        /* \"#utility.yul\":9061:9089   */\n      and\n        /* \"#utility.yul\":9051:9089   */\n      swap1\n      pop\n        /* \"#utility.yul\":8993:9095   */\n      swap2\n      swap1\n      pop\n      jump\t// out\n        /* \"#utility.yul\":9101:9270   */\n    tag_140:\n        /* \"#utility.yul\":9241:9262   */\n      0x6e6f7420726571756972656420616d6f756e7400000000000000000000000000\n        /* \"#utility.yul\":9237:9238   */\n      0x00\n        /* \"#utility.yul\":9229:9235   */\n      dup3\n        /* \"#utility.yul\":9225:9239   */\n      add\n        /* \"#utility.yul\":9218:9263   */\n      mstore\n        /* \"#utility.yul\":9101:9270   */\n      pop\n      jump\t// out\n        /* \"#utility.yul\":9276:9458   */\n    tag_145:\n        /* \"#utility.yul\":9416:9450   */\n      0x6f6e6c79206f776e65722063616e2073656c6c207468652070726f7065727479\n        /* \"#utility.yul\":9412:9413   */\n      0x00\n        /* \"#utility.yul\":9404:9410   */\n      dup3\n        /* \"#utility.yul\":9400:9414   */\n      add\n        /* \"#utility.yul\":9393:9451   */\n      mstore\n        /* \"#utility.yul\":9276:9458   */\n      pop\n      jump\t// out\n        /* \"#utility.yul\":9464:9586   */\n    tag_99:\n        /* \"#utility.yul\":9537:9561   */\n      tag_205\n        /* \"#utility.yul\":9555:9560   */\n      dup2\n        /* \"#utility.yul\":9537:9561   */\n      tag_149\n      jump\t// in\n    tag_205:\n        /* \"#utility.yul\":9530:9535   */\n      dup2\n        /* \"#utility.yul\":9527:9562   */\n      eq\n        /* \"#utility.yul\":9517:9580   */\n      tag_206\n      jumpi\n        /* \"#utility.yul\":9576:9577   */\n      0x00\n        /* \"#utility.yul\":9573:9574   */\n      dup1\n        /* \"#utility.yul\":9566:9578   */\n      revert\n        /* \"#utility.yul\":9517:9580   */\n    tag_206:\n        /* \"#utility.yul\":9464:9586   */\n      pop\n      jump\t// out\n\n    auxdata: 0xa2646970667358221220903c653f873414d972bb1ab491dc62d35f1b0961d36a617d0180be8c63389b7664736f6c63430008070033\n}\n",
				"bytecode": {
					"linkReferences": {},
					"object": "608060405234801561001057600080fd5b5033600260006101000a81548173ffffffffffffffffffffffffffffffffffffffff021916908373ffffffffffffffffffffffffffffffffffffffff160217905550610d7f806100616000396000f3fe6080604052600436106100435760003560e01c806351d2a3b21461004c57806368221a651461008e57806392ff78ba146100d05780639543b149146100ec5761004a565b3661004a57005b005b34801561005857600080fd5b50610073600480360381019061006e91906108c3565b610115565b60405161008596959493929190610a8f565b60405180910390f35b34801561009a57600080fd5b506100b560048036038101906100b091906108c3565b61028e565b6040516100c796959493929190610a8f565b60405180910390f35b6100ea60048036038101906100e591906108c3565b610407565b005b3480156100f857600080fd5b50610113600480360381019061010e91906108f0565b6104c8565b005b600160205280600052604060002060009150905080600001549080600101805461013e90610bfa565b80601f016020809104026020016040519081016040528092919081815260200182805461016a90610bfa565b80156101b75780601f1061018c576101008083540402835291602001916101b7565b820191906000526020600020905b81548152906001019060200180831161019a57829003601f168201915b5050505050908060020180546101cc90610bfa565b80601f01602080910402602001604051908101604052809291908181526020018280546101f890610bfa565b80156102455780601f1061021a57610100808354040283529160200191610245565b820191906000526020600020905b81548152906001019060200180831161022857829003601f168201915b5050505050908060030160009054906101000a900473ffffffffffffffffffffffffffffffffffffffff16908060040154908060050160009054906101000a900460ff16905086565b60006020528060005260406000206000915090508060000154908060010180546102b790610bfa565b80601f01602080910402602001604051908101604052809291908181526020018280546102e390610bfa565b80156103305780601f1061030557610100808354040283529160200191610330565b820191906000526020600020905b81548152906001019060200180831161031357829003601f168201915b50505050509080600201805461034590610bfa565b80601f016020809104026020016040519081016040528092919081815260200182805461037190610bfa565b80156103be5780601f10610393576101008083540402835291602001916103be565b820191906000526020600020905b8154815290600101906020018083116103a157829003601f168201915b5050505050908060030160009054906101000a900473ffffffffffffffffffffffffffffffffffffffff16908060040154908060050160009054906101000a900460ff16905086565b600080600083815260200190815260200160002090508060040154341015610464576040517f08c379a000000000000000000000000000000000000000000000000000000000815260040161045b90610a4f565b60405180910390fd5b338160030160006101000a81548173ffffffffffffffffffffffffffffffffffffffff021916908373ffffffffffffffffffffffffffffffffffffffff16021790555060018160050160006101000a81548160ff0219169083151502179055505050565b3373ffffffffffffffffffffffffffffffffffffffff16600260009054906101000a900473ffffffffffffffffffffffffffffffffffffffff1673ffffffffffffffffffffffffffffffffffffffff1614610558576040517f08c379a000000000000000000000000000000000000000000000000000000000815260040161054f90610a6f565b60405180910390fd5b61056061074d565b848160000181815250508381602001819052508281604001819052508181608001818152505060008160a0019015159081151581525050806000808881526020019081526020016000206000820151816000015560208201518160010190805190602001906105d092919061079b565b5060408201518160020190805190602001906105ed92919061079b565b5060608201518160030160006101000a81548173ffffffffffffffffffffffffffffffffffffffff021916908373ffffffffffffffffffffffffffffffffffffffff1602179055506080820151816004015560a08201518160050160006101000a81548160ff02191690831515021790555090505060038190806001815401808255809150506001900390600052602060002090600602016000909190919091506000820151816000015560208201518160010190805190602001906106b492919061079b565b5060408201518160020190805190602001906106d192919061079b565b5060608201518160030160006101000a81548173ffffffffffffffffffffffffffffffffffffffff021916908373ffffffffffffffffffffffffffffffffffffffff1602179055506080820151816004015560a08201518160050160006101000a81548160ff0219169083151502179055505050505050505050565b6040518060c00160405280600081526020016060815260200160608152602001600073ffffffffffffffffffffffffffffffffffffffff168152602001600081526020016000151581525090565b8280546107a790610bfa565b90600052602060002090601f0160209004810192826107c95760008555610810565b82601f106107e257805160ff1916838001178555610810565b82800160010185558215610810579182015b8281111561080f5782518255916020019190600101906107f4565b5b50905061081d9190610821565b5090565b5b8082111561083a576000816000905550600101610822565b5090565b600061085161084c84610b23565b610afe565b90508281526020810184848401111561086d5761086c610cc0565b5b610878848285610bb8565b509392505050565b600082601f83011261089557610894610cbb565b5b81356108a584826020860161083e565b91505092915050565b6000813590506108bd81610d32565b92915050565b6000602082840312156108d9576108d8610cca565b5b60006108e7848285016108ae565b91505092915050565b600080600080600060a0868803121561090c5761090b610cca565b5b600061091a888289016108ae565b955050602061092b888289016108ae565b945050604086013567ffffffffffffffff81111561094c5761094b610cc5565b5b61095888828901610880565b935050606086013567ffffffffffffffff81111561097957610978610cc5565b5b61098588828901610880565b9250506080610996888289016108ae565b9150509295509295909350565b6109ac81610b70565b82525050565b6109bb81610b82565b82525050565b60006109cc82610b54565b6109d68185610b5f565b93506109e6818560208601610bc7565b6109ef81610ccf565b840191505092915050565b6000610a07601383610b5f565b9150610a1282610ce0565b602082019050919050565b6000610a2a602083610b5f565b9150610a3582610d09565b602082019050919050565b610a4981610bae565b82525050565b60006020820190508181036000830152610a68816109fa565b9050919050565b60006020820190508181036000830152610a8881610a1d565b9050919050565b600060c082019050610aa46000830189610a40565b8181036020830152610ab681886109c1565b90508181036040830152610aca81876109c1565b9050610ad960608301866109a3565b610ae66080830185610a40565b610af360a08301846109b2565b979650505050505050565b6000610b08610b19565b9050610b148282610c2c565b919050565b6000604051905090565b600067ffffffffffffffff821115610b3e57610b3d610c8c565b5b610b4782610ccf565b9050602081019050919050565b600081519050919050565b600082825260208201905092915050565b6000610b7b82610b8e565b9050919050565b60008115159050919050565b600073ffffffffffffffffffffffffffffffffffffffff82169050919050565b6000819050919050565b82818337600083830152505050565b60005b83811015610be5578082015181840152602081019050610bca565b83811115610bf4576000848401525b50505050565b60006002820490506001821680610c1257607f821691505b60208210811415610c2657610c25610c5d565b5b50919050565b610c3582610ccf565b810181811067ffffffffffffffff82111715610c5457610c53610c8c565b5b80604052505050565b7f4e487b7100000000000000000000000000000000000000000000000000000000600052602260045260246000fd5b7f4e487b7100000000000000000000000000000000000000000000000000000000600052604160045260246000fd5b600080fd5b600080fd5b600080fd5b600080fd5b6000601f19601f8301169050919050565b7f6e6f7420726571756972656420616d6f756e7400000000000000000000000000600082015250565b7f6f6e6c79206f776e65722063616e2073656c6c207468652070726f7065727479600082015250565b610d3b81610bae565b8114610d4657600080fd5b5056fea2646970667358221220903c653f873414d972bb1ab491dc62d35f1b0961d36a617d0180be8c63389b7664736f6c63430008070033",
					"opcodes": "PUSH1 0x80 PUSH1 0x40 MSTORE CALLVALUE DUP1 ISZERO PUSH2 0x10 JUMPI PUSH1 0x0 DUP1 REVERT JUMPDEST POP CALLER PUSH1 0x2 PUSH1 0x0 PUSH2 0x100 EXP DUP2 SLOAD DUP2 PUSH20 0xFFFFFFFFFFFFFFFFFFFFFFFFFFFFFFFFFFFFFFFF MUL NOT AND SWAP1 DUP4 PUSH20 0xFFFFFFFFFFFFFFFFFFFFFFFFFFFFFFFFFFFFFFFF AND MUL OR SWAP1 SSTORE POP PUSH2 0xD7F DUP1 PUSH2 0x61 PUSH1 0x0 CODECOPY PUSH1 0x0 RETURN INVALID PUSH1 0x80 PUSH1 0x40 MSTORE PUSH1 0x4 CALLDATASIZE LT PUSH2 0x43 JUMPI PUSH1 0x0 CALLDATALOAD PUSH1 0xE0 SHR DUP1 PUSH4 0x51D2A3B2 EQ PUSH2 0x4C JUMPI DUP1 PUSH4 0x68221A65 EQ PUSH2 0x8E JUMPI DUP1 PUSH4 0x92FF78BA EQ PUSH2 0xD0 JUMPI DUP1 PUSH4 0x9543B149 EQ PUSH2 0xEC JUMPI PUSH2 0x4A JUMP JUMPDEST CALLDATASIZE PUSH2 0x4A JUMPI STOP JUMPDEST STOP JUMPDEST CALLVALUE DUP1 ISZERO PUSH2 0x58 JUMPI PUSH1 0x0 DUP1 REVERT JUMPDEST POP PUSH2 0x73 PUSH1 0x4 DUP1 CALLDATASIZE SUB DUP2 ADD SWAP1 PUSH2 0x6E SWAP2 SWAP1 PUSH2 0x8C3 JUMP JUMPDEST PUSH2 0x115 JUMP JUMPDEST PUSH1 0x40 MLOAD PUSH2 0x85 SWAP7 SWAP6 SWAP5 SWAP4 SWAP3 SWAP2 SWAP1 PUSH2 0xA8F JUMP JUMPDEST PUSH1 0x40 MLOAD DUP1 SWAP2 SUB SWAP1 RETURN JUMPDEST CALLVALUE DUP1 ISZERO PUSH2 0x9A JUMPI PUSH1 0x0 DUP1 REVERT JUMPDEST POP PUSH2 0xB5 PUSH1 0x4 DUP1 CALLDATASIZE SUB DUP2 ADD SWAP1 PUSH2 0xB0 SWAP2 SWAP1 PUSH2 0x8C3 JUMP JUMPDEST PUSH2 0x28E JUMP JUMPDEST PUSH1 0x40 MLOAD PUSH2 0xC7 SWAP7 SWAP6 SWAP5 SWAP4 SWAP3 SWAP2 SWAP1 PUSH2 0xA8F JUMP JUMPDEST PUSH1 0x40 MLOAD DUP1 SWAP2 SUB SWAP1 RETURN JUMPDEST PUSH2 0xEA PUSH1 0x4 DUP1 CALLDATASIZE SUB DUP2 ADD SWAP1 PUSH2 0xE5 SWAP2 SWAP1 PUSH2 0x8C3 JUMP JUMPDEST PUSH2 0x407 JUMP JUMPDEST STOP JUMPDEST CALLVALUE DUP1 ISZERO PUSH2 0xF8 JUMPI PUSH1 0x0 DUP1 REVERT JUMPDEST POP PUSH2 0x113 PUSH1 0x4 DUP1 CALLDATASIZE SUB DUP2 ADD SWAP1 PUSH2 0x10E SWAP2 SWAP1 PUSH2 0x8F0 JUMP JUMPDEST PUSH2 0x4C8 JUMP JUMPDEST STOP JUMPDEST PUSH1 0x1 PUSH1 0x20 MSTORE DUP1 PUSH1 0x0 MSTORE PUSH1 0x40 PUSH1 0x0 KECCAK256 PUSH1 0x0 SWAP2 POP SWAP1 POP DUP1 PUSH1 0x0 ADD SLOAD SWAP1 DUP1 PUSH1 0x1 ADD DUP1 SLOAD PUSH2 0x13E SWAP1 PUSH2 0xBFA JUMP JUMPDEST DUP1 PUSH1 0x1F ADD PUSH1 0x20 DUP1 SWAP2 DIV MUL PUSH1 0x20 ADD PUSH1 0x40 MLOAD SWAP1 DUP2 ADD PUSH1 0x40 MSTORE DUP1 SWAP3 SWAP2 SWAP1 DUP2 DUP2 MSTORE PUSH1 0x20 ADD DUP3 DUP1 SLOAD PUSH2 0x16A SWAP1 PUSH2 0xBFA JUMP JUMPDEST DUP1 ISZERO PUSH2 0x1B7 JUMPI DUP1 PUSH1 0x1F LT PUSH2 0x18C JUMPI PUSH2 0x100 DUP1 DUP4 SLOAD DIV MUL DUP4 MSTORE SWAP2 PUSH1 0x20 ADD SWAP2 PUSH2 0x1B7 JUMP JUMPDEST DUP3 ADD SWAP2 SWAP1 PUSH1 0x0 MSTORE PUSH1 0x20 PUSH1 0x0 KECCAK256 SWAP1 JUMPDEST DUP2 SLOAD DUP2 MSTORE SWAP1 PUSH1 0x1 ADD SWAP1 PUSH1 0x20 ADD DUP1 DUP4 GT PUSH2 0x19A JUMPI DUP3 SWAP1 SUB PUSH1 0x1F AND DUP3 ADD SWAP2 JUMPDEST POP POP POP POP POP SWAP1 DUP1 PUSH1 0x2 ADD DUP1 SLOAD PUSH2 0x1CC SWAP1 PUSH2 0xBFA JUMP JUMPDEST DUP1 PUSH1 0x1F ADD PUSH1 0x20 DUP1 SWAP2 DIV MUL PUSH1 0x20 ADD PUSH1 0x40 MLOAD SWAP1 DUP2 ADD PUSH1 0x40 MSTORE DUP1 SWAP3 SWAP2 SWAP1 DUP2 DUP2 MSTORE PUSH1 0x20 ADD DUP3 DUP1 SLOAD PUSH2 0x1F8 SWAP1 PUSH2 0xBFA JUMP JUMPDEST DUP1 ISZERO PUSH2 0x245 JUMPI DUP1 PUSH1 0x1F LT PUSH2 0x21A JUMPI PUSH2 0x100 DUP1 DUP4 SLOAD DIV MUL DUP4 MSTORE SWAP2 PUSH1 0x20 ADD SWAP2 PUSH2 0x245 JUMP JUMPDEST DUP3 ADD SWAP2 SWAP1 PUSH1 0x0 MSTORE PUSH1 0x20 PUSH1 0x0 KECCAK256 SWAP1 JUMPDEST DUP2 SLOAD DUP2 MSTORE SWAP1 PUSH1 0x1 ADD SWAP1 PUSH1 0x20 ADD DUP1 DUP4 GT PUSH2 0x228 JUMPI DUP3 SWAP1 SUB PUSH1 0x1F AND DUP3 ADD SWAP2 JUMPDEST POP POP POP POP POP SWAP1 DUP1 PUSH1 0x3 ADD PUSH1 0x0 SWAP1 SLOAD SWAP1 PUSH2 0x100 EXP SWAP1 DIV PUSH20 0xFFFFFFFFFFFFFFFFFFFFFFFFFFFFFFFFFFFFFFFF AND SWAP1 DUP1 PUSH1 0x4 ADD SLOAD SWAP1 DUP1 PUSH1 0x5 ADD PUSH1 0x0 SWAP1 SLOAD SWAP1 PUSH2 0x100 EXP SWAP1 DIV PUSH1 0xFF AND SWAP1 POP DUP7 JUMP JUMPDEST PUSH1 0x0 PUSH1 0x20 MSTORE DUP1 PUSH1 0x0 MSTORE PUSH1 0x40 PUSH1 0x0 KECCAK256 PUSH1 0x0 SWAP2 POP SWAP1 POP DUP1 PUSH1 0x0 ADD SLOAD SWAP1 DUP1 PUSH1 0x1 ADD DUP1 SLOAD PUSH2 0x2B7 SWAP1 PUSH2 0xBFA JUMP JUMPDEST DUP1 PUSH1 0x1F ADD PUSH1 0x20 DUP1 SWAP2 DIV MUL PUSH1 0x20 ADD PUSH1 0x40 MLOAD SWAP1 DUP2 ADD PUSH1 0x40 MSTORE DUP1 SWAP3 SWAP2 SWAP1 DUP2 DUP2 MSTORE PUSH1 0x20 ADD DUP3 DUP1 SLOAD PUSH2 0x2E3 SWAP1 PUSH2 0xBFA JUMP JUMPDEST DUP1 ISZERO PUSH2 0x330 JUMPI DUP1 PUSH1 0x1F LT PUSH2 0x305 JUMPI PUSH2 0x100 DUP1 DUP4 SLOAD DIV MUL DUP4 MSTORE SWAP2 PUSH1 0x20 ADD SWAP2 PUSH2 0x330 JUMP JUMPDEST DUP3 ADD SWAP2 SWAP1 PUSH1 0x0 MSTORE PUSH1 0x20 PUSH1 0x0 KECCAK256 SWAP1 JUMPDEST DUP2 SLOAD DUP2 MSTORE SWAP1 PUSH1 0x1 ADD SWAP1 PUSH1 0x20 ADD DUP1 DUP4 GT PUSH2 0x313 JUMPI DUP3 SWAP1 SUB PUSH1 0x1F AND DUP3 ADD SWAP2 JUMPDEST POP POP POP POP POP SWAP1 DUP1 PUSH1 0x2 ADD DUP1 SLOAD PUSH2 0x345 SWAP1 PUSH2 0xBFA JUMP JUMPDEST DUP1 PUSH1 0x1F ADD PUSH1 0x20 DUP1 SWAP2 DIV MUL PUSH1 0x20 ADD PUSH1 0x40 MLOAD SWAP1 DUP2 ADD PUSH1 0x40 MSTORE DUP1 SWAP3 SWAP2 SWAP1 DUP2 DUP2 MSTORE PUSH1 0x20 ADD DUP3 DUP1 SLOAD PUSH2 0x371 SWAP1 PUSH2 0xBFA JUMP JUMPDEST DUP1 ISZERO PUSH2 0x3BE JUMPI DUP1 PUSH1 0x1F LT PUSH2 0x393 JUMPI PUSH2 0x100 DUP1 DUP4 SLOAD DIV MUL DUP4 MSTORE SWAP2 PUSH1 0x20 ADD SWAP2 PUSH2 0x3BE JUMP JUMPDEST DUP3 ADD SWAP2 SWAP1 PUSH1 0x0 MSTORE PUSH1 0x20 PUSH1 0x0 KECCAK256 SWAP1 JUMPDEST DUP2 SLOAD DUP2 MSTORE SWAP1 PUSH1 0x1 ADD SWAP1 PUSH1 0x20 ADD DUP1 DUP4 GT PUSH2 0x3A1 JUMPI DUP3 SWAP1 SUB PUSH1 0x1F AND DUP3 ADD SWAP2 JUMPDEST POP POP POP POP POP SWAP1 DUP1 PUSH1 0x3 ADD PUSH1 0x0 SWAP1 SLOAD SWAP1 PUSH2 0x100 EXP SWAP1 DIV PUSH20 0xFFFFFFFFFFFFFFFFFFFFFFFFFFFFFFFFFFFFFFFF AND SWAP1 DUP1 PUSH1 0x4 ADD SLOAD SWAP1 DUP1 PUSH1 0x5 ADD PUSH1 0x0 SWAP1 SLOAD SWAP1 PUSH2 0x100 EXP SWAP1 DIV PUSH1 0xFF AND SWAP1 POP DUP7 JUMP JUMPDEST PUSH1 0x0 DUP1 PUSH1 0x0 DUP4 DUP2 MSTORE PUSH1 0x20 ADD SWAP1 DUP2 MSTORE PUSH1 0x20 ADD PUSH1 0x0 KECCAK256 SWAP1 POP DUP1 PUSH1 0x4 ADD SLOAD CALLVALUE LT ISZERO PUSH2 0x464 JUMPI PUSH1 0x40 MLOAD PUSH32 0x8C379A000000000000000000000000000000000000000000000000000000000 DUP2 MSTORE PUSH1 0x4 ADD PUSH2 0x45B SWAP1 PUSH2 0xA4F JUMP JUMPDEST PUSH1 0x40 MLOAD DUP1 SWAP2 SUB SWAP1 REVERT JUMPDEST CALLER DUP2 PUSH1 0x3 ADD PUSH1 0x0 PUSH2 0x100 EXP DUP2 SLOAD DUP2 PUSH20 0xFFFFFFFFFFFFFFFFFFFFFFFFFFFFFFFFFFFFFFFF MUL NOT AND SWAP1 DUP4 PUSH20 0xFFFFFFFFFFFFFFFFFFFFFFFFFFFFFFFFFFFFFFFF AND MUL OR SWAP1 SSTORE POP PUSH1 0x1 DUP2 PUSH1 0x5 ADD PUSH1 0x0 PUSH2 0x100 EXP DUP2 SLOAD DUP2 PUSH1 0xFF MUL NOT AND SWAP1 DUP4 ISZERO ISZERO MUL OR SWAP1 SSTORE POP POP POP JUMP JUMPDEST CALLER PUSH20 0xFFFFFFFFFFFFFFFFFFFFFFFFFFFFFFFFFFFFFFFF AND PUSH1 0x2 PUSH1 0x0 SWAP1 SLOAD SWAP1 PUSH2 0x100 EXP SWAP1 DIV PUSH20 0xFFFFFFFFFFFFFFFFFFFFFFFFFFFFFFFFFFFFFFFF AND PUSH20 0xFFFFFFFFFFFFFFFFFFFFFFFFFFFFFFFFFFFFFFFF AND EQ PUSH2 0x558 JUMPI PUSH1 0x40 MLOAD PUSH32 0x8C379A000000000000000000000000000000000000000000000000000000000 DUP2 MSTORE PUSH1 0x4 ADD PUSH2 0x54F SWAP1 PUSH2 0xA6F JUMP JUMPDEST PUSH1 0x40 MLOAD DUP1 SWAP2 SUB SWAP1 REVERT JUMPDEST PUSH2 0x560 PUSH2 0x74D JUMP JUMPDEST DUP5 DUP2 PUSH1 0x0 ADD DUP2 DUP2 MSTORE POP POP DUP4 DUP2 PUSH1 0x20 ADD DUP2 SWAP1 MSTORE POP DUP3 DUP2 PUSH1 0x40 ADD DUP2 SWAP1 MSTORE POP DUP2 DUP2 PUSH1 0x80 ADD DUP2 DUP2 MSTORE POP POP PUSH1 0x0 DUP2 PUSH1 0xA0 ADD SWAP1 ISZERO ISZERO SWAP1 DUP2 ISZERO ISZERO DUP2 MSTORE POP POP DUP1 PUSH1 0x0 DUP1 DUP9 DUP2 MSTORE PUSH1 0x20 ADD SWAP1 DUP2 MSTORE PUSH1 0x20 ADD PUSH1 0x0 KECCAK256 PUSH1 0x0 DUP3 ADD MLOAD DUP2 PUSH1 0x0 ADD SSTORE PUSH1 0x20 DUP3 ADD MLOAD DUP2 PUSH1 0x1 ADD SWAP1 DUP1 MLOAD SWAP1 PUSH1 0x20 ADD SWAP1 PUSH2 0x5D0 SWAP3 SWAP2 SWAP1 PUSH2 0x79B JUMP JUMPDEST POP PUSH1 0x40 DUP3 ADD MLOAD DUP2 PUSH1 0x2 ADD SWAP1 DUP1 MLOAD SWAP1 PUSH1 0x20 ADD SWAP1 PUSH2 0x5ED SWAP3 SWAP2 SWAP1 PUSH2 0x79B JUMP JUMPDEST POP PUSH1 0x60 DUP3 ADD MLOAD DUP2 PUSH1 0x3 ADD PUSH1 0x0 PUSH2 0x100 EXP DUP2 SLOAD DUP2 PUSH20 0xFFFFFFFFFFFFFFFFFFFFFFFFFFFFFFFFFFFFFFFF MUL NOT AND SWAP1 DUP4 PUSH20 0xFFFFFFFFFFFFFFFFFFFFFFFFFFFFFFFFFFFFFFFF AND MUL OR SWAP1 SSTORE POP PUSH1 0x80 DUP3 ADD MLOAD DUP2 PUSH1 0x4 ADD SSTORE PUSH1 0xA0 DUP3 ADD MLOAD DUP2 PUSH1 0x5 ADD PUSH1 0x0 PUSH2 0x100 EXP DUP2 SLOAD DUP2 PUSH1 0xFF MUL NOT AND SWAP1 DUP4 ISZERO ISZERO MUL OR SWAP1 SSTORE POP SWAP1 POP POP PUSH1 0x3 DUP2 SWAP1 DUP1 PUSH1 0x1 DUP2 SLOAD ADD DUP1 DUP3 SSTORE DUP1 SWAP2 POP POP PUSH1 0x1 SWAP1 SUB SWAP1 PUSH1 0x0 MSTORE PUSH1 0x20 PUSH1 0x0 KECCAK256 SWAP1 PUSH1 0x6 MUL ADD PUSH1 0x0 SWAP1 SWAP2 SWAP1 SWAP2 SWAP1 SWAP2 POP PUSH1 0x0 DUP3 ADD MLOAD DUP2 PUSH1 0x0 ADD SSTORE PUSH1 0x20 DUP3 ADD MLOAD DUP2 PUSH1 0x1 ADD SWAP1 DUP1 MLOAD SWAP1 PUSH1 0x20 ADD SWAP1 PUSH2 0x6B4 SWAP3 SWAP2 SWAP1 PUSH2 0x79B JUMP JUMPDEST POP PUSH1 0x40 DUP3 ADD MLOAD DUP2 PUSH1 0x2 ADD SWAP1 DUP1 MLOAD SWAP1 PUSH1 0x20 ADD SWAP1 PUSH2 0x6D1 SWAP3 SWAP2 SWAP1 PUSH2 0x79B JUMP JUMPDEST POP PUSH1 0x60 DUP3 ADD MLOAD DUP2 PUSH1 0x3 ADD PUSH1 0x0 PUSH2 0x100 EXP DUP2 SLOAD DUP2 PUSH20 0xFFFFFFFFFFFFFFFFFFFFFFFFFFFFFFFFFFFFFFFF MUL NOT AND SWAP1 DUP4 PUSH20 0xFFFFFFFFFFFFFFFFFFFFFFFFFFFFFFFFFFFFFFFF AND MUL OR SWAP1 SSTORE POP PUSH1 0x80 DUP3 ADD MLOAD DUP2 PUSH1 0x4 ADD SSTORE PUSH1 0xA0 DUP3 ADD MLOAD DUP2 PUSH1 0x5 ADD PUSH1 0x0 PUSH2 0x100 EXP DUP2 SLOAD DUP2 PUSH1 0xFF MUL NOT AND SWAP1 DUP4 ISZERO ISZERO MUL OR SWAP1 SSTORE POP POP POP POP POP POP POP POP POP JUMP JUMPDEST PUSH1 0x40 MLOAD DUP1 PUSH1 0xC0 ADD PUSH1 0x40 MSTORE DUP1 PUSH1 0x0 DUP2 MSTORE PUSH1 0x20 ADD PUSH1 0x60 DUP2 MSTORE PUSH1 0x20 ADD PUSH1 0x60 DUP2 MSTORE PUSH1 0x20 ADD PUSH1 0x0 PUSH20 0xFFFFFFFFFFFFFFFFFFFFFFFFFFFFFFFFFFFFFFFF AND DUP2 MSTORE PUSH1 0x20 ADD PUSH1 0x0 DUP2 MSTORE PUSH1 0x20 ADD PUSH1 0x0 ISZERO ISZERO DUP2 MSTORE POP SWAP1 JUMP JUMPDEST DUP3 DUP1 SLOAD PUSH2 0x7A7 SWAP1 PUSH2 0xBFA JUMP JUMPDEST SWAP1 PUSH1 0x0 MSTORE PUSH1 0x20 PUSH1 0x0 KECCAK256 SWAP1 PUSH1 0x1F ADD PUSH1 0x20 SWAP1 DIV DUP2 ADD SWAP3 DUP3 PUSH2 0x7C9 JUMPI PUSH1 0x0 DUP6 SSTORE PUSH2 0x810 JUMP JUMPDEST DUP3 PUSH1 0x1F LT PUSH2 0x7E2 JUMPI DUP1 MLOAD PUSH1 0xFF NOT AND DUP4 DUP1 ADD OR DUP6 SSTORE PUSH2 0x810 JUMP JUMPDEST DUP3 DUP1 ADD PUSH1 0x1 ADD DUP6 SSTORE DUP3 ISZERO PUSH2 0x810 JUMPI SWAP2 DUP3 ADD JUMPDEST DUP3 DUP2 GT ISZERO PUSH2 0x80F JUMPI DUP3 MLOAD DUP3 SSTORE SWAP2 PUSH1 0x20 ADD SWAP2 SWAP1 PUSH1 0x1 ADD SWAP1 PUSH2 0x7F4 JUMP JUMPDEST JUMPDEST POP SWAP1 POP PUSH2 0x81D SWAP2 SWAP1 PUSH2 0x821 JUMP JUMPDEST POP SWAP1 JUMP JUMPDEST JUMPDEST DUP1 DUP3 GT ISZERO PUSH2 0x83A JUMPI PUSH1 0x0 DUP2 PUSH1 0x0 SWAP1 SSTORE POP PUSH1 0x1 ADD PUSH2 0x822 JUMP JUMPDEST POP SWAP1 JUMP JUMPDEST PUSH1 0x0 PUSH2 0x851 PUSH2 0x84C DUP5 PUSH2 0xB23 JUMP JUMPDEST PUSH2 0xAFE JUMP JUMPDEST SWAP1 POP DUP3 DUP2 MSTORE PUSH1 0x20 DUP2 ADD DUP5 DUP5 DUP5 ADD GT ISZERO PUSH2 0x86D JUMPI PUSH2 0x86C PUSH2 0xCC0 JUMP JUMPDEST JUMPDEST PUSH2 0x878 DUP5 DUP3 DUP6 PUSH2 0xBB8 JUMP JUMPDEST POP SWAP4 SWAP3 POP POP POP JUMP JUMPDEST PUSH1 0x0 DUP3 PUSH1 0x1F DUP4 ADD SLT PUSH2 0x895 JUMPI PUSH2 0x894 PUSH2 0xCBB JUMP JUMPDEST JUMPDEST DUP2 CALLDATALOAD PUSH2 0x8A5 DUP5 DUP3 PUSH1 0x20 DUP7 ADD PUSH2 0x83E JUMP JUMPDEST SWAP2 POP POP SWAP3 SWAP2 POP POP JUMP JUMPDEST PUSH1 0x0 DUP2 CALLDATALOAD SWAP1 POP PUSH2 0x8BD DUP2 PUSH2 0xD32 JUMP JUMPDEST SWAP3 SWAP2 POP POP JUMP JUMPDEST PUSH1 0x0 PUSH1 0x20 DUP3 DUP5 SUB SLT ISZERO PUSH2 0x8D9 JUMPI PUSH2 0x8D8 PUSH2 0xCCA JUMP JUMPDEST JUMPDEST PUSH1 0x0 PUSH2 0x8E7 DUP5 DUP3 DUP6 ADD PUSH2 0x8AE JUMP JUMPDEST SWAP2 POP POP SWAP3 SWAP2 POP POP JUMP JUMPDEST PUSH1 0x0 DUP1 PUSH1 0x0 DUP1 PUSH1 0x0 PUSH1 0xA0 DUP7 DUP9 SUB SLT ISZERO PUSH2 0x90C JUMPI PUSH2 0x90B PUSH2 0xCCA JUMP JUMPDEST JUMPDEST PUSH1 0x0 PUSH2 0x91A DUP9 DUP3 DUP10 ADD PUSH2 0x8AE JUMP JUMPDEST SWAP6 POP POP PUSH1 0x20 PUSH2 0x92B DUP9 DUP3 DUP10 ADD PUSH2 0x8AE JUMP JUMPDEST SWAP5 POP POP PUSH1 0x40 DUP7 ADD CALLDATALOAD PUSH8 0xFFFFFFFFFFFFFFFF DUP2 GT ISZERO PUSH2 0x94C JUMPI PUSH2 0x94B PUSH2 0xCC5 JUMP JUMPDEST JUMPDEST PUSH2 0x958 DUP9 DUP3 DUP10 ADD PUSH2 0x880 JUMP JUMPDEST SWAP4 POP POP PUSH1 0x60 DUP7 ADD CALLDATALOAD PUSH8 0xFFFFFFFFFFFFFFFF DUP2 GT ISZERO PUSH2 0x979 JUMPI PUSH2 0x978 PUSH2 0xCC5 JUMP JUMPDEST JUMPDEST PUSH2 0x985 DUP9 DUP3 DUP10 ADD PUSH2 0x880 JUMP JUMPDEST SWAP3 POP POP PUSH1 0x80 PUSH2 0x996 DUP9 DUP3 DUP10 ADD PUSH2 0x8AE JUMP JUMPDEST SWAP2 POP POP SWAP3 SWAP6 POP SWAP3 SWAP6 SWAP1 SWAP4 POP JUMP JUMPDEST PUSH2 0x9AC DUP2 PUSH2 0xB70 JUMP JUMPDEST DUP3 MSTORE POP POP JUMP JUMPDEST PUSH2 0x9BB DUP2 PUSH2 0xB82 JUMP JUMPDEST DUP3 MSTORE POP POP JUMP JUMPDEST PUSH1 0x0 PUSH2 0x9CC DUP3 PUSH2 0xB54 JUMP JUMPDEST PUSH2 0x9D6 DUP2 DUP6 PUSH2 0xB5F JUMP JUMPDEST SWAP4 POP PUSH2 0x9E6 DUP2 DUP6 PUSH1 0x20 DUP7 ADD PUSH2 0xBC7 JUMP JUMPDEST PUSH2 0x9EF DUP2 PUSH2 0xCCF JUMP JUMPDEST DUP5 ADD SWAP2 POP POP SWAP3 SWAP2 POP POP JUMP JUMPDEST PUSH1 0x0 PUSH2 0xA07 PUSH1 0x13 DUP4 PUSH2 0xB5F JUMP JUMPDEST SWAP2 POP PUSH2 0xA12 DUP3 PUSH2 0xCE0 JUMP JUMPDEST PUSH1 0x20 DUP3 ADD SWAP1 POP SWAP2 SWAP1 POP JUMP JUMPDEST PUSH1 0x0 PUSH2 0xA2A PUSH1 0x20 DUP4 PUSH2 0xB5F JUMP JUMPDEST SWAP2 POP PUSH2 0xA35 DUP3 PUSH2 0xD09 JUMP JUMPDEST PUSH1 0x20 DUP3 ADD SWAP1 POP SWAP2 SWAP1 POP JUMP JUMPDEST PUSH2 0xA49 DUP2 PUSH2 0xBAE JUMP JUMPDEST DUP3 MSTORE POP POP JUMP JUMPDEST PUSH1 0x0 PUSH1 0x20 DUP3 ADD SWAP1 POP DUP2 DUP2 SUB PUSH1 0x0 DUP4 ADD MSTORE PUSH2 0xA68 DUP2 PUSH2 0x9FA JUMP JUMPDEST SWAP1 POP SWAP2 SWAP1 POP JUMP JUMPDEST PUSH1 0x0 PUSH1 0x20 DUP3 ADD SWAP1 POP DUP2 DUP2 SUB PUSH1 0x0 DUP4 ADD MSTORE PUSH2 0xA88 DUP2 PUSH2 0xA1D JUMP JUMPDEST SWAP1 POP SWAP2 SWAP1 POP JUMP JUMPDEST PUSH1 0x0 PUSH1 0xC0 DUP3 ADD SWAP1 POP PUSH2 0xAA4 PUSH1 0x0 DUP4 ADD DUP10 PUSH2 0xA40 JUMP JUMPDEST DUP2 DUP2 SUB PUSH1 0x20 DUP4 ADD MSTORE PUSH2 0xAB6 DUP2 DUP9 PUSH2 0x9C1 JUMP JUMPDEST SWAP1 POP DUP2 DUP2 SUB PUSH1 0x40 DUP4 ADD MSTORE PUSH2 0xACA DUP2 DUP8 PUSH2 0x9C1 JUMP JUMPDEST SWAP1 POP PUSH2 0xAD9 PUSH1 0x60 DUP4 ADD DUP7 PUSH2 0x9A3 JUMP JUMPDEST PUSH2 0xAE6 PUSH1 0x80 DUP4 ADD DUP6 PUSH2 0xA40 JUMP JUMPDEST PUSH2 0xAF3 PUSH1 0xA0 DUP4 ADD DUP5 PUSH2 0x9B2 JUMP JUMPDEST SWAP8 SWAP7 POP POP POP POP POP POP POP JUMP JUMPDEST PUSH1 0x0 PUSH2 0xB08 PUSH2 0xB19 JUMP JUMPDEST SWAP1 POP PUSH2 0xB14 DUP3 DUP3 PUSH2 0xC2C JUMP JUMPDEST SWAP2 SWAP1 POP JUMP JUMPDEST PUSH1 0x0 PUSH1 0x40 MLOAD SWAP1 POP SWAP1 JUMP JUMPDEST PUSH1 0x0 PUSH8 0xFFFFFFFFFFFFFFFF DUP3 GT ISZERO PUSH2 0xB3E JUMPI PUSH2 0xB3D PUSH2 0xC8C JUMP JUMPDEST JUMPDEST PUSH2 0xB47 DUP3 PUSH2 0xCCF JUMP JUMPDEST SWAP1 POP PUSH1 0x20 DUP2 ADD SWAP1 POP SWAP2 SWAP1 POP JUMP JUMPDEST PUSH1 0x0 DUP2 MLOAD SWAP1 POP SWAP2 SWAP1 POP JUMP JUMPDEST PUSH1 0x0 DUP3 DUP3 MSTORE PUSH1 0x20 DUP3 ADD SWAP1 POP SWAP3 SWAP2 POP POP JUMP JUMPDEST PUSH1 0x0 PUSH2 0xB7B DUP3 PUSH2 0xB8E JUMP JUMPDEST SWAP1 POP SWAP2 SWAP1 POP JUMP JUMPDEST PUSH1 0x0 DUP2 ISZERO ISZERO SWAP1 POP SWAP2 SWAP1 POP JUMP JUMPDEST PUSH1 0x0 PUSH20 0xFFFFFFFFFFFFFFFFFFFFFFFFFFFFFFFFFFFFFFFF DUP3 AND SWAP1 POP SWAP2 SWAP1 POP JUMP JUMPDEST PUSH1 0x0 DUP2 SWAP1 POP SWAP2 SWAP1 POP JUMP JUMPDEST DUP3 DUP2 DUP4 CALLDATACOPY PUSH1 0x0 DUP4 DUP4 ADD MSTORE POP POP POP JUMP JUMPDEST PUSH1 0x0 JUMPDEST DUP4 DUP2 LT ISZERO PUSH2 0xBE5 JUMPI DUP1 DUP3 ADD MLOAD DUP2 DUP5 ADD MSTORE PUSH1 0x20 DUP2 ADD SWAP1 POP PUSH2 0xBCA JUMP JUMPDEST DUP4 DUP2 GT ISZERO PUSH2 0xBF4 JUMPI PUSH1 0x0 DUP5 DUP5 ADD MSTORE JUMPDEST POP POP POP POP JUMP JUMPDEST PUSH1 0x0 PUSH1 0x2 DUP3 DIV SWAP1 POP PUSH1 0x1 DUP3 AND DUP1 PUSH2 0xC12 JUMPI PUSH1 0x7F DUP3 AND SWAP2 POP JUMPDEST PUSH1 0x20 DUP3 LT DUP2 EQ ISZERO PUSH2 0xC26 JUMPI PUSH2 0xC25 PUSH2 0xC5D JUMP JUMPDEST JUMPDEST POP SWAP2 SWAP1 POP JUMP JUMPDEST PUSH2 0xC35 DUP3 PUSH2 0xCCF JUMP JUMPDEST DUP2 ADD DUP2 DUP2 LT PUSH8 0xFFFFFFFFFFFFFFFF DUP3 GT OR ISZERO PUSH2 0xC54 JUMPI PUSH2 0xC53 PUSH2 0xC8C JUMP JUMPDEST JUMPDEST DUP1 PUSH1 0x40 MSTORE POP POP POP JUMP JUMPDEST PUSH32 0x4E487B7100000000000000000000000000000000000000000000000000000000 PUSH1 0x0 MSTORE PUSH1 0x22 PUSH1 0x4 MSTORE PUSH1 0x24 PUSH1 0x0 REVERT JUMPDEST PUSH32 0x4E487B7100000000000000000000000000000000000000000000000000000000 PUSH1 0x0 MSTORE PUSH1 0x41 PUSH1 0x4 MSTORE PUSH1 0x24 PUSH1 0x0 REVERT JUMPDEST PUSH1 0x0 DUP1 REVERT JUMPDEST PUSH1 0x0 DUP1 REVERT JUMPDEST PUSH1 0x0 DUP1 REVERT JUMPDEST PUSH1 0x0 DUP1 REVERT JUMPDEST PUSH1 0x0 PUSH1 0x1F NOT PUSH1 0x1F DUP4 ADD AND SWAP1 POP SWAP2 SWAP1 POP JUMP JUMPDEST PUSH32 0x6E6F7420726571756972656420616D6F756E7400000000000000000000000000 PUSH1 0x0 DUP3 ADD MSTORE POP JUMP JUMPDEST PUSH32 0x6F6E6C79206F776E65722063616E2073656C6C207468652070726F7065727479 PUSH1 0x0 DUP3 ADD MSTORE POP JUMP JUMPDEST PUSH2 0xD3B DUP2 PUSH2 0xBAE JUMP JUMPDEST DUP2 EQ PUSH2 0xD46 JUMPI PUSH1 0x0 DUP1 REVERT JUMPDEST POP JUMP INVALID LOG2 PUSH5 0x6970667358 0x22 SLT KECCAK256 SWAP1 EXTCODECOPY PUSH6 0x3F873414D972 0xBB BYTE 0xB4 SWAP2 0xDC PUSH3 0xD35F1B MULMOD PUSH2 0xD36A PUSH2 0x7D01 DUP1 0xBE DUP13 PUSH4 0x389B7664 PUSH20 0x6F6C634300080700330000000000000000000000 "
				},
				"gasEstimates": {
					"creation": {
						"codeDepositCost": "691000",
						"executionCost": "24987",
						"totalCost": "715987"
					},
					"external": {
						"": "151",
						"SellingProperty(uint256,uint256,string,string,uint256)": "infinite",
						"buyingproperty(uint256)": "51171",
						"propertyList(uint256)": "infinite",
						"propertySell(uint256)": "infinite"
					}
				},
				"methodIdentifiers": {
					"SellingProperty(uint256,uint256,string,string,uint256)": "9543b149",
					"buyingproperty(uint256)": "92ff78ba",
					"propertyList(uint256)": "51d2a3b2",
					"propertySell(uint256)": "68221a65"
				}
			},
			"storageLayout": {
				"storage": [
					{
						"astId": 19,
						"contract": "Samples/weeklyTask2.sol:property",
						"label": "propertySell",
						"offset": 0,
						"slot": "0",
						"type": "t_mapping(t_uint256,t_struct(propertyDetails)14_storage)"
					},
					{
						"astId": 24,
						"contract": "Samples/weeklyTask2.sol:property",
						"label": "propertyList",
						"offset": 0,
						"slot": "1",
						"type": "t_mapping(t_uint256,t_struct(propertyDetails)14_storage)"
					},
					{
						"astId": 26,
						"contract": "Samples/weeklyTask2.sol:property",
						"label": "owner",
						"offset": 0,
						"slot": "2",
						"type": "t_address"
					},
					{
						"astId": 30,
						"contract": "Samples/weeklyTask2.sol:property",
						"label": "listofProperty",
						"offset": 0,
						"slot": "3",
						"type": "t_array(t_struct(propertyDetails)14_storage)dyn_storage"
					}
				],
				"types": {
					"t_address": {
						"encoding": "inplace",
						"label": "address",
						"numberOfBytes": "20"
					},
					"t_array(t_struct(propertyDetails)14_storage)dyn_storage": {
						"base": "t_struct(propertyDetails)14_storage",
						"encoding": "dynamic_array",
						"label": "struct property.propertyDetails[]",
						"numberOfBytes": "32"
					},
					"t_bool": {
						"encoding": "inplace",
						"label": "bool",
						"numberOfBytes": "1"
					},
					"t_mapping(t_uint256,t_struct(propertyDetails)14_storage)": {
						"encoding": "mapping",
						"key": "t_uint256",
						"label": "mapping(uint256 => struct property.propertyDetails)",
						"numberOfBytes": "32",
						"value": "t_struct(propertyDetails)14_storage"
					},
					"t_string_storage": {
						"encoding": "bytes",
						"label": "string",
						"numberOfBytes": "32"
					},
					"t_struct(propertyDetails)14_storage": {
						"encoding": "inplace",
						"label": "struct property.propertyDetails",
						"members": [
							{
								"astId": 3,
								"contract": "Samples/weeklyTask2.sol:property",
								"label": "propertyno",
								"offset": 0,
								"slot": "0",
								"type": "t_uint256"
							},
							{
								"astId": 5,
								"contract": "Samples/weeklyTask2.sol:property",
								"label": "propertyname",
								"offset": 0,
								"slot": "1",
								"type": "t_string_storage"
							},
							{
								"astId": 7,
								"contract": "Samples/weeklyTask2.sol:property",
								"label": "propertydetails",
								"offset": 0,
								"slot": "2",
								"type": "t_string_storage"
							},
							{
								"astId": 9,
								"contract": "Samples/weeklyTask2.sol:property",
								"label": "owner",
								"offset": 0,
								"slot": "3",
								"type": "t_address"
							},
							{
								"astId": 11,
								"contract": "Samples/weeklyTask2.sol:property",
								"label": "price",
								"offset": 0,
								"slot": "4",
								"type": "t_uint256"
							},
							{
								"astId": 13,
								"contract": "Samples/weeklyTask2.sol:property",
								"label": "sold",
								"offset": 0,
								"slot": "5",
								"type": "t_bool"
							}
						],
						"numberOfBytes": "192"
					},
					"t_uint256": {
						"encoding": "inplace",
						"label": "uint256",
						"numberOfBytes": "32"
					}
				}
			},
			"userdoc": {
				"kind": "user",
				"methods": {},
				"version": 1
			}
		}
	}
}