{
	"Samples/reward.sol": {
		"Staking": {
			"abi": [
				{
					"inputs": [],
					"stateMutability": "nonpayable",
					"type": "constructor"
				},
				{
					"anonymous": false,
					"inputs": [
						{
							"indexed": false,
							"internalType": "address",
							"name": "previousAdmin",
							"type": "address"
						},
						{
							"indexed": false,
							"internalType": "address",
							"name": "newAdmin",
							"type": "address"
						}
					],
					"name": "AdminChanged",
					"type": "event"
				},
				{
					"anonymous": false,
					"inputs": [
						{
							"indexed": true,
							"internalType": "address",
							"name": "beacon",
							"type": "address"
						}
					],
					"name": "BeaconUpgraded",
					"type": "event"
				},
				{
					"anonymous": false,
					"inputs": [
						{
							"indexed": true,
							"internalType": "address",
							"name": "user",
							"type": "address"
						},
						{
							"indexed": false,
							"internalType": "uint256",
							"name": "amount",
							"type": "uint256"
						},
						{
							"indexed": false,
							"internalType": "uint256",
							"name": "harvestedAmount",
							"type": "uint256"
						}
					],
					"name": "Deposit",
					"type": "event"
				},
				{
					"anonymous": false,
					"inputs": [
						{
							"indexed": false,
							"internalType": "uint8",
							"name": "version",
							"type": "uint8"
						}
					],
					"name": "Initialized",
					"type": "event"
				},
				{
					"anonymous": false,
					"inputs": [
						{
							"indexed": true,
							"internalType": "address",
							"name": "previousOwner",
							"type": "address"
						},
						{
							"indexed": true,
							"internalType": "address",
							"name": "newOwner",
							"type": "address"
						}
					],
					"name": "OwnershipTransferred",
					"type": "event"
				},
				{
					"anonymous": false,
					"inputs": [
						{
							"indexed": true,
							"internalType": "address",
							"name": "implementation",
							"type": "address"
						}
					],
					"name": "Upgraded",
					"type": "event"
				},
				{
					"anonymous": false,
					"inputs": [
						{
							"indexed": true,
							"internalType": "address",
							"name": "user",
							"type": "address"
						},
						{
							"indexed": false,
							"internalType": "uint256",
							"name": "amount",
							"type": "uint256"
						},
						{
							"indexed": false,
							"internalType": "uint256",
							"name": "harvestedAmount",
							"type": "uint256"
						}
					],
					"name": "Withdraw",
					"type": "event"
				},
				{
					"stateMutability": "payable",
					"type": "fallback"
				},
				{
					"inputs": [],
					"name": "OGBTokenAddress",
					"outputs": [
						{
							"internalType": "address",
							"name": "",
							"type": "address"
						}
					],
					"stateMutability": "view",
					"type": "function"
				},
				{
					"inputs": [],
					"name": "PRECISION_FACTOR",
					"outputs": [
						{
							"internalType": "uint256",
							"name": "",
							"type": "uint256"
						}
					],
					"stateMutability": "view",
					"type": "function"
				},
				{
					"inputs": [],
					"name": "START_BLOCK",
					"outputs": [
						{
							"internalType": "uint256",
							"name": "",
							"type": "uint256"
						}
					],
					"stateMutability": "view",
					"type": "function"
				},
				{
					"inputs": [
						{
							"internalType": "uint256",
							"name": "from",
							"type": "uint256"
						},
						{
							"internalType": "uint256",
							"name": "to",
							"type": "uint256"
						}
					],
					"name": "_getMultiplier",
					"outputs": [
						{
							"internalType": "uint256",
							"name": "",
							"type": "uint256"
						}
					],
					"stateMutability": "view",
					"type": "function"
				},
				{
					"inputs": [],
					"name": "accTokenPerShare",
					"outputs": [
						{
							"internalType": "uint256",
							"name": "",
							"type": "uint256"
						}
					],
					"stateMutability": "view",
					"type": "function"
				},
				{
					"inputs": [
						{
							"internalType": "address",
							"name": "user",
							"type": "address"
						}
					],
					"name": "calculatePendingRewards",
					"outputs": [
						{
							"internalType": "uint256",
							"name": "",
							"type": "uint256"
						},
						{
							"internalType": "uint256",
							"name": "",
							"type": "uint256"
						}
					],
					"stateMutability": "view",
					"type": "function"
				},
				{
					"inputs": [],
					"name": "currentPhase",
					"outputs": [
						{
							"internalType": "uint256",
							"name": "",
							"type": "uint256"
						}
					],
					"stateMutability": "view",
					"type": "function"
				},
				{
					"inputs": [
						{
							"internalType": "uint256",
							"name": "amount",
							"type": "uint256"
						}
					],
					"name": "deposit",
					"outputs": [],
					"stateMutability": "nonpayable",
					"type": "function"
				},
				{
					"inputs": [
						{
							"internalType": "address",
							"name": "destination",
							"type": "address"
						}
					],
					"name": "emergencyWithdrawCurrency",
					"outputs": [
						{
							"internalType": "bool",
							"name": "sent",
							"type": "bool"
						}
					],
					"stateMutability": "nonpayable",
					"type": "function"
				},
				{
					"inputs": [
						{
							"internalType": "address",
							"name": "token",
							"type": "address"
						},
						{
							"internalType": "address",
							"name": "destination",
							"type": "address"
						}
					],
					"name": "emergencyWithdrawToken",
					"outputs": [
						{
							"internalType": "bool",
							"name": "sent",
							"type": "bool"
						}
					],
					"stateMutability": "nonpayable",
					"type": "function"
				},
				{
					"inputs": [],
					"name": "endBlock",
					"outputs": [
						{
							"internalType": "uint256",
							"name": "",
							"type": "uint256"
						}
					],
					"stateMutability": "view",
					"type": "function"
				},
				{
					"inputs": [],
					"name": "getRemainingBlocks",
					"outputs": [
						{
							"internalType": "uint256",
							"name": "_blocks",
							"type": "uint256"
						}
					],
					"stateMutability": "view",
					"type": "function"
				},
				{
					"inputs": [
						{
							"internalType": "address",
							"name": "_tokenAddress",
							"type": "address"
						}
					],
					"name": "getTokenBalance",
					"outputs": [
						{
							"internalType": "uint256",
							"name": "_tokenAmount",
							"type": "uint256"
						}
					],
					"stateMutability": "view",
					"type": "function"
				},
				{
					"inputs": [
						{
							"internalType": "address",
							"name": "_userAddress",
							"type": "address"
						}
					],
					"name": "getUserInfo",
					"outputs": [
						{
							"components": [
								{
									"internalType": "uint256",
									"name": "amount",
									"type": "uint256"
								},
								{
									"internalType": "uint256",
									"name": "rewardAmount",
									"type": "uint256"
								},
								{
									"internalType": "uint256",
									"name": "investmentTime",
									"type": "uint256"
								},
								{
									"internalType": "uint256",
									"name": "rewardWithdrawTime",
									"type": "uint256"
								}
							],
							"internalType": "struct Staking.UserInfo",
							"name": "_userInfo",
							"type": "tuple"
						}
					],
					"stateMutability": "view",
					"type": "function"
				},
				{
					"inputs": [
						{
							"internalType": "uint256",
							"name": "page",
							"type": "uint256"
						},
						{
							"internalType": "uint256",
							"name": "size",
							"type": "uint256"
						},
						{
							"internalType": "address",
							"name": "user",
							"type": "address"
						}
					],
					"name": "getUserTransactions",
					"outputs": [
						{
							"components": [
								{
									"internalType": "uint256",
									"name": "txAmount",
									"type": "uint256"
								},
								{
									"internalType": "uint256",
									"name": "txTime",
									"type": "uint256"
								},
								{
									"internalType": "string",
									"name": "txType",
									"type": "string"
								}
							],
							"internalType": "struct Staking.TxHistory[]",
							"name": "",
							"type": "tuple[]"
						}
					],
					"stateMutability": "view",
					"type": "function"
				},
				{
					"inputs": [
						{
							"internalType": "address",
							"name": "_OGBTokenAddress",
							"type": "address"
						},
						{
							"internalType": "uint256",
							"name": "_startBlock",
							"type": "uint256"
						},
						{
							"internalType": "uint256",
							"name": "_rewardsPerBlockForStaking",
							"type": "uint256"
						},
						{
							"internalType": "uint256",
							"name": "_periodLengthesInBlocks",
							"type": "uint256"
						}
					],
					"name": "initialize",
					"outputs": [],
					"stateMutability": "nonpayable",
					"type": "function"
				},
				{
					"inputs": [
						{
							"internalType": "address",
							"name": "",
							"type": "address"
						}
					],
					"name": "isStakerExists",
					"outputs": [
						{
							"internalType": "bool",
							"name": "",
							"type": "bool"
						}
					],
					"stateMutability": "view",
					"type": "function"
				},
				{
					"inputs": [],
					"name": "lastRewardBlock",
					"outputs": [
						{
							"internalType": "uint256",
							"name": "",
							"type": "uint256"
						}
					],
					"stateMutability": "view",
					"type": "function"
				},
				{
					"inputs": [],
					"name": "owner",
					"outputs": [
						{
							"internalType": "address",
							"name": "",
							"type": "address"
						}
					],
					"stateMutability": "view",
					"type": "function"
				},
				{
					"inputs": [],
					"name": "proxiableUUID",
					"outputs": [
						{
							"internalType": "bytes32",
							"name": "",
							"type": "bytes32"
						}
					],
					"stateMutability": "view",
					"type": "function"
				},
				{
					"inputs": [],
					"name": "renounceOwnership",
					"outputs": [],
					"stateMutability": "nonpayable",
					"type": "function"
				},
				{
					"inputs": [],
					"name": "rewardPerBlockForStaking",
					"outputs": [
						{
							"internalType": "uint256",
							"name": "",
							"type": "uint256"
						}
					],
					"stateMutability": "view",
					"type": "function"
				},
				{
					"inputs": [
						{
							"internalType": "uint256",
							"name": "_endBlock",
							"type": "uint256"
						}
					],
					"name": "setEndBLock",
					"outputs": [],
					"stateMutability": "nonpayable",
					"type": "function"
				},
				{
					"inputs": [],
					"name": "stakerCount",
					"outputs": [
						{
							"internalType": "uint256",
							"name": "",
							"type": "uint256"
						}
					],
					"stateMutability": "view",
					"type": "function"
				},
				{
					"inputs": [
						{
							"internalType": "uint256",
							"name": "_startBlock",
							"type": "uint256"
						}
					],
					"name": "startEndBLock",
					"outputs": [],
					"stateMutability": "nonpayable",
					"type": "function"
				},
				{
					"inputs": [],
					"name": "totalAmountStaked",
					"outputs": [
						{
							"internalType": "uint256",
							"name": "",
							"type": "uint256"
						}
					],
					"stateMutability": "view",
					"type": "function"
				},
				{
					"inputs": [
						{
							"internalType": "address",
							"name": "newOwner",
							"type": "address"
						}
					],
					"name": "transferOwnership",
					"outputs": [],
					"stateMutability": "nonpayable",
					"type": "function"
				},
				{
					"inputs": [
						{
							"internalType": "address",
							"name": "newImplementation",
							"type": "address"
						}
					],
					"name": "upgradeTo",
					"outputs": [],
					"stateMutability": "nonpayable",
					"type": "function"
				},
				{
					"inputs": [
						{
							"internalType": "address",
							"name": "newImplementation",
							"type": "address"
						},
						{
							"internalType": "bytes",
							"name": "data",
							"type": "bytes"
						}
					],
					"name": "upgradeToAndCall",
					"outputs": [],
					"stateMutability": "payable",
					"type": "function"
				},
				{
					"inputs": [
						{
							"internalType": "address",
							"name": "",
							"type": "address"
						}
					],
					"name": "userInfo",
					"outputs": [
						{
							"internalType": "uint256",
							"name": "amount",
							"type": "uint256"
						},
						{
							"internalType": "uint256",
							"name": "rewardAmount",
							"type": "uint256"
						},
						{
							"internalType": "uint256",
							"name": "investmentTime",
							"type": "uint256"
						},
						{
							"internalType": "uint256",
							"name": "rewardWithdrawTime",
							"type": "uint256"
						}
					],
					"stateMutability": "view",
					"type": "function"
				},
				{
					"inputs": [
						{
							"internalType": "address",
							"name": "user",
							"type": "address"
						}
					],
					"name": "userTransactionsLength",
					"outputs": [
						{
							"internalType": "uint256",
							"name": "_transactionsLength",
							"type": "uint256"
						}
					],
					"stateMutability": "view",
					"type": "function"
				},
				{
					"inputs": [],
					"name": "withdrawAll",
					"outputs": [],
					"stateMutability": "nonpayable",
					"type": "function"
				},
				{
					"stateMutability": "payable",
					"type": "receive"
				}
			],
			"devdoc": {
				"kind": "dev",
				"methods": {
					"owner()": {
						"details": "Returns the address of the current owner."
					},
					"proxiableUUID()": {
						"details": "Implementation of the ERC1822 {proxiableUUID} function. This returns the storage slot used by the implementation. It is used to validate the implementation's compatibility when performing an upgrade. IMPORTANT: A proxy pointing at a proxiable contract should not be considered proxiable itself, because this risks bricking a proxy that upgrades to it, by delegating to itself until out of gas. Thus it is critical that this function revert if invoked through a proxy. This is guaranteed by the `notDelegated` modifier."
					},
					"renounceOwnership()": {
						"details": "Leaves the contract without owner. It will not be possible to call `onlyOwner` functions anymore. Can only be called by the current owner. NOTE: Renouncing ownership will leave the contract without an owner, thereby removing any functionality that is only available to the owner."
					},
					"transferOwnership(address)": {
						"details": "Transfers ownership of the contract to a new account (`newOwner`). Can only be called by the current owner."
					},
					"upgradeTo(address)": {
						"details": "Upgrade the implementation of the proxy to `newImplementation`. Calls {_authorizeUpgrade}. Emits an {Upgraded} event."
					},
					"upgradeToAndCall(address,bytes)": {
						"details": "Upgrade the implementation of the proxy to `newImplementation`, and subsequently execute the function call encoded in `data`. Calls {_authorizeUpgrade}. Emits an {Upgraded} event."
					}
				},
				"version": 1
			},
			"evm": {
				"assembly": "    /* \"Samples/reward.sol\":416:9899  contract Staking is Initializable, OwnableUpgradeable, UUPSUpgradeable {\r... */\n  mstore(0x40, 0xa0)\n    /* \"@openzeppelin/contracts-upgradeable/proxy/utils/UUPSUpgradeable.sol\":1332:1336  this */\n  address\n    /* \"@openzeppelin/contracts-upgradeable/proxy/utils/UUPSUpgradeable.sol\":1289:1337  address private immutable __self = address(this) */\n  0xffffffffffffffffffffffffffffffffffffffff\n  and\n  0x80\n  swap1\n  0xffffffffffffffffffffffffffffffffffffffff\n  and\n  0x60\n  shl\n  dup2\n  mstore\n  pop\n    /* \"Samples/reward.sol\":1998:2053  constructor() {\r... */\n  callvalue\n  dup1\n  iszero\n  tag_1\n  jumpi\n  0x00\n  dup1\n  revert\ntag_1:\n  pop\n    /* \"Samples/reward.sol\":2023:2045  _disableInitializers() */\n  tag_4\n    /* \"Samples/reward.sol\":2023:2043  _disableInitializers */\n  shl(0x20, tag_5)\n    /* \"Samples/reward.sol\":2023:2045  _disableInitializers() */\n  0x20\n  shr\n  jump\t// in\ntag_4:\n    /* \"Samples/reward.sol\":416:9899  contract Staking is Initializable, OwnableUpgradeable, UUPSUpgradeable {\r... */\n  jump(tag_6)\n    /* \"@openzeppelin/contracts-upgradeable/proxy/utils/Initializable.sol\":5928:6207  function _disableInitializers() internal virtual {... */\ntag_5:\n    /* \"@openzeppelin/contracts-upgradeable/proxy/utils/Initializable.sol\":5996:6009  _initializing */\n  0x00\n  0x01\n  swap1\n  sload\n  swap1\n  0x0100\n  exp\n  swap1\n  div\n  0xff\n  and\n    /* \"@openzeppelin/contracts-upgradeable/proxy/utils/Initializable.sol\":5995:6009  !_initializing */\n  iszero\n    /* \"@openzeppelin/contracts-upgradeable/proxy/utils/Initializable.sol\":5987:6053  require(!_initializing, \"Initializable: contract is initializing\") */\n  tag_8\n  jumpi\n  mload(0x40)\n  0x08c379a000000000000000000000000000000000000000000000000000000000\n  dup2\n  mstore\n  0x04\n  add\n  tag_9\n  swap1\n  tag_10\n  jump\t// in\ntag_9:\n  mload(0x40)\n  dup1\n  swap2\n  sub\n  swap1\n  revert\ntag_8:\n    /* \"@openzeppelin/contracts-upgradeable/proxy/utils/Initializable.sol\":6082:6097  type(uint8).max */\n  0xff\n    /* \"@openzeppelin/contracts-upgradeable/proxy/utils/Initializable.sol\":6067:6097  _initialized < type(uint8).max */\n  dup1\n  and\n    /* \"@openzeppelin/contracts-upgradeable/proxy/utils/Initializable.sol\":6067:6079  _initialized */\n  0x00\n  dup1\n  sload\n  swap1\n  0x0100\n  exp\n  swap1\n  div\n  0xff\n  and\n    /* \"@openzeppelin/contracts-upgradeable/proxy/utils/Initializable.sol\":6067:6097  _initialized < type(uint8).max */\n  0xff\n  and\n  lt\n    /* \"@openzeppelin/contracts-upgradeable/proxy/utils/Initializable.sol\":6063:6201  if (_initialized < type(uint8).max) {... */\n  iszero\n  tag_11\n  jumpi\n    /* \"@openzeppelin/contracts-upgradeable/proxy/utils/Initializable.sol\":6128:6143  type(uint8).max */\n  0xff\n    /* \"@openzeppelin/contracts-upgradeable/proxy/utils/Initializable.sol\":6113:6125  _initialized */\n  0x00\n  dup1\n    /* \"@openzeppelin/contracts-upgradeable/proxy/utils/Initializable.sol\":6113:6143  _initialized = type(uint8).max */\n  0x0100\n  exp\n  dup2\n  sload\n  dup2\n  0xff\n  mul\n  not\n  and\n  swap1\n  dup4\n  0xff\n  and\n  mul\n  or\n  swap1\n  sstore\n  pop\n    /* \"@openzeppelin/contracts-upgradeable/proxy/utils/Initializable.sol\":6162:6190  Initialized(type(uint8).max) */\n  0x7f26b83ff96e1f2b6a682f133852f6798a09c465da95921460cefb3847402498\n    /* \"@openzeppelin/contracts-upgradeable/proxy/utils/Initializable.sol\":6174:6189  type(uint8).max */\n  0xff\n    /* \"@openzeppelin/contracts-upgradeable/proxy/utils/Initializable.sol\":6162:6190  Initialized(type(uint8).max) */\n  mload(0x40)\n  tag_12\n  swap2\n  swap1\n  tag_13\n  jump\t// in\ntag_12:\n  mload(0x40)\n  dup1\n  swap2\n  sub\n  swap1\n  log1\n    /* \"@openzeppelin/contracts-upgradeable/proxy/utils/Initializable.sol\":6063:6201  if (_initialized < type(uint8).max) {... */\ntag_11:\n    /* \"@openzeppelin/contracts-upgradeable/proxy/utils/Initializable.sol\":5928:6207  function _disableInitializers() internal virtual {... */\n  jump\t// out\n    /* \"#utility.yul\":7:373   */\ntag_15:\n    /* \"#utility.yul\":149:152   */\n  0x00\n    /* \"#utility.yul\":170:237   */\n  tag_17\n    /* \"#utility.yul\":234:236   */\n  0x27\n    /* \"#utility.yul\":229:232   */\n  dup4\n    /* \"#utility.yul\":170:237   */\n  tag_18\n  jump\t// in\ntag_17:\n    /* \"#utility.yul\":163:237   */\n  swap2\n  pop\n    /* \"#utility.yul\":246:339   */\n  tag_19\n    /* \"#utility.yul\":335:338   */\n  dup3\n    /* \"#utility.yul\":246:339   */\n  tag_20\n  jump\t// in\ntag_19:\n    /* \"#utility.yul\":364:366   */\n  0x40\n    /* \"#utility.yul\":359:362   */\n  dup3\n    /* \"#utility.yul\":355:367   */\n  add\n    /* \"#utility.yul\":348:367   */\n  swap1\n  pop\n    /* \"#utility.yul\":7:373   */\n  swap2\n  swap1\n  pop\n  jump\t// out\n    /* \"#utility.yul\":379:491   */\ntag_21:\n    /* \"#utility.yul\":462:484   */\n  tag_23\n    /* \"#utility.yul\":478:483   */\n  dup2\n    /* \"#utility.yul\":462:484   */\n  tag_24\n  jump\t// in\ntag_23:\n    /* \"#utility.yul\":457:460   */\n  dup3\n    /* \"#utility.yul\":450:485   */\n  mstore\n    /* \"#utility.yul\":379:491   */\n  pop\n  pop\n  jump\t// out\n    /* \"#utility.yul\":497:916   */\ntag_10:\n    /* \"#utility.yul\":663:667   */\n  0x00\n    /* \"#utility.yul\":701:703   */\n  0x20\n    /* \"#utility.yul\":690:699   */\n  dup3\n    /* \"#utility.yul\":686:704   */\n  add\n    /* \"#utility.yul\":678:704   */\n  swap1\n  pop\n    /* \"#utility.yul\":750:759   */\n  dup2\n    /* \"#utility.yul\":744:748   */\n  dup2\n    /* \"#utility.yul\":740:760   */\n  sub\n    /* \"#utility.yul\":736:737   */\n  0x00\n    /* \"#utility.yul\":725:734   */\n  dup4\n    /* \"#utility.yul\":721:738   */\n  add\n    /* \"#utility.yul\":714:761   */\n  mstore\n    /* \"#utility.yul\":778:909   */\n  tag_26\n    /* \"#utility.yul\":904:908   */\n  dup2\n    /* \"#utility.yul\":778:909   */\n  tag_15\n  jump\t// in\ntag_26:\n    /* \"#utility.yul\":770:909   */\n  swap1\n  pop\n    /* \"#utility.yul\":497:916   */\n  swap2\n  swap1\n  pop\n  jump\t// out\n    /* \"#utility.yul\":922:1136   */\ntag_13:\n    /* \"#utility.yul\":1011:1015   */\n  0x00\n    /* \"#utility.yul\":1049:1051   */\n  0x20\n    /* \"#utility.yul\":1038:1047   */\n  dup3\n    /* \"#utility.yul\":1034:1052   */\n  add\n    /* \"#utility.yul\":1026:1052   */\n  swap1\n  pop\n    /* \"#utility.yul\":1062:1129   */\n  tag_28\n    /* \"#utility.yul\":1126:1127   */\n  0x00\n    /* \"#utility.yul\":1115:1124   */\n  dup4\n    /* \"#utility.yul\":1111:1128   */\n  add\n    /* \"#utility.yul\":1102:1108   */\n  dup5\n    /* \"#utility.yul\":1062:1129   */\n  tag_21\n  jump\t// in\ntag_28:\n    /* \"#utility.yul\":922:1136   */\n  swap3\n  swap2\n  pop\n  pop\n  jump\t// out\n    /* \"#utility.yul\":1142:1311   */\ntag_18:\n    /* \"#utility.yul\":1226:1237   */\n  0x00\n    /* \"#utility.yul\":1260:1266   */\n  dup3\n    /* \"#utility.yul\":1255:1258   */\n  dup3\n    /* \"#utility.yul\":1248:1267   */\n  mstore\n    /* \"#utility.yul\":1300:1304   */\n  0x20\n    /* \"#utility.yul\":1295:1298   */\n  dup3\n    /* \"#utility.yul\":1291:1305   */\n  add\n    /* \"#utility.yul\":1276:1305   */\n  swap1\n  pop\n    /* \"#utility.yul\":1142:1311   */\n  swap3\n  swap2\n  pop\n  pop\n  jump\t// out\n    /* \"#utility.yul\":1317:1403   */\ntag_24:\n    /* \"#utility.yul\":1352:1359   */\n  0x00\n    /* \"#utility.yul\":1392:1396   */\n  0xff\n    /* \"#utility.yul\":1385:1390   */\n  dup3\n    /* \"#utility.yul\":1381:1397   */\n  and\n    /* \"#utility.yul\":1370:1397   */\n  swap1\n  pop\n    /* \"#utility.yul\":1317:1403   */\n  swap2\n  swap1\n  pop\n  jump\t// out\n    /* \"#utility.yul\":1409:1635   */\ntag_20:\n    /* \"#utility.yul\":1549:1583   */\n  0x496e697469616c697a61626c653a20636f6e747261637420697320696e697469\n    /* \"#utility.yul\":1545:1546   */\n  0x00\n    /* \"#utility.yul\":1537:1543   */\n  dup3\n    /* \"#utility.yul\":1533:1547   */\n  add\n    /* \"#utility.yul\":1526:1584   */\n  mstore\n    /* \"#utility.yul\":1618:1627   */\n  0x616c697a696e6700000000000000000000000000000000000000000000000000\n    /* \"#utility.yul\":1613:1615   */\n  0x20\n    /* \"#utility.yul\":1605:1611   */\n  dup3\n    /* \"#utility.yul\":1601:1616   */\n  add\n    /* \"#utility.yul\":1594:1628   */\n  mstore\n    /* \"#utility.yul\":1409:1635   */\n  pop\n  jump\t// out\n    /* \"Samples/reward.sol\":416:9899  contract Staking is Initializable, OwnableUpgradeable, UUPSUpgradeable {\r... */\ntag_6:\n  shr(0x60, mload(0x80))\n  codecopy(0x00, dataOffset(sub_0), dataSize(sub_0))\n  0x00\n  assignImmutable(\"0x4c643d5d9b0441803235e222732b65e2dc488f209ae20302cca6cafc813933a8\")\n  return(0x00, dataSize(sub_0))\nstop\n\nsub_0: assembly {\n        /* \"Samples/reward.sol\":416:9899  contract Staking is Initializable, OwnableUpgradeable, UUPSUpgradeable {\r... */\n      mstore(0x40, 0x80)\n      jumpi(tag_1, lt(calldatasize, 0x04))\n      shr(0xe0, calldataload(0x00))\n      dup1\n      0x682458bd\n      gt\n      tag_35\n      jumpi\n      dup1\n      0xb6b55f25\n      gt\n      tag_36\n      jumpi\n      dup1\n      0xdff69787\n      gt\n      tag_37\n      jumpi\n      dup1\n      0xdff69787\n      eq\n      tag_31\n      jumpi\n      dup1\n      0xf2fde38b\n      eq\n      tag_32\n      jumpi\n      dup1\n      0xf5938baf\n      eq\n      tag_33\n      jumpi\n      dup1\n      0xfe961f61\n      eq\n      tag_34\n      jumpi\n      jump(tag_2)\n    tag_37:\n      dup1\n      0xb6b55f25\n      eq\n      tag_27\n      jumpi\n      dup1\n      0xc12e850e\n      eq\n      tag_28\n      jumpi\n      dup1\n      0xccd34cd5\n      eq\n      tag_29\n      jumpi\n      dup1\n      0xd8c68017\n      eq\n      tag_30\n      jumpi\n      jump(tag_2)\n    tag_36:\n      dup1\n      0x8da5cb5b\n      gt\n      tag_38\n      jumpi\n      dup1\n      0x8da5cb5b\n      eq\n      tag_23\n      jumpi\n      dup1\n      0x8e356d7a\n      eq\n      tag_24\n      jumpi\n      dup1\n      0x8f662915\n      eq\n      tag_25\n      jumpi\n      dup1\n      0xa9f8d181\n      eq\n      tag_26\n      jumpi\n      jump(tag_2)\n    tag_38:\n      dup1\n      0x682458bd\n      eq\n      tag_19\n      jumpi\n      dup1\n      0x715018a6\n      eq\n      tag_20\n      jumpi\n      dup1\n      0x72f4b2d4\n      eq\n      tag_21\n      jumpi\n      dup1\n      0x853828b6\n      eq\n      tag_22\n      jumpi\n      jump(tag_2)\n    tag_35:\n      dup1\n      0x39b3e826\n      gt\n      tag_39\n      jumpi\n      dup1\n      0x52d1902d\n      gt\n      tag_40\n      jumpi\n      dup1\n      0x52d1902d\n      eq\n      tag_15\n      jumpi\n      dup1\n      0x5a9477e9\n      eq\n      tag_16\n      jumpi\n      dup1\n      0x6386c1c7\n      eq\n      tag_17\n      jumpi\n      dup1\n      0x67decd41\n      eq\n      tag_18\n      jumpi\n      jump(tag_2)\n    tag_40:\n      dup1\n      0x39b3e826\n      eq\n      tag_11\n      jumpi\n      dup1\n      0x3aecd0e3\n      eq\n      tag_12\n      jumpi\n      dup1\n      0x4ec81af1\n      eq\n      tag_13\n      jumpi\n      dup1\n      0x4f1ef286\n      eq\n      tag_14\n      jumpi\n      jump(tag_2)\n    tag_39:\n      dup1\n      0x1959a002\n      gt\n      tag_41\n      jumpi\n      dup1\n      0x1959a002\n      eq\n      tag_7\n      jumpi\n      dup1\n      0x2cb234ac\n      eq\n      tag_8\n      jumpi\n      dup1\n      0x2d3f99ee\n      eq\n      tag_9\n      jumpi\n      dup1\n      0x3659cfe6\n      eq\n      tag_10\n      jumpi\n      jump(tag_2)\n    tag_41:\n      dup1\n      0x055ad42e\n      eq\n      tag_3\n      jumpi\n      dup1\n      0x083c6323\n      eq\n      tag_4\n      jumpi\n      dup1\n      0x097aad10\n      eq\n      tag_5\n      jumpi\n      dup1\n      0x173379a5\n      eq\n      tag_6\n      jumpi\n      jump(tag_2)\n    tag_1:\n      jumpi(tag_2, calldatasize)\n      stop\n    tag_2:\n      stop\n        /* \"Samples/reward.sol\":1188:1215  uint256 public currentPhase */\n    tag_3:\n      callvalue\n      dup1\n      iszero\n      tag_46\n      jumpi\n      0x00\n      dup1\n      revert\n    tag_46:\n      pop\n      tag_47\n      tag_48\n      jump\t// in\n    tag_47:\n      mload(0x40)\n      tag_49\n      swap2\n      swap1\n      tag_50\n      jump\t// in\n    tag_49:\n      mload(0x40)\n      dup1\n      swap2\n      sub\n      swap1\n      return\n        /* \"Samples/reward.sol\":1262:1285  uint256 public endBlock */\n    tag_4:\n      callvalue\n      dup1\n      iszero\n      tag_51\n      jumpi\n      0x00\n      dup1\n      revert\n    tag_51:\n      pop\n      tag_52\n      tag_53\n      jump\t// in\n    tag_52:\n      mload(0x40)\n      tag_54\n      swap2\n      swap1\n      tag_50\n      jump\t// in\n    tag_54:\n      mload(0x40)\n      dup1\n      swap2\n      sub\n      swap1\n      return\n        /* \"Samples/reward.sol\":5352:6749  function calculatePendingRewards(address user) public view returns (uint256, uint256) {\r... */\n    tag_5:\n      callvalue\n      dup1\n      iszero\n      tag_55\n      jumpi\n      0x00\n      dup1\n      revert\n    tag_55:\n      pop\n      tag_56\n      0x04\n      dup1\n      calldatasize\n      sub\n      dup2\n      add\n      swap1\n      tag_57\n      swap2\n      swap1\n      tag_58\n      jump\t// in\n    tag_57:\n      tag_59\n      jump\t// in\n    tag_56:\n      mload(0x40)\n      tag_60\n      swap3\n      swap2\n      swap1\n      tag_61\n      jump\t// in\n    tag_60:\n      mload(0x40)\n      dup1\n      swap2\n      sub\n      swap1\n      return\n        /* \"Samples/reward.sol\":9573:9821  function emergencyWithdrawCurrency(address destination) public onlyOwner returns (bool sent) {\r... */\n    tag_6:\n      callvalue\n      dup1\n      iszero\n      tag_62\n      jumpi\n      0x00\n      dup1\n      revert\n    tag_62:\n      pop\n      tag_63\n      0x04\n      dup1\n      calldatasize\n      sub\n      dup2\n      add\n      swap1\n      tag_64\n      swap2\n      swap1\n      tag_58\n      jump\t// in\n    tag_64:\n      tag_65\n      jump\t// in\n    tag_63:\n      mload(0x40)\n      tag_66\n      swap2\n      swap1\n      tag_67\n      jump\t// in\n    tag_66:\n      mload(0x40)\n      dup1\n      swap2\n      sub\n      swap1\n      return\n        /* \"Samples/reward.sol\":1606:1650  mapping(address => UserInfo) public userInfo */\n    tag_7:\n      callvalue\n      dup1\n      iszero\n      tag_68\n      jumpi\n      0x00\n      dup1\n      revert\n    tag_68:\n      pop\n      tag_69\n      0x04\n      dup1\n      calldatasize\n      sub\n      dup2\n      add\n      swap1\n      tag_70\n      swap2\n      swap1\n      tag_58\n      jump\t// in\n    tag_70:\n      tag_71\n      jump\t// in\n    tag_69:\n      mload(0x40)\n      tag_72\n      swap5\n      swap4\n      swap3\n      swap2\n      swap1\n      tag_73\n      jump\t// in\n    tag_72:\n      mload(0x40)\n      dup1\n      swap2\n      sub\n      swap1\n      return\n        /* \"Samples/reward.sol\":8188:8908  function getUserTransactions(uint256 page , uint256 size, address user) public view returns(TxHistory[] memory){\r... */\n    tag_8:\n      callvalue\n      dup1\n      iszero\n      tag_74\n      jumpi\n      0x00\n      dup1\n      revert\n    tag_74:\n      pop\n      tag_75\n      0x04\n      dup1\n      calldatasize\n      sub\n      dup2\n      add\n      swap1\n      tag_76\n      swap2\n      swap1\n      tag_77\n      jump\t// in\n    tag_76:\n      tag_78\n      jump\t// in\n    tag_75:\n      mload(0x40)\n      tag_79\n      swap2\n      swap1\n      tag_80\n      jump\t// in\n    tag_79:\n      mload(0x40)\n      dup1\n      swap2\n      sub\n      swap1\n      return\n        /* \"Samples/reward.sol\":9130:9225  function setEndBLock(uint256 _endBlock) public onlyOwner{\r... */\n    tag_9:\n      callvalue\n      dup1\n      iszero\n      tag_81\n      jumpi\n      0x00\n      dup1\n      revert\n    tag_81:\n      pop\n      tag_82\n      0x04\n      dup1\n      calldatasize\n      sub\n      dup2\n      add\n      swap1\n      tag_83\n      swap2\n      swap1\n      tag_84\n      jump\t// in\n    tag_83:\n      tag_85\n      jump\t// in\n    tag_82:\n      stop\n        /* \"@openzeppelin/contracts-upgradeable/proxy/utils/UUPSUpgradeable.sol\":3317:3514  function upgradeTo(address newImplementation) external virtual onlyProxy {... */\n    tag_10:\n      callvalue\n      dup1\n      iszero\n      tag_86\n      jumpi\n      0x00\n      dup1\n      revert\n    tag_86:\n      pop\n      tag_87\n      0x04\n      dup1\n      calldatasize\n      sub\n      dup2\n      add\n      swap1\n      tag_88\n      swap2\n      swap1\n      tag_58\n      jump\t// in\n    tag_88:\n      tag_89\n      jump\t// in\n    tag_87:\n      stop\n        /* \"Samples/reward.sol\":1042:1068  uint256 public START_BLOCK */\n    tag_11:\n      callvalue\n      dup1\n      iszero\n      tag_90\n      jumpi\n      0x00\n      dup1\n      revert\n    tag_90:\n      pop\n      tag_91\n      tag_92\n      jump\t// in\n    tag_91:\n      mload(0x40)\n      tag_93\n      swap2\n      swap1\n      tag_50\n      jump\t// in\n    tag_93:\n      mload(0x40)\n      dup1\n      swap2\n      sub\n      swap1\n      return\n        /* \"Samples/reward.sol\":8011:8180  function getTokenBalance(address _tokenAddress) public view returns(uint256 _tokenAmount){\r... */\n    tag_12:\n      callvalue\n      dup1\n      iszero\n      tag_94\n      jumpi\n      0x00\n      dup1\n      revert\n    tag_94:\n      pop\n      tag_95\n      0x04\n      dup1\n      calldatasize\n      sub\n      dup2\n      add\n      swap1\n      tag_96\n      swap2\n      swap1\n      tag_58\n      jump\t// in\n    tag_96:\n      tag_97\n      jump\t// in\n    tag_95:\n      mload(0x40)\n      tag_98\n      swap2\n      swap1\n      tag_50\n      jump\t// in\n    tag_98:\n      mload(0x40)\n      dup1\n      swap2\n      sub\n      swap1\n      return\n        /* \"Samples/reward.sol\":2061:2598  function initialize(address _OGBTokenAddress, uint256 _startBlock, uint256 _rewardsPerBlockForStaking, uint256 _periodLengthesInBlocks) public initializer {\r... */\n    tag_13:\n      callvalue\n      dup1\n      iszero\n      tag_99\n      jumpi\n      0x00\n      dup1\n      revert\n    tag_99:\n      pop\n      tag_100\n      0x04\n      dup1\n      calldatasize\n      sub\n      dup2\n      add\n      swap1\n      tag_101\n      swap2\n      swap1\n      tag_102\n      jump\t// in\n    tag_101:\n      tag_103\n      jump\t// in\n    tag_100:\n      stop\n        /* \"@openzeppelin/contracts-upgradeable/proxy/utils/UUPSUpgradeable.sol\":3763:3985  function upgradeToAndCall(address newImplementation, bytes memory data) external payable virtual onlyProxy {... */\n    tag_14:\n      tag_104\n      0x04\n      dup1\n      calldatasize\n      sub\n      dup2\n      add\n      swap1\n      tag_105\n      swap2\n      swap1\n      tag_106\n      jump\t// in\n    tag_105:\n      tag_107\n      jump\t// in\n    tag_104:\n      stop\n        /* \"@openzeppelin/contracts-upgradeable/proxy/utils/UUPSUpgradeable.sol\":3006:3137  function proxiableUUID() external view virtual override notDelegated returns (bytes32) {... */\n    tag_15:\n      callvalue\n      dup1\n      iszero\n      tag_108\n      jumpi\n      0x00\n      dup1\n      revert\n    tag_108:\n      pop\n      tag_109\n      tag_110\n      jump\t// in\n    tag_109:\n      mload(0x40)\n      tag_111\n      swap2\n      swap1\n      tag_112\n      jump\t// in\n    tag_111:\n      mload(0x40)\n      dup1\n      swap2\n      sub\n      swap1\n      return\n        /* \"Samples/reward.sol\":1422:1461  uint256 public rewardPerBlockForStaking */\n    tag_16:\n      callvalue\n      dup1\n      iszero\n      tag_113\n      jumpi\n      0x00\n      dup1\n      revert\n    tag_113:\n      pop\n      tag_114\n      tag_115\n      jump\t// in\n    tag_114:\n      mload(0x40)\n      tag_116\n      swap2\n      swap1\n      tag_50\n      jump\t// in\n    tag_116:\n      mload(0x40)\n      dup1\n      swap2\n      sub\n      swap1\n      return\n        /* \"Samples/reward.sol\":3603:3993  function getUserInfo(address _userAddress) public view returns(UserInfo memory _userInfo){\r... */\n    tag_17:\n      callvalue\n      dup1\n      iszero\n      tag_117\n      jumpi\n      0x00\n      dup1\n      revert\n    tag_117:\n      pop\n      tag_118\n      0x04\n      dup1\n      calldatasize\n      sub\n      dup2\n      add\n      swap1\n      tag_119\n      swap2\n      swap1\n      tag_58\n      jump\t// in\n    tag_119:\n      tag_120\n      jump\t// in\n    tag_118:\n      mload(0x40)\n      tag_121\n      swap2\n      swap1\n      tag_122\n      jump\t// in\n    tag_121:\n      mload(0x40)\n      dup1\n      swap2\n      sub\n      swap1\n      return\n        /* \"Samples/reward.sol\":9233:9337  function startEndBLock(uint256 _startBlock) public onlyOwner{\r... */\n    tag_18:\n      callvalue\n      dup1\n      iszero\n      tag_123\n      jumpi\n      0x00\n      dup1\n      revert\n    tag_123:\n      pop\n      tag_124\n      0x04\n      dup1\n      calldatasize\n      sub\n      dup2\n      add\n      swap1\n      tag_125\n      swap2\n      swap1\n      tag_84\n      jump\t// in\n    tag_125:\n      tag_126\n      jump\t// in\n    tag_124:\n      stop\n        /* \"Samples/reward.sol\":9345:9565  function emergencyWithdrawToken(address token, address destination) public onlyOwner returns (bool sent){\r... */\n    tag_19:\n      callvalue\n      dup1\n      iszero\n      tag_127\n      jumpi\n      0x00\n      dup1\n      revert\n    tag_127:\n      pop\n      tag_128\n      0x04\n      dup1\n      calldatasize\n      sub\n      dup2\n      add\n      swap1\n      tag_129\n      swap2\n      swap1\n      tag_130\n      jump\t// in\n    tag_129:\n      tag_131\n      jump\t// in\n    tag_128:\n      mload(0x40)\n      tag_132\n      swap2\n      swap1\n      tag_67\n      jump\t// in\n    tag_132:\n      mload(0x40)\n      dup1\n      swap2\n      sub\n      swap1\n      return\n        /* \"@openzeppelin/contracts-upgradeable/access/OwnableUpgradeable.sol\":2071:2172  function renounceOwnership() public virtual onlyOwner {... */\n    tag_20:\n      callvalue\n      dup1\n      iszero\n      tag_133\n      jumpi\n      0x00\n      dup1\n      revert\n    tag_133:\n      pop\n      tag_134\n      tag_135\n      jump\t// in\n    tag_134:\n      stop\n        /* \"Samples/reward.sol\":8920:9122  function userTransactionsLength(address user)public view returns(uint256 _transactionsLength){\r... */\n    tag_21:\n      callvalue\n      dup1\n      iszero\n      tag_136\n      jumpi\n      0x00\n      dup1\n      revert\n    tag_136:\n      pop\n      tag_137\n      0x04\n      dup1\n      calldatasize\n      sub\n      dup2\n      add\n      swap1\n      tag_138\n      swap2\n      swap1\n      tag_58\n      jump\t// in\n    tag_138:\n      tag_139\n      jump\t// in\n    tag_137:\n      mload(0x40)\n      tag_140\n      swap2\n      swap1\n      tag_50\n      jump\t// in\n    tag_140:\n      mload(0x40)\n      dup1\n      swap2\n      sub\n      swap1\n      return\n        /* \"Samples/reward.sol\":4001:5344  function withdrawAll() external {\r... */\n    tag_22:\n      callvalue\n      dup1\n      iszero\n      tag_141\n      jumpi\n      0x00\n      dup1\n      revert\n    tag_141:\n      pop\n      tag_142\n      tag_143\n      jump\t// in\n    tag_142:\n      stop\n        /* \"@openzeppelin/contracts-upgradeable/access/OwnableUpgradeable.sol\":1441:1526  function owner() public view virtual returns (address) {... */\n    tag_23:\n      callvalue\n      dup1\n      iszero\n      tag_144\n      jumpi\n      0x00\n      dup1\n      revert\n    tag_144:\n      pop\n      tag_145\n      tag_146\n      jump\t// in\n    tag_145:\n      mload(0x40)\n      tag_147\n      swap2\n      swap1\n      tag_148\n      jump\t// in\n    tag_147:\n      mload(0x40)\n      dup1\n      swap2\n      sub\n      swap1\n      return\n        /* \"Samples/reward.sol\":7521:7800  function _getMultiplier(uint256 from, uint256 to) public view returns (uint256) {\r... */\n    tag_24:\n      callvalue\n      dup1\n      iszero\n      tag_149\n      jumpi\n      0x00\n      dup1\n      revert\n    tag_149:\n      pop\n      tag_150\n      0x04\n      dup1\n      calldatasize\n      sub\n      dup2\n      add\n      swap1\n      tag_151\n      swap2\n      swap1\n      tag_152\n      jump\t// in\n    tag_151:\n      tag_153\n      jump\t// in\n    tag_150:\n      mload(0x40)\n      tag_154\n      swap2\n      swap1\n      tag_50\n      jump\t// in\n    tag_154:\n      mload(0x40)\n      dup1\n      swap2\n      sub\n      swap1\n      return\n        /* \"Samples/reward.sol\":1114:1145  uint256 public accTokenPerShare */\n    tag_25:\n      callvalue\n      dup1\n      iszero\n      tag_155\n      jumpi\n      0x00\n      dup1\n      revert\n    tag_155:\n      pop\n      tag_156\n      tag_157\n      jump\t// in\n    tag_156:\n      mload(0x40)\n      tag_158\n      swap2\n      swap1\n      tag_50\n      jump\t// in\n    tag_158:\n      mload(0x40)\n      dup1\n      swap2\n      sub\n      swap1\n      return\n        /* \"Samples/reward.sol\":1334:1364  uint256 public lastRewardBlock */\n    tag_26:\n      callvalue\n      dup1\n      iszero\n      tag_159\n      jumpi\n      0x00\n      dup1\n      revert\n    tag_159:\n      pop\n      tag_160\n      tag_161\n      jump\t// in\n    tag_160:\n      mload(0x40)\n      tag_162\n      swap2\n      swap1\n      tag_50\n      jump\t// in\n    tag_162:\n      mload(0x40)\n      dup1\n      swap2\n      sub\n      swap1\n      return\n        /* \"Samples/reward.sol\":2698:3595  function deposit(uint256 amount) external {\r... */\n    tag_27:\n      callvalue\n      dup1\n      iszero\n      tag_163\n      jumpi\n      0x00\n      dup1\n      revert\n    tag_163:\n      pop\n      tag_164\n      0x04\n      dup1\n      calldatasize\n      sub\n      dup2\n      add\n      swap1\n      tag_165\n      swap2\n      swap1\n      tag_84\n      jump\t// in\n    tag_165:\n      tag_166\n      jump\t// in\n    tag_164:\n      stop\n        /* \"Samples/reward.sol\":1770:1816  mapping(address => bool) public isStakerExists */\n    tag_28:\n      callvalue\n      dup1\n      iszero\n      tag_167\n      jumpi\n      0x00\n      dup1\n      revert\n    tag_167:\n      pop\n      tag_168\n      0x04\n      dup1\n      calldatasize\n      sub\n      dup2\n      add\n      swap1\n      tag_169\n      swap2\n      swap1\n      tag_58\n      jump\t// in\n    tag_169:\n      tag_170\n      jump\t// in\n    tag_168:\n      mload(0x40)\n      tag_171\n      swap2\n      swap1\n      tag_67\n      jump\t// in\n    tag_171:\n      mload(0x40)\n      dup1\n      swap2\n      sub\n      swap1\n      return\n        /* \"Samples/reward.sol\":905:954  uint256 public constant PRECISION_FACTOR = 10**12 */\n    tag_29:\n      callvalue\n      dup1\n      iszero\n      tag_172\n      jumpi\n      0x00\n      dup1\n      revert\n    tag_172:\n      pop\n      tag_173\n      tag_174\n      jump\t// in\n    tag_173:\n      mload(0x40)\n      tag_175\n      swap2\n      swap1\n      tag_50\n      jump\t// in\n    tag_175:\n      mload(0x40)\n      dup1\n      swap2\n      sub\n      swap1\n      return\n        /* \"Samples/reward.sol\":963:993  address public OGBTokenAddress */\n    tag_30:\n      callvalue\n      dup1\n      iszero\n      tag_176\n      jumpi\n      0x00\n      dup1\n      revert\n    tag_176:\n      pop\n      tag_177\n      tag_178\n      jump\t// in\n    tag_177:\n      mload(0x40)\n      tag_179\n      swap2\n      swap1\n      tag_148\n      jump\t// in\n    tag_179:\n      mload(0x40)\n      dup1\n      swap2\n      sub\n      swap1\n      return\n        /* \"Samples/reward.sol\":1571:1597  uint256 public stakerCount */\n    tag_31:\n      callvalue\n      dup1\n      iszero\n      tag_180\n      jumpi\n      0x00\n      dup1\n      revert\n    tag_180:\n      pop\n      tag_181\n      tag_182\n      jump\t// in\n    tag_181:\n      mload(0x40)\n      tag_183\n      swap2\n      swap1\n      tag_50\n      jump\t// in\n    tag_183:\n      mload(0x40)\n      dup1\n      swap2\n      sub\n      swap1\n      return\n        /* \"@openzeppelin/contracts-upgradeable/access/OwnableUpgradeable.sol\":2321:2519  function transferOwnership(address newOwner) public virtual onlyOwner {... */\n    tag_32:\n      callvalue\n      dup1\n      iszero\n      tag_184\n      jumpi\n      0x00\n      dup1\n      revert\n    tag_184:\n      pop\n      tag_185\n      0x04\n      dup1\n      calldatasize\n      sub\n      dup2\n      add\n      swap1\n      tag_186\n      swap2\n      swap1\n      tag_58\n      jump\t// in\n    tag_186:\n      tag_187\n      jump\t// in\n    tag_185:\n      stop\n        /* \"Samples/reward.sol\":7808:8003  function getRemainingBlocks() public view returns(uint256 _blocks){\r... */\n    tag_33:\n      callvalue\n      dup1\n      iszero\n      tag_188\n      jumpi\n      0x00\n      dup1\n      revert\n    tag_188:\n      pop\n      tag_189\n      tag_190\n      jump\t// in\n    tag_189:\n      mload(0x40)\n      tag_191\n      swap2\n      swap1\n      tag_50\n      jump\t// in\n    tag_191:\n      mload(0x40)\n      dup1\n      swap2\n      sub\n      swap1\n      return\n        /* \"Samples/reward.sol\":1498:1530  uint256 public totalAmountStaked */\n    tag_34:\n      callvalue\n      dup1\n      iszero\n      tag_192\n      jumpi\n      0x00\n      dup1\n      revert\n    tag_192:\n      pop\n      tag_193\n      tag_194\n      jump\t// in\n    tag_193:\n      mload(0x40)\n      tag_195\n      swap2\n      swap1\n      tag_50\n      jump\t// in\n    tag_195:\n      mload(0x40)\n      dup1\n      swap2\n      sub\n      swap1\n      return\n        /* \"Samples/reward.sol\":1188:1215  uint256 public currentPhase */\n    tag_48:\n      sload(0xcc)\n      dup2\n      jump\t// out\n        /* \"Samples/reward.sol\":1262:1285  uint256 public endBlock */\n    tag_53:\n      sload(0xcd)\n      dup2\n      jump\t// out\n        /* \"Samples/reward.sol\":5352:6749  function calculatePendingRewards(address user) public view returns (uint256, uint256) {\r... */\n    tag_59:\n        /* \"Samples/reward.sol\":5420:5427  uint256 */\n      0x00\n        /* \"Samples/reward.sol\":5429:5436  uint256 */\n      dup1\n        /* \"Samples/reward.sol\":5449:5467  uint256 multiplier */\n      0x00\n        /* \"Samples/reward.sol\":5498:5513  lastRewardBlock */\n      sload(0xce)\n        /* \"Samples/reward.sol\":5483:5495  block.number */\n      number\n        /* \"Samples/reward.sol\":5483:5513  block.number > lastRewardBlock */\n      gt\n        /* \"Samples/reward.sol\":5482:5542  (block.number > lastRewardBlock) && (totalAmountStaked != 0) */\n      dup1\n      iszero\n      tag_197\n      jumpi\n      pop\n        /* \"Samples/reward.sol\":5540:5541  0 */\n      0x00\n        /* \"Samples/reward.sol\":5519:5536  totalAmountStaked */\n      sload(0xd0)\n        /* \"Samples/reward.sol\":5519:5541  totalAmountStaked != 0 */\n      eq\n      iszero\n        /* \"Samples/reward.sol\":5482:5542  (block.number > lastRewardBlock) && (totalAmountStaked != 0) */\n    tag_197:\n        /* \"Samples/reward.sol\":5478:6742  if ((block.number > lastRewardBlock) && (totalAmountStaked != 0)) {\r... */\n      iszero\n      tag_198\n      jumpi\n        /* \"Samples/reward.sol\":5572:5617  _getMultiplier(lastRewardBlock, block.number) */\n      tag_199\n        /* \"Samples/reward.sol\":5587:5602  lastRewardBlock */\n      sload(0xce)\n        /* \"Samples/reward.sol\":5604:5616  block.number */\n      number\n        /* \"Samples/reward.sol\":5572:5586  _getMultiplier */\n      tag_153\n        /* \"Samples/reward.sol\":5572:5617  _getMultiplier(lastRewardBlock, block.number) */\n      jump\t// in\n    tag_199:\n        /* \"Samples/reward.sol\":5559:5617  multiplier = _getMultiplier(lastRewardBlock, block.number) */\n      swap1\n      pop\n        /* \"Samples/reward.sol\":5688:5717  uint256 tokenRewardForStaking */\n      0x00\n        /* \"Samples/reward.sol\":5733:5757  rewardPerBlockForStaking */\n      sload(0xcf)\n        /* \"Samples/reward.sol\":5720:5730  multiplier */\n      dup3\n        /* \"Samples/reward.sol\":5720:5757  multiplier * rewardPerBlockForStaking */\n      tag_200\n      swap2\n      swap1\n      tag_201\n      jump\t// in\n    tag_200:\n        /* \"Samples/reward.sol\":5688:5757  uint256 tokenRewardForStaking = multiplier * rewardPerBlockForStaking */\n      swap1\n      pop\n        /* \"Samples/reward.sol\":5850:5879  uint256 adjustedTokenPerShare */\n      0x00\n        /* \"Samples/reward.sol\":5946:5963  totalAmountStaked */\n      sload(0xd0)\n        /* \"Samples/reward.sol\":948:954  10**12 */\n      0xe8d4a51000\n        /* \"Samples/reward.sol\":5902:5923  tokenRewardForStaking */\n      dup4\n        /* \"Samples/reward.sol\":5902:5942  tokenRewardForStaking * PRECISION_FACTOR */\n      tag_202\n      swap2\n      swap1\n      tag_201\n      jump\t// in\n    tag_202:\n        /* \"Samples/reward.sol\":5901:5963  (tokenRewardForStaking * PRECISION_FACTOR) / totalAmountStaked */\n      tag_203\n      swap2\n      swap1\n      tag_204\n      jump\t// in\n    tag_203:\n        /* \"Samples/reward.sol\":5882:5898  accTokenPerShare */\n      sload(0xcb)\n        /* \"Samples/reward.sol\":5882:5963  accTokenPerShare + (tokenRewardForStaking * PRECISION_FACTOR) / totalAmountStaked */\n      tag_205\n      swap2\n      swap1\n      tag_206\n      jump\t// in\n    tag_205:\n        /* \"Samples/reward.sol\":5850:5963  uint256 adjustedTokenPerShare = accTokenPerShare + (tokenRewardForStaking * PRECISION_FACTOR) / totalAmountStaked */\n      swap1\n      pop\n        /* \"Samples/reward.sol\":6407:6418  debtRewards */\n      0xd3\n        /* \"Samples/reward.sol\":6407:6430  debtRewards[msg.sender] */\n      0x00\n        /* \"Samples/reward.sol\":6419:6429  msg.sender */\n      caller\n        /* \"Samples/reward.sol\":6407:6430  debtRewards[msg.sender] */\n      0xffffffffffffffffffffffffffffffffffffffff\n      and\n      0xffffffffffffffffffffffffffffffffffffffff\n      and\n      dup2\n      mstore\n      0x20\n      add\n      swap1\n      dup2\n      mstore\n      0x20\n      add\n      0x00\n      keccak256\n      sload\n        /* \"Samples/reward.sol\":948:954  10**12 */\n      0xe8d4a51000\n        /* \"Samples/reward.sol\":6363:6384  adjustedTokenPerShare */\n      dup3\n        /* \"Samples/reward.sol\":6339:6347  userInfo */\n      0xd2\n        /* \"Samples/reward.sol\":6339:6353  userInfo[user] */\n      0x00\n        /* \"Samples/reward.sol\":6348:6352  user */\n      dup11\n        /* \"Samples/reward.sol\":6339:6353  userInfo[user] */\n      0xffffffffffffffffffffffffffffffffffffffff\n      and\n      0xffffffffffffffffffffffffffffffffffffffff\n      and\n      dup2\n      mstore\n      0x20\n      add\n      swap1\n      dup2\n      mstore\n      0x20\n      add\n      0x00\n      keccak256\n        /* \"Samples/reward.sol\":6339:6360  userInfo[user].amount */\n      0x00\n      add\n      sload\n        /* \"Samples/reward.sol\":6339:6384  userInfo[user].amount * adjustedTokenPerShare */\n      tag_207\n      swap2\n      swap1\n      tag_201\n      jump\t// in\n    tag_207:\n        /* \"Samples/reward.sol\":6338:6404  (userInfo[user].amount * adjustedTokenPerShare) / PRECISION_FACTOR */\n      tag_208\n      swap2\n      swap1\n      tag_204\n      jump\t// in\n    tag_208:\n        /* \"Samples/reward.sol\":6338:6430  (userInfo[user].amount * adjustedTokenPerShare) / PRECISION_FACTOR - debtRewards[msg.sender] */\n      tag_209\n      swap2\n      swap1\n      tag_210\n      jump\t// in\n    tag_209:\n        /* \"Samples/reward.sol\":6432:6442  multiplier */\n      dup4\n        /* \"Samples/reward.sol\":6330:6443  return ((userInfo[user].amount * adjustedTokenPerShare) / PRECISION_FACTOR - debtRewards[msg.sender], multiplier) */\n      swap5\n      pop\n      swap5\n      pop\n      pop\n      pop\n      pop\n      jump(tag_196)\n        /* \"Samples/reward.sol\":5478:6742  if ((block.number > lastRewardBlock) && (totalAmountStaked != 0)) {\r... */\n    tag_198:\n        /* \"Samples/reward.sol\":6694:6705  debtRewards */\n      0xd3\n        /* \"Samples/reward.sol\":6694:6717  debtRewards[msg.sender] */\n      0x00\n        /* \"Samples/reward.sol\":6706:6716  msg.sender */\n      caller\n        /* \"Samples/reward.sol\":6694:6717  debtRewards[msg.sender] */\n      0xffffffffffffffffffffffffffffffffffffffff\n      and\n      0xffffffffffffffffffffffffffffffffffffffff\n      and\n      dup2\n      mstore\n      0x20\n      add\n      swap1\n      dup2\n      mstore\n      0x20\n      add\n      0x00\n      keccak256\n      sload\n        /* \"Samples/reward.sol\":948:954  10**12 */\n      0xe8d4a51000\n        /* \"Samples/reward.sol\":6655:6671  accTokenPerShare */\n      sload(0xcb)\n        /* \"Samples/reward.sol\":6631:6639  userInfo */\n      0xd2\n        /* \"Samples/reward.sol\":6631:6645  userInfo[user] */\n      0x00\n        /* \"Samples/reward.sol\":6640:6644  user */\n      dup9\n        /* \"Samples/reward.sol\":6631:6645  userInfo[user] */\n      0xffffffffffffffffffffffffffffffffffffffff\n      and\n      0xffffffffffffffffffffffffffffffffffffffff\n      and\n      dup2\n      mstore\n      0x20\n      add\n      swap1\n      dup2\n      mstore\n      0x20\n      add\n      0x00\n      keccak256\n        /* \"Samples/reward.sol\":6631:6652  userInfo[user].amount */\n      0x00\n      add\n      sload\n        /* \"Samples/reward.sol\":6631:6671  userInfo[user].amount * accTokenPerShare */\n      tag_212\n      swap2\n      swap1\n      tag_201\n      jump\t// in\n    tag_212:\n        /* \"Samples/reward.sol\":6630:6691  (userInfo[user].amount * accTokenPerShare) / PRECISION_FACTOR */\n      tag_213\n      swap2\n      swap1\n      tag_204\n      jump\t// in\n    tag_213:\n        /* \"Samples/reward.sol\":6630:6717  (userInfo[user].amount * accTokenPerShare) / PRECISION_FACTOR - debtRewards[msg.sender] */\n      tag_214\n      swap2\n      swap1\n      tag_210\n      jump\t// in\n    tag_214:\n        /* \"Samples/reward.sol\":6719:6729  multiplier */\n      dup2\n        /* \"Samples/reward.sol\":6622:6730  return ((userInfo[user].amount * accTokenPerShare) / PRECISION_FACTOR - debtRewards[msg.sender], multiplier) */\n      swap3\n      pop\n      swap3\n      pop\n      pop\n        /* \"Samples/reward.sol\":5352:6749  function calculatePendingRewards(address user) public view returns (uint256, uint256) {\r... */\n    tag_196:\n      swap2\n      pop\n      swap2\n      jump\t// out\n        /* \"Samples/reward.sol\":9573:9821  function emergencyWithdrawCurrency(address destination) public onlyOwner returns (bool sent) {\r... */\n    tag_65:\n        /* \"Samples/reward.sol\":9655:9664  bool sent */\n      0x00\n        /* \"@openzeppelin/contracts-upgradeable/access/OwnableUpgradeable.sol\":1334:1347  _checkOwner() */\n      tag_216\n        /* \"@openzeppelin/contracts-upgradeable/access/OwnableUpgradeable.sol\":1334:1345  _checkOwner */\n      tag_217\n        /* \"@openzeppelin/contracts-upgradeable/access/OwnableUpgradeable.sol\":1334:1347  _checkOwner() */\n      jump\t// in\n    tag_216:\n        /* \"Samples/reward.sol\":9710:9711  0 */\n      0x00\n        /* \"Samples/reward.sol\":9685:9706  address(this).balance */\n      selfbalance\n        /* \"Samples/reward.sol\":9685:9711  address(this).balance != 0 */\n      eq\n      iszero\n        /* \"Samples/reward.sol\":9677:9728  require(address(this).balance != 0, \"ZERO_BALANCE\") */\n      tag_219\n      jumpi\n      mload(0x40)\n      0x08c379a000000000000000000000000000000000000000000000000000000000\n      dup2\n      mstore\n      0x04\n      add\n      tag_220\n      swap1\n      tag_221\n      jump\t// in\n    tag_220:\n      mload(0x40)\n      dup1\n      swap2\n      sub\n      swap1\n      revert\n    tag_219:\n        /* \"Samples/reward.sol\":9747:9758  destination */\n      dup2\n        /* \"Samples/reward.sol\":9739:9768  payable(destination).transfer */\n      0xffffffffffffffffffffffffffffffffffffffff\n      and\n        /* \"Samples/reward.sol\":9739:9791  payable(destination).transfer(address(this).balance) */\n      0x08fc\n        /* \"Samples/reward.sol\":9769:9790  address(this).balance */\n      selfbalance\n        /* \"Samples/reward.sol\":9739:9791  payable(destination).transfer(address(this).balance) */\n      swap1\n      dup2\n      iszero\n      mul\n      swap1\n      mload(0x40)\n      0x00\n      mload(0x40)\n      dup1\n      dup4\n      sub\n      dup2\n      dup6\n      dup9\n      dup9\n      call\n      swap4\n      pop\n      pop\n      pop\n      pop\n      iszero\n      dup1\n      iszero\n      tag_223\n      jumpi\n      returndatasize\n      0x00\n      dup1\n      returndatacopy\n      revert(0x00, returndatasize)\n    tag_223:\n      pop\n        /* \"Samples/reward.sol\":9809:9813  true */\n      0x01\n        /* \"Samples/reward.sol\":9802:9813  return true */\n      swap1\n      pop\n        /* \"Samples/reward.sol\":9573:9821  function emergencyWithdrawCurrency(address destination) public onlyOwner returns (bool sent) {\r... */\n      swap2\n      swap1\n      pop\n      jump\t// out\n        /* \"Samples/reward.sol\":1606:1650  mapping(address => UserInfo) public userInfo */\n    tag_71:\n      mstore(0x20, 0xd2)\n      dup1\n      0x00\n      mstore\n      keccak256(0x00, 0x40)\n      0x00\n      swap2\n      pop\n      swap1\n      pop\n      dup1\n      0x00\n      add\n      sload\n      swap1\n      dup1\n      0x01\n      add\n      sload\n      swap1\n      dup1\n      0x02\n      add\n      sload\n      swap1\n      dup1\n      0x03\n      add\n      sload\n      swap1\n      pop\n      dup5\n      jump\t// out\n        /* \"Samples/reward.sol\":8188:8908  function getUserTransactions(uint256 page , uint256 size, address user) public view returns(TxHistory[] memory){\r... */\n    tag_78:\n        /* \"Samples/reward.sol\":8280:8298  TxHistory[] memory */\n      0x60\n        /* \"Samples/reward.sol\":8310:8324  uint256 ToSkip */\n      0x00\n        /* \"Samples/reward.sol\":8332:8336  size */\n      dup4\n        /* \"Samples/reward.sol\":8327:8331  page */\n      dup6\n        /* \"Samples/reward.sol\":8327:8336  page*size */\n      tag_225\n      swap2\n      swap1\n      tag_201\n      jump\t// in\n    tag_225:\n        /* \"Samples/reward.sol\":8310:8336  uint256 ToSkip = page*size */\n      swap1\n      pop\n        /* \"Samples/reward.sol\":8358:8371  uint256 count */\n      0x00\n        /* \"Samples/reward.sol\":8388:8415  TxHistory[] memory txsArray */\n      dup1\n        /* \"Samples/reward.sol\":8418:8430  userTxsArray */\n      0xd4\n        /* \"Samples/reward.sol\":8418:8436  userTxsArray[user] */\n      0x00\n        /* \"Samples/reward.sol\":8431:8435  user */\n      dup7\n        /* \"Samples/reward.sol\":8418:8436  userTxsArray[user] */\n      0xffffffffffffffffffffffffffffffffffffffff\n      and\n      0xffffffffffffffffffffffffffffffffffffffff\n      and\n      dup2\n      mstore\n      0x20\n      add\n      swap1\n      dup2\n      mstore\n      0x20\n      add\n      0x00\n      keccak256\n        /* \"Samples/reward.sol\":8388:8436  TxHistory[] memory txsArray = userTxsArray[user] */\n      dup1\n      sload\n      dup1\n      0x20\n      mul\n      0x20\n      add\n      mload(0x40)\n      swap1\n      dup2\n      add\n      0x40\n      mstore\n      dup1\n      swap3\n      swap2\n      swap1\n      dup2\n      dup2\n      mstore\n      0x20\n      add\n      0x00\n      swap1\n    tag_226:\n      dup3\n      dup3\n      lt\n      iszero\n      tag_227\n      jumpi\n      dup4\n      dup3\n      swap1\n      0x00\n      mstore\n      keccak256(0x00, 0x20)\n      swap1\n      0x03\n      mul\n      add\n      mload(0x40)\n      dup1\n      0x60\n      add\n      0x40\n      mstore\n      swap1\n      dup2\n      0x00\n      dup3\n      add\n      sload\n      dup2\n      mstore\n      0x20\n      add\n      0x01\n      dup3\n      add\n      sload\n      dup2\n      mstore\n      0x20\n      add\n      0x02\n      dup3\n      add\n      dup1\n      sload\n      tag_229\n      swap1\n      tag_230\n      jump\t// in\n    tag_229:\n      dup1\n      0x1f\n      add\n      0x20\n      dup1\n      swap2\n      div\n      mul\n      0x20\n      add\n      mload(0x40)\n      swap1\n      dup2\n      add\n      0x40\n      mstore\n      dup1\n      swap3\n      swap2\n      swap1\n      dup2\n      dup2\n      mstore\n      0x20\n      add\n      dup3\n      dup1\n      sload\n      tag_231\n      swap1\n      tag_230\n      jump\t// in\n    tag_231:\n      dup1\n      iszero\n      tag_232\n      jumpi\n      dup1\n      0x1f\n      lt\n      tag_233\n      jumpi\n      0x0100\n      dup1\n      dup4\n      sload\n      div\n      mul\n      dup4\n      mstore\n      swap2\n      0x20\n      add\n      swap2\n      jump(tag_232)\n    tag_233:\n      dup3\n      add\n      swap2\n      swap1\n      0x00\n      mstore\n      keccak256(0x00, 0x20)\n      swap1\n    tag_234:\n      dup2\n      sload\n      dup2\n      mstore\n      swap1\n      0x01\n      add\n      swap1\n      0x20\n      add\n      dup1\n      dup4\n      gt\n      tag_234\n      jumpi\n      dup3\n      swap1\n      sub\n      0x1f\n      and\n      dup3\n      add\n      swap2\n    tag_232:\n      pop\n      pop\n      pop\n      pop\n      pop\n      dup2\n      mstore\n      pop\n      pop\n      dup2\n      mstore\n      0x20\n      add\n      swap1\n      0x01\n      add\n      swap1\n      jump(tag_226)\n    tag_227:\n      pop\n      pop\n      pop\n      pop\n      swap1\n      pop\n        /* \"Samples/reward.sol\":8447:8460  uint256 EndAt */\n      0x00\n        /* \"Samples/reward.sol\":8489:8493  size */\n      dup7\n        /* \"Samples/reward.sol\":8480:8486  ToSkip */\n      dup5\n        /* \"Samples/reward.sol\":8480:8493  ToSkip + size */\n      tag_235\n      swap2\n      swap1\n      tag_206\n      jump\t// in\n    tag_235:\n        /* \"Samples/reward.sol\":8462:8470  txsArray */\n      dup3\n        /* \"Samples/reward.sol\":8462:8477  txsArray.length */\n      mload\n        /* \"Samples/reward.sol\":8462:8493  txsArray.length > ToSkip + size */\n      gt\n        /* \"Samples/reward.sol\":8462:8525  txsArray.length > ToSkip + size? ToSkip + size: txsArray.length */\n      tag_236\n      jumpi\n        /* \"Samples/reward.sol\":8510:8518  txsArray */\n      dup2\n        /* \"Samples/reward.sol\":8510:8525  txsArray.length */\n      mload\n        /* \"Samples/reward.sol\":8462:8525  txsArray.length > ToSkip + size? ToSkip + size: txsArray.length */\n      jump(tag_237)\n    tag_236:\n        /* \"Samples/reward.sol\":8504:8508  size */\n      dup7\n        /* \"Samples/reward.sol\":8495:8501  ToSkip */\n      dup5\n        /* \"Samples/reward.sol\":8495:8508  ToSkip + size */\n      tag_238\n      swap2\n      swap1\n      tag_206\n      jump\t// in\n    tag_238:\n        /* \"Samples/reward.sol\":8462:8525  txsArray.length > ToSkip + size? ToSkip + size: txsArray.length */\n    tag_237:\n        /* \"Samples/reward.sol\":8447:8525  uint256 EndAt= txsArray.length > ToSkip + size? ToSkip + size: txsArray.length */\n      swap1\n      pop\n        /* \"Samples/reward.sol\":8555:8563  txsArray */\n      dup2\n        /* \"Samples/reward.sol\":8555:8570  txsArray.length */\n      mload\n        /* \"Samples/reward.sol\":8546:8552  ToSkip */\n      dup5\n        /* \"Samples/reward.sol\":8546:8570  ToSkip < txsArray.length */\n      lt\n        /* \"Samples/reward.sol\":8538:8588  require(ToSkip < txsArray.length, \"OVERFLOW_PAGE\") */\n      tag_239\n      jumpi\n      mload(0x40)\n      0x08c379a000000000000000000000000000000000000000000000000000000000\n      dup2\n      mstore\n      0x04\n      add\n      tag_240\n      swap1\n      tag_241\n      jump\t// in\n    tag_240:\n      mload(0x40)\n      dup1\n      swap2\n      sub\n      swap1\n      revert\n    tag_239:\n        /* \"Samples/reward.sol\":8615:8621  ToSkip */\n      dup4\n        /* \"Samples/reward.sol\":8607:8612  EndAt */\n      dup2\n        /* \"Samples/reward.sol\":8607:8621  EndAt > ToSkip */\n      gt\n        /* \"Samples/reward.sol\":8599:8639  require(EndAt > ToSkip, \"OVERFLOW_PAGE\") */\n      tag_242\n      jumpi\n      mload(0x40)\n      0x08c379a000000000000000000000000000000000000000000000000000000000\n      dup2\n      mstore\n      0x04\n      add\n      tag_243\n      swap1\n      tag_241\n      jump\t// in\n    tag_243:\n      mload(0x40)\n      dup1\n      swap2\n      sub\n      swap1\n      revert\n    tag_242:\n        /* \"Samples/reward.sol\":8652:8682  TxHistory[] memory tokensArray */\n      0x00\n        /* \"Samples/reward.sol\":8709:8715  ToSkip */\n      dup5\n        /* \"Samples/reward.sol\":8701:8706  EndAt */\n      dup3\n        /* \"Samples/reward.sol\":8701:8715  EndAt - ToSkip */\n      tag_244\n      swap2\n      swap1\n      tag_210\n      jump\t// in\n    tag_244:\n        /* \"Samples/reward.sol\":8685:8716  new TxHistory[](EndAt - ToSkip) */\n      0xffffffffffffffff\n      dup2\n      gt\n      iszero\n      tag_245\n      jumpi\n      tag_246\n      tag_247\n      jump\t// in\n    tag_246:\n    tag_245:\n      mload(0x40)\n      swap1\n      dup1\n      dup3\n      mstore\n      dup1\n      0x20\n      mul\n      0x20\n      add\n      dup3\n      add\n      0x40\n      mstore\n      dup1\n      iszero\n      tag_248\n      jumpi\n      dup2\n      0x20\n      add\n    tag_249:\n      tag_250\n      tag_251\n      jump\t// in\n    tag_250:\n      dup2\n      mstore\n      0x20\n      add\n      swap1\n      0x01\n      swap1\n      sub\n      swap1\n      dup2\n      tag_249\n      jumpi\n      swap1\n      pop\n    tag_248:\n      pop\n        /* \"Samples/reward.sol\":8652:8716  TxHistory[] memory tokensArray = new TxHistory[](EndAt - ToSkip) */\n      swap1\n      pop\n        /* \"Samples/reward.sol\":8732:8741  uint256 i */\n      0x00\n        /* \"Samples/reward.sol\":8744:8750  ToSkip */\n      dup6\n        /* \"Samples/reward.sol\":8732:8750  uint256 i = ToSkip */\n      swap1\n      pop\n        /* \"Samples/reward.sol\":8727:8872  for (uint256 i = ToSkip ; i < EndAt; i++) {\r... */\n    tag_252:\n        /* \"Samples/reward.sol\":8757:8762  EndAt */\n      dup3\n        /* \"Samples/reward.sol\":8753:8754  i */\n      dup2\n        /* \"Samples/reward.sol\":8753:8762  i < EndAt */\n      lt\n        /* \"Samples/reward.sol\":8727:8872  for (uint256 i = ToSkip ; i < EndAt; i++) {\r... */\n      iszero\n      tag_253\n      jumpi\n        /* \"Samples/reward.sol\":8805:8813  txsArray */\n      dup4\n        /* \"Samples/reward.sol\":8836:8837  i */\n      dup2\n        /* \"Samples/reward.sol\":8832:8833  1 */\n      0x01\n        /* \"Samples/reward.sol\":8814:8822  txsArray */\n      dup7\n        /* \"Samples/reward.sol\":8814:8829  txsArray.length */\n      mload\n        /* \"Samples/reward.sol\":8814:8833  txsArray.length - 1 */\n      tag_255\n      swap2\n      swap1\n      tag_210\n      jump\t// in\n    tag_255:\n        /* \"Samples/reward.sol\":8814:8837  txsArray.length - 1 - i */\n      tag_256\n      swap2\n      swap1\n      tag_210\n      jump\t// in\n    tag_256:\n        /* \"Samples/reward.sol\":8805:8838  txsArray[txsArray.length - 1 - i] */\n      dup2\n      mload\n      dup2\n      lt\n      tag_257\n      jumpi\n      tag_258\n      tag_259\n      jump\t// in\n    tag_258:\n    tag_257:\n      0x20\n      mul\n      0x20\n      add\n      add\n      mload\n        /* \"Samples/reward.sol\":8784:8795  tokensArray */\n      dup3\n        /* \"Samples/reward.sol\":8796:8801  count */\n      dup7\n        /* \"Samples/reward.sol\":8784:8802  tokensArray[count] */\n      dup2\n      mload\n      dup2\n      lt\n      tag_260\n      jumpi\n      tag_261\n      tag_259\n      jump\t// in\n    tag_261:\n    tag_260:\n      0x20\n      mul\n      0x20\n      add\n      add\n        /* \"Samples/reward.sol\":8784:8838  tokensArray[count] = txsArray[txsArray.length - 1 - i] */\n      dup2\n      swap1\n      mstore\n      pop\n        /* \"Samples/reward.sol\":8853:8860  count++ */\n      dup5\n      dup1\n      tag_262\n      swap1\n      tag_263\n      jump\t// in\n    tag_262:\n      swap6\n      pop\n      pop\n        /* \"Samples/reward.sol\":8764:8767  i++ */\n      dup1\n      dup1\n      tag_264\n      swap1\n      tag_263\n      jump\t// in\n    tag_264:\n      swap2\n      pop\n      pop\n        /* \"Samples/reward.sol\":8727:8872  for (uint256 i = ToSkip ; i < EndAt; i++) {\r... */\n      jump(tag_252)\n    tag_253:\n      pop\n        /* \"Samples/reward.sol\":8889:8900  tokensArray */\n      dup1\n        /* \"Samples/reward.sol\":8882:8900  return tokensArray */\n      swap6\n      pop\n      pop\n      pop\n      pop\n      pop\n      pop\n        /* \"Samples/reward.sol\":8188:8908  function getUserTransactions(uint256 page , uint256 size, address user) public view returns(TxHistory[] memory){\r... */\n      swap4\n      swap3\n      pop\n      pop\n      pop\n      jump\t// out\n        /* \"Samples/reward.sol\":9130:9225  function setEndBLock(uint256 _endBlock) public onlyOwner{\r... */\n    tag_85:\n        /* \"@openzeppelin/contracts-upgradeable/access/OwnableUpgradeable.sol\":1334:1347  _checkOwner() */\n      tag_266\n        /* \"@openzeppelin/contracts-upgradeable/access/OwnableUpgradeable.sol\":1334:1345  _checkOwner */\n      tag_217\n        /* \"@openzeppelin/contracts-upgradeable/access/OwnableUpgradeable.sol\":1334:1347  _checkOwner() */\n      jump\t// in\n    tag_266:\n        /* \"Samples/reward.sol\":9208:9217  _endBlock */\n      dup1\n        /* \"Samples/reward.sol\":9197:9205  endBlock */\n      0xcd\n        /* \"Samples/reward.sol\":9197:9217  endBlock = _endBlock */\n      dup2\n      swap1\n      sstore\n      pop\n        /* \"Samples/reward.sol\":9130:9225  function setEndBLock(uint256 _endBlock) public onlyOwner{\r... */\n      pop\n      jump\t// out\n        /* \"@openzeppelin/contracts-upgradeable/proxy/utils/UUPSUpgradeable.sol\":3317:3514  function upgradeTo(address newImplementation) external virtual onlyProxy {... */\n    tag_89:\n        /* \"@openzeppelin/contracts-upgradeable/proxy/utils/UUPSUpgradeable.sol\":1898:1904  __self */\n      immutable(\"0x4c643d5d9b0441803235e222732b65e2dc488f209ae20302cca6cafc813933a8\")\n        /* \"@openzeppelin/contracts-upgradeable/proxy/utils/UUPSUpgradeable.sol\":1881:1904  address(this) != __self */\n      0xffffffffffffffffffffffffffffffffffffffff\n      and\n        /* \"@openzeppelin/contracts-upgradeable/proxy/utils/UUPSUpgradeable.sol\":1889:1893  this */\n      address\n        /* \"@openzeppelin/contracts-upgradeable/proxy/utils/UUPSUpgradeable.sol\":1881:1904  address(this) != __self */\n      0xffffffffffffffffffffffffffffffffffffffff\n      and\n      eq\n      iszero\n        /* \"@openzeppelin/contracts-upgradeable/proxy/utils/UUPSUpgradeable.sol\":1873:1953  require(address(this) != __self, \"Function must be called through delegatecall\") */\n      tag_269\n      jumpi\n      mload(0x40)\n      0x08c379a000000000000000000000000000000000000000000000000000000000\n      dup2\n      mstore\n      0x04\n      add\n      tag_270\n      swap1\n      tag_271\n      jump\t// in\n    tag_270:\n      mload(0x40)\n      dup1\n      swap2\n      sub\n      swap1\n      revert\n    tag_269:\n        /* \"@openzeppelin/contracts-upgradeable/proxy/utils/UUPSUpgradeable.sol\":1995:2001  __self */\n      immutable(\"0x4c643d5d9b0441803235e222732b65e2dc488f209ae20302cca6cafc813933a8\")\n        /* \"@openzeppelin/contracts-upgradeable/proxy/utils/UUPSUpgradeable.sol\":1971:2001  _getImplementation() == __self */\n      0xffffffffffffffffffffffffffffffffffffffff\n      and\n        /* \"@openzeppelin/contracts-upgradeable/proxy/utils/UUPSUpgradeable.sol\":1971:1991  _getImplementation() */\n      tag_272\n        /* \"@openzeppelin/contracts-upgradeable/proxy/utils/UUPSUpgradeable.sol\":1971:1989  _getImplementation */\n      tag_273\n        /* \"@openzeppelin/contracts-upgradeable/proxy/utils/UUPSUpgradeable.sol\":1971:1991  _getImplementation() */\n      jump\t// in\n    tag_272:\n        /* \"@openzeppelin/contracts-upgradeable/proxy/utils/UUPSUpgradeable.sol\":1971:2001  _getImplementation() == __self */\n      0xffffffffffffffffffffffffffffffffffffffff\n      and\n      eq\n        /* \"@openzeppelin/contracts-upgradeable/proxy/utils/UUPSUpgradeable.sol\":1963:2050  require(_getImplementation() == __self, \"Function must be called through active proxy\") */\n      tag_274\n      jumpi\n      mload(0x40)\n      0x08c379a000000000000000000000000000000000000000000000000000000000\n      dup2\n      mstore\n      0x04\n      add\n      tag_275\n      swap1\n      tag_276\n      jump\t// in\n    tag_275:\n      mload(0x40)\n      dup1\n      swap2\n      sub\n      swap1\n      revert\n    tag_274:\n        /* \"@openzeppelin/contracts-upgradeable/proxy/utils/UUPSUpgradeable.sol\":3400:3436  _authorizeUpgrade(newImplementation) */\n      tag_278\n        /* \"@openzeppelin/contracts-upgradeable/proxy/utils/UUPSUpgradeable.sol\":3418:3435  newImplementation */\n      dup2\n        /* \"@openzeppelin/contracts-upgradeable/proxy/utils/UUPSUpgradeable.sol\":3400:3417  _authorizeUpgrade */\n      tag_279\n        /* \"@openzeppelin/contracts-upgradeable/proxy/utils/UUPSUpgradeable.sol\":3400:3436  _authorizeUpgrade(newImplementation) */\n      jump\t// in\n    tag_278:\n        /* \"@openzeppelin/contracts-upgradeable/proxy/utils/UUPSUpgradeable.sol\":3446:3507  _upgradeToAndCallUUPS(newImplementation, new bytes(0), false) */\n      tag_280\n        /* \"@openzeppelin/contracts-upgradeable/proxy/utils/UUPSUpgradeable.sol\":3468:3485  newImplementation */\n      dup2\n        /* \"@openzeppelin/contracts-upgradeable/proxy/utils/UUPSUpgradeable.sol\":3497:3498  0 */\n      0x00\n        /* \"@openzeppelin/contracts-upgradeable/proxy/utils/UUPSUpgradeable.sol\":3487:3499  new bytes(0) */\n      0xffffffffffffffff\n      dup2\n      gt\n      iszero\n      tag_281\n      jumpi\n      tag_282\n      tag_247\n      jump\t// in\n    tag_282:\n    tag_281:\n      mload(0x40)\n      swap1\n      dup1\n      dup3\n      mstore\n      dup1\n      0x1f\n      add\n      not(0x1f)\n      and\n      0x20\n      add\n      dup3\n      add\n      0x40\n      mstore\n      dup1\n      iszero\n      tag_283\n      jumpi\n      dup2\n      0x20\n      add\n      0x01\n      dup3\n      mul\n      dup1\n      calldatasize\n      dup4\n      calldatacopy\n      dup1\n      dup3\n      add\n      swap2\n      pop\n      pop\n      swap1\n      pop\n    tag_283:\n      pop\n        /* \"@openzeppelin/contracts-upgradeable/proxy/utils/UUPSUpgradeable.sol\":3501:3506  false */\n      0x00\n        /* \"@openzeppelin/contracts-upgradeable/proxy/utils/UUPSUpgradeable.sol\":3446:3467  _upgradeToAndCallUUPS */\n      tag_284\n        /* \"@openzeppelin/contracts-upgradeable/proxy/utils/UUPSUpgradeable.sol\":3446:3507  _upgradeToAndCallUUPS(newImplementation, new bytes(0), false) */\n      jump\t// in\n    tag_280:\n        /* \"@openzeppelin/contracts-upgradeable/proxy/utils/UUPSUpgradeable.sol\":3317:3514  function upgradeTo(address newImplementation) external virtual onlyProxy {... */\n      pop\n      jump\t// out\n        /* \"Samples/reward.sol\":1042:1068  uint256 public START_BLOCK */\n    tag_92:\n      sload(0xca)\n      dup2\n      jump\t// out\n        /* \"Samples/reward.sol\":8011:8180  function getTokenBalance(address _tokenAddress) public view returns(uint256 _tokenAmount){\r... */\n    tag_97:\n        /* \"Samples/reward.sol\":8079:8099  uint256 _tokenAmount */\n      0x00\n        /* \"Samples/reward.sol\":8133:8146  _tokenAddress */\n      dup2\n        /* \"Samples/reward.sol\":8126:8157  IERC20(_tokenAddress).balanceOf */\n      0xffffffffffffffffffffffffffffffffffffffff\n      and\n      0x70a08231\n        /* \"Samples/reward.sol\":8166:8170  this */\n      address\n        /* \"Samples/reward.sol\":8126:8172  IERC20(_tokenAddress).balanceOf(address(this)) */\n      mload(0x40)\n      dup3\n      0xffffffff\n      and\n      0xe0\n      shl\n      dup2\n      mstore\n      0x04\n      add\n      tag_286\n      swap2\n      swap1\n      tag_148\n      jump\t// in\n    tag_286:\n      0x20\n      mload(0x40)\n      dup1\n      dup4\n      sub\n      dup2\n      dup7\n      dup1\n      extcodesize\n      iszero\n      dup1\n      iszero\n      tag_287\n      jumpi\n      0x00\n      dup1\n      revert\n    tag_287:\n      pop\n      gas\n      staticcall\n      iszero\n      dup1\n      iszero\n      tag_289\n      jumpi\n      returndatasize\n      0x00\n      dup1\n      returndatacopy\n      revert(0x00, returndatasize)\n    tag_289:\n      pop\n      pop\n      pop\n      pop\n      mload(0x40)\n      returndatasize\n      not(0x1f)\n      0x1f\n      dup3\n      add\n      and\n      dup3\n      add\n      dup1\n      0x40\n      mstore\n      pop\n      dup2\n      add\n      swap1\n      tag_290\n      swap2\n      swap1\n      tag_291\n      jump\t// in\n    tag_290:\n        /* \"Samples/reward.sol\":8111:8172  _tokenAmount = IERC20(_tokenAddress).balanceOf(address(this)) */\n      swap1\n      pop\n        /* \"Samples/reward.sol\":8011:8180  function getTokenBalance(address _tokenAddress) public view returns(uint256 _tokenAmount){\r... */\n      swap2\n      swap1\n      pop\n      jump\t// out\n        /* \"Samples/reward.sol\":2061:2598  function initialize(address _OGBTokenAddress, uint256 _startBlock, uint256 _rewardsPerBlockForStaking, uint256 _periodLengthesInBlocks) public initializer {\r... */\n    tag_103:\n        /* \"@openzeppelin/contracts-upgradeable/proxy/utils/Initializable.sol\":3268:3287  bool isTopLevelCall */\n      0x00\n        /* \"@openzeppelin/contracts-upgradeable/proxy/utils/Initializable.sol\":3291:3304  _initializing */\n      dup1\n      0x01\n      swap1\n      sload\n      swap1\n      0x0100\n      exp\n      swap1\n      div\n      0xff\n      and\n        /* \"@openzeppelin/contracts-upgradeable/proxy/utils/Initializable.sol\":3290:3304  !_initializing */\n      iszero\n        /* \"@openzeppelin/contracts-upgradeable/proxy/utils/Initializable.sol\":3268:3304  bool isTopLevelCall = !_initializing */\n      swap1\n      pop\n        /* \"@openzeppelin/contracts-upgradeable/proxy/utils/Initializable.sol\":3336:3350  isTopLevelCall */\n      dup1\n        /* \"@openzeppelin/contracts-upgradeable/proxy/utils/Initializable.sol\":3336:3370  isTopLevelCall && _initialized < 1 */\n      dup1\n      iszero\n      tag_293\n      jumpi\n      pop\n        /* \"@openzeppelin/contracts-upgradeable/proxy/utils/Initializable.sol\":3369:3370  1 */\n      0x01\n        /* \"@openzeppelin/contracts-upgradeable/proxy/utils/Initializable.sol\":3354:3366  _initialized */\n      0x00\n      dup1\n      sload\n      swap1\n      0x0100\n      exp\n      swap1\n      div\n      0xff\n      and\n        /* \"@openzeppelin/contracts-upgradeable/proxy/utils/Initializable.sol\":3354:3370  _initialized < 1 */\n      0xff\n      and\n      lt\n        /* \"@openzeppelin/contracts-upgradeable/proxy/utils/Initializable.sol\":3336:3370  isTopLevelCall && _initialized < 1 */\n    tag_293:\n        /* \"@openzeppelin/contracts-upgradeable/proxy/utils/Initializable.sol\":3335:3443  (isTopLevelCall && _initialized < 1) || (!AddressUpgradeable.isContract(address(this)) && _initialized == 1) */\n      dup1\n      tag_294\n      jumpi\n      pop\n        /* \"@openzeppelin/contracts-upgradeable/proxy/utils/Initializable.sol\":3377:3421  AddressUpgradeable.isContract(address(this)) */\n      tag_295\n        /* \"@openzeppelin/contracts-upgradeable/proxy/utils/Initializable.sol\":3415:3419  this */\n      address\n        /* \"@openzeppelin/contracts-upgradeable/proxy/utils/Initializable.sol\":3377:3406  AddressUpgradeable.isContract */\n      tag_296\n        /* \"@openzeppelin/contracts-upgradeable/proxy/utils/Initializable.sol\":3377:3421  AddressUpgradeable.isContract(address(this)) */\n      jump\t// in\n    tag_295:\n        /* \"@openzeppelin/contracts-upgradeable/proxy/utils/Initializable.sol\":3376:3421  !AddressUpgradeable.isContract(address(this)) */\n      iszero\n        /* \"@openzeppelin/contracts-upgradeable/proxy/utils/Initializable.sol\":3376:3442  !AddressUpgradeable.isContract(address(this)) && _initialized == 1 */\n      dup1\n      iszero\n      tag_297\n      jumpi\n      pop\n        /* \"@openzeppelin/contracts-upgradeable/proxy/utils/Initializable.sol\":3441:3442  1 */\n      0x01\n        /* \"@openzeppelin/contracts-upgradeable/proxy/utils/Initializable.sol\":3425:3437  _initialized */\n      0x00\n      dup1\n      sload\n      swap1\n      0x0100\n      exp\n      swap1\n      div\n      0xff\n      and\n        /* \"@openzeppelin/contracts-upgradeable/proxy/utils/Initializable.sol\":3425:3442  _initialized == 1 */\n      0xff\n      and\n      eq\n        /* \"@openzeppelin/contracts-upgradeable/proxy/utils/Initializable.sol\":3376:3442  !AddressUpgradeable.isContract(address(this)) && _initialized == 1 */\n    tag_297:\n        /* \"@openzeppelin/contracts-upgradeable/proxy/utils/Initializable.sol\":3335:3443  (isTopLevelCall && _initialized < 1) || (!AddressUpgradeable.isContract(address(this)) && _initialized == 1) */\n    tag_294:\n        /* \"@openzeppelin/contracts-upgradeable/proxy/utils/Initializable.sol\":3314:3515  require(... */\n      tag_298\n      jumpi\n      mload(0x40)\n      0x08c379a000000000000000000000000000000000000000000000000000000000\n      dup2\n      mstore\n      0x04\n      add\n      tag_299\n      swap1\n      tag_300\n      jump\t// in\n    tag_299:\n      mload(0x40)\n      dup1\n      swap2\n      sub\n      swap1\n      revert\n    tag_298:\n        /* \"@openzeppelin/contracts-upgradeable/proxy/utils/Initializable.sol\":3540:3541  1 */\n      0x01\n        /* \"@openzeppelin/contracts-upgradeable/proxy/utils/Initializable.sol\":3525:3537  _initialized */\n      0x00\n      dup1\n        /* \"@openzeppelin/contracts-upgradeable/proxy/utils/Initializable.sol\":3525:3541  _initialized = 1 */\n      0x0100\n      exp\n      dup2\n      sload\n      dup2\n      0xff\n      mul\n      not\n      and\n      swap1\n      dup4\n      0xff\n      and\n      mul\n      or\n      swap1\n      sstore\n      pop\n        /* \"@openzeppelin/contracts-upgradeable/proxy/utils/Initializable.sol\":3555:3569  isTopLevelCall */\n      dup1\n        /* \"@openzeppelin/contracts-upgradeable/proxy/utils/Initializable.sol\":3551:3616  if (isTopLevelCall) {... */\n      iszero\n      tag_301\n      jumpi\n        /* \"@openzeppelin/contracts-upgradeable/proxy/utils/Initializable.sol\":3601:3605  true */\n      0x01\n        /* \"@openzeppelin/contracts-upgradeable/proxy/utils/Initializable.sol\":3585:3598  _initializing */\n      0x00\n      0x01\n        /* \"@openzeppelin/contracts-upgradeable/proxy/utils/Initializable.sol\":3585:3605  _initializing = true */\n      0x0100\n      exp\n      dup2\n      sload\n      dup2\n      0xff\n      mul\n      not\n      and\n      swap1\n      dup4\n      iszero\n      iszero\n      mul\n      or\n      swap1\n      sstore\n      pop\n        /* \"@openzeppelin/contracts-upgradeable/proxy/utils/Initializable.sol\":3551:3616  if (isTopLevelCall) {... */\n    tag_301:\n        /* \"Samples/reward.sol\":2227:2243  __Ownable_init() */\n      tag_303\n        /* \"Samples/reward.sol\":2227:2241  __Ownable_init */\n      tag_304\n        /* \"Samples/reward.sol\":2227:2243  __Ownable_init() */\n      jump\t// in\n    tag_303:\n        /* \"Samples/reward.sol\":2254:2278  __UUPSUpgradeable_init() */\n      tag_305\n        /* \"Samples/reward.sol\":2254:2276  __UUPSUpgradeable_init */\n      tag_306\n        /* \"Samples/reward.sol\":2254:2278  __UUPSUpgradeable_init() */\n      jump\t// in\n    tag_305:\n        /* \"Samples/reward.sol\":2317:2333  _OGBTokenAddress */\n      dup5\n        /* \"Samples/reward.sol\":2299:2314  OGBTokenAddress */\n      0xc9\n      0x00\n        /* \"Samples/reward.sol\":2299:2333  OGBTokenAddress = _OGBTokenAddress */\n      0x0100\n      exp\n      dup2\n      sload\n      dup2\n      0xffffffffffffffffffffffffffffffffffffffff\n      mul\n      not\n      and\n      swap1\n      dup4\n      0xffffffffffffffffffffffffffffffffffffffff\n      and\n      mul\n      or\n      swap1\n      sstore\n      pop\n        /* \"Samples/reward.sol\":2371:2397  _rewardsPerBlockForStaking */\n      dup3\n        /* \"Samples/reward.sol\":2344:2368  rewardPerBlockForStaking */\n      0xcf\n        /* \"Samples/reward.sol\":2344:2397  rewardPerBlockForStaking = _rewardsPerBlockForStaking */\n      dup2\n      swap1\n      sstore\n      pop\n        /* \"Samples/reward.sol\":2424:2435  _startBlock */\n      dup4\n        /* \"Samples/reward.sol\":2410:2421  START_BLOCK */\n      0xca\n        /* \"Samples/reward.sol\":2410:2435  START_BLOCK = _startBlock */\n      dup2\n      swap1\n      sstore\n      pop\n        /* \"Samples/reward.sol\":2471:2494  _periodLengthesInBlocks */\n      dup2\n        /* \"Samples/reward.sol\":2457:2468  _startBlock */\n      dup5\n        /* \"Samples/reward.sol\":2457:2494  _startBlock + _periodLengthesInBlocks */\n      tag_307\n      swap2\n      swap1\n      tag_206\n      jump\t// in\n    tag_307:\n        /* \"Samples/reward.sol\":2446:2454  endBlock */\n      0xcd\n        /* \"Samples/reward.sol\":2446:2494  endBlock = _startBlock + _periodLengthesInBlocks */\n      dup2\n      swap1\n      sstore\n      pop\n        /* \"Samples/reward.sol\":2579:2590  _startBlock */\n      dup4\n        /* \"Samples/reward.sol\":2561:2576  lastRewardBlock */\n      0xce\n        /* \"Samples/reward.sol\":2561:2590  lastRewardBlock = _startBlock */\n      dup2\n      swap1\n      sstore\n      pop\n        /* \"@openzeppelin/contracts-upgradeable/proxy/utils/Initializable.sol\":3640:3654  isTopLevelCall */\n      dup1\n        /* \"@openzeppelin/contracts-upgradeable/proxy/utils/Initializable.sol\":3636:3735  if (isTopLevelCall) {... */\n      iszero\n      tag_308\n      jumpi\n        /* \"@openzeppelin/contracts-upgradeable/proxy/utils/Initializable.sol\":3686:3691  false */\n      0x00\n        /* \"@openzeppelin/contracts-upgradeable/proxy/utils/Initializable.sol\":3670:3683  _initializing */\n      dup1\n      0x01\n        /* \"@openzeppelin/contracts-upgradeable/proxy/utils/Initializable.sol\":3670:3691  _initializing = false */\n      0x0100\n      exp\n      dup2\n      sload\n      dup2\n      0xff\n      mul\n      not\n      and\n      swap1\n      dup4\n      iszero\n      iszero\n      mul\n      or\n      swap1\n      sstore\n      pop\n        /* \"@openzeppelin/contracts-upgradeable/proxy/utils/Initializable.sol\":3710:3724  Initialized(1) */\n      0x7f26b83ff96e1f2b6a682f133852f6798a09c465da95921460cefb3847402498\n        /* \"@openzeppelin/contracts-upgradeable/proxy/utils/Initializable.sol\":3722:3723  1 */\n      0x01\n        /* \"@openzeppelin/contracts-upgradeable/proxy/utils/Initializable.sol\":3710:3724  Initialized(1) */\n      mload(0x40)\n      tag_309\n      swap2\n      swap1\n      tag_310\n      jump\t// in\n    tag_309:\n      mload(0x40)\n      dup1\n      swap2\n      sub\n      swap1\n      log1\n        /* \"@openzeppelin/contracts-upgradeable/proxy/utils/Initializable.sol\":3636:3735  if (isTopLevelCall) {... */\n    tag_308:\n        /* \"@openzeppelin/contracts-upgradeable/proxy/utils/Initializable.sol\":3258:3741  {... */\n      pop\n        /* \"Samples/reward.sol\":2061:2598  function initialize(address _OGBTokenAddress, uint256 _startBlock, uint256 _rewardsPerBlockForStaking, uint256 _periodLengthesInBlocks) public initializer {\r... */\n      pop\n      pop\n      pop\n      pop\n      jump\t// out\n        /* \"@openzeppelin/contracts-upgradeable/proxy/utils/UUPSUpgradeable.sol\":3763:3985  function upgradeToAndCall(address newImplementation, bytes memory data) external payable virtual onlyProxy {... */\n    tag_107:\n        /* \"@openzeppelin/contracts-upgradeable/proxy/utils/UUPSUpgradeable.sol\":1898:1904  __self */\n      immutable(\"0x4c643d5d9b0441803235e222732b65e2dc488f209ae20302cca6cafc813933a8\")\n        /* \"@openzeppelin/contracts-upgradeable/proxy/utils/UUPSUpgradeable.sol\":1881:1904  address(this) != __self */\n      0xffffffffffffffffffffffffffffffffffffffff\n      and\n        /* \"@openzeppelin/contracts-upgradeable/proxy/utils/UUPSUpgradeable.sol\":1889:1893  this */\n      address\n        /* \"@openzeppelin/contracts-upgradeable/proxy/utils/UUPSUpgradeable.sol\":1881:1904  address(this) != __self */\n      0xffffffffffffffffffffffffffffffffffffffff\n      and\n      eq\n      iszero\n        /* \"@openzeppelin/contracts-upgradeable/proxy/utils/UUPSUpgradeable.sol\":1873:1953  require(address(this) != __self, \"Function must be called through delegatecall\") */\n      tag_312\n      jumpi\n      mload(0x40)\n      0x08c379a000000000000000000000000000000000000000000000000000000000\n      dup2\n      mstore\n      0x04\n      add\n      tag_313\n      swap1\n      tag_271\n      jump\t// in\n    tag_313:\n      mload(0x40)\n      dup1\n      swap2\n      sub\n      swap1\n      revert\n    tag_312:\n        /* \"@openzeppelin/contracts-upgradeable/proxy/utils/UUPSUpgradeable.sol\":1995:2001  __self */\n      immutable(\"0x4c643d5d9b0441803235e222732b65e2dc488f209ae20302cca6cafc813933a8\")\n        /* \"@openzeppelin/contracts-upgradeable/proxy/utils/UUPSUpgradeable.sol\":1971:2001  _getImplementation() == __self */\n      0xffffffffffffffffffffffffffffffffffffffff\n      and\n        /* \"@openzeppelin/contracts-upgradeable/proxy/utils/UUPSUpgradeable.sol\":1971:1991  _getImplementation() */\n      tag_314\n        /* \"@openzeppelin/contracts-upgradeable/proxy/utils/UUPSUpgradeable.sol\":1971:1989  _getImplementation */\n      tag_273\n        /* \"@openzeppelin/contracts-upgradeable/proxy/utils/UUPSUpgradeable.sol\":1971:1991  _getImplementation() */\n      jump\t// in\n    tag_314:\n        /* \"@openzeppelin/contracts-upgradeable/proxy/utils/UUPSUpgradeable.sol\":1971:2001  _getImplementation() == __self */\n      0xffffffffffffffffffffffffffffffffffffffff\n      and\n      eq\n        /* \"@openzeppelin/contracts-upgradeable/proxy/utils/UUPSUpgradeable.sol\":1963:2050  require(_getImplementation() == __self, \"Function must be called through active proxy\") */\n      tag_315\n      jumpi\n      mload(0x40)\n      0x08c379a000000000000000000000000000000000000000000000000000000000\n      dup2\n      mstore\n      0x04\n      add\n      tag_316\n      swap1\n      tag_276\n      jump\t// in\n    tag_316:\n      mload(0x40)\n      dup1\n      swap2\n      sub\n      swap1\n      revert\n    tag_315:\n        /* \"@openzeppelin/contracts-upgradeable/proxy/utils/UUPSUpgradeable.sol\":3880:3916  _authorizeUpgrade(newImplementation) */\n      tag_318\n        /* \"@openzeppelin/contracts-upgradeable/proxy/utils/UUPSUpgradeable.sol\":3898:3915  newImplementation */\n      dup3\n        /* \"@openzeppelin/contracts-upgradeable/proxy/utils/UUPSUpgradeable.sol\":3880:3897  _authorizeUpgrade */\n      tag_279\n        /* \"@openzeppelin/contracts-upgradeable/proxy/utils/UUPSUpgradeable.sol\":3880:3916  _authorizeUpgrade(newImplementation) */\n      jump\t// in\n    tag_318:\n        /* \"@openzeppelin/contracts-upgradeable/proxy/utils/UUPSUpgradeable.sol\":3926:3978  _upgradeToAndCallUUPS(newImplementation, data, true) */\n      tag_319\n        /* \"@openzeppelin/contracts-upgradeable/proxy/utils/UUPSUpgradeable.sol\":3948:3965  newImplementation */\n      dup3\n        /* \"@openzeppelin/contracts-upgradeable/proxy/utils/UUPSUpgradeable.sol\":3967:3971  data */\n      dup3\n        /* \"@openzeppelin/contracts-upgradeable/proxy/utils/UUPSUpgradeable.sol\":3973:3977  true */\n      0x01\n        /* \"@openzeppelin/contracts-upgradeable/proxy/utils/UUPSUpgradeable.sol\":3926:3947  _upgradeToAndCallUUPS */\n      tag_284\n        /* \"@openzeppelin/contracts-upgradeable/proxy/utils/UUPSUpgradeable.sol\":3926:3978  _upgradeToAndCallUUPS(newImplementation, data, true) */\n      jump\t// in\n    tag_319:\n        /* \"@openzeppelin/contracts-upgradeable/proxy/utils/UUPSUpgradeable.sol\":3763:3985  function upgradeToAndCall(address newImplementation, bytes memory data) external payable virtual onlyProxy {... */\n      pop\n      pop\n      jump\t// out\n        /* \"@openzeppelin/contracts-upgradeable/proxy/utils/UUPSUpgradeable.sol\":3006:3137  function proxiableUUID() external view virtual override notDelegated returns (bytes32) {... */\n    tag_110:\n        /* \"@openzeppelin/contracts-upgradeable/proxy/utils/UUPSUpgradeable.sol\":3084:3091  bytes32 */\n      0x00\n        /* \"@openzeppelin/contracts-upgradeable/proxy/utils/UUPSUpgradeable.sol\":2333:2339  __self */\n      immutable(\"0x4c643d5d9b0441803235e222732b65e2dc488f209ae20302cca6cafc813933a8\")\n        /* \"@openzeppelin/contracts-upgradeable/proxy/utils/UUPSUpgradeable.sol\":2316:2339  address(this) == __self */\n      0xffffffffffffffffffffffffffffffffffffffff\n      and\n        /* \"@openzeppelin/contracts-upgradeable/proxy/utils/UUPSUpgradeable.sol\":2324:2328  this */\n      address\n        /* \"@openzeppelin/contracts-upgradeable/proxy/utils/UUPSUpgradeable.sol\":2316:2339  address(this) == __self */\n      0xffffffffffffffffffffffffffffffffffffffff\n      and\n      eq\n        /* \"@openzeppelin/contracts-upgradeable/proxy/utils/UUPSUpgradeable.sol\":2308:2400  require(address(this) == __self, \"UUPSUpgradeable: must not be called through delegatecall\") */\n      tag_321\n      jumpi\n      mload(0x40)\n      0x08c379a000000000000000000000000000000000000000000000000000000000\n      dup2\n      mstore\n      0x04\n      add\n      tag_322\n      swap1\n      tag_323\n      jump\t// in\n    tag_322:\n      mload(0x40)\n      dup1\n      swap2\n      sub\n      swap1\n      revert\n    tag_321:\n        /* \"@openzeppelin/contracts-upgradeable/proxy/ERC1967/ERC1967UpgradeUpgradeable.sol\":1292:1358  0x360894a13ba1a3210667c828492db98dca3e2076cc3735a920a3ca505d382bbc */\n      0x360894a13ba1a3210667c828492db98dca3e2076cc3735a920a3ca505d382bbc\n        /* \"@openzeppelin/contracts-upgradeable/proxy/utils/UUPSUpgradeable.sol\":3110:3130  _IMPLEMENTATION_SLOT */\n      0x00\n      shl\n        /* \"@openzeppelin/contracts-upgradeable/proxy/utils/UUPSUpgradeable.sol\":3103:3130  return _IMPLEMENTATION_SLOT */\n      swap1\n      pop\n        /* \"@openzeppelin/contracts-upgradeable/proxy/utils/UUPSUpgradeable.sol\":3006:3137  function proxiableUUID() external view virtual override notDelegated returns (bytes32) {... */\n      swap1\n      jump\t// out\n        /* \"Samples/reward.sol\":1422:1461  uint256 public rewardPerBlockForStaking */\n    tag_115:\n      sload(0xcf)\n      dup2\n      jump\t// out\n        /* \"Samples/reward.sol\":3603:3993  function getUserInfo(address _userAddress) public view returns(UserInfo memory _userInfo){\r... */\n    tag_120:\n        /* \"Samples/reward.sol\":3666:3691  UserInfo memory _userInfo */\n      tag_325\n      tag_326\n      jump\t// in\n    tag_325:\n        /* \"Samples/reward.sol\":3722:3730  userInfo */\n      0xd2\n        /* \"Samples/reward.sol\":3722:3744  userInfo[_userAddress] */\n      0x00\n        /* \"Samples/reward.sol\":3731:3743  _userAddress */\n      dup4\n        /* \"Samples/reward.sol\":3722:3744  userInfo[_userAddress] */\n      0xffffffffffffffffffffffffffffffffffffffff\n      and\n      0xffffffffffffffffffffffffffffffffffffffff\n      and\n      dup2\n      mstore\n      0x20\n      add\n      swap1\n      dup2\n      mstore\n      0x20\n      add\n      0x00\n      keccak256\n        /* \"Samples/reward.sol\":3722:3751  userInfo[_userAddress].amount */\n      0x00\n      add\n      sload\n        /* \"Samples/reward.sol\":3703:3712  _userInfo */\n      dup2\n        /* \"Samples/reward.sol\":3703:3719  _userInfo.amount */\n      0x00\n      add\n        /* \"Samples/reward.sol\":3703:3751  _userInfo.amount = userInfo[_userAddress].amount */\n      dup2\n      dup2\n      mstore\n      pop\n      pop\n        /* \"Samples/reward.sol\":3790:3827  calculatePendingRewards(_userAddress) */\n      tag_328\n        /* \"Samples/reward.sol\":3814:3826  _userAddress */\n      dup3\n        /* \"Samples/reward.sol\":3790:3813  calculatePendingRewards */\n      tag_59\n        /* \"Samples/reward.sol\":3790:3827  calculatePendingRewards(_userAddress) */\n      jump\t// in\n    tag_328:\n        /* \"Samples/reward.sol\":3762:3827  (_userInfo.rewardAmount,) = calculatePendingRewards(_userAddress) */\n      pop\n        /* \"Samples/reward.sol\":3763:3772  _userInfo */\n      dup2\n        /* \"Samples/reward.sol\":3763:3785  _userInfo.rewardAmount */\n      0x20\n      add\n        /* \"Samples/reward.sol\":3762:3827  (_userInfo.rewardAmount,) = calculatePendingRewards(_userAddress) */\n      dup2\n      dup2\n      mstore\n      pop\n      pop\n        /* \"Samples/reward.sol\":3865:3873  userInfo */\n      0xd2\n        /* \"Samples/reward.sol\":3865:3887  userInfo[_userAddress] */\n      0x00\n        /* \"Samples/reward.sol\":3874:3886  _userAddress */\n      dup4\n        /* \"Samples/reward.sol\":3865:3887  userInfo[_userAddress] */\n      0xffffffffffffffffffffffffffffffffffffffff\n      and\n      0xffffffffffffffffffffffffffffffffffffffff\n      and\n      dup2\n      mstore\n      0x20\n      add\n      swap1\n      dup2\n      mstore\n      0x20\n      add\n      0x00\n      keccak256\n        /* \"Samples/reward.sol\":3865:3902  userInfo[_userAddress].investmentTime */\n      0x02\n      add\n      sload\n        /* \"Samples/reward.sol\":3838:3847  _userInfo */\n      dup2\n        /* \"Samples/reward.sol\":3838:3862  _userInfo.investmentTime */\n      0x40\n      add\n        /* \"Samples/reward.sol\":3838:3902  _userInfo.investmentTime = userInfo[_userAddress].investmentTime */\n      dup2\n      dup2\n      mstore\n      pop\n      pop\n        /* \"Samples/reward.sol\":3944:3952  userInfo */\n      0xd2\n        /* \"Samples/reward.sol\":3944:3966  userInfo[_userAddress] */\n      0x00\n        /* \"Samples/reward.sol\":3953:3965  _userAddress */\n      dup4\n        /* \"Samples/reward.sol\":3944:3966  userInfo[_userAddress] */\n      0xffffffffffffffffffffffffffffffffffffffff\n      and\n      0xffffffffffffffffffffffffffffffffffffffff\n      and\n      dup2\n      mstore\n      0x20\n      add\n      swap1\n      dup2\n      mstore\n      0x20\n      add\n      0x00\n      keccak256\n        /* \"Samples/reward.sol\":3944:3985  userInfo[_userAddress].rewardWithdrawTime */\n      0x03\n      add\n      sload\n        /* \"Samples/reward.sol\":3913:3922  _userInfo */\n      dup2\n        /* \"Samples/reward.sol\":3913:3941  _userInfo.rewardWithdrawTime */\n      0x60\n      add\n        /* \"Samples/reward.sol\":3913:3985  _userInfo.rewardWithdrawTime = userInfo[_userAddress].rewardWithdrawTime */\n      dup2\n      dup2\n      mstore\n      pop\n      pop\n        /* \"Samples/reward.sol\":3603:3993  function getUserInfo(address _userAddress) public view returns(UserInfo memory _userInfo){\r... */\n      swap2\n      swap1\n      pop\n      jump\t// out\n        /* \"Samples/reward.sol\":9233:9337  function startEndBLock(uint256 _startBlock) public onlyOwner{\r... */\n    tag_126:\n        /* \"@openzeppelin/contracts-upgradeable/access/OwnableUpgradeable.sol\":1334:1347  _checkOwner() */\n      tag_330\n        /* \"@openzeppelin/contracts-upgradeable/access/OwnableUpgradeable.sol\":1334:1345  _checkOwner */\n      tag_217\n        /* \"@openzeppelin/contracts-upgradeable/access/OwnableUpgradeable.sol\":1334:1347  _checkOwner() */\n      jump\t// in\n    tag_330:\n        /* \"Samples/reward.sol\":9318:9329  _startBlock */\n      dup1\n        /* \"Samples/reward.sol\":9304:9315  START_BLOCK */\n      0xca\n        /* \"Samples/reward.sol\":9304:9329  START_BLOCK = _startBlock */\n      dup2\n      swap1\n      sstore\n      pop\n        /* \"Samples/reward.sol\":9233:9337  function startEndBLock(uint256 _startBlock) public onlyOwner{\r... */\n      pop\n      jump\t// out\n        /* \"Samples/reward.sol\":9345:9565  function emergencyWithdrawToken(address token, address destination) public onlyOwner returns (bool sent){\r... */\n    tag_131:\n        /* \"Samples/reward.sol\":9439:9448  bool sent */\n      0x00\n        /* \"@openzeppelin/contracts-upgradeable/access/OwnableUpgradeable.sol\":1334:1347  _checkOwner() */\n      tag_333\n        /* \"@openzeppelin/contracts-upgradeable/access/OwnableUpgradeable.sol\":1334:1345  _checkOwner */\n      tag_217\n        /* \"@openzeppelin/contracts-upgradeable/access/OwnableUpgradeable.sol\":1334:1347  _checkOwner() */\n      jump\t// in\n    tag_333:\n        /* \"Samples/reward.sol\":9467:9472  token */\n      dup3\n        /* \"Samples/reward.sol\":9460:9482  IERC20(token).transfer */\n      0xffffffffffffffffffffffffffffffffffffffff\n      and\n      0xa9059cbb\n        /* \"Samples/reward.sol\":9483:9494  destination */\n      dup4\n        /* \"Samples/reward.sol\":9503:9508  token */\n      dup6\n        /* \"Samples/reward.sol\":9496:9519  IERC20(token).balanceOf */\n      0xffffffffffffffffffffffffffffffffffffffff\n      and\n      0x70a08231\n        /* \"Samples/reward.sol\":9528:9532  this */\n      address\n        /* \"Samples/reward.sol\":9496:9534  IERC20(token).balanceOf(address(this)) */\n      mload(0x40)\n      dup3\n      0xffffffff\n      and\n      0xe0\n      shl\n      dup2\n      mstore\n      0x04\n      add\n      tag_335\n      swap2\n      swap1\n      tag_148\n      jump\t// in\n    tag_335:\n      0x20\n      mload(0x40)\n      dup1\n      dup4\n      sub\n      dup2\n      dup7\n      dup1\n      extcodesize\n      iszero\n      dup1\n      iszero\n      tag_336\n      jumpi\n      0x00\n      dup1\n      revert\n    tag_336:\n      pop\n      gas\n      staticcall\n      iszero\n      dup1\n      iszero\n      tag_338\n      jumpi\n      returndatasize\n      0x00\n      dup1\n      returndatacopy\n      revert(0x00, returndatasize)\n    tag_338:\n      pop\n      pop\n      pop\n      pop\n      mload(0x40)\n      returndatasize\n      not(0x1f)\n      0x1f\n      dup3\n      add\n      and\n      dup3\n      add\n      dup1\n      0x40\n      mstore\n      pop\n      dup2\n      add\n      swap1\n      tag_339\n      swap2\n      swap1\n      tag_291\n      jump\t// in\n    tag_339:\n        /* \"Samples/reward.sol\":9460:9535  IERC20(token).transfer(destination, IERC20(token).balanceOf(address(this))) */\n      mload(0x40)\n      dup4\n      0xffffffff\n      and\n      0xe0\n      shl\n      dup2\n      mstore\n      0x04\n      add\n      tag_340\n      swap3\n      swap2\n      swap1\n      tag_341\n      jump\t// in\n    tag_340:\n      0x20\n      mload(0x40)\n      dup1\n      dup4\n      sub\n      dup2\n      0x00\n      dup8\n      dup1\n      extcodesize\n      iszero\n      dup1\n      iszero\n      tag_342\n      jumpi\n      0x00\n      dup1\n      revert\n    tag_342:\n      pop\n      gas\n      call\n      iszero\n      dup1\n      iszero\n      tag_344\n      jumpi\n      returndatasize\n      0x00\n      dup1\n      returndatacopy\n      revert(0x00, returndatasize)\n    tag_344:\n      pop\n      pop\n      pop\n      pop\n      mload(0x40)\n      returndatasize\n      not(0x1f)\n      0x1f\n      dup3\n      add\n      and\n      dup3\n      add\n      dup1\n      0x40\n      mstore\n      pop\n      dup2\n      add\n      swap1\n      tag_345\n      swap2\n      swap1\n      tag_346\n      jump\t// in\n    tag_345:\n      pop\n        /* \"Samples/reward.sol\":9553:9557  true */\n      0x01\n        /* \"Samples/reward.sol\":9546:9557  return true */\n      swap1\n      pop\n        /* \"Samples/reward.sol\":9345:9565  function emergencyWithdrawToken(address token, address destination) public onlyOwner returns (bool sent){\r... */\n      swap3\n      swap2\n      pop\n      pop\n      jump\t// out\n        /* \"@openzeppelin/contracts-upgradeable/access/OwnableUpgradeable.sol\":2071:2172  function renounceOwnership() public virtual onlyOwner {... */\n    tag_135:\n        /* \"@openzeppelin/contracts-upgradeable/access/OwnableUpgradeable.sol\":1334:1347  _checkOwner() */\n      tag_348\n        /* \"@openzeppelin/contracts-upgradeable/access/OwnableUpgradeable.sol\":1334:1345  _checkOwner */\n      tag_217\n        /* \"@openzeppelin/contracts-upgradeable/access/OwnableUpgradeable.sol\":1334:1347  _checkOwner() */\n      jump\t// in\n    tag_348:\n        /* \"@openzeppelin/contracts-upgradeable/access/OwnableUpgradeable.sol\":2135:2165  _transferOwnership(address(0)) */\n      tag_350\n        /* \"@openzeppelin/contracts-upgradeable/access/OwnableUpgradeable.sol\":2162:2163  0 */\n      0x00\n        /* \"@openzeppelin/contracts-upgradeable/access/OwnableUpgradeable.sol\":2135:2153  _transferOwnership */\n      tag_351\n        /* \"@openzeppelin/contracts-upgradeable/access/OwnableUpgradeable.sol\":2135:2165  _transferOwnership(address(0)) */\n      jump\t// in\n    tag_350:\n        /* \"@openzeppelin/contracts-upgradeable/access/OwnableUpgradeable.sol\":2071:2172  function renounceOwnership() public virtual onlyOwner {... */\n      jump\t// out\n        /* \"Samples/reward.sol\":8920:9122  function userTransactionsLength(address user)public view returns(uint256 _transactionsLength){\r... */\n    tag_139:\n        /* \"Samples/reward.sol\":8985:9012  uint256 _transactionsLength */\n      0x00\n        /* \"Samples/reward.sol\":9024:9050  uint256 transactionsLength */\n      dup1\n        /* \"Samples/reward.sol\":9053:9065  userTxsArray */\n      0xd4\n        /* \"Samples/reward.sol\":9053:9071  userTxsArray[user] */\n      0x00\n        /* \"Samples/reward.sol\":9066:9070  user */\n      dup5\n        /* \"Samples/reward.sol\":9053:9071  userTxsArray[user] */\n      0xffffffffffffffffffffffffffffffffffffffff\n      and\n      0xffffffffffffffffffffffffffffffffffffffff\n      and\n      dup2\n      mstore\n      0x20\n      add\n      swap1\n      dup2\n      mstore\n      0x20\n      add\n      0x00\n      keccak256\n        /* \"Samples/reward.sol\":9053:9078  userTxsArray[user].length */\n      dup1\n      sload\n      swap1\n      pop\n        /* \"Samples/reward.sol\":9024:9078  uint256 transactionsLength = userTxsArray[user].length */\n      swap1\n      pop\n        /* \"Samples/reward.sol\":9096:9114  transactionsLength */\n      dup1\n        /* \"Samples/reward.sol\":9089:9114  return transactionsLength */\n      swap2\n      pop\n      pop\n        /* \"Samples/reward.sol\":8920:9122  function userTransactionsLength(address user)public view returns(uint256 _transactionsLength){\r... */\n      swap2\n      swap1\n      pop\n      jump\t// out\n        /* \"Samples/reward.sol\":4001:5344  function withdrawAll() external {\r... */\n    tag_143:\n        /* \"Samples/reward.sol\":4082:4083  0 */\n      0x00\n        /* \"Samples/reward.sol\":4052:4060  userInfo */\n      0xd2\n        /* \"Samples/reward.sol\":4052:4072  userInfo[msg.sender] */\n      0x00\n        /* \"Samples/reward.sol\":4061:4071  msg.sender */\n      caller\n        /* \"Samples/reward.sol\":4052:4072  userInfo[msg.sender] */\n      0xffffffffffffffffffffffffffffffffffffffff\n      and\n      0xffffffffffffffffffffffffffffffffffffffff\n      and\n      dup2\n      mstore\n      0x20\n      add\n      swap1\n      dup2\n      mstore\n      0x20\n      add\n      0x00\n      keccak256\n        /* \"Samples/reward.sol\":4052:4079  userInfo[msg.sender].amount */\n      0x00\n      add\n      sload\n        /* \"Samples/reward.sol\":4052:4083  userInfo[msg.sender].amount > 0 */\n      gt\n        /* \"Samples/reward.sol\":4044:4116  require(userInfo[msg.sender].amount > 0, \"Withdraw: Amount must be > 0\") */\n      tag_354\n      jumpi\n      mload(0x40)\n      0x08c379a000000000000000000000000000000000000000000000000000000000\n      dup2\n      mstore\n      0x04\n      add\n      tag_355\n      swap1\n      tag_356\n      jump\t// in\n    tag_355:\n      mload(0x40)\n      dup1\n      swap2\n      sub\n      swap1\n      revert\n    tag_354:\n        /* \"Samples/reward.sol\":4153:4166  _updatePool() */\n      tag_357\n        /* \"Samples/reward.sol\":4153:4164  _updatePool */\n      tag_358\n        /* \"Samples/reward.sol\":4153:4166  _updatePool() */\n      jump\t// in\n    tag_357:\n        /* \"Samples/reward.sol\":4256:4278  uint256 pendingRewards */\n      0x00\n        /* \"Samples/reward.sol\":4353:4364  debtRewards */\n      0xd3\n        /* \"Samples/reward.sol\":4353:4376  debtRewards[msg.sender] */\n      0x00\n        /* \"Samples/reward.sol\":4365:4375  msg.sender */\n      caller\n        /* \"Samples/reward.sol\":4353:4376  debtRewards[msg.sender] */\n      0xffffffffffffffffffffffffffffffffffffffff\n      and\n      0xffffffffffffffffffffffffffffffffffffffff\n      and\n      dup2\n      mstore\n      0x20\n      add\n      swap1\n      dup2\n      mstore\n      0x20\n      add\n      0x00\n      keccak256\n      sload\n        /* \"Samples/reward.sol\":948:954  10**12 */\n      0xe8d4a51000\n        /* \"Samples/reward.sol\":4313:4329  accTokenPerShare */\n      sload(0xcb)\n        /* \"Samples/reward.sol\":4283:4291  userInfo */\n      0xd2\n        /* \"Samples/reward.sol\":4283:4303  userInfo[msg.sender] */\n      0x00\n        /* \"Samples/reward.sol\":4292:4302  msg.sender */\n      caller\n        /* \"Samples/reward.sol\":4283:4303  userInfo[msg.sender] */\n      0xffffffffffffffffffffffffffffffffffffffff\n      and\n      0xffffffffffffffffffffffffffffffffffffffff\n      and\n      dup2\n      mstore\n      0x20\n      add\n      swap1\n      dup2\n      mstore\n      0x20\n      add\n      0x00\n      keccak256\n        /* \"Samples/reward.sol\":4283:4310  userInfo[msg.sender].amount */\n      0x00\n      add\n      sload\n        /* \"Samples/reward.sol\":4283:4329  userInfo[msg.sender].amount * accTokenPerShare */\n      tag_359\n      swap2\n      swap1\n      tag_201\n      jump\t// in\n    tag_359:\n        /* \"Samples/reward.sol\":4282:4349  (userInfo[msg.sender].amount * accTokenPerShare) / PRECISION_FACTOR */\n      tag_360\n      swap2\n      swap1\n      tag_204\n      jump\t// in\n    tag_360:\n        /* \"Samples/reward.sol\":4281:4376  ((userInfo[msg.sender].amount * accTokenPerShare) / PRECISION_FACTOR) - debtRewards[msg.sender] */\n      tag_361\n      swap2\n      swap1\n      tag_210\n      jump\t// in\n    tag_361:\n        /* \"Samples/reward.sol\":4256:4376  uint256 pendingRewards = ((userInfo[msg.sender].amount * accTokenPerShare) / PRECISION_FACTOR) - debtRewards[msg.sender] */\n      swap1\n      pop\n        /* \"Samples/reward.sol\":4445:4469  uint256 amountToTransfer */\n      0x00\n        /* \"Samples/reward.sol\":4502:4516  pendingRewards */\n      dup2\n        /* \"Samples/reward.sol\":4472:4480  userInfo */\n      0xd2\n        /* \"Samples/reward.sol\":4472:4492  userInfo[msg.sender] */\n      0x00\n        /* \"Samples/reward.sol\":4481:4491  msg.sender */\n      caller\n        /* \"Samples/reward.sol\":4472:4492  userInfo[msg.sender] */\n      0xffffffffffffffffffffffffffffffffffffffff\n      and\n      0xffffffffffffffffffffffffffffffffffffffff\n      and\n      dup2\n      mstore\n      0x20\n      add\n      swap1\n      dup2\n      mstore\n      0x20\n      add\n      0x00\n      keccak256\n        /* \"Samples/reward.sol\":4472:4499  userInfo[msg.sender].amount */\n      0x00\n      add\n      sload\n        /* \"Samples/reward.sol\":4472:4516  userInfo[msg.sender].amount + pendingRewards */\n      tag_362\n      swap2\n      swap1\n      tag_206\n      jump\t// in\n    tag_362:\n        /* \"Samples/reward.sol\":4445:4516  uint256 amountToTransfer = userInfo[msg.sender].amount + pendingRewards */\n      swap1\n      pop\n        /* \"Samples/reward.sol\":4668:4676  userInfo */\n      0xd2\n        /* \"Samples/reward.sol\":4668:4688  userInfo[msg.sender] */\n      0x00\n        /* \"Samples/reward.sol\":4677:4687  msg.sender */\n      caller\n        /* \"Samples/reward.sol\":4668:4688  userInfo[msg.sender] */\n      0xffffffffffffffffffffffffffffffffffffffff\n      and\n      0xffffffffffffffffffffffffffffffffffffffff\n      and\n      dup2\n      mstore\n      0x20\n      add\n      swap1\n      dup2\n      mstore\n      0x20\n      add\n      0x00\n      keccak256\n        /* \"Samples/reward.sol\":4668:4695  userInfo[msg.sender].amount */\n      0x00\n      add\n      sload\n        /* \"Samples/reward.sol\":4648:4665  totalAmountStaked */\n      sload(0xd0)\n        /* \"Samples/reward.sol\":4648:4695  totalAmountStaked - userInfo[msg.sender].amount */\n      tag_363\n      swap2\n      swap1\n      tag_210\n      jump\t// in\n    tag_363:\n        /* \"Samples/reward.sol\":4628:4645  totalAmountStaked */\n      0xd0\n        /* \"Samples/reward.sol\":4628:4695  totalAmountStaked = totalAmountStaked - userInfo[msg.sender].amount */\n      dup2\n      swap1\n      sstore\n      pop\n        /* \"Samples/reward.sol\":4838:4839  0 */\n      0x00\n        /* \"Samples/reward.sol\":4808:4816  userInfo */\n      0xd2\n        /* \"Samples/reward.sol\":4808:4828  userInfo[msg.sender] */\n      0x00\n        /* \"Samples/reward.sol\":4817:4827  msg.sender */\n      caller\n        /* \"Samples/reward.sol\":4808:4828  userInfo[msg.sender] */\n      0xffffffffffffffffffffffffffffffffffffffff\n      and\n      0xffffffffffffffffffffffffffffffffffffffff\n      and\n      dup2\n      mstore\n      0x20\n      add\n      swap1\n      dup2\n      mstore\n      0x20\n      add\n      0x00\n      keccak256\n        /* \"Samples/reward.sol\":4808:4835  userInfo[msg.sender].amount */\n      0x00\n      add\n        /* \"Samples/reward.sol\":4808:4839  userInfo[msg.sender].amount = 0 */\n      dup2\n      swap1\n      sstore\n      pop\n        /* \"Samples/reward.sol\":4876:4877  0 */\n      0x00\n        /* \"Samples/reward.sol\":4850:4861  debtRewards */\n      0xd3\n        /* \"Samples/reward.sol\":4850:4873  debtRewards[msg.sender] */\n      0x00\n        /* \"Samples/reward.sol\":4862:4872  msg.sender */\n      caller\n        /* \"Samples/reward.sol\":4850:4873  debtRewards[msg.sender] */\n      0xffffffffffffffffffffffffffffffffffffffff\n      and\n      0xffffffffffffffffffffffffffffffffffffffff\n      and\n      dup2\n      mstore\n      0x20\n      add\n      swap1\n      dup2\n      mstore\n      0x20\n      add\n      0x00\n      keccak256\n        /* \"Samples/reward.sol\":4850:4877  debtRewards[msg.sender] = 0 */\n      dup2\n      swap1\n      sstore\n      pop\n        /* \"Samples/reward.sol\":4945:4960  OGBTokenAddress */\n      0xc9\n      0x00\n      swap1\n      sload\n      swap1\n      0x0100\n      exp\n      swap1\n      div\n      0xffffffffffffffffffffffffffffffffffffffff\n      and\n        /* \"Samples/reward.sol\":4938:4970  IERC20(OGBTokenAddress).transfer */\n      0xffffffffffffffffffffffffffffffffffffffff\n      and\n      0xa9059cbb\n        /* \"Samples/reward.sol\":4971:4981  msg.sender */\n      caller\n        /* \"Samples/reward.sol\":4983:4999  amountToTransfer */\n      dup4\n        /* \"Samples/reward.sol\":4938:5000  IERC20(OGBTokenAddress).transfer(msg.sender, amountToTransfer) */\n      mload(0x40)\n      dup4\n      0xffffffff\n      and\n      0xe0\n      shl\n      dup2\n      mstore\n      0x04\n      add\n      tag_364\n      swap3\n      swap2\n      swap1\n      tag_341\n      jump\t// in\n    tag_364:\n      0x20\n      mload(0x40)\n      dup1\n      dup4\n      sub\n      dup2\n      0x00\n      dup8\n      dup1\n      extcodesize\n      iszero\n      dup1\n      iszero\n      tag_365\n      jumpi\n      0x00\n      dup1\n      revert\n    tag_365:\n      pop\n      gas\n      call\n      iszero\n      dup1\n      iszero\n      tag_367\n      jumpi\n      returndatasize\n      0x00\n      dup1\n      returndatacopy\n      revert(0x00, returndatasize)\n    tag_367:\n      pop\n      pop\n      pop\n      pop\n      mload(0x40)\n      returndatasize\n      not(0x1f)\n      0x1f\n      dup3\n      add\n      and\n      dup3\n      add\n      dup1\n      0x40\n      mstore\n      pop\n      dup2\n      add\n      swap1\n      tag_368\n      swap2\n      swap1\n      tag_346\n      jump\t// in\n    tag_368:\n      pop\n        /* \"Samples/reward.sol\":5032:5040  userInfo */\n      0xd2\n        /* \"Samples/reward.sol\":5032:5052  userInfo[msg.sender] */\n      0x00\n        /* \"Samples/reward.sol\":5041:5051  msg.sender */\n      caller\n        /* \"Samples/reward.sol\":5032:5052  userInfo[msg.sender] */\n      0xffffffffffffffffffffffffffffffffffffffff\n      and\n      0xffffffffffffffffffffffffffffffffffffffff\n      and\n      dup2\n      mstore\n      0x20\n      add\n      swap1\n      dup2\n      mstore\n      0x20\n      add\n      0x00\n      keccak256\n        /* \"Samples/reward.sol\":5032:5059  userInfo[msg.sender].amount */\n      0x00\n      add\n      sload\n        /* \"Samples/reward.sol\":5011:5028  totalAmountStaked */\n      0xd0\n      0x00\n        /* \"Samples/reward.sol\":5011:5059  totalAmountStaked -= userInfo[msg.sender].amount */\n      dup3\n      dup3\n      sload\n      tag_369\n      swap2\n      swap1\n      tag_210\n      jump\t// in\n    tag_369:\n      swap3\n      pop\n      pop\n      dup2\n      swap1\n      sstore\n      pop\n        /* \"Samples/reward.sol\":5114:5129  block.timestamp */\n      timestamp\n        /* \"Samples/reward.sol\":5072:5080  userInfo */\n      0xd2\n        /* \"Samples/reward.sol\":5072:5092  userInfo[msg.sender] */\n      0x00\n        /* \"Samples/reward.sol\":5081:5091  msg.sender */\n      caller\n        /* \"Samples/reward.sol\":5072:5092  userInfo[msg.sender] */\n      0xffffffffffffffffffffffffffffffffffffffff\n      and\n      0xffffffffffffffffffffffffffffffffffffffff\n      and\n      dup2\n      mstore\n      0x20\n      add\n      swap1\n      dup2\n      mstore\n      0x20\n      add\n      0x00\n      keccak256\n        /* \"Samples/reward.sol\":5072:5111  userInfo[msg.sender].rewardWithdrawTime */\n      0x03\n      add\n        /* \"Samples/reward.sol\":5072:5129  userInfo[msg.sender].rewardWithdrawTime = block.timestamp */\n      dup2\n      swap1\n      sstore\n      pop\n        /* \"Samples/reward.sol\":5142:5162  TxHistory memory txH */\n      0x00\n        /* \"Samples/reward.sol\":5165:5221  TxHistory(amountToTransfer, block.timestamp, \"Withdraw\") */\n      mload(0x40)\n      dup1\n      0x60\n      add\n      0x40\n      mstore\n      dup1\n        /* \"Samples/reward.sol\":5175:5191  amountToTransfer */\n      dup4\n        /* \"Samples/reward.sol\":5165:5221  TxHistory(amountToTransfer, block.timestamp, \"Withdraw\") */\n      dup2\n      mstore\n      0x20\n      add\n        /* \"Samples/reward.sol\":5193:5208  block.timestamp */\n      timestamp\n        /* \"Samples/reward.sol\":5165:5221  TxHistory(amountToTransfer, block.timestamp, \"Withdraw\") */\n      dup2\n      mstore\n      0x20\n      add\n      mload(0x40)\n      dup1\n      0x40\n      add\n      0x40\n      mstore\n      dup1\n      0x08\n      dup2\n      mstore\n      0x20\n      add\n      0x5769746864726177000000000000000000000000000000000000000000000000\n      dup2\n      mstore\n      pop\n      dup2\n      mstore\n      pop\n        /* \"Samples/reward.sol\":5142:5221  TxHistory memory txH = TxHistory(amountToTransfer, block.timestamp, \"Withdraw\") */\n      swap1\n      pop\n        /* \"Samples/reward.sol\":5232:5244  userTxsArray */\n      0xd4\n        /* \"Samples/reward.sol\":5232:5256  userTxsArray[msg.sender] */\n      0x00\n        /* \"Samples/reward.sol\":5245:5255  msg.sender */\n      caller\n        /* \"Samples/reward.sol\":5232:5256  userTxsArray[msg.sender] */\n      0xffffffffffffffffffffffffffffffffffffffff\n      and\n      0xffffffffffffffffffffffffffffffffffffffff\n      and\n      dup2\n      mstore\n      0x20\n      add\n      swap1\n      dup2\n      mstore\n      0x20\n      add\n      0x00\n      keccak256\n        /* \"Samples/reward.sol\":5262:5265  txH */\n      dup2\n        /* \"Samples/reward.sol\":5232:5266  userTxsArray[msg.sender].push(txH) */\n      swap1\n      dup1\n      0x01\n      dup2\n      sload\n      add\n      dup1\n      dup3\n      sstore\n      dup1\n      swap2\n      pop\n      pop\n      0x01\n      swap1\n      sub\n      swap1\n      0x00\n      mstore\n      keccak256(0x00, 0x20)\n      swap1\n      0x03\n      mul\n      add\n      0x00\n      swap1\n      swap2\n      swap1\n      swap2\n      swap1\n      swap2\n      pop\n      0x00\n      dup3\n      add\n      mload\n      dup2\n      0x00\n      add\n      sstore\n      0x20\n      dup3\n      add\n      mload\n      dup2\n      0x01\n      add\n      sstore\n      0x40\n      dup3\n      add\n      mload\n      dup2\n      0x02\n      add\n      swap1\n      dup1\n      mload\n      swap1\n      0x20\n      add\n      swap1\n      tag_371\n      swap3\n      swap2\n      swap1\n      tag_372\n      jump\t// in\n    tag_371:\n      pop\n      pop\n      pop\n        /* \"Samples/reward.sol\":5291:5301  msg.sender */\n      caller\n        /* \"Samples/reward.sol\":5282:5336  Withdraw(msg.sender, amountToTransfer, pendingRewards) */\n      0xffffffffffffffffffffffffffffffffffffffff\n      and\n      0xf279e6a1f5e320cca91135676d9cb6e44ca8a08c0b88342bcdb1144f6511b568\n        /* \"Samples/reward.sol\":5303:5319  amountToTransfer */\n      dup4\n        /* \"Samples/reward.sol\":5321:5335  pendingRewards */\n      dup6\n        /* \"Samples/reward.sol\":5282:5336  Withdraw(msg.sender, amountToTransfer, pendingRewards) */\n      mload(0x40)\n      tag_373\n      swap3\n      swap2\n      swap1\n      tag_61\n      jump\t// in\n    tag_373:\n      mload(0x40)\n      dup1\n      swap2\n      sub\n      swap1\n      log2\n        /* \"Samples/reward.sol\":4033:5344  {\r... */\n      pop\n      pop\n      pop\n        /* \"Samples/reward.sol\":4001:5344  function withdrawAll() external {\r... */\n      jump\t// out\n        /* \"@openzeppelin/contracts-upgradeable/access/OwnableUpgradeable.sol\":1441:1526  function owner() public view virtual returns (address) {... */\n    tag_146:\n        /* \"@openzeppelin/contracts-upgradeable/access/OwnableUpgradeable.sol\":1487:1494  address */\n      0x00\n        /* \"@openzeppelin/contracts-upgradeable/access/OwnableUpgradeable.sol\":1513:1519  _owner */\n      0x33\n      0x00\n      swap1\n      sload\n      swap1\n      0x0100\n      exp\n      swap1\n      div\n      0xffffffffffffffffffffffffffffffffffffffff\n      and\n        /* \"@openzeppelin/contracts-upgradeable/access/OwnableUpgradeable.sol\":1506:1519  return _owner */\n      swap1\n      pop\n        /* \"@openzeppelin/contracts-upgradeable/access/OwnableUpgradeable.sol\":1441:1526  function owner() public view virtual returns (address) {... */\n      swap1\n      jump\t// out\n        /* \"Samples/reward.sol\":7521:7800  function _getMultiplier(uint256 from, uint256 to) public view returns (uint256) {\r... */\n    tag_153:\n        /* \"Samples/reward.sol\":7592:7599  uint256 */\n      0x00\n        /* \"Samples/reward.sol\":7622:7630  endBlock */\n      sload(0xcd)\n        /* \"Samples/reward.sol\":7616:7618  to */\n      dup3\n        /* \"Samples/reward.sol\":7616:7630  to <= endBlock */\n      gt\n        /* \"Samples/reward.sol\":7612:7793  if (to <= endBlock) {\r... */\n      tag_376\n      jumpi\n        /* \"Samples/reward.sol\":7659:7663  from */\n      dup3\n        /* \"Samples/reward.sol\":7654:7656  to */\n      dup3\n        /* \"Samples/reward.sol\":7654:7663  to - from */\n      tag_377\n      swap2\n      swap1\n      tag_210\n      jump\t// in\n    tag_377:\n        /* \"Samples/reward.sol\":7647:7663  return to - from */\n      swap1\n      pop\n      jump(tag_375)\n        /* \"Samples/reward.sol\":7612:7793  if (to <= endBlock) {\r... */\n    tag_376:\n        /* \"Samples/reward.sol\":7693:7701  endBlock */\n      sload(0xcd)\n        /* \"Samples/reward.sol\":7685:7689  from */\n      dup4\n        /* \"Samples/reward.sol\":7685:7701  from >= endBlock */\n      lt\n        /* \"Samples/reward.sol\":7681:7793  if (from >= endBlock) {\r... */\n      tag_379\n      jumpi\n        /* \"Samples/reward.sol\":7725:7726  0 */\n      0x00\n        /* \"Samples/reward.sol\":7718:7726  return 0 */\n      swap1\n      pop\n      jump(tag_375)\n        /* \"Samples/reward.sol\":7681:7793  if (from >= endBlock) {\r... */\n    tag_379:\n        /* \"Samples/reward.sol\":7777:7781  from */\n      dup3\n        /* \"Samples/reward.sol\":7766:7774  endBlock */\n      sload(0xcd)\n        /* \"Samples/reward.sol\":7766:7781  endBlock - from */\n      tag_381\n      swap2\n      swap1\n      tag_210\n      jump\t// in\n    tag_381:\n        /* \"Samples/reward.sol\":7759:7781  return endBlock - from */\n      swap1\n      pop\n        /* \"Samples/reward.sol\":7521:7800  function _getMultiplier(uint256 from, uint256 to) public view returns (uint256) {\r... */\n    tag_375:\n      swap3\n      swap2\n      pop\n      pop\n      jump\t// out\n        /* \"Samples/reward.sol\":1114:1145  uint256 public accTokenPerShare */\n    tag_157:\n      sload(0xcb)\n      dup2\n      jump\t// out\n        /* \"Samples/reward.sol\":1334:1364  uint256 public lastRewardBlock */\n    tag_161:\n      sload(0xce)\n      dup2\n      jump\t// out\n        /* \"Samples/reward.sol\":2698:3595  function deposit(uint256 amount) external {\r... */\n    tag_166:\n        /* \"Samples/reward.sol\":2775:2783  endBlock */\n      sload(0xcd)\n        /* \"Samples/reward.sol\":2759:2771  block.number */\n      number\n        /* \"Samples/reward.sol\":2759:2783  block.number <= endBlock */\n      gt\n      iszero\n        /* \"Samples/reward.sol\":2751:2805  require(block.number <= endBlock, \"stake time is out\") */\n      tag_383\n      jumpi\n      mload(0x40)\n      0x08c379a000000000000000000000000000000000000000000000000000000000\n      dup2\n      mstore\n      0x04\n      add\n      tag_384\n      swap1\n      tag_385\n      jump\t// in\n    tag_384:\n      mload(0x40)\n      dup1\n      swap2\n      sub\n      swap1\n      revert\n    tag_383:\n        /* \"Samples/reward.sol\":2833:2834  0 */\n      0x00\n        /* \"Samples/reward.sol\":2824:2830  amount */\n      dup2\n        /* \"Samples/reward.sol\":2824:2834  amount > 0 */\n      gt\n        /* \"Samples/reward.sol\":2816:2866  require(amount > 0, \"Deposit: Amount must be > 0\") */\n      tag_386\n      jumpi\n      mload(0x40)\n      0x08c379a000000000000000000000000000000000000000000000000000000000\n      dup2\n      mstore\n      0x04\n      add\n      tag_387\n      swap1\n      tag_388\n      jump\t// in\n    tag_387:\n      mload(0x40)\n      dup1\n      swap2\n      sub\n      swap1\n      revert\n    tag_386:\n        /* \"Samples/reward.sol\":2877:2890  _updatePool() */\n      tag_389\n        /* \"Samples/reward.sol\":2877:2888  _updatePool */\n      tag_358\n        /* \"Samples/reward.sol\":2877:2890  _updatePool() */\n      jump\t// in\n    tag_389:\n        /* \"Samples/reward.sol\":2910:2925  OGBTokenAddress */\n      0xc9\n      0x00\n      swap1\n      sload\n      swap1\n      0x0100\n      exp\n      swap1\n      div\n      0xffffffffffffffffffffffffffffffffffffffff\n      and\n        /* \"Samples/reward.sol\":2903:2939  IERC20(OGBTokenAddress).transferFrom */\n      0xffffffffffffffffffffffffffffffffffffffff\n      and\n      0x23b872dd\n        /* \"Samples/reward.sol\":2940:2950  msg.sender */\n      caller\n        /* \"Samples/reward.sol\":2960:2964  this */\n      address\n        /* \"Samples/reward.sol\":2967:2973  amount */\n      dup5\n        /* \"Samples/reward.sol\":2903:2974  IERC20(OGBTokenAddress).transferFrom(msg.sender, address(this), amount) */\n      mload(0x40)\n      dup5\n      0xffffffff\n      and\n      0xe0\n      shl\n      dup2\n      mstore\n      0x04\n      add\n      tag_390\n      swap4\n      swap3\n      swap2\n      swap1\n      tag_391\n      jump\t// in\n    tag_390:\n      0x20\n      mload(0x40)\n      dup1\n      dup4\n      sub\n      dup2\n      0x00\n      dup8\n      dup1\n      extcodesize\n      iszero\n      dup1\n      iszero\n      tag_392\n      jumpi\n      0x00\n      dup1\n      revert\n    tag_392:\n      pop\n      gas\n      call\n      iszero\n      dup1\n      iszero\n      tag_394\n      jumpi\n      returndatasize\n      0x00\n      dup1\n      returndatacopy\n      revert(0x00, returndatasize)\n    tag_394:\n      pop\n      pop\n      pop\n      pop\n      mload(0x40)\n      returndatasize\n      not(0x1f)\n      0x1f\n      dup3\n      add\n      and\n      dup3\n      add\n      dup1\n      0x40\n      mstore\n      pop\n      dup2\n      add\n      swap1\n      tag_395\n      swap2\n      swap1\n      tag_346\n      jump\t// in\n    tag_395:\n      pop\n        /* \"Samples/reward.sol\":2987:3009  uint256 pendingRewards */\n      0x00\n        /* \"Samples/reward.sol\":3053:3059  amount */\n      dup2\n        /* \"Samples/reward.sol\":3022:3030  userInfo */\n      0xd2\n        /* \"Samples/reward.sol\":3022:3042  userInfo[msg.sender] */\n      0x00\n        /* \"Samples/reward.sol\":3031:3041  msg.sender */\n      caller\n        /* \"Samples/reward.sol\":3022:3042  userInfo[msg.sender] */\n      0xffffffffffffffffffffffffffffffffffffffff\n      and\n      0xffffffffffffffffffffffffffffffffffffffff\n      and\n      dup2\n      mstore\n      0x20\n      add\n      swap1\n      dup2\n      mstore\n      0x20\n      add\n      0x00\n      keccak256\n        /* \"Samples/reward.sol\":3022:3049  userInfo[msg.sender].amount */\n      0x00\n      add\n      0x00\n        /* \"Samples/reward.sol\":3022:3059  userInfo[msg.sender].amount += amount */\n      dup3\n      dup3\n      sload\n      tag_396\n      swap2\n      swap1\n      tag_206\n      jump\t// in\n    tag_396:\n      swap3\n      pop\n      pop\n      dup2\n      swap1\n      sstore\n      pop\n        /* \"Samples/reward.sol\":3110:3125  block.timestamp */\n      timestamp\n        /* \"Samples/reward.sol\":3072:3080  userInfo */\n      0xd2\n        /* \"Samples/reward.sol\":3072:3092  userInfo[msg.sender] */\n      0x00\n        /* \"Samples/reward.sol\":3081:3091  msg.sender */\n      caller\n        /* \"Samples/reward.sol\":3072:3092  userInfo[msg.sender] */\n      0xffffffffffffffffffffffffffffffffffffffff\n      and\n      0xffffffffffffffffffffffffffffffffffffffff\n      and\n      dup2\n      mstore\n      0x20\n      add\n      swap1\n      dup2\n      mstore\n      0x20\n      add\n      0x00\n      keccak256\n        /* \"Samples/reward.sol\":3072:3107  userInfo[msg.sender].investmentTime */\n      0x02\n      add\n        /* \"Samples/reward.sol\":3072:3125  userInfo[msg.sender].investmentTime = block.timestamp */\n      dup2\n      swap1\n      sstore\n      pop\n        /* \"Samples/reward.sol\":3142:3156  isStakerExists */\n      0xd5\n        /* \"Samples/reward.sol\":3142:3168  isStakerExists[msg.sender] */\n      0x00\n        /* \"Samples/reward.sol\":3157:3167  msg.sender */\n      caller\n        /* \"Samples/reward.sol\":3142:3168  isStakerExists[msg.sender] */\n      0xffffffffffffffffffffffffffffffffffffffff\n      and\n      0xffffffffffffffffffffffffffffffffffffffff\n      and\n      dup2\n      mstore\n      0x20\n      add\n      swap1\n      dup2\n      mstore\n      0x20\n      add\n      0x00\n      keccak256\n      0x00\n      swap1\n      sload\n      swap1\n      0x0100\n      exp\n      swap1\n      div\n      0xff\n      and\n        /* \"Samples/reward.sol\":3138:3257  if(!isStakerExists[msg.sender]){\r... */\n      tag_397\n      jumpi\n        /* \"Samples/reward.sol\":3213:3217  true */\n      0x01\n        /* \"Samples/reward.sol\":3184:3198  isStakerExists */\n      0xd5\n        /* \"Samples/reward.sol\":3184:3210  isStakerExists[msg.sender] */\n      0x00\n        /* \"Samples/reward.sol\":3199:3209  msg.sender */\n      caller\n        /* \"Samples/reward.sol\":3184:3210  isStakerExists[msg.sender] */\n      0xffffffffffffffffffffffffffffffffffffffff\n      and\n      0xffffffffffffffffffffffffffffffffffffffff\n      and\n      dup2\n      mstore\n      0x20\n      add\n      swap1\n      dup2\n      mstore\n      0x20\n      add\n      0x00\n      keccak256\n      0x00\n        /* \"Samples/reward.sol\":3184:3217  isStakerExists[msg.sender] = true */\n      0x0100\n      exp\n      dup2\n      sload\n      dup2\n      0xff\n      mul\n      not\n      and\n      swap1\n      dup4\n      iszero\n      iszero\n      mul\n      or\n      swap1\n      sstore\n      pop\n        /* \"Samples/reward.sol\":3232:3243  stakerCount */\n      0xd1\n      0x00\n        /* \"Samples/reward.sol\":3232:3245  stakerCount++ */\n      dup2\n      sload\n      dup1\n      swap3\n      swap2\n      swap1\n      tag_398\n      swap1\n      tag_263\n      jump\t// in\n    tag_398:\n      swap2\n      swap1\n      pop\n      sstore\n      pop\n        /* \"Samples/reward.sol\":3138:3257  if(!isStakerExists[msg.sender]){\r... */\n    tag_397:\n        /* \"Samples/reward.sol\":948:954  10**12 */\n      0xe8d4a51000\n        /* \"Samples/reward.sol\":3326:3342  accTokenPerShare */\n      sload(0xcb)\n        /* \"Samples/reward.sol\":3296:3304  userInfo */\n      0xd2\n        /* \"Samples/reward.sol\":3296:3316  userInfo[msg.sender] */\n      0x00\n        /* \"Samples/reward.sol\":3305:3315  msg.sender */\n      caller\n        /* \"Samples/reward.sol\":3296:3316  userInfo[msg.sender] */\n      0xffffffffffffffffffffffffffffffffffffffff\n      and\n      0xffffffffffffffffffffffffffffffffffffffff\n      and\n      dup2\n      mstore\n      0x20\n      add\n      swap1\n      dup2\n      mstore\n      0x20\n      add\n      0x00\n      keccak256\n        /* \"Samples/reward.sol\":3296:3323  userInfo[msg.sender].amount */\n      0x00\n      add\n      sload\n        /* \"Samples/reward.sol\":3296:3342  userInfo[msg.sender].amount * accTokenPerShare */\n      tag_399\n      swap2\n      swap1\n      tag_201\n      jump\t// in\n    tag_399:\n        /* \"Samples/reward.sol\":3295:3362  (userInfo[msg.sender].amount * accTokenPerShare) / PRECISION_FACTOR */\n      tag_400\n      swap2\n      swap1\n      tag_204\n      jump\t// in\n    tag_400:\n        /* \"Samples/reward.sol\":3269:3280  debtRewards */\n      0xd3\n        /* \"Samples/reward.sol\":3269:3292  debtRewards[msg.sender] */\n      0x00\n        /* \"Samples/reward.sol\":3281:3291  msg.sender */\n      caller\n        /* \"Samples/reward.sol\":3269:3292  debtRewards[msg.sender] */\n      0xffffffffffffffffffffffffffffffffffffffff\n      and\n      0xffffffffffffffffffffffffffffffffffffffff\n      and\n      dup2\n      mstore\n      0x20\n      add\n      swap1\n      dup2\n      mstore\n      0x20\n      add\n      0x00\n      keccak256\n        /* \"Samples/reward.sol\":3269:3362  debtRewards[msg.sender] = (userInfo[msg.sender].amount * accTokenPerShare) / PRECISION_FACTOR */\n      dup2\n      swap1\n      sstore\n      pop\n        /* \"Samples/reward.sol\":3397:3403  amount */\n      dup2\n        /* \"Samples/reward.sol\":3375:3392  totalAmountStaked */\n      0xd0\n      0x00\n        /* \"Samples/reward.sol\":3375:3404  totalAmountStaked += (amount) */\n      dup3\n      dup3\n      sload\n      tag_401\n      swap2\n      swap1\n      tag_206\n      jump\t// in\n    tag_401:\n      swap3\n      pop\n      pop\n      dup2\n      swap1\n      sstore\n      pop\n        /* \"Samples/reward.sol\":3417:3437  TxHistory memory txH */\n      0x00\n        /* \"Samples/reward.sol\":3440:3483  TxHistory(amount, block.timestamp, \"Stake\") */\n      mload(0x40)\n      dup1\n      0x60\n      add\n      0x40\n      mstore\n      dup1\n        /* \"Samples/reward.sol\":3450:3456  amount */\n      dup5\n        /* \"Samples/reward.sol\":3440:3483  TxHistory(amount, block.timestamp, \"Stake\") */\n      dup2\n      mstore\n      0x20\n      add\n        /* \"Samples/reward.sol\":3458:3473  block.timestamp */\n      timestamp\n        /* \"Samples/reward.sol\":3440:3483  TxHistory(amount, block.timestamp, \"Stake\") */\n      dup2\n      mstore\n      0x20\n      add\n      mload(0x40)\n      dup1\n      0x40\n      add\n      0x40\n      mstore\n      dup1\n      0x05\n      dup2\n      mstore\n      0x20\n      add\n      0x5374616b65000000000000000000000000000000000000000000000000000000\n      dup2\n      mstore\n      pop\n      dup2\n      mstore\n      pop\n        /* \"Samples/reward.sol\":3417:3483  TxHistory memory txH = TxHistory(amount, block.timestamp, \"Stake\") */\n      swap1\n      pop\n        /* \"Samples/reward.sol\":3494:3506  userTxsArray */\n      0xd4\n        /* \"Samples/reward.sol\":3494:3518  userTxsArray[msg.sender] */\n      0x00\n        /* \"Samples/reward.sol\":3507:3517  msg.sender */\n      caller\n        /* \"Samples/reward.sol\":3494:3518  userTxsArray[msg.sender] */\n      0xffffffffffffffffffffffffffffffffffffffff\n      and\n      0xffffffffffffffffffffffffffffffffffffffff\n      and\n      dup2\n      mstore\n      0x20\n      add\n      swap1\n      dup2\n      mstore\n      0x20\n      add\n      0x00\n      keccak256\n        /* \"Samples/reward.sol\":3524:3527  txH */\n      dup2\n        /* \"Samples/reward.sol\":3494:3528  userTxsArray[msg.sender].push(txH) */\n      swap1\n      dup1\n      0x01\n      dup2\n      sload\n      add\n      dup1\n      dup3\n      sstore\n      dup1\n      swap2\n      pop\n      pop\n      0x01\n      swap1\n      sub\n      swap1\n      0x00\n      mstore\n      keccak256(0x00, 0x20)\n      swap1\n      0x03\n      mul\n      add\n      0x00\n      swap1\n      swap2\n      swap1\n      swap2\n      swap1\n      swap2\n      pop\n      0x00\n      dup3\n      add\n      mload\n      dup2\n      0x00\n      add\n      sstore\n      0x20\n      dup3\n      add\n      mload\n      dup2\n      0x01\n      add\n      sstore\n      0x40\n      dup3\n      add\n      mload\n      dup2\n      0x02\n      add\n      swap1\n      dup1\n      mload\n      swap1\n      0x20\n      add\n      swap1\n      tag_403\n      swap3\n      swap2\n      swap1\n      tag_372\n      jump\t// in\n    tag_403:\n      pop\n      pop\n      pop\n        /* \"Samples/reward.sol\":3552:3562  msg.sender */\n      caller\n        /* \"Samples/reward.sol\":3544:3587  Deposit(msg.sender, amount, pendingRewards) */\n      0xffffffffffffffffffffffffffffffffffffffff\n      and\n      0x90890809c654f11d6e72a28fa60149770a0d11ec6c92319d6ceb2bb0a4ea1a15\n        /* \"Samples/reward.sol\":3564:3570  amount */\n      dup5\n        /* \"Samples/reward.sol\":3572:3586  pendingRewards */\n      dup5\n        /* \"Samples/reward.sol\":3544:3587  Deposit(msg.sender, amount, pendingRewards) */\n      mload(0x40)\n      tag_404\n      swap3\n      swap2\n      swap1\n      tag_61\n      jump\t// in\n    tag_404:\n      mload(0x40)\n      dup1\n      swap2\n      sub\n      swap1\n      log2\n        /* \"Samples/reward.sol\":2740:3595  {\r... */\n      pop\n      pop\n        /* \"Samples/reward.sol\":2698:3595  function deposit(uint256 amount) external {\r... */\n      pop\n      jump\t// out\n        /* \"Samples/reward.sol\":1770:1816  mapping(address => bool) public isStakerExists */\n    tag_170:\n      mstore(0x20, 0xd5)\n      dup1\n      0x00\n      mstore\n      keccak256(0x00, 0x40)\n      0x00\n      swap2\n      pop\n      sload\n      swap1\n      0x0100\n      exp\n      swap1\n      div\n      0xff\n      and\n      dup2\n      jump\t// out\n        /* \"Samples/reward.sol\":905:954  uint256 public constant PRECISION_FACTOR = 10**12 */\n    tag_174:\n        /* \"Samples/reward.sol\":948:954  10**12 */\n      0xe8d4a51000\n        /* \"Samples/reward.sol\":905:954  uint256 public constant PRECISION_FACTOR = 10**12 */\n      dup2\n      jump\t// out\n        /* \"Samples/reward.sol\":963:993  address public OGBTokenAddress */\n    tag_178:\n      0xc9\n      0x00\n      swap1\n      sload\n      swap1\n      0x0100\n      exp\n      swap1\n      div\n      0xffffffffffffffffffffffffffffffffffffffff\n      and\n      dup2\n      jump\t// out\n        /* \"Samples/reward.sol\":1571:1597  uint256 public stakerCount */\n    tag_182:\n      sload(0xd1)\n      dup2\n      jump\t// out\n        /* \"@openzeppelin/contracts-upgradeable/access/OwnableUpgradeable.sol\":2321:2519  function transferOwnership(address newOwner) public virtual onlyOwner {... */\n    tag_187:\n        /* \"@openzeppelin/contracts-upgradeable/access/OwnableUpgradeable.sol\":1334:1347  _checkOwner() */\n      tag_406\n        /* \"@openzeppelin/contracts-upgradeable/access/OwnableUpgradeable.sol\":1334:1345  _checkOwner */\n      tag_217\n        /* \"@openzeppelin/contracts-upgradeable/access/OwnableUpgradeable.sol\":1334:1347  _checkOwner() */\n      jump\t// in\n    tag_406:\n        /* \"@openzeppelin/contracts-upgradeable/access/OwnableUpgradeable.sol\":2429:2430  0 */\n      0x00\n        /* \"@openzeppelin/contracts-upgradeable/access/OwnableUpgradeable.sol\":2409:2431  newOwner != address(0) */\n      0xffffffffffffffffffffffffffffffffffffffff\n      and\n        /* \"@openzeppelin/contracts-upgradeable/access/OwnableUpgradeable.sol\":2409:2417  newOwner */\n      dup2\n        /* \"@openzeppelin/contracts-upgradeable/access/OwnableUpgradeable.sol\":2409:2431  newOwner != address(0) */\n      0xffffffffffffffffffffffffffffffffffffffff\n      and\n      eq\n      iszero\n        /* \"@openzeppelin/contracts-upgradeable/access/OwnableUpgradeable.sol\":2401:2474  require(newOwner != address(0), \"Ownable: new owner is the zero address\") */\n      tag_408\n      jumpi\n      mload(0x40)\n      0x08c379a000000000000000000000000000000000000000000000000000000000\n      dup2\n      mstore\n      0x04\n      add\n      tag_409\n      swap1\n      tag_410\n      jump\t// in\n    tag_409:\n      mload(0x40)\n      dup1\n      swap2\n      sub\n      swap1\n      revert\n    tag_408:\n        /* \"@openzeppelin/contracts-upgradeable/access/OwnableUpgradeable.sol\":2484:2512  _transferOwnership(newOwner) */\n      tag_411\n        /* \"@openzeppelin/contracts-upgradeable/access/OwnableUpgradeable.sol\":2503:2511  newOwner */\n      dup2\n        /* \"@openzeppelin/contracts-upgradeable/access/OwnableUpgradeable.sol\":2484:2502  _transferOwnership */\n      tag_351\n        /* \"@openzeppelin/contracts-upgradeable/access/OwnableUpgradeable.sol\":2484:2512  _transferOwnership(newOwner) */\n      jump\t// in\n    tag_411:\n        /* \"@openzeppelin/contracts-upgradeable/access/OwnableUpgradeable.sol\":2321:2519  function transferOwnership(address newOwner) public virtual onlyOwner {... */\n      pop\n      jump\t// out\n        /* \"Samples/reward.sol\":7808:8003  function getRemainingBlocks() public view returns(uint256 _blocks){\r... */\n    tag_190:\n        /* \"Samples/reward.sol\":7858:7873  uint256 _blocks */\n      0x00\n        /* \"Samples/reward.sol\":7903:7915  block.number */\n      number\n        /* \"Samples/reward.sol\":7888:7899  START_BLOCK */\n      sload(0xca)\n        /* \"Samples/reward.sol\":7888:7915  START_BLOCK <= block.number */\n      gt\n        /* \"Samples/reward.sol\":7885:7995  if(START_BLOCK <= block.number)\r... */\n      tag_413\n      jumpi\n        /* \"Samples/reward.sol\":7947:7959  block.number */\n      number\n        /* \"Samples/reward.sol\":7936:7944  endBlock */\n      sload(0xcd)\n        /* \"Samples/reward.sol\":7936:7959  endBlock - block.number */\n      tag_414\n      swap2\n      swap1\n      tag_210\n      jump\t// in\n    tag_414:\n        /* \"Samples/reward.sol\":7926:7959  _blocks = endBlock - block.number */\n      swap1\n      pop\n        /* \"Samples/reward.sol\":7885:7995  if(START_BLOCK <= block.number)\r... */\n      jump(tag_415)\n    tag_413:\n        /* \"Samples/reward.sol\":7994:7995  0 */\n      0x00\n        /* \"Samples/reward.sol\":7984:7995  _blocks = 0 */\n      swap1\n      pop\n        /* \"Samples/reward.sol\":7885:7995  if(START_BLOCK <= block.number)\r... */\n    tag_415:\n        /* \"Samples/reward.sol\":7808:8003  function getRemainingBlocks() public view returns(uint256 _blocks){\r... */\n      swap1\n      jump\t// out\n        /* \"Samples/reward.sol\":1498:1530  uint256 public totalAmountStaked */\n    tag_194:\n      sload(0xd0)\n      dup2\n      jump\t// out\n        /* \"@openzeppelin/contracts-upgradeable/access/OwnableUpgradeable.sol\":1599:1729  function _checkOwner() internal view virtual {... */\n    tag_217:\n        /* \"@openzeppelin/contracts-upgradeable/access/OwnableUpgradeable.sol\":1673:1685  _msgSender() */\n      tag_417\n        /* \"@openzeppelin/contracts-upgradeable/access/OwnableUpgradeable.sol\":1673:1683  _msgSender */\n      tag_418\n        /* \"@openzeppelin/contracts-upgradeable/access/OwnableUpgradeable.sol\":1673:1685  _msgSender() */\n      jump\t// in\n    tag_417:\n        /* \"@openzeppelin/contracts-upgradeable/access/OwnableUpgradeable.sol\":1662:1685  owner() == _msgSender() */\n      0xffffffffffffffffffffffffffffffffffffffff\n      and\n        /* \"@openzeppelin/contracts-upgradeable/access/OwnableUpgradeable.sol\":1662:1669  owner() */\n      tag_419\n        /* \"@openzeppelin/contracts-upgradeable/access/OwnableUpgradeable.sol\":1662:1667  owner */\n      tag_146\n        /* \"@openzeppelin/contracts-upgradeable/access/OwnableUpgradeable.sol\":1662:1669  owner() */\n      jump\t// in\n    tag_419:\n        /* \"@openzeppelin/contracts-upgradeable/access/OwnableUpgradeable.sol\":1662:1685  owner() == _msgSender() */\n      0xffffffffffffffffffffffffffffffffffffffff\n      and\n      eq\n        /* \"@openzeppelin/contracts-upgradeable/access/OwnableUpgradeable.sol\":1654:1722  require(owner() == _msgSender(), \"Ownable: caller is not the owner\") */\n      tag_420\n      jumpi\n      mload(0x40)\n      0x08c379a000000000000000000000000000000000000000000000000000000000\n      dup2\n      mstore\n      0x04\n      add\n      tag_421\n      swap1\n      tag_422\n      jump\t// in\n    tag_421:\n      mload(0x40)\n      dup1\n      swap2\n      sub\n      swap1\n      revert\n    tag_420:\n        /* \"@openzeppelin/contracts-upgradeable/access/OwnableUpgradeable.sol\":1599:1729  function _checkOwner() internal view virtual {... */\n      jump\t// out\n        /* \"@openzeppelin/contracts-upgradeable/proxy/ERC1967/ERC1967UpgradeUpgradeable.sol\":1563:1714  function _getImplementation() internal view returns (address) {... */\n    tag_273:\n        /* \"@openzeppelin/contracts-upgradeable/proxy/ERC1967/ERC1967UpgradeUpgradeable.sol\":1616:1623  address */\n      0x00\n        /* \"@openzeppelin/contracts-upgradeable/proxy/ERC1967/ERC1967UpgradeUpgradeable.sol\":1642:1701  StorageSlotUpgradeable.getAddressSlot(_IMPLEMENTATION_SLOT) */\n      tag_424\n        /* \"@openzeppelin/contracts-upgradeable/proxy/ERC1967/ERC1967UpgradeUpgradeable.sol\":1292:1358  0x360894a13ba1a3210667c828492db98dca3e2076cc3735a920a3ca505d382bbc */\n      0x360894a13ba1a3210667c828492db98dca3e2076cc3735a920a3ca505d382bbc\n        /* \"@openzeppelin/contracts-upgradeable/proxy/ERC1967/ERC1967UpgradeUpgradeable.sol\":1680:1700  _IMPLEMENTATION_SLOT */\n      0x00\n      shl\n        /* \"@openzeppelin/contracts-upgradeable/proxy/ERC1967/ERC1967UpgradeUpgradeable.sol\":1642:1679  StorageSlotUpgradeable.getAddressSlot */\n      tag_425\n        /* \"@openzeppelin/contracts-upgradeable/proxy/ERC1967/ERC1967UpgradeUpgradeable.sol\":1642:1701  StorageSlotUpgradeable.getAddressSlot(_IMPLEMENTATION_SLOT) */\n      jump\t// in\n    tag_424:\n        /* \"@openzeppelin/contracts-upgradeable/proxy/ERC1967/ERC1967UpgradeUpgradeable.sol\":1642:1707  StorageSlotUpgradeable.getAddressSlot(_IMPLEMENTATION_SLOT).value */\n      0x00\n      add\n      0x00\n      swap1\n      sload\n      swap1\n      0x0100\n      exp\n      swap1\n      div\n      0xffffffffffffffffffffffffffffffffffffffff\n      and\n        /* \"@openzeppelin/contracts-upgradeable/proxy/ERC1967/ERC1967UpgradeUpgradeable.sol\":1635:1707  return StorageSlotUpgradeable.getAddressSlot(_IMPLEMENTATION_SLOT).value */\n      swap1\n      pop\n        /* \"@openzeppelin/contracts-upgradeable/proxy/ERC1967/ERC1967UpgradeUpgradeable.sol\":1563:1714  function _getImplementation() internal view returns (address) {... */\n      swap1\n      jump\t// out\n        /* \"Samples/reward.sol\":2606:2690  function _authorizeUpgrade(address newImplementation) internal override onlyOwner {} */\n    tag_279:\n        /* \"@openzeppelin/contracts-upgradeable/access/OwnableUpgradeable.sol\":1334:1347  _checkOwner() */\n      tag_427\n        /* \"@openzeppelin/contracts-upgradeable/access/OwnableUpgradeable.sol\":1334:1345  _checkOwner */\n      tag_217\n        /* \"@openzeppelin/contracts-upgradeable/access/OwnableUpgradeable.sol\":1334:1347  _checkOwner() */\n      jump\t// in\n    tag_427:\n        /* \"Samples/reward.sol\":2606:2690  function _authorizeUpgrade(address newImplementation) internal override onlyOwner {} */\n      pop\n      jump\t// out\n        /* \"@openzeppelin/contracts-upgradeable/proxy/ERC1967/ERC1967UpgradeUpgradeable.sol\":2938:3912  function _upgradeToAndCallUUPS(... */\n    tag_284:\n        /* \"@openzeppelin/contracts-upgradeable/proxy/ERC1967/ERC1967UpgradeUpgradeable.sol\":3384:3437  StorageSlotUpgradeable.getBooleanSlot(_ROLLBACK_SLOT) */\n      tag_430\n        /* \"@openzeppelin/contracts-upgradeable/proxy/ERC1967/ERC1967UpgradeUpgradeable.sol\":951:1017  0x4910fdfa16fed3260ed0e7147f7cc6da11a60208b5b9406d12a635614ffd9143 */\n      0x4910fdfa16fed3260ed0e7147f7cc6da11a60208b5b9406d12a635614ffd9143\n        /* \"@openzeppelin/contracts-upgradeable/proxy/ERC1967/ERC1967UpgradeUpgradeable.sol\":3422:3436  _ROLLBACK_SLOT */\n      0x00\n      shl\n        /* \"@openzeppelin/contracts-upgradeable/proxy/ERC1967/ERC1967UpgradeUpgradeable.sol\":3384:3421  StorageSlotUpgradeable.getBooleanSlot */\n      tag_431\n        /* \"@openzeppelin/contracts-upgradeable/proxy/ERC1967/ERC1967UpgradeUpgradeable.sol\":3384:3437  StorageSlotUpgradeable.getBooleanSlot(_ROLLBACK_SLOT) */\n      jump\t// in\n    tag_430:\n        /* \"@openzeppelin/contracts-upgradeable/proxy/ERC1967/ERC1967UpgradeUpgradeable.sol\":3384:3443  StorageSlotUpgradeable.getBooleanSlot(_ROLLBACK_SLOT).value */\n      0x00\n      add\n      0x00\n      swap1\n      sload\n      swap1\n      0x0100\n      exp\n      swap1\n      div\n      0xff\n      and\n        /* \"@openzeppelin/contracts-upgradeable/proxy/ERC1967/ERC1967UpgradeUpgradeable.sol\":3380:3906  if (StorageSlotUpgradeable.getBooleanSlot(_ROLLBACK_SLOT).value) {... */\n      iszero\n      tag_432\n      jumpi\n        /* \"@openzeppelin/contracts-upgradeable/proxy/ERC1967/ERC1967UpgradeUpgradeable.sol\":3459:3496  _setImplementation(newImplementation) */\n      tag_433\n        /* \"@openzeppelin/contracts-upgradeable/proxy/ERC1967/ERC1967UpgradeUpgradeable.sol\":3478:3495  newImplementation */\n      dup4\n        /* \"@openzeppelin/contracts-upgradeable/proxy/ERC1967/ERC1967UpgradeUpgradeable.sol\":3459:3477  _setImplementation */\n      tag_434\n        /* \"@openzeppelin/contracts-upgradeable/proxy/ERC1967/ERC1967UpgradeUpgradeable.sol\":3459:3496  _setImplementation(newImplementation) */\n      jump\t// in\n    tag_433:\n        /* \"@openzeppelin/contracts-upgradeable/proxy/ERC1967/ERC1967UpgradeUpgradeable.sol\":3380:3906  if (StorageSlotUpgradeable.getBooleanSlot(_ROLLBACK_SLOT).value) {... */\n      jump(tag_435)\n    tag_432:\n        /* \"@openzeppelin/contracts-upgradeable/proxy/ERC1967/ERC1967UpgradeUpgradeable.sol\":3560:3577  newImplementation */\n      dup3\n        /* \"@openzeppelin/contracts-upgradeable/proxy/ERC1967/ERC1967UpgradeUpgradeable.sol\":3531:3592  IERC1822ProxiableUpgradeable(newImplementation).proxiableUUID */\n      0xffffffffffffffffffffffffffffffffffffffff\n      and\n      0x52d1902d\n        /* \"@openzeppelin/contracts-upgradeable/proxy/ERC1967/ERC1967UpgradeUpgradeable.sol\":3531:3594  IERC1822ProxiableUpgradeable(newImplementation).proxiableUUID() */\n      mload(0x40)\n      dup2\n      0xffffffff\n      and\n      0xe0\n      shl\n      dup2\n      mstore\n      0x04\n      add\n      0x20\n      mload(0x40)\n      dup1\n      dup4\n      sub\n      dup2\n      dup7\n      dup1\n      extcodesize\n      iszero\n      dup1\n      iszero\n      tag_436\n      jumpi\n      0x00\n      dup1\n      revert\n    tag_436:\n      pop\n      gas\n      staticcall\n      swap3\n      pop\n      pop\n      pop\n      dup1\n      iszero\n      tag_437\n      jumpi\n      pop\n      mload(0x40)\n      returndatasize\n      not(0x1f)\n      0x1f\n      dup3\n      add\n      and\n      dup3\n      add\n      dup1\n      0x40\n      mstore\n      pop\n      dup2\n      add\n      swap1\n      tag_438\n      swap2\n      swap1\n      tag_439\n      jump\t// in\n    tag_438:\n      0x01\n    tag_437:\n        /* \"@openzeppelin/contracts-upgradeable/proxy/ERC1967/ERC1967UpgradeUpgradeable.sol\":3527:3829  try IERC1822ProxiableUpgradeable(newImplementation).proxiableUUID() returns (bytes32 slot) {... */\n      tag_440\n      jumpi\n        /* \"@openzeppelin/contracts-upgradeable/proxy/ERC1967/ERC1967UpgradeUpgradeable.sol\":3758:3814  revert(\"ERC1967Upgrade: new implementation is not UUPS\") */\n      mload(0x40)\n      0x08c379a000000000000000000000000000000000000000000000000000000000\n      dup2\n      mstore\n      0x04\n      add\n      tag_444\n      swap1\n      tag_445\n      jump\t// in\n    tag_444:\n      mload(0x40)\n      dup1\n      swap2\n      sub\n      swap1\n      revert\n        /* \"@openzeppelin/contracts-upgradeable/proxy/ERC1967/ERC1967UpgradeUpgradeable.sol\":3527:3829  try IERC1822ProxiableUpgradeable(newImplementation).proxiableUUID() returns (bytes32 slot) {... */\n    tag_440:\n        /* \"@openzeppelin/contracts-upgradeable/proxy/ERC1967/ERC1967UpgradeUpgradeable.sol\":1292:1358  0x360894a13ba1a3210667c828492db98dca3e2076cc3735a920a3ca505d382bbc */\n      0x360894a13ba1a3210667c828492db98dca3e2076cc3735a920a3ca505d382bbc\n        /* \"@openzeppelin/contracts-upgradeable/proxy/ERC1967/ERC1967UpgradeUpgradeable.sol\":3652:3672  _IMPLEMENTATION_SLOT */\n      0x00\n      shl\n        /* \"@openzeppelin/contracts-upgradeable/proxy/ERC1967/ERC1967UpgradeUpgradeable.sol\":3644:3648  slot */\n      dup2\n        /* \"@openzeppelin/contracts-upgradeable/proxy/ERC1967/ERC1967UpgradeUpgradeable.sol\":3644:3672  slot == _IMPLEMENTATION_SLOT */\n      eq\n        /* \"@openzeppelin/contracts-upgradeable/proxy/ERC1967/ERC1967UpgradeUpgradeable.sol\":3636:3718  require(slot == _IMPLEMENTATION_SLOT, \"ERC1967Upgrade: unsupported proxiableUUID\") */\n      tag_447\n      jumpi\n      mload(0x40)\n      0x08c379a000000000000000000000000000000000000000000000000000000000\n      dup2\n      mstore\n      0x04\n      add\n      tag_448\n      swap1\n      tag_449\n      jump\t// in\n    tag_448:\n      mload(0x40)\n      dup1\n      swap2\n      sub\n      swap1\n      revert\n    tag_447:\n        /* \"@openzeppelin/contracts-upgradeable/proxy/ERC1967/ERC1967UpgradeUpgradeable.sol\":3595:3733  returns (bytes32 slot) {... */\n      pop\n        /* \"@openzeppelin/contracts-upgradeable/proxy/ERC1967/ERC1967UpgradeUpgradeable.sol\":3842:3895  _upgradeToAndCall(newImplementation, data, forceCall) */\n      tag_450\n        /* \"@openzeppelin/contracts-upgradeable/proxy/ERC1967/ERC1967UpgradeUpgradeable.sol\":3860:3877  newImplementation */\n      dup4\n        /* \"@openzeppelin/contracts-upgradeable/proxy/ERC1967/ERC1967UpgradeUpgradeable.sol\":3879:3883  data */\n      dup4\n        /* \"@openzeppelin/contracts-upgradeable/proxy/ERC1967/ERC1967UpgradeUpgradeable.sol\":3885:3894  forceCall */\n      dup4\n        /* \"@openzeppelin/contracts-upgradeable/proxy/ERC1967/ERC1967UpgradeUpgradeable.sol\":3842:3859  _upgradeToAndCall */\n      tag_451\n        /* \"@openzeppelin/contracts-upgradeable/proxy/ERC1967/ERC1967UpgradeUpgradeable.sol\":3842:3895  _upgradeToAndCall(newImplementation, data, forceCall) */\n      jump\t// in\n    tag_450:\n        /* \"@openzeppelin/contracts-upgradeable/proxy/ERC1967/ERC1967UpgradeUpgradeable.sol\":3380:3906  if (StorageSlotUpgradeable.getBooleanSlot(_ROLLBACK_SLOT).value) {... */\n    tag_435:\n        /* \"@openzeppelin/contracts-upgradeable/proxy/ERC1967/ERC1967UpgradeUpgradeable.sol\":2938:3912  function _upgradeToAndCallUUPS(... */\n      pop\n      pop\n      pop\n      jump\t// out\n        /* \"@openzeppelin/contracts-upgradeable/utils/AddressUpgradeable.sol\":1186:1506  function isContract(address account) internal view returns (bool) {... */\n    tag_296:\n        /* \"@openzeppelin/contracts-upgradeable/utils/AddressUpgradeable.sol\":1246:1250  bool */\n      0x00\n        /* \"@openzeppelin/contracts-upgradeable/utils/AddressUpgradeable.sol\":1498:1499  0 */\n      dup1\n        /* \"@openzeppelin/contracts-upgradeable/utils/AddressUpgradeable.sol\":1476:1483  account */\n      dup3\n        /* \"@openzeppelin/contracts-upgradeable/utils/AddressUpgradeable.sol\":1476:1495  account.code.length */\n      0xffffffffffffffffffffffffffffffffffffffff\n      and\n      extcodesize\n        /* \"@openzeppelin/contracts-upgradeable/utils/AddressUpgradeable.sol\":1476:1499  account.code.length > 0 */\n      gt\n        /* \"@openzeppelin/contracts-upgradeable/utils/AddressUpgradeable.sol\":1469:1499  return account.code.length > 0 */\n      swap1\n      pop\n        /* \"@openzeppelin/contracts-upgradeable/utils/AddressUpgradeable.sol\":1186:1506  function isContract(address account) internal view returns (bool) {... */\n      swap2\n      swap1\n      pop\n      jump\t// out\n        /* \"@openzeppelin/contracts-upgradeable/access/OwnableUpgradeable.sol\":1003:1098  function __Ownable_init() internal onlyInitializing {... */\n    tag_304:\n        /* \"@openzeppelin/contracts-upgradeable/proxy/utils/Initializable.sol\":5363:5376  _initializing */\n      0x00\n      0x01\n      swap1\n      sload\n      swap1\n      0x0100\n      exp\n      swap1\n      div\n      0xff\n      and\n        /* \"@openzeppelin/contracts-upgradeable/proxy/utils/Initializable.sol\":5355:5424  require(_initializing, \"Initializable: contract is not initializing\") */\n      tag_454\n      jumpi\n      mload(0x40)\n      0x08c379a000000000000000000000000000000000000000000000000000000000\n      dup2\n      mstore\n      0x04\n      add\n      tag_455\n      swap1\n      tag_456\n      jump\t// in\n    tag_455:\n      mload(0x40)\n      dup1\n      swap2\n      sub\n      swap1\n      revert\n    tag_454:\n        /* \"@openzeppelin/contracts-upgradeable/access/OwnableUpgradeable.sol\":1065:1091  __Ownable_init_unchained() */\n      tag_458\n        /* \"@openzeppelin/contracts-upgradeable/access/OwnableUpgradeable.sol\":1065:1089  __Ownable_init_unchained */\n      tag_459\n        /* \"@openzeppelin/contracts-upgradeable/access/OwnableUpgradeable.sol\":1065:1091  __Ownable_init_unchained() */\n      jump\t// in\n    tag_458:\n        /* \"@openzeppelin/contracts-upgradeable/access/OwnableUpgradeable.sol\":1003:1098  function __Ownable_init() internal onlyInitializing {... */\n      jump\t// out\n        /* \"@openzeppelin/contracts-upgradeable/proxy/utils/UUPSUpgradeable.sol\":1042:1109  function __UUPSUpgradeable_init() internal onlyInitializing {... */\n    tag_306:\n        /* \"@openzeppelin/contracts-upgradeable/proxy/utils/Initializable.sol\":5363:5376  _initializing */\n      0x00\n      0x01\n      swap1\n      sload\n      swap1\n      0x0100\n      exp\n      swap1\n      div\n      0xff\n      and\n        /* \"@openzeppelin/contracts-upgradeable/proxy/utils/Initializable.sol\":5355:5424  require(_initializing, \"Initializable: contract is not initializing\") */\n      tag_461\n      jumpi\n      mload(0x40)\n      0x08c379a000000000000000000000000000000000000000000000000000000000\n      dup2\n      mstore\n      0x04\n      add\n      tag_462\n      swap1\n      tag_456\n      jump\t// in\n    tag_462:\n      mload(0x40)\n      dup1\n      swap2\n      sub\n      swap1\n      revert\n    tag_461:\n        /* \"@openzeppelin/contracts-upgradeable/proxy/utils/UUPSUpgradeable.sol\":1042:1109  function __UUPSUpgradeable_init() internal onlyInitializing {... */\n      jump\t// out\n        /* \"@openzeppelin/contracts-upgradeable/access/OwnableUpgradeable.sol\":2673:2860  function _transferOwnership(address newOwner) internal virtual {... */\n    tag_351:\n        /* \"@openzeppelin/contracts-upgradeable/access/OwnableUpgradeable.sol\":2746:2762  address oldOwner */\n      0x00\n        /* \"@openzeppelin/contracts-upgradeable/access/OwnableUpgradeable.sol\":2765:2771  _owner */\n      0x33\n      0x00\n      swap1\n      sload\n      swap1\n      0x0100\n      exp\n      swap1\n      div\n      0xffffffffffffffffffffffffffffffffffffffff\n      and\n        /* \"@openzeppelin/contracts-upgradeable/access/OwnableUpgradeable.sol\":2746:2771  address oldOwner = _owner */\n      swap1\n      pop\n        /* \"@openzeppelin/contracts-upgradeable/access/OwnableUpgradeable.sol\":2790:2798  newOwner */\n      dup2\n        /* \"@openzeppelin/contracts-upgradeable/access/OwnableUpgradeable.sol\":2781:2787  _owner */\n      0x33\n      0x00\n        /* \"@openzeppelin/contracts-upgradeable/access/OwnableUpgradeable.sol\":2781:2798  _owner = newOwner */\n      0x0100\n      exp\n      dup2\n      sload\n      dup2\n      0xffffffffffffffffffffffffffffffffffffffff\n      mul\n      not\n      and\n      swap1\n      dup4\n      0xffffffffffffffffffffffffffffffffffffffff\n      and\n      mul\n      or\n      swap1\n      sstore\n      pop\n        /* \"@openzeppelin/contracts-upgradeable/access/OwnableUpgradeable.sol\":2844:2852  newOwner */\n      dup2\n        /* \"@openzeppelin/contracts-upgradeable/access/OwnableUpgradeable.sol\":2813:2853  OwnershipTransferred(oldOwner, newOwner) */\n      0xffffffffffffffffffffffffffffffffffffffff\n      and\n        /* \"@openzeppelin/contracts-upgradeable/access/OwnableUpgradeable.sol\":2834:2842  oldOwner */\n      dup2\n        /* \"@openzeppelin/contracts-upgradeable/access/OwnableUpgradeable.sol\":2813:2853  OwnershipTransferred(oldOwner, newOwner) */\n      0xffffffffffffffffffffffffffffffffffffffff\n      and\n      0x8be0079c531659141344cd1fd0a4f28419497f9722a3daafe3b4186f6b6457e0\n      mload(0x40)\n      mload(0x40)\n      dup1\n      swap2\n      sub\n      swap1\n      log3\n        /* \"@openzeppelin/contracts-upgradeable/access/OwnableUpgradeable.sol\":2736:2860  {... */\n      pop\n        /* \"@openzeppelin/contracts-upgradeable/access/OwnableUpgradeable.sol\":2673:2860  function _transferOwnership(address newOwner) internal virtual {... */\n      pop\n      jump\t// out\n        /* \"Samples/reward.sol\":6757:7513  function _updatePool() internal {\r... */\n    tag_358:\n        /* \"Samples/reward.sol\":6820:6835  lastRewardBlock */\n      sload(0xce)\n        /* \"Samples/reward.sol\":6804:6816  block.number */\n      number\n        /* \"Samples/reward.sol\":6804:6835  block.number <= lastRewardBlock */\n      gt\n        /* \"Samples/reward.sol\":6800:6870  if (block.number <= lastRewardBlock) {\r... */\n      tag_466\n      jumpi\n        /* \"Samples/reward.sol\":6852:6859  return; */\n      jump(tag_465)\n        /* \"Samples/reward.sol\":6800:6870  if (block.number <= lastRewardBlock) {\r... */\n    tag_466:\n        /* \"Samples/reward.sol\":6905:6906  0 */\n      0x00\n        /* \"Samples/reward.sol\":6884:6901  totalAmountStaked */\n      sload(0xd0)\n        /* \"Samples/reward.sol\":6884:6906  totalAmountStaked == 0 */\n      eq\n        /* \"Samples/reward.sol\":6880:6986  if (totalAmountStaked == 0) {\r... */\n      iszero\n      tag_467\n      jumpi\n        /* \"Samples/reward.sol\":6941:6953  block.number */\n      number\n        /* \"Samples/reward.sol\":6923:6938  lastRewardBlock */\n      0xce\n        /* \"Samples/reward.sol\":6923:6953  lastRewardBlock = block.number */\n      dup2\n      swap1\n      sstore\n      pop\n        /* \"Samples/reward.sol\":6968:6975  return; */\n      jump(tag_465)\n        /* \"Samples/reward.sol\":6880:6986  if (totalAmountStaked == 0) {\r... */\n    tag_467:\n        /* \"Samples/reward.sol\":6996:7014  uint256 multiplier */\n      0x00\n        /* \"Samples/reward.sol\":7017:7062  _getMultiplier(lastRewardBlock, block.number) */\n      tag_468\n        /* \"Samples/reward.sol\":7032:7047  lastRewardBlock */\n      sload(0xce)\n        /* \"Samples/reward.sol\":7049:7061  block.number */\n      number\n        /* \"Samples/reward.sol\":7017:7031  _getMultiplier */\n      tag_153\n        /* \"Samples/reward.sol\":7017:7062  _getMultiplier(lastRewardBlock, block.number) */\n      jump\t// in\n    tag_468:\n        /* \"Samples/reward.sol\":6996:7062  uint256 multiplier = _getMultiplier(lastRewardBlock, block.number) */\n      swap1\n      pop\n        /* \"Samples/reward.sol\":7073:7102  uint256 tokenRewardForStaking */\n      0x00\n        /* \"Samples/reward.sol\":7118:7142  rewardPerBlockForStaking */\n      sload(0xcf)\n        /* \"Samples/reward.sol\":7105:7115  multiplier */\n      dup3\n        /* \"Samples/reward.sol\":7105:7142  multiplier * rewardPerBlockForStaking */\n      tag_469\n      swap2\n      swap1\n      tag_201\n      jump\t// in\n    tag_469:\n        /* \"Samples/reward.sol\":7073:7142  uint256 tokenRewardForStaking = multiplier * rewardPerBlockForStaking */\n      swap1\n      pop\n        /* \"Samples/reward.sol\":7183:7184  0 */\n      0x00\n        /* \"Samples/reward.sol\":7159:7180  tokenRewardForStaking */\n      dup2\n        /* \"Samples/reward.sol\":7159:7184  tokenRewardForStaking > 0 */\n      gt\n        /* \"Samples/reward.sol\":7155:7315  if (tokenRewardForStaking > 0) {\r... */\n      iszero\n      tag_470\n      jumpi\n        /* \"Samples/reward.sol\":7285:7302  totalAmountStaked */\n      sload(0xd0)\n        /* \"Samples/reward.sol\":948:954  10**12 */\n      0xe8d4a51000\n        /* \"Samples/reward.sol\":7241:7262  tokenRewardForStaking */\n      dup3\n        /* \"Samples/reward.sol\":7241:7281  tokenRewardForStaking * PRECISION_FACTOR */\n      tag_471\n      swap2\n      swap1\n      tag_201\n      jump\t// in\n    tag_471:\n        /* \"Samples/reward.sol\":7240:7302  (tokenRewardForStaking * PRECISION_FACTOR) / totalAmountStaked */\n      tag_472\n      swap2\n      swap1\n      tag_204\n      jump\t// in\n    tag_472:\n        /* \"Samples/reward.sol\":7220:7236  accTokenPerShare */\n      sload(0xcb)\n        /* \"Samples/reward.sol\":7220:7303  accTokenPerShare + ((tokenRewardForStaking * PRECISION_FACTOR) / totalAmountStaked) */\n      tag_473\n      swap2\n      swap1\n      tag_206\n      jump\t// in\n    tag_473:\n        /* \"Samples/reward.sol\":7201:7217  accTokenPerShare */\n      0xcb\n        /* \"Samples/reward.sol\":7201:7303  accTokenPerShare = accTokenPerShare + ((tokenRewardForStaking * PRECISION_FACTOR) / totalAmountStaked) */\n      dup2\n      swap1\n      sstore\n      pop\n        /* \"Samples/reward.sol\":7155:7315  if (tokenRewardForStaking > 0) {\r... */\n    tag_470:\n        /* \"Samples/reward.sol\":7439:7447  endBlock */\n      sload(0xcd)\n        /* \"Samples/reward.sol\":7420:7435  lastRewardBlock */\n      sload(0xce)\n        /* \"Samples/reward.sol\":7420:7447  lastRewardBlock <= endBlock */\n      gt\n        /* \"Samples/reward.sol\":7416:7506  if (lastRewardBlock <= endBlock) {\r... */\n      tag_474\n      jumpi\n        /* \"Samples/reward.sol\":7482:7494  block.number */\n      number\n        /* \"Samples/reward.sol\":7464:7479  lastRewardBlock */\n      0xce\n        /* \"Samples/reward.sol\":7464:7494  lastRewardBlock = block.number */\n      dup2\n      swap1\n      sstore\n      pop\n        /* \"Samples/reward.sol\":7416:7506  if (lastRewardBlock <= endBlock) {\r... */\n    tag_474:\n        /* \"Samples/reward.sol\":6789:7513  {\r... */\n      pop\n      pop\n        /* \"Samples/reward.sol\":6757:7513  function _updatePool() internal {\r... */\n    tag_465:\n      jump\t// out\n        /* \"@openzeppelin/contracts-upgradeable/utils/ContextUpgradeable.sol\":850:946  function _msgSender() internal view virtual returns (address) {... */\n    tag_418:\n        /* \"@openzeppelin/contracts-upgradeable/utils/ContextUpgradeable.sol\":903:910  address */\n      0x00\n        /* \"@openzeppelin/contracts-upgradeable/utils/ContextUpgradeable.sol\":929:939  msg.sender */\n      caller\n        /* \"@openzeppelin/contracts-upgradeable/utils/ContextUpgradeable.sol\":922:939  return msg.sender */\n      swap1\n      pop\n        /* \"@openzeppelin/contracts-upgradeable/utils/ContextUpgradeable.sol\":850:946  function _msgSender() internal view virtual returns (address) {... */\n      swap1\n      jump\t// out\n        /* \"@openzeppelin/contracts-upgradeable/utils/StorageSlotUpgradeable.sol\":1625:1815  function getAddressSlot(bytes32 slot) internal pure returns (AddressSlot storage r) {... */\n    tag_425:\n        /* \"@openzeppelin/contracts-upgradeable/utils/StorageSlotUpgradeable.sol\":1686:1707  AddressSlot storage r */\n      0x00\n        /* \"@openzeppelin/contracts-upgradeable/utils/StorageSlotUpgradeable.sol\":1795:1799  slot */\n      dup2\n        /* \"@openzeppelin/contracts-upgradeable/utils/StorageSlotUpgradeable.sol\":1785:1799  r.slot := slot */\n      swap1\n      pop\n        /* \"@openzeppelin/contracts-upgradeable/utils/StorageSlotUpgradeable.sol\":1625:1815  function getAddressSlot(bytes32 slot) internal pure returns (AddressSlot storage r) {... */\n      swap2\n      swap1\n      pop\n      jump\t// out\n        /* \"@openzeppelin/contracts-upgradeable/utils/StorageSlotUpgradeable.sol\":1913:2103  function getBooleanSlot(bytes32 slot) internal pure returns (BooleanSlot storage r) {... */\n    tag_431:\n        /* \"@openzeppelin/contracts-upgradeable/utils/StorageSlotUpgradeable.sol\":1974:1995  BooleanSlot storage r */\n      0x00\n        /* \"@openzeppelin/contracts-upgradeable/utils/StorageSlotUpgradeable.sol\":2083:2087  slot */\n      dup2\n        /* \"@openzeppelin/contracts-upgradeable/utils/StorageSlotUpgradeable.sol\":2073:2087  r.slot := slot */\n      swap1\n      pop\n        /* \"@openzeppelin/contracts-upgradeable/utils/StorageSlotUpgradeable.sol\":1913:2103  function getBooleanSlot(bytes32 slot) internal pure returns (BooleanSlot storage r) {... */\n      swap2\n      swap1\n      pop\n      jump\t// out\n        /* \"@openzeppelin/contracts-upgradeable/proxy/ERC1967/ERC1967UpgradeUpgradeable.sol\":1805:2086  function _setImplementation(address newImplementation) private {... */\n    tag_434:\n        /* \"@openzeppelin/contracts-upgradeable/proxy/ERC1967/ERC1967UpgradeUpgradeable.sol\":1886:1934  AddressUpgradeable.isContract(newImplementation) */\n      tag_479\n        /* \"@openzeppelin/contracts-upgradeable/proxy/ERC1967/ERC1967UpgradeUpgradeable.sol\":1916:1933  newImplementation */\n      dup2\n        /* \"@openzeppelin/contracts-upgradeable/proxy/ERC1967/ERC1967UpgradeUpgradeable.sol\":1886:1915  AddressUpgradeable.isContract */\n      tag_296\n        /* \"@openzeppelin/contracts-upgradeable/proxy/ERC1967/ERC1967UpgradeUpgradeable.sol\":1886:1934  AddressUpgradeable.isContract(newImplementation) */\n      jump\t// in\n    tag_479:\n        /* \"@openzeppelin/contracts-upgradeable/proxy/ERC1967/ERC1967UpgradeUpgradeable.sol\":1878:1984  require(AddressUpgradeable.isContract(newImplementation), \"ERC1967: new implementation is not a contract\") */\n      tag_480\n      jumpi\n      mload(0x40)\n      0x08c379a000000000000000000000000000000000000000000000000000000000\n      dup2\n      mstore\n      0x04\n      add\n      tag_481\n      swap1\n      tag_482\n      jump\t// in\n    tag_481:\n      mload(0x40)\n      dup1\n      swap2\n      sub\n      swap1\n      revert\n    tag_480:\n        /* \"@openzeppelin/contracts-upgradeable/proxy/ERC1967/ERC1967UpgradeUpgradeable.sol\":2062:2079  newImplementation */\n      dup1\n        /* \"@openzeppelin/contracts-upgradeable/proxy/ERC1967/ERC1967UpgradeUpgradeable.sol\":1994:2053  StorageSlotUpgradeable.getAddressSlot(_IMPLEMENTATION_SLOT) */\n      tag_483\n        /* \"@openzeppelin/contracts-upgradeable/proxy/ERC1967/ERC1967UpgradeUpgradeable.sol\":1292:1358  0x360894a13ba1a3210667c828492db98dca3e2076cc3735a920a3ca505d382bbc */\n      0x360894a13ba1a3210667c828492db98dca3e2076cc3735a920a3ca505d382bbc\n        /* \"@openzeppelin/contracts-upgradeable/proxy/ERC1967/ERC1967UpgradeUpgradeable.sol\":2032:2052  _IMPLEMENTATION_SLOT */\n      0x00\n      shl\n        /* \"@openzeppelin/contracts-upgradeable/proxy/ERC1967/ERC1967UpgradeUpgradeable.sol\":1994:2031  StorageSlotUpgradeable.getAddressSlot */\n      tag_425\n        /* \"@openzeppelin/contracts-upgradeable/proxy/ERC1967/ERC1967UpgradeUpgradeable.sol\":1994:2053  StorageSlotUpgradeable.getAddressSlot(_IMPLEMENTATION_SLOT) */\n      jump\t// in\n    tag_483:\n        /* \"@openzeppelin/contracts-upgradeable/proxy/ERC1967/ERC1967UpgradeUpgradeable.sol\":1994:2059  StorageSlotUpgradeable.getAddressSlot(_IMPLEMENTATION_SLOT).value */\n      0x00\n      add\n      0x00\n        /* \"@openzeppelin/contracts-upgradeable/proxy/ERC1967/ERC1967UpgradeUpgradeable.sol\":1994:2079  StorageSlotUpgradeable.getAddressSlot(_IMPLEMENTATION_SLOT).value = newImplementation */\n      0x0100\n      exp\n      dup2\n      sload\n      dup2\n      0xffffffffffffffffffffffffffffffffffffffff\n      mul\n      not\n      and\n      swap1\n      dup4\n      0xffffffffffffffffffffffffffffffffffffffff\n      and\n      mul\n      or\n      swap1\n      sstore\n      pop\n        /* \"@openzeppelin/contracts-upgradeable/proxy/ERC1967/ERC1967UpgradeUpgradeable.sol\":1805:2086  function _setImplementation(address newImplementation) private {... */\n      pop\n      jump\t// out\n        /* \"@openzeppelin/contracts-upgradeable/proxy/ERC1967/ERC1967UpgradeUpgradeable.sol\":2478:2766  function _upgradeToAndCall(... */\n    tag_451:\n        /* \"@openzeppelin/contracts-upgradeable/proxy/ERC1967/ERC1967UpgradeUpgradeable.sol\":2616:2645  _upgradeTo(newImplementation) */\n      tag_485\n        /* \"@openzeppelin/contracts-upgradeable/proxy/ERC1967/ERC1967UpgradeUpgradeable.sol\":2627:2644  newImplementation */\n      dup4\n        /* \"@openzeppelin/contracts-upgradeable/proxy/ERC1967/ERC1967UpgradeUpgradeable.sol\":2616:2626  _upgradeTo */\n      tag_486\n        /* \"@openzeppelin/contracts-upgradeable/proxy/ERC1967/ERC1967UpgradeUpgradeable.sol\":2616:2645  _upgradeTo(newImplementation) */\n      jump\t// in\n    tag_485:\n        /* \"@openzeppelin/contracts-upgradeable/proxy/ERC1967/ERC1967UpgradeUpgradeable.sol\":2673:2674  0 */\n      0x00\n        /* \"@openzeppelin/contracts-upgradeable/proxy/ERC1967/ERC1967UpgradeUpgradeable.sol\":2659:2663  data */\n      dup3\n        /* \"@openzeppelin/contracts-upgradeable/proxy/ERC1967/ERC1967UpgradeUpgradeable.sol\":2659:2670  data.length */\n      mload\n        /* \"@openzeppelin/contracts-upgradeable/proxy/ERC1967/ERC1967UpgradeUpgradeable.sol\":2659:2674  data.length > 0 */\n      gt\n        /* \"@openzeppelin/contracts-upgradeable/proxy/ERC1967/ERC1967UpgradeUpgradeable.sol\":2659:2687  data.length > 0 || forceCall */\n      dup1\n      tag_487\n      jumpi\n      pop\n        /* \"@openzeppelin/contracts-upgradeable/proxy/ERC1967/ERC1967UpgradeUpgradeable.sol\":2678:2687  forceCall */\n      dup1\n        /* \"@openzeppelin/contracts-upgradeable/proxy/ERC1967/ERC1967UpgradeUpgradeable.sol\":2659:2687  data.length > 0 || forceCall */\n    tag_487:\n        /* \"@openzeppelin/contracts-upgradeable/proxy/ERC1967/ERC1967UpgradeUpgradeable.sol\":2655:2760  if (data.length > 0 || forceCall) {... */\n      iszero\n      tag_488\n      jumpi\n        /* \"@openzeppelin/contracts-upgradeable/proxy/ERC1967/ERC1967UpgradeUpgradeable.sol\":2703:2749  _functionDelegateCall(newImplementation, data) */\n      tag_489\n        /* \"@openzeppelin/contracts-upgradeable/proxy/ERC1967/ERC1967UpgradeUpgradeable.sol\":2725:2742  newImplementation */\n      dup4\n        /* \"@openzeppelin/contracts-upgradeable/proxy/ERC1967/ERC1967UpgradeUpgradeable.sol\":2744:2748  data */\n      dup4\n        /* \"@openzeppelin/contracts-upgradeable/proxy/ERC1967/ERC1967UpgradeUpgradeable.sol\":2703:2724  _functionDelegateCall */\n      tag_490\n        /* \"@openzeppelin/contracts-upgradeable/proxy/ERC1967/ERC1967UpgradeUpgradeable.sol\":2703:2749  _functionDelegateCall(newImplementation, data) */\n      jump\t// in\n    tag_489:\n      pop\n        /* \"@openzeppelin/contracts-upgradeable/proxy/ERC1967/ERC1967UpgradeUpgradeable.sol\":2655:2760  if (data.length > 0 || forceCall) {... */\n    tag_488:\n        /* \"@openzeppelin/contracts-upgradeable/proxy/ERC1967/ERC1967UpgradeUpgradeable.sol\":2478:2766  function _upgradeToAndCall(... */\n      pop\n      pop\n      pop\n      jump\t// out\n        /* \"@openzeppelin/contracts-upgradeable/access/OwnableUpgradeable.sol\":1104:1215  function __Ownable_init_unchained() internal onlyInitializing {... */\n    tag_459:\n        /* \"@openzeppelin/contracts-upgradeable/proxy/utils/Initializable.sol\":5363:5376  _initializing */\n      0x00\n      0x01\n      swap1\n      sload\n      swap1\n      0x0100\n      exp\n      swap1\n      div\n      0xff\n      and\n        /* \"@openzeppelin/contracts-upgradeable/proxy/utils/Initializable.sol\":5355:5424  require(_initializing, \"Initializable: contract is not initializing\") */\n      tag_492\n      jumpi\n      mload(0x40)\n      0x08c379a000000000000000000000000000000000000000000000000000000000\n      dup2\n      mstore\n      0x04\n      add\n      tag_493\n      swap1\n      tag_456\n      jump\t// in\n    tag_493:\n      mload(0x40)\n      dup1\n      swap2\n      sub\n      swap1\n      revert\n    tag_492:\n        /* \"@openzeppelin/contracts-upgradeable/access/OwnableUpgradeable.sol\":1176:1208  _transferOwnership(_msgSender()) */\n      tag_495\n        /* \"@openzeppelin/contracts-upgradeable/access/OwnableUpgradeable.sol\":1195:1207  _msgSender() */\n      tag_496\n        /* \"@openzeppelin/contracts-upgradeable/access/OwnableUpgradeable.sol\":1195:1205  _msgSender */\n      tag_418\n        /* \"@openzeppelin/contracts-upgradeable/access/OwnableUpgradeable.sol\":1195:1207  _msgSender() */\n      jump\t// in\n    tag_496:\n        /* \"@openzeppelin/contracts-upgradeable/access/OwnableUpgradeable.sol\":1176:1194  _transferOwnership */\n      tag_351\n        /* \"@openzeppelin/contracts-upgradeable/access/OwnableUpgradeable.sol\":1176:1208  _transferOwnership(_msgSender()) */\n      jump\t// in\n    tag_495:\n        /* \"@openzeppelin/contracts-upgradeable/access/OwnableUpgradeable.sol\":1104:1215  function __Ownable_init_unchained() internal onlyInitializing {... */\n      jump\t// out\n        /* \"@openzeppelin/contracts-upgradeable/proxy/ERC1967/ERC1967UpgradeUpgradeable.sol\":2192:2344  function _upgradeTo(address newImplementation) internal {... */\n    tag_486:\n        /* \"@openzeppelin/contracts-upgradeable/proxy/ERC1967/ERC1967UpgradeUpgradeable.sol\":2258:2295  _setImplementation(newImplementation) */\n      tag_498\n        /* \"@openzeppelin/contracts-upgradeable/proxy/ERC1967/ERC1967UpgradeUpgradeable.sol\":2277:2294  newImplementation */\n      dup2\n        /* \"@openzeppelin/contracts-upgradeable/proxy/ERC1967/ERC1967UpgradeUpgradeable.sol\":2258:2276  _setImplementation */\n      tag_434\n        /* \"@openzeppelin/contracts-upgradeable/proxy/ERC1967/ERC1967UpgradeUpgradeable.sol\":2258:2295  _setImplementation(newImplementation) */\n      jump\t// in\n    tag_498:\n        /* \"@openzeppelin/contracts-upgradeable/proxy/ERC1967/ERC1967UpgradeUpgradeable.sol\":2319:2336  newImplementation */\n      dup1\n        /* \"@openzeppelin/contracts-upgradeable/proxy/ERC1967/ERC1967UpgradeUpgradeable.sol\":2310:2337  Upgraded(newImplementation) */\n      0xffffffffffffffffffffffffffffffffffffffff\n      and\n      0xbc7cd75a20ee27fd9adebab32041f755214dbc6bffa90cc0225b39da2e5c2d3b\n      mload(0x40)\n      mload(0x40)\n      dup1\n      swap2\n      sub\n      swap1\n      log2\n        /* \"@openzeppelin/contracts-upgradeable/proxy/ERC1967/ERC1967UpgradeUpgradeable.sol\":2192:2344  function _upgradeTo(address newImplementation) internal {... */\n      pop\n      jump\t// out\n        /* \"@openzeppelin/contracts-upgradeable/proxy/ERC1967/ERC1967UpgradeUpgradeable.sol\":7088:7543  function _functionDelegateCall(address target, bytes memory data) private returns (bytes memory) {... */\n    tag_490:\n        /* \"@openzeppelin/contracts-upgradeable/proxy/ERC1967/ERC1967UpgradeUpgradeable.sol\":7171:7183  bytes memory */\n      0x60\n        /* \"@openzeppelin/contracts-upgradeable/proxy/ERC1967/ERC1967UpgradeUpgradeable.sol\":7203:7240  AddressUpgradeable.isContract(target) */\n      tag_500\n        /* \"@openzeppelin/contracts-upgradeable/proxy/ERC1967/ERC1967UpgradeUpgradeable.sol\":7233:7239  target */\n      dup4\n        /* \"@openzeppelin/contracts-upgradeable/proxy/ERC1967/ERC1967UpgradeUpgradeable.sol\":7203:7232  AddressUpgradeable.isContract */\n      tag_296\n        /* \"@openzeppelin/contracts-upgradeable/proxy/ERC1967/ERC1967UpgradeUpgradeable.sol\":7203:7240  AddressUpgradeable.isContract(target) */\n      jump\t// in\n    tag_500:\n        /* \"@openzeppelin/contracts-upgradeable/proxy/ERC1967/ERC1967UpgradeUpgradeable.sol\":7195:7283  require(AddressUpgradeable.isContract(target), \"Address: delegate call to non-contract\") */\n      tag_501\n      jumpi\n      mload(0x40)\n      0x08c379a000000000000000000000000000000000000000000000000000000000\n      dup2\n      mstore\n      0x04\n      add\n      tag_502\n      swap1\n      tag_503\n      jump\t// in\n    tag_502:\n      mload(0x40)\n      dup1\n      swap2\n      sub\n      swap1\n      revert\n    tag_501:\n        /* \"@openzeppelin/contracts-upgradeable/proxy/ERC1967/ERC1967UpgradeUpgradeable.sol\":7354:7366  bool success */\n      0x00\n        /* \"@openzeppelin/contracts-upgradeable/proxy/ERC1967/ERC1967UpgradeUpgradeable.sol\":7368:7391  bytes memory returndata */\n      dup1\n        /* \"@openzeppelin/contracts-upgradeable/proxy/ERC1967/ERC1967UpgradeUpgradeable.sol\":7395:7401  target */\n      dup5\n        /* \"@openzeppelin/contracts-upgradeable/proxy/ERC1967/ERC1967UpgradeUpgradeable.sol\":7395:7414  target.delegatecall */\n      0xffffffffffffffffffffffffffffffffffffffff\n      and\n        /* \"@openzeppelin/contracts-upgradeable/proxy/ERC1967/ERC1967UpgradeUpgradeable.sol\":7415:7419  data */\n      dup5\n        /* \"@openzeppelin/contracts-upgradeable/proxy/ERC1967/ERC1967UpgradeUpgradeable.sol\":7395:7420  target.delegatecall(data) */\n      mload(0x40)\n      tag_504\n      swap2\n      swap1\n      tag_505\n      jump\t// in\n    tag_504:\n      0x00\n      mload(0x40)\n      dup1\n      dup4\n      sub\n      dup2\n      dup6\n      gas\n      delegatecall\n      swap2\n      pop\n      pop\n      returndatasize\n      dup1\n      0x00\n      dup2\n      eq\n      tag_508\n      jumpi\n      mload(0x40)\n      swap2\n      pop\n      and(add(returndatasize, 0x3f), not(0x1f))\n      dup3\n      add\n      0x40\n      mstore\n      returndatasize\n      dup3\n      mstore\n      returndatasize\n      0x00\n      0x20\n      dup5\n      add\n      returndatacopy\n      jump(tag_507)\n    tag_508:\n      0x60\n      swap2\n      pop\n    tag_507:\n      pop\n        /* \"@openzeppelin/contracts-upgradeable/proxy/ERC1967/ERC1967UpgradeUpgradeable.sol\":7353:7420  (bool success, bytes memory returndata) = target.delegatecall(data) */\n      swap2\n      pop\n      swap2\n      pop\n        /* \"@openzeppelin/contracts-upgradeable/proxy/ERC1967/ERC1967UpgradeUpgradeable.sol\":7437:7536  AddressUpgradeable.verifyCallResult(success, returndata, \"Address: low-level delegate call failed\") */\n      tag_509\n        /* \"@openzeppelin/contracts-upgradeable/proxy/ERC1967/ERC1967UpgradeUpgradeable.sol\":7473:7480  success */\n      dup3\n        /* \"@openzeppelin/contracts-upgradeable/proxy/ERC1967/ERC1967UpgradeUpgradeable.sol\":7482:7492  returndata */\n      dup3\n        /* \"@openzeppelin/contracts-upgradeable/proxy/ERC1967/ERC1967UpgradeUpgradeable.sol\":7437:7536  AddressUpgradeable.verifyCallResult(success, returndata, \"Address: low-level delegate call failed\") */\n      mload(0x40)\n      dup1\n      0x60\n      add\n      0x40\n      mstore\n      dup1\n      0x27\n      dup2\n      mstore\n      0x20\n      add\n      data_9fdcd12e4b726339b32a442b0a448365d5d85c96b2d2cff917b4f66c63110398\n      0x27\n      swap2\n      codecopy\n        /* \"@openzeppelin/contracts-upgradeable/proxy/ERC1967/ERC1967UpgradeUpgradeable.sol\":7437:7472  AddressUpgradeable.verifyCallResult */\n      tag_510\n        /* \"@openzeppelin/contracts-upgradeable/proxy/ERC1967/ERC1967UpgradeUpgradeable.sol\":7437:7536  AddressUpgradeable.verifyCallResult(success, returndata, \"Address: low-level delegate call failed\") */\n      jump\t// in\n    tag_509:\n        /* \"@openzeppelin/contracts-upgradeable/proxy/ERC1967/ERC1967UpgradeUpgradeable.sol\":7430:7536  return AddressUpgradeable.verifyCallResult(success, returndata, \"Address: low-level delegate call failed\") */\n      swap3\n      pop\n      pop\n      pop\n        /* \"@openzeppelin/contracts-upgradeable/proxy/ERC1967/ERC1967UpgradeUpgradeable.sol\":7088:7543  function _functionDelegateCall(address target, bytes memory data) private returns (bytes memory) {... */\n      swap3\n      swap2\n      pop\n      pop\n      jump\t// out\n        /* \"@openzeppelin/contracts-upgradeable/utils/AddressUpgradeable.sol\":7438:7733  function verifyCallResult(... */\n    tag_510:\n        /* \"@openzeppelin/contracts-upgradeable/utils/AddressUpgradeable.sol\":7584:7596  bytes memory */\n      0x60\n        /* \"@openzeppelin/contracts-upgradeable/utils/AddressUpgradeable.sol\":7612:7619  success */\n      dup4\n        /* \"@openzeppelin/contracts-upgradeable/utils/AddressUpgradeable.sol\":7608:7727  if (success) {... */\n      iszero\n      tag_512\n      jumpi\n        /* \"@openzeppelin/contracts-upgradeable/utils/AddressUpgradeable.sol\":7642:7652  returndata */\n      dup3\n        /* \"@openzeppelin/contracts-upgradeable/utils/AddressUpgradeable.sol\":7635:7652  return returndata */\n      swap1\n      pop\n      jump(tag_511)\n        /* \"@openzeppelin/contracts-upgradeable/utils/AddressUpgradeable.sol\":7608:7727  if (success) {... */\n    tag_512:\n        /* \"@openzeppelin/contracts-upgradeable/utils/AddressUpgradeable.sol\":7683:7716  _revert(returndata, errorMessage) */\n      tag_514\n        /* \"@openzeppelin/contracts-upgradeable/utils/AddressUpgradeable.sol\":7691:7701  returndata */\n      dup4\n        /* \"@openzeppelin/contracts-upgradeable/utils/AddressUpgradeable.sol\":7703:7715  errorMessage */\n      dup4\n        /* \"@openzeppelin/contracts-upgradeable/utils/AddressUpgradeable.sol\":7683:7690  _revert */\n      tag_515\n        /* \"@openzeppelin/contracts-upgradeable/utils/AddressUpgradeable.sol\":7683:7716  _revert(returndata, errorMessage) */\n      jump\t// in\n    tag_514:\n        /* \"@openzeppelin/contracts-upgradeable/utils/AddressUpgradeable.sol\":7438:7733  function verifyCallResult(... */\n    tag_511:\n      swap4\n      swap3\n      pop\n      pop\n      pop\n      jump\t// out\n        /* \"@openzeppelin/contracts-upgradeable/utils/AddressUpgradeable.sol\":7739:8279  function _revert(bytes memory returndata, string memory errorMessage) private pure {... */\n    tag_515:\n        /* \"@openzeppelin/contracts-upgradeable/utils/AddressUpgradeable.sol\":7918:7919  0 */\n      0x00\n        /* \"@openzeppelin/contracts-upgradeable/utils/AddressUpgradeable.sol\":7898:7908  returndata */\n      dup3\n        /* \"@openzeppelin/contracts-upgradeable/utils/AddressUpgradeable.sol\":7898:7915  returndata.length */\n      mload\n        /* \"@openzeppelin/contracts-upgradeable/utils/AddressUpgradeable.sol\":7898:7919  returndata.length > 0 */\n      gt\n        /* \"@openzeppelin/contracts-upgradeable/utils/AddressUpgradeable.sol\":7894:8273  if (returndata.length > 0) {... */\n      iszero\n      tag_517\n      jumpi\n        /* \"@openzeppelin/contracts-upgradeable/utils/AddressUpgradeable.sol\":8126:8136  returndata */\n      dup2\n        /* \"@openzeppelin/contracts-upgradeable/utils/AddressUpgradeable.sol\":8120:8137  mload(returndata) */\n      mload\n        /* \"@openzeppelin/contracts-upgradeable/utils/AddressUpgradeable.sol\":8182:8197  returndata_size */\n      dup1\n        /* \"@openzeppelin/contracts-upgradeable/utils/AddressUpgradeable.sol\":8169:8179  returndata */\n      dup4\n        /* \"@openzeppelin/contracts-upgradeable/utils/AddressUpgradeable.sol\":8165:8167  32 */\n      0x20\n        /* \"@openzeppelin/contracts-upgradeable/utils/AddressUpgradeable.sol\":8161:8180  add(32, returndata) */\n      add\n        /* \"@openzeppelin/contracts-upgradeable/utils/AddressUpgradeable.sol\":8154:8198  revert(add(32, returndata), returndata_size) */\n      revert\n        /* \"@openzeppelin/contracts-upgradeable/utils/AddressUpgradeable.sol\":7894:8273  if (returndata.length > 0) {... */\n    tag_517:\n        /* \"@openzeppelin/contracts-upgradeable/utils/AddressUpgradeable.sol\":8249:8261  errorMessage */\n      dup1\n        /* \"@openzeppelin/contracts-upgradeable/utils/AddressUpgradeable.sol\":8242:8262  revert(errorMessage) */\n      mload(0x40)\n      0x08c379a000000000000000000000000000000000000000000000000000000000\n      dup2\n      mstore\n      0x04\n      add\n      tag_519\n      swap2\n      swap1\n      tag_520\n      jump\t// in\n    tag_519:\n      mload(0x40)\n      dup1\n      swap2\n      sub\n      swap1\n      revert\n    tag_251:\n      mload(0x40)\n      dup1\n      0x60\n      add\n      0x40\n      mstore\n      dup1\n      0x00\n      dup2\n      mstore\n      0x20\n      add\n      0x00\n      dup2\n      mstore\n      0x20\n      add\n      0x60\n      dup2\n      mstore\n      pop\n      swap1\n      jump\t// out\n    tag_326:\n      mload(0x40)\n      dup1\n      0x80\n      add\n      0x40\n      mstore\n      dup1\n      0x00\n      dup2\n      mstore\n      0x20\n      add\n      0x00\n      dup2\n      mstore\n      0x20\n      add\n      0x00\n      dup2\n      mstore\n      0x20\n      add\n      0x00\n      dup2\n      mstore\n      pop\n      swap1\n      jump\t// out\n    tag_372:\n      dup3\n      dup1\n      sload\n      tag_521\n      swap1\n      tag_230\n      jump\t// in\n    tag_521:\n      swap1\n      0x00\n      mstore\n      keccak256(0x00, 0x20)\n      swap1\n      0x1f\n      add\n      0x20\n      swap1\n      div\n      dup2\n      add\n      swap3\n      dup3\n      tag_523\n      jumpi\n      0x00\n      dup6\n      sstore\n      jump(tag_522)\n    tag_523:\n      dup3\n      0x1f\n      lt\n      tag_524\n      jumpi\n      dup1\n      mload\n      not(0xff)\n      and\n      dup4\n      dup1\n      add\n      or\n      dup6\n      sstore\n      jump(tag_522)\n    tag_524:\n      dup3\n      dup1\n      add\n      0x01\n      add\n      dup6\n      sstore\n      dup3\n      iszero\n      tag_522\n      jumpi\n      swap2\n      dup3\n      add\n    tag_525:\n      dup3\n      dup2\n      gt\n      iszero\n      tag_526\n      jumpi\n      dup3\n      mload\n      dup3\n      sstore\n      swap2\n      0x20\n      add\n      swap2\n      swap1\n      0x01\n      add\n      swap1\n      jump(tag_525)\n    tag_526:\n    tag_522:\n      pop\n      swap1\n      pop\n      tag_527\n      swap2\n      swap1\n      tag_528\n      jump\t// in\n    tag_527:\n      pop\n      swap1\n      jump\t// out\n    tag_528:\n    tag_529:\n      dup1\n      dup3\n      gt\n      iszero\n      tag_530\n      jumpi\n      0x00\n      dup2\n      0x00\n      swap1\n      sstore\n      pop\n      0x01\n      add\n      jump(tag_529)\n    tag_530:\n      pop\n      swap1\n      jump\t// out\n        /* \"#utility.yul\":7:417   */\n    tag_532:\n        /* \"#utility.yul\":84:89   */\n      0x00\n        /* \"#utility.yul\":109:174   */\n      tag_534\n        /* \"#utility.yul\":125:173   */\n      tag_535\n        /* \"#utility.yul\":166:172   */\n      dup5\n        /* \"#utility.yul\":125:173   */\n      tag_536\n      jump\t// in\n    tag_535:\n        /* \"#utility.yul\":109:174   */\n      tag_537\n      jump\t// in\n    tag_534:\n        /* \"#utility.yul\":100:174   */\n      swap1\n      pop\n        /* \"#utility.yul\":197:203   */\n      dup3\n        /* \"#utility.yul\":190:195   */\n      dup2\n        /* \"#utility.yul\":183:204   */\n      mstore\n        /* \"#utility.yul\":235:239   */\n      0x20\n        /* \"#utility.yul\":228:233   */\n      dup2\n        /* \"#utility.yul\":224:240   */\n      add\n        /* \"#utility.yul\":273:276   */\n      dup5\n        /* \"#utility.yul\":264:270   */\n      dup5\n        /* \"#utility.yul\":259:262   */\n      dup5\n        /* \"#utility.yul\":255:271   */\n      add\n        /* \"#utility.yul\":252:277   */\n      gt\n        /* \"#utility.yul\":249:361   */\n      iszero\n      tag_538\n      jumpi\n        /* \"#utility.yul\":280:359   */\n      tag_539\n      tag_540\n      jump\t// in\n    tag_539:\n        /* \"#utility.yul\":249:361   */\n    tag_538:\n        /* \"#utility.yul\":370:411   */\n      tag_541\n        /* \"#utility.yul\":404:410   */\n      dup5\n        /* \"#utility.yul\":399:402   */\n      dup3\n        /* \"#utility.yul\":394:397   */\n      dup6\n        /* \"#utility.yul\":370:411   */\n      tag_542\n      jump\t// in\n    tag_541:\n        /* \"#utility.yul\":90:417   */\n      pop\n        /* \"#utility.yul\":7:417   */\n      swap4\n      swap3\n      pop\n      pop\n      pop\n      jump\t// out\n        /* \"#utility.yul\":423:562   */\n    tag_543:\n        /* \"#utility.yul\":469:474   */\n      0x00\n        /* \"#utility.yul\":507:513   */\n      dup2\n        /* \"#utility.yul\":494:514   */\n      calldataload\n        /* \"#utility.yul\":485:514   */\n      swap1\n      pop\n        /* \"#utility.yul\":523:556   */\n      tag_545\n        /* \"#utility.yul\":550:555   */\n      dup2\n        /* \"#utility.yul\":523:556   */\n      tag_546\n      jump\t// in\n    tag_545:\n        /* \"#utility.yul\":423:562   */\n      swap3\n      swap2\n      pop\n      pop\n      jump\t// out\n        /* \"#utility.yul\":568:705   */\n    tag_547:\n        /* \"#utility.yul\":622:627   */\n      0x00\n        /* \"#utility.yul\":653:659   */\n      dup2\n        /* \"#utility.yul\":647:660   */\n      mload\n        /* \"#utility.yul\":638:660   */\n      swap1\n      pop\n        /* \"#utility.yul\":669:699   */\n      tag_549\n        /* \"#utility.yul\":693:698   */\n      dup2\n        /* \"#utility.yul\":669:699   */\n      tag_550\n      jump\t// in\n    tag_549:\n        /* \"#utility.yul\":568:705   */\n      swap3\n      swap2\n      pop\n      pop\n      jump\t// out\n        /* \"#utility.yul\":711:854   */\n    tag_551:\n        /* \"#utility.yul\":768:773   */\n      0x00\n        /* \"#utility.yul\":799:805   */\n      dup2\n        /* \"#utility.yul\":793:806   */\n      mload\n        /* \"#utility.yul\":784:806   */\n      swap1\n      pop\n        /* \"#utility.yul\":815:848   */\n      tag_553\n        /* \"#utility.yul\":842:847   */\n      dup2\n        /* \"#utility.yul\":815:848   */\n      tag_554\n      jump\t// in\n    tag_553:\n        /* \"#utility.yul\":711:854   */\n      swap3\n      swap2\n      pop\n      pop\n      jump\t// out\n        /* \"#utility.yul\":873:1211   */\n    tag_555:\n        /* \"#utility.yul\":928:933   */\n      0x00\n        /* \"#utility.yul\":977:980   */\n      dup3\n        /* \"#utility.yul\":970:974   */\n      0x1f\n        /* \"#utility.yul\":962:968   */\n      dup4\n        /* \"#utility.yul\":958:975   */\n      add\n        /* \"#utility.yul\":954:981   */\n      slt\n        /* \"#utility.yul\":944:1066   */\n      tag_557\n      jumpi\n        /* \"#utility.yul\":985:1064   */\n      tag_558\n      tag_559\n      jump\t// in\n    tag_558:\n        /* \"#utility.yul\":944:1066   */\n    tag_557:\n        /* \"#utility.yul\":1102:1108   */\n      dup2\n        /* \"#utility.yul\":1089:1109   */\n      calldataload\n        /* \"#utility.yul\":1127:1205   */\n      tag_560\n        /* \"#utility.yul\":1201:1204   */\n      dup5\n        /* \"#utility.yul\":1193:1199   */\n      dup3\n        /* \"#utility.yul\":1186:1190   */\n      0x20\n        /* \"#utility.yul\":1178:1184   */\n      dup7\n        /* \"#utility.yul\":1174:1191   */\n      add\n        /* \"#utility.yul\":1127:1205   */\n      tag_532\n      jump\t// in\n    tag_560:\n        /* \"#utility.yul\":1118:1205   */\n      swap2\n      pop\n        /* \"#utility.yul\":934:1211   */\n      pop\n        /* \"#utility.yul\":873:1211   */\n      swap3\n      swap2\n      pop\n      pop\n      jump\t// out\n        /* \"#utility.yul\":1217:1356   */\n    tag_561:\n        /* \"#utility.yul\":1263:1268   */\n      0x00\n        /* \"#utility.yul\":1301:1307   */\n      dup2\n        /* \"#utility.yul\":1288:1308   */\n      calldataload\n        /* \"#utility.yul\":1279:1308   */\n      swap1\n      pop\n        /* \"#utility.yul\":1317:1350   */\n      tag_563\n        /* \"#utility.yul\":1344:1349   */\n      dup2\n        /* \"#utility.yul\":1317:1350   */\n      tag_564\n      jump\t// in\n    tag_563:\n        /* \"#utility.yul\":1217:1356   */\n      swap3\n      swap2\n      pop\n      pop\n      jump\t// out\n        /* \"#utility.yul\":1362:1505   */\n    tag_565:\n        /* \"#utility.yul\":1419:1424   */\n      0x00\n        /* \"#utility.yul\":1450:1456   */\n      dup2\n        /* \"#utility.yul\":1444:1457   */\n      mload\n        /* \"#utility.yul\":1435:1457   */\n      swap1\n      pop\n        /* \"#utility.yul\":1466:1499   */\n      tag_567\n        /* \"#utility.yul\":1493:1498   */\n      dup2\n        /* \"#utility.yul\":1466:1499   */\n      tag_564\n      jump\t// in\n    tag_567:\n        /* \"#utility.yul\":1362:1505   */\n      swap3\n      swap2\n      pop\n      pop\n      jump\t// out\n        /* \"#utility.yul\":1511:1840   */\n    tag_58:\n        /* \"#utility.yul\":1570:1576   */\n      0x00\n        /* \"#utility.yul\":1619:1621   */\n      0x20\n        /* \"#utility.yul\":1607:1616   */\n      dup3\n        /* \"#utility.yul\":1598:1605   */\n      dup5\n        /* \"#utility.yul\":1594:1617   */\n      sub\n        /* \"#utility.yul\":1590:1622   */\n      slt\n        /* \"#utility.yul\":1587:1706   */\n      iszero\n      tag_569\n      jumpi\n        /* \"#utility.yul\":1625:1704   */\n      tag_570\n      tag_571\n      jump\t// in\n    tag_570:\n        /* \"#utility.yul\":1587:1706   */\n    tag_569:\n        /* \"#utility.yul\":1745:1746   */\n      0x00\n        /* \"#utility.yul\":1770:1823   */\n      tag_572\n        /* \"#utility.yul\":1815:1822   */\n      dup5\n        /* \"#utility.yul\":1806:1812   */\n      dup3\n        /* \"#utility.yul\":1795:1804   */\n      dup6\n        /* \"#utility.yul\":1791:1813   */\n      add\n        /* \"#utility.yul\":1770:1823   */\n      tag_543\n      jump\t// in\n    tag_572:\n        /* \"#utility.yul\":1760:1823   */\n      swap2\n      pop\n        /* \"#utility.yul\":1716:1833   */\n      pop\n        /* \"#utility.yul\":1511:1840   */\n      swap3\n      swap2\n      pop\n      pop\n      jump\t// out\n        /* \"#utility.yul\":1846:2320   */\n    tag_130:\n        /* \"#utility.yul\":1914:1920   */\n      0x00\n        /* \"#utility.yul\":1922:1928   */\n      dup1\n        /* \"#utility.yul\":1971:1973   */\n      0x40\n        /* \"#utility.yul\":1959:1968   */\n      dup4\n        /* \"#utility.yul\":1950:1957   */\n      dup6\n        /* \"#utility.yul\":1946:1969   */\n      sub\n        /* \"#utility.yul\":1942:1974   */\n      slt\n        /* \"#utility.yul\":1939:2058   */\n      iszero\n      tag_574\n      jumpi\n        /* \"#utility.yul\":1977:2056   */\n      tag_575\n      tag_571\n      jump\t// in\n    tag_575:\n        /* \"#utility.yul\":1939:2058   */\n    tag_574:\n        /* \"#utility.yul\":2097:2098   */\n      0x00\n        /* \"#utility.yul\":2122:2175   */\n      tag_576\n        /* \"#utility.yul\":2167:2174   */\n      dup6\n        /* \"#utility.yul\":2158:2164   */\n      dup3\n        /* \"#utility.yul\":2147:2156   */\n      dup7\n        /* \"#utility.yul\":2143:2165   */\n      add\n        /* \"#utility.yul\":2122:2175   */\n      tag_543\n      jump\t// in\n    tag_576:\n        /* \"#utility.yul\":2112:2175   */\n      swap3\n      pop\n        /* \"#utility.yul\":2068:2185   */\n      pop\n        /* \"#utility.yul\":2224:2226   */\n      0x20\n        /* \"#utility.yul\":2250:2303   */\n      tag_577\n        /* \"#utility.yul\":2295:2302   */\n      dup6\n        /* \"#utility.yul\":2286:2292   */\n      dup3\n        /* \"#utility.yul\":2275:2284   */\n      dup7\n        /* \"#utility.yul\":2271:2293   */\n      add\n        /* \"#utility.yul\":2250:2303   */\n      tag_543\n      jump\t// in\n    tag_577:\n        /* \"#utility.yul\":2240:2303   */\n      swap2\n      pop\n        /* \"#utility.yul\":2195:2313   */\n      pop\n        /* \"#utility.yul\":1846:2320   */\n      swap3\n      pop\n      swap3\n      swap1\n      pop\n      jump\t// out\n        /* \"#utility.yul\":2326:2978   */\n    tag_106:\n        /* \"#utility.yul\":2403:2409   */\n      0x00\n        /* \"#utility.yul\":2411:2417   */\n      dup1\n        /* \"#utility.yul\":2460:2462   */\n      0x40\n        /* \"#utility.yul\":2448:2457   */\n      dup4\n        /* \"#utility.yul\":2439:2446   */\n      dup6\n        /* \"#utility.yul\":2435:2458   */\n      sub\n        /* \"#utility.yul\":2431:2463   */\n      slt\n        /* \"#utility.yul\":2428:2547   */\n      iszero\n      tag_579\n      jumpi\n        /* \"#utility.yul\":2466:2545   */\n      tag_580\n      tag_571\n      jump\t// in\n    tag_580:\n        /* \"#utility.yul\":2428:2547   */\n    tag_579:\n        /* \"#utility.yul\":2586:2587   */\n      0x00\n        /* \"#utility.yul\":2611:2664   */\n      tag_581\n        /* \"#utility.yul\":2656:2663   */\n      dup6\n        /* \"#utility.yul\":2647:2653   */\n      dup3\n        /* \"#utility.yul\":2636:2645   */\n      dup7\n        /* \"#utility.yul\":2632:2654   */\n      add\n        /* \"#utility.yul\":2611:2664   */\n      tag_543\n      jump\t// in\n    tag_581:\n        /* \"#utility.yul\":2601:2664   */\n      swap3\n      pop\n        /* \"#utility.yul\":2557:2674   */\n      pop\n        /* \"#utility.yul\":2741:2743   */\n      0x20\n        /* \"#utility.yul\":2730:2739   */\n      dup4\n        /* \"#utility.yul\":2726:2744   */\n      add\n        /* \"#utility.yul\":2713:2745   */\n      calldataload\n        /* \"#utility.yul\":2772:2790   */\n      0xffffffffffffffff\n        /* \"#utility.yul\":2764:2770   */\n      dup2\n        /* \"#utility.yul\":2761:2791   */\n      gt\n        /* \"#utility.yul\":2758:2875   */\n      iszero\n      tag_582\n      jumpi\n        /* \"#utility.yul\":2794:2873   */\n      tag_583\n      tag_584\n      jump\t// in\n    tag_583:\n        /* \"#utility.yul\":2758:2875   */\n    tag_582:\n        /* \"#utility.yul\":2899:2961   */\n      tag_585\n        /* \"#utility.yul\":2953:2960   */\n      dup6\n        /* \"#utility.yul\":2944:2950   */\n      dup3\n        /* \"#utility.yul\":2933:2942   */\n      dup7\n        /* \"#utility.yul\":2929:2951   */\n      add\n        /* \"#utility.yul\":2899:2961   */\n      tag_555\n      jump\t// in\n    tag_585:\n        /* \"#utility.yul\":2889:2961   */\n      swap2\n      pop\n        /* \"#utility.yul\":2684:2971   */\n      pop\n        /* \"#utility.yul\":2326:2978   */\n      swap3\n      pop\n      swap3\n      swap1\n      pop\n      jump\t// out\n        /* \"#utility.yul\":2984:3749   */\n    tag_102:\n        /* \"#utility.yul\":3070:3076   */\n      0x00\n        /* \"#utility.yul\":3078:3084   */\n      dup1\n        /* \"#utility.yul\":3086:3092   */\n      0x00\n        /* \"#utility.yul\":3094:3100   */\n      dup1\n        /* \"#utility.yul\":3143:3146   */\n      0x80\n        /* \"#utility.yul\":3131:3140   */\n      dup6\n        /* \"#utility.yul\":3122:3129   */\n      dup8\n        /* \"#utility.yul\":3118:3141   */\n      sub\n        /* \"#utility.yul\":3114:3147   */\n      slt\n        /* \"#utility.yul\":3111:3231   */\n      iszero\n      tag_587\n      jumpi\n        /* \"#utility.yul\":3150:3229   */\n      tag_588\n      tag_571\n      jump\t// in\n    tag_588:\n        /* \"#utility.yul\":3111:3231   */\n    tag_587:\n        /* \"#utility.yul\":3270:3271   */\n      0x00\n        /* \"#utility.yul\":3295:3348   */\n      tag_589\n        /* \"#utility.yul\":3340:3347   */\n      dup8\n        /* \"#utility.yul\":3331:3337   */\n      dup3\n        /* \"#utility.yul\":3320:3329   */\n      dup9\n        /* \"#utility.yul\":3316:3338   */\n      add\n        /* \"#utility.yul\":3295:3348   */\n      tag_543\n      jump\t// in\n    tag_589:\n        /* \"#utility.yul\":3285:3348   */\n      swap5\n      pop\n        /* \"#utility.yul\":3241:3358   */\n      pop\n        /* \"#utility.yul\":3397:3399   */\n      0x20\n        /* \"#utility.yul\":3423:3476   */\n      tag_590\n        /* \"#utility.yul\":3468:3475   */\n      dup8\n        /* \"#utility.yul\":3459:3465   */\n      dup3\n        /* \"#utility.yul\":3448:3457   */\n      dup9\n        /* \"#utility.yul\":3444:3466   */\n      add\n        /* \"#utility.yul\":3423:3476   */\n      tag_561\n      jump\t// in\n    tag_590:\n        /* \"#utility.yul\":3413:3476   */\n      swap4\n      pop\n        /* \"#utility.yul\":3368:3486   */\n      pop\n        /* \"#utility.yul\":3525:3527   */\n      0x40\n        /* \"#utility.yul\":3551:3604   */\n      tag_591\n        /* \"#utility.yul\":3596:3603   */\n      dup8\n        /* \"#utility.yul\":3587:3593   */\n      dup3\n        /* \"#utility.yul\":3576:3585   */\n      dup9\n        /* \"#utility.yul\":3572:3594   */\n      add\n        /* \"#utility.yul\":3551:3604   */\n      tag_561\n      jump\t// in\n    tag_591:\n        /* \"#utility.yul\":3541:3604   */\n      swap3\n      pop\n        /* \"#utility.yul\":3496:3614   */\n      pop\n        /* \"#utility.yul\":3653:3655   */\n      0x60\n        /* \"#utility.yul\":3679:3732   */\n      tag_592\n        /* \"#utility.yul\":3724:3731   */\n      dup8\n        /* \"#utility.yul\":3715:3721   */\n      dup3\n        /* \"#utility.yul\":3704:3713   */\n      dup9\n        /* \"#utility.yul\":3700:3722   */\n      add\n        /* \"#utility.yul\":3679:3732   */\n      tag_561\n      jump\t// in\n    tag_592:\n        /* \"#utility.yul\":3669:3732   */\n      swap2\n      pop\n        /* \"#utility.yul\":3624:3742   */\n      pop\n        /* \"#utility.yul\":2984:3749   */\n      swap3\n      swap6\n      swap2\n      swap5\n      pop\n      swap3\n      pop\n      jump\t// out\n        /* \"#utility.yul\":3755:4100   */\n    tag_346:\n        /* \"#utility.yul\":3822:3828   */\n      0x00\n        /* \"#utility.yul\":3871:3873   */\n      0x20\n        /* \"#utility.yul\":3859:3868   */\n      dup3\n        /* \"#utility.yul\":3850:3857   */\n      dup5\n        /* \"#utility.yul\":3846:3869   */\n      sub\n        /* \"#utility.yul\":3842:3874   */\n      slt\n        /* \"#utility.yul\":3839:3958   */\n      iszero\n      tag_594\n      jumpi\n        /* \"#utility.yul\":3877:3956   */\n      tag_595\n      tag_571\n      jump\t// in\n    tag_595:\n        /* \"#utility.yul\":3839:3958   */\n    tag_594:\n        /* \"#utility.yul\":3997:3998   */\n      0x00\n        /* \"#utility.yul\":4022:4083   */\n      tag_596\n        /* \"#utility.yul\":4075:4082   */\n      dup5\n        /* \"#utility.yul\":4066:4072   */\n      dup3\n        /* \"#utility.yul\":4055:4064   */\n      dup6\n        /* \"#utility.yul\":4051:4073   */\n      add\n        /* \"#utility.yul\":4022:4083   */\n      tag_547\n      jump\t// in\n    tag_596:\n        /* \"#utility.yul\":4012:4083   */\n      swap2\n      pop\n        /* \"#utility.yul\":3968:4093   */\n      pop\n        /* \"#utility.yul\":3755:4100   */\n      swap3\n      swap2\n      pop\n      pop\n      jump\t// out\n        /* \"#utility.yul\":4106:4457   */\n    tag_439:\n        /* \"#utility.yul\":4176:4182   */\n      0x00\n        /* \"#utility.yul\":4225:4227   */\n      0x20\n        /* \"#utility.yul\":4213:4222   */\n      dup3\n        /* \"#utility.yul\":4204:4211   */\n      dup5\n        /* \"#utility.yul\":4200:4223   */\n      sub\n        /* \"#utility.yul\":4196:4228   */\n      slt\n        /* \"#utility.yul\":4193:4312   */\n      iszero\n      tag_598\n      jumpi\n        /* \"#utility.yul\":4231:4310   */\n      tag_599\n      tag_571\n      jump\t// in\n    tag_599:\n        /* \"#utility.yul\":4193:4312   */\n    tag_598:\n        /* \"#utility.yul\":4351:4352   */\n      0x00\n        /* \"#utility.yul\":4376:4440   */\n      tag_600\n        /* \"#utility.yul\":4432:4439   */\n      dup5\n        /* \"#utility.yul\":4423:4429   */\n      dup3\n        /* \"#utility.yul\":4412:4421   */\n      dup6\n        /* \"#utility.yul\":4408:4430   */\n      add\n        /* \"#utility.yul\":4376:4440   */\n      tag_551\n      jump\t// in\n    tag_600:\n        /* \"#utility.yul\":4366:4440   */\n      swap2\n      pop\n        /* \"#utility.yul\":4322:4450   */\n      pop\n        /* \"#utility.yul\":4106:4457   */\n      swap3\n      swap2\n      pop\n      pop\n      jump\t// out\n        /* \"#utility.yul\":4463:4792   */\n    tag_84:\n        /* \"#utility.yul\":4522:4528   */\n      0x00\n        /* \"#utility.yul\":4571:4573   */\n      0x20\n        /* \"#utility.yul\":4559:4568   */\n      dup3\n        /* \"#utility.yul\":4550:4557   */\n      dup5\n        /* \"#utility.yul\":4546:4569   */\n      sub\n        /* \"#utility.yul\":4542:4574   */\n      slt\n        /* \"#utility.yul\":4539:4658   */\n      iszero\n      tag_602\n      jumpi\n        /* \"#utility.yul\":4577:4656   */\n      tag_603\n      tag_571\n      jump\t// in\n    tag_603:\n        /* \"#utility.yul\":4539:4658   */\n    tag_602:\n        /* \"#utility.yul\":4697:4698   */\n      0x00\n        /* \"#utility.yul\":4722:4775   */\n      tag_604\n        /* \"#utility.yul\":4767:4774   */\n      dup5\n        /* \"#utility.yul\":4758:4764   */\n      dup3\n        /* \"#utility.yul\":4747:4756   */\n      dup6\n        /* \"#utility.yul\":4743:4765   */\n      add\n        /* \"#utility.yul\":4722:4775   */\n      tag_561\n      jump\t// in\n    tag_604:\n        /* \"#utility.yul\":4712:4775   */\n      swap2\n      pop\n        /* \"#utility.yul\":4668:4785   */\n      pop\n        /* \"#utility.yul\":4463:4792   */\n      swap3\n      swap2\n      pop\n      pop\n      jump\t// out\n        /* \"#utility.yul\":4798:5149   */\n    tag_291:\n        /* \"#utility.yul\":4868:4874   */\n      0x00\n        /* \"#utility.yul\":4917:4919   */\n      0x20\n        /* \"#utility.yul\":4905:4914   */\n      dup3\n        /* \"#utility.yul\":4896:4903   */\n      dup5\n        /* \"#utility.yul\":4892:4915   */\n      sub\n        /* \"#utility.yul\":4888:4920   */\n      slt\n        /* \"#utility.yul\":4885:5004   */\n      iszero\n      tag_606\n      jumpi\n        /* \"#utility.yul\":4923:5002   */\n      tag_607\n      tag_571\n      jump\t// in\n    tag_607:\n        /* \"#utility.yul\":4885:5004   */\n    tag_606:\n        /* \"#utility.yul\":5043:5044   */\n      0x00\n        /* \"#utility.yul\":5068:5132   */\n      tag_608\n        /* \"#utility.yul\":5124:5131   */\n      dup5\n        /* \"#utility.yul\":5115:5121   */\n      dup3\n        /* \"#utility.yul\":5104:5113   */\n      dup6\n        /* \"#utility.yul\":5100:5122   */\n      add\n        /* \"#utility.yul\":5068:5132   */\n      tag_565\n      jump\t// in\n    tag_608:\n        /* \"#utility.yul\":5058:5132   */\n      swap2\n      pop\n        /* \"#utility.yul\":5014:5142   */\n      pop\n        /* \"#utility.yul\":4798:5149   */\n      swap3\n      swap2\n      pop\n      pop\n      jump\t// out\n        /* \"#utility.yul\":5155:5629   */\n    tag_152:\n        /* \"#utility.yul\":5223:5229   */\n      0x00\n        /* \"#utility.yul\":5231:5237   */\n      dup1\n        /* \"#utility.yul\":5280:5282   */\n      0x40\n        /* \"#utility.yul\":5268:5277   */\n      dup4\n        /* \"#utility.yul\":5259:5266   */\n      dup6\n        /* \"#utility.yul\":5255:5278   */\n      sub\n        /* \"#utility.yul\":5251:5283   */\n      slt\n        /* \"#utility.yul\":5248:5367   */\n      iszero\n      tag_610\n      jumpi\n        /* \"#utility.yul\":5286:5365   */\n      tag_611\n      tag_571\n      jump\t// in\n    tag_611:\n        /* \"#utility.yul\":5248:5367   */\n    tag_610:\n        /* \"#utility.yul\":5406:5407   */\n      0x00\n        /* \"#utility.yul\":5431:5484   */\n      tag_612\n        /* \"#utility.yul\":5476:5483   */\n      dup6\n        /* \"#utility.yul\":5467:5473   */\n      dup3\n        /* \"#utility.yul\":5456:5465   */\n      dup7\n        /* \"#utility.yul\":5452:5474   */\n      add\n        /* \"#utility.yul\":5431:5484   */\n      tag_561\n      jump\t// in\n    tag_612:\n        /* \"#utility.yul\":5421:5484   */\n      swap3\n      pop\n        /* \"#utility.yul\":5377:5494   */\n      pop\n        /* \"#utility.yul\":5533:5535   */\n      0x20\n        /* \"#utility.yul\":5559:5612   */\n      tag_613\n        /* \"#utility.yul\":5604:5611   */\n      dup6\n        /* \"#utility.yul\":5595:5601   */\n      dup3\n        /* \"#utility.yul\":5584:5593   */\n      dup7\n        /* \"#utility.yul\":5580:5602   */\n      add\n        /* \"#utility.yul\":5559:5612   */\n      tag_561\n      jump\t// in\n    tag_613:\n        /* \"#utility.yul\":5549:5612   */\n      swap2\n      pop\n        /* \"#utility.yul\":5504:5622   */\n      pop\n        /* \"#utility.yul\":5155:5629   */\n      swap3\n      pop\n      swap3\n      swap1\n      pop\n      jump\t// out\n        /* \"#utility.yul\":5635:6254   */\n    tag_77:\n        /* \"#utility.yul\":5712:5718   */\n      0x00\n        /* \"#utility.yul\":5720:5726   */\n      dup1\n        /* \"#utility.yul\":5728:5734   */\n      0x00\n        /* \"#utility.yul\":5777:5779   */\n      0x60\n        /* \"#utility.yul\":5765:5774   */\n      dup5\n        /* \"#utility.yul\":5756:5763   */\n      dup7\n        /* \"#utility.yul\":5752:5775   */\n      sub\n        /* \"#utility.yul\":5748:5780   */\n      slt\n        /* \"#utility.yul\":5745:5864   */\n      iszero\n      tag_615\n      jumpi\n        /* \"#utility.yul\":5783:5862   */\n      tag_616\n      tag_571\n      jump\t// in\n    tag_616:\n        /* \"#utility.yul\":5745:5864   */\n    tag_615:\n        /* \"#utility.yul\":5903:5904   */\n      0x00\n        /* \"#utility.yul\":5928:5981   */\n      tag_617\n        /* \"#utility.yul\":5973:5980   */\n      dup7\n        /* \"#utility.yul\":5964:5970   */\n      dup3\n        /* \"#utility.yul\":5953:5962   */\n      dup8\n        /* \"#utility.yul\":5949:5971   */\n      add\n        /* \"#utility.yul\":5928:5981   */\n      tag_561\n      jump\t// in\n    tag_617:\n        /* \"#utility.yul\":5918:5981   */\n      swap4\n      pop\n        /* \"#utility.yul\":5874:5991   */\n      pop\n        /* \"#utility.yul\":6030:6032   */\n      0x20\n        /* \"#utility.yul\":6056:6109   */\n      tag_618\n        /* \"#utility.yul\":6101:6108   */\n      dup7\n        /* \"#utility.yul\":6092:6098   */\n      dup3\n        /* \"#utility.yul\":6081:6090   */\n      dup8\n        /* \"#utility.yul\":6077:6099   */\n      add\n        /* \"#utility.yul\":6056:6109   */\n      tag_561\n      jump\t// in\n    tag_618:\n        /* \"#utility.yul\":6046:6109   */\n      swap3\n      pop\n        /* \"#utility.yul\":6001:6119   */\n      pop\n        /* \"#utility.yul\":6158:6160   */\n      0x40\n        /* \"#utility.yul\":6184:6237   */\n      tag_619\n        /* \"#utility.yul\":6229:6236   */\n      dup7\n        /* \"#utility.yul\":6220:6226   */\n      dup3\n        /* \"#utility.yul\":6209:6218   */\n      dup8\n        /* \"#utility.yul\":6205:6227   */\n      add\n        /* \"#utility.yul\":6184:6237   */\n      tag_543\n      jump\t// in\n    tag_619:\n        /* \"#utility.yul\":6174:6237   */\n      swap2\n      pop\n        /* \"#utility.yul\":6129:6247   */\n      pop\n        /* \"#utility.yul\":5635:6254   */\n      swap3\n      pop\n      swap3\n      pop\n      swap3\n      jump\t// out\n        /* \"#utility.yul\":6260:6524   */\n    tag_620:\n        /* \"#utility.yul\":6383:6393   */\n      0x00\n        /* \"#utility.yul\":6418:6518   */\n      tag_622\n        /* \"#utility.yul\":6514:6517   */\n      dup4\n        /* \"#utility.yul\":6506:6512   */\n      dup4\n        /* \"#utility.yul\":6418:6518   */\n      tag_623\n      jump\t// in\n    tag_622:\n        /* \"#utility.yul\":6404:6518   */\n      swap1\n      pop\n        /* \"#utility.yul\":6260:6524   */\n      swap3\n      swap2\n      pop\n      pop\n      jump\t// out\n        /* \"#utility.yul\":6530:6648   */\n    tag_624:\n        /* \"#utility.yul\":6617:6641   */\n      tag_626\n        /* \"#utility.yul\":6635:6640   */\n      dup2\n        /* \"#utility.yul\":6617:6641   */\n      tag_627\n      jump\t// in\n    tag_626:\n        /* \"#utility.yul\":6612:6615   */\n      dup3\n        /* \"#utility.yul\":6605:6642   */\n      mstore\n        /* \"#utility.yul\":6530:6648   */\n      pop\n      pop\n      jump\t// out\n        /* \"#utility.yul\":6718:7845   */\n    tag_628:\n        /* \"#utility.yul\":6891:6894   */\n      0x00\n        /* \"#utility.yul\":6920:7001   */\n      tag_630\n        /* \"#utility.yul\":6995:7000   */\n      dup3\n        /* \"#utility.yul\":6920:7001   */\n      tag_631\n      jump\t// in\n    tag_630:\n        /* \"#utility.yul\":7017:7130   */\n      tag_632\n        /* \"#utility.yul\":7123:7129   */\n      dup2\n        /* \"#utility.yul\":7118:7121   */\n      dup6\n        /* \"#utility.yul\":7017:7130   */\n      tag_633\n      jump\t// in\n    tag_632:\n        /* \"#utility.yul\":7010:7130   */\n      swap4\n      pop\n        /* \"#utility.yul\":7156:7159   */\n      dup4\n        /* \"#utility.yul\":7201:7205   */\n      0x20\n        /* \"#utility.yul\":7193:7199   */\n      dup3\n        /* \"#utility.yul\":7189:7206   */\n      mul\n        /* \"#utility.yul\":7184:7187   */\n      dup6\n        /* \"#utility.yul\":7180:7207   */\n      add\n        /* \"#utility.yul\":7231:7314   */\n      tag_634\n        /* \"#utility.yul\":7308:7313   */\n      dup6\n        /* \"#utility.yul\":7231:7314   */\n      tag_635\n      jump\t// in\n    tag_634:\n        /* \"#utility.yul\":7337:7344   */\n      dup1\n        /* \"#utility.yul\":7368:7369   */\n      0x00\n        /* \"#utility.yul\":7353:7800   */\n    tag_636:\n        /* \"#utility.yul\":7378:7384   */\n      dup6\n        /* \"#utility.yul\":7375:7376   */\n      dup2\n        /* \"#utility.yul\":7372:7385   */\n      lt\n        /* \"#utility.yul\":7353:7800   */\n      iszero\n      tag_638\n      jumpi\n        /* \"#utility.yul\":7449:7458   */\n      dup5\n        /* \"#utility.yul\":7443:7447   */\n      dup5\n        /* \"#utility.yul\":7439:7459   */\n      sub\n        /* \"#utility.yul\":7434:7437   */\n      dup10\n        /* \"#utility.yul\":7427:7460   */\n      mstore\n        /* \"#utility.yul\":7500:7506   */\n      dup2\n        /* \"#utility.yul\":7494:7507   */\n      mload\n        /* \"#utility.yul\":7528:7646   */\n      tag_639\n        /* \"#utility.yul\":7641:7645   */\n      dup6\n        /* \"#utility.yul\":7626:7639   */\n      dup3\n        /* \"#utility.yul\":7528:7646   */\n      tag_620\n      jump\t// in\n    tag_639:\n        /* \"#utility.yul\":7520:7646   */\n      swap5\n      pop\n        /* \"#utility.yul\":7669:7756   */\n      tag_640\n        /* \"#utility.yul\":7749:7755   */\n      dup4\n        /* \"#utility.yul\":7669:7756   */\n      tag_641\n      jump\t// in\n    tag_640:\n        /* \"#utility.yul\":7659:7756   */\n      swap3\n      pop\n        /* \"#utility.yul\":7785:7789   */\n      0x20\n        /* \"#utility.yul\":7780:7783   */\n      dup11\n        /* \"#utility.yul\":7776:7790   */\n      add\n        /* \"#utility.yul\":7769:7790   */\n      swap10\n      pop\n        /* \"#utility.yul\":7413:7800   */\n      pop\n        /* \"#utility.yul\":7400:7401   */\n      0x01\n        /* \"#utility.yul\":7397:7398   */\n      dup2\n        /* \"#utility.yul\":7393:7402   */\n      add\n        /* \"#utility.yul\":7388:7402   */\n      swap1\n      pop\n        /* \"#utility.yul\":7353:7800   */\n      jump(tag_636)\n    tag_638:\n        /* \"#utility.yul\":7357:7371   */\n      pop\n        /* \"#utility.yul\":7816:7820   */\n      dup3\n        /* \"#utility.yul\":7809:7820   */\n      swap8\n      pop\n        /* \"#utility.yul\":7836:7839   */\n      dup8\n        /* \"#utility.yul\":7829:7839   */\n      swap6\n      pop\n        /* \"#utility.yul\":6896:7845   */\n      pop\n      pop\n      pop\n      pop\n      pop\n        /* \"#utility.yul\":6718:7845   */\n      swap3\n      swap2\n      pop\n      pop\n      jump\t// out\n        /* \"#utility.yul\":7851:7960   */\n    tag_642:\n        /* \"#utility.yul\":7932:7953   */\n      tag_644\n        /* \"#utility.yul\":7947:7952   */\n      dup2\n        /* \"#utility.yul\":7932:7953   */\n      tag_645\n      jump\t// in\n    tag_644:\n        /* \"#utility.yul\":7927:7930   */\n      dup3\n        /* \"#utility.yul\":7920:7954   */\n      mstore\n        /* \"#utility.yul\":7851:7960   */\n      pop\n      pop\n      jump\t// out\n        /* \"#utility.yul\":7966:8084   */\n    tag_646:\n        /* \"#utility.yul\":8053:8077   */\n      tag_648\n        /* \"#utility.yul\":8071:8076   */\n      dup2\n        /* \"#utility.yul\":8053:8077   */\n      tag_649\n      jump\t// in\n    tag_648:\n        /* \"#utility.yul\":8048:8051   */\n      dup3\n        /* \"#utility.yul\":8041:8078   */\n      mstore\n        /* \"#utility.yul\":7966:8084   */\n      pop\n      pop\n      jump\t// out\n        /* \"#utility.yul\":8090:8463   */\n    tag_650:\n        /* \"#utility.yul\":8194:8197   */\n      0x00\n        /* \"#utility.yul\":8222:8260   */\n      tag_652\n        /* \"#utility.yul\":8254:8259   */\n      dup3\n        /* \"#utility.yul\":8222:8260   */\n      tag_653\n      jump\t// in\n    tag_652:\n        /* \"#utility.yul\":8276:8364   */\n      tag_654\n        /* \"#utility.yul\":8357:8363   */\n      dup2\n        /* \"#utility.yul\":8352:8355   */\n      dup6\n        /* \"#utility.yul\":8276:8364   */\n      tag_655\n      jump\t// in\n    tag_654:\n        /* \"#utility.yul\":8269:8364   */\n      swap4\n      pop\n        /* \"#utility.yul\":8373:8425   */\n      tag_656\n        /* \"#utility.yul\":8418:8424   */\n      dup2\n        /* \"#utility.yul\":8413:8416   */\n      dup6\n        /* \"#utility.yul\":8406:8410   */\n      0x20\n        /* \"#utility.yul\":8399:8404   */\n      dup7\n        /* \"#utility.yul\":8395:8411   */\n      add\n        /* \"#utility.yul\":8373:8425   */\n      tag_657\n      jump\t// in\n    tag_656:\n        /* \"#utility.yul\":8450:8456   */\n      dup1\n        /* \"#utility.yul\":8445:8448   */\n      dup5\n        /* \"#utility.yul\":8441:8457   */\n      add\n        /* \"#utility.yul\":8434:8457   */\n      swap2\n      pop\n        /* \"#utility.yul\":8198:8463   */\n      pop\n        /* \"#utility.yul\":8090:8463   */\n      swap3\n      swap2\n      pop\n      pop\n      jump\t// out\n        /* \"#utility.yul\":8469:8612   */\n    tag_658:\n        /* \"#utility.yul\":8562:8605   */\n      tag_660\n        /* \"#utility.yul\":8599:8604   */\n      dup2\n        /* \"#utility.yul\":8562:8605   */\n      tag_661\n      jump\t// in\n    tag_660:\n        /* \"#utility.yul\":8557:8560   */\n      dup3\n        /* \"#utility.yul\":8550:8606   */\n      mstore\n        /* \"#utility.yul\":8469:8612   */\n      pop\n      pop\n      jump\t// out\n        /* \"#utility.yul\":8618:8962   */\n    tag_662:\n        /* \"#utility.yul\":8696:8699   */\n      0x00\n        /* \"#utility.yul\":8724:8763   */\n      tag_664\n        /* \"#utility.yul\":8757:8762   */\n      dup3\n        /* \"#utility.yul\":8724:8763   */\n      tag_665\n      jump\t// in\n    tag_664:\n        /* \"#utility.yul\":8779:8840   */\n      tag_666\n        /* \"#utility.yul\":8833:8839   */\n      dup2\n        /* \"#utility.yul\":8828:8831   */\n      dup6\n        /* \"#utility.yul\":8779:8840   */\n      tag_667\n      jump\t// in\n    tag_666:\n        /* \"#utility.yul\":8772:8840   */\n      swap4\n      pop\n        /* \"#utility.yul\":8849:8901   */\n      tag_668\n        /* \"#utility.yul\":8894:8900   */\n      dup2\n        /* \"#utility.yul\":8889:8892   */\n      dup6\n        /* \"#utility.yul\":8882:8886   */\n      0x20\n        /* \"#utility.yul\":8875:8880   */\n      dup7\n        /* \"#utility.yul\":8871:8887   */\n      add\n        /* \"#utility.yul\":8849:8901   */\n      tag_657\n      jump\t// in\n    tag_668:\n        /* \"#utility.yul\":8926:8955   */\n      tag_669\n        /* \"#utility.yul\":8948:8954   */\n      dup2\n        /* \"#utility.yul\":8926:8955   */\n      tag_670\n      jump\t// in\n    tag_669:\n        /* \"#utility.yul\":8921:8924   */\n      dup5\n        /* \"#utility.yul\":8917:8956   */\n      add\n        /* \"#utility.yul\":8910:8956   */\n      swap2\n      pop\n        /* \"#utility.yul\":8700:8962   */\n      pop\n        /* \"#utility.yul\":8618:8962   */\n      swap3\n      swap2\n      pop\n      pop\n      jump\t// out\n        /* \"#utility.yul\":8968:9332   */\n    tag_671:\n        /* \"#utility.yul\":9056:9059   */\n      0x00\n        /* \"#utility.yul\":9084:9123   */\n      tag_673\n        /* \"#utility.yul\":9117:9122   */\n      dup3\n        /* \"#utility.yul\":9084:9123   */\n      tag_665\n      jump\t// in\n    tag_673:\n        /* \"#utility.yul\":9139:9210   */\n      tag_674\n        /* \"#utility.yul\":9203:9209   */\n      dup2\n        /* \"#utility.yul\":9198:9201   */\n      dup6\n        /* \"#utility.yul\":9139:9210   */\n      tag_675\n      jump\t// in\n    tag_674:\n        /* \"#utility.yul\":9132:9210   */\n      swap4\n      pop\n        /* \"#utility.yul\":9219:9271   */\n      tag_676\n        /* \"#utility.yul\":9264:9270   */\n      dup2\n        /* \"#utility.yul\":9259:9262   */\n      dup6\n        /* \"#utility.yul\":9252:9256   */\n      0x20\n        /* \"#utility.yul\":9245:9250   */\n      dup7\n        /* \"#utility.yul\":9241:9257   */\n      add\n        /* \"#utility.yul\":9219:9271   */\n      tag_657\n      jump\t// in\n    tag_676:\n        /* \"#utility.yul\":9296:9325   */\n      tag_677\n        /* \"#utility.yul\":9318:9324   */\n      dup2\n        /* \"#utility.yul\":9296:9325   */\n      tag_670\n      jump\t// in\n    tag_677:\n        /* \"#utility.yul\":9291:9294   */\n      dup5\n        /* \"#utility.yul\":9287:9326   */\n      add\n        /* \"#utility.yul\":9280:9326   */\n      swap2\n      pop\n        /* \"#utility.yul\":9060:9332   */\n      pop\n        /* \"#utility.yul\":8968:9332   */\n      swap3\n      swap2\n      pop\n      pop\n      jump\t// out\n        /* \"#utility.yul\":9338:9704   */\n    tag_678:\n        /* \"#utility.yul\":9480:9483   */\n      0x00\n        /* \"#utility.yul\":9501:9568   */\n      tag_680\n        /* \"#utility.yul\":9565:9567   */\n      0x0d\n        /* \"#utility.yul\":9560:9563   */\n      dup4\n        /* \"#utility.yul\":9501:9568   */\n      tag_675\n      jump\t// in\n    tag_680:\n        /* \"#utility.yul\":9494:9568   */\n      swap2\n      pop\n        /* \"#utility.yul\":9577:9670   */\n      tag_681\n        /* \"#utility.yul\":9666:9669   */\n      dup3\n        /* \"#utility.yul\":9577:9670   */\n      tag_682\n      jump\t// in\n    tag_681:\n        /* \"#utility.yul\":9695:9697   */\n      0x20\n        /* \"#utility.yul\":9690:9693   */\n      dup3\n        /* \"#utility.yul\":9686:9698   */\n      add\n        /* \"#utility.yul\":9679:9698   */\n      swap1\n      pop\n        /* \"#utility.yul\":9338:9704   */\n      swap2\n      swap1\n      pop\n      jump\t// out\n        /* \"#utility.yul\":9710:10076   */\n    tag_683:\n        /* \"#utility.yul\":9852:9855   */\n      0x00\n        /* \"#utility.yul\":9873:9940   */\n      tag_685\n        /* \"#utility.yul\":9937:9939   */\n      0x26\n        /* \"#utility.yul\":9932:9935   */\n      dup4\n        /* \"#utility.yul\":9873:9940   */\n      tag_675\n      jump\t// in\n    tag_685:\n        /* \"#utility.yul\":9866:9940   */\n      swap2\n      pop\n        /* \"#utility.yul\":9949:10042   */\n      tag_686\n        /* \"#utility.yul\":10038:10041   */\n      dup3\n        /* \"#utility.yul\":9949:10042   */\n      tag_687\n      jump\t// in\n    tag_686:\n        /* \"#utility.yul\":10067:10069   */\n      0x40\n        /* \"#utility.yul\":10062:10065   */\n      dup3\n        /* \"#utility.yul\":10058:10070   */\n      add\n        /* \"#utility.yul\":10051:10070   */\n      swap1\n      pop\n        /* \"#utility.yul\":9710:10076   */\n      swap2\n      swap1\n      pop\n      jump\t// out\n        /* \"#utility.yul\":10082:10448   */\n    tag_688:\n        /* \"#utility.yul\":10224:10227   */\n      0x00\n        /* \"#utility.yul\":10245:10312   */\n      tag_690\n        /* \"#utility.yul\":10309:10311   */\n      0x0c\n        /* \"#utility.yul\":10304:10307   */\n      dup4\n        /* \"#utility.yul\":10245:10312   */\n      tag_675\n      jump\t// in\n    tag_690:\n        /* \"#utility.yul\":10238:10312   */\n      swap2\n      pop\n        /* \"#utility.yul\":10321:10414   */\n      tag_691\n        /* \"#utility.yul\":10410:10413   */\n      dup3\n        /* \"#utility.yul\":10321:10414   */\n      tag_692\n      jump\t// in\n    tag_691:\n        /* \"#utility.yul\":10439:10441   */\n      0x20\n        /* \"#utility.yul\":10434:10437   */\n      dup3\n        /* \"#utility.yul\":10430:10442   */\n      add\n        /* \"#utility.yul\":10423:10442   */\n      swap1\n      pop\n        /* \"#utility.yul\":10082:10448   */\n      swap2\n      swap1\n      pop\n      jump\t// out\n        /* \"#utility.yul\":10454:10820   */\n    tag_693:\n        /* \"#utility.yul\":10596:10599   */\n      0x00\n        /* \"#utility.yul\":10617:10684   */\n      tag_695\n        /* \"#utility.yul\":10681:10683   */\n      0x2c\n        /* \"#utility.yul\":10676:10679   */\n      dup4\n        /* \"#utility.yul\":10617:10684   */\n      tag_675\n      jump\t// in\n    tag_695:\n        /* \"#utility.yul\":10610:10684   */\n      swap2\n      pop\n        /* \"#utility.yul\":10693:10786   */\n      tag_696\n        /* \"#utility.yul\":10782:10785   */\n      dup3\n        /* \"#utility.yul\":10693:10786   */\n      tag_697\n      jump\t// in\n    tag_696:\n        /* \"#utility.yul\":10811:10813   */\n      0x40\n        /* \"#utility.yul\":10806:10809   */\n      dup3\n        /* \"#utility.yul\":10802:10814   */\n      add\n        /* \"#utility.yul\":10795:10814   */\n      swap1\n      pop\n        /* \"#utility.yul\":10454:10820   */\n      swap2\n      swap1\n      pop\n      jump\t// out\n        /* \"#utility.yul\":10826:11192   */\n    tag_698:\n        /* \"#utility.yul\":10968:10971   */\n      0x00\n        /* \"#utility.yul\":10989:11056   */\n      tag_700\n        /* \"#utility.yul\":11053:11055   */\n      0x2c\n        /* \"#utility.yul\":11048:11051   */\n      dup4\n        /* \"#utility.yul\":10989:11056   */\n      tag_675\n      jump\t// in\n    tag_700:\n        /* \"#utility.yul\":10982:11056   */\n      swap2\n      pop\n        /* \"#utility.yul\":11065:11158   */\n      tag_701\n        /* \"#utility.yul\":11154:11157   */\n      dup3\n        /* \"#utility.yul\":11065:11158   */\n      tag_702\n      jump\t// in\n    tag_701:\n        /* \"#utility.yul\":11183:11185   */\n      0x40\n        /* \"#utility.yul\":11178:11181   */\n      dup3\n        /* \"#utility.yul\":11174:11186   */\n      add\n        /* \"#utility.yul\":11167:11186   */\n      swap1\n      pop\n        /* \"#utility.yul\":10826:11192   */\n      swap2\n      swap1\n      pop\n      jump\t// out\n        /* \"#utility.yul\":11198:11564   */\n    tag_703:\n        /* \"#utility.yul\":11340:11343   */\n      0x00\n        /* \"#utility.yul\":11361:11428   */\n      tag_705\n        /* \"#utility.yul\":11425:11427   */\n      0x1c\n        /* \"#utility.yul\":11420:11423   */\n      dup4\n        /* \"#utility.yul\":11361:11428   */\n      tag_675\n      jump\t// in\n    tag_705:\n        /* \"#utility.yul\":11354:11428   */\n      swap2\n      pop\n        /* \"#utility.yul\":11437:11530   */\n      tag_706\n        /* \"#utility.yul\":11526:11529   */\n      dup3\n        /* \"#utility.yul\":11437:11530   */\n      tag_707\n      jump\t// in\n    tag_706:\n        /* \"#utility.yul\":11555:11557   */\n      0x20\n        /* \"#utility.yul\":11550:11553   */\n      dup3\n        /* \"#utility.yul\":11546:11558   */\n      add\n        /* \"#utility.yul\":11539:11558   */\n      swap1\n      pop\n        /* \"#utility.yul\":11198:11564   */\n      swap2\n      swap1\n      pop\n      jump\t// out\n        /* \"#utility.yul\":11570:11936   */\n    tag_708:\n        /* \"#utility.yul\":11712:11715   */\n      0x00\n        /* \"#utility.yul\":11733:11800   */\n      tag_710\n        /* \"#utility.yul\":11797:11799   */\n      0x38\n        /* \"#utility.yul\":11792:11795   */\n      dup4\n        /* \"#utility.yul\":11733:11800   */\n      tag_675\n      jump\t// in\n    tag_710:\n        /* \"#utility.yul\":11726:11800   */\n      swap2\n      pop\n        /* \"#utility.yul\":11809:11902   */\n      tag_711\n        /* \"#utility.yul\":11898:11901   */\n      dup3\n        /* \"#utility.yul\":11809:11902   */\n      tag_712\n      jump\t// in\n    tag_711:\n        /* \"#utility.yul\":11927:11929   */\n      0x40\n        /* \"#utility.yul\":11922:11925   */\n      dup3\n        /* \"#utility.yul\":11918:11930   */\n      add\n        /* \"#utility.yul\":11911:11930   */\n      swap1\n      pop\n        /* \"#utility.yul\":11570:11936   */\n      swap2\n      swap1\n      pop\n      jump\t// out\n        /* \"#utility.yul\":11942:12308   */\n    tag_713:\n        /* \"#utility.yul\":12084:12087   */\n      0x00\n        /* \"#utility.yul\":12105:12172   */\n      tag_715\n        /* \"#utility.yul\":12169:12171   */\n      0x29\n        /* \"#utility.yul\":12164:12167   */\n      dup4\n        /* \"#utility.yul\":12105:12172   */\n      tag_675\n      jump\t// in\n    tag_715:\n        /* \"#utility.yul\":12098:12172   */\n      swap2\n      pop\n        /* \"#utility.yul\":12181:12274   */\n      tag_716\n        /* \"#utility.yul\":12270:12273   */\n      dup3\n        /* \"#utility.yul\":12181:12274   */\n      tag_717\n      jump\t// in\n    tag_716:\n        /* \"#utility.yul\":12299:12301   */\n      0x40\n        /* \"#utility.yul\":12294:12297   */\n      dup3\n        /* \"#utility.yul\":12290:12302   */\n      add\n        /* \"#utility.yul\":12283:12302   */\n      swap1\n      pop\n        /* \"#utility.yul\":11942:12308   */\n      swap2\n      swap1\n      pop\n      jump\t// out\n        /* \"#utility.yul\":12314:12680   */\n    tag_718:\n        /* \"#utility.yul\":12456:12459   */\n      0x00\n        /* \"#utility.yul\":12477:12544   */\n      tag_720\n        /* \"#utility.yul\":12541:12543   */\n      0x2e\n        /* \"#utility.yul\":12536:12539   */\n      dup4\n        /* \"#utility.yul\":12477:12544   */\n      tag_675\n      jump\t// in\n    tag_720:\n        /* \"#utility.yul\":12470:12544   */\n      swap2\n      pop\n        /* \"#utility.yul\":12553:12646   */\n      tag_721\n        /* \"#utility.yul\":12642:12645   */\n      dup3\n        /* \"#utility.yul\":12553:12646   */\n      tag_722\n      jump\t// in\n    tag_721:\n        /* \"#utility.yul\":12671:12673   */\n      0x40\n        /* \"#utility.yul\":12666:12669   */\n      dup3\n        /* \"#utility.yul\":12662:12674   */\n      add\n        /* \"#utility.yul\":12655:12674   */\n      swap1\n      pop\n        /* \"#utility.yul\":12314:12680   */\n      swap2\n      swap1\n      pop\n      jump\t// out\n        /* \"#utility.yul\":12686:13052   */\n    tag_723:\n        /* \"#utility.yul\":12828:12831   */\n      0x00\n        /* \"#utility.yul\":12849:12916   */\n      tag_725\n        /* \"#utility.yul\":12913:12915   */\n      0x2e\n        /* \"#utility.yul\":12908:12911   */\n      dup4\n        /* \"#utility.yul\":12849:12916   */\n      tag_675\n      jump\t// in\n    tag_725:\n        /* \"#utility.yul\":12842:12916   */\n      swap2\n      pop\n        /* \"#utility.yul\":12925:13018   */\n      tag_726\n        /* \"#utility.yul\":13014:13017   */\n      dup3\n        /* \"#utility.yul\":12925:13018   */\n      tag_727\n      jump\t// in\n    tag_726:\n        /* \"#utility.yul\":13043:13045   */\n      0x40\n        /* \"#utility.yul\":13038:13041   */\n      dup3\n        /* \"#utility.yul\":13034:13046   */\n      add\n        /* \"#utility.yul\":13027:13046   */\n      swap1\n      pop\n        /* \"#utility.yul\":12686:13052   */\n      swap2\n      swap1\n      pop\n      jump\t// out\n        /* \"#utility.yul\":13058:13424   */\n    tag_728:\n        /* \"#utility.yul\":13200:13203   */\n      0x00\n        /* \"#utility.yul\":13221:13288   */\n      tag_730\n        /* \"#utility.yul\":13285:13287   */\n      0x2d\n        /* \"#utility.yul\":13280:13283   */\n      dup4\n        /* \"#utility.yul\":13221:13288   */\n      tag_675\n      jump\t// in\n    tag_730:\n        /* \"#utility.yul\":13214:13288   */\n      swap2\n      pop\n        /* \"#utility.yul\":13297:13390   */\n      tag_731\n        /* \"#utility.yul\":13386:13389   */\n      dup3\n        /* \"#utility.yul\":13297:13390   */\n      tag_732\n      jump\t// in\n    tag_731:\n        /* \"#utility.yul\":13415:13417   */\n      0x40\n        /* \"#utility.yul\":13410:13413   */\n      dup3\n        /* \"#utility.yul\":13406:13418   */\n      add\n        /* \"#utility.yul\":13399:13418   */\n      swap1\n      pop\n        /* \"#utility.yul\":13058:13424   */\n      swap2\n      swap1\n      pop\n      jump\t// out\n        /* \"#utility.yul\":13430:13796   */\n    tag_733:\n        /* \"#utility.yul\":13572:13575   */\n      0x00\n        /* \"#utility.yul\":13593:13660   */\n      tag_735\n        /* \"#utility.yul\":13657:13659   */\n      0x20\n        /* \"#utility.yul\":13652:13655   */\n      dup4\n        /* \"#utility.yul\":13593:13660   */\n      tag_675\n      jump\t// in\n    tag_735:\n        /* \"#utility.yul\":13586:13660   */\n      swap2\n      pop\n        /* \"#utility.yul\":13669:13762   */\n      tag_736\n        /* \"#utility.yul\":13758:13761   */\n      dup3\n        /* \"#utility.yul\":13669:13762   */\n      tag_737\n      jump\t// in\n    tag_736:\n        /* \"#utility.yul\":13787:13789   */\n      0x20\n        /* \"#utility.yul\":13782:13785   */\n      dup3\n        /* \"#utility.yul\":13778:13790   */\n      add\n        /* \"#utility.yul\":13771:13790   */\n      swap1\n      pop\n        /* \"#utility.yul\":13430:13796   */\n      swap2\n      swap1\n      pop\n      jump\t// out\n        /* \"#utility.yul\":13802:14168   */\n    tag_738:\n        /* \"#utility.yul\":13944:13947   */\n      0x00\n        /* \"#utility.yul\":13965:14032   */\n      tag_740\n        /* \"#utility.yul\":14029:14031   */\n      0x26\n        /* \"#utility.yul\":14024:14027   */\n      dup4\n        /* \"#utility.yul\":13965:14032   */\n      tag_675\n      jump\t// in\n    tag_740:\n        /* \"#utility.yul\":13958:14032   */\n      swap2\n      pop\n        /* \"#utility.yul\":14041:14134   */\n      tag_741\n        /* \"#utility.yul\":14130:14133   */\n      dup3\n        /* \"#utility.yul\":14041:14134   */\n      tag_742\n      jump\t// in\n    tag_741:\n        /* \"#utility.yul\":14159:14161   */\n      0x40\n        /* \"#utility.yul\":14154:14157   */\n      dup3\n        /* \"#utility.yul\":14150:14162   */\n      add\n        /* \"#utility.yul\":14143:14162   */\n      swap1\n      pop\n        /* \"#utility.yul\":13802:14168   */\n      swap2\n      swap1\n      pop\n      jump\t// out\n        /* \"#utility.yul\":14174:14540   */\n    tag_743:\n        /* \"#utility.yul\":14316:14319   */\n      0x00\n        /* \"#utility.yul\":14337:14404   */\n      tag_745\n        /* \"#utility.yul\":14401:14403   */\n      0x11\n        /* \"#utility.yul\":14396:14399   */\n      dup4\n        /* \"#utility.yul\":14337:14404   */\n      tag_675\n      jump\t// in\n    tag_745:\n        /* \"#utility.yul\":14330:14404   */\n      swap2\n      pop\n        /* \"#utility.yul\":14413:14506   */\n      tag_746\n        /* \"#utility.yul\":14502:14505   */\n      dup3\n        /* \"#utility.yul\":14413:14506   */\n      tag_747\n      jump\t// in\n    tag_746:\n        /* \"#utility.yul\":14531:14533   */\n      0x20\n        /* \"#utility.yul\":14526:14529   */\n      dup3\n        /* \"#utility.yul\":14522:14534   */\n      add\n        /* \"#utility.yul\":14515:14534   */\n      swap1\n      pop\n        /* \"#utility.yul\":14174:14540   */\n      swap2\n      swap1\n      pop\n      jump\t// out\n        /* \"#utility.yul\":14546:14912   */\n    tag_748:\n        /* \"#utility.yul\":14688:14691   */\n      0x00\n        /* \"#utility.yul\":14709:14776   */\n      tag_750\n        /* \"#utility.yul\":14773:14775   */\n      0x2b\n        /* \"#utility.yul\":14768:14771   */\n      dup4\n        /* \"#utility.yul\":14709:14776   */\n      tag_675\n      jump\t// in\n    tag_750:\n        /* \"#utility.yul\":14702:14776   */\n      swap2\n      pop\n        /* \"#utility.yul\":14785:14878   */\n      tag_751\n        /* \"#utility.yul\":14874:14877   */\n      dup3\n        /* \"#utility.yul\":14785:14878   */\n      tag_752\n      jump\t// in\n    tag_751:\n        /* \"#utility.yul\":14903:14905   */\n      0x40\n        /* \"#utility.yul\":14898:14901   */\n      dup3\n        /* \"#utility.yul\":14894:14906   */\n      add\n        /* \"#utility.yul\":14887:14906   */\n      swap1\n      pop\n        /* \"#utility.yul\":14546:14912   */\n      swap2\n      swap1\n      pop\n      jump\t// out\n        /* \"#utility.yul\":14918:15284   */\n    tag_753:\n        /* \"#utility.yul\":15060:15063   */\n      0x00\n        /* \"#utility.yul\":15081:15148   */\n      tag_755\n        /* \"#utility.yul\":15145:15147   */\n      0x1b\n        /* \"#utility.yul\":15140:15143   */\n      dup4\n        /* \"#utility.yul\":15081:15148   */\n      tag_675\n      jump\t// in\n    tag_755:\n        /* \"#utility.yul\":15074:15148   */\n      swap2\n      pop\n        /* \"#utility.yul\":15157:15250   */\n      tag_756\n        /* \"#utility.yul\":15246:15249   */\n      dup3\n        /* \"#utility.yul\":15157:15250   */\n      tag_757\n      jump\t// in\n    tag_756:\n        /* \"#utility.yul\":15275:15277   */\n      0x20\n        /* \"#utility.yul\":15270:15273   */\n      dup3\n        /* \"#utility.yul\":15266:15278   */\n      add\n        /* \"#utility.yul\":15259:15278   */\n      swap1\n      pop\n        /* \"#utility.yul\":14918:15284   */\n      swap2\n      swap1\n      pop\n      jump\t// out\n        /* \"#utility.yul\":15350:16132   */\n    tag_623:\n        /* \"#utility.yul\":15463:15466   */\n      0x00\n        /* \"#utility.yul\":15499:15503   */\n      0x60\n        /* \"#utility.yul\":15494:15497   */\n      dup4\n        /* \"#utility.yul\":15490:15504   */\n      add\n        /* \"#utility.yul\":15590:15594   */\n      0x00\n        /* \"#utility.yul\":15583:15588   */\n      dup4\n        /* \"#utility.yul\":15579:15595   */\n      add\n        /* \"#utility.yul\":15573:15596   */\n      mload\n        /* \"#utility.yul\":15609:15672   */\n      tag_759\n        /* \"#utility.yul\":15666:15670   */\n      0x00\n        /* \"#utility.yul\":15661:15664   */\n      dup7\n        /* \"#utility.yul\":15657:15671   */\n      add\n        /* \"#utility.yul\":15643:15655   */\n      dup3\n        /* \"#utility.yul\":15609:15672   */\n      tag_760\n      jump\t// in\n    tag_759:\n        /* \"#utility.yul\":15514:15682   */\n      pop\n        /* \"#utility.yul\":15766:15770   */\n      0x20\n        /* \"#utility.yul\":15759:15764   */\n      dup4\n        /* \"#utility.yul\":15755:15771   */\n      add\n        /* \"#utility.yul\":15749:15772   */\n      mload\n        /* \"#utility.yul\":15785:15848   */\n      tag_761\n        /* \"#utility.yul\":15842:15846   */\n      0x20\n        /* \"#utility.yul\":15837:15840   */\n      dup7\n        /* \"#utility.yul\":15833:15847   */\n      add\n        /* \"#utility.yul\":15819:15831   */\n      dup3\n        /* \"#utility.yul\":15785:15848   */\n      tag_760\n      jump\t// in\n    tag_761:\n        /* \"#utility.yul\":15692:15858   */\n      pop\n        /* \"#utility.yul\":15942:15946   */\n      0x40\n        /* \"#utility.yul\":15935:15940   */\n      dup4\n        /* \"#utility.yul\":15931:15947   */\n      add\n        /* \"#utility.yul\":15925:15948   */\n      mload\n        /* \"#utility.yul\":15995:15998   */\n      dup5\n        /* \"#utility.yul\":15989:15993   */\n      dup3\n        /* \"#utility.yul\":15985:15999   */\n      sub\n        /* \"#utility.yul\":15978:15982   */\n      0x40\n        /* \"#utility.yul\":15973:15976   */\n      dup7\n        /* \"#utility.yul\":15969:15983   */\n      add\n        /* \"#utility.yul\":15962:16000   */\n      mstore\n        /* \"#utility.yul\":16021:16094   */\n      tag_762\n        /* \"#utility.yul\":16089:16093   */\n      dup3\n        /* \"#utility.yul\":16075:16087   */\n      dup3\n        /* \"#utility.yul\":16021:16094   */\n      tag_662\n      jump\t// in\n    tag_762:\n        /* \"#utility.yul\":16013:16094   */\n      swap2\n      pop\n        /* \"#utility.yul\":15868:16105   */\n      pop\n        /* \"#utility.yul\":16122:16126   */\n      dup1\n        /* \"#utility.yul\":16115:16126   */\n      swap2\n      pop\n        /* \"#utility.yul\":15468:16132   */\n      pop\n        /* \"#utility.yul\":15350:16132   */\n      swap3\n      swap2\n      pop\n      pop\n      jump\t// out\n        /* \"#utility.yul\":16196:17087   */\n    tag_763:\n        /* \"#utility.yul\":16345:16349   */\n      0x80\n        /* \"#utility.yul\":16340:16343   */\n      dup3\n        /* \"#utility.yul\":16336:16350   */\n      add\n        /* \"#utility.yul\":16434:16438   */\n      0x00\n        /* \"#utility.yul\":16427:16432   */\n      dup3\n        /* \"#utility.yul\":16423:16439   */\n      add\n        /* \"#utility.yul\":16417:16440   */\n      mload\n        /* \"#utility.yul\":16453:16516   */\n      tag_765\n        /* \"#utility.yul\":16510:16514   */\n      0x00\n        /* \"#utility.yul\":16505:16508   */\n      dup6\n        /* \"#utility.yul\":16501:16515   */\n      add\n        /* \"#utility.yul\":16487:16499   */\n      dup3\n        /* \"#utility.yul\":16453:16516   */\n      tag_760\n      jump\t// in\n    tag_765:\n        /* \"#utility.yul\":16360:16526   */\n      pop\n        /* \"#utility.yul\":16616:16620   */\n      0x20\n        /* \"#utility.yul\":16609:16614   */\n      dup3\n        /* \"#utility.yul\":16605:16621   */\n      add\n        /* \"#utility.yul\":16599:16622   */\n      mload\n        /* \"#utility.yul\":16635:16698   */\n      tag_766\n        /* \"#utility.yul\":16692:16696   */\n      0x20\n        /* \"#utility.yul\":16687:16690   */\n      dup6\n        /* \"#utility.yul\":16683:16697   */\n      add\n        /* \"#utility.yul\":16669:16681   */\n      dup3\n        /* \"#utility.yul\":16635:16698   */\n      tag_760\n      jump\t// in\n    tag_766:\n        /* \"#utility.yul\":16536:16708   */\n      pop\n        /* \"#utility.yul\":16800:16804   */\n      0x40\n        /* \"#utility.yul\":16793:16798   */\n      dup3\n        /* \"#utility.yul\":16789:16805   */\n      add\n        /* \"#utility.yul\":16783:16806   */\n      mload\n        /* \"#utility.yul\":16819:16882   */\n      tag_767\n        /* \"#utility.yul\":16876:16880   */\n      0x40\n        /* \"#utility.yul\":16871:16874   */\n      dup6\n        /* \"#utility.yul\":16867:16881   */\n      add\n        /* \"#utility.yul\":16853:16865   */\n      dup3\n        /* \"#utility.yul\":16819:16882   */\n      tag_760\n      jump\t// in\n    tag_767:\n        /* \"#utility.yul\":16718:16892   */\n      pop\n        /* \"#utility.yul\":16988:16992   */\n      0x60\n        /* \"#utility.yul\":16981:16986   */\n      dup3\n        /* \"#utility.yul\":16977:16993   */\n      add\n        /* \"#utility.yul\":16971:16994   */\n      mload\n        /* \"#utility.yul\":17007:17070   */\n      tag_768\n        /* \"#utility.yul\":17064:17068   */\n      0x60\n        /* \"#utility.yul\":17059:17062   */\n      dup6\n        /* \"#utility.yul\":17055:17069   */\n      add\n        /* \"#utility.yul\":17041:17053   */\n      dup3\n        /* \"#utility.yul\":17007:17070   */\n      tag_760\n      jump\t// in\n    tag_768:\n        /* \"#utility.yul\":16902:17080   */\n      pop\n        /* \"#utility.yul\":16314:17087   */\n      pop\n        /* \"#utility.yul\":16196:17087   */\n      pop\n      pop\n      jump\t// out\n        /* \"#utility.yul\":17093:17201   */\n    tag_760:\n        /* \"#utility.yul\":17170:17194   */\n      tag_770\n        /* \"#utility.yul\":17188:17193   */\n      dup2\n        /* \"#utility.yul\":17170:17194   */\n      tag_771\n      jump\t// in\n    tag_770:\n        /* \"#utility.yul\":17165:17168   */\n      dup3\n        /* \"#utility.yul\":17158:17195   */\n      mstore\n        /* \"#utility.yul\":17093:17201   */\n      pop\n      pop\n      jump\t// out\n        /* \"#utility.yul\":17207:17325   */\n    tag_772:\n        /* \"#utility.yul\":17294:17318   */\n      tag_774\n        /* \"#utility.yul\":17312:17317   */\n      dup2\n        /* \"#utility.yul\":17294:17318   */\n      tag_771\n      jump\t// in\n    tag_774:\n        /* \"#utility.yul\":17289:17292   */\n      dup3\n        /* \"#utility.yul\":17282:17319   */\n      mstore\n        /* \"#utility.yul\":17207:17325   */\n      pop\n      pop\n      jump\t// out\n        /* \"#utility.yul\":17331:17602   */\n    tag_505:\n        /* \"#utility.yul\":17461:17464   */\n      0x00\n        /* \"#utility.yul\":17483:17576   */\n      tag_776\n        /* \"#utility.yul\":17572:17575   */\n      dup3\n        /* \"#utility.yul\":17563:17569   */\n      dup5\n        /* \"#utility.yul\":17483:17576   */\n      tag_650\n      jump\t// in\n    tag_776:\n        /* \"#utility.yul\":17476:17576   */\n      swap2\n      pop\n        /* \"#utility.yul\":17593:17596   */\n      dup2\n        /* \"#utility.yul\":17586:17596   */\n      swap1\n      pop\n        /* \"#utility.yul\":17331:17602   */\n      swap3\n      swap2\n      pop\n      pop\n      jump\t// out\n        /* \"#utility.yul\":17608:17830   */\n    tag_148:\n        /* \"#utility.yul\":17701:17705   */\n      0x00\n        /* \"#utility.yul\":17739:17741   */\n      0x20\n        /* \"#utility.yul\":17728:17737   */\n      dup3\n        /* \"#utility.yul\":17724:17742   */\n      add\n        /* \"#utility.yul\":17716:17742   */\n      swap1\n      pop\n        /* \"#utility.yul\":17752:17823   */\n      tag_778\n        /* \"#utility.yul\":17820:17821   */\n      0x00\n        /* \"#utility.yul\":17809:17818   */\n      dup4\n        /* \"#utility.yul\":17805:17822   */\n      add\n        /* \"#utility.yul\":17796:17802   */\n      dup5\n        /* \"#utility.yul\":17752:17823   */\n      tag_624\n      jump\t// in\n    tag_778:\n        /* \"#utility.yul\":17608:17830   */\n      swap3\n      swap2\n      pop\n      pop\n      jump\t// out\n        /* \"#utility.yul\":17836:18278   */\n    tag_391:\n        /* \"#utility.yul\":17985:17989   */\n      0x00\n        /* \"#utility.yul\":18023:18025   */\n      0x60\n        /* \"#utility.yul\":18012:18021   */\n      dup3\n        /* \"#utility.yul\":18008:18026   */\n      add\n        /* \"#utility.yul\":18000:18026   */\n      swap1\n      pop\n        /* \"#utility.yul\":18036:18107   */\n      tag_780\n        /* \"#utility.yul\":18104:18105   */\n      0x00\n        /* \"#utility.yul\":18093:18102   */\n      dup4\n        /* \"#utility.yul\":18089:18106   */\n      add\n        /* \"#utility.yul\":18080:18086   */\n      dup7\n        /* \"#utility.yul\":18036:18107   */\n      tag_624\n      jump\t// in\n    tag_780:\n        /* \"#utility.yul\":18117:18189   */\n      tag_781\n        /* \"#utility.yul\":18185:18187   */\n      0x20\n        /* \"#utility.yul\":18174:18183   */\n      dup4\n        /* \"#utility.yul\":18170:18188   */\n      add\n        /* \"#utility.yul\":18161:18167   */\n      dup6\n        /* \"#utility.yul\":18117:18189   */\n      tag_624\n      jump\t// in\n    tag_781:\n        /* \"#utility.yul\":18199:18271   */\n      tag_782\n        /* \"#utility.yul\":18267:18269   */\n      0x40\n        /* \"#utility.yul\":18256:18265   */\n      dup4\n        /* \"#utility.yul\":18252:18270   */\n      add\n        /* \"#utility.yul\":18243:18249   */\n      dup5\n        /* \"#utility.yul\":18199:18271   */\n      tag_772\n      jump\t// in\n    tag_782:\n        /* \"#utility.yul\":17836:18278   */\n      swap5\n      swap4\n      pop\n      pop\n      pop\n      pop\n      jump\t// out\n        /* \"#utility.yul\":18284:18616   */\n    tag_341:\n        /* \"#utility.yul\":18405:18409   */\n      0x00\n        /* \"#utility.yul\":18443:18445   */\n      0x40\n        /* \"#utility.yul\":18432:18441   */\n      dup3\n        /* \"#utility.yul\":18428:18446   */\n      add\n        /* \"#utility.yul\":18420:18446   */\n      swap1\n      pop\n        /* \"#utility.yul\":18456:18527   */\n      tag_784\n        /* \"#utility.yul\":18524:18525   */\n      0x00\n        /* \"#utility.yul\":18513:18522   */\n      dup4\n        /* \"#utility.yul\":18509:18526   */\n      add\n        /* \"#utility.yul\":18500:18506   */\n      dup6\n        /* \"#utility.yul\":18456:18527   */\n      tag_624\n      jump\t// in\n    tag_784:\n        /* \"#utility.yul\":18537:18609   */\n      tag_785\n        /* \"#utility.yul\":18605:18607   */\n      0x20\n        /* \"#utility.yul\":18594:18603   */\n      dup4\n        /* \"#utility.yul\":18590:18608   */\n      add\n        /* \"#utility.yul\":18581:18587   */\n      dup5\n        /* \"#utility.yul\":18537:18609   */\n      tag_772\n      jump\t// in\n    tag_785:\n        /* \"#utility.yul\":18284:18616   */\n      swap4\n      swap3\n      pop\n      pop\n      pop\n      jump\t// out\n        /* \"#utility.yul\":18622:19103   */\n    tag_80:\n        /* \"#utility.yul\":18819:18823   */\n      0x00\n        /* \"#utility.yul\":18857:18859   */\n      0x20\n        /* \"#utility.yul\":18846:18855   */\n      dup3\n        /* \"#utility.yul\":18842:18860   */\n      add\n        /* \"#utility.yul\":18834:18860   */\n      swap1\n      pop\n        /* \"#utility.yul\":18906:18915   */\n      dup2\n        /* \"#utility.yul\":18900:18904   */\n      dup2\n        /* \"#utility.yul\":18896:18916   */\n      sub\n        /* \"#utility.yul\":18892:18893   */\n      0x00\n        /* \"#utility.yul\":18881:18890   */\n      dup4\n        /* \"#utility.yul\":18877:18894   */\n      add\n        /* \"#utility.yul\":18870:18917   */\n      mstore\n        /* \"#utility.yul\":18934:19096   */\n      tag_787\n        /* \"#utility.yul\":19091:19095   */\n      dup2\n        /* \"#utility.yul\":19082:19088   */\n      dup5\n        /* \"#utility.yul\":18934:19096   */\n      tag_628\n      jump\t// in\n    tag_787:\n        /* \"#utility.yul\":18926:19096   */\n      swap1\n      pop\n        /* \"#utility.yul\":18622:19103   */\n      swap3\n      swap2\n      pop\n      pop\n      jump\t// out\n        /* \"#utility.yul\":19109:19319   */\n    tag_67:\n        /* \"#utility.yul\":19196:19200   */\n      0x00\n        /* \"#utility.yul\":19234:19236   */\n      0x20\n        /* \"#utility.yul\":19223:19232   */\n      dup3\n        /* \"#utility.yul\":19219:19237   */\n      add\n        /* \"#utility.yul\":19211:19237   */\n      swap1\n      pop\n        /* \"#utility.yul\":19247:19312   */\n      tag_789\n        /* \"#utility.yul\":19309:19310   */\n      0x00\n        /* \"#utility.yul\":19298:19307   */\n      dup4\n        /* \"#utility.yul\":19294:19311   */\n      add\n        /* \"#utility.yul\":19285:19291   */\n      dup5\n        /* \"#utility.yul\":19247:19312   */\n      tag_642\n      jump\t// in\n    tag_789:\n        /* \"#utility.yul\":19109:19319   */\n      swap3\n      swap2\n      pop\n      pop\n      jump\t// out\n        /* \"#utility.yul\":19325:19547   */\n    tag_112:\n        /* \"#utility.yul\":19418:19422   */\n      0x00\n        /* \"#utility.yul\":19456:19458   */\n      0x20\n        /* \"#utility.yul\":19445:19454   */\n      dup3\n        /* \"#utility.yul\":19441:19459   */\n      add\n        /* \"#utility.yul\":19433:19459   */\n      swap1\n      pop\n        /* \"#utility.yul\":19469:19540   */\n      tag_791\n        /* \"#utility.yul\":19537:19538   */\n      0x00\n        /* \"#utility.yul\":19526:19535   */\n      dup4\n        /* \"#utility.yul\":19522:19539   */\n      add\n        /* \"#utility.yul\":19513:19519   */\n      dup5\n        /* \"#utility.yul\":19469:19540   */\n      tag_646\n      jump\t// in\n    tag_791:\n        /* \"#utility.yul\":19325:19547   */\n      swap3\n      swap2\n      pop\n      pop\n      jump\t// out\n        /* \"#utility.yul\":19553:19787   */\n    tag_310:\n        /* \"#utility.yul\":19652:19656   */\n      0x00\n        /* \"#utility.yul\":19690:19692   */\n      0x20\n        /* \"#utility.yul\":19679:19688   */\n      dup3\n        /* \"#utility.yul\":19675:19693   */\n      add\n        /* \"#utility.yul\":19667:19693   */\n      swap1\n      pop\n        /* \"#utility.yul\":19703:19780   */\n      tag_793\n        /* \"#utility.yul\":19777:19778   */\n      0x00\n        /* \"#utility.yul\":19766:19775   */\n      dup4\n        /* \"#utility.yul\":19762:19779   */\n      add\n        /* \"#utility.yul\":19753:19759   */\n      dup5\n        /* \"#utility.yul\":19703:19780   */\n      tag_658\n      jump\t// in\n    tag_793:\n        /* \"#utility.yul\":19553:19787   */\n      swap3\n      swap2\n      pop\n      pop\n      jump\t// out\n        /* \"#utility.yul\":19793:20106   */\n    tag_520:\n        /* \"#utility.yul\":19906:19910   */\n      0x00\n        /* \"#utility.yul\":19944:19946   */\n      0x20\n        /* \"#utility.yul\":19933:19942   */\n      dup3\n        /* \"#utility.yul\":19929:19947   */\n      add\n        /* \"#utility.yul\":19921:19947   */\n      swap1\n      pop\n        /* \"#utility.yul\":19993:20002   */\n      dup2\n        /* \"#utility.yul\":19987:19991   */\n      dup2\n        /* \"#utility.yul\":19983:20003   */\n      sub\n        /* \"#utility.yul\":19979:19980   */\n      0x00\n        /* \"#utility.yul\":19968:19977   */\n      dup4\n        /* \"#utility.yul\":19964:19981   */\n      add\n        /* \"#utility.yul\":19957:20004   */\n      mstore\n        /* \"#utility.yul\":20021:20099   */\n      tag_795\n        /* \"#utility.yul\":20094:20098   */\n      dup2\n        /* \"#utility.yul\":20085:20091   */\n      dup5\n        /* \"#utility.yul\":20021:20099   */\n      tag_671\n      jump\t// in\n    tag_795:\n        /* \"#utility.yul\":20013:20099   */\n      swap1\n      pop\n        /* \"#utility.yul\":19793:20106   */\n      swap3\n      swap2\n      pop\n      pop\n      jump\t// out\n        /* \"#utility.yul\":20112:20531   */\n    tag_241:\n        /* \"#utility.yul\":20278:20282   */\n      0x00\n        /* \"#utility.yul\":20316:20318   */\n      0x20\n        /* \"#utility.yul\":20305:20314   */\n      dup3\n        /* \"#utility.yul\":20301:20319   */\n      add\n        /* \"#utility.yul\":20293:20319   */\n      swap1\n      pop\n        /* \"#utility.yul\":20365:20374   */\n      dup2\n        /* \"#utility.yul\":20359:20363   */\n      dup2\n        /* \"#utility.yul\":20355:20375   */\n      sub\n        /* \"#utility.yul\":20351:20352   */\n      0x00\n        /* \"#utility.yul\":20340:20349   */\n      dup4\n        /* \"#utility.yul\":20336:20353   */\n      add\n        /* \"#utility.yul\":20329:20376   */\n      mstore\n        /* \"#utility.yul\":20393:20524   */\n      tag_797\n        /* \"#utility.yul\":20519:20523   */\n      dup2\n        /* \"#utility.yul\":20393:20524   */\n      tag_678\n      jump\t// in\n    tag_797:\n        /* \"#utility.yul\":20385:20524   */\n      swap1\n      pop\n        /* \"#utility.yul\":20112:20531   */\n      swap2\n      swap1\n      pop\n      jump\t// out\n        /* \"#utility.yul\":20537:20956   */\n    tag_410:\n        /* \"#utility.yul\":20703:20707   */\n      0x00\n        /* \"#utility.yul\":20741:20743   */\n      0x20\n        /* \"#utility.yul\":20730:20739   */\n      dup3\n        /* \"#utility.yul\":20726:20744   */\n      add\n        /* \"#utility.yul\":20718:20744   */\n      swap1\n      pop\n        /* \"#utility.yul\":20790:20799   */\n      dup2\n        /* \"#utility.yul\":20784:20788   */\n      dup2\n        /* \"#utility.yul\":20780:20800   */\n      sub\n        /* \"#utility.yul\":20776:20777   */\n      0x00\n        /* \"#utility.yul\":20765:20774   */\n      dup4\n        /* \"#utility.yul\":20761:20778   */\n      add\n        /* \"#utility.yul\":20754:20801   */\n      mstore\n        /* \"#utility.yul\":20818:20949   */\n      tag_799\n        /* \"#utility.yul\":20944:20948   */\n      dup2\n        /* \"#utility.yul\":20818:20949   */\n      tag_683\n      jump\t// in\n    tag_799:\n        /* \"#utility.yul\":20810:20949   */\n      swap1\n      pop\n        /* \"#utility.yul\":20537:20956   */\n      swap2\n      swap1\n      pop\n      jump\t// out\n        /* \"#utility.yul\":20962:21381   */\n    tag_221:\n        /* \"#utility.yul\":21128:21132   */\n      0x00\n        /* \"#utility.yul\":21166:21168   */\n      0x20\n        /* \"#utility.yul\":21155:21164   */\n      dup3\n        /* \"#utility.yul\":21151:21169   */\n      add\n        /* \"#utility.yul\":21143:21169   */\n      swap1\n      pop\n        /* \"#utility.yul\":21215:21224   */\n      dup2\n        /* \"#utility.yul\":21209:21213   */\n      dup2\n        /* \"#utility.yul\":21205:21225   */\n      sub\n        /* \"#utility.yul\":21201:21202   */\n      0x00\n        /* \"#utility.yul\":21190:21199   */\n      dup4\n        /* \"#utility.yul\":21186:21203   */\n      add\n        /* \"#utility.yul\":21179:21226   */\n      mstore\n        /* \"#utility.yul\":21243:21374   */\n      tag_801\n        /* \"#utility.yul\":21369:21373   */\n      dup2\n        /* \"#utility.yul\":21243:21374   */\n      tag_688\n      jump\t// in\n    tag_801:\n        /* \"#utility.yul\":21235:21374   */\n      swap1\n      pop\n        /* \"#utility.yul\":20962:21381   */\n      swap2\n      swap1\n      pop\n      jump\t// out\n        /* \"#utility.yul\":21387:21806   */\n    tag_271:\n        /* \"#utility.yul\":21553:21557   */\n      0x00\n        /* \"#utility.yul\":21591:21593   */\n      0x20\n        /* \"#utility.yul\":21580:21589   */\n      dup3\n        /* \"#utility.yul\":21576:21594   */\n      add\n        /* \"#utility.yul\":21568:21594   */\n      swap1\n      pop\n        /* \"#utility.yul\":21640:21649   */\n      dup2\n        /* \"#utility.yul\":21634:21638   */\n      dup2\n        /* \"#utility.yul\":21630:21650   */\n      sub\n        /* \"#utility.yul\":21626:21627   */\n      0x00\n        /* \"#utility.yul\":21615:21624   */\n      dup4\n        /* \"#utility.yul\":21611:21628   */\n      add\n        /* \"#utility.yul\":21604:21651   */\n      mstore\n        /* \"#utility.yul\":21668:21799   */\n      tag_803\n        /* \"#utility.yul\":21794:21798   */\n      dup2\n        /* \"#utility.yul\":21668:21799   */\n      tag_693\n      jump\t// in\n    tag_803:\n        /* \"#utility.yul\":21660:21799   */\n      swap1\n      pop\n        /* \"#utility.yul\":21387:21806   */\n      swap2\n      swap1\n      pop\n      jump\t// out\n        /* \"#utility.yul\":21812:22231   */\n    tag_276:\n        /* \"#utility.yul\":21978:21982   */\n      0x00\n        /* \"#utility.yul\":22016:22018   */\n      0x20\n        /* \"#utility.yul\":22005:22014   */\n      dup3\n        /* \"#utility.yul\":22001:22019   */\n      add\n        /* \"#utility.yul\":21993:22019   */\n      swap1\n      pop\n        /* \"#utility.yul\":22065:22074   */\n      dup2\n        /* \"#utility.yul\":22059:22063   */\n      dup2\n        /* \"#utility.yul\":22055:22075   */\n      sub\n        /* \"#utility.yul\":22051:22052   */\n      0x00\n        /* \"#utility.yul\":22040:22049   */\n      dup4\n        /* \"#utility.yul\":22036:22053   */\n      add\n        /* \"#utility.yul\":22029:22076   */\n      mstore\n        /* \"#utility.yul\":22093:22224   */\n      tag_805\n        /* \"#utility.yul\":22219:22223   */\n      dup2\n        /* \"#utility.yul\":22093:22224   */\n      tag_698\n      jump\t// in\n    tag_805:\n        /* \"#utility.yul\":22085:22224   */\n      swap1\n      pop\n        /* \"#utility.yul\":21812:22231   */\n      swap2\n      swap1\n      pop\n      jump\t// out\n        /* \"#utility.yul\":22237:22656   */\n    tag_356:\n        /* \"#utility.yul\":22403:22407   */\n      0x00\n        /* \"#utility.yul\":22441:22443   */\n      0x20\n        /* \"#utility.yul\":22430:22439   */\n      dup3\n        /* \"#utility.yul\":22426:22444   */\n      add\n        /* \"#utility.yul\":22418:22444   */\n      swap1\n      pop\n        /* \"#utility.yul\":22490:22499   */\n      dup2\n        /* \"#utility.yul\":22484:22488   */\n      dup2\n        /* \"#utility.yul\":22480:22500   */\n      sub\n        /* \"#utility.yul\":22476:22477   */\n      0x00\n        /* \"#utility.yul\":22465:22474   */\n      dup4\n        /* \"#utility.yul\":22461:22478   */\n      add\n        /* \"#utility.yul\":22454:22501   */\n      mstore\n        /* \"#utility.yul\":22518:22649   */\n      tag_807\n        /* \"#utility.yul\":22644:22648   */\n      dup2\n        /* \"#utility.yul\":22518:22649   */\n      tag_703\n      jump\t// in\n    tag_807:\n        /* \"#utility.yul\":22510:22649   */\n      swap1\n      pop\n        /* \"#utility.yul\":22237:22656   */\n      swap2\n      swap1\n      pop\n      jump\t// out\n        /* \"#utility.yul\":22662:23081   */\n    tag_323:\n        /* \"#utility.yul\":22828:22832   */\n      0x00\n        /* \"#utility.yul\":22866:22868   */\n      0x20\n        /* \"#utility.yul\":22855:22864   */\n      dup3\n        /* \"#utility.yul\":22851:22869   */\n      add\n        /* \"#utility.yul\":22843:22869   */\n      swap1\n      pop\n        /* \"#utility.yul\":22915:22924   */\n      dup2\n        /* \"#utility.yul\":22909:22913   */\n      dup2\n        /* \"#utility.yul\":22905:22925   */\n      sub\n        /* \"#utility.yul\":22901:22902   */\n      0x00\n        /* \"#utility.yul\":22890:22899   */\n      dup4\n        /* \"#utility.yul\":22886:22903   */\n      add\n        /* \"#utility.yul\":22879:22926   */\n      mstore\n        /* \"#utility.yul\":22943:23074   */\n      tag_809\n        /* \"#utility.yul\":23069:23073   */\n      dup2\n        /* \"#utility.yul\":22943:23074   */\n      tag_708\n      jump\t// in\n    tag_809:\n        /* \"#utility.yul\":22935:23074   */\n      swap1\n      pop\n        /* \"#utility.yul\":22662:23081   */\n      swap2\n      swap1\n      pop\n      jump\t// out\n        /* \"#utility.yul\":23087:23506   */\n    tag_449:\n        /* \"#utility.yul\":23253:23257   */\n      0x00\n        /* \"#utility.yul\":23291:23293   */\n      0x20\n        /* \"#utility.yul\":23280:23289   */\n      dup3\n        /* \"#utility.yul\":23276:23294   */\n      add\n        /* \"#utility.yul\":23268:23294   */\n      swap1\n      pop\n        /* \"#utility.yul\":23340:23349   */\n      dup2\n        /* \"#utility.yul\":23334:23338   */\n      dup2\n        /* \"#utility.yul\":23330:23350   */\n      sub\n        /* \"#utility.yul\":23326:23327   */\n      0x00\n        /* \"#utility.yul\":23315:23324   */\n      dup4\n        /* \"#utility.yul\":23311:23328   */\n      add\n        /* \"#utility.yul\":23304:23351   */\n      mstore\n        /* \"#utility.yul\":23368:23499   */\n      tag_811\n        /* \"#utility.yul\":23494:23498   */\n      dup2\n        /* \"#utility.yul\":23368:23499   */\n      tag_713\n      jump\t// in\n    tag_811:\n        /* \"#utility.yul\":23360:23499   */\n      swap1\n      pop\n        /* \"#utility.yul\":23087:23506   */\n      swap2\n      swap1\n      pop\n      jump\t// out\n        /* \"#utility.yul\":23512:23931   */\n    tag_300:\n        /* \"#utility.yul\":23678:23682   */\n      0x00\n        /* \"#utility.yul\":23716:23718   */\n      0x20\n        /* \"#utility.yul\":23705:23714   */\n      dup3\n        /* \"#utility.yul\":23701:23719   */\n      add\n        /* \"#utility.yul\":23693:23719   */\n      swap1\n      pop\n        /* \"#utility.yul\":23765:23774   */\n      dup2\n        /* \"#utility.yul\":23759:23763   */\n      dup2\n        /* \"#utility.yul\":23755:23775   */\n      sub\n        /* \"#utility.yul\":23751:23752   */\n      0x00\n        /* \"#utility.yul\":23740:23749   */\n      dup4\n        /* \"#utility.yul\":23736:23753   */\n      add\n        /* \"#utility.yul\":23729:23776   */\n      mstore\n        /* \"#utility.yul\":23793:23924   */\n      tag_813\n        /* \"#utility.yul\":23919:23923   */\n      dup2\n        /* \"#utility.yul\":23793:23924   */\n      tag_718\n      jump\t// in\n    tag_813:\n        /* \"#utility.yul\":23785:23924   */\n      swap1\n      pop\n        /* \"#utility.yul\":23512:23931   */\n      swap2\n      swap1\n      pop\n      jump\t// out\n        /* \"#utility.yul\":23937:24356   */\n    tag_445:\n        /* \"#utility.yul\":24103:24107   */\n      0x00\n        /* \"#utility.yul\":24141:24143   */\n      0x20\n        /* \"#utility.yul\":24130:24139   */\n      dup3\n        /* \"#utility.yul\":24126:24144   */\n      add\n        /* \"#utility.yul\":24118:24144   */\n      swap1\n      pop\n        /* \"#utility.yul\":24190:24199   */\n      dup2\n        /* \"#utility.yul\":24184:24188   */\n      dup2\n        /* \"#utility.yul\":24180:24200   */\n      sub\n        /* \"#utility.yul\":24176:24177   */\n      0x00\n        /* \"#utility.yul\":24165:24174   */\n      dup4\n        /* \"#utility.yul\":24161:24178   */\n      add\n        /* \"#utility.yul\":24154:24201   */\n      mstore\n        /* \"#utility.yul\":24218:24349   */\n      tag_815\n        /* \"#utility.yul\":24344:24348   */\n      dup2\n        /* \"#utility.yul\":24218:24349   */\n      tag_723\n      jump\t// in\n    tag_815:\n        /* \"#utility.yul\":24210:24349   */\n      swap1\n      pop\n        /* \"#utility.yul\":23937:24356   */\n      swap2\n      swap1\n      pop\n      jump\t// out\n        /* \"#utility.yul\":24362:24781   */\n    tag_482:\n        /* \"#utility.yul\":24528:24532   */\n      0x00\n        /* \"#utility.yul\":24566:24568   */\n      0x20\n        /* \"#utility.yul\":24555:24564   */\n      dup3\n        /* \"#utility.yul\":24551:24569   */\n      add\n        /* \"#utility.yul\":24543:24569   */\n      swap1\n      pop\n        /* \"#utility.yul\":24615:24624   */\n      dup2\n        /* \"#utility.yul\":24609:24613   */\n      dup2\n        /* \"#utility.yul\":24605:24625   */\n      sub\n        /* \"#utility.yul\":24601:24602   */\n      0x00\n        /* \"#utility.yul\":24590:24599   */\n      dup4\n        /* \"#utility.yul\":24586:24603   */\n      add\n        /* \"#utility.yul\":24579:24626   */\n      mstore\n        /* \"#utility.yul\":24643:24774   */\n      tag_817\n        /* \"#utility.yul\":24769:24773   */\n      dup2\n        /* \"#utility.yul\":24643:24774   */\n      tag_728\n      jump\t// in\n    tag_817:\n        /* \"#utility.yul\":24635:24774   */\n      swap1\n      pop\n        /* \"#utility.yul\":24362:24781   */\n      swap2\n      swap1\n      pop\n      jump\t// out\n        /* \"#utility.yul\":24787:25206   */\n    tag_422:\n        /* \"#utility.yul\":24953:24957   */\n      0x00\n        /* \"#utility.yul\":24991:24993   */\n      0x20\n        /* \"#utility.yul\":24980:24989   */\n      dup3\n        /* \"#utility.yul\":24976:24994   */\n      add\n        /* \"#utility.yul\":24968:24994   */\n      swap1\n      pop\n        /* \"#utility.yul\":25040:25049   */\n      dup2\n        /* \"#utility.yul\":25034:25038   */\n      dup2\n        /* \"#utility.yul\":25030:25050   */\n      sub\n        /* \"#utility.yul\":25026:25027   */\n      0x00\n        /* \"#utility.yul\":25015:25024   */\n      dup4\n        /* \"#utility.yul\":25011:25028   */\n      add\n        /* \"#utility.yul\":25004:25051   */\n      mstore\n        /* \"#utility.yul\":25068:25199   */\n      tag_819\n        /* \"#utility.yul\":25194:25198   */\n      dup2\n        /* \"#utility.yul\":25068:25199   */\n      tag_733\n      jump\t// in\n    tag_819:\n        /* \"#utility.yul\":25060:25199   */\n      swap1\n      pop\n        /* \"#utility.yul\":24787:25206   */\n      swap2\n      swap1\n      pop\n      jump\t// out\n        /* \"#utility.yul\":25212:25631   */\n    tag_503:\n        /* \"#utility.yul\":25378:25382   */\n      0x00\n        /* \"#utility.yul\":25416:25418   */\n      0x20\n        /* \"#utility.yul\":25405:25414   */\n      dup3\n        /* \"#utility.yul\":25401:25419   */\n      add\n        /* \"#utility.yul\":25393:25419   */\n      swap1\n      pop\n        /* \"#utility.yul\":25465:25474   */\n      dup2\n        /* \"#utility.yul\":25459:25463   */\n      dup2\n        /* \"#utility.yul\":25455:25475   */\n      sub\n        /* \"#utility.yul\":25451:25452   */\n      0x00\n        /* \"#utility.yul\":25440:25449   */\n      dup4\n        /* \"#utility.yul\":25436:25453   */\n      add\n        /* \"#utility.yul\":25429:25476   */\n      mstore\n        /* \"#utility.yul\":25493:25624   */\n      tag_821\n        /* \"#utility.yul\":25619:25623   */\n      dup2\n        /* \"#utility.yul\":25493:25624   */\n      tag_738\n      jump\t// in\n    tag_821:\n        /* \"#utility.yul\":25485:25624   */\n      swap1\n      pop\n        /* \"#utility.yul\":25212:25631   */\n      swap2\n      swap1\n      pop\n      jump\t// out\n        /* \"#utility.yul\":25637:26056   */\n    tag_385:\n        /* \"#utility.yul\":25803:25807   */\n      0x00\n        /* \"#utility.yul\":25841:25843   */\n      0x20\n        /* \"#utility.yul\":25830:25839   */\n      dup3\n        /* \"#utility.yul\":25826:25844   */\n      add\n        /* \"#utility.yul\":25818:25844   */\n      swap1\n      pop\n        /* \"#utility.yul\":25890:25899   */\n      dup2\n        /* \"#utility.yul\":25884:25888   */\n      dup2\n        /* \"#utility.yul\":25880:25900   */\n      sub\n        /* \"#utility.yul\":25876:25877   */\n      0x00\n        /* \"#utility.yul\":25865:25874   */\n      dup4\n        /* \"#utility.yul\":25861:25878   */\n      add\n        /* \"#utility.yul\":25854:25901   */\n      mstore\n        /* \"#utility.yul\":25918:26049   */\n      tag_823\n        /* \"#utility.yul\":26044:26048   */\n      dup2\n        /* \"#utility.yul\":25918:26049   */\n      tag_743\n      jump\t// in\n    tag_823:\n        /* \"#utility.yul\":25910:26049   */\n      swap1\n      pop\n        /* \"#utility.yul\":25637:26056   */\n      swap2\n      swap1\n      pop\n      jump\t// out\n        /* \"#utility.yul\":26062:26481   */\n    tag_456:\n        /* \"#utility.yul\":26228:26232   */\n      0x00\n        /* \"#utility.yul\":26266:26268   */\n      0x20\n        /* \"#utility.yul\":26255:26264   */\n      dup3\n        /* \"#utility.yul\":26251:26269   */\n      add\n        /* \"#utility.yul\":26243:26269   */\n      swap1\n      pop\n        /* \"#utility.yul\":26315:26324   */\n      dup2\n        /* \"#utility.yul\":26309:26313   */\n      dup2\n        /* \"#utility.yul\":26305:26325   */\n      sub\n        /* \"#utility.yul\":26301:26302   */\n      0x00\n        /* \"#utility.yul\":26290:26299   */\n      dup4\n        /* \"#utility.yul\":26286:26303   */\n      add\n        /* \"#utility.yul\":26279:26326   */\n      mstore\n        /* \"#utility.yul\":26343:26474   */\n      tag_825\n        /* \"#utility.yul\":26469:26473   */\n      dup2\n        /* \"#utility.yul\":26343:26474   */\n      tag_748\n      jump\t// in\n    tag_825:\n        /* \"#utility.yul\":26335:26474   */\n      swap1\n      pop\n        /* \"#utility.yul\":26062:26481   */\n      swap2\n      swap1\n      pop\n      jump\t// out\n        /* \"#utility.yul\":26487:26906   */\n    tag_388:\n        /* \"#utility.yul\":26653:26657   */\n      0x00\n        /* \"#utility.yul\":26691:26693   */\n      0x20\n        /* \"#utility.yul\":26680:26689   */\n      dup3\n        /* \"#utility.yul\":26676:26694   */\n      add\n        /* \"#utility.yul\":26668:26694   */\n      swap1\n      pop\n        /* \"#utility.yul\":26740:26749   */\n      dup2\n        /* \"#utility.yul\":26734:26738   */\n      dup2\n        /* \"#utility.yul\":26730:26750   */\n      sub\n        /* \"#utility.yul\":26726:26727   */\n      0x00\n        /* \"#utility.yul\":26715:26724   */\n      dup4\n        /* \"#utility.yul\":26711:26728   */\n      add\n        /* \"#utility.yul\":26704:26751   */\n      mstore\n        /* \"#utility.yul\":26768:26899   */\n      tag_827\n        /* \"#utility.yul\":26894:26898   */\n      dup2\n        /* \"#utility.yul\":26768:26899   */\n      tag_753\n      jump\t// in\n    tag_827:\n        /* \"#utility.yul\":26760:26899   */\n      swap1\n      pop\n        /* \"#utility.yul\":26487:26906   */\n      swap2\n      swap1\n      pop\n      jump\t// out\n        /* \"#utility.yul\":26912:27239   */\n    tag_122:\n        /* \"#utility.yul\":27057:27061   */\n      0x00\n        /* \"#utility.yul\":27095:27098   */\n      0x80\n        /* \"#utility.yul\":27084:27093   */\n      dup3\n        /* \"#utility.yul\":27080:27099   */\n      add\n        /* \"#utility.yul\":27072:27099   */\n      swap1\n      pop\n        /* \"#utility.yul\":27109:27232   */\n      tag_829\n        /* \"#utility.yul\":27229:27230   */\n      0x00\n        /* \"#utility.yul\":27218:27227   */\n      dup4\n        /* \"#utility.yul\":27214:27231   */\n      add\n        /* \"#utility.yul\":27205:27211   */\n      dup5\n        /* \"#utility.yul\":27109:27232   */\n      tag_763\n      jump\t// in\n    tag_829:\n        /* \"#utility.yul\":26912:27239   */\n      swap3\n      swap2\n      pop\n      pop\n      jump\t// out\n        /* \"#utility.yul\":27245:27467   */\n    tag_50:\n        /* \"#utility.yul\":27338:27342   */\n      0x00\n        /* \"#utility.yul\":27376:27378   */\n      0x20\n        /* \"#utility.yul\":27365:27374   */\n      dup3\n        /* \"#utility.yul\":27361:27379   */\n      add\n        /* \"#utility.yul\":27353:27379   */\n      swap1\n      pop\n        /* \"#utility.yul\":27389:27460   */\n      tag_831\n        /* \"#utility.yul\":27457:27458   */\n      0x00\n        /* \"#utility.yul\":27446:27455   */\n      dup4\n        /* \"#utility.yul\":27442:27459   */\n      add\n        /* \"#utility.yul\":27433:27439   */\n      dup5\n        /* \"#utility.yul\":27389:27460   */\n      tag_772\n      jump\t// in\n    tag_831:\n        /* \"#utility.yul\":27245:27467   */\n      swap3\n      swap2\n      pop\n      pop\n      jump\t// out\n        /* \"#utility.yul\":27473:27805   */\n    tag_61:\n        /* \"#utility.yul\":27594:27598   */\n      0x00\n        /* \"#utility.yul\":27632:27634   */\n      0x40\n        /* \"#utility.yul\":27621:27630   */\n      dup3\n        /* \"#utility.yul\":27617:27635   */\n      add\n        /* \"#utility.yul\":27609:27635   */\n      swap1\n      pop\n        /* \"#utility.yul\":27645:27716   */\n      tag_833\n        /* \"#utility.yul\":27713:27714   */\n      0x00\n        /* \"#utility.yul\":27702:27711   */\n      dup4\n        /* \"#utility.yul\":27698:27715   */\n      add\n        /* \"#utility.yul\":27689:27695   */\n      dup6\n        /* \"#utility.yul\":27645:27716   */\n      tag_772\n      jump\t// in\n    tag_833:\n        /* \"#utility.yul\":27726:27798   */\n      tag_834\n        /* \"#utility.yul\":27794:27796   */\n      0x20\n        /* \"#utility.yul\":27783:27792   */\n      dup4\n        /* \"#utility.yul\":27779:27797   */\n      add\n        /* \"#utility.yul\":27770:27776   */\n      dup5\n        /* \"#utility.yul\":27726:27798   */\n      tag_772\n      jump\t// in\n    tag_834:\n        /* \"#utility.yul\":27473:27805   */\n      swap4\n      swap3\n      pop\n      pop\n      pop\n      jump\t// out\n        /* \"#utility.yul\":27811:28364   */\n    tag_73:\n        /* \"#utility.yul\":27988:27992   */\n      0x00\n        /* \"#utility.yul\":28026:28029   */\n      0x80\n        /* \"#utility.yul\":28015:28024   */\n      dup3\n        /* \"#utility.yul\":28011:28030   */\n      add\n        /* \"#utility.yul\":28003:28030   */\n      swap1\n      pop\n        /* \"#utility.yul\":28040:28111   */\n      tag_836\n        /* \"#utility.yul\":28108:28109   */\n      0x00\n        /* \"#utility.yul\":28097:28106   */\n      dup4\n        /* \"#utility.yul\":28093:28110   */\n      add\n        /* \"#utility.yul\":28084:28090   */\n      dup8\n        /* \"#utility.yul\":28040:28111   */\n      tag_772\n      jump\t// in\n    tag_836:\n        /* \"#utility.yul\":28121:28193   */\n      tag_837\n        /* \"#utility.yul\":28189:28191   */\n      0x20\n        /* \"#utility.yul\":28178:28187   */\n      dup4\n        /* \"#utility.yul\":28174:28192   */\n      add\n        /* \"#utility.yul\":28165:28171   */\n      dup7\n        /* \"#utility.yul\":28121:28193   */\n      tag_772\n      jump\t// in\n    tag_837:\n        /* \"#utility.yul\":28203:28275   */\n      tag_838\n        /* \"#utility.yul\":28271:28273   */\n      0x40\n        /* \"#utility.yul\":28260:28269   */\n      dup4\n        /* \"#utility.yul\":28256:28274   */\n      add\n        /* \"#utility.yul\":28247:28253   */\n      dup6\n        /* \"#utility.yul\":28203:28275   */\n      tag_772\n      jump\t// in\n    tag_838:\n        /* \"#utility.yul\":28285:28357   */\n      tag_839\n        /* \"#utility.yul\":28353:28355   */\n      0x60\n        /* \"#utility.yul\":28342:28351   */\n      dup4\n        /* \"#utility.yul\":28338:28356   */\n      add\n        /* \"#utility.yul\":28329:28335   */\n      dup5\n        /* \"#utility.yul\":28285:28357   */\n      tag_772\n      jump\t// in\n    tag_839:\n        /* \"#utility.yul\":27811:28364   */\n      swap6\n      swap5\n      pop\n      pop\n      pop\n      pop\n      pop\n      jump\t// out\n        /* \"#utility.yul\":28370:28499   */\n    tag_537:\n        /* \"#utility.yul\":28404:28410   */\n      0x00\n        /* \"#utility.yul\":28431:28451   */\n      tag_841\n      tag_842\n      jump\t// in\n    tag_841:\n        /* \"#utility.yul\":28421:28451   */\n      swap1\n      pop\n        /* \"#utility.yul\":28460:28493   */\n      tag_843\n        /* \"#utility.yul\":28488:28492   */\n      dup3\n        /* \"#utility.yul\":28480:28486   */\n      dup3\n        /* \"#utility.yul\":28460:28493   */\n      tag_844\n      jump\t// in\n    tag_843:\n        /* \"#utility.yul\":28370:28499   */\n      swap2\n      swap1\n      pop\n      jump\t// out\n        /* \"#utility.yul\":28505:28580   */\n    tag_842:\n        /* \"#utility.yul\":28538:28544   */\n      0x00\n        /* \"#utility.yul\":28571:28573   */\n      0x40\n        /* \"#utility.yul\":28565:28574   */\n      mload\n        /* \"#utility.yul\":28555:28574   */\n      swap1\n      pop\n        /* \"#utility.yul\":28505:28580   */\n      swap1\n      jump\t// out\n        /* \"#utility.yul\":28586:28893   */\n    tag_536:\n        /* \"#utility.yul\":28647:28651   */\n      0x00\n        /* \"#utility.yul\":28737:28755   */\n      0xffffffffffffffff\n        /* \"#utility.yul\":28729:28735   */\n      dup3\n        /* \"#utility.yul\":28726:28756   */\n      gt\n        /* \"#utility.yul\":28723:28779   */\n      iszero\n      tag_847\n      jumpi\n        /* \"#utility.yul\":28759:28777   */\n      tag_848\n      tag_247\n      jump\t// in\n    tag_848:\n        /* \"#utility.yul\":28723:28779   */\n    tag_847:\n        /* \"#utility.yul\":28797:28826   */\n      tag_849\n        /* \"#utility.yul\":28819:28825   */\n      dup3\n        /* \"#utility.yul\":28797:28826   */\n      tag_670\n      jump\t// in\n    tag_849:\n        /* \"#utility.yul\":28789:28826   */\n      swap1\n      pop\n        /* \"#utility.yul\":28881:28885   */\n      0x20\n        /* \"#utility.yul\":28875:28879   */\n      dup2\n        /* \"#utility.yul\":28871:28886   */\n      add\n        /* \"#utility.yul\":28863:28886   */\n      swap1\n      pop\n        /* \"#utility.yul\":28586:28893   */\n      swap2\n      swap1\n      pop\n      jump\t// out\n        /* \"#utility.yul\":28899:29058   */\n    tag_635:\n        /* \"#utility.yul\":28993:28997   */\n      0x00\n        /* \"#utility.yul\":29016:29019   */\n      dup2\n        /* \"#utility.yul\":29008:29019   */\n      swap1\n      pop\n        /* \"#utility.yul\":29046:29050   */\n      0x20\n        /* \"#utility.yul\":29041:29044   */\n      dup3\n        /* \"#utility.yul\":29037:29051   */\n      add\n        /* \"#utility.yul\":29029:29051   */\n      swap1\n      pop\n        /* \"#utility.yul\":28899:29058   */\n      swap2\n      swap1\n      pop\n      jump\t// out\n        /* \"#utility.yul\":29064:29205   */\n    tag_631:\n        /* \"#utility.yul\":29158:29164   */\n      0x00\n        /* \"#utility.yul\":29192:29197   */\n      dup2\n        /* \"#utility.yul\":29186:29198   */\n      mload\n        /* \"#utility.yul\":29176:29198   */\n      swap1\n      pop\n        /* \"#utility.yul\":29064:29205   */\n      swap2\n      swap1\n      pop\n      jump\t// out\n        /* \"#utility.yul\":29211:29309   */\n    tag_653:\n        /* \"#utility.yul\":29262:29268   */\n      0x00\n        /* \"#utility.yul\":29296:29301   */\n      dup2\n        /* \"#utility.yul\":29290:29302   */\n      mload\n        /* \"#utility.yul\":29280:29302   */\n      swap1\n      pop\n        /* \"#utility.yul\":29211:29309   */\n      swap2\n      swap1\n      pop\n      jump\t// out\n        /* \"#utility.yul\":29315:29414   */\n    tag_665:\n        /* \"#utility.yul\":29367:29373   */\n      0x00\n        /* \"#utility.yul\":29401:29406   */\n      dup2\n        /* \"#utility.yul\":29395:29407   */\n      mload\n        /* \"#utility.yul\":29385:29407   */\n      swap1\n      pop\n        /* \"#utility.yul\":29315:29414   */\n      swap2\n      swap1\n      pop\n      jump\t// out\n        /* \"#utility.yul\":29420:29560   */\n    tag_641:\n        /* \"#utility.yul\":29517:29521   */\n      0x00\n        /* \"#utility.yul\":29549:29553   */\n      0x20\n        /* \"#utility.yul\":29544:29547   */\n      dup3\n        /* \"#utility.yul\":29540:29554   */\n      add\n        /* \"#utility.yul\":29532:29554   */\n      swap1\n      pop\n        /* \"#utility.yul\":29420:29560   */\n      swap2\n      swap1\n      pop\n      jump\t// out\n        /* \"#utility.yul\":29566:29777   */\n    tag_633:\n        /* \"#utility.yul\":29692:29703   */\n      0x00\n        /* \"#utility.yul\":29726:29732   */\n      dup3\n        /* \"#utility.yul\":29721:29724   */\n      dup3\n        /* \"#utility.yul\":29714:29733   */\n      mstore\n        /* \"#utility.yul\":29766:29770   */\n      0x20\n        /* \"#utility.yul\":29761:29764   */\n      dup3\n        /* \"#utility.yul\":29757:29771   */\n      add\n        /* \"#utility.yul\":29742:29771   */\n      swap1\n      pop\n        /* \"#utility.yul\":29566:29777   */\n      swap3\n      swap2\n      pop\n      pop\n      jump\t// out\n        /* \"#utility.yul\":29783:29930   */\n    tag_655:\n        /* \"#utility.yul\":29884:29895   */\n      0x00\n        /* \"#utility.yul\":29921:29924   */\n      dup2\n        /* \"#utility.yul\":29906:29924   */\n      swap1\n      pop\n        /* \"#utility.yul\":29783:29930   */\n      swap3\n      swap2\n      pop\n      pop\n      jump\t// out\n        /* \"#utility.yul\":29936:30095   */\n    tag_667:\n        /* \"#utility.yul\":30010:30021   */\n      0x00\n        /* \"#utility.yul\":30044:30050   */\n      dup3\n        /* \"#utility.yul\":30039:30042   */\n      dup3\n        /* \"#utility.yul\":30032:30051   */\n      mstore\n        /* \"#utility.yul\":30084:30088   */\n      0x20\n        /* \"#utility.yul\":30079:30082   */\n      dup3\n        /* \"#utility.yul\":30075:30089   */\n      add\n        /* \"#utility.yul\":30060:30089   */\n      swap1\n      pop\n        /* \"#utility.yul\":29936:30095   */\n      swap3\n      swap2\n      pop\n      pop\n      jump\t// out\n        /* \"#utility.yul\":30101:30270   */\n    tag_675:\n        /* \"#utility.yul\":30185:30196   */\n      0x00\n        /* \"#utility.yul\":30219:30225   */\n      dup3\n        /* \"#utility.yul\":30214:30217   */\n      dup3\n        /* \"#utility.yul\":30207:30226   */\n      mstore\n        /* \"#utility.yul\":30259:30263   */\n      0x20\n        /* \"#utility.yul\":30254:30257   */\n      dup3\n        /* \"#utility.yul\":30250:30264   */\n      add\n        /* \"#utility.yul\":30235:30264   */\n      swap1\n      pop\n        /* \"#utility.yul\":30101:30270   */\n      swap3\n      swap2\n      pop\n      pop\n      jump\t// out\n        /* \"#utility.yul\":30276:30581   */\n    tag_206:\n        /* \"#utility.yul\":30316:30319   */\n      0x00\n        /* \"#utility.yul\":30335:30355   */\n      tag_860\n        /* \"#utility.yul\":30353:30354   */\n      dup3\n        /* \"#utility.yul\":30335:30355   */\n      tag_771\n      jump\t// in\n    tag_860:\n        /* \"#utility.yul\":30330:30355   */\n      swap2\n      pop\n        /* \"#utility.yul\":30369:30389   */\n      tag_861\n        /* \"#utility.yul\":30387:30388   */\n      dup4\n        /* \"#utility.yul\":30369:30389   */\n      tag_771\n      jump\t// in\n    tag_861:\n        /* \"#utility.yul\":30364:30389   */\n      swap3\n      pop\n        /* \"#utility.yul\":30523:30524   */\n      dup3\n        /* \"#utility.yul\":30455:30521   */\n      0xffffffffffffffffffffffffffffffffffffffffffffffffffffffffffffffff\n        /* \"#utility.yul\":30451:30525   */\n      sub\n        /* \"#utility.yul\":30448:30449   */\n      dup3\n        /* \"#utility.yul\":30445:30526   */\n      gt\n        /* \"#utility.yul\":30442:30549   */\n      iszero\n      tag_862\n      jumpi\n        /* \"#utility.yul\":30529:30547   */\n      tag_863\n      tag_864\n      jump\t// in\n    tag_863:\n        /* \"#utility.yul\":30442:30549   */\n    tag_862:\n        /* \"#utility.yul\":30573:30574   */\n      dup3\n        /* \"#utility.yul\":30570:30571   */\n      dup3\n        /* \"#utility.yul\":30566:30575   */\n      add\n        /* \"#utility.yul\":30559:30575   */\n      swap1\n      pop\n        /* \"#utility.yul\":30276:30581   */\n      swap3\n      swap2\n      pop\n      pop\n      jump\t// out\n        /* \"#utility.yul\":30587:30772   */\n    tag_204:\n        /* \"#utility.yul\":30627:30628   */\n      0x00\n        /* \"#utility.yul\":30644:30664   */\n      tag_866\n        /* \"#utility.yul\":30662:30663   */\n      dup3\n        /* \"#utility.yul\":30644:30664   */\n      tag_771\n      jump\t// in\n    tag_866:\n        /* \"#utility.yul\":30639:30664   */\n      swap2\n      pop\n        /* \"#utility.yul\":30678:30698   */\n      tag_867\n        /* \"#utility.yul\":30696:30697   */\n      dup4\n        /* \"#utility.yul\":30678:30698   */\n      tag_771\n      jump\t// in\n    tag_867:\n        /* \"#utility.yul\":30673:30698   */\n      swap3\n      pop\n        /* \"#utility.yul\":30717:30718   */\n      dup3\n        /* \"#utility.yul\":30707:30742   */\n      tag_868\n      jumpi\n        /* \"#utility.yul\":30722:30740   */\n      tag_869\n      tag_870\n      jump\t// in\n    tag_869:\n        /* \"#utility.yul\":30707:30742   */\n    tag_868:\n        /* \"#utility.yul\":30764:30765   */\n      dup3\n        /* \"#utility.yul\":30761:30762   */\n      dup3\n        /* \"#utility.yul\":30757:30766   */\n      div\n        /* \"#utility.yul\":30752:30766   */\n      swap1\n      pop\n        /* \"#utility.yul\":30587:30772   */\n      swap3\n      swap2\n      pop\n      pop\n      jump\t// out\n        /* \"#utility.yul\":30778:31126   */\n    tag_201:\n        /* \"#utility.yul\":30818:30825   */\n      0x00\n        /* \"#utility.yul\":30841:30861   */\n      tag_872\n        /* \"#utility.yul\":30859:30860   */\n      dup3\n        /* \"#utility.yul\":30841:30861   */\n      tag_771\n      jump\t// in\n    tag_872:\n        /* \"#utility.yul\":30836:30861   */\n      swap2\n      pop\n        /* \"#utility.yul\":30875:30895   */\n      tag_873\n        /* \"#utility.yul\":30893:30894   */\n      dup4\n        /* \"#utility.yul\":30875:30895   */\n      tag_771\n      jump\t// in\n    tag_873:\n        /* \"#utility.yul\":30870:30895   */\n      swap3\n      pop\n        /* \"#utility.yul\":31063:31064   */\n      dup2\n        /* \"#utility.yul\":30995:31061   */\n      0xffffffffffffffffffffffffffffffffffffffffffffffffffffffffffffffff\n        /* \"#utility.yul\":30991:31065   */\n      div\n        /* \"#utility.yul\":30988:30989   */\n      dup4\n        /* \"#utility.yul\":30985:31066   */\n      gt\n        /* \"#utility.yul\":30980:30981   */\n      dup3\n        /* \"#utility.yul\":30973:30982   */\n      iszero\n        /* \"#utility.yul\":30966:30983   */\n      iszero\n        /* \"#utility.yul\":30962:31067   */\n      and\n        /* \"#utility.yul\":30959:31090   */\n      iszero\n      tag_874\n      jumpi\n        /* \"#utility.yul\":31070:31088   */\n      tag_875\n      tag_864\n      jump\t// in\n    tag_875:\n        /* \"#utility.yul\":30959:31090   */\n    tag_874:\n        /* \"#utility.yul\":31118:31119   */\n      dup3\n        /* \"#utility.yul\":31115:31116   */\n      dup3\n        /* \"#utility.yul\":31111:31120   */\n      mul\n        /* \"#utility.yul\":31100:31120   */\n      swap1\n      pop\n        /* \"#utility.yul\":30778:31126   */\n      swap3\n      swap2\n      pop\n      pop\n      jump\t// out\n        /* \"#utility.yul\":31132:31323   */\n    tag_210:\n        /* \"#utility.yul\":31172:31176   */\n      0x00\n        /* \"#utility.yul\":31192:31212   */\n      tag_877\n        /* \"#utility.yul\":31210:31211   */\n      dup3\n        /* \"#utility.yul\":31192:31212   */\n      tag_771\n      jump\t// in\n    tag_877:\n        /* \"#utility.yul\":31187:31212   */\n      swap2\n      pop\n        /* \"#utility.yul\":31226:31246   */\n      tag_878\n        /* \"#utility.yul\":31244:31245   */\n      dup4\n        /* \"#utility.yul\":31226:31246   */\n      tag_771\n      jump\t// in\n    tag_878:\n        /* \"#utility.yul\":31221:31246   */\n      swap3\n      pop\n        /* \"#utility.yul\":31265:31266   */\n      dup3\n        /* \"#utility.yul\":31262:31263   */\n      dup3\n        /* \"#utility.yul\":31259:31267   */\n      lt\n        /* \"#utility.yul\":31256:31290   */\n      iszero\n      tag_879\n      jumpi\n        /* \"#utility.yul\":31270:31288   */\n      tag_880\n      tag_864\n      jump\t// in\n    tag_880:\n        /* \"#utility.yul\":31256:31290   */\n    tag_879:\n        /* \"#utility.yul\":31315:31316   */\n      dup3\n        /* \"#utility.yul\":31312:31313   */\n      dup3\n        /* \"#utility.yul\":31308:31317   */\n      sub\n        /* \"#utility.yul\":31300:31317   */\n      swap1\n      pop\n        /* \"#utility.yul\":31132:31323   */\n      swap3\n      swap2\n      pop\n      pop\n      jump\t// out\n        /* \"#utility.yul\":31329:31425   */\n    tag_627:\n        /* \"#utility.yul\":31366:31373   */\n      0x00\n        /* \"#utility.yul\":31395:31419   */\n      tag_882\n        /* \"#utility.yul\":31413:31418   */\n      dup3\n        /* \"#utility.yul\":31395:31419   */\n      tag_883\n      jump\t// in\n    tag_882:\n        /* \"#utility.yul\":31384:31419   */\n      swap1\n      pop\n        /* \"#utility.yul\":31329:31425   */\n      swap2\n      swap1\n      pop\n      jump\t// out\n        /* \"#utility.yul\":31431:31521   */\n    tag_645:\n        /* \"#utility.yul\":31465:31472   */\n      0x00\n        /* \"#utility.yul\":31508:31513   */\n      dup2\n        /* \"#utility.yul\":31501:31514   */\n      iszero\n        /* \"#utility.yul\":31494:31515   */\n      iszero\n        /* \"#utility.yul\":31483:31515   */\n      swap1\n      pop\n        /* \"#utility.yul\":31431:31521   */\n      swap2\n      swap1\n      pop\n      jump\t// out\n        /* \"#utility.yul\":31527:31604   */\n    tag_649:\n        /* \"#utility.yul\":31564:31571   */\n      0x00\n        /* \"#utility.yul\":31593:31598   */\n      dup2\n        /* \"#utility.yul\":31582:31598   */\n      swap1\n      pop\n        /* \"#utility.yul\":31527:31604   */\n      swap2\n      swap1\n      pop\n      jump\t// out\n        /* \"#utility.yul\":31610:31736   */\n    tag_883:\n        /* \"#utility.yul\":31647:31654   */\n      0x00\n        /* \"#utility.yul\":31687:31729   */\n      0xffffffffffffffffffffffffffffffffffffffff\n        /* \"#utility.yul\":31680:31685   */\n      dup3\n        /* \"#utility.yul\":31676:31730   */\n      and\n        /* \"#utility.yul\":31665:31730   */\n      swap1\n      pop\n        /* \"#utility.yul\":31610:31736   */\n      swap2\n      swap1\n      pop\n      jump\t// out\n        /* \"#utility.yul\":31742:31819   */\n    tag_771:\n        /* \"#utility.yul\":31779:31786   */\n      0x00\n        /* \"#utility.yul\":31808:31813   */\n      dup2\n        /* \"#utility.yul\":31797:31813   */\n      swap1\n      pop\n        /* \"#utility.yul\":31742:31819   */\n      swap2\n      swap1\n      pop\n      jump\t// out\n        /* \"#utility.yul\":31825:31911   */\n    tag_888:\n        /* \"#utility.yul\":31860:31867   */\n      0x00\n        /* \"#utility.yul\":31900:31904   */\n      0xff\n        /* \"#utility.yul\":31893:31898   */\n      dup3\n        /* \"#utility.yul\":31889:31905   */\n      and\n        /* \"#utility.yul\":31878:31905   */\n      swap1\n      pop\n        /* \"#utility.yul\":31825:31911   */\n      swap2\n      swap1\n      pop\n      jump\t// out\n        /* \"#utility.yul\":31917:32034   */\n    tag_661:\n        /* \"#utility.yul\":31973:31982   */\n      0x00\n        /* \"#utility.yul\":32006:32028   */\n      tag_891\n        /* \"#utility.yul\":32022:32027   */\n      dup3\n        /* \"#utility.yul\":32006:32028   */\n      tag_888\n      jump\t// in\n    tag_891:\n        /* \"#utility.yul\":31993:32028   */\n      swap1\n      pop\n        /* \"#utility.yul\":31917:32034   */\n      swap2\n      swap1\n      pop\n      jump\t// out\n        /* \"#utility.yul\":32040:32194   */\n    tag_542:\n        /* \"#utility.yul\":32124:32130   */\n      dup3\n        /* \"#utility.yul\":32119:32122   */\n      dup2\n        /* \"#utility.yul\":32114:32117   */\n      dup4\n        /* \"#utility.yul\":32101:32131   */\n      calldatacopy\n        /* \"#utility.yul\":32186:32187   */\n      0x00\n        /* \"#utility.yul\":32177:32183   */\n      dup4\n        /* \"#utility.yul\":32172:32175   */\n      dup4\n        /* \"#utility.yul\":32168:32184   */\n      add\n        /* \"#utility.yul\":32161:32188   */\n      mstore\n        /* \"#utility.yul\":32040:32194   */\n      pop\n      pop\n      pop\n      jump\t// out\n        /* \"#utility.yul\":32200:32507   */\n    tag_657:\n        /* \"#utility.yul\":32268:32269   */\n      0x00\n        /* \"#utility.yul\":32278:32391   */\n    tag_894:\n        /* \"#utility.yul\":32292:32298   */\n      dup4\n        /* \"#utility.yul\":32289:32290   */\n      dup2\n        /* \"#utility.yul\":32286:32299   */\n      lt\n        /* \"#utility.yul\":32278:32391   */\n      iszero\n      tag_896\n      jumpi\n        /* \"#utility.yul\":32377:32378   */\n      dup1\n        /* \"#utility.yul\":32372:32375   */\n      dup3\n        /* \"#utility.yul\":32368:32379   */\n      add\n        /* \"#utility.yul\":32362:32380   */\n      mload\n        /* \"#utility.yul\":32358:32359   */\n      dup2\n        /* \"#utility.yul\":32353:32356   */\n      dup5\n        /* \"#utility.yul\":32349:32360   */\n      add\n        /* \"#utility.yul\":32342:32381   */\n      mstore\n        /* \"#utility.yul\":32314:32316   */\n      0x20\n        /* \"#utility.yul\":32311:32312   */\n      dup2\n        /* \"#utility.yul\":32307:32317   */\n      add\n        /* \"#utility.yul\":32302:32317   */\n      swap1\n      pop\n        /* \"#utility.yul\":32278:32391   */\n      jump(tag_894)\n    tag_896:\n        /* \"#utility.yul\":32409:32415   */\n      dup4\n        /* \"#utility.yul\":32406:32407   */\n      dup2\n        /* \"#utility.yul\":32403:32416   */\n      gt\n        /* \"#utility.yul\":32400:32501   */\n      iszero\n      tag_897\n      jumpi\n        /* \"#utility.yul\":32489:32490   */\n      0x00\n        /* \"#utility.yul\":32480:32486   */\n      dup5\n        /* \"#utility.yul\":32475:32478   */\n      dup5\n        /* \"#utility.yul\":32471:32487   */\n      add\n        /* \"#utility.yul\":32464:32491   */\n      mstore\n        /* \"#utility.yul\":32400:32501   */\n    tag_897:\n        /* \"#utility.yul\":32249:32507   */\n      pop\n        /* \"#utility.yul\":32200:32507   */\n      pop\n      pop\n      pop\n      jump\t// out\n        /* \"#utility.yul\":32513:32833   */\n    tag_230:\n        /* \"#utility.yul\":32557:32563   */\n      0x00\n        /* \"#utility.yul\":32594:32595   */\n      0x02\n        /* \"#utility.yul\":32588:32592   */\n      dup3\n        /* \"#utility.yul\":32584:32596   */\n      div\n        /* \"#utility.yul\":32574:32596   */\n      swap1\n      pop\n        /* \"#utility.yul\":32641:32642   */\n      0x01\n        /* \"#utility.yul\":32635:32639   */\n      dup3\n        /* \"#utility.yul\":32631:32643   */\n      and\n        /* \"#utility.yul\":32662:32680   */\n      dup1\n        /* \"#utility.yul\":32652:32733   */\n      tag_899\n      jumpi\n        /* \"#utility.yul\":32718:32722   */\n      0x7f\n        /* \"#utility.yul\":32710:32716   */\n      dup3\n        /* \"#utility.yul\":32706:32723   */\n      and\n        /* \"#utility.yul\":32696:32723   */\n      swap2\n      pop\n        /* \"#utility.yul\":32652:32733   */\n    tag_899:\n        /* \"#utility.yul\":32780:32782   */\n      0x20\n        /* \"#utility.yul\":32772:32778   */\n      dup3\n        /* \"#utility.yul\":32769:32783   */\n      lt\n        /* \"#utility.yul\":32749:32767   */\n      dup2\n        /* \"#utility.yul\":32746:32784   */\n      eq\n        /* \"#utility.yul\":32743:32827   */\n      iszero\n      tag_900\n      jumpi\n        /* \"#utility.yul\":32799:32817   */\n      tag_901\n      tag_902\n      jump\t// in\n    tag_901:\n        /* \"#utility.yul\":32743:32827   */\n    tag_900:\n        /* \"#utility.yul\":32564:32833   */\n      pop\n        /* \"#utility.yul\":32513:32833   */\n      swap2\n      swap1\n      pop\n      jump\t// out\n        /* \"#utility.yul\":32839:33120   */\n    tag_844:\n        /* \"#utility.yul\":32922:32949   */\n      tag_904\n        /* \"#utility.yul\":32944:32948   */\n      dup3\n        /* \"#utility.yul\":32922:32949   */\n      tag_670\n      jump\t// in\n    tag_904:\n        /* \"#utility.yul\":32914:32920   */\n      dup2\n        /* \"#utility.yul\":32910:32950   */\n      add\n        /* \"#utility.yul\":33052:33058   */\n      dup2\n        /* \"#utility.yul\":33040:33050   */\n      dup2\n        /* \"#utility.yul\":33037:33059   */\n      lt\n        /* \"#utility.yul\":33016:33034   */\n      0xffffffffffffffff\n        /* \"#utility.yul\":33004:33014   */\n      dup3\n        /* \"#utility.yul\":33001:33035   */\n      gt\n        /* \"#utility.yul\":32998:33060   */\n      or\n        /* \"#utility.yul\":32995:33083   */\n      iszero\n      tag_905\n      jumpi\n        /* \"#utility.yul\":33063:33081   */\n      tag_906\n      tag_247\n      jump\t// in\n    tag_906:\n        /* \"#utility.yul\":32995:33083   */\n    tag_905:\n        /* \"#utility.yul\":33103:33113   */\n      dup1\n        /* \"#utility.yul\":33099:33101   */\n      0x40\n        /* \"#utility.yul\":33092:33114   */\n      mstore\n        /* \"#utility.yul\":32882:33120   */\n      pop\n        /* \"#utility.yul\":32839:33120   */\n      pop\n      pop\n      jump\t// out\n        /* \"#utility.yul\":33126:33359   */\n    tag_263:\n        /* \"#utility.yul\":33165:33168   */\n      0x00\n        /* \"#utility.yul\":33188:33212   */\n      tag_908\n        /* \"#utility.yul\":33206:33211   */\n      dup3\n        /* \"#utility.yul\":33188:33212   */\n      tag_771\n      jump\t// in\n    tag_908:\n        /* \"#utility.yul\":33179:33212   */\n      swap2\n      pop\n        /* \"#utility.yul\":33234:33300   */\n      0xffffffffffffffffffffffffffffffffffffffffffffffffffffffffffffffff\n        /* \"#utility.yul\":33227:33232   */\n      dup3\n        /* \"#utility.yul\":33224:33301   */\n      eq\n        /* \"#utility.yul\":33221:33324   */\n      iszero\n      tag_909\n      jumpi\n        /* \"#utility.yul\":33304:33322   */\n      tag_910\n      tag_864\n      jump\t// in\n    tag_910:\n        /* \"#utility.yul\":33221:33324   */\n    tag_909:\n        /* \"#utility.yul\":33351:33352   */\n      0x01\n        /* \"#utility.yul\":33344:33349   */\n      dup3\n        /* \"#utility.yul\":33340:33353   */\n      add\n        /* \"#utility.yul\":33333:33353   */\n      swap1\n      pop\n        /* \"#utility.yul\":33126:33359   */\n      swap2\n      swap1\n      pop\n      jump\t// out\n        /* \"#utility.yul\":33365:33545   */\n    tag_864:\n        /* \"#utility.yul\":33413:33490   */\n      0x4e487b7100000000000000000000000000000000000000000000000000000000\n        /* \"#utility.yul\":33410:33411   */\n      0x00\n        /* \"#utility.yul\":33403:33491   */\n      mstore\n        /* \"#utility.yul\":33510:33514   */\n      0x11\n        /* \"#utility.yul\":33507:33508   */\n      0x04\n        /* \"#utility.yul\":33500:33515   */\n      mstore\n        /* \"#utility.yul\":33534:33538   */\n      0x24\n        /* \"#utility.yul\":33531:33532   */\n      0x00\n        /* \"#utility.yul\":33524:33539   */\n      revert\n        /* \"#utility.yul\":33551:33731   */\n    tag_870:\n        /* \"#utility.yul\":33599:33676   */\n      0x4e487b7100000000000000000000000000000000000000000000000000000000\n        /* \"#utility.yul\":33596:33597   */\n      0x00\n        /* \"#utility.yul\":33589:33677   */\n      mstore\n        /* \"#utility.yul\":33696:33700   */\n      0x12\n        /* \"#utility.yul\":33693:33694   */\n      0x04\n        /* \"#utility.yul\":33686:33701   */\n      mstore\n        /* \"#utility.yul\":33720:33724   */\n      0x24\n        /* \"#utility.yul\":33717:33718   */\n      0x00\n        /* \"#utility.yul\":33710:33725   */\n      revert\n        /* \"#utility.yul\":33737:33917   */\n    tag_902:\n        /* \"#utility.yul\":33785:33862   */\n      0x4e487b7100000000000000000000000000000000000000000000000000000000\n        /* \"#utility.yul\":33782:33783   */\n      0x00\n        /* \"#utility.yul\":33775:33863   */\n      mstore\n        /* \"#utility.yul\":33882:33886   */\n      0x22\n        /* \"#utility.yul\":33879:33880   */\n      0x04\n        /* \"#utility.yul\":33872:33887   */\n      mstore\n        /* \"#utility.yul\":33906:33910   */\n      0x24\n        /* \"#utility.yul\":33903:33904   */\n      0x00\n        /* \"#utility.yul\":33896:33911   */\n      revert\n        /* \"#utility.yul\":33923:34103   */\n    tag_259:\n        /* \"#utility.yul\":33971:34048   */\n      0x4e487b7100000000000000000000000000000000000000000000000000000000\n        /* \"#utility.yul\":33968:33969   */\n      0x00\n        /* \"#utility.yul\":33961:34049   */\n      mstore\n        /* \"#utility.yul\":34068:34072   */\n      0x32\n        /* \"#utility.yul\":34065:34066   */\n      0x04\n        /* \"#utility.yul\":34058:34073   */\n      mstore\n        /* \"#utility.yul\":34092:34096   */\n      0x24\n        /* \"#utility.yul\":34089:34090   */\n      0x00\n        /* \"#utility.yul\":34082:34097   */\n      revert\n        /* \"#utility.yul\":34109:34289   */\n    tag_247:\n        /* \"#utility.yul\":34157:34234   */\n      0x4e487b7100000000000000000000000000000000000000000000000000000000\n        /* \"#utility.yul\":34154:34155   */\n      0x00\n        /* \"#utility.yul\":34147:34235   */\n      mstore\n        /* \"#utility.yul\":34254:34258   */\n      0x41\n        /* \"#utility.yul\":34251:34252   */\n      0x04\n        /* \"#utility.yul\":34244:34259   */\n      mstore\n        /* \"#utility.yul\":34278:34282   */\n      0x24\n        /* \"#utility.yul\":34275:34276   */\n      0x00\n        /* \"#utility.yul\":34268:34283   */\n      revert\n        /* \"#utility.yul\":34295:34412   */\n    tag_559:\n        /* \"#utility.yul\":34404:34405   */\n      0x00\n        /* \"#utility.yul\":34401:34402   */\n      dup1\n        /* \"#utility.yul\":34394:34406   */\n      revert\n        /* \"#utility.yul\":34418:34535   */\n    tag_540:\n        /* \"#utility.yul\":34527:34528   */\n      0x00\n        /* \"#utility.yul\":34524:34525   */\n      dup1\n        /* \"#utility.yul\":34517:34529   */\n      revert\n        /* \"#utility.yul\":34541:34658   */\n    tag_584:\n        /* \"#utility.yul\":34650:34651   */\n      0x00\n        /* \"#utility.yul\":34647:34648   */\n      dup1\n        /* \"#utility.yul\":34640:34652   */\n      revert\n        /* \"#utility.yul\":34664:34781   */\n    tag_571:\n        /* \"#utility.yul\":34773:34774   */\n      0x00\n        /* \"#utility.yul\":34770:34771   */\n      dup1\n        /* \"#utility.yul\":34763:34775   */\n      revert\n        /* \"#utility.yul\":34787:34889   */\n    tag_670:\n        /* \"#utility.yul\":34828:34834   */\n      0x00\n        /* \"#utility.yul\":34879:34881   */\n      0x1f\n        /* \"#utility.yul\":34875:34882   */\n      not\n        /* \"#utility.yul\":34870:34872   */\n      0x1f\n        /* \"#utility.yul\":34863:34868   */\n      dup4\n        /* \"#utility.yul\":34859:34873   */\n      add\n        /* \"#utility.yul\":34855:34883   */\n      and\n        /* \"#utility.yul\":34845:34883   */\n      swap1\n      pop\n        /* \"#utility.yul\":34787:34889   */\n      swap2\n      swap1\n      pop\n      jump\t// out\n        /* \"#utility.yul\":34895:35058   */\n    tag_682:\n        /* \"#utility.yul\":35035:35050   */\n      0x4f564552464c4f575f5041474500000000000000000000000000000000000000\n        /* \"#utility.yul\":35031:35032   */\n      0x00\n        /* \"#utility.yul\":35023:35029   */\n      dup3\n        /* \"#utility.yul\":35019:35033   */\n      add\n        /* \"#utility.yul\":35012:35051   */\n      mstore\n        /* \"#utility.yul\":34895:35058   */\n      pop\n      jump\t// out\n        /* \"#utility.yul\":35064:35289   */\n    tag_687:\n        /* \"#utility.yul\":35204:35238   */\n      0x4f776e61626c653a206e6577206f776e657220697320746865207a65726f2061\n        /* \"#utility.yul\":35200:35201   */\n      0x00\n        /* \"#utility.yul\":35192:35198   */\n      dup3\n        /* \"#utility.yul\":35188:35202   */\n      add\n        /* \"#utility.yul\":35181:35239   */\n      mstore\n        /* \"#utility.yul\":35273:35281   */\n      0x6464726573730000000000000000000000000000000000000000000000000000\n        /* \"#utility.yul\":35268:35270   */\n      0x20\n        /* \"#utility.yul\":35260:35266   */\n      dup3\n        /* \"#utility.yul\":35256:35271   */\n      add\n        /* \"#utility.yul\":35249:35282   */\n      mstore\n        /* \"#utility.yul\":35064:35289   */\n      pop\n      jump\t// out\n        /* \"#utility.yul\":35295:35457   */\n    tag_692:\n        /* \"#utility.yul\":35435:35449   */\n      0x5a45524f5f42414c414e43450000000000000000000000000000000000000000\n        /* \"#utility.yul\":35431:35432   */\n      0x00\n        /* \"#utility.yul\":35423:35429   */\n      dup3\n        /* \"#utility.yul\":35419:35433   */\n      add\n        /* \"#utility.yul\":35412:35450   */\n      mstore\n        /* \"#utility.yul\":35295:35457   */\n      pop\n      jump\t// out\n        /* \"#utility.yul\":35463:35694   */\n    tag_697:\n        /* \"#utility.yul\":35603:35637   */\n      0x46756e6374696f6e206d7573742062652063616c6c6564207468726f75676820\n        /* \"#utility.yul\":35599:35600   */\n      0x00\n        /* \"#utility.yul\":35591:35597   */\n      dup3\n        /* \"#utility.yul\":35587:35601   */\n      add\n        /* \"#utility.yul\":35580:35638   */\n      mstore\n        /* \"#utility.yul\":35672:35686   */\n      0x64656c656761746563616c6c0000000000000000000000000000000000000000\n        /* \"#utility.yul\":35667:35669   */\n      0x20\n        /* \"#utility.yul\":35659:35665   */\n      dup3\n        /* \"#utility.yul\":35655:35670   */\n      add\n        /* \"#utility.yul\":35648:35687   */\n      mstore\n        /* \"#utility.yul\":35463:35694   */\n      pop\n      jump\t// out\n        /* \"#utility.yul\":35700:35931   */\n    tag_702:\n        /* \"#utility.yul\":35840:35874   */\n      0x46756e6374696f6e206d7573742062652063616c6c6564207468726f75676820\n        /* \"#utility.yul\":35836:35837   */\n      0x00\n        /* \"#utility.yul\":35828:35834   */\n      dup3\n        /* \"#utility.yul\":35824:35838   */\n      add\n        /* \"#utility.yul\":35817:35875   */\n      mstore\n        /* \"#utility.yul\":35909:35923   */\n      0x6163746976652070726f78790000000000000000000000000000000000000000\n        /* \"#utility.yul\":35904:35906   */\n      0x20\n        /* \"#utility.yul\":35896:35902   */\n      dup3\n        /* \"#utility.yul\":35892:35907   */\n      add\n        /* \"#utility.yul\":35885:35924   */\n      mstore\n        /* \"#utility.yul\":35700:35931   */\n      pop\n      jump\t// out\n        /* \"#utility.yul\":35937:36115   */\n    tag_707:\n        /* \"#utility.yul\":36077:36107   */\n      0x57697468647261773a20416d6f756e74206d757374206265203e203000000000\n        /* \"#utility.yul\":36073:36074   */\n      0x00\n        /* \"#utility.yul\":36065:36071   */\n      dup3\n        /* \"#utility.yul\":36061:36075   */\n      add\n        /* \"#utility.yul\":36054:36108   */\n      mstore\n        /* \"#utility.yul\":35937:36115   */\n      pop\n      jump\t// out\n        /* \"#utility.yul\":36121:36364   */\n    tag_712:\n        /* \"#utility.yul\":36261:36295   */\n      0x555550535570677261646561626c653a206d757374206e6f742062652063616c\n        /* \"#utility.yul\":36257:36258   */\n      0x00\n        /* \"#utility.yul\":36249:36255   */\n      dup3\n        /* \"#utility.yul\":36245:36259   */\n      add\n        /* \"#utility.yul\":36238:36296   */\n      mstore\n        /* \"#utility.yul\":36330:36356   */\n      0x6c6564207468726f7567682064656c656761746563616c6c0000000000000000\n        /* \"#utility.yul\":36325:36327   */\n      0x20\n        /* \"#utility.yul\":36317:36323   */\n      dup3\n        /* \"#utility.yul\":36313:36328   */\n      add\n        /* \"#utility.yul\":36306:36357   */\n      mstore\n        /* \"#utility.yul\":36121:36364   */\n      pop\n      jump\t// out\n        /* \"#utility.yul\":36370:36598   */\n    tag_717:\n        /* \"#utility.yul\":36510:36544   */\n      0x45524331393637557067726164653a20756e737570706f727465642070726f78\n        /* \"#utility.yul\":36506:36507   */\n      0x00\n        /* \"#utility.yul\":36498:36504   */\n      dup3\n        /* \"#utility.yul\":36494:36508   */\n      add\n        /* \"#utility.yul\":36487:36545   */\n      mstore\n        /* \"#utility.yul\":36579:36590   */\n      0x6961626c65555549440000000000000000000000000000000000000000000000\n        /* \"#utility.yul\":36574:36576   */\n      0x20\n        /* \"#utility.yul\":36566:36572   */\n      dup3\n        /* \"#utility.yul\":36562:36577   */\n      add\n        /* \"#utility.yul\":36555:36591   */\n      mstore\n        /* \"#utility.yul\":36370:36598   */\n      pop\n      jump\t// out\n        /* \"#utility.yul\":36604:36837   */\n    tag_722:\n        /* \"#utility.yul\":36744:36778   */\n      0x496e697469616c697a61626c653a20636f6e747261637420697320616c726561\n        /* \"#utility.yul\":36740:36741   */\n      0x00\n        /* \"#utility.yul\":36732:36738   */\n      dup3\n        /* \"#utility.yul\":36728:36742   */\n      add\n        /* \"#utility.yul\":36721:36779   */\n      mstore\n        /* \"#utility.yul\":36813:36829   */\n      0x647920696e697469616c697a6564000000000000000000000000000000000000\n        /* \"#utility.yul\":36808:36810   */\n      0x20\n        /* \"#utility.yul\":36800:36806   */\n      dup3\n        /* \"#utility.yul\":36796:36811   */\n      add\n        /* \"#utility.yul\":36789:36830   */\n      mstore\n        /* \"#utility.yul\":36604:36837   */\n      pop\n      jump\t// out\n        /* \"#utility.yul\":36843:37076   */\n    tag_727:\n        /* \"#utility.yul\":36983:37017   */\n      0x45524331393637557067726164653a206e657720696d706c656d656e74617469\n        /* \"#utility.yul\":36979:36980   */\n      0x00\n        /* \"#utility.yul\":36971:36977   */\n      dup3\n        /* \"#utility.yul\":36967:36981   */\n      add\n        /* \"#utility.yul\":36960:37018   */\n      mstore\n        /* \"#utility.yul\":37052:37068   */\n      0x6f6e206973206e6f742055555053000000000000000000000000000000000000\n        /* \"#utility.yul\":37047:37049   */\n      0x20\n        /* \"#utility.yul\":37039:37045   */\n      dup3\n        /* \"#utility.yul\":37035:37050   */\n      add\n        /* \"#utility.yul\":37028:37069   */\n      mstore\n        /* \"#utility.yul\":36843:37076   */\n      pop\n      jump\t// out\n        /* \"#utility.yul\":37082:37314   */\n    tag_732:\n        /* \"#utility.yul\":37222:37256   */\n      0x455243313936373a206e657720696d706c656d656e746174696f6e206973206e\n        /* \"#utility.yul\":37218:37219   */\n      0x00\n        /* \"#utility.yul\":37210:37216   */\n      dup3\n        /* \"#utility.yul\":37206:37220   */\n      add\n        /* \"#utility.yul\":37199:37257   */\n      mstore\n        /* \"#utility.yul\":37291:37306   */\n      0x6f74206120636f6e747261637400000000000000000000000000000000000000\n        /* \"#utility.yul\":37286:37288   */\n      0x20\n        /* \"#utility.yul\":37278:37284   */\n      dup3\n        /* \"#utility.yul\":37274:37289   */\n      add\n        /* \"#utility.yul\":37267:37307   */\n      mstore\n        /* \"#utility.yul\":37082:37314   */\n      pop\n      jump\t// out\n        /* \"#utility.yul\":37320:37502   */\n    tag_737:\n        /* \"#utility.yul\":37460:37494   */\n      0x4f776e61626c653a2063616c6c6572206973206e6f7420746865206f776e6572\n        /* \"#utility.yul\":37456:37457   */\n      0x00\n        /* \"#utility.yul\":37448:37454   */\n      dup3\n        /* \"#utility.yul\":37444:37458   */\n      add\n        /* \"#utility.yul\":37437:37495   */\n      mstore\n        /* \"#utility.yul\":37320:37502   */\n      pop\n      jump\t// out\n        /* \"#utility.yul\":37508:37733   */\n    tag_742:\n        /* \"#utility.yul\":37648:37682   */\n      0x416464726573733a2064656c65676174652063616c6c20746f206e6f6e2d636f\n        /* \"#utility.yul\":37644:37645   */\n      0x00\n        /* \"#utility.yul\":37636:37642   */\n      dup3\n        /* \"#utility.yul\":37632:37646   */\n      add\n        /* \"#utility.yul\":37625:37683   */\n      mstore\n        /* \"#utility.yul\":37717:37725   */\n      0x6e74726163740000000000000000000000000000000000000000000000000000\n        /* \"#utility.yul\":37712:37714   */\n      0x20\n        /* \"#utility.yul\":37704:37710   */\n      dup3\n        /* \"#utility.yul\":37700:37715   */\n      add\n        /* \"#utility.yul\":37693:37726   */\n      mstore\n        /* \"#utility.yul\":37508:37733   */\n      pop\n      jump\t// out\n        /* \"#utility.yul\":37739:37906   */\n    tag_747:\n        /* \"#utility.yul\":37879:37898   */\n      0x7374616b652074696d65206973206f7574000000000000000000000000000000\n        /* \"#utility.yul\":37875:37876   */\n      0x00\n        /* \"#utility.yul\":37867:37873   */\n      dup3\n        /* \"#utility.yul\":37863:37877   */\n      add\n        /* \"#utility.yul\":37856:37899   */\n      mstore\n        /* \"#utility.yul\":37739:37906   */\n      pop\n      jump\t// out\n        /* \"#utility.yul\":37912:38142   */\n    tag_752:\n        /* \"#utility.yul\":38052:38086   */\n      0x496e697469616c697a61626c653a20636f6e7472616374206973206e6f742069\n        /* \"#utility.yul\":38048:38049   */\n      0x00\n        /* \"#utility.yul\":38040:38046   */\n      dup3\n        /* \"#utility.yul\":38036:38050   */\n      add\n        /* \"#utility.yul\":38029:38087   */\n      mstore\n        /* \"#utility.yul\":38121:38134   */\n      0x6e697469616c697a696e67000000000000000000000000000000000000000000\n        /* \"#utility.yul\":38116:38118   */\n      0x20\n        /* \"#utility.yul\":38108:38114   */\n      dup3\n        /* \"#utility.yul\":38104:38119   */\n      add\n        /* \"#utility.yul\":38097:38135   */\n      mstore\n        /* \"#utility.yul\":37912:38142   */\n      pop\n      jump\t// out\n        /* \"#utility.yul\":38148:38325   */\n    tag_757:\n        /* \"#utility.yul\":38288:38317   */\n      0x4465706f7369743a20416d6f756e74206d757374206265203e20300000000000\n        /* \"#utility.yul\":38284:38285   */\n      0x00\n        /* \"#utility.yul\":38276:38282   */\n      dup3\n        /* \"#utility.yul\":38272:38286   */\n      add\n        /* \"#utility.yul\":38265:38318   */\n      mstore\n        /* \"#utility.yul\":38148:38325   */\n      pop\n      jump\t// out\n        /* \"#utility.yul\":38331:38453   */\n    tag_546:\n        /* \"#utility.yul\":38404:38428   */\n      tag_938\n        /* \"#utility.yul\":38422:38427   */\n      dup2\n        /* \"#utility.yul\":38404:38428   */\n      tag_627\n      jump\t// in\n    tag_938:\n        /* \"#utility.yul\":38397:38402   */\n      dup2\n        /* \"#utility.yul\":38394:38429   */\n      eq\n        /* \"#utility.yul\":38384:38447   */\n      tag_939\n      jumpi\n        /* \"#utility.yul\":38443:38444   */\n      0x00\n        /* \"#utility.yul\":38440:38441   */\n      dup1\n        /* \"#utility.yul\":38433:38445   */\n      revert\n        /* \"#utility.yul\":38384:38447   */\n    tag_939:\n        /* \"#utility.yul\":38331:38453   */\n      pop\n      jump\t// out\n        /* \"#utility.yul\":38459:38575   */\n    tag_550:\n        /* \"#utility.yul\":38529:38550   */\n      tag_941\n        /* \"#utility.yul\":38544:38549   */\n      dup2\n        /* \"#utility.yul\":38529:38550   */\n      tag_645\n      jump\t// in\n    tag_941:\n        /* \"#utility.yul\":38522:38527   */\n      dup2\n        /* \"#utility.yul\":38519:38551   */\n      eq\n        /* \"#utility.yul\":38509:38569   */\n      tag_942\n      jumpi\n        /* \"#utility.yul\":38565:38566   */\n      0x00\n        /* \"#utility.yul\":38562:38563   */\n      dup1\n        /* \"#utility.yul\":38555:38567   */\n      revert\n        /* \"#utility.yul\":38509:38569   */\n    tag_942:\n        /* \"#utility.yul\":38459:38575   */\n      pop\n      jump\t// out\n        /* \"#utility.yul\":38581:38703   */\n    tag_554:\n        /* \"#utility.yul\":38654:38678   */\n      tag_944\n        /* \"#utility.yul\":38672:38677   */\n      dup2\n        /* \"#utility.yul\":38654:38678   */\n      tag_649\n      jump\t// in\n    tag_944:\n        /* \"#utility.yul\":38647:38652   */\n      dup2\n        /* \"#utility.yul\":38644:38679   */\n      eq\n        /* \"#utility.yul\":38634:38697   */\n      tag_945\n      jumpi\n        /* \"#utility.yul\":38693:38694   */\n      0x00\n        /* \"#utility.yul\":38690:38691   */\n      dup1\n        /* \"#utility.yul\":38683:38695   */\n      revert\n        /* \"#utility.yul\":38634:38697   */\n    tag_945:\n        /* \"#utility.yul\":38581:38703   */\n      pop\n      jump\t// out\n        /* \"#utility.yul\":38709:38831   */\n    tag_564:\n        /* \"#utility.yul\":38782:38806   */\n      tag_947\n        /* \"#utility.yul\":38800:38805   */\n      dup2\n        /* \"#utility.yul\":38782:38806   */\n      tag_771\n      jump\t// in\n    tag_947:\n        /* \"#utility.yul\":38775:38780   */\n      dup2\n        /* \"#utility.yul\":38772:38807   */\n      eq\n        /* \"#utility.yul\":38762:38825   */\n      tag_948\n      jumpi\n        /* \"#utility.yul\":38821:38822   */\n      0x00\n        /* \"#utility.yul\":38818:38819   */\n      dup1\n        /* \"#utility.yul\":38811:38823   */\n      revert\n        /* \"#utility.yul\":38762:38825   */\n    tag_948:\n        /* \"#utility.yul\":38709:38831   */\n      pop\n      jump\t// out\n    stop\n    data_9fdcd12e4b726339b32a442b0a448365d5d85c96b2d2cff917b4f66c63110398 416464726573733a206c6f772d6c6576656c2064656c65676174652063616c6c206661696c6564\n\n    auxdata: 0xa2646970667358221220a147cd319e98801cf4abb28c0feeb7f44df5e2833efc3c49dbcec346663c545864736f6c63430008070033\n}\n",
				"bytecode": {
					"linkReferences": {},
					"object": "60a06040523073ffffffffffffffffffffffffffffffffffffffff1660809073ffffffffffffffffffffffffffffffffffffffff1660601b8152503480156200004757600080fd5b50620000586200005e60201b60201c565b62000209565b600060019054906101000a900460ff1615620000b1576040517f08c379a0000000000000000000000000000000000000000000000000000000008152600401620000a8906200015d565b60405180910390fd5b60ff801660008054906101000a900460ff1660ff161015620001235760ff6000806101000a81548160ff021916908360ff1602179055507f7f26b83ff96e1f2b6a682f133852f6798a09c465da95921460cefb384740249860ff6040516200011a91906200017f565b60405180910390a15b565b6000620001346027836200019c565b91506200014182620001ba565b604082019050919050565b6200015781620001ad565b82525050565b60006020820190508181036000830152620001788162000125565b9050919050565b60006020820190506200019660008301846200014c565b92915050565b600082825260208201905092915050565b600060ff82169050919050565b7f496e697469616c697a61626c653a20636f6e747261637420697320696e69746960008201527f616c697a696e6700000000000000000000000000000000000000000000000000602082015250565b60805160601c613e326200024460003960008181610d8001528181610e0f01528181611153015281816111e201526112920152613e326000f3fe6080604052600436106101e75760003560e01c8063682458bd11610102578063b6b55f2511610095578063dff6978711610064578063dff697871461071b578063f2fde38b14610746578063f5938baf1461076f578063fe961f611461079a576101ee565b8063b6b55f251461065f578063c12e850e14610688578063ccd34cd5146106c5578063d8c68017146106f0576101ee565b80638da5cb5b116100d15780638da5cb5b146105a15780638e356d7a146105cc5780638f66291514610609578063a9f8d18114610634576101ee565b8063682458bd146104f9578063715018a61461053657806372f4b2d41461054d578063853828b61461058a576101ee565b806339b3e8261161017a57806352d1902d1161014957806352d1902d1461043d5780635a9477e9146104685780636386c1c71461049357806367decd41146104d0576101ee565b806339b3e826146103905780633aecd0e3146103bb5780634ec81af1146103f85780634f1ef28614610421576101ee565b80631959a002116101b65780631959a002146102c15780632cb234ac146103015780632d3f99ee1461033e5780633659cfe614610367576101ee565b8063055ad42e146101f0578063083c63231461021b578063097aad1014610246578063173379a514610284576101ee565b366101ee57005b005b3480156101fc57600080fd5b506102056107c5565b604051610212919061348e565b60405180910390f35b34801561022757600080fd5b506102306107cb565b60405161023d919061348e565b60405180910390f35b34801561025257600080fd5b5061026d60048036038101906102689190612a7a565b6107d1565b60405161027b9291906134a9565b60405180910390f35b34801561029057600080fd5b506102ab60048036038101906102a69190612a7a565b6109a9565b6040516102b89190613200565b60405180910390f35b3480156102cd57600080fd5b506102e860048036038101906102e39190612a7a565b610a47565b6040516102f894939291906134d2565b60405180910390f35b34801561030d57600080fd5b5061032860048036038101906103239190612c9e565b610a77565b60405161033591906131de565b60405180910390f35b34801561034a57600080fd5b5061036560048036038101906103609190612c04565b610d6c565b005b34801561037357600080fd5b5061038e60048036038101906103899190612a7a565b610d7e565b005b34801561039c57600080fd5b506103a5610f07565b6040516103b2919061348e565b60405180910390f35b3480156103c757600080fd5b506103e260048036038101906103dd9190612a7a565b610f0d565b6040516103ef919061348e565b60405180910390f35b34801561040457600080fd5b5061041f600480360381019061041a9190612b43565b610f9f565b005b61043b60048036038101906104369190612ae7565b611151565b005b34801561044957600080fd5b5061045261128e565b60405161045f919061321b565b60405180910390f35b34801561047457600080fd5b5061047d611347565b60405161048a919061348e565b60405180910390f35b34801561049f57600080fd5b506104ba60048036038101906104b59190612a7a565b61134d565b6040516104c79190613473565b60405180910390f35b3480156104dc57600080fd5b506104f760048036038101906104f29190612c04565b611451565b005b34801561050557600080fd5b50610520600480360381019061051b9190612aa7565b611463565b60405161052d9190613200565b60405180910390f35b34801561054257600080fd5b5061054b61158d565b005b34801561055957600080fd5b50610574600480360381019061056f9190612a7a565b6115a1565b604051610581919061348e565b60405180910390f35b34801561059657600080fd5b5061059f6115f2565b005b3480156105ad57600080fd5b506105b6611af9565b6040516105c39190613163565b60405180910390f35b3480156105d857600080fd5b506105f360048036038101906105ee9190612c5e565b611b23565b604051610600919061348e565b60405180910390f35b34801561061557600080fd5b5061061e611b6a565b60405161062b919061348e565b60405180910390f35b34801561064057600080fd5b50610649611b70565b604051610656919061348e565b60405180910390f35b34801561066b57600080fd5b5061068660048036038101906106819190612c04565b611b76565b005b34801561069457600080fd5b506106af60048036038101906106aa9190612a7a565b61201d565b6040516106bc9190613200565b60405180910390f35b3480156106d157600080fd5b506106da61203d565b6040516106e7919061348e565b60405180910390f35b3480156106fc57600080fd5b50610705612046565b6040516107129190613163565b60405180910390f35b34801561072757600080fd5b5061073061206c565b60405161073d919061348e565b60405180910390f35b34801561075257600080fd5b5061076d60048036038101906107689190612a7a565b612072565b005b34801561077b57600080fd5b506107846120f6565b604051610791919061348e565b60405180910390f35b3480156107a657600080fd5b506107af61211e565b6040516107bc919061348e565b60405180910390f35b60cc5481565b60cd5481565b600080600060ce54431180156107ea5750600060d05414155b156108f3576107fb60ce5443611b23565b9050600060cf548261080d9190613670565b9050600060d05464e8d4a51000836108259190613670565b61082f919061363f565b60cb5461083c91906135e9565b905060d360003373ffffffffffffffffffffffffffffffffffffffff1673ffffffffffffffffffffffffffffffffffffffff1681526020019081526020016000205464e8d4a510008260d260008a73ffffffffffffffffffffffffffffffffffffffff1673ffffffffffffffffffffffffffffffffffffffff168152602001908152602001600020600001546108d29190613670565b6108dc919061363f565b6108e691906136ca565b83945094505050506109a4565b60d360003373ffffffffffffffffffffffffffffffffffffffff1673ffffffffffffffffffffffffffffffffffffffff1681526020019081526020016000205464e8d4a5100060cb5460d260008873ffffffffffffffffffffffffffffffffffffffff1673ffffffffffffffffffffffffffffffffffffffff168152602001908152602001600020600001546109899190613670565b610993919061363f565b61099d91906136ca565b8192509250505b915091565b60006109b3612124565b60004714156109f7576040517f08c379a00000000000000000000000000000000000000000000000000000000081526004016109ee906132b3565b60405180910390fd5b8173ffffffffffffffffffffffffffffffffffffffff166108fc479081150290604051600060405180830381858888f19350505050158015610a3d573d6000803e3d6000fd5b5060019050919050565b60d26020528060005260406000206000915090508060000154908060010154908060020154908060030154905084565b606060008385610a879190613670565b905060008060d460008673ffffffffffffffffffffffffffffffffffffffff1673ffffffffffffffffffffffffffffffffffffffff168152602001908152602001600020805480602002602001604051908101604052809291908181526020016000905b82821015610bc357838290600052602060002090600302016040518060600160405290816000820154815260200160018201548152602001600282018054610b32906137b1565b80601f0160208091040260200160405190810160405280929190818152602001828054610b5e906137b1565b8015610bab5780601f10610b8057610100808354040283529160200191610bab565b820191906000526020600020905b815481529060010190602001808311610b8e57829003601f168201915b50505050508152505081526020019060010190610aeb565b50505050905060008684610bd791906135e9565b825111610be5578151610bf2565b8684610bf191906135e9565b5b905081518410610c37576040517f08c379a0000000000000000000000000000000000000000000000000000000008152600401610c2e90613273565b60405180910390fd5b838111610c79576040517f08c379a0000000000000000000000000000000000000000000000000000000008152600401610c7090613273565b60405180910390fd5b60008482610c8791906136ca565b67ffffffffffffffff811115610ca057610c9f613919565b5b604051908082528060200260200182016040528015610cd957816020015b610cc66128b5565b815260200190600190039081610cbe5790505b50905060008590505b82811015610d5c57838160018651610cfa91906136ca565b610d0491906136ca565b81518110610d1557610d146138ea565b5b6020026020010151828681518110610d3057610d2f6138ea565b5b60200260200101819052508480610d4690613814565b9550508080610d5490613814565b915050610ce2565b5080955050505050509392505050565b610d74612124565b8060cd8190555050565b7f000000000000000000000000000000000000000000000000000000000000000073ffffffffffffffffffffffffffffffffffffffff163073ffffffffffffffffffffffffffffffffffffffff161415610e0d576040517f08c379a0000000000000000000000000000000000000000000000000000000008152600401610e04906132d3565b60405180910390fd5b7f000000000000000000000000000000000000000000000000000000000000000073ffffffffffffffffffffffffffffffffffffffff16610e4c6121a2565b73ffffffffffffffffffffffffffffffffffffffff1614610ea2576040517f08c379a0000000000000000000000000000000000000000000000000000000008152600401610e99906132f3565b60405180910390fd5b610eab816121f9565b610f0481600067ffffffffffffffff811115610eca57610ec9613919565b5b6040519080825280601f01601f191660200182016040528015610efc5781602001600182028036833780820191505090505b506000612204565b50565b60ca5481565b60008173ffffffffffffffffffffffffffffffffffffffff166370a08231306040518263ffffffff1660e01b8152600401610f489190613163565b60206040518083038186803b158015610f6057600080fd5b505afa158015610f74573d6000803e3d6000fd5b505050506040513d601f19601f82011682018060405250810190610f989190612c31565b9050919050565b60008060019054906101000a900460ff16159050808015610fd05750600160008054906101000a900460ff1660ff16105b80610ffd5750610fdf30612381565b158015610ffc5750600160008054906101000a900460ff1660ff16145b5b61103c576040517f08c379a000000000000000000000000000000000000000000000000000000000815260040161103390613373565b60405180910390fd5b60016000806101000a81548160ff021916908360ff1602179055508015611079576001600060016101000a81548160ff0219169083151502179055505b6110816123a4565b6110896123fd565b8460c960006101000a81548173ffffffffffffffffffffffffffffffffffffffff021916908373ffffffffffffffffffffffffffffffffffffffff1602179055508260cf819055508360ca8190555081846110e491906135e9565b60cd819055508360ce81905550801561114a5760008060016101000a81548160ff0219169083151502179055507f7f26b83ff96e1f2b6a682f133852f6798a09c465da95921460cefb384740249860016040516111419190613236565b60405180910390a15b5050505050565b7f000000000000000000000000000000000000000000000000000000000000000073ffffffffffffffffffffffffffffffffffffffff163073ffffffffffffffffffffffffffffffffffffffff1614156111e0576040517f08c379a00000000000000000000000000000000000000000000000000000000081526004016111d7906132d3565b60405180910390fd5b7f000000000000000000000000000000000000000000000000000000000000000073ffffffffffffffffffffffffffffffffffffffff1661121f6121a2565b73ffffffffffffffffffffffffffffffffffffffff1614611275576040517f08c379a000000000000000000000000000000000000000000000000000000000815260040161126c906132f3565b60405180910390fd5b61127e826121f9565b61128a82826001612204565b5050565b60007f000000000000000000000000000000000000000000000000000000000000000073ffffffffffffffffffffffffffffffffffffffff163073ffffffffffffffffffffffffffffffffffffffff161461131e576040517f08c379a000000000000000000000000000000000000000000000000000000000815260040161131590613333565b60405180910390fd5b7f360894a13ba1a3210667c828492db98dca3e2076cc3735a920a3ca505d382bbc60001b905090565b60cf5481565b6113556128d6565b60d260008373ffffffffffffffffffffffffffffffffffffffff1673ffffffffffffffffffffffffffffffffffffffff168152602001908152602001600020600001548160000181815250506113aa826107d1565b5081602001818152505060d260008373ffffffffffffffffffffffffffffffffffffffff1673ffffffffffffffffffffffffffffffffffffffff1681526020019081526020016000206002015481604001818152505060d260008373ffffffffffffffffffffffffffffffffffffffff1673ffffffffffffffffffffffffffffffffffffffff16815260200190815260200160002060030154816060018181525050919050565b611459612124565b8060ca8190555050565b600061146d612124565b8273ffffffffffffffffffffffffffffffffffffffff1663a9059cbb838573ffffffffffffffffffffffffffffffffffffffff166370a08231306040518263ffffffff1660e01b81526004016114c39190613163565b60206040518083038186803b1580156114db57600080fd5b505afa1580156114ef573d6000803e3d6000fd5b505050506040513d601f19601f820116820180604052508101906115139190612c31565b6040518363ffffffff1660e01b81526004016115309291906131b5565b602060405180830381600087803b15801561154a57600080fd5b505af115801561155e573d6000803e3d6000fd5b505050506040513d601f19601f820116820180604052508101906115829190612baa565b506001905092915050565b611595612124565b61159f600061244e565b565b60008060d460008473ffffffffffffffffffffffffffffffffffffffff1673ffffffffffffffffffffffffffffffffffffffff16815260200190815260200160002080549050905080915050919050565b600060d260003373ffffffffffffffffffffffffffffffffffffffff1673ffffffffffffffffffffffffffffffffffffffff1681526020019081526020016000206000015411611677576040517f08c379a000000000000000000000000000000000000000000000000000000000815260040161166e90613313565b60405180910390fd5b61167f612514565b600060d360003373ffffffffffffffffffffffffffffffffffffffff1673ffffffffffffffffffffffffffffffffffffffff1681526020019081526020016000205464e8d4a5100060cb5460d260003373ffffffffffffffffffffffffffffffffffffffff1673ffffffffffffffffffffffffffffffffffffffff168152602001908152602001600020600001546117179190613670565b611721919061363f565b61172b91906136ca565b905060008160d260003373ffffffffffffffffffffffffffffffffffffffff1673ffffffffffffffffffffffffffffffffffffffff1681526020019081526020016000206000015461177d91906135e9565b905060d260003373ffffffffffffffffffffffffffffffffffffffff1673ffffffffffffffffffffffffffffffffffffffff1681526020019081526020016000206000015460d0546117cf91906136ca565b60d081905550600060d260003373ffffffffffffffffffffffffffffffffffffffff1673ffffffffffffffffffffffffffffffffffffffff16815260200190815260200160002060000181905550600060d360003373ffffffffffffffffffffffffffffffffffffffff1673ffffffffffffffffffffffffffffffffffffffff1681526020019081526020016000208190555060c960009054906101000a900473ffffffffffffffffffffffffffffffffffffffff1673ffffffffffffffffffffffffffffffffffffffff1663a9059cbb33836040518363ffffffff1660e01b81526004016118bf9291906131b5565b602060405180830381600087803b1580156118d957600080fd5b505af11580156118ed573d6000803e3d6000fd5b505050506040513d601f19601f820116820180604052508101906119119190612baa565b5060d260003373ffffffffffffffffffffffffffffffffffffffff1673ffffffffffffffffffffffffffffffffffffffff1681526020019081526020016000206000015460d0600082825461196691906136ca565b925050819055504260d260003373ffffffffffffffffffffffffffffffffffffffff1673ffffffffffffffffffffffffffffffffffffffff16815260200190815260200160002060030181905550600060405180606001604052808381526020014281526020016040518060400160405280600881526020017f5769746864726177000000000000000000000000000000000000000000000000815250815250905060d460003373ffffffffffffffffffffffffffffffffffffffff1673ffffffffffffffffffffffffffffffffffffffff16815260200190815260200160002081908060018154018082558091505060019003906000526020600020906003020160009091909190915060008201518160000155602082015181600101556040820151816002019080519060200190611aa19291906128fe565b5050503373ffffffffffffffffffffffffffffffffffffffff167ff279e6a1f5e320cca91135676d9cb6e44ca8a08c0b88342bcdb1144f6511b5688385604051611aec9291906134a9565b60405180910390a2505050565b6000603360009054906101000a900473ffffffffffffffffffffffffffffffffffffffff16905090565b600060cd548211611b41578282611b3a91906136ca565b9050611b64565b60cd548310611b535760009050611b64565b8260cd54611b6191906136ca565b90505b92915050565b60cb5481565b60ce5481565b60cd54431115611bbb576040517f08c379a0000000000000000000000000000000000000000000000000000000008152600401611bb290613413565b60405180910390fd5b60008111611bfe576040517f08c379a0000000000000000000000000000000000000000000000000000000008152600401611bf590613453565b60405180910390fd5b611c06612514565b60c960009054906101000a900473ffffffffffffffffffffffffffffffffffffffff1673ffffffffffffffffffffffffffffffffffffffff166323b872dd3330846040518463ffffffff1660e01b8152600401611c659392919061317e565b602060405180830381600087803b158015611c7f57600080fd5b505af1158015611c93573d6000803e3d6000fd5b505050506040513d601f19601f82011682018060405250810190611cb79190612baa565b5060008160d260003373ffffffffffffffffffffffffffffffffffffffff1673ffffffffffffffffffffffffffffffffffffffff1681526020019081526020016000206000016000828254611d0c91906135e9565b925050819055504260d260003373ffffffffffffffffffffffffffffffffffffffff1673ffffffffffffffffffffffffffffffffffffffff1681526020019081526020016000206002018190555060d560003373ffffffffffffffffffffffffffffffffffffffff1673ffffffffffffffffffffffffffffffffffffffff16815260200190815260200160002060009054906101000a900460ff16611e1c57600160d560003373ffffffffffffffffffffffffffffffffffffffff1673ffffffffffffffffffffffffffffffffffffffff16815260200190815260200160002060006101000a81548160ff02191690831515021790555060d16000815480929190611e1690613814565b91905055505b64e8d4a5100060cb5460d260003373ffffffffffffffffffffffffffffffffffffffff1673ffffffffffffffffffffffffffffffffffffffff16815260200190815260200160002060000154611e729190613670565b611e7c919061363f565b60d360003373ffffffffffffffffffffffffffffffffffffffff1673ffffffffffffffffffffffffffffffffffffffff168152602001908152602001600020819055508160d06000828254611ed191906135e9565b92505081905550600060405180606001604052808481526020014281526020016040518060400160405280600581526020017f5374616b65000000000000000000000000000000000000000000000000000000815250815250905060d460003373ffffffffffffffffffffffffffffffffffffffff1673ffffffffffffffffffffffffffffffffffffffff16815260200190815260200160002081908060018154018082558091505060019003906000526020600020906003020160009091909190915060008201518160000155602082015181600101556040820151816002019080519060200190611fc59291906128fe565b5050503373ffffffffffffffffffffffffffffffffffffffff167f90890809c654f11d6e72a28fa60149770a0d11ec6c92319d6ceb2bb0a4ea1a1584846040516120109291906134a9565b60405180910390a2505050565b60d56020528060005260406000206000915054906101000a900460ff1681565b64e8d4a5100081565b60c960009054906101000a900473ffffffffffffffffffffffffffffffffffffffff1681565b60d15481565b61207a612124565b600073ffffffffffffffffffffffffffffffffffffffff168173ffffffffffffffffffffffffffffffffffffffff1614156120ea576040517f08c379a00000000000000000000000000000000000000000000000000000000081526004016120e190613293565b60405180910390fd5b6120f38161244e565b50565b60004360ca5411612116574360cd5461210f91906136ca565b905061211b565b600090505b90565b60d05481565b61212c6125ae565b73ffffffffffffffffffffffffffffffffffffffff1661214a611af9565b73ffffffffffffffffffffffffffffffffffffffff16146121a0576040517f08c379a0000000000000000000000000000000000000000000000000000000008152600401612197906133d3565b60405180910390fd5b565b60006121d07f360894a13ba1a3210667c828492db98dca3e2076cc3735a920a3ca505d382bbc60001b6125b6565b60000160009054906101000a900473ffffffffffffffffffffffffffffffffffffffff16905090565b612201612124565b50565b6122307f4910fdfa16fed3260ed0e7147f7cc6da11a60208b5b9406d12a635614ffd914360001b6125c0565b60000160009054906101000a900460ff16156122545761224f836125ca565b61237c565b8273ffffffffffffffffffffffffffffffffffffffff166352d1902d6040518163ffffffff1660e01b815260040160206040518083038186803b15801561229a57600080fd5b505afa9250505080156122cb57506040513d601f19601f820116820180604052508101906122c89190612bd7565b60015b61230a576040517f08c379a000000000000000000000000000000000000000000000000000000000815260040161230190613393565b60405180910390fd5b7f360894a13ba1a3210667c828492db98dca3e2076cc3735a920a3ca505d382bbc60001b811461236f576040517f08c379a000000000000000000000000000000000000000000000000000000000815260040161236690613353565b60405180910390fd5b5061237b838383612683565b5b505050565b6000808273ffffffffffffffffffffffffffffffffffffffff163b119050919050565b600060019054906101000a900460ff166123f3576040517f08c379a00000000000000000000000000000000000000000000000000000000081526004016123ea90613433565b60405180910390fd5b6123fb6126af565b565b600060019054906101000a900460ff1661244c576040517f08c379a000000000000000000000000000000000000000000000000000000000815260040161244390613433565b60405180910390fd5b565b6000603360009054906101000a900473ffffffffffffffffffffffffffffffffffffffff16905081603360006101000a81548173ffffffffffffffffffffffffffffffffffffffff021916908373ffffffffffffffffffffffffffffffffffffffff1602179055508173ffffffffffffffffffffffffffffffffffffffff168173ffffffffffffffffffffffffffffffffffffffff167f8be0079c531659141344cd1fd0a4f28419497f9722a3daafe3b4186f6b6457e060405160405180910390a35050565b60ce544311612522576125ac565b600060d0541415612539574360ce819055506125ac565b600061254760ce5443611b23565b9050600060cf54826125599190613670565b905060008111156125965760d05464e8d4a51000826125789190613670565b612582919061363f565b60cb5461258f91906135e9565b60cb819055505b60cd5460ce54116125a9574360ce819055505b50505b565b600033905090565b6000819050919050565b6000819050919050565b6125d381612381565b612612576040517f08c379a0000000000000000000000000000000000000000000000000000000008152600401612609906133b3565b60405180910390fd5b8061263f7f360894a13ba1a3210667c828492db98dca3e2076cc3735a920a3ca505d382bbc60001b6125b6565b60000160006101000a81548173ffffffffffffffffffffffffffffffffffffffff021916908373ffffffffffffffffffffffffffffffffffffffff16021790555050565b61268c83612710565b6000825111806126995750805b156126aa576126a8838361275f565b505b505050565b600060019054906101000a900460ff166126fe576040517f08c379a00000000000000000000000000000000000000000000000000000000081526004016126f590613433565b60405180910390fd5b61270e6127096125ae565b61244e565b565b612719816125ca565b8073ffffffffffffffffffffffffffffffffffffffff167fbc7cd75a20ee27fd9adebab32041f755214dbc6bffa90cc0225b39da2e5c2d3b60405160405180910390a250565b606061276a83612381565b6127a9576040517f08c379a00000000000000000000000000000000000000000000000000000000081526004016127a0906133f3565b60405180910390fd5b6000808473ffffffffffffffffffffffffffffffffffffffff16846040516127d1919061314c565b600060405180830381855af49150503d806000811461280c576040519150601f19603f3d011682016040523d82523d6000602084013e612811565b606091505b50915091506128398282604051806060016040528060278152602001613dd660279139612843565b9250505092915050565b606083156128535782905061285e565b61285d8383612865565b5b9392505050565b6000825111156128785781518083602001fd5b806040517f08c379a00000000000000000000000000000000000000000000000000000000081526004016128ac9190613251565b60405180910390fd5b60405180606001604052806000815260200160008152602001606081525090565b6040518060800160405280600081526020016000815260200160008152602001600081525090565b82805461290a906137b1565b90600052602060002090601f01602090048101928261292c5760008555612973565b82601f1061294557805160ff1916838001178555612973565b82800160010185558215612973579182015b82811115612972578251825591602001919060010190612957565b5b5090506129809190612984565b5090565b5b8082111561299d576000816000905550600101612985565b5090565b60006129b46129af8461353c565b613517565b9050828152602081018484840111156129d0576129cf61394d565b5b6129db84828561376f565b509392505050565b6000813590506129f281613d79565b92915050565b600081519050612a0781613d90565b92915050565b600081519050612a1c81613da7565b92915050565b600082601f830112612a3757612a36613948565b5b8135612a478482602086016129a1565b91505092915050565b600081359050612a5f81613dbe565b92915050565b600081519050612a7481613dbe565b92915050565b600060208284031215612a9057612a8f613957565b5b6000612a9e848285016129e3565b91505092915050565b60008060408385031215612abe57612abd613957565b5b6000612acc858286016129e3565b9250506020612add858286016129e3565b9150509250929050565b60008060408385031215612afe57612afd613957565b5b6000612b0c858286016129e3565b925050602083013567ffffffffffffffff811115612b2d57612b2c613952565b5b612b3985828601612a22565b9150509250929050565b60008060008060808587031215612b5d57612b5c613957565b5b6000612b6b878288016129e3565b9450506020612b7c87828801612a50565b9350506040612b8d87828801612a50565b9250506060612b9e87828801612a50565b91505092959194509250565b600060208284031215612bc057612bbf613957565b5b6000612bce848285016129f8565b91505092915050565b600060208284031215612bed57612bec613957565b5b6000612bfb84828501612a0d565b91505092915050565b600060208284031215612c1a57612c19613957565b5b6000612c2884828501612a50565b91505092915050565b600060208284031215612c4757612c46613957565b5b6000612c5584828501612a65565b91505092915050565b60008060408385031215612c7557612c74613957565b5b6000612c8385828601612a50565b9250506020612c9485828601612a50565b9150509250929050565b600080600060608486031215612cb757612cb6613957565b5b6000612cc586828701612a50565b9350506020612cd686828701612a50565b9250506040612ce7868287016129e3565b9150509250925092565b6000612cfd8383613089565b905092915050565b612d0e816136fe565b82525050565b6000612d1f8261357d565b612d2981856135ab565b935083602082028501612d3b8561356d565b8060005b85811015612d775784840389528151612d588582612cf1565b9450612d638361359e565b925060208a01995050600181019050612d3f565b50829750879550505050505092915050565b612d9281613710565b82525050565b612da18161371c565b82525050565b6000612db282613588565b612dbc81856135bc565b9350612dcc81856020860161377e565b80840191505092915050565b612de18161375d565b82525050565b6000612df282613593565b612dfc81856135c7565b9350612e0c81856020860161377e565b612e158161395c565b840191505092915050565b6000612e2b82613593565b612e3581856135d8565b9350612e4581856020860161377e565b612e4e8161395c565b840191505092915050565b6000612e66600d836135d8565b9150612e718261396d565b602082019050919050565b6000612e896026836135d8565b9150612e9482613996565b604082019050919050565b6000612eac600c836135d8565b9150612eb7826139e5565b602082019050919050565b6000612ecf602c836135d8565b9150612eda82613a0e565b604082019050919050565b6000612ef2602c836135d8565b9150612efd82613a5d565b604082019050919050565b6000612f15601c836135d8565b9150612f2082613aac565b602082019050919050565b6000612f386038836135d8565b9150612f4382613ad5565b604082019050919050565b6000612f5b6029836135d8565b9150612f6682613b24565b604082019050919050565b6000612f7e602e836135d8565b9150612f8982613b73565b604082019050919050565b6000612fa1602e836135d8565b9150612fac82613bc2565b604082019050919050565b6000612fc4602d836135d8565b9150612fcf82613c11565b604082019050919050565b6000612fe76020836135d8565b9150612ff282613c60565b602082019050919050565b600061300a6026836135d8565b915061301582613c89565b604082019050919050565b600061302d6011836135d8565b915061303882613cd8565b602082019050919050565b6000613050602b836135d8565b915061305b82613d01565b604082019050919050565b6000613073601b836135d8565b915061307e82613d50565b602082019050919050565b60006060830160008301516130a1600086018261312e565b5060208301516130b4602086018261312e565b50604083015184820360408601526130cc8282612de7565b9150508091505092915050565b6080820160008201516130ef600085018261312e565b506020820151613102602085018261312e565b506040820151613115604085018261312e565b506060820151613128606085018261312e565b50505050565b61313781613746565b82525050565b61314681613746565b82525050565b60006131588284612da7565b915081905092915050565b60006020820190506131786000830184612d05565b92915050565b60006060820190506131936000830186612d05565b6131a06020830185612d05565b6131ad604083018461313d565b949350505050565b60006040820190506131ca6000830185612d05565b6131d7602083018461313d565b9392505050565b600060208201905081810360008301526131f88184612d14565b905092915050565b60006020820190506132156000830184612d89565b92915050565b60006020820190506132306000830184612d98565b92915050565b600060208201905061324b6000830184612dd8565b92915050565b6000602082019050818103600083015261326b8184612e20565b905092915050565b6000602082019050818103600083015261328c81612e59565b9050919050565b600060208201905081810360008301526132ac81612e7c565b9050919050565b600060208201905081810360008301526132cc81612e9f565b9050919050565b600060208201905081810360008301526132ec81612ec2565b9050919050565b6000602082019050818103600083015261330c81612ee5565b9050919050565b6000602082019050818103600083015261332c81612f08565b9050919050565b6000602082019050818103600083015261334c81612f2b565b9050919050565b6000602082019050818103600083015261336c81612f4e565b9050919050565b6000602082019050818103600083015261338c81612f71565b9050919050565b600060208201905081810360008301526133ac81612f94565b9050919050565b600060208201905081810360008301526133cc81612fb7565b9050919050565b600060208201905081810360008301526133ec81612fda565b9050919050565b6000602082019050818103600083015261340c81612ffd565b9050919050565b6000602082019050818103600083015261342c81613020565b9050919050565b6000602082019050818103600083015261344c81613043565b9050919050565b6000602082019050818103600083015261346c81613066565b9050919050565b600060808201905061348860008301846130d9565b92915050565b60006020820190506134a3600083018461313d565b92915050565b60006040820190506134be600083018561313d565b6134cb602083018461313d565b9392505050565b60006080820190506134e7600083018761313d565b6134f4602083018661313d565b613501604083018561313d565b61350e606083018461313d565b95945050505050565b6000613521613532565b905061352d82826137e3565b919050565b6000604051905090565b600067ffffffffffffffff82111561355757613556613919565b5b6135608261395c565b9050602081019050919050565b6000819050602082019050919050565b600081519050919050565b600081519050919050565b600081519050919050565b6000602082019050919050565b600082825260208201905092915050565b600081905092915050565b600082825260208201905092915050565b600082825260208201905092915050565b60006135f482613746565b91506135ff83613746565b9250827fffffffffffffffffffffffffffffffffffffffffffffffffffffffffffffffff038211156136345761363361385d565b5b828201905092915050565b600061364a82613746565b915061365583613746565b9250826136655761366461388c565b5b828204905092915050565b600061367b82613746565b915061368683613746565b9250817fffffffffffffffffffffffffffffffffffffffffffffffffffffffffffffffff04831182151516156136bf576136be61385d565b5b828202905092915050565b60006136d582613746565b91506136e083613746565b9250828210156136f3576136f261385d565b5b828203905092915050565b600061370982613726565b9050919050565b60008115159050919050565b6000819050919050565b600073ffffffffffffffffffffffffffffffffffffffff82169050919050565b6000819050919050565b600060ff82169050919050565b600061376882613750565b9050919050565b82818337600083830152505050565b60005b8381101561379c578082015181840152602081019050613781565b838111156137ab576000848401525b50505050565b600060028204905060018216806137c957607f821691505b602082108114156137dd576137dc6138bb565b5b50919050565b6137ec8261395c565b810181811067ffffffffffffffff8211171561380b5761380a613919565b5b80604052505050565b600061381f82613746565b91507fffffffffffffffffffffffffffffffffffffffffffffffffffffffffffffffff8214156138525761385161385d565b5b600182019050919050565b7f4e487b7100000000000000000000000000000000000000000000000000000000600052601160045260246000fd5b7f4e487b7100000000000000000000000000000000000000000000000000000000600052601260045260246000fd5b7f4e487b7100000000000000000000000000000000000000000000000000000000600052602260045260246000fd5b7f4e487b7100000000000000000000000000000000000000000000000000000000600052603260045260246000fd5b7f4e487b7100000000000000000000000000000000000000000000000000000000600052604160045260246000fd5b600080fd5b600080fd5b600080fd5b600080fd5b6000601f19601f8301169050919050565b7f4f564552464c4f575f5041474500000000000000000000000000000000000000600082015250565b7f4f776e61626c653a206e6577206f776e657220697320746865207a65726f206160008201527f6464726573730000000000000000000000000000000000000000000000000000602082015250565b7f5a45524f5f42414c414e43450000000000000000000000000000000000000000600082015250565b7f46756e6374696f6e206d7573742062652063616c6c6564207468726f7567682060008201527f64656c656761746563616c6c0000000000000000000000000000000000000000602082015250565b7f46756e6374696f6e206d7573742062652063616c6c6564207468726f7567682060008201527f6163746976652070726f78790000000000000000000000000000000000000000602082015250565b7f57697468647261773a20416d6f756e74206d757374206265203e203000000000600082015250565b7f555550535570677261646561626c653a206d757374206e6f742062652063616c60008201527f6c6564207468726f7567682064656c656761746563616c6c0000000000000000602082015250565b7f45524331393637557067726164653a20756e737570706f727465642070726f7860008201527f6961626c65555549440000000000000000000000000000000000000000000000602082015250565b7f496e697469616c697a61626c653a20636f6e747261637420697320616c72656160008201527f647920696e697469616c697a6564000000000000000000000000000000000000602082015250565b7f45524331393637557067726164653a206e657720696d706c656d656e7461746960008201527f6f6e206973206e6f742055555053000000000000000000000000000000000000602082015250565b7f455243313936373a206e657720696d706c656d656e746174696f6e206973206e60008201527f6f74206120636f6e747261637400000000000000000000000000000000000000602082015250565b7f4f776e61626c653a2063616c6c6572206973206e6f7420746865206f776e6572600082015250565b7f416464726573733a2064656c65676174652063616c6c20746f206e6f6e2d636f60008201527f6e74726163740000000000000000000000000000000000000000000000000000602082015250565b7f7374616b652074696d65206973206f7574000000000000000000000000000000600082015250565b7f496e697469616c697a61626c653a20636f6e7472616374206973206e6f74206960008201527f6e697469616c697a696e67000000000000000000000000000000000000000000602082015250565b7f4465706f7369743a20416d6f756e74206d757374206265203e20300000000000600082015250565b613d82816136fe565b8114613d8d57600080fd5b50565b613d9981613710565b8114613da457600080fd5b50565b613db08161371c565b8114613dbb57600080fd5b50565b613dc781613746565b8114613dd257600080fd5b5056fe416464726573733a206c6f772d6c6576656c2064656c65676174652063616c6c206661696c6564a2646970667358221220a147cd319e98801cf4abb28c0feeb7f44df5e2833efc3c49dbcec346663c545864736f6c63430008070033",
					"opcodes": "PUSH1 0xA0 PUSH1 0x40 MSTORE ADDRESS PUSH20 0xFFFFFFFFFFFFFFFFFFFFFFFFFFFFFFFFFFFFFFFF AND PUSH1 0x80 SWAP1 PUSH20 0xFFFFFFFFFFFFFFFFFFFFFFFFFFFFFFFFFFFFFFFF AND PUSH1 0x60 SHL DUP2 MSTORE POP CALLVALUE DUP1 ISZERO PUSH3 0x47 JUMPI PUSH1 0x0 DUP1 REVERT JUMPDEST POP PUSH3 0x58 PUSH3 0x5E PUSH1 0x20 SHL PUSH1 0x20 SHR JUMP JUMPDEST PUSH3 0x209 JUMP JUMPDEST PUSH1 0x0 PUSH1 0x1 SWAP1 SLOAD SWAP1 PUSH2 0x100 EXP SWAP1 DIV PUSH1 0xFF AND ISZERO PUSH3 0xB1 JUMPI PUSH1 0x40 MLOAD PUSH32 0x8C379A000000000000000000000000000000000000000000000000000000000 DUP2 MSTORE PUSH1 0x4 ADD PUSH3 0xA8 SWAP1 PUSH3 0x15D JUMP JUMPDEST PUSH1 0x40 MLOAD DUP1 SWAP2 SUB SWAP1 REVERT JUMPDEST PUSH1 0xFF DUP1 AND PUSH1 0x0 DUP1 SLOAD SWAP1 PUSH2 0x100 EXP SWAP1 DIV PUSH1 0xFF AND PUSH1 0xFF AND LT ISZERO PUSH3 0x123 JUMPI PUSH1 0xFF PUSH1 0x0 DUP1 PUSH2 0x100 EXP DUP2 SLOAD DUP2 PUSH1 0xFF MUL NOT AND SWAP1 DUP4 PUSH1 0xFF AND MUL OR SWAP1 SSTORE POP PUSH32 0x7F26B83FF96E1F2B6A682F133852F6798A09C465DA95921460CEFB3847402498 PUSH1 0xFF PUSH1 0x40 MLOAD PUSH3 0x11A SWAP2 SWAP1 PUSH3 0x17F JUMP JUMPDEST PUSH1 0x40 MLOAD DUP1 SWAP2 SUB SWAP1 LOG1 JUMPDEST JUMP JUMPDEST PUSH1 0x0 PUSH3 0x134 PUSH1 0x27 DUP4 PUSH3 0x19C JUMP JUMPDEST SWAP2 POP PUSH3 0x141 DUP3 PUSH3 0x1BA JUMP JUMPDEST PUSH1 0x40 DUP3 ADD SWAP1 POP SWAP2 SWAP1 POP JUMP JUMPDEST PUSH3 0x157 DUP2 PUSH3 0x1AD JUMP JUMPDEST DUP3 MSTORE POP POP JUMP JUMPDEST PUSH1 0x0 PUSH1 0x20 DUP3 ADD SWAP1 POP DUP2 DUP2 SUB PUSH1 0x0 DUP4 ADD MSTORE PUSH3 0x178 DUP2 PUSH3 0x125 JUMP JUMPDEST SWAP1 POP SWAP2 SWAP1 POP JUMP JUMPDEST PUSH1 0x0 PUSH1 0x20 DUP3 ADD SWAP1 POP PUSH3 0x196 PUSH1 0x0 DUP4 ADD DUP5 PUSH3 0x14C JUMP JUMPDEST SWAP3 SWAP2 POP POP JUMP JUMPDEST PUSH1 0x0 DUP3 DUP3 MSTORE PUSH1 0x20 DUP3 ADD SWAP1 POP SWAP3 SWAP2 POP POP JUMP JUMPDEST PUSH1 0x0 PUSH1 0xFF DUP3 AND SWAP1 POP SWAP2 SWAP1 POP JUMP JUMPDEST PUSH32 0x496E697469616C697A61626C653A20636F6E747261637420697320696E697469 PUSH1 0x0 DUP3 ADD MSTORE PUSH32 0x616C697A696E6700000000000000000000000000000000000000000000000000 PUSH1 0x20 DUP3 ADD MSTORE POP JUMP JUMPDEST PUSH1 0x80 MLOAD PUSH1 0x60 SHR PUSH2 0x3E32 PUSH3 0x244 PUSH1 0x0 CODECOPY PUSH1 0x0 DUP2 DUP2 PUSH2 0xD80 ADD MSTORE DUP2 DUP2 PUSH2 0xE0F ADD MSTORE DUP2 DUP2 PUSH2 0x1153 ADD MSTORE DUP2 DUP2 PUSH2 0x11E2 ADD MSTORE PUSH2 0x1292 ADD MSTORE PUSH2 0x3E32 PUSH1 0x0 RETURN INVALID PUSH1 0x80 PUSH1 0x40 MSTORE PUSH1 0x4 CALLDATASIZE LT PUSH2 0x1E7 JUMPI PUSH1 0x0 CALLDATALOAD PUSH1 0xE0 SHR DUP1 PUSH4 0x682458BD GT PUSH2 0x102 JUMPI DUP1 PUSH4 0xB6B55F25 GT PUSH2 0x95 JUMPI DUP1 PUSH4 0xDFF69787 GT PUSH2 0x64 JUMPI DUP1 PUSH4 0xDFF69787 EQ PUSH2 0x71B JUMPI DUP1 PUSH4 0xF2FDE38B EQ PUSH2 0x746 JUMPI DUP1 PUSH4 0xF5938BAF EQ PUSH2 0x76F JUMPI DUP1 PUSH4 0xFE961F61 EQ PUSH2 0x79A JUMPI PUSH2 0x1EE JUMP JUMPDEST DUP1 PUSH4 0xB6B55F25 EQ PUSH2 0x65F JUMPI DUP1 PUSH4 0xC12E850E EQ PUSH2 0x688 JUMPI DUP1 PUSH4 0xCCD34CD5 EQ PUSH2 0x6C5 JUMPI DUP1 PUSH4 0xD8C68017 EQ PUSH2 0x6F0 JUMPI PUSH2 0x1EE JUMP JUMPDEST DUP1 PUSH4 0x8DA5CB5B GT PUSH2 0xD1 JUMPI DUP1 PUSH4 0x8DA5CB5B EQ PUSH2 0x5A1 JUMPI DUP1 PUSH4 0x8E356D7A EQ PUSH2 0x5CC JUMPI DUP1 PUSH4 0x8F662915 EQ PUSH2 0x609 JUMPI DUP1 PUSH4 0xA9F8D181 EQ PUSH2 0x634 JUMPI PUSH2 0x1EE JUMP JUMPDEST DUP1 PUSH4 0x682458BD EQ PUSH2 0x4F9 JUMPI DUP1 PUSH4 0x715018A6 EQ PUSH2 0x536 JUMPI DUP1 PUSH4 0x72F4B2D4 EQ PUSH2 0x54D JUMPI DUP1 PUSH4 0x853828B6 EQ PUSH2 0x58A JUMPI PUSH2 0x1EE JUMP JUMPDEST DUP1 PUSH4 0x39B3E826 GT PUSH2 0x17A JUMPI DUP1 PUSH4 0x52D1902D GT PUSH2 0x149 JUMPI DUP1 PUSH4 0x52D1902D EQ PUSH2 0x43D JUMPI DUP1 PUSH4 0x5A9477E9 EQ PUSH2 0x468 JUMPI DUP1 PUSH4 0x6386C1C7 EQ PUSH2 0x493 JUMPI DUP1 PUSH4 0x67DECD41 EQ PUSH2 0x4D0 JUMPI PUSH2 0x1EE JUMP JUMPDEST DUP1 PUSH4 0x39B3E826 EQ PUSH2 0x390 JUMPI DUP1 PUSH4 0x3AECD0E3 EQ PUSH2 0x3BB JUMPI DUP1 PUSH4 0x4EC81AF1 EQ PUSH2 0x3F8 JUMPI DUP1 PUSH4 0x4F1EF286 EQ PUSH2 0x421 JUMPI PUSH2 0x1EE JUMP JUMPDEST DUP1 PUSH4 0x1959A002 GT PUSH2 0x1B6 JUMPI DUP1 PUSH4 0x1959A002 EQ PUSH2 0x2C1 JUMPI DUP1 PUSH4 0x2CB234AC EQ PUSH2 0x301 JUMPI DUP1 PUSH4 0x2D3F99EE EQ PUSH2 0x33E JUMPI DUP1 PUSH4 0x3659CFE6 EQ PUSH2 0x367 JUMPI PUSH2 0x1EE JUMP JUMPDEST DUP1 PUSH4 0x55AD42E EQ PUSH2 0x1F0 JUMPI DUP1 PUSH4 0x83C6323 EQ PUSH2 0x21B JUMPI DUP1 PUSH4 0x97AAD10 EQ PUSH2 0x246 JUMPI DUP1 PUSH4 0x173379A5 EQ PUSH2 0x284 JUMPI PUSH2 0x1EE JUMP JUMPDEST CALLDATASIZE PUSH2 0x1EE JUMPI STOP JUMPDEST STOP JUMPDEST CALLVALUE DUP1 ISZERO PUSH2 0x1FC JUMPI PUSH1 0x0 DUP1 REVERT JUMPDEST POP PUSH2 0x205 PUSH2 0x7C5 JUMP JUMPDEST PUSH1 0x40 MLOAD PUSH2 0x212 SWAP2 SWAP1 PUSH2 0x348E JUMP JUMPDEST PUSH1 0x40 MLOAD DUP1 SWAP2 SUB SWAP1 RETURN JUMPDEST CALLVALUE DUP1 ISZERO PUSH2 0x227 JUMPI PUSH1 0x0 DUP1 REVERT JUMPDEST POP PUSH2 0x230 PUSH2 0x7CB JUMP JUMPDEST PUSH1 0x40 MLOAD PUSH2 0x23D SWAP2 SWAP1 PUSH2 0x348E JUMP JUMPDEST PUSH1 0x40 MLOAD DUP1 SWAP2 SUB SWAP1 RETURN JUMPDEST CALLVALUE DUP1 ISZERO PUSH2 0x252 JUMPI PUSH1 0x0 DUP1 REVERT JUMPDEST POP PUSH2 0x26D PUSH1 0x4 DUP1 CALLDATASIZE SUB DUP2 ADD SWAP1 PUSH2 0x268 SWAP2 SWAP1 PUSH2 0x2A7A JUMP JUMPDEST PUSH2 0x7D1 JUMP JUMPDEST PUSH1 0x40 MLOAD PUSH2 0x27B SWAP3 SWAP2 SWAP1 PUSH2 0x34A9 JUMP JUMPDEST PUSH1 0x40 MLOAD DUP1 SWAP2 SUB SWAP1 RETURN JUMPDEST CALLVALUE DUP1 ISZERO PUSH2 0x290 JUMPI PUSH1 0x0 DUP1 REVERT JUMPDEST POP PUSH2 0x2AB PUSH1 0x4 DUP1 CALLDATASIZE SUB DUP2 ADD SWAP1 PUSH2 0x2A6 SWAP2 SWAP1 PUSH2 0x2A7A JUMP JUMPDEST PUSH2 0x9A9 JUMP JUMPDEST PUSH1 0x40 MLOAD PUSH2 0x2B8 SWAP2 SWAP1 PUSH2 0x3200 JUMP JUMPDEST PUSH1 0x40 MLOAD DUP1 SWAP2 SUB SWAP1 RETURN JUMPDEST CALLVALUE DUP1 ISZERO PUSH2 0x2CD JUMPI PUSH1 0x0 DUP1 REVERT JUMPDEST POP PUSH2 0x2E8 PUSH1 0x4 DUP1 CALLDATASIZE SUB DUP2 ADD SWAP1 PUSH2 0x2E3 SWAP2 SWAP1 PUSH2 0x2A7A JUMP JUMPDEST PUSH2 0xA47 JUMP JUMPDEST PUSH1 0x40 MLOAD PUSH2 0x2F8 SWAP5 SWAP4 SWAP3 SWAP2 SWAP1 PUSH2 0x34D2 JUMP JUMPDEST PUSH1 0x40 MLOAD DUP1 SWAP2 SUB SWAP1 RETURN JUMPDEST CALLVALUE DUP1 ISZERO PUSH2 0x30D JUMPI PUSH1 0x0 DUP1 REVERT JUMPDEST POP PUSH2 0x328 PUSH1 0x4 DUP1 CALLDATASIZE SUB DUP2 ADD SWAP1 PUSH2 0x323 SWAP2 SWAP1 PUSH2 0x2C9E JUMP JUMPDEST PUSH2 0xA77 JUMP JUMPDEST PUSH1 0x40 MLOAD PUSH2 0x335 SWAP2 SWAP1 PUSH2 0x31DE JUMP JUMPDEST PUSH1 0x40 MLOAD DUP1 SWAP2 SUB SWAP1 RETURN JUMPDEST CALLVALUE DUP1 ISZERO PUSH2 0x34A JUMPI PUSH1 0x0 DUP1 REVERT JUMPDEST POP PUSH2 0x365 PUSH1 0x4 DUP1 CALLDATASIZE SUB DUP2 ADD SWAP1 PUSH2 0x360 SWAP2 SWAP1 PUSH2 0x2C04 JUMP JUMPDEST PUSH2 0xD6C JUMP JUMPDEST STOP JUMPDEST CALLVALUE DUP1 ISZERO PUSH2 0x373 JUMPI PUSH1 0x0 DUP1 REVERT JUMPDEST POP PUSH2 0x38E PUSH1 0x4 DUP1 CALLDATASIZE SUB DUP2 ADD SWAP1 PUSH2 0x389 SWAP2 SWAP1 PUSH2 0x2A7A JUMP JUMPDEST PUSH2 0xD7E JUMP JUMPDEST STOP JUMPDEST CALLVALUE DUP1 ISZERO PUSH2 0x39C JUMPI PUSH1 0x0 DUP1 REVERT JUMPDEST POP PUSH2 0x3A5 PUSH2 0xF07 JUMP JUMPDEST PUSH1 0x40 MLOAD PUSH2 0x3B2 SWAP2 SWAP1 PUSH2 0x348E JUMP JUMPDEST PUSH1 0x40 MLOAD DUP1 SWAP2 SUB SWAP1 RETURN JUMPDEST CALLVALUE DUP1 ISZERO PUSH2 0x3C7 JUMPI PUSH1 0x0 DUP1 REVERT JUMPDEST POP PUSH2 0x3E2 PUSH1 0x4 DUP1 CALLDATASIZE SUB DUP2 ADD SWAP1 PUSH2 0x3DD SWAP2 SWAP1 PUSH2 0x2A7A JUMP JUMPDEST PUSH2 0xF0D JUMP JUMPDEST PUSH1 0x40 MLOAD PUSH2 0x3EF SWAP2 SWAP1 PUSH2 0x348E JUMP JUMPDEST PUSH1 0x40 MLOAD DUP1 SWAP2 SUB SWAP1 RETURN JUMPDEST CALLVALUE DUP1 ISZERO PUSH2 0x404 JUMPI PUSH1 0x0 DUP1 REVERT JUMPDEST POP PUSH2 0x41F PUSH1 0x4 DUP1 CALLDATASIZE SUB DUP2 ADD SWAP1 PUSH2 0x41A SWAP2 SWAP1 PUSH2 0x2B43 JUMP JUMPDEST PUSH2 0xF9F JUMP JUMPDEST STOP JUMPDEST PUSH2 0x43B PUSH1 0x4 DUP1 CALLDATASIZE SUB DUP2 ADD SWAP1 PUSH2 0x436 SWAP2 SWAP1 PUSH2 0x2AE7 JUMP JUMPDEST PUSH2 0x1151 JUMP JUMPDEST STOP JUMPDEST CALLVALUE DUP1 ISZERO PUSH2 0x449 JUMPI PUSH1 0x0 DUP1 REVERT JUMPDEST POP PUSH2 0x452 PUSH2 0x128E JUMP JUMPDEST PUSH1 0x40 MLOAD PUSH2 0x45F SWAP2 SWAP1 PUSH2 0x321B JUMP JUMPDEST PUSH1 0x40 MLOAD DUP1 SWAP2 SUB SWAP1 RETURN JUMPDEST CALLVALUE DUP1 ISZERO PUSH2 0x474 JUMPI PUSH1 0x0 DUP1 REVERT JUMPDEST POP PUSH2 0x47D PUSH2 0x1347 JUMP JUMPDEST PUSH1 0x40 MLOAD PUSH2 0x48A SWAP2 SWAP1 PUSH2 0x348E JUMP JUMPDEST PUSH1 0x40 MLOAD DUP1 SWAP2 SUB SWAP1 RETURN JUMPDEST CALLVALUE DUP1 ISZERO PUSH2 0x49F JUMPI PUSH1 0x0 DUP1 REVERT JUMPDEST POP PUSH2 0x4BA PUSH1 0x4 DUP1 CALLDATASIZE SUB DUP2 ADD SWAP1 PUSH2 0x4B5 SWAP2 SWAP1 PUSH2 0x2A7A JUMP JUMPDEST PUSH2 0x134D JUMP JUMPDEST PUSH1 0x40 MLOAD PUSH2 0x4C7 SWAP2 SWAP1 PUSH2 0x3473 JUMP JUMPDEST PUSH1 0x40 MLOAD DUP1 SWAP2 SUB SWAP1 RETURN JUMPDEST CALLVALUE DUP1 ISZERO PUSH2 0x4DC JUMPI PUSH1 0x0 DUP1 REVERT JUMPDEST POP PUSH2 0x4F7 PUSH1 0x4 DUP1 CALLDATASIZE SUB DUP2 ADD SWAP1 PUSH2 0x4F2 SWAP2 SWAP1 PUSH2 0x2C04 JUMP JUMPDEST PUSH2 0x1451 JUMP JUMPDEST STOP JUMPDEST CALLVALUE DUP1 ISZERO PUSH2 0x505 JUMPI PUSH1 0x0 DUP1 REVERT JUMPDEST POP PUSH2 0x520 PUSH1 0x4 DUP1 CALLDATASIZE SUB DUP2 ADD SWAP1 PUSH2 0x51B SWAP2 SWAP1 PUSH2 0x2AA7 JUMP JUMPDEST PUSH2 0x1463 JUMP JUMPDEST PUSH1 0x40 MLOAD PUSH2 0x52D SWAP2 SWAP1 PUSH2 0x3200 JUMP JUMPDEST PUSH1 0x40 MLOAD DUP1 SWAP2 SUB SWAP1 RETURN JUMPDEST CALLVALUE DUP1 ISZERO PUSH2 0x542 JUMPI PUSH1 0x0 DUP1 REVERT JUMPDEST POP PUSH2 0x54B PUSH2 0x158D JUMP JUMPDEST STOP JUMPDEST CALLVALUE DUP1 ISZERO PUSH2 0x559 JUMPI PUSH1 0x0 DUP1 REVERT JUMPDEST POP PUSH2 0x574 PUSH1 0x4 DUP1 CALLDATASIZE SUB DUP2 ADD SWAP1 PUSH2 0x56F SWAP2 SWAP1 PUSH2 0x2A7A JUMP JUMPDEST PUSH2 0x15A1 JUMP JUMPDEST PUSH1 0x40 MLOAD PUSH2 0x581 SWAP2 SWAP1 PUSH2 0x348E JUMP JUMPDEST PUSH1 0x40 MLOAD DUP1 SWAP2 SUB SWAP1 RETURN JUMPDEST CALLVALUE DUP1 ISZERO PUSH2 0x596 JUMPI PUSH1 0x0 DUP1 REVERT JUMPDEST POP PUSH2 0x59F PUSH2 0x15F2 JUMP JUMPDEST STOP JUMPDEST CALLVALUE DUP1 ISZERO PUSH2 0x5AD JUMPI PUSH1 0x0 DUP1 REVERT JUMPDEST POP PUSH2 0x5B6 PUSH2 0x1AF9 JUMP JUMPDEST PUSH1 0x40 MLOAD PUSH2 0x5C3 SWAP2 SWAP1 PUSH2 0x3163 JUMP JUMPDEST PUSH1 0x40 MLOAD DUP1 SWAP2 SUB SWAP1 RETURN JUMPDEST CALLVALUE DUP1 ISZERO PUSH2 0x5D8 JUMPI PUSH1 0x0 DUP1 REVERT JUMPDEST POP PUSH2 0x5F3 PUSH1 0x4 DUP1 CALLDATASIZE SUB DUP2 ADD SWAP1 PUSH2 0x5EE SWAP2 SWAP1 PUSH2 0x2C5E JUMP JUMPDEST PUSH2 0x1B23 JUMP JUMPDEST PUSH1 0x40 MLOAD PUSH2 0x600 SWAP2 SWAP1 PUSH2 0x348E JUMP JUMPDEST PUSH1 0x40 MLOAD DUP1 SWAP2 SUB SWAP1 RETURN JUMPDEST CALLVALUE DUP1 ISZERO PUSH2 0x615 JUMPI PUSH1 0x0 DUP1 REVERT JUMPDEST POP PUSH2 0x61E PUSH2 0x1B6A JUMP JUMPDEST PUSH1 0x40 MLOAD PUSH2 0x62B SWAP2 SWAP1 PUSH2 0x348E JUMP JUMPDEST PUSH1 0x40 MLOAD DUP1 SWAP2 SUB SWAP1 RETURN JUMPDEST CALLVALUE DUP1 ISZERO PUSH2 0x640 JUMPI PUSH1 0x0 DUP1 REVERT JUMPDEST POP PUSH2 0x649 PUSH2 0x1B70 JUMP JUMPDEST PUSH1 0x40 MLOAD PUSH2 0x656 SWAP2 SWAP1 PUSH2 0x348E JUMP JUMPDEST PUSH1 0x40 MLOAD DUP1 SWAP2 SUB SWAP1 RETURN JUMPDEST CALLVALUE DUP1 ISZERO PUSH2 0x66B JUMPI PUSH1 0x0 DUP1 REVERT JUMPDEST POP PUSH2 0x686 PUSH1 0x4 DUP1 CALLDATASIZE SUB DUP2 ADD SWAP1 PUSH2 0x681 SWAP2 SWAP1 PUSH2 0x2C04 JUMP JUMPDEST PUSH2 0x1B76 JUMP JUMPDEST STOP JUMPDEST CALLVALUE DUP1 ISZERO PUSH2 0x694 JUMPI PUSH1 0x0 DUP1 REVERT JUMPDEST POP PUSH2 0x6AF PUSH1 0x4 DUP1 CALLDATASIZE SUB DUP2 ADD SWAP1 PUSH2 0x6AA SWAP2 SWAP1 PUSH2 0x2A7A JUMP JUMPDEST PUSH2 0x201D JUMP JUMPDEST PUSH1 0x40 MLOAD PUSH2 0x6BC SWAP2 SWAP1 PUSH2 0x3200 JUMP JUMPDEST PUSH1 0x40 MLOAD DUP1 SWAP2 SUB SWAP1 RETURN JUMPDEST CALLVALUE DUP1 ISZERO PUSH2 0x6D1 JUMPI PUSH1 0x0 DUP1 REVERT JUMPDEST POP PUSH2 0x6DA PUSH2 0x203D JUMP JUMPDEST PUSH1 0x40 MLOAD PUSH2 0x6E7 SWAP2 SWAP1 PUSH2 0x348E JUMP JUMPDEST PUSH1 0x40 MLOAD DUP1 SWAP2 SUB SWAP1 RETURN JUMPDEST CALLVALUE DUP1 ISZERO PUSH2 0x6FC JUMPI PUSH1 0x0 DUP1 REVERT JUMPDEST POP PUSH2 0x705 PUSH2 0x2046 JUMP JUMPDEST PUSH1 0x40 MLOAD PUSH2 0x712 SWAP2 SWAP1 PUSH2 0x3163 JUMP JUMPDEST PUSH1 0x40 MLOAD DUP1 SWAP2 SUB SWAP1 RETURN JUMPDEST CALLVALUE DUP1 ISZERO PUSH2 0x727 JUMPI PUSH1 0x0 DUP1 REVERT JUMPDEST POP PUSH2 0x730 PUSH2 0x206C JUMP JUMPDEST PUSH1 0x40 MLOAD PUSH2 0x73D SWAP2 SWAP1 PUSH2 0x348E JUMP JUMPDEST PUSH1 0x40 MLOAD DUP1 SWAP2 SUB SWAP1 RETURN JUMPDEST CALLVALUE DUP1 ISZERO PUSH2 0x752 JUMPI PUSH1 0x0 DUP1 REVERT JUMPDEST POP PUSH2 0x76D PUSH1 0x4 DUP1 CALLDATASIZE SUB DUP2 ADD SWAP1 PUSH2 0x768 SWAP2 SWAP1 PUSH2 0x2A7A JUMP JUMPDEST PUSH2 0x2072 JUMP JUMPDEST STOP JUMPDEST CALLVALUE DUP1 ISZERO PUSH2 0x77B JUMPI PUSH1 0x0 DUP1 REVERT JUMPDEST POP PUSH2 0x784 PUSH2 0x20F6 JUMP JUMPDEST PUSH1 0x40 MLOAD PUSH2 0x791 SWAP2 SWAP1 PUSH2 0x348E JUMP JUMPDEST PUSH1 0x40 MLOAD DUP1 SWAP2 SUB SWAP1 RETURN JUMPDEST CALLVALUE DUP1 ISZERO PUSH2 0x7A6 JUMPI PUSH1 0x0 DUP1 REVERT JUMPDEST POP PUSH2 0x7AF PUSH2 0x211E JUMP JUMPDEST PUSH1 0x40 MLOAD PUSH2 0x7BC SWAP2 SWAP1 PUSH2 0x348E JUMP JUMPDEST PUSH1 0x40 MLOAD DUP1 SWAP2 SUB SWAP1 RETURN JUMPDEST PUSH1 0xCC SLOAD DUP2 JUMP JUMPDEST PUSH1 0xCD SLOAD DUP2 JUMP JUMPDEST PUSH1 0x0 DUP1 PUSH1 0x0 PUSH1 0xCE SLOAD NUMBER GT DUP1 ISZERO PUSH2 0x7EA JUMPI POP PUSH1 0x0 PUSH1 0xD0 SLOAD EQ ISZERO JUMPDEST ISZERO PUSH2 0x8F3 JUMPI PUSH2 0x7FB PUSH1 0xCE SLOAD NUMBER PUSH2 0x1B23 JUMP JUMPDEST SWAP1 POP PUSH1 0x0 PUSH1 0xCF SLOAD DUP3 PUSH2 0x80D SWAP2 SWAP1 PUSH2 0x3670 JUMP JUMPDEST SWAP1 POP PUSH1 0x0 PUSH1 0xD0 SLOAD PUSH5 0xE8D4A51000 DUP4 PUSH2 0x825 SWAP2 SWAP1 PUSH2 0x3670 JUMP JUMPDEST PUSH2 0x82F SWAP2 SWAP1 PUSH2 0x363F JUMP JUMPDEST PUSH1 0xCB SLOAD PUSH2 0x83C SWAP2 SWAP1 PUSH2 0x35E9 JUMP JUMPDEST SWAP1 POP PUSH1 0xD3 PUSH1 0x0 CALLER PUSH20 0xFFFFFFFFFFFFFFFFFFFFFFFFFFFFFFFFFFFFFFFF AND PUSH20 0xFFFFFFFFFFFFFFFFFFFFFFFFFFFFFFFFFFFFFFFF AND DUP2 MSTORE PUSH1 0x20 ADD SWAP1 DUP2 MSTORE PUSH1 0x20 ADD PUSH1 0x0 KECCAK256 SLOAD PUSH5 0xE8D4A51000 DUP3 PUSH1 0xD2 PUSH1 0x0 DUP11 PUSH20 0xFFFFFFFFFFFFFFFFFFFFFFFFFFFFFFFFFFFFFFFF AND PUSH20 0xFFFFFFFFFFFFFFFFFFFFFFFFFFFFFFFFFFFFFFFF AND DUP2 MSTORE PUSH1 0x20 ADD SWAP1 DUP2 MSTORE PUSH1 0x20 ADD PUSH1 0x0 KECCAK256 PUSH1 0x0 ADD SLOAD PUSH2 0x8D2 SWAP2 SWAP1 PUSH2 0x3670 JUMP JUMPDEST PUSH2 0x8DC SWAP2 SWAP1 PUSH2 0x363F JUMP JUMPDEST PUSH2 0x8E6 SWAP2 SWAP1 PUSH2 0x36CA JUMP JUMPDEST DUP4 SWAP5 POP SWAP5 POP POP POP POP PUSH2 0x9A4 JUMP JUMPDEST PUSH1 0xD3 PUSH1 0x0 CALLER PUSH20 0xFFFFFFFFFFFFFFFFFFFFFFFFFFFFFFFFFFFFFFFF AND PUSH20 0xFFFFFFFFFFFFFFFFFFFFFFFFFFFFFFFFFFFFFFFF AND DUP2 MSTORE PUSH1 0x20 ADD SWAP1 DUP2 MSTORE PUSH1 0x20 ADD PUSH1 0x0 KECCAK256 SLOAD PUSH5 0xE8D4A51000 PUSH1 0xCB SLOAD PUSH1 0xD2 PUSH1 0x0 DUP9 PUSH20 0xFFFFFFFFFFFFFFFFFFFFFFFFFFFFFFFFFFFFFFFF AND PUSH20 0xFFFFFFFFFFFFFFFFFFFFFFFFFFFFFFFFFFFFFFFF AND DUP2 MSTORE PUSH1 0x20 ADD SWAP1 DUP2 MSTORE PUSH1 0x20 ADD PUSH1 0x0 KECCAK256 PUSH1 0x0 ADD SLOAD PUSH2 0x989 SWAP2 SWAP1 PUSH2 0x3670 JUMP JUMPDEST PUSH2 0x993 SWAP2 SWAP1 PUSH2 0x363F JUMP JUMPDEST PUSH2 0x99D SWAP2 SWAP1 PUSH2 0x36CA JUMP JUMPDEST DUP2 SWAP3 POP SWAP3 POP POP JUMPDEST SWAP2 POP SWAP2 JUMP JUMPDEST PUSH1 0x0 PUSH2 0x9B3 PUSH2 0x2124 JUMP JUMPDEST PUSH1 0x0 SELFBALANCE EQ ISZERO PUSH2 0x9F7 JUMPI PUSH1 0x40 MLOAD PUSH32 0x8C379A000000000000000000000000000000000000000000000000000000000 DUP2 MSTORE PUSH1 0x4 ADD PUSH2 0x9EE SWAP1 PUSH2 0x32B3 JUMP JUMPDEST PUSH1 0x40 MLOAD DUP1 SWAP2 SUB SWAP1 REVERT JUMPDEST DUP2 PUSH20 0xFFFFFFFFFFFFFFFFFFFFFFFFFFFFFFFFFFFFFFFF AND PUSH2 0x8FC SELFBALANCE SWAP1 DUP2 ISZERO MUL SWAP1 PUSH1 0x40 MLOAD PUSH1 0x0 PUSH1 0x40 MLOAD DUP1 DUP4 SUB DUP2 DUP6 DUP9 DUP9 CALL SWAP4 POP POP POP POP ISZERO DUP1 ISZERO PUSH2 0xA3D JUMPI RETURNDATASIZE PUSH1 0x0 DUP1 RETURNDATACOPY RETURNDATASIZE PUSH1 0x0 REVERT JUMPDEST POP PUSH1 0x1 SWAP1 POP SWAP2 SWAP1 POP JUMP JUMPDEST PUSH1 0xD2 PUSH1 0x20 MSTORE DUP1 PUSH1 0x0 MSTORE PUSH1 0x40 PUSH1 0x0 KECCAK256 PUSH1 0x0 SWAP2 POP SWAP1 POP DUP1 PUSH1 0x0 ADD SLOAD SWAP1 DUP1 PUSH1 0x1 ADD SLOAD SWAP1 DUP1 PUSH1 0x2 ADD SLOAD SWAP1 DUP1 PUSH1 0x3 ADD SLOAD SWAP1 POP DUP5 JUMP JUMPDEST PUSH1 0x60 PUSH1 0x0 DUP4 DUP6 PUSH2 0xA87 SWAP2 SWAP1 PUSH2 0x3670 JUMP JUMPDEST SWAP1 POP PUSH1 0x0 DUP1 PUSH1 0xD4 PUSH1 0x0 DUP7 PUSH20 0xFFFFFFFFFFFFFFFFFFFFFFFFFFFFFFFFFFFFFFFF AND PUSH20 0xFFFFFFFFFFFFFFFFFFFFFFFFFFFFFFFFFFFFFFFF AND DUP2 MSTORE PUSH1 0x20 ADD SWAP1 DUP2 MSTORE PUSH1 0x20 ADD PUSH1 0x0 KECCAK256 DUP1 SLOAD DUP1 PUSH1 0x20 MUL PUSH1 0x20 ADD PUSH1 0x40 MLOAD SWAP1 DUP2 ADD PUSH1 0x40 MSTORE DUP1 SWAP3 SWAP2 SWAP1 DUP2 DUP2 MSTORE PUSH1 0x20 ADD PUSH1 0x0 SWAP1 JUMPDEST DUP3 DUP3 LT ISZERO PUSH2 0xBC3 JUMPI DUP4 DUP3 SWAP1 PUSH1 0x0 MSTORE PUSH1 0x20 PUSH1 0x0 KECCAK256 SWAP1 PUSH1 0x3 MUL ADD PUSH1 0x40 MLOAD DUP1 PUSH1 0x60 ADD PUSH1 0x40 MSTORE SWAP1 DUP2 PUSH1 0x0 DUP3 ADD SLOAD DUP2 MSTORE PUSH1 0x20 ADD PUSH1 0x1 DUP3 ADD SLOAD DUP2 MSTORE PUSH1 0x20 ADD PUSH1 0x2 DUP3 ADD DUP1 SLOAD PUSH2 0xB32 SWAP1 PUSH2 0x37B1 JUMP JUMPDEST DUP1 PUSH1 0x1F ADD PUSH1 0x20 DUP1 SWAP2 DIV MUL PUSH1 0x20 ADD PUSH1 0x40 MLOAD SWAP1 DUP2 ADD PUSH1 0x40 MSTORE DUP1 SWAP3 SWAP2 SWAP1 DUP2 DUP2 MSTORE PUSH1 0x20 ADD DUP3 DUP1 SLOAD PUSH2 0xB5E SWAP1 PUSH2 0x37B1 JUMP JUMPDEST DUP1 ISZERO PUSH2 0xBAB JUMPI DUP1 PUSH1 0x1F LT PUSH2 0xB80 JUMPI PUSH2 0x100 DUP1 DUP4 SLOAD DIV MUL DUP4 MSTORE SWAP2 PUSH1 0x20 ADD SWAP2 PUSH2 0xBAB JUMP JUMPDEST DUP3 ADD SWAP2 SWAP1 PUSH1 0x0 MSTORE PUSH1 0x20 PUSH1 0x0 KECCAK256 SWAP1 JUMPDEST DUP2 SLOAD DUP2 MSTORE SWAP1 PUSH1 0x1 ADD SWAP1 PUSH1 0x20 ADD DUP1 DUP4 GT PUSH2 0xB8E JUMPI DUP3 SWAP1 SUB PUSH1 0x1F AND DUP3 ADD SWAP2 JUMPDEST POP POP POP POP POP DUP2 MSTORE POP POP DUP2 MSTORE PUSH1 0x20 ADD SWAP1 PUSH1 0x1 ADD SWAP1 PUSH2 0xAEB JUMP JUMPDEST POP POP POP POP SWAP1 POP PUSH1 0x0 DUP7 DUP5 PUSH2 0xBD7 SWAP2 SWAP1 PUSH2 0x35E9 JUMP JUMPDEST DUP3 MLOAD GT PUSH2 0xBE5 JUMPI DUP2 MLOAD PUSH2 0xBF2 JUMP JUMPDEST DUP7 DUP5 PUSH2 0xBF1 SWAP2 SWAP1 PUSH2 0x35E9 JUMP JUMPDEST JUMPDEST SWAP1 POP DUP2 MLOAD DUP5 LT PUSH2 0xC37 JUMPI PUSH1 0x40 MLOAD PUSH32 0x8C379A000000000000000000000000000000000000000000000000000000000 DUP2 MSTORE PUSH1 0x4 ADD PUSH2 0xC2E SWAP1 PUSH2 0x3273 JUMP JUMPDEST PUSH1 0x40 MLOAD DUP1 SWAP2 SUB SWAP1 REVERT JUMPDEST DUP4 DUP2 GT PUSH2 0xC79 JUMPI PUSH1 0x40 MLOAD PUSH32 0x8C379A000000000000000000000000000000000000000000000000000000000 DUP2 MSTORE PUSH1 0x4 ADD PUSH2 0xC70 SWAP1 PUSH2 0x3273 JUMP JUMPDEST PUSH1 0x40 MLOAD DUP1 SWAP2 SUB SWAP1 REVERT JUMPDEST PUSH1 0x0 DUP5 DUP3 PUSH2 0xC87 SWAP2 SWAP1 PUSH2 0x36CA JUMP JUMPDEST PUSH8 0xFFFFFFFFFFFFFFFF DUP2 GT ISZERO PUSH2 0xCA0 JUMPI PUSH2 0xC9F PUSH2 0x3919 JUMP JUMPDEST JUMPDEST PUSH1 0x40 MLOAD SWAP1 DUP1 DUP3 MSTORE DUP1 PUSH1 0x20 MUL PUSH1 0x20 ADD DUP3 ADD PUSH1 0x40 MSTORE DUP1 ISZERO PUSH2 0xCD9 JUMPI DUP2 PUSH1 0x20 ADD JUMPDEST PUSH2 0xCC6 PUSH2 0x28B5 JUMP JUMPDEST DUP2 MSTORE PUSH1 0x20 ADD SWAP1 PUSH1 0x1 SWAP1 SUB SWAP1 DUP2 PUSH2 0xCBE JUMPI SWAP1 POP JUMPDEST POP SWAP1 POP PUSH1 0x0 DUP6 SWAP1 POP JUMPDEST DUP3 DUP2 LT ISZERO PUSH2 0xD5C JUMPI DUP4 DUP2 PUSH1 0x1 DUP7 MLOAD PUSH2 0xCFA SWAP2 SWAP1 PUSH2 0x36CA JUMP JUMPDEST PUSH2 0xD04 SWAP2 SWAP1 PUSH2 0x36CA JUMP JUMPDEST DUP2 MLOAD DUP2 LT PUSH2 0xD15 JUMPI PUSH2 0xD14 PUSH2 0x38EA JUMP JUMPDEST JUMPDEST PUSH1 0x20 MUL PUSH1 0x20 ADD ADD MLOAD DUP3 DUP7 DUP2 MLOAD DUP2 LT PUSH2 0xD30 JUMPI PUSH2 0xD2F PUSH2 0x38EA JUMP JUMPDEST JUMPDEST PUSH1 0x20 MUL PUSH1 0x20 ADD ADD DUP2 SWAP1 MSTORE POP DUP5 DUP1 PUSH2 0xD46 SWAP1 PUSH2 0x3814 JUMP JUMPDEST SWAP6 POP POP DUP1 DUP1 PUSH2 0xD54 SWAP1 PUSH2 0x3814 JUMP JUMPDEST SWAP2 POP POP PUSH2 0xCE2 JUMP JUMPDEST POP DUP1 SWAP6 POP POP POP POP POP POP SWAP4 SWAP3 POP POP POP JUMP JUMPDEST PUSH2 0xD74 PUSH2 0x2124 JUMP JUMPDEST DUP1 PUSH1 0xCD DUP2 SWAP1 SSTORE POP POP JUMP JUMPDEST PUSH32 0x0 PUSH20 0xFFFFFFFFFFFFFFFFFFFFFFFFFFFFFFFFFFFFFFFF AND ADDRESS PUSH20 0xFFFFFFFFFFFFFFFFFFFFFFFFFFFFFFFFFFFFFFFF AND EQ ISZERO PUSH2 0xE0D JUMPI PUSH1 0x40 MLOAD PUSH32 0x8C379A000000000000000000000000000000000000000000000000000000000 DUP2 MSTORE PUSH1 0x4 ADD PUSH2 0xE04 SWAP1 PUSH2 0x32D3 JUMP JUMPDEST PUSH1 0x40 MLOAD DUP1 SWAP2 SUB SWAP1 REVERT JUMPDEST PUSH32 0x0 PUSH20 0xFFFFFFFFFFFFFFFFFFFFFFFFFFFFFFFFFFFFFFFF AND PUSH2 0xE4C PUSH2 0x21A2 JUMP JUMPDEST PUSH20 0xFFFFFFFFFFFFFFFFFFFFFFFFFFFFFFFFFFFFFFFF AND EQ PUSH2 0xEA2 JUMPI PUSH1 0x40 MLOAD PUSH32 0x8C379A000000000000000000000000000000000000000000000000000000000 DUP2 MSTORE PUSH1 0x4 ADD PUSH2 0xE99 SWAP1 PUSH2 0x32F3 JUMP JUMPDEST PUSH1 0x40 MLOAD DUP1 SWAP2 SUB SWAP1 REVERT JUMPDEST PUSH2 0xEAB DUP2 PUSH2 0x21F9 JUMP JUMPDEST PUSH2 0xF04 DUP2 PUSH1 0x0 PUSH8 0xFFFFFFFFFFFFFFFF DUP2 GT ISZERO PUSH2 0xECA JUMPI PUSH2 0xEC9 PUSH2 0x3919 JUMP JUMPDEST JUMPDEST PUSH1 0x40 MLOAD SWAP1 DUP1 DUP3 MSTORE DUP1 PUSH1 0x1F ADD PUSH1 0x1F NOT AND PUSH1 0x20 ADD DUP3 ADD PUSH1 0x40 MSTORE DUP1 ISZERO PUSH2 0xEFC JUMPI DUP2 PUSH1 0x20 ADD PUSH1 0x1 DUP3 MUL DUP1 CALLDATASIZE DUP4 CALLDATACOPY DUP1 DUP3 ADD SWAP2 POP POP SWAP1 POP JUMPDEST POP PUSH1 0x0 PUSH2 0x2204 JUMP JUMPDEST POP JUMP JUMPDEST PUSH1 0xCA SLOAD DUP2 JUMP JUMPDEST PUSH1 0x0 DUP2 PUSH20 0xFFFFFFFFFFFFFFFFFFFFFFFFFFFFFFFFFFFFFFFF AND PUSH4 0x70A08231 ADDRESS PUSH1 0x40 MLOAD DUP3 PUSH4 0xFFFFFFFF AND PUSH1 0xE0 SHL DUP2 MSTORE PUSH1 0x4 ADD PUSH2 0xF48 SWAP2 SWAP1 PUSH2 0x3163 JUMP JUMPDEST PUSH1 0x20 PUSH1 0x40 MLOAD DUP1 DUP4 SUB DUP2 DUP7 DUP1 EXTCODESIZE ISZERO DUP1 ISZERO PUSH2 0xF60 JUMPI PUSH1 0x0 DUP1 REVERT JUMPDEST POP GAS STATICCALL ISZERO DUP1 ISZERO PUSH2 0xF74 JUMPI RETURNDATASIZE PUSH1 0x0 DUP1 RETURNDATACOPY RETURNDATASIZE PUSH1 0x0 REVERT JUMPDEST POP POP POP POP PUSH1 0x40 MLOAD RETURNDATASIZE PUSH1 0x1F NOT PUSH1 0x1F DUP3 ADD AND DUP3 ADD DUP1 PUSH1 0x40 MSTORE POP DUP2 ADD SWAP1 PUSH2 0xF98 SWAP2 SWAP1 PUSH2 0x2C31 JUMP JUMPDEST SWAP1 POP SWAP2 SWAP1 POP JUMP JUMPDEST PUSH1 0x0 DUP1 PUSH1 0x1 SWAP1 SLOAD SWAP1 PUSH2 0x100 EXP SWAP1 DIV PUSH1 0xFF AND ISZERO SWAP1 POP DUP1 DUP1 ISZERO PUSH2 0xFD0 JUMPI POP PUSH1 0x1 PUSH1 0x0 DUP1 SLOAD SWAP1 PUSH2 0x100 EXP SWAP1 DIV PUSH1 0xFF AND PUSH1 0xFF AND LT JUMPDEST DUP1 PUSH2 0xFFD JUMPI POP PUSH2 0xFDF ADDRESS PUSH2 0x2381 JUMP JUMPDEST ISZERO DUP1 ISZERO PUSH2 0xFFC JUMPI POP PUSH1 0x1 PUSH1 0x0 DUP1 SLOAD SWAP1 PUSH2 0x100 EXP SWAP1 DIV PUSH1 0xFF AND PUSH1 0xFF AND EQ JUMPDEST JUMPDEST PUSH2 0x103C JUMPI PUSH1 0x40 MLOAD PUSH32 0x8C379A000000000000000000000000000000000000000000000000000000000 DUP2 MSTORE PUSH1 0x4 ADD PUSH2 0x1033 SWAP1 PUSH2 0x3373 JUMP JUMPDEST PUSH1 0x40 MLOAD DUP1 SWAP2 SUB SWAP1 REVERT JUMPDEST PUSH1 0x1 PUSH1 0x0 DUP1 PUSH2 0x100 EXP DUP2 SLOAD DUP2 PUSH1 0xFF MUL NOT AND SWAP1 DUP4 PUSH1 0xFF AND MUL OR SWAP1 SSTORE POP DUP1 ISZERO PUSH2 0x1079 JUMPI PUSH1 0x1 PUSH1 0x0 PUSH1 0x1 PUSH2 0x100 EXP DUP2 SLOAD DUP2 PUSH1 0xFF MUL NOT AND SWAP1 DUP4 ISZERO ISZERO MUL OR SWAP1 SSTORE POP JUMPDEST PUSH2 0x1081 PUSH2 0x23A4 JUMP JUMPDEST PUSH2 0x1089 PUSH2 0x23FD JUMP JUMPDEST DUP5 PUSH1 0xC9 PUSH1 0x0 PUSH2 0x100 EXP DUP2 SLOAD DUP2 PUSH20 0xFFFFFFFFFFFFFFFFFFFFFFFFFFFFFFFFFFFFFFFF MUL NOT AND SWAP1 DUP4 PUSH20 0xFFFFFFFFFFFFFFFFFFFFFFFFFFFFFFFFFFFFFFFF AND MUL OR SWAP1 SSTORE POP DUP3 PUSH1 0xCF DUP2 SWAP1 SSTORE POP DUP4 PUSH1 0xCA DUP2 SWAP1 SSTORE POP DUP2 DUP5 PUSH2 0x10E4 SWAP2 SWAP1 PUSH2 0x35E9 JUMP JUMPDEST PUSH1 0xCD DUP2 SWAP1 SSTORE POP DUP4 PUSH1 0xCE DUP2 SWAP1 SSTORE POP DUP1 ISZERO PUSH2 0x114A JUMPI PUSH1 0x0 DUP1 PUSH1 0x1 PUSH2 0x100 EXP DUP2 SLOAD DUP2 PUSH1 0xFF MUL NOT AND SWAP1 DUP4 ISZERO ISZERO MUL OR SWAP1 SSTORE POP PUSH32 0x7F26B83FF96E1F2B6A682F133852F6798A09C465DA95921460CEFB3847402498 PUSH1 0x1 PUSH1 0x40 MLOAD PUSH2 0x1141 SWAP2 SWAP1 PUSH2 0x3236 JUMP JUMPDEST PUSH1 0x40 MLOAD DUP1 SWAP2 SUB SWAP1 LOG1 JUMPDEST POP POP POP POP POP JUMP JUMPDEST PUSH32 0x0 PUSH20 0xFFFFFFFFFFFFFFFFFFFFFFFFFFFFFFFFFFFFFFFF AND ADDRESS PUSH20 0xFFFFFFFFFFFFFFFFFFFFFFFFFFFFFFFFFFFFFFFF AND EQ ISZERO PUSH2 0x11E0 JUMPI PUSH1 0x40 MLOAD PUSH32 0x8C379A000000000000000000000000000000000000000000000000000000000 DUP2 MSTORE PUSH1 0x4 ADD PUSH2 0x11D7 SWAP1 PUSH2 0x32D3 JUMP JUMPDEST PUSH1 0x40 MLOAD DUP1 SWAP2 SUB SWAP1 REVERT JUMPDEST PUSH32 0x0 PUSH20 0xFFFFFFFFFFFFFFFFFFFFFFFFFFFFFFFFFFFFFFFF AND PUSH2 0x121F PUSH2 0x21A2 JUMP JUMPDEST PUSH20 0xFFFFFFFFFFFFFFFFFFFFFFFFFFFFFFFFFFFFFFFF AND EQ PUSH2 0x1275 JUMPI PUSH1 0x40 MLOAD PUSH32 0x8C379A000000000000000000000000000000000000000000000000000000000 DUP2 MSTORE PUSH1 0x4 ADD PUSH2 0x126C SWAP1 PUSH2 0x32F3 JUMP JUMPDEST PUSH1 0x40 MLOAD DUP1 SWAP2 SUB SWAP1 REVERT JUMPDEST PUSH2 0x127E DUP3 PUSH2 0x21F9 JUMP JUMPDEST PUSH2 0x128A DUP3 DUP3 PUSH1 0x1 PUSH2 0x2204 JUMP JUMPDEST POP POP JUMP JUMPDEST PUSH1 0x0 PUSH32 0x0 PUSH20 0xFFFFFFFFFFFFFFFFFFFFFFFFFFFFFFFFFFFFFFFF AND ADDRESS PUSH20 0xFFFFFFFFFFFFFFFFFFFFFFFFFFFFFFFFFFFFFFFF AND EQ PUSH2 0x131E JUMPI PUSH1 0x40 MLOAD PUSH32 0x8C379A000000000000000000000000000000000000000000000000000000000 DUP2 MSTORE PUSH1 0x4 ADD PUSH2 0x1315 SWAP1 PUSH2 0x3333 JUMP JUMPDEST PUSH1 0x40 MLOAD DUP1 SWAP2 SUB SWAP1 REVERT JUMPDEST PUSH32 0x360894A13BA1A3210667C828492DB98DCA3E2076CC3735A920A3CA505D382BBC PUSH1 0x0 SHL SWAP1 POP SWAP1 JUMP JUMPDEST PUSH1 0xCF SLOAD DUP2 JUMP JUMPDEST PUSH2 0x1355 PUSH2 0x28D6 JUMP JUMPDEST PUSH1 0xD2 PUSH1 0x0 DUP4 PUSH20 0xFFFFFFFFFFFFFFFFFFFFFFFFFFFFFFFFFFFFFFFF AND PUSH20 0xFFFFFFFFFFFFFFFFFFFFFFFFFFFFFFFFFFFFFFFF AND DUP2 MSTORE PUSH1 0x20 ADD SWAP1 DUP2 MSTORE PUSH1 0x20 ADD PUSH1 0x0 KECCAK256 PUSH1 0x0 ADD SLOAD DUP2 PUSH1 0x0 ADD DUP2 DUP2 MSTORE POP POP PUSH2 0x13AA DUP3 PUSH2 0x7D1 JUMP JUMPDEST POP DUP2 PUSH1 0x20 ADD DUP2 DUP2 MSTORE POP POP PUSH1 0xD2 PUSH1 0x0 DUP4 PUSH20 0xFFFFFFFFFFFFFFFFFFFFFFFFFFFFFFFFFFFFFFFF AND PUSH20 0xFFFFFFFFFFFFFFFFFFFFFFFFFFFFFFFFFFFFFFFF AND DUP2 MSTORE PUSH1 0x20 ADD SWAP1 DUP2 MSTORE PUSH1 0x20 ADD PUSH1 0x0 KECCAK256 PUSH1 0x2 ADD SLOAD DUP2 PUSH1 0x40 ADD DUP2 DUP2 MSTORE POP POP PUSH1 0xD2 PUSH1 0x0 DUP4 PUSH20 0xFFFFFFFFFFFFFFFFFFFFFFFFFFFFFFFFFFFFFFFF AND PUSH20 0xFFFFFFFFFFFFFFFFFFFFFFFFFFFFFFFFFFFFFFFF AND DUP2 MSTORE PUSH1 0x20 ADD SWAP1 DUP2 MSTORE PUSH1 0x20 ADD PUSH1 0x0 KECCAK256 PUSH1 0x3 ADD SLOAD DUP2 PUSH1 0x60 ADD DUP2 DUP2 MSTORE POP POP SWAP2 SWAP1 POP JUMP JUMPDEST PUSH2 0x1459 PUSH2 0x2124 JUMP JUMPDEST DUP1 PUSH1 0xCA DUP2 SWAP1 SSTORE POP POP JUMP JUMPDEST PUSH1 0x0 PUSH2 0x146D PUSH2 0x2124 JUMP JUMPDEST DUP3 PUSH20 0xFFFFFFFFFFFFFFFFFFFFFFFFFFFFFFFFFFFFFFFF AND PUSH4 0xA9059CBB DUP4 DUP6 PUSH20 0xFFFFFFFFFFFFFFFFFFFFFFFFFFFFFFFFFFFFFFFF AND PUSH4 0x70A08231 ADDRESS PUSH1 0x40 MLOAD DUP3 PUSH4 0xFFFFFFFF AND PUSH1 0xE0 SHL DUP2 MSTORE PUSH1 0x4 ADD PUSH2 0x14C3 SWAP2 SWAP1 PUSH2 0x3163 JUMP JUMPDEST PUSH1 0x20 PUSH1 0x40 MLOAD DUP1 DUP4 SUB DUP2 DUP7 DUP1 EXTCODESIZE ISZERO DUP1 ISZERO PUSH2 0x14DB JUMPI PUSH1 0x0 DUP1 REVERT JUMPDEST POP GAS STATICCALL ISZERO DUP1 ISZERO PUSH2 0x14EF JUMPI RETURNDATASIZE PUSH1 0x0 DUP1 RETURNDATACOPY RETURNDATASIZE PUSH1 0x0 REVERT JUMPDEST POP POP POP POP PUSH1 0x40 MLOAD RETURNDATASIZE PUSH1 0x1F NOT PUSH1 0x1F DUP3 ADD AND DUP3 ADD DUP1 PUSH1 0x40 MSTORE POP DUP2 ADD SWAP1 PUSH2 0x1513 SWAP2 SWAP1 PUSH2 0x2C31 JUMP JUMPDEST PUSH1 0x40 MLOAD DUP4 PUSH4 0xFFFFFFFF AND PUSH1 0xE0 SHL DUP2 MSTORE PUSH1 0x4 ADD PUSH2 0x1530 SWAP3 SWAP2 SWAP1 PUSH2 0x31B5 JUMP JUMPDEST PUSH1 0x20 PUSH1 0x40 MLOAD DUP1 DUP4 SUB DUP2 PUSH1 0x0 DUP8 DUP1 EXTCODESIZE ISZERO DUP1 ISZERO PUSH2 0x154A JUMPI PUSH1 0x0 DUP1 REVERT JUMPDEST POP GAS CALL ISZERO DUP1 ISZERO PUSH2 0x155E JUMPI RETURNDATASIZE PUSH1 0x0 DUP1 RETURNDATACOPY RETURNDATASIZE PUSH1 0x0 REVERT JUMPDEST POP POP POP POP PUSH1 0x40 MLOAD RETURNDATASIZE PUSH1 0x1F NOT PUSH1 0x1F DUP3 ADD AND DUP3 ADD DUP1 PUSH1 0x40 MSTORE POP DUP2 ADD SWAP1 PUSH2 0x1582 SWAP2 SWAP1 PUSH2 0x2BAA JUMP JUMPDEST POP PUSH1 0x1 SWAP1 POP SWAP3 SWAP2 POP POP JUMP JUMPDEST PUSH2 0x1595 PUSH2 0x2124 JUMP JUMPDEST PUSH2 0x159F PUSH1 0x0 PUSH2 0x244E JUMP JUMPDEST JUMP JUMPDEST PUSH1 0x0 DUP1 PUSH1 0xD4 PUSH1 0x0 DUP5 PUSH20 0xFFFFFFFFFFFFFFFFFFFFFFFFFFFFFFFFFFFFFFFF AND PUSH20 0xFFFFFFFFFFFFFFFFFFFFFFFFFFFFFFFFFFFFFFFF AND DUP2 MSTORE PUSH1 0x20 ADD SWAP1 DUP2 MSTORE PUSH1 0x20 ADD PUSH1 0x0 KECCAK256 DUP1 SLOAD SWAP1 POP SWAP1 POP DUP1 SWAP2 POP POP SWAP2 SWAP1 POP JUMP JUMPDEST PUSH1 0x0 PUSH1 0xD2 PUSH1 0x0 CALLER PUSH20 0xFFFFFFFFFFFFFFFFFFFFFFFFFFFFFFFFFFFFFFFF AND PUSH20 0xFFFFFFFFFFFFFFFFFFFFFFFFFFFFFFFFFFFFFFFF AND DUP2 MSTORE PUSH1 0x20 ADD SWAP1 DUP2 MSTORE PUSH1 0x20 ADD PUSH1 0x0 KECCAK256 PUSH1 0x0 ADD SLOAD GT PUSH2 0x1677 JUMPI PUSH1 0x40 MLOAD PUSH32 0x8C379A000000000000000000000000000000000000000000000000000000000 DUP2 MSTORE PUSH1 0x4 ADD PUSH2 0x166E SWAP1 PUSH2 0x3313 JUMP JUMPDEST PUSH1 0x40 MLOAD DUP1 SWAP2 SUB SWAP1 REVERT JUMPDEST PUSH2 0x167F PUSH2 0x2514 JUMP JUMPDEST PUSH1 0x0 PUSH1 0xD3 PUSH1 0x0 CALLER PUSH20 0xFFFFFFFFFFFFFFFFFFFFFFFFFFFFFFFFFFFFFFFF AND PUSH20 0xFFFFFFFFFFFFFFFFFFFFFFFFFFFFFFFFFFFFFFFF AND DUP2 MSTORE PUSH1 0x20 ADD SWAP1 DUP2 MSTORE PUSH1 0x20 ADD PUSH1 0x0 KECCAK256 SLOAD PUSH5 0xE8D4A51000 PUSH1 0xCB SLOAD PUSH1 0xD2 PUSH1 0x0 CALLER PUSH20 0xFFFFFFFFFFFFFFFFFFFFFFFFFFFFFFFFFFFFFFFF AND PUSH20 0xFFFFFFFFFFFFFFFFFFFFFFFFFFFFFFFFFFFFFFFF AND DUP2 MSTORE PUSH1 0x20 ADD SWAP1 DUP2 MSTORE PUSH1 0x20 ADD PUSH1 0x0 KECCAK256 PUSH1 0x0 ADD SLOAD PUSH2 0x1717 SWAP2 SWAP1 PUSH2 0x3670 JUMP JUMPDEST PUSH2 0x1721 SWAP2 SWAP1 PUSH2 0x363F JUMP JUMPDEST PUSH2 0x172B SWAP2 SWAP1 PUSH2 0x36CA JUMP JUMPDEST SWAP1 POP PUSH1 0x0 DUP2 PUSH1 0xD2 PUSH1 0x0 CALLER PUSH20 0xFFFFFFFFFFFFFFFFFFFFFFFFFFFFFFFFFFFFFFFF AND PUSH20 0xFFFFFFFFFFFFFFFFFFFFFFFFFFFFFFFFFFFFFFFF AND DUP2 MSTORE PUSH1 0x20 ADD SWAP1 DUP2 MSTORE PUSH1 0x20 ADD PUSH1 0x0 KECCAK256 PUSH1 0x0 ADD SLOAD PUSH2 0x177D SWAP2 SWAP1 PUSH2 0x35E9 JUMP JUMPDEST SWAP1 POP PUSH1 0xD2 PUSH1 0x0 CALLER PUSH20 0xFFFFFFFFFFFFFFFFFFFFFFFFFFFFFFFFFFFFFFFF AND PUSH20 0xFFFFFFFFFFFFFFFFFFFFFFFFFFFFFFFFFFFFFFFF AND DUP2 MSTORE PUSH1 0x20 ADD SWAP1 DUP2 MSTORE PUSH1 0x20 ADD PUSH1 0x0 KECCAK256 PUSH1 0x0 ADD SLOAD PUSH1 0xD0 SLOAD PUSH2 0x17CF SWAP2 SWAP1 PUSH2 0x36CA JUMP JUMPDEST PUSH1 0xD0 DUP2 SWAP1 SSTORE POP PUSH1 0x0 PUSH1 0xD2 PUSH1 0x0 CALLER PUSH20 0xFFFFFFFFFFFFFFFFFFFFFFFFFFFFFFFFFFFFFFFF AND PUSH20 0xFFFFFFFFFFFFFFFFFFFFFFFFFFFFFFFFFFFFFFFF AND DUP2 MSTORE PUSH1 0x20 ADD SWAP1 DUP2 MSTORE PUSH1 0x20 ADD PUSH1 0x0 KECCAK256 PUSH1 0x0 ADD DUP2 SWAP1 SSTORE POP PUSH1 0x0 PUSH1 0xD3 PUSH1 0x0 CALLER PUSH20 0xFFFFFFFFFFFFFFFFFFFFFFFFFFFFFFFFFFFFFFFF AND PUSH20 0xFFFFFFFFFFFFFFFFFFFFFFFFFFFFFFFFFFFFFFFF AND DUP2 MSTORE PUSH1 0x20 ADD SWAP1 DUP2 MSTORE PUSH1 0x20 ADD PUSH1 0x0 KECCAK256 DUP2 SWAP1 SSTORE POP PUSH1 0xC9 PUSH1 0x0 SWAP1 SLOAD SWAP1 PUSH2 0x100 EXP SWAP1 DIV PUSH20 0xFFFFFFFFFFFFFFFFFFFFFFFFFFFFFFFFFFFFFFFF AND PUSH20 0xFFFFFFFFFFFFFFFFFFFFFFFFFFFFFFFFFFFFFFFF AND PUSH4 0xA9059CBB CALLER DUP4 PUSH1 0x40 MLOAD DUP4 PUSH4 0xFFFFFFFF AND PUSH1 0xE0 SHL DUP2 MSTORE PUSH1 0x4 ADD PUSH2 0x18BF SWAP3 SWAP2 SWAP1 PUSH2 0x31B5 JUMP JUMPDEST PUSH1 0x20 PUSH1 0x40 MLOAD DUP1 DUP4 SUB DUP2 PUSH1 0x0 DUP8 DUP1 EXTCODESIZE ISZERO DUP1 ISZERO PUSH2 0x18D9 JUMPI PUSH1 0x0 DUP1 REVERT JUMPDEST POP GAS CALL ISZERO DUP1 ISZERO PUSH2 0x18ED JUMPI RETURNDATASIZE PUSH1 0x0 DUP1 RETURNDATACOPY RETURNDATASIZE PUSH1 0x0 REVERT JUMPDEST POP POP POP POP PUSH1 0x40 MLOAD RETURNDATASIZE PUSH1 0x1F NOT PUSH1 0x1F DUP3 ADD AND DUP3 ADD DUP1 PUSH1 0x40 MSTORE POP DUP2 ADD SWAP1 PUSH2 0x1911 SWAP2 SWAP1 PUSH2 0x2BAA JUMP JUMPDEST POP PUSH1 0xD2 PUSH1 0x0 CALLER PUSH20 0xFFFFFFFFFFFFFFFFFFFFFFFFFFFFFFFFFFFFFFFF AND PUSH20 0xFFFFFFFFFFFFFFFFFFFFFFFFFFFFFFFFFFFFFFFF AND DUP2 MSTORE PUSH1 0x20 ADD SWAP1 DUP2 MSTORE PUSH1 0x20 ADD PUSH1 0x0 KECCAK256 PUSH1 0x0 ADD SLOAD PUSH1 0xD0 PUSH1 0x0 DUP3 DUP3 SLOAD PUSH2 0x1966 SWAP2 SWAP1 PUSH2 0x36CA JUMP JUMPDEST SWAP3 POP POP DUP2 SWAP1 SSTORE POP TIMESTAMP PUSH1 0xD2 PUSH1 0x0 CALLER PUSH20 0xFFFFFFFFFFFFFFFFFFFFFFFFFFFFFFFFFFFFFFFF AND PUSH20 0xFFFFFFFFFFFFFFFFFFFFFFFFFFFFFFFFFFFFFFFF AND DUP2 MSTORE PUSH1 0x20 ADD SWAP1 DUP2 MSTORE PUSH1 0x20 ADD PUSH1 0x0 KECCAK256 PUSH1 0x3 ADD DUP2 SWAP1 SSTORE POP PUSH1 0x0 PUSH1 0x40 MLOAD DUP1 PUSH1 0x60 ADD PUSH1 0x40 MSTORE DUP1 DUP4 DUP2 MSTORE PUSH1 0x20 ADD TIMESTAMP DUP2 MSTORE PUSH1 0x20 ADD PUSH1 0x40 MLOAD DUP1 PUSH1 0x40 ADD PUSH1 0x40 MSTORE DUP1 PUSH1 0x8 DUP2 MSTORE PUSH1 0x20 ADD PUSH32 0x5769746864726177000000000000000000000000000000000000000000000000 DUP2 MSTORE POP DUP2 MSTORE POP SWAP1 POP PUSH1 0xD4 PUSH1 0x0 CALLER PUSH20 0xFFFFFFFFFFFFFFFFFFFFFFFFFFFFFFFFFFFFFFFF AND PUSH20 0xFFFFFFFFFFFFFFFFFFFFFFFFFFFFFFFFFFFFFFFF AND DUP2 MSTORE PUSH1 0x20 ADD SWAP1 DUP2 MSTORE PUSH1 0x20 ADD PUSH1 0x0 KECCAK256 DUP2 SWAP1 DUP1 PUSH1 0x1 DUP2 SLOAD ADD DUP1 DUP3 SSTORE DUP1 SWAP2 POP POP PUSH1 0x1 SWAP1 SUB SWAP1 PUSH1 0x0 MSTORE PUSH1 0x20 PUSH1 0x0 KECCAK256 SWAP1 PUSH1 0x3 MUL ADD PUSH1 0x0 SWAP1 SWAP2 SWAP1 SWAP2 SWAP1 SWAP2 POP PUSH1 0x0 DUP3 ADD MLOAD DUP2 PUSH1 0x0 ADD SSTORE PUSH1 0x20 DUP3 ADD MLOAD DUP2 PUSH1 0x1 ADD SSTORE PUSH1 0x40 DUP3 ADD MLOAD DUP2 PUSH1 0x2 ADD SWAP1 DUP1 MLOAD SWAP1 PUSH1 0x20 ADD SWAP1 PUSH2 0x1AA1 SWAP3 SWAP2 SWAP1 PUSH2 0x28FE JUMP JUMPDEST POP POP POP CALLER PUSH20 0xFFFFFFFFFFFFFFFFFFFFFFFFFFFFFFFFFFFFFFFF AND PUSH32 0xF279E6A1F5E320CCA91135676D9CB6E44CA8A08C0B88342BCDB1144F6511B568 DUP4 DUP6 PUSH1 0x40 MLOAD PUSH2 0x1AEC SWAP3 SWAP2 SWAP1 PUSH2 0x34A9 JUMP JUMPDEST PUSH1 0x40 MLOAD DUP1 SWAP2 SUB SWAP1 LOG2 POP POP POP JUMP JUMPDEST PUSH1 0x0 PUSH1 0x33 PUSH1 0x0 SWAP1 SLOAD SWAP1 PUSH2 0x100 EXP SWAP1 DIV PUSH20 0xFFFFFFFFFFFFFFFFFFFFFFFFFFFFFFFFFFFFFFFF AND SWAP1 POP SWAP1 JUMP JUMPDEST PUSH1 0x0 PUSH1 0xCD SLOAD DUP3 GT PUSH2 0x1B41 JUMPI DUP3 DUP3 PUSH2 0x1B3A SWAP2 SWAP1 PUSH2 0x36CA JUMP JUMPDEST SWAP1 POP PUSH2 0x1B64 JUMP JUMPDEST PUSH1 0xCD SLOAD DUP4 LT PUSH2 0x1B53 JUMPI PUSH1 0x0 SWAP1 POP PUSH2 0x1B64 JUMP JUMPDEST DUP3 PUSH1 0xCD SLOAD PUSH2 0x1B61 SWAP2 SWAP1 PUSH2 0x36CA JUMP JUMPDEST SWAP1 POP JUMPDEST SWAP3 SWAP2 POP POP JUMP JUMPDEST PUSH1 0xCB SLOAD DUP2 JUMP JUMPDEST PUSH1 0xCE SLOAD DUP2 JUMP JUMPDEST PUSH1 0xCD SLOAD NUMBER GT ISZERO PUSH2 0x1BBB JUMPI PUSH1 0x40 MLOAD PUSH32 0x8C379A000000000000000000000000000000000000000000000000000000000 DUP2 MSTORE PUSH1 0x4 ADD PUSH2 0x1BB2 SWAP1 PUSH2 0x3413 JUMP JUMPDEST PUSH1 0x40 MLOAD DUP1 SWAP2 SUB SWAP1 REVERT JUMPDEST PUSH1 0x0 DUP2 GT PUSH2 0x1BFE JUMPI PUSH1 0x40 MLOAD PUSH32 0x8C379A000000000000000000000000000000000000000000000000000000000 DUP2 MSTORE PUSH1 0x4 ADD PUSH2 0x1BF5 SWAP1 PUSH2 0x3453 JUMP JUMPDEST PUSH1 0x40 MLOAD DUP1 SWAP2 SUB SWAP1 REVERT JUMPDEST PUSH2 0x1C06 PUSH2 0x2514 JUMP JUMPDEST PUSH1 0xC9 PUSH1 0x0 SWAP1 SLOAD SWAP1 PUSH2 0x100 EXP SWAP1 DIV PUSH20 0xFFFFFFFFFFFFFFFFFFFFFFFFFFFFFFFFFFFFFFFF AND PUSH20 0xFFFFFFFFFFFFFFFFFFFFFFFFFFFFFFFFFFFFFFFF AND PUSH4 0x23B872DD CALLER ADDRESS DUP5 PUSH1 0x40 MLOAD DUP5 PUSH4 0xFFFFFFFF AND PUSH1 0xE0 SHL DUP2 MSTORE PUSH1 0x4 ADD PUSH2 0x1C65 SWAP4 SWAP3 SWAP2 SWAP1 PUSH2 0x317E JUMP JUMPDEST PUSH1 0x20 PUSH1 0x40 MLOAD DUP1 DUP4 SUB DUP2 PUSH1 0x0 DUP8 DUP1 EXTCODESIZE ISZERO DUP1 ISZERO PUSH2 0x1C7F JUMPI PUSH1 0x0 DUP1 REVERT JUMPDEST POP GAS CALL ISZERO DUP1 ISZERO PUSH2 0x1C93 JUMPI RETURNDATASIZE PUSH1 0x0 DUP1 RETURNDATACOPY RETURNDATASIZE PUSH1 0x0 REVERT JUMPDEST POP POP POP POP PUSH1 0x40 MLOAD RETURNDATASIZE PUSH1 0x1F NOT PUSH1 0x1F DUP3 ADD AND DUP3 ADD DUP1 PUSH1 0x40 MSTORE POP DUP2 ADD SWAP1 PUSH2 0x1CB7 SWAP2 SWAP1 PUSH2 0x2BAA JUMP JUMPDEST POP PUSH1 0x0 DUP2 PUSH1 0xD2 PUSH1 0x0 CALLER PUSH20 0xFFFFFFFFFFFFFFFFFFFFFFFFFFFFFFFFFFFFFFFF AND PUSH20 0xFFFFFFFFFFFFFFFFFFFFFFFFFFFFFFFFFFFFFFFF AND DUP2 MSTORE PUSH1 0x20 ADD SWAP1 DUP2 MSTORE PUSH1 0x20 ADD PUSH1 0x0 KECCAK256 PUSH1 0x0 ADD PUSH1 0x0 DUP3 DUP3 SLOAD PUSH2 0x1D0C SWAP2 SWAP1 PUSH2 0x35E9 JUMP JUMPDEST SWAP3 POP POP DUP2 SWAP1 SSTORE POP TIMESTAMP PUSH1 0xD2 PUSH1 0x0 CALLER PUSH20 0xFFFFFFFFFFFFFFFFFFFFFFFFFFFFFFFFFFFFFFFF AND PUSH20 0xFFFFFFFFFFFFFFFFFFFFFFFFFFFFFFFFFFFFFFFF AND DUP2 MSTORE PUSH1 0x20 ADD SWAP1 DUP2 MSTORE PUSH1 0x20 ADD PUSH1 0x0 KECCAK256 PUSH1 0x2 ADD DUP2 SWAP1 SSTORE POP PUSH1 0xD5 PUSH1 0x0 CALLER PUSH20 0xFFFFFFFFFFFFFFFFFFFFFFFFFFFFFFFFFFFFFFFF AND PUSH20 0xFFFFFFFFFFFFFFFFFFFFFFFFFFFFFFFFFFFFFFFF AND DUP2 MSTORE PUSH1 0x20 ADD SWAP1 DUP2 MSTORE PUSH1 0x20 ADD PUSH1 0x0 KECCAK256 PUSH1 0x0 SWAP1 SLOAD SWAP1 PUSH2 0x100 EXP SWAP1 DIV PUSH1 0xFF AND PUSH2 0x1E1C JUMPI PUSH1 0x1 PUSH1 0xD5 PUSH1 0x0 CALLER PUSH20 0xFFFFFFFFFFFFFFFFFFFFFFFFFFFFFFFFFFFFFFFF AND PUSH20 0xFFFFFFFFFFFFFFFFFFFFFFFFFFFFFFFFFFFFFFFF AND DUP2 MSTORE PUSH1 0x20 ADD SWAP1 DUP2 MSTORE PUSH1 0x20 ADD PUSH1 0x0 KECCAK256 PUSH1 0x0 PUSH2 0x100 EXP DUP2 SLOAD DUP2 PUSH1 0xFF MUL NOT AND SWAP1 DUP4 ISZERO ISZERO MUL OR SWAP1 SSTORE POP PUSH1 0xD1 PUSH1 0x0 DUP2 SLOAD DUP1 SWAP3 SWAP2 SWAP1 PUSH2 0x1E16 SWAP1 PUSH2 0x3814 JUMP JUMPDEST SWAP2 SWAP1 POP SSTORE POP JUMPDEST PUSH5 0xE8D4A51000 PUSH1 0xCB SLOAD PUSH1 0xD2 PUSH1 0x0 CALLER PUSH20 0xFFFFFFFFFFFFFFFFFFFFFFFFFFFFFFFFFFFFFFFF AND PUSH20 0xFFFFFFFFFFFFFFFFFFFFFFFFFFFFFFFFFFFFFFFF AND DUP2 MSTORE PUSH1 0x20 ADD SWAP1 DUP2 MSTORE PUSH1 0x20 ADD PUSH1 0x0 KECCAK256 PUSH1 0x0 ADD SLOAD PUSH2 0x1E72 SWAP2 SWAP1 PUSH2 0x3670 JUMP JUMPDEST PUSH2 0x1E7C SWAP2 SWAP1 PUSH2 0x363F JUMP JUMPDEST PUSH1 0xD3 PUSH1 0x0 CALLER PUSH20 0xFFFFFFFFFFFFFFFFFFFFFFFFFFFFFFFFFFFFFFFF AND PUSH20 0xFFFFFFFFFFFFFFFFFFFFFFFFFFFFFFFFFFFFFFFF AND DUP2 MSTORE PUSH1 0x20 ADD SWAP1 DUP2 MSTORE PUSH1 0x20 ADD PUSH1 0x0 KECCAK256 DUP2 SWAP1 SSTORE POP DUP2 PUSH1 0xD0 PUSH1 0x0 DUP3 DUP3 SLOAD PUSH2 0x1ED1 SWAP2 SWAP1 PUSH2 0x35E9 JUMP JUMPDEST SWAP3 POP POP DUP2 SWAP1 SSTORE POP PUSH1 0x0 PUSH1 0x40 MLOAD DUP1 PUSH1 0x60 ADD PUSH1 0x40 MSTORE DUP1 DUP5 DUP2 MSTORE PUSH1 0x20 ADD TIMESTAMP DUP2 MSTORE PUSH1 0x20 ADD PUSH1 0x40 MLOAD DUP1 PUSH1 0x40 ADD PUSH1 0x40 MSTORE DUP1 PUSH1 0x5 DUP2 MSTORE PUSH1 0x20 ADD PUSH32 0x5374616B65000000000000000000000000000000000000000000000000000000 DUP2 MSTORE POP DUP2 MSTORE POP SWAP1 POP PUSH1 0xD4 PUSH1 0x0 CALLER PUSH20 0xFFFFFFFFFFFFFFFFFFFFFFFFFFFFFFFFFFFFFFFF AND PUSH20 0xFFFFFFFFFFFFFFFFFFFFFFFFFFFFFFFFFFFFFFFF AND DUP2 MSTORE PUSH1 0x20 ADD SWAP1 DUP2 MSTORE PUSH1 0x20 ADD PUSH1 0x0 KECCAK256 DUP2 SWAP1 DUP1 PUSH1 0x1 DUP2 SLOAD ADD DUP1 DUP3 SSTORE DUP1 SWAP2 POP POP PUSH1 0x1 SWAP1 SUB SWAP1 PUSH1 0x0 MSTORE PUSH1 0x20 PUSH1 0x0 KECCAK256 SWAP1 PUSH1 0x3 MUL ADD PUSH1 0x0 SWAP1 SWAP2 SWAP1 SWAP2 SWAP1 SWAP2 POP PUSH1 0x0 DUP3 ADD MLOAD DUP2 PUSH1 0x0 ADD SSTORE PUSH1 0x20 DUP3 ADD MLOAD DUP2 PUSH1 0x1 ADD SSTORE PUSH1 0x40 DUP3 ADD MLOAD DUP2 PUSH1 0x2 ADD SWAP1 DUP1 MLOAD SWAP1 PUSH1 0x20 ADD SWAP1 PUSH2 0x1FC5 SWAP3 SWAP2 SWAP1 PUSH2 0x28FE JUMP JUMPDEST POP POP POP CALLER PUSH20 0xFFFFFFFFFFFFFFFFFFFFFFFFFFFFFFFFFFFFFFFF AND PUSH32 0x90890809C654F11D6E72A28FA60149770A0D11EC6C92319D6CEB2BB0A4EA1A15 DUP5 DUP5 PUSH1 0x40 MLOAD PUSH2 0x2010 SWAP3 SWAP2 SWAP1 PUSH2 0x34A9 JUMP JUMPDEST PUSH1 0x40 MLOAD DUP1 SWAP2 SUB SWAP1 LOG2 POP POP POP JUMP JUMPDEST PUSH1 0xD5 PUSH1 0x20 MSTORE DUP1 PUSH1 0x0 MSTORE PUSH1 0x40 PUSH1 0x0 KECCAK256 PUSH1 0x0 SWAP2 POP SLOAD SWAP1 PUSH2 0x100 EXP SWAP1 DIV PUSH1 0xFF AND DUP2 JUMP JUMPDEST PUSH5 0xE8D4A51000 DUP2 JUMP JUMPDEST PUSH1 0xC9 PUSH1 0x0 SWAP1 SLOAD SWAP1 PUSH2 0x100 EXP SWAP1 DIV PUSH20 0xFFFFFFFFFFFFFFFFFFFFFFFFFFFFFFFFFFFFFFFF AND DUP2 JUMP JUMPDEST PUSH1 0xD1 SLOAD DUP2 JUMP JUMPDEST PUSH2 0x207A PUSH2 0x2124 JUMP JUMPDEST PUSH1 0x0 PUSH20 0xFFFFFFFFFFFFFFFFFFFFFFFFFFFFFFFFFFFFFFFF AND DUP2 PUSH20 0xFFFFFFFFFFFFFFFFFFFFFFFFFFFFFFFFFFFFFFFF AND EQ ISZERO PUSH2 0x20EA JUMPI PUSH1 0x40 MLOAD PUSH32 0x8C379A000000000000000000000000000000000000000000000000000000000 DUP2 MSTORE PUSH1 0x4 ADD PUSH2 0x20E1 SWAP1 PUSH2 0x3293 JUMP JUMPDEST PUSH1 0x40 MLOAD DUP1 SWAP2 SUB SWAP1 REVERT JUMPDEST PUSH2 0x20F3 DUP2 PUSH2 0x244E JUMP JUMPDEST POP JUMP JUMPDEST PUSH1 0x0 NUMBER PUSH1 0xCA SLOAD GT PUSH2 0x2116 JUMPI NUMBER PUSH1 0xCD SLOAD PUSH2 0x210F SWAP2 SWAP1 PUSH2 0x36CA JUMP JUMPDEST SWAP1 POP PUSH2 0x211B JUMP JUMPDEST PUSH1 0x0 SWAP1 POP JUMPDEST SWAP1 JUMP JUMPDEST PUSH1 0xD0 SLOAD DUP2 JUMP JUMPDEST PUSH2 0x212C PUSH2 0x25AE JUMP JUMPDEST PUSH20 0xFFFFFFFFFFFFFFFFFFFFFFFFFFFFFFFFFFFFFFFF AND PUSH2 0x214A PUSH2 0x1AF9 JUMP JUMPDEST PUSH20 0xFFFFFFFFFFFFFFFFFFFFFFFFFFFFFFFFFFFFFFFF AND EQ PUSH2 0x21A0 JUMPI PUSH1 0x40 MLOAD PUSH32 0x8C379A000000000000000000000000000000000000000000000000000000000 DUP2 MSTORE PUSH1 0x4 ADD PUSH2 0x2197 SWAP1 PUSH2 0x33D3 JUMP JUMPDEST PUSH1 0x40 MLOAD DUP1 SWAP2 SUB SWAP1 REVERT JUMPDEST JUMP JUMPDEST PUSH1 0x0 PUSH2 0x21D0 PUSH32 0x360894A13BA1A3210667C828492DB98DCA3E2076CC3735A920A3CA505D382BBC PUSH1 0x0 SHL PUSH2 0x25B6 JUMP JUMPDEST PUSH1 0x0 ADD PUSH1 0x0 SWAP1 SLOAD SWAP1 PUSH2 0x100 EXP SWAP1 DIV PUSH20 0xFFFFFFFFFFFFFFFFFFFFFFFFFFFFFFFFFFFFFFFF AND SWAP1 POP SWAP1 JUMP JUMPDEST PUSH2 0x2201 PUSH2 0x2124 JUMP JUMPDEST POP JUMP JUMPDEST PUSH2 0x2230 PUSH32 0x4910FDFA16FED3260ED0E7147F7CC6DA11A60208B5B9406D12A635614FFD9143 PUSH1 0x0 SHL PUSH2 0x25C0 JUMP JUMPDEST PUSH1 0x0 ADD PUSH1 0x0 SWAP1 SLOAD SWAP1 PUSH2 0x100 EXP SWAP1 DIV PUSH1 0xFF AND ISZERO PUSH2 0x2254 JUMPI PUSH2 0x224F DUP4 PUSH2 0x25CA JUMP JUMPDEST PUSH2 0x237C JUMP JUMPDEST DUP3 PUSH20 0xFFFFFFFFFFFFFFFFFFFFFFFFFFFFFFFFFFFFFFFF AND PUSH4 0x52D1902D PUSH1 0x40 MLOAD DUP2 PUSH4 0xFFFFFFFF AND PUSH1 0xE0 SHL DUP2 MSTORE PUSH1 0x4 ADD PUSH1 0x20 PUSH1 0x40 MLOAD DUP1 DUP4 SUB DUP2 DUP7 DUP1 EXTCODESIZE ISZERO DUP1 ISZERO PUSH2 0x229A JUMPI PUSH1 0x0 DUP1 REVERT JUMPDEST POP GAS STATICCALL SWAP3 POP POP POP DUP1 ISZERO PUSH2 0x22CB JUMPI POP PUSH1 0x40 MLOAD RETURNDATASIZE PUSH1 0x1F NOT PUSH1 0x1F DUP3 ADD AND DUP3 ADD DUP1 PUSH1 0x40 MSTORE POP DUP2 ADD SWAP1 PUSH2 0x22C8 SWAP2 SWAP1 PUSH2 0x2BD7 JUMP JUMPDEST PUSH1 0x1 JUMPDEST PUSH2 0x230A JUMPI PUSH1 0x40 MLOAD PUSH32 0x8C379A000000000000000000000000000000000000000000000000000000000 DUP2 MSTORE PUSH1 0x4 ADD PUSH2 0x2301 SWAP1 PUSH2 0x3393 JUMP JUMPDEST PUSH1 0x40 MLOAD DUP1 SWAP2 SUB SWAP1 REVERT JUMPDEST PUSH32 0x360894A13BA1A3210667C828492DB98DCA3E2076CC3735A920A3CA505D382BBC PUSH1 0x0 SHL DUP2 EQ PUSH2 0x236F JUMPI PUSH1 0x40 MLOAD PUSH32 0x8C379A000000000000000000000000000000000000000000000000000000000 DUP2 MSTORE PUSH1 0x4 ADD PUSH2 0x2366 SWAP1 PUSH2 0x3353 JUMP JUMPDEST PUSH1 0x40 MLOAD DUP1 SWAP2 SUB SWAP1 REVERT JUMPDEST POP PUSH2 0x237B DUP4 DUP4 DUP4 PUSH2 0x2683 JUMP JUMPDEST JUMPDEST POP POP POP JUMP JUMPDEST PUSH1 0x0 DUP1 DUP3 PUSH20 0xFFFFFFFFFFFFFFFFFFFFFFFFFFFFFFFFFFFFFFFF AND EXTCODESIZE GT SWAP1 POP SWAP2 SWAP1 POP JUMP JUMPDEST PUSH1 0x0 PUSH1 0x1 SWAP1 SLOAD SWAP1 PUSH2 0x100 EXP SWAP1 DIV PUSH1 0xFF AND PUSH2 0x23F3 JUMPI PUSH1 0x40 MLOAD PUSH32 0x8C379A000000000000000000000000000000000000000000000000000000000 DUP2 MSTORE PUSH1 0x4 ADD PUSH2 0x23EA SWAP1 PUSH2 0x3433 JUMP JUMPDEST PUSH1 0x40 MLOAD DUP1 SWAP2 SUB SWAP1 REVERT JUMPDEST PUSH2 0x23FB PUSH2 0x26AF JUMP JUMPDEST JUMP JUMPDEST PUSH1 0x0 PUSH1 0x1 SWAP1 SLOAD SWAP1 PUSH2 0x100 EXP SWAP1 DIV PUSH1 0xFF AND PUSH2 0x244C JUMPI PUSH1 0x40 MLOAD PUSH32 0x8C379A000000000000000000000000000000000000000000000000000000000 DUP2 MSTORE PUSH1 0x4 ADD PUSH2 0x2443 SWAP1 PUSH2 0x3433 JUMP JUMPDEST PUSH1 0x40 MLOAD DUP1 SWAP2 SUB SWAP1 REVERT JUMPDEST JUMP JUMPDEST PUSH1 0x0 PUSH1 0x33 PUSH1 0x0 SWAP1 SLOAD SWAP1 PUSH2 0x100 EXP SWAP1 DIV PUSH20 0xFFFFFFFFFFFFFFFFFFFFFFFFFFFFFFFFFFFFFFFF AND SWAP1 POP DUP2 PUSH1 0x33 PUSH1 0x0 PUSH2 0x100 EXP DUP2 SLOAD DUP2 PUSH20 0xFFFFFFFFFFFFFFFFFFFFFFFFFFFFFFFFFFFFFFFF MUL NOT AND SWAP1 DUP4 PUSH20 0xFFFFFFFFFFFFFFFFFFFFFFFFFFFFFFFFFFFFFFFF AND MUL OR SWAP1 SSTORE POP DUP2 PUSH20 0xFFFFFFFFFFFFFFFFFFFFFFFFFFFFFFFFFFFFFFFF AND DUP2 PUSH20 0xFFFFFFFFFFFFFFFFFFFFFFFFFFFFFFFFFFFFFFFF AND PUSH32 0x8BE0079C531659141344CD1FD0A4F28419497F9722A3DAAFE3B4186F6B6457E0 PUSH1 0x40 MLOAD PUSH1 0x40 MLOAD DUP1 SWAP2 SUB SWAP1 LOG3 POP POP JUMP JUMPDEST PUSH1 0xCE SLOAD NUMBER GT PUSH2 0x2522 JUMPI PUSH2 0x25AC JUMP JUMPDEST PUSH1 0x0 PUSH1 0xD0 SLOAD EQ ISZERO PUSH2 0x2539 JUMPI NUMBER PUSH1 0xCE DUP2 SWAP1 SSTORE POP PUSH2 0x25AC JUMP JUMPDEST PUSH1 0x0 PUSH2 0x2547 PUSH1 0xCE SLOAD NUMBER PUSH2 0x1B23 JUMP JUMPDEST SWAP1 POP PUSH1 0x0 PUSH1 0xCF SLOAD DUP3 PUSH2 0x2559 SWAP2 SWAP1 PUSH2 0x3670 JUMP JUMPDEST SWAP1 POP PUSH1 0x0 DUP2 GT ISZERO PUSH2 0x2596 JUMPI PUSH1 0xD0 SLOAD PUSH5 0xE8D4A51000 DUP3 PUSH2 0x2578 SWAP2 SWAP1 PUSH2 0x3670 JUMP JUMPDEST PUSH2 0x2582 SWAP2 SWAP1 PUSH2 0x363F JUMP JUMPDEST PUSH1 0xCB SLOAD PUSH2 0x258F SWAP2 SWAP1 PUSH2 0x35E9 JUMP JUMPDEST PUSH1 0xCB DUP2 SWAP1 SSTORE POP JUMPDEST PUSH1 0xCD SLOAD PUSH1 0xCE SLOAD GT PUSH2 0x25A9 JUMPI NUMBER PUSH1 0xCE DUP2 SWAP1 SSTORE POP JUMPDEST POP POP JUMPDEST JUMP JUMPDEST PUSH1 0x0 CALLER SWAP1 POP SWAP1 JUMP JUMPDEST PUSH1 0x0 DUP2 SWAP1 POP SWAP2 SWAP1 POP JUMP JUMPDEST PUSH1 0x0 DUP2 SWAP1 POP SWAP2 SWAP1 POP JUMP JUMPDEST PUSH2 0x25D3 DUP2 PUSH2 0x2381 JUMP JUMPDEST PUSH2 0x2612 JUMPI PUSH1 0x40 MLOAD PUSH32 0x8C379A000000000000000000000000000000000000000000000000000000000 DUP2 MSTORE PUSH1 0x4 ADD PUSH2 0x2609 SWAP1 PUSH2 0x33B3 JUMP JUMPDEST PUSH1 0x40 MLOAD DUP1 SWAP2 SUB SWAP1 REVERT JUMPDEST DUP1 PUSH2 0x263F PUSH32 0x360894A13BA1A3210667C828492DB98DCA3E2076CC3735A920A3CA505D382BBC PUSH1 0x0 SHL PUSH2 0x25B6 JUMP JUMPDEST PUSH1 0x0 ADD PUSH1 0x0 PUSH2 0x100 EXP DUP2 SLOAD DUP2 PUSH20 0xFFFFFFFFFFFFFFFFFFFFFFFFFFFFFFFFFFFFFFFF MUL NOT AND SWAP1 DUP4 PUSH20 0xFFFFFFFFFFFFFFFFFFFFFFFFFFFFFFFFFFFFFFFF AND MUL OR SWAP1 SSTORE POP POP JUMP JUMPDEST PUSH2 0x268C DUP4 PUSH2 0x2710 JUMP JUMPDEST PUSH1 0x0 DUP3 MLOAD GT DUP1 PUSH2 0x2699 JUMPI POP DUP1 JUMPDEST ISZERO PUSH2 0x26AA JUMPI PUSH2 0x26A8 DUP4 DUP4 PUSH2 0x275F JUMP JUMPDEST POP JUMPDEST POP POP POP JUMP JUMPDEST PUSH1 0x0 PUSH1 0x1 SWAP1 SLOAD SWAP1 PUSH2 0x100 EXP SWAP1 DIV PUSH1 0xFF AND PUSH2 0x26FE JUMPI PUSH1 0x40 MLOAD PUSH32 0x8C379A000000000000000000000000000000000000000000000000000000000 DUP2 MSTORE PUSH1 0x4 ADD PUSH2 0x26F5 SWAP1 PUSH2 0x3433 JUMP JUMPDEST PUSH1 0x40 MLOAD DUP1 SWAP2 SUB SWAP1 REVERT JUMPDEST PUSH2 0x270E PUSH2 0x2709 PUSH2 0x25AE JUMP JUMPDEST PUSH2 0x244E JUMP JUMPDEST JUMP JUMPDEST PUSH2 0x2719 DUP2 PUSH2 0x25CA JUMP JUMPDEST DUP1 PUSH20 0xFFFFFFFFFFFFFFFFFFFFFFFFFFFFFFFFFFFFFFFF AND PUSH32 0xBC7CD75A20EE27FD9ADEBAB32041F755214DBC6BFFA90CC0225B39DA2E5C2D3B PUSH1 0x40 MLOAD PUSH1 0x40 MLOAD DUP1 SWAP2 SUB SWAP1 LOG2 POP JUMP JUMPDEST PUSH1 0x60 PUSH2 0x276A DUP4 PUSH2 0x2381 JUMP JUMPDEST PUSH2 0x27A9 JUMPI PUSH1 0x40 MLOAD PUSH32 0x8C379A000000000000000000000000000000000000000000000000000000000 DUP2 MSTORE PUSH1 0x4 ADD PUSH2 0x27A0 SWAP1 PUSH2 0x33F3 JUMP JUMPDEST PUSH1 0x40 MLOAD DUP1 SWAP2 SUB SWAP1 REVERT JUMPDEST PUSH1 0x0 DUP1 DUP5 PUSH20 0xFFFFFFFFFFFFFFFFFFFFFFFFFFFFFFFFFFFFFFFF AND DUP5 PUSH1 0x40 MLOAD PUSH2 0x27D1 SWAP2 SWAP1 PUSH2 0x314C JUMP JUMPDEST PUSH1 0x0 PUSH1 0x40 MLOAD DUP1 DUP4 SUB DUP2 DUP6 GAS DELEGATECALL SWAP2 POP POP RETURNDATASIZE DUP1 PUSH1 0x0 DUP2 EQ PUSH2 0x280C JUMPI PUSH1 0x40 MLOAD SWAP2 POP PUSH1 0x1F NOT PUSH1 0x3F RETURNDATASIZE ADD AND DUP3 ADD PUSH1 0x40 MSTORE RETURNDATASIZE DUP3 MSTORE RETURNDATASIZE PUSH1 0x0 PUSH1 0x20 DUP5 ADD RETURNDATACOPY PUSH2 0x2811 JUMP JUMPDEST PUSH1 0x60 SWAP2 POP JUMPDEST POP SWAP2 POP SWAP2 POP PUSH2 0x2839 DUP3 DUP3 PUSH1 0x40 MLOAD DUP1 PUSH1 0x60 ADD PUSH1 0x40 MSTORE DUP1 PUSH1 0x27 DUP2 MSTORE PUSH1 0x20 ADD PUSH2 0x3DD6 PUSH1 0x27 SWAP2 CODECOPY PUSH2 0x2843 JUMP JUMPDEST SWAP3 POP POP POP SWAP3 SWAP2 POP POP JUMP JUMPDEST PUSH1 0x60 DUP4 ISZERO PUSH2 0x2853 JUMPI DUP3 SWAP1 POP PUSH2 0x285E JUMP JUMPDEST PUSH2 0x285D DUP4 DUP4 PUSH2 0x2865 JUMP JUMPDEST JUMPDEST SWAP4 SWAP3 POP POP POP JUMP JUMPDEST PUSH1 0x0 DUP3 MLOAD GT ISZERO PUSH2 0x2878 JUMPI DUP2 MLOAD DUP1 DUP4 PUSH1 0x20 ADD REVERT JUMPDEST DUP1 PUSH1 0x40 MLOAD PUSH32 0x8C379A000000000000000000000000000000000000000000000000000000000 DUP2 MSTORE PUSH1 0x4 ADD PUSH2 0x28AC SWAP2 SWAP1 PUSH2 0x3251 JUMP JUMPDEST PUSH1 0x40 MLOAD DUP1 SWAP2 SUB SWAP1 REVERT JUMPDEST PUSH1 0x40 MLOAD DUP1 PUSH1 0x60 ADD PUSH1 0x40 MSTORE DUP1 PUSH1 0x0 DUP2 MSTORE PUSH1 0x20 ADD PUSH1 0x0 DUP2 MSTORE PUSH1 0x20 ADD PUSH1 0x60 DUP2 MSTORE POP SWAP1 JUMP JUMPDEST PUSH1 0x40 MLOAD DUP1 PUSH1 0x80 ADD PUSH1 0x40 MSTORE DUP1 PUSH1 0x0 DUP2 MSTORE PUSH1 0x20 ADD PUSH1 0x0 DUP2 MSTORE PUSH1 0x20 ADD PUSH1 0x0 DUP2 MSTORE PUSH1 0x20 ADD PUSH1 0x0 DUP2 MSTORE POP SWAP1 JUMP JUMPDEST DUP3 DUP1 SLOAD PUSH2 0x290A SWAP1 PUSH2 0x37B1 JUMP JUMPDEST SWAP1 PUSH1 0x0 MSTORE PUSH1 0x20 PUSH1 0x0 KECCAK256 SWAP1 PUSH1 0x1F ADD PUSH1 0x20 SWAP1 DIV DUP2 ADD SWAP3 DUP3 PUSH2 0x292C JUMPI PUSH1 0x0 DUP6 SSTORE PUSH2 0x2973 JUMP JUMPDEST DUP3 PUSH1 0x1F LT PUSH2 0x2945 JUMPI DUP1 MLOAD PUSH1 0xFF NOT AND DUP4 DUP1 ADD OR DUP6 SSTORE PUSH2 0x2973 JUMP JUMPDEST DUP3 DUP1 ADD PUSH1 0x1 ADD DUP6 SSTORE DUP3 ISZERO PUSH2 0x2973 JUMPI SWAP2 DUP3 ADD JUMPDEST DUP3 DUP2 GT ISZERO PUSH2 0x2972 JUMPI DUP3 MLOAD DUP3 SSTORE SWAP2 PUSH1 0x20 ADD SWAP2 SWAP1 PUSH1 0x1 ADD SWAP1 PUSH2 0x2957 JUMP JUMPDEST JUMPDEST POP SWAP1 POP PUSH2 0x2980 SWAP2 SWAP1 PUSH2 0x2984 JUMP JUMPDEST POP SWAP1 JUMP JUMPDEST JUMPDEST DUP1 DUP3 GT ISZERO PUSH2 0x299D JUMPI PUSH1 0x0 DUP2 PUSH1 0x0 SWAP1 SSTORE POP PUSH1 0x1 ADD PUSH2 0x2985 JUMP JUMPDEST POP SWAP1 JUMP JUMPDEST PUSH1 0x0 PUSH2 0x29B4 PUSH2 0x29AF DUP5 PUSH2 0x353C JUMP JUMPDEST PUSH2 0x3517 JUMP JUMPDEST SWAP1 POP DUP3 DUP2 MSTORE PUSH1 0x20 DUP2 ADD DUP5 DUP5 DUP5 ADD GT ISZERO PUSH2 0x29D0 JUMPI PUSH2 0x29CF PUSH2 0x394D JUMP JUMPDEST JUMPDEST PUSH2 0x29DB DUP5 DUP3 DUP6 PUSH2 0x376F JUMP JUMPDEST POP SWAP4 SWAP3 POP POP POP JUMP JUMPDEST PUSH1 0x0 DUP2 CALLDATALOAD SWAP1 POP PUSH2 0x29F2 DUP2 PUSH2 0x3D79 JUMP JUMPDEST SWAP3 SWAP2 POP POP JUMP JUMPDEST PUSH1 0x0 DUP2 MLOAD SWAP1 POP PUSH2 0x2A07 DUP2 PUSH2 0x3D90 JUMP JUMPDEST SWAP3 SWAP2 POP POP JUMP JUMPDEST PUSH1 0x0 DUP2 MLOAD SWAP1 POP PUSH2 0x2A1C DUP2 PUSH2 0x3DA7 JUMP JUMPDEST SWAP3 SWAP2 POP POP JUMP JUMPDEST PUSH1 0x0 DUP3 PUSH1 0x1F DUP4 ADD SLT PUSH2 0x2A37 JUMPI PUSH2 0x2A36 PUSH2 0x3948 JUMP JUMPDEST JUMPDEST DUP2 CALLDATALOAD PUSH2 0x2A47 DUP5 DUP3 PUSH1 0x20 DUP7 ADD PUSH2 0x29A1 JUMP JUMPDEST SWAP2 POP POP SWAP3 SWAP2 POP POP JUMP JUMPDEST PUSH1 0x0 DUP2 CALLDATALOAD SWAP1 POP PUSH2 0x2A5F DUP2 PUSH2 0x3DBE JUMP JUMPDEST SWAP3 SWAP2 POP POP JUMP JUMPDEST PUSH1 0x0 DUP2 MLOAD SWAP1 POP PUSH2 0x2A74 DUP2 PUSH2 0x3DBE JUMP JUMPDEST SWAP3 SWAP2 POP POP JUMP JUMPDEST PUSH1 0x0 PUSH1 0x20 DUP3 DUP5 SUB SLT ISZERO PUSH2 0x2A90 JUMPI PUSH2 0x2A8F PUSH2 0x3957 JUMP JUMPDEST JUMPDEST PUSH1 0x0 PUSH2 0x2A9E DUP5 DUP3 DUP6 ADD PUSH2 0x29E3 JUMP JUMPDEST SWAP2 POP POP SWAP3 SWAP2 POP POP JUMP JUMPDEST PUSH1 0x0 DUP1 PUSH1 0x40 DUP4 DUP6 SUB SLT ISZERO PUSH2 0x2ABE JUMPI PUSH2 0x2ABD PUSH2 0x3957 JUMP JUMPDEST JUMPDEST PUSH1 0x0 PUSH2 0x2ACC DUP6 DUP3 DUP7 ADD PUSH2 0x29E3 JUMP JUMPDEST SWAP3 POP POP PUSH1 0x20 PUSH2 0x2ADD DUP6 DUP3 DUP7 ADD PUSH2 0x29E3 JUMP JUMPDEST SWAP2 POP POP SWAP3 POP SWAP3 SWAP1 POP JUMP JUMPDEST PUSH1 0x0 DUP1 PUSH1 0x40 DUP4 DUP6 SUB SLT ISZERO PUSH2 0x2AFE JUMPI PUSH2 0x2AFD PUSH2 0x3957 JUMP JUMPDEST JUMPDEST PUSH1 0x0 PUSH2 0x2B0C DUP6 DUP3 DUP7 ADD PUSH2 0x29E3 JUMP JUMPDEST SWAP3 POP POP PUSH1 0x20 DUP4 ADD CALLDATALOAD PUSH8 0xFFFFFFFFFFFFFFFF DUP2 GT ISZERO PUSH2 0x2B2D JUMPI PUSH2 0x2B2C PUSH2 0x3952 JUMP JUMPDEST JUMPDEST PUSH2 0x2B39 DUP6 DUP3 DUP7 ADD PUSH2 0x2A22 JUMP JUMPDEST SWAP2 POP POP SWAP3 POP SWAP3 SWAP1 POP JUMP JUMPDEST PUSH1 0x0 DUP1 PUSH1 0x0 DUP1 PUSH1 0x80 DUP6 DUP8 SUB SLT ISZERO PUSH2 0x2B5D JUMPI PUSH2 0x2B5C PUSH2 0x3957 JUMP JUMPDEST JUMPDEST PUSH1 0x0 PUSH2 0x2B6B DUP8 DUP3 DUP9 ADD PUSH2 0x29E3 JUMP JUMPDEST SWAP5 POP POP PUSH1 0x20 PUSH2 0x2B7C DUP8 DUP3 DUP9 ADD PUSH2 0x2A50 JUMP JUMPDEST SWAP4 POP POP PUSH1 0x40 PUSH2 0x2B8D DUP8 DUP3 DUP9 ADD PUSH2 0x2A50 JUMP JUMPDEST SWAP3 POP POP PUSH1 0x60 PUSH2 0x2B9E DUP8 DUP3 DUP9 ADD PUSH2 0x2A50 JUMP JUMPDEST SWAP2 POP POP SWAP3 SWAP6 SWAP2 SWAP5 POP SWAP3 POP JUMP JUMPDEST PUSH1 0x0 PUSH1 0x20 DUP3 DUP5 SUB SLT ISZERO PUSH2 0x2BC0 JUMPI PUSH2 0x2BBF PUSH2 0x3957 JUMP JUMPDEST JUMPDEST PUSH1 0x0 PUSH2 0x2BCE DUP5 DUP3 DUP6 ADD PUSH2 0x29F8 JUMP JUMPDEST SWAP2 POP POP SWAP3 SWAP2 POP POP JUMP JUMPDEST PUSH1 0x0 PUSH1 0x20 DUP3 DUP5 SUB SLT ISZERO PUSH2 0x2BED JUMPI PUSH2 0x2BEC PUSH2 0x3957 JUMP JUMPDEST JUMPDEST PUSH1 0x0 PUSH2 0x2BFB DUP5 DUP3 DUP6 ADD PUSH2 0x2A0D JUMP JUMPDEST SWAP2 POP POP SWAP3 SWAP2 POP POP JUMP JUMPDEST PUSH1 0x0 PUSH1 0x20 DUP3 DUP5 SUB SLT ISZERO PUSH2 0x2C1A JUMPI PUSH2 0x2C19 PUSH2 0x3957 JUMP JUMPDEST JUMPDEST PUSH1 0x0 PUSH2 0x2C28 DUP5 DUP3 DUP6 ADD PUSH2 0x2A50 JUMP JUMPDEST SWAP2 POP POP SWAP3 SWAP2 POP POP JUMP JUMPDEST PUSH1 0x0 PUSH1 0x20 DUP3 DUP5 SUB SLT ISZERO PUSH2 0x2C47 JUMPI PUSH2 0x2C46 PUSH2 0x3957 JUMP JUMPDEST JUMPDEST PUSH1 0x0 PUSH2 0x2C55 DUP5 DUP3 DUP6 ADD PUSH2 0x2A65 JUMP JUMPDEST SWAP2 POP POP SWAP3 SWAP2 POP POP JUMP JUMPDEST PUSH1 0x0 DUP1 PUSH1 0x40 DUP4 DUP6 SUB SLT ISZERO PUSH2 0x2C75 JUMPI PUSH2 0x2C74 PUSH2 0x3957 JUMP JUMPDEST JUMPDEST PUSH1 0x0 PUSH2 0x2C83 DUP6 DUP3 DUP7 ADD PUSH2 0x2A50 JUMP JUMPDEST SWAP3 POP POP PUSH1 0x20 PUSH2 0x2C94 DUP6 DUP3 DUP7 ADD PUSH2 0x2A50 JUMP JUMPDEST SWAP2 POP POP SWAP3 POP SWAP3 SWAP1 POP JUMP JUMPDEST PUSH1 0x0 DUP1 PUSH1 0x0 PUSH1 0x60 DUP5 DUP7 SUB SLT ISZERO PUSH2 0x2CB7 JUMPI PUSH2 0x2CB6 PUSH2 0x3957 JUMP JUMPDEST JUMPDEST PUSH1 0x0 PUSH2 0x2CC5 DUP7 DUP3 DUP8 ADD PUSH2 0x2A50 JUMP JUMPDEST SWAP4 POP POP PUSH1 0x20 PUSH2 0x2CD6 DUP7 DUP3 DUP8 ADD PUSH2 0x2A50 JUMP JUMPDEST SWAP3 POP POP PUSH1 0x40 PUSH2 0x2CE7 DUP7 DUP3 DUP8 ADD PUSH2 0x29E3 JUMP JUMPDEST SWAP2 POP POP SWAP3 POP SWAP3 POP SWAP3 JUMP JUMPDEST PUSH1 0x0 PUSH2 0x2CFD DUP4 DUP4 PUSH2 0x3089 JUMP JUMPDEST SWAP1 POP SWAP3 SWAP2 POP POP JUMP JUMPDEST PUSH2 0x2D0E DUP2 PUSH2 0x36FE JUMP JUMPDEST DUP3 MSTORE POP POP JUMP JUMPDEST PUSH1 0x0 PUSH2 0x2D1F DUP3 PUSH2 0x357D JUMP JUMPDEST PUSH2 0x2D29 DUP2 DUP6 PUSH2 0x35AB JUMP JUMPDEST SWAP4 POP DUP4 PUSH1 0x20 DUP3 MUL DUP6 ADD PUSH2 0x2D3B DUP6 PUSH2 0x356D JUMP JUMPDEST DUP1 PUSH1 0x0 JUMPDEST DUP6 DUP2 LT ISZERO PUSH2 0x2D77 JUMPI DUP5 DUP5 SUB DUP10 MSTORE DUP2 MLOAD PUSH2 0x2D58 DUP6 DUP3 PUSH2 0x2CF1 JUMP JUMPDEST SWAP5 POP PUSH2 0x2D63 DUP4 PUSH2 0x359E JUMP JUMPDEST SWAP3 POP PUSH1 0x20 DUP11 ADD SWAP10 POP POP PUSH1 0x1 DUP2 ADD SWAP1 POP PUSH2 0x2D3F JUMP JUMPDEST POP DUP3 SWAP8 POP DUP8 SWAP6 POP POP POP POP POP POP SWAP3 SWAP2 POP POP JUMP JUMPDEST PUSH2 0x2D92 DUP2 PUSH2 0x3710 JUMP JUMPDEST DUP3 MSTORE POP POP JUMP JUMPDEST PUSH2 0x2DA1 DUP2 PUSH2 0x371C JUMP JUMPDEST DUP3 MSTORE POP POP JUMP JUMPDEST PUSH1 0x0 PUSH2 0x2DB2 DUP3 PUSH2 0x3588 JUMP JUMPDEST PUSH2 0x2DBC DUP2 DUP6 PUSH2 0x35BC JUMP JUMPDEST SWAP4 POP PUSH2 0x2DCC DUP2 DUP6 PUSH1 0x20 DUP7 ADD PUSH2 0x377E JUMP JUMPDEST DUP1 DUP5 ADD SWAP2 POP POP SWAP3 SWAP2 POP POP JUMP JUMPDEST PUSH2 0x2DE1 DUP2 PUSH2 0x375D JUMP JUMPDEST DUP3 MSTORE POP POP JUMP JUMPDEST PUSH1 0x0 PUSH2 0x2DF2 DUP3 PUSH2 0x3593 JUMP JUMPDEST PUSH2 0x2DFC DUP2 DUP6 PUSH2 0x35C7 JUMP JUMPDEST SWAP4 POP PUSH2 0x2E0C DUP2 DUP6 PUSH1 0x20 DUP7 ADD PUSH2 0x377E JUMP JUMPDEST PUSH2 0x2E15 DUP2 PUSH2 0x395C JUMP JUMPDEST DUP5 ADD SWAP2 POP POP SWAP3 SWAP2 POP POP JUMP JUMPDEST PUSH1 0x0 PUSH2 0x2E2B DUP3 PUSH2 0x3593 JUMP JUMPDEST PUSH2 0x2E35 DUP2 DUP6 PUSH2 0x35D8 JUMP JUMPDEST SWAP4 POP PUSH2 0x2E45 DUP2 DUP6 PUSH1 0x20 DUP7 ADD PUSH2 0x377E JUMP JUMPDEST PUSH2 0x2E4E DUP2 PUSH2 0x395C JUMP JUMPDEST DUP5 ADD SWAP2 POP POP SWAP3 SWAP2 POP POP JUMP JUMPDEST PUSH1 0x0 PUSH2 0x2E66 PUSH1 0xD DUP4 PUSH2 0x35D8 JUMP JUMPDEST SWAP2 POP PUSH2 0x2E71 DUP3 PUSH2 0x396D JUMP JUMPDEST PUSH1 0x20 DUP3 ADD SWAP1 POP SWAP2 SWAP1 POP JUMP JUMPDEST PUSH1 0x0 PUSH2 0x2E89 PUSH1 0x26 DUP4 PUSH2 0x35D8 JUMP JUMPDEST SWAP2 POP PUSH2 0x2E94 DUP3 PUSH2 0x3996 JUMP JUMPDEST PUSH1 0x40 DUP3 ADD SWAP1 POP SWAP2 SWAP1 POP JUMP JUMPDEST PUSH1 0x0 PUSH2 0x2EAC PUSH1 0xC DUP4 PUSH2 0x35D8 JUMP JUMPDEST SWAP2 POP PUSH2 0x2EB7 DUP3 PUSH2 0x39E5 JUMP JUMPDEST PUSH1 0x20 DUP3 ADD SWAP1 POP SWAP2 SWAP1 POP JUMP JUMPDEST PUSH1 0x0 PUSH2 0x2ECF PUSH1 0x2C DUP4 PUSH2 0x35D8 JUMP JUMPDEST SWAP2 POP PUSH2 0x2EDA DUP3 PUSH2 0x3A0E JUMP JUMPDEST PUSH1 0x40 DUP3 ADD SWAP1 POP SWAP2 SWAP1 POP JUMP JUMPDEST PUSH1 0x0 PUSH2 0x2EF2 PUSH1 0x2C DUP4 PUSH2 0x35D8 JUMP JUMPDEST SWAP2 POP PUSH2 0x2EFD DUP3 PUSH2 0x3A5D JUMP JUMPDEST PUSH1 0x40 DUP3 ADD SWAP1 POP SWAP2 SWAP1 POP JUMP JUMPDEST PUSH1 0x0 PUSH2 0x2F15 PUSH1 0x1C DUP4 PUSH2 0x35D8 JUMP JUMPDEST SWAP2 POP PUSH2 0x2F20 DUP3 PUSH2 0x3AAC JUMP JUMPDEST PUSH1 0x20 DUP3 ADD SWAP1 POP SWAP2 SWAP1 POP JUMP JUMPDEST PUSH1 0x0 PUSH2 0x2F38 PUSH1 0x38 DUP4 PUSH2 0x35D8 JUMP JUMPDEST SWAP2 POP PUSH2 0x2F43 DUP3 PUSH2 0x3AD5 JUMP JUMPDEST PUSH1 0x40 DUP3 ADD SWAP1 POP SWAP2 SWAP1 POP JUMP JUMPDEST PUSH1 0x0 PUSH2 0x2F5B PUSH1 0x29 DUP4 PUSH2 0x35D8 JUMP JUMPDEST SWAP2 POP PUSH2 0x2F66 DUP3 PUSH2 0x3B24 JUMP JUMPDEST PUSH1 0x40 DUP3 ADD SWAP1 POP SWAP2 SWAP1 POP JUMP JUMPDEST PUSH1 0x0 PUSH2 0x2F7E PUSH1 0x2E DUP4 PUSH2 0x35D8 JUMP JUMPDEST SWAP2 POP PUSH2 0x2F89 DUP3 PUSH2 0x3B73 JUMP JUMPDEST PUSH1 0x40 DUP3 ADD SWAP1 POP SWAP2 SWAP1 POP JUMP JUMPDEST PUSH1 0x0 PUSH2 0x2FA1 PUSH1 0x2E DUP4 PUSH2 0x35D8 JUMP JUMPDEST SWAP2 POP PUSH2 0x2FAC DUP3 PUSH2 0x3BC2 JUMP JUMPDEST PUSH1 0x40 DUP3 ADD SWAP1 POP SWAP2 SWAP1 POP JUMP JUMPDEST PUSH1 0x0 PUSH2 0x2FC4 PUSH1 0x2D DUP4 PUSH2 0x35D8 JUMP JUMPDEST SWAP2 POP PUSH2 0x2FCF DUP3 PUSH2 0x3C11 JUMP JUMPDEST PUSH1 0x40 DUP3 ADD SWAP1 POP SWAP2 SWAP1 POP JUMP JUMPDEST PUSH1 0x0 PUSH2 0x2FE7 PUSH1 0x20 DUP4 PUSH2 0x35D8 JUMP JUMPDEST SWAP2 POP PUSH2 0x2FF2 DUP3 PUSH2 0x3C60 JUMP JUMPDEST PUSH1 0x20 DUP3 ADD SWAP1 POP SWAP2 SWAP1 POP JUMP JUMPDEST PUSH1 0x0 PUSH2 0x300A PUSH1 0x26 DUP4 PUSH2 0x35D8 JUMP JUMPDEST SWAP2 POP PUSH2 0x3015 DUP3 PUSH2 0x3C89 JUMP JUMPDEST PUSH1 0x40 DUP3 ADD SWAP1 POP SWAP2 SWAP1 POP JUMP JUMPDEST PUSH1 0x0 PUSH2 0x302D PUSH1 0x11 DUP4 PUSH2 0x35D8 JUMP JUMPDEST SWAP2 POP PUSH2 0x3038 DUP3 PUSH2 0x3CD8 JUMP JUMPDEST PUSH1 0x20 DUP3 ADD SWAP1 POP SWAP2 SWAP1 POP JUMP JUMPDEST PUSH1 0x0 PUSH2 0x3050 PUSH1 0x2B DUP4 PUSH2 0x35D8 JUMP JUMPDEST SWAP2 POP PUSH2 0x305B DUP3 PUSH2 0x3D01 JUMP JUMPDEST PUSH1 0x40 DUP3 ADD SWAP1 POP SWAP2 SWAP1 POP JUMP JUMPDEST PUSH1 0x0 PUSH2 0x3073 PUSH1 0x1B DUP4 PUSH2 0x35D8 JUMP JUMPDEST SWAP2 POP PUSH2 0x307E DUP3 PUSH2 0x3D50 JUMP JUMPDEST PUSH1 0x20 DUP3 ADD SWAP1 POP SWAP2 SWAP1 POP JUMP JUMPDEST PUSH1 0x0 PUSH1 0x60 DUP4 ADD PUSH1 0x0 DUP4 ADD MLOAD PUSH2 0x30A1 PUSH1 0x0 DUP7 ADD DUP3 PUSH2 0x312E JUMP JUMPDEST POP PUSH1 0x20 DUP4 ADD MLOAD PUSH2 0x30B4 PUSH1 0x20 DUP7 ADD DUP3 PUSH2 0x312E JUMP JUMPDEST POP PUSH1 0x40 DUP4 ADD MLOAD DUP5 DUP3 SUB PUSH1 0x40 DUP7 ADD MSTORE PUSH2 0x30CC DUP3 DUP3 PUSH2 0x2DE7 JUMP JUMPDEST SWAP2 POP POP DUP1 SWAP2 POP POP SWAP3 SWAP2 POP POP JUMP JUMPDEST PUSH1 0x80 DUP3 ADD PUSH1 0x0 DUP3 ADD MLOAD PUSH2 0x30EF PUSH1 0x0 DUP6 ADD DUP3 PUSH2 0x312E JUMP JUMPDEST POP PUSH1 0x20 DUP3 ADD MLOAD PUSH2 0x3102 PUSH1 0x20 DUP6 ADD DUP3 PUSH2 0x312E JUMP JUMPDEST POP PUSH1 0x40 DUP3 ADD MLOAD PUSH2 0x3115 PUSH1 0x40 DUP6 ADD DUP3 PUSH2 0x312E JUMP JUMPDEST POP PUSH1 0x60 DUP3 ADD MLOAD PUSH2 0x3128 PUSH1 0x60 DUP6 ADD DUP3 PUSH2 0x312E JUMP JUMPDEST POP POP POP POP JUMP JUMPDEST PUSH2 0x3137 DUP2 PUSH2 0x3746 JUMP JUMPDEST DUP3 MSTORE POP POP JUMP JUMPDEST PUSH2 0x3146 DUP2 PUSH2 0x3746 JUMP JUMPDEST DUP3 MSTORE POP POP JUMP JUMPDEST PUSH1 0x0 PUSH2 0x3158 DUP3 DUP5 PUSH2 0x2DA7 JUMP JUMPDEST SWAP2 POP DUP2 SWAP1 POP SWAP3 SWAP2 POP POP JUMP JUMPDEST PUSH1 0x0 PUSH1 0x20 DUP3 ADD SWAP1 POP PUSH2 0x3178 PUSH1 0x0 DUP4 ADD DUP5 PUSH2 0x2D05 JUMP JUMPDEST SWAP3 SWAP2 POP POP JUMP JUMPDEST PUSH1 0x0 PUSH1 0x60 DUP3 ADD SWAP1 POP PUSH2 0x3193 PUSH1 0x0 DUP4 ADD DUP7 PUSH2 0x2D05 JUMP JUMPDEST PUSH2 0x31A0 PUSH1 0x20 DUP4 ADD DUP6 PUSH2 0x2D05 JUMP JUMPDEST PUSH2 0x31AD PUSH1 0x40 DUP4 ADD DUP5 PUSH2 0x313D JUMP JUMPDEST SWAP5 SWAP4 POP POP POP POP JUMP JUMPDEST PUSH1 0x0 PUSH1 0x40 DUP3 ADD SWAP1 POP PUSH2 0x31CA PUSH1 0x0 DUP4 ADD DUP6 PUSH2 0x2D05 JUMP JUMPDEST PUSH2 0x31D7 PUSH1 0x20 DUP4 ADD DUP5 PUSH2 0x313D JUMP JUMPDEST SWAP4 SWAP3 POP POP POP JUMP JUMPDEST PUSH1 0x0 PUSH1 0x20 DUP3 ADD SWAP1 POP DUP2 DUP2 SUB PUSH1 0x0 DUP4 ADD MSTORE PUSH2 0x31F8 DUP2 DUP5 PUSH2 0x2D14 JUMP JUMPDEST SWAP1 POP SWAP3 SWAP2 POP POP JUMP JUMPDEST PUSH1 0x0 PUSH1 0x20 DUP3 ADD SWAP1 POP PUSH2 0x3215 PUSH1 0x0 DUP4 ADD DUP5 PUSH2 0x2D89 JUMP JUMPDEST SWAP3 SWAP2 POP POP JUMP JUMPDEST PUSH1 0x0 PUSH1 0x20 DUP3 ADD SWAP1 POP PUSH2 0x3230 PUSH1 0x0 DUP4 ADD DUP5 PUSH2 0x2D98 JUMP JUMPDEST SWAP3 SWAP2 POP POP JUMP JUMPDEST PUSH1 0x0 PUSH1 0x20 DUP3 ADD SWAP1 POP PUSH2 0x324B PUSH1 0x0 DUP4 ADD DUP5 PUSH2 0x2DD8 JUMP JUMPDEST SWAP3 SWAP2 POP POP JUMP JUMPDEST PUSH1 0x0 PUSH1 0x20 DUP3 ADD SWAP1 POP DUP2 DUP2 SUB PUSH1 0x0 DUP4 ADD MSTORE PUSH2 0x326B DUP2 DUP5 PUSH2 0x2E20 JUMP JUMPDEST SWAP1 POP SWAP3 SWAP2 POP POP JUMP JUMPDEST PUSH1 0x0 PUSH1 0x20 DUP3 ADD SWAP1 POP DUP2 DUP2 SUB PUSH1 0x0 DUP4 ADD MSTORE PUSH2 0x328C DUP2 PUSH2 0x2E59 JUMP JUMPDEST SWAP1 POP SWAP2 SWAP1 POP JUMP JUMPDEST PUSH1 0x0 PUSH1 0x20 DUP3 ADD SWAP1 POP DUP2 DUP2 SUB PUSH1 0x0 DUP4 ADD MSTORE PUSH2 0x32AC DUP2 PUSH2 0x2E7C JUMP JUMPDEST SWAP1 POP SWAP2 SWAP1 POP JUMP JUMPDEST PUSH1 0x0 PUSH1 0x20 DUP3 ADD SWAP1 POP DUP2 DUP2 SUB PUSH1 0x0 DUP4 ADD MSTORE PUSH2 0x32CC DUP2 PUSH2 0x2E9F JUMP JUMPDEST SWAP1 POP SWAP2 SWAP1 POP JUMP JUMPDEST PUSH1 0x0 PUSH1 0x20 DUP3 ADD SWAP1 POP DUP2 DUP2 SUB PUSH1 0x0 DUP4 ADD MSTORE PUSH2 0x32EC DUP2 PUSH2 0x2EC2 JUMP JUMPDEST SWAP1 POP SWAP2 SWAP1 POP JUMP JUMPDEST PUSH1 0x0 PUSH1 0x20 DUP3 ADD SWAP1 POP DUP2 DUP2 SUB PUSH1 0x0 DUP4 ADD MSTORE PUSH2 0x330C DUP2 PUSH2 0x2EE5 JUMP JUMPDEST SWAP1 POP SWAP2 SWAP1 POP JUMP JUMPDEST PUSH1 0x0 PUSH1 0x20 DUP3 ADD SWAP1 POP DUP2 DUP2 SUB PUSH1 0x0 DUP4 ADD MSTORE PUSH2 0x332C DUP2 PUSH2 0x2F08 JUMP JUMPDEST SWAP1 POP SWAP2 SWAP1 POP JUMP JUMPDEST PUSH1 0x0 PUSH1 0x20 DUP3 ADD SWAP1 POP DUP2 DUP2 SUB PUSH1 0x0 DUP4 ADD MSTORE PUSH2 0x334C DUP2 PUSH2 0x2F2B JUMP JUMPDEST SWAP1 POP SWAP2 SWAP1 POP JUMP JUMPDEST PUSH1 0x0 PUSH1 0x20 DUP3 ADD SWAP1 POP DUP2 DUP2 SUB PUSH1 0x0 DUP4 ADD MSTORE PUSH2 0x336C DUP2 PUSH2 0x2F4E JUMP JUMPDEST SWAP1 POP SWAP2 SWAP1 POP JUMP JUMPDEST PUSH1 0x0 PUSH1 0x20 DUP3 ADD SWAP1 POP DUP2 DUP2 SUB PUSH1 0x0 DUP4 ADD MSTORE PUSH2 0x338C DUP2 PUSH2 0x2F71 JUMP JUMPDEST SWAP1 POP SWAP2 SWAP1 POP JUMP JUMPDEST PUSH1 0x0 PUSH1 0x20 DUP3 ADD SWAP1 POP DUP2 DUP2 SUB PUSH1 0x0 DUP4 ADD MSTORE PUSH2 0x33AC DUP2 PUSH2 0x2F94 JUMP JUMPDEST SWAP1 POP SWAP2 SWAP1 POP JUMP JUMPDEST PUSH1 0x0 PUSH1 0x20 DUP3 ADD SWAP1 POP DUP2 DUP2 SUB PUSH1 0x0 DUP4 ADD MSTORE PUSH2 0x33CC DUP2 PUSH2 0x2FB7 JUMP JUMPDEST SWAP1 POP SWAP2 SWAP1 POP JUMP JUMPDEST PUSH1 0x0 PUSH1 0x20 DUP3 ADD SWAP1 POP DUP2 DUP2 SUB PUSH1 0x0 DUP4 ADD MSTORE PUSH2 0x33EC DUP2 PUSH2 0x2FDA JUMP JUMPDEST SWAP1 POP SWAP2 SWAP1 POP JUMP JUMPDEST PUSH1 0x0 PUSH1 0x20 DUP3 ADD SWAP1 POP DUP2 DUP2 SUB PUSH1 0x0 DUP4 ADD MSTORE PUSH2 0x340C DUP2 PUSH2 0x2FFD JUMP JUMPDEST SWAP1 POP SWAP2 SWAP1 POP JUMP JUMPDEST PUSH1 0x0 PUSH1 0x20 DUP3 ADD SWAP1 POP DUP2 DUP2 SUB PUSH1 0x0 DUP4 ADD MSTORE PUSH2 0x342C DUP2 PUSH2 0x3020 JUMP JUMPDEST SWAP1 POP SWAP2 SWAP1 POP JUMP JUMPDEST PUSH1 0x0 PUSH1 0x20 DUP3 ADD SWAP1 POP DUP2 DUP2 SUB PUSH1 0x0 DUP4 ADD MSTORE PUSH2 0x344C DUP2 PUSH2 0x3043 JUMP JUMPDEST SWAP1 POP SWAP2 SWAP1 POP JUMP JUMPDEST PUSH1 0x0 PUSH1 0x20 DUP3 ADD SWAP1 POP DUP2 DUP2 SUB PUSH1 0x0 DUP4 ADD MSTORE PUSH2 0x346C DUP2 PUSH2 0x3066 JUMP JUMPDEST SWAP1 POP SWAP2 SWAP1 POP JUMP JUMPDEST PUSH1 0x0 PUSH1 0x80 DUP3 ADD SWAP1 POP PUSH2 0x3488 PUSH1 0x0 DUP4 ADD DUP5 PUSH2 0x30D9 JUMP JUMPDEST SWAP3 SWAP2 POP POP JUMP JUMPDEST PUSH1 0x0 PUSH1 0x20 DUP3 ADD SWAP1 POP PUSH2 0x34A3 PUSH1 0x0 DUP4 ADD DUP5 PUSH2 0x313D JUMP JUMPDEST SWAP3 SWAP2 POP POP JUMP JUMPDEST PUSH1 0x0 PUSH1 0x40 DUP3 ADD SWAP1 POP PUSH2 0x34BE PUSH1 0x0 DUP4 ADD DUP6 PUSH2 0x313D JUMP JUMPDEST PUSH2 0x34CB PUSH1 0x20 DUP4 ADD DUP5 PUSH2 0x313D JUMP JUMPDEST SWAP4 SWAP3 POP POP POP JUMP JUMPDEST PUSH1 0x0 PUSH1 0x80 DUP3 ADD SWAP1 POP PUSH2 0x34E7 PUSH1 0x0 DUP4 ADD DUP8 PUSH2 0x313D JUMP JUMPDEST PUSH2 0x34F4 PUSH1 0x20 DUP4 ADD DUP7 PUSH2 0x313D JUMP JUMPDEST PUSH2 0x3501 PUSH1 0x40 DUP4 ADD DUP6 PUSH2 0x313D JUMP JUMPDEST PUSH2 0x350E PUSH1 0x60 DUP4 ADD DUP5 PUSH2 0x313D JUMP JUMPDEST SWAP6 SWAP5 POP POP POP POP POP JUMP JUMPDEST PUSH1 0x0 PUSH2 0x3521 PUSH2 0x3532 JUMP JUMPDEST SWAP1 POP PUSH2 0x352D DUP3 DUP3 PUSH2 0x37E3 JUMP JUMPDEST SWAP2 SWAP1 POP JUMP JUMPDEST PUSH1 0x0 PUSH1 0x40 MLOAD SWAP1 POP SWAP1 JUMP JUMPDEST PUSH1 0x0 PUSH8 0xFFFFFFFFFFFFFFFF DUP3 GT ISZERO PUSH2 0x3557 JUMPI PUSH2 0x3556 PUSH2 0x3919 JUMP JUMPDEST JUMPDEST PUSH2 0x3560 DUP3 PUSH2 0x395C JUMP JUMPDEST SWAP1 POP PUSH1 0x20 DUP2 ADD SWAP1 POP SWAP2 SWAP1 POP JUMP JUMPDEST PUSH1 0x0 DUP2 SWAP1 POP PUSH1 0x20 DUP3 ADD SWAP1 POP SWAP2 SWAP1 POP JUMP JUMPDEST PUSH1 0x0 DUP2 MLOAD SWAP1 POP SWAP2 SWAP1 POP JUMP JUMPDEST PUSH1 0x0 DUP2 MLOAD SWAP1 POP SWAP2 SWAP1 POP JUMP JUMPDEST PUSH1 0x0 DUP2 MLOAD SWAP1 POP SWAP2 SWAP1 POP JUMP JUMPDEST PUSH1 0x0 PUSH1 0x20 DUP3 ADD SWAP1 POP SWAP2 SWAP1 POP JUMP JUMPDEST PUSH1 0x0 DUP3 DUP3 MSTORE PUSH1 0x20 DUP3 ADD SWAP1 POP SWAP3 SWAP2 POP POP JUMP JUMPDEST PUSH1 0x0 DUP2 SWAP1 POP SWAP3 SWAP2 POP POP JUMP JUMPDEST PUSH1 0x0 DUP3 DUP3 MSTORE PUSH1 0x20 DUP3 ADD SWAP1 POP SWAP3 SWAP2 POP POP JUMP JUMPDEST PUSH1 0x0 DUP3 DUP3 MSTORE PUSH1 0x20 DUP3 ADD SWAP1 POP SWAP3 SWAP2 POP POP JUMP JUMPDEST PUSH1 0x0 PUSH2 0x35F4 DUP3 PUSH2 0x3746 JUMP JUMPDEST SWAP2 POP PUSH2 0x35FF DUP4 PUSH2 0x3746 JUMP JUMPDEST SWAP3 POP DUP3 PUSH32 0xFFFFFFFFFFFFFFFFFFFFFFFFFFFFFFFFFFFFFFFFFFFFFFFFFFFFFFFFFFFFFFFF SUB DUP3 GT ISZERO PUSH2 0x3634 JUMPI PUSH2 0x3633 PUSH2 0x385D JUMP JUMPDEST JUMPDEST DUP3 DUP3 ADD SWAP1 POP SWAP3 SWAP2 POP POP JUMP JUMPDEST PUSH1 0x0 PUSH2 0x364A DUP3 PUSH2 0x3746 JUMP JUMPDEST SWAP2 POP PUSH2 0x3655 DUP4 PUSH2 0x3746 JUMP JUMPDEST SWAP3 POP DUP3 PUSH2 0x3665 JUMPI PUSH2 0x3664 PUSH2 0x388C JUMP JUMPDEST JUMPDEST DUP3 DUP3 DIV SWAP1 POP SWAP3 SWAP2 POP POP JUMP JUMPDEST PUSH1 0x0 PUSH2 0x367B DUP3 PUSH2 0x3746 JUMP JUMPDEST SWAP2 POP PUSH2 0x3686 DUP4 PUSH2 0x3746 JUMP JUMPDEST SWAP3 POP DUP2 PUSH32 0xFFFFFFFFFFFFFFFFFFFFFFFFFFFFFFFFFFFFFFFFFFFFFFFFFFFFFFFFFFFFFFFF DIV DUP4 GT DUP3 ISZERO ISZERO AND ISZERO PUSH2 0x36BF JUMPI PUSH2 0x36BE PUSH2 0x385D JUMP JUMPDEST JUMPDEST DUP3 DUP3 MUL SWAP1 POP SWAP3 SWAP2 POP POP JUMP JUMPDEST PUSH1 0x0 PUSH2 0x36D5 DUP3 PUSH2 0x3746 JUMP JUMPDEST SWAP2 POP PUSH2 0x36E0 DUP4 PUSH2 0x3746 JUMP JUMPDEST SWAP3 POP DUP3 DUP3 LT ISZERO PUSH2 0x36F3 JUMPI PUSH2 0x36F2 PUSH2 0x385D JUMP JUMPDEST JUMPDEST DUP3 DUP3 SUB SWAP1 POP SWAP3 SWAP2 POP POP JUMP JUMPDEST PUSH1 0x0 PUSH2 0x3709 DUP3 PUSH2 0x3726 JUMP JUMPDEST SWAP1 POP SWAP2 SWAP1 POP JUMP JUMPDEST PUSH1 0x0 DUP2 ISZERO ISZERO SWAP1 POP SWAP2 SWAP1 POP JUMP JUMPDEST PUSH1 0x0 DUP2 SWAP1 POP SWAP2 SWAP1 POP JUMP JUMPDEST PUSH1 0x0 PUSH20 0xFFFFFFFFFFFFFFFFFFFFFFFFFFFFFFFFFFFFFFFF DUP3 AND SWAP1 POP SWAP2 SWAP1 POP JUMP JUMPDEST PUSH1 0x0 DUP2 SWAP1 POP SWAP2 SWAP1 POP JUMP JUMPDEST PUSH1 0x0 PUSH1 0xFF DUP3 AND SWAP1 POP SWAP2 SWAP1 POP JUMP JUMPDEST PUSH1 0x0 PUSH2 0x3768 DUP3 PUSH2 0x3750 JUMP JUMPDEST SWAP1 POP SWAP2 SWAP1 POP JUMP JUMPDEST DUP3 DUP2 DUP4 CALLDATACOPY PUSH1 0x0 DUP4 DUP4 ADD MSTORE POP POP POP JUMP JUMPDEST PUSH1 0x0 JUMPDEST DUP4 DUP2 LT ISZERO PUSH2 0x379C JUMPI DUP1 DUP3 ADD MLOAD DUP2 DUP5 ADD MSTORE PUSH1 0x20 DUP2 ADD SWAP1 POP PUSH2 0x3781 JUMP JUMPDEST DUP4 DUP2 GT ISZERO PUSH2 0x37AB JUMPI PUSH1 0x0 DUP5 DUP5 ADD MSTORE JUMPDEST POP POP POP POP JUMP JUMPDEST PUSH1 0x0 PUSH1 0x2 DUP3 DIV SWAP1 POP PUSH1 0x1 DUP3 AND DUP1 PUSH2 0x37C9 JUMPI PUSH1 0x7F DUP3 AND SWAP2 POP JUMPDEST PUSH1 0x20 DUP3 LT DUP2 EQ ISZERO PUSH2 0x37DD JUMPI PUSH2 0x37DC PUSH2 0x38BB JUMP JUMPDEST JUMPDEST POP SWAP2 SWAP1 POP JUMP JUMPDEST PUSH2 0x37EC DUP3 PUSH2 0x395C JUMP JUMPDEST DUP2 ADD DUP2 DUP2 LT PUSH8 0xFFFFFFFFFFFFFFFF DUP3 GT OR ISZERO PUSH2 0x380B JUMPI PUSH2 0x380A PUSH2 0x3919 JUMP JUMPDEST JUMPDEST DUP1 PUSH1 0x40 MSTORE POP POP POP JUMP JUMPDEST PUSH1 0x0 PUSH2 0x381F DUP3 PUSH2 0x3746 JUMP JUMPDEST SWAP2 POP PUSH32 0xFFFFFFFFFFFFFFFFFFFFFFFFFFFFFFFFFFFFFFFFFFFFFFFFFFFFFFFFFFFFFFFF DUP3 EQ ISZERO PUSH2 0x3852 JUMPI PUSH2 0x3851 PUSH2 0x385D JUMP JUMPDEST JUMPDEST PUSH1 0x1 DUP3 ADD SWAP1 POP SWAP2 SWAP1 POP JUMP JUMPDEST PUSH32 0x4E487B7100000000000000000000000000000000000000000000000000000000 PUSH1 0x0 MSTORE PUSH1 0x11 PUSH1 0x4 MSTORE PUSH1 0x24 PUSH1 0x0 REVERT JUMPDEST PUSH32 0x4E487B7100000000000000000000000000000000000000000000000000000000 PUSH1 0x0 MSTORE PUSH1 0x12 PUSH1 0x4 MSTORE PUSH1 0x24 PUSH1 0x0 REVERT JUMPDEST PUSH32 0x4E487B7100000000000000000000000000000000000000000000000000000000 PUSH1 0x0 MSTORE PUSH1 0x22 PUSH1 0x4 MSTORE PUSH1 0x24 PUSH1 0x0 REVERT JUMPDEST PUSH32 0x4E487B7100000000000000000000000000000000000000000000000000000000 PUSH1 0x0 MSTORE PUSH1 0x32 PUSH1 0x4 MSTORE PUSH1 0x24 PUSH1 0x0 REVERT JUMPDEST PUSH32 0x4E487B7100000000000000000000000000000000000000000000000000000000 PUSH1 0x0 MSTORE PUSH1 0x41 PUSH1 0x4 MSTORE PUSH1 0x24 PUSH1 0x0 REVERT JUMPDEST PUSH1 0x0 DUP1 REVERT JUMPDEST PUSH1 0x0 DUP1 REVERT JUMPDEST PUSH1 0x0 DUP1 REVERT JUMPDEST PUSH1 0x0 DUP1 REVERT JUMPDEST PUSH1 0x0 PUSH1 0x1F NOT PUSH1 0x1F DUP4 ADD AND SWAP1 POP SWAP2 SWAP1 POP JUMP JUMPDEST PUSH32 0x4F564552464C4F575F5041474500000000000000000000000000000000000000 PUSH1 0x0 DUP3 ADD MSTORE POP JUMP JUMPDEST PUSH32 0x4F776E61626C653A206E6577206F776E657220697320746865207A65726F2061 PUSH1 0x0 DUP3 ADD MSTORE PUSH32 0x6464726573730000000000000000000000000000000000000000000000000000 PUSH1 0x20 DUP3 ADD MSTORE POP JUMP JUMPDEST PUSH32 0x5A45524F5F42414C414E43450000000000000000000000000000000000000000 PUSH1 0x0 DUP3 ADD MSTORE POP JUMP JUMPDEST PUSH32 0x46756E6374696F6E206D7573742062652063616C6C6564207468726F75676820 PUSH1 0x0 DUP3 ADD MSTORE PUSH32 0x64656C656761746563616C6C0000000000000000000000000000000000000000 PUSH1 0x20 DUP3 ADD MSTORE POP JUMP JUMPDEST PUSH32 0x46756E6374696F6E206D7573742062652063616C6C6564207468726F75676820 PUSH1 0x0 DUP3 ADD MSTORE PUSH32 0x6163746976652070726F78790000000000000000000000000000000000000000 PUSH1 0x20 DUP3 ADD MSTORE POP JUMP JUMPDEST PUSH32 0x57697468647261773A20416D6F756E74206D757374206265203E203000000000 PUSH1 0x0 DUP3 ADD MSTORE POP JUMP JUMPDEST PUSH32 0x555550535570677261646561626C653A206D757374206E6F742062652063616C PUSH1 0x0 DUP3 ADD MSTORE PUSH32 0x6C6564207468726F7567682064656C656761746563616C6C0000000000000000 PUSH1 0x20 DUP3 ADD MSTORE POP JUMP JUMPDEST PUSH32 0x45524331393637557067726164653A20756E737570706F727465642070726F78 PUSH1 0x0 DUP3 ADD MSTORE PUSH32 0x6961626C65555549440000000000000000000000000000000000000000000000 PUSH1 0x20 DUP3 ADD MSTORE POP JUMP JUMPDEST PUSH32 0x496E697469616C697A61626C653A20636F6E747261637420697320616C726561 PUSH1 0x0 DUP3 ADD MSTORE PUSH32 0x647920696E697469616C697A6564000000000000000000000000000000000000 PUSH1 0x20 DUP3 ADD MSTORE POP JUMP JUMPDEST PUSH32 0x45524331393637557067726164653A206E657720696D706C656D656E74617469 PUSH1 0x0 DUP3 ADD MSTORE PUSH32 0x6F6E206973206E6F742055555053000000000000000000000000000000000000 PUSH1 0x20 DUP3 ADD MSTORE POP JUMP JUMPDEST PUSH32 0x455243313936373A206E657720696D706C656D656E746174696F6E206973206E PUSH1 0x0 DUP3 ADD MSTORE PUSH32 0x6F74206120636F6E747261637400000000000000000000000000000000000000 PUSH1 0x20 DUP3 ADD MSTORE POP JUMP JUMPDEST PUSH32 0x4F776E61626C653A2063616C6C6572206973206E6F7420746865206F776E6572 PUSH1 0x0 DUP3 ADD MSTORE POP JUMP JUMPDEST PUSH32 0x416464726573733A2064656C65676174652063616C6C20746F206E6F6E2D636F PUSH1 0x0 DUP3 ADD MSTORE PUSH32 0x6E74726163740000000000000000000000000000000000000000000000000000 PUSH1 0x20 DUP3 ADD MSTORE POP JUMP JUMPDEST PUSH32 0x7374616B652074696D65206973206F7574000000000000000000000000000000 PUSH1 0x0 DUP3 ADD MSTORE POP JUMP JUMPDEST PUSH32 0x496E697469616C697A61626C653A20636F6E7472616374206973206E6F742069 PUSH1 0x0 DUP3 ADD MSTORE PUSH32 0x6E697469616C697A696E67000000000000000000000000000000000000000000 PUSH1 0x20 DUP3 ADD MSTORE POP JUMP JUMPDEST PUSH32 0x4465706F7369743A20416D6F756E74206D757374206265203E20300000000000 PUSH1 0x0 DUP3 ADD MSTORE POP JUMP JUMPDEST PUSH2 0x3D82 DUP2 PUSH2 0x36FE JUMP JUMPDEST DUP2 EQ PUSH2 0x3D8D JUMPI PUSH1 0x0 DUP1 REVERT JUMPDEST POP JUMP JUMPDEST PUSH2 0x3D99 DUP2 PUSH2 0x3710 JUMP JUMPDEST DUP2 EQ PUSH2 0x3DA4 JUMPI PUSH1 0x0 DUP1 REVERT JUMPDEST POP JUMP JUMPDEST PUSH2 0x3DB0 DUP2 PUSH2 0x371C JUMP JUMPDEST DUP2 EQ PUSH2 0x3DBB JUMPI PUSH1 0x0 DUP1 REVERT JUMPDEST POP JUMP JUMPDEST PUSH2 0x3DC7 DUP2 PUSH2 0x3746 JUMP JUMPDEST DUP2 EQ PUSH2 0x3DD2 JUMPI PUSH1 0x0 DUP1 REVERT JUMPDEST POP JUMP INVALID COINBASE PUSH5 0x6472657373 GASPRICE KECCAK256 PUSH13 0x6F772D6C6576656C2064656C65 PUSH8 0x6174652063616C6C KECCAK256 PUSH7 0x61696C6564A264 PUSH10 0x70667358221220A147CD BALANCE SWAP15 SWAP9 DUP1 SHR DELEGATECALL 0xAB 0xB2 DUP13 0xF 0xEE 0xB7 DELEGATECALL 0x4D CREATE2 0xE2 DUP4 RETURNDATACOPY 0xFC EXTCODECOPY 0x49 0xDB 0xCE 0xC3 CHAINID PUSH7 0x3C545864736F6C PUSH4 0x43000807 STOP CALLER "
				},
				"gasEstimates": {
					"creation": {
						"codeDepositCost": "3184400",
						"executionCost": "infinite",
						"totalCost": "infinite"
					},
					"external": {
						"": "220",
						"OGBTokenAddress()": "2625",
						"PRECISION_FACTOR()": "418",
						"START_BLOCK()": "2475",
						"_getMultiplier(uint256,uint256)": "infinite",
						"accTokenPerShare()": "2518",
						"calculatePendingRewards(address)": "infinite",
						"currentPhase()": "2476",
						"deposit(uint256)": "infinite",
						"emergencyWithdrawCurrency(address)": "infinite",
						"emergencyWithdrawToken(address,address)": "infinite",
						"endBlock()": "2498",
						"getRemainingBlocks()": "infinite",
						"getTokenBalance(address)": "infinite",
						"getUserInfo(address)": "infinite",
						"getUserTransactions(uint256,uint256,address)": "infinite",
						"initialize(address,uint256,uint256,uint256)": "infinite",
						"isStakerExists(address)": "2912",
						"lastRewardBlock()": "2540",
						"owner()": "2567",
						"proxiableUUID()": "infinite",
						"renounceOwnership()": "30466",
						"rewardPerBlockForStaking()": "2496",
						"setEndBLock(uint256)": "24874",
						"stakerCount()": "2473",
						"startEndBLock(uint256)": "24895",
						"totalAmountStaked()": "2539",
						"transferOwnership(address)": "30813",
						"upgradeTo(address)": "infinite",
						"upgradeToAndCall(address,bytes)": "infinite",
						"userInfo(address)": "infinite",
						"userTransactionsLength(address)": "2952",
						"withdrawAll()": "infinite"
					},
					"internal": {
						"_authorizeUpgrade(address)": "infinite",
						"_updatePool()": "infinite"
					}
				},
				"methodIdentifiers": {
					"OGBTokenAddress()": "d8c68017",
					"PRECISION_FACTOR()": "ccd34cd5",
					"START_BLOCK()": "39b3e826",
					"_getMultiplier(uint256,uint256)": "8e356d7a",
					"accTokenPerShare()": "8f662915",
					"calculatePendingRewards(address)": "097aad10",
					"currentPhase()": "055ad42e",
					"deposit(uint256)": "b6b55f25",
					"emergencyWithdrawCurrency(address)": "173379a5",
					"emergencyWithdrawToken(address,address)": "682458bd",
					"endBlock()": "083c6323",
					"getRemainingBlocks()": "f5938baf",
					"getTokenBalance(address)": "3aecd0e3",
					"getUserInfo(address)": "6386c1c7",
					"getUserTransactions(uint256,uint256,address)": "2cb234ac",
					"initialize(address,uint256,uint256,uint256)": "4ec81af1",
					"isStakerExists(address)": "c12e850e",
					"lastRewardBlock()": "a9f8d181",
					"owner()": "8da5cb5b",
					"proxiableUUID()": "52d1902d",
					"renounceOwnership()": "715018a6",
					"rewardPerBlockForStaking()": "5a9477e9",
					"setEndBLock(uint256)": "2d3f99ee",
					"stakerCount()": "dff69787",
					"startEndBLock(uint256)": "67decd41",
					"totalAmountStaked()": "fe961f61",
					"transferOwnership(address)": "f2fde38b",
					"upgradeTo(address)": "3659cfe6",
					"upgradeToAndCall(address,bytes)": "4f1ef286",
					"userInfo(address)": "1959a002",
					"userTransactionsLength(address)": "72f4b2d4",
					"withdrawAll()": "853828b6"
				}
			},
			"storageLayout": {
				"storage": [
					{
						"astId": 527,
						"contract": "Samples/reward.sol:Staking",
						"label": "_initialized",
						"offset": 0,
						"slot": "0",
						"type": "t_uint8"
					},
					{
						"astId": 530,
						"contract": "Samples/reward.sol:Staking",
						"label": "_initializing",
						"offset": 1,
						"slot": "0",
						"type": "t_bool"
					},
					{
						"astId": 1150,
						"contract": "Samples/reward.sol:Staking",
						"label": "__gap",
						"offset": 0,
						"slot": "1",
						"type": "t_array(t_uint256)50_storage"
					},
					{
						"astId": 10,
						"contract": "Samples/reward.sol:Staking",
						"label": "_owner",
						"offset": 0,
						"slot": "51",
						"type": "t_address"
					},
					{
						"astId": 130,
						"contract": "Samples/reward.sol:Staking",
						"label": "__gap",
						"offset": 0,
						"slot": "52",
						"type": "t_array(t_uint256)49_storage"
					},
					{
						"astId": 509,
						"contract": "Samples/reward.sol:Staking",
						"label": "__gap",
						"offset": 0,
						"slot": "101",
						"type": "t_array(t_uint256)50_storage"
					},
					{
						"astId": 824,
						"contract": "Samples/reward.sol:Staking",
						"label": "__gap",
						"offset": 0,
						"slot": "151",
						"type": "t_array(t_uint256)50_storage"
					},
					{
						"astId": 1640,
						"contract": "Samples/reward.sol:Staking",
						"label": "OGBTokenAddress",
						"offset": 0,
						"slot": "201",
						"type": "t_address"
					},
					{
						"astId": 1642,
						"contract": "Samples/reward.sol:Staking",
						"label": "START_BLOCK",
						"offset": 0,
						"slot": "202",
						"type": "t_uint256"
					},
					{
						"astId": 1644,
						"contract": "Samples/reward.sol:Staking",
						"label": "accTokenPerShare",
						"offset": 0,
						"slot": "203",
						"type": "t_uint256"
					},
					{
						"astId": 1646,
						"contract": "Samples/reward.sol:Staking",
						"label": "currentPhase",
						"offset": 0,
						"slot": "204",
						"type": "t_uint256"
					},
					{
						"astId": 1648,
						"contract": "Samples/reward.sol:Staking",
						"label": "endBlock",
						"offset": 0,
						"slot": "205",
						"type": "t_uint256"
					},
					{
						"astId": 1650,
						"contract": "Samples/reward.sol:Staking",
						"label": "lastRewardBlock",
						"offset": 0,
						"slot": "206",
						"type": "t_uint256"
					},
					{
						"astId": 1652,
						"contract": "Samples/reward.sol:Staking",
						"label": "rewardPerBlockForStaking",
						"offset": 0,
						"slot": "207",
						"type": "t_uint256"
					},
					{
						"astId": 1654,
						"contract": "Samples/reward.sol:Staking",
						"label": "totalAmountStaked",
						"offset": 0,
						"slot": "208",
						"type": "t_uint256"
					},
					{
						"astId": 1656,
						"contract": "Samples/reward.sol:Staking",
						"label": "stakerCount",
						"offset": 0,
						"slot": "209",
						"type": "t_uint256"
					},
					{
						"astId": 1661,
						"contract": "Samples/reward.sol:Staking",
						"label": "userInfo",
						"offset": 0,
						"slot": "210",
						"type": "t_mapping(t_address,t_struct(UserInfo)1626_storage)"
					},
					{
						"astId": 1665,
						"contract": "Samples/reward.sol:Staking",
						"label": "debtRewards",
						"offset": 0,
						"slot": "211",
						"type": "t_mapping(t_address,t_uint256)"
					},
					{
						"astId": 1671,
						"contract": "Samples/reward.sol:Staking",
						"label": "userTxsArray",
						"offset": 0,
						"slot": "212",
						"type": "t_mapping(t_address,t_array(t_struct(TxHistory)1633_storage)dyn_storage)"
					},
					{
						"astId": 1675,
						"contract": "Samples/reward.sol:Staking",
						"label": "isStakerExists",
						"offset": 0,
						"slot": "213",
						"type": "t_mapping(t_address,t_bool)"
					}
				],
				"types": {
					"t_address": {
						"encoding": "inplace",
						"label": "address",
						"numberOfBytes": "20"
					},
					"t_array(t_struct(TxHistory)1633_storage)dyn_storage": {
						"base": "t_struct(TxHistory)1633_storage",
						"encoding": "dynamic_array",
						"label": "struct Staking.TxHistory[]",
						"numberOfBytes": "32"
					},
					"t_array(t_uint256)49_storage": {
						"base": "t_uint256",
						"encoding": "inplace",
						"label": "uint256[49]",
						"numberOfBytes": "1568"
					},
					"t_array(t_uint256)50_storage": {
						"base": "t_uint256",
						"encoding": "inplace",
						"label": "uint256[50]",
						"numberOfBytes": "1600"
					},
					"t_bool": {
						"encoding": "inplace",
						"label": "bool",
						"numberOfBytes": "1"
					},
					"t_mapping(t_address,t_array(t_struct(TxHistory)1633_storage)dyn_storage)": {
						"encoding": "mapping",
						"key": "t_address",
						"label": "mapping(address => struct Staking.TxHistory[])",
						"numberOfBytes": "32",
						"value": "t_array(t_struct(TxHistory)1633_storage)dyn_storage"
					},
					"t_mapping(t_address,t_bool)": {
						"encoding": "mapping",
						"key": "t_address",
						"label": "mapping(address => bool)",
						"numberOfBytes": "32",
						"value": "t_bool"
					},
					"t_mapping(t_address,t_struct(UserInfo)1626_storage)": {
						"encoding": "mapping",
						"key": "t_address",
						"label": "mapping(address => struct Staking.UserInfo)",
						"numberOfBytes": "32",
						"value": "t_struct(UserInfo)1626_storage"
					},
					"t_mapping(t_address,t_uint256)": {
						"encoding": "mapping",
						"key": "t_address",
						"label": "mapping(address => uint256)",
						"numberOfBytes": "32",
						"value": "t_uint256"
					},
					"t_string_storage": {
						"encoding": "bytes",
						"label": "string",
						"numberOfBytes": "32"
					},
					"t_struct(TxHistory)1633_storage": {
						"encoding": "inplace",
						"label": "struct Staking.TxHistory",
						"members": [
							{
								"astId": 1628,
								"contract": "Samples/reward.sol:Staking",
								"label": "txAmount",
								"offset": 0,
								"slot": "0",
								"type": "t_uint256"
							},
							{
								"astId": 1630,
								"contract": "Samples/reward.sol:Staking",
								"label": "txTime",
								"offset": 0,
								"slot": "1",
								"type": "t_uint256"
							},
							{
								"astId": 1632,
								"contract": "Samples/reward.sol:Staking",
								"label": "txType",
								"offset": 0,
								"slot": "2",
								"type": "t_string_storage"
							}
						],
						"numberOfBytes": "96"
					},
					"t_struct(UserInfo)1626_storage": {
						"encoding": "inplace",
						"label": "struct Staking.UserInfo",
						"members": [
							{
								"astId": 1619,
								"contract": "Samples/reward.sol:Staking",
								"label": "amount",
								"offset": 0,
								"slot": "0",
								"type": "t_uint256"
							},
							{
								"astId": 1621,
								"contract": "Samples/reward.sol:Staking",
								"label": "rewardAmount",
								"offset": 0,
								"slot": "1",
								"type": "t_uint256"
							},
							{
								"astId": 1623,
								"contract": "Samples/reward.sol:Staking",
								"label": "investmentTime",
								"offset": 0,
								"slot": "2",
								"type": "t_uint256"
							},
							{
								"astId": 1625,
								"contract": "Samples/reward.sol:Staking",
								"label": "rewardWithdrawTime",
								"offset": 0,
								"slot": "3",
								"type": "t_uint256"
							}
						],
						"numberOfBytes": "128"
					},
					"t_uint256": {
						"encoding": "inplace",
						"label": "uint256",
						"numberOfBytes": "32"
					},
					"t_uint8": {
						"encoding": "inplace",
						"label": "uint8",
						"numberOfBytes": "1"
					}
				}
			},
			"userdoc": {
				"kind": "user",
				"methods": {},
				"version": 1
			}
		}
	}
}