{
	"Samples/bankSystem.sol": {
		"bankingSystem": {
			"abi": [
				{
					"inputs": [
						{
							"internalType": "address",
							"name": "_tokenAddress",
							"type": "address"
						}
					],
					"stateMutability": "nonpayable",
					"type": "constructor"
				},
				{
					"inputs": [
						{
							"internalType": "uint256",
							"name": "ID",
							"type": "uint256"
						},
						{
							"internalType": "uint256",
							"name": "Amount",
							"type": "uint256"
						}
					],
					"name": "clientDeposit",
					"outputs": [],
					"stateMutability": "nonpayable",
					"type": "function"
				},
				{
					"inputs": [
						{
							"internalType": "uint256",
							"name": "ID",
							"type": "uint256"
						},
						{
							"internalType": "string",
							"name": "userName",
							"type": "string"
						},
						{
							"internalType": "uint256",
							"name": "clientNo",
							"type": "uint256"
						}
					],
					"name": "clientRegistration",
					"outputs": [],
					"stateMutability": "nonpayable",
					"type": "function"
				},
				{
					"inputs": [
						{
							"internalType": "uint256",
							"name": "Amount",
							"type": "uint256"
						}
					],
					"name": "emergencyWithDraw",
					"outputs": [],
					"stateMutability": "nonpayable",
					"type": "function"
				},
				{
					"inputs": [],
					"name": "owner",
					"outputs": [
						{
							"internalType": "address",
							"name": "",
							"type": "address"
						}
					],
					"stateMutability": "view",
					"type": "function"
				},
				{
					"inputs": [
						{
							"internalType": "uint256",
							"name": "senderId",
							"type": "uint256"
						},
						{
							"internalType": "uint256",
							"name": "rcvrId",
							"type": "uint256"
						},
						{
							"internalType": "uint256",
							"name": "amount",
							"type": "uint256"
						}
					],
					"name": "sendAmount",
					"outputs": [],
					"stateMutability": "nonpayable",
					"type": "function"
				},
				{
					"inputs": [
						{
							"internalType": "uint256",
							"name": "ID",
							"type": "uint256"
						},
						{
							"internalType": "uint256",
							"name": "Amount",
							"type": "uint256"
						}
					],
					"name": "sendingAmount",
					"outputs": [],
					"stateMutability": "nonpayable",
					"type": "function"
				},
				{
					"inputs": [],
					"name": "tokenAddress",
					"outputs": [
						{
							"internalType": "address",
							"name": "",
							"type": "address"
						}
					],
					"stateMutability": "view",
					"type": "function"
				},
				{
					"inputs": [
						{
							"internalType": "uint256",
							"name": "",
							"type": "uint256"
						}
					],
					"name": "userRegistration",
					"outputs": [
						{
							"internalType": "uint256",
							"name": "id",
							"type": "uint256"
						},
						{
							"internalType": "string",
							"name": "name",
							"type": "string"
						},
						{
							"internalType": "address",
							"name": "Address",
							"type": "address"
						},
						{
							"internalType": "uint256",
							"name": "phNo",
							"type": "uint256"
						},
						{
							"internalType": "uint256",
							"name": "accountBalance",
							"type": "uint256"
						}
					],
					"stateMutability": "view",
					"type": "function"
				},
				{
					"inputs": [
						{
							"internalType": "uint256",
							"name": "Amount",
							"type": "uint256"
						}
					],
					"name": "withdrawAmount",
					"outputs": [],
					"stateMutability": "nonpayable",
					"type": "function"
				}
			],
			"devdoc": {
				"kind": "dev",
				"methods": {},
				"version": 1
			},
			"evm": {
				"assembly": "    /* \"Samples/bankSystem.sol\":321:2389  contract bankingSystem{\r... */\n  mstore(0x40, 0x80)\n    /* \"Samples/bankSystem.sol\":565:673  constructor(address _tokenAddress){\r... */\n  callvalue\n  dup1\n  iszero\n  tag_1\n  jumpi\n  0x00\n  dup1\n  revert\ntag_1:\n  pop\n  mload(0x40)\n  sub(codesize, bytecodeSize)\n  dup1\n  bytecodeSize\n  dup4\n  codecopy\n  dup2\n  dup2\n  add\n  0x40\n  mstore\n  dup2\n  add\n  swap1\n  tag_2\n  swap2\n  swap1\n  tag_3\n  jump\t// in\ntag_2:\n    /* \"Samples/bankSystem.sol\":625:638  _tokenAddress */\n  dup1\n    /* \"Samples/bankSystem.sol\":610:622  tokenAddress */\n  0x01\n  0x00\n    /* \"Samples/bankSystem.sol\":610:638  tokenAddress = _tokenAddress */\n  0x0100\n  exp\n  dup2\n  sload\n  dup2\n  0xffffffffffffffffffffffffffffffffffffffff\n  mul\n  not\n  and\n  swap1\n  dup4\n  0xffffffffffffffffffffffffffffffffffffffff\n  and\n  mul\n  or\n  swap1\n  sstore\n  pop\n    /* \"Samples/bankSystem.sol\":655:665  msg.sender */\n  caller\n    /* \"Samples/bankSystem.sol\":649:654  owner */\n  0x00\n  dup1\n    /* \"Samples/bankSystem.sol\":649:665  owner=msg.sender */\n  0x0100\n  exp\n  dup2\n  sload\n  dup2\n  0xffffffffffffffffffffffffffffffffffffffff\n  mul\n  not\n  and\n  swap1\n  dup4\n  0xffffffffffffffffffffffffffffffffffffffff\n  and\n  mul\n  or\n  swap1\n  sstore\n  pop\n    /* \"Samples/bankSystem.sol\":565:673  constructor(address _tokenAddress){\r... */\n  pop\n    /* \"Samples/bankSystem.sol\":321:2389  contract bankingSystem{\r... */\n  jump(tag_6)\n    /* \"#utility.yul\":7:150   */\ntag_8:\n    /* \"#utility.yul\":64:69   */\n  0x00\n    /* \"#utility.yul\":95:101   */\n  dup2\n    /* \"#utility.yul\":89:102   */\n  mload\n    /* \"#utility.yul\":80:102   */\n  swap1\n  pop\n    /* \"#utility.yul\":111:144   */\n  tag_10\n    /* \"#utility.yul\":138:143   */\n  dup2\n    /* \"#utility.yul\":111:144   */\n  tag_11\n  jump\t// in\ntag_10:\n    /* \"#utility.yul\":7:150   */\n  swap3\n  swap2\n  pop\n  pop\n  jump\t// out\n    /* \"#utility.yul\":156:507   */\ntag_3:\n    /* \"#utility.yul\":226:232   */\n  0x00\n    /* \"#utility.yul\":275:277   */\n  0x20\n    /* \"#utility.yul\":263:272   */\n  dup3\n    /* \"#utility.yul\":254:261   */\n  dup5\n    /* \"#utility.yul\":250:273   */\n  sub\n    /* \"#utility.yul\":246:278   */\n  slt\n    /* \"#utility.yul\":243:362   */\n  iszero\n  tag_13\n  jumpi\n    /* \"#utility.yul\":281:360   */\n  tag_14\n  tag_15\n  jump\t// in\ntag_14:\n    /* \"#utility.yul\":243:362   */\ntag_13:\n    /* \"#utility.yul\":401:402   */\n  0x00\n    /* \"#utility.yul\":426:490   */\n  tag_16\n    /* \"#utility.yul\":482:489   */\n  dup5\n    /* \"#utility.yul\":473:479   */\n  dup3\n    /* \"#utility.yul\":462:471   */\n  dup6\n    /* \"#utility.yul\":458:480   */\n  add\n    /* \"#utility.yul\":426:490   */\n  tag_8\n  jump\t// in\ntag_16:\n    /* \"#utility.yul\":416:490   */\n  swap2\n  pop\n    /* \"#utility.yul\":372:500   */\n  pop\n    /* \"#utility.yul\":156:507   */\n  swap3\n  swap2\n  pop\n  pop\n  jump\t// out\n    /* \"#utility.yul\":594:690   */\ntag_19:\n    /* \"#utility.yul\":631:638   */\n  0x00\n    /* \"#utility.yul\":660:684   */\n  tag_21\n    /* \"#utility.yul\":678:683   */\n  dup3\n    /* \"#utility.yul\":660:684   */\n  tag_22\n  jump\t// in\ntag_21:\n    /* \"#utility.yul\":649:684   */\n  swap1\n  pop\n    /* \"#utility.yul\":594:690   */\n  swap2\n  swap1\n  pop\n  jump\t// out\n    /* \"#utility.yul\":696:822   */\ntag_22:\n    /* \"#utility.yul\":733:740   */\n  0x00\n    /* \"#utility.yul\":773:815   */\n  0xffffffffffffffffffffffffffffffffffffffff\n    /* \"#utility.yul\":766:771   */\n  dup3\n    /* \"#utility.yul\":762:816   */\n  and\n    /* \"#utility.yul\":751:816   */\n  swap1\n  pop\n    /* \"#utility.yul\":696:822   */\n  swap2\n  swap1\n  pop\n  jump\t// out\n    /* \"#utility.yul\":951:1068   */\ntag_15:\n    /* \"#utility.yul\":1060:1061   */\n  0x00\n    /* \"#utility.yul\":1057:1058   */\n  dup1\n    /* \"#utility.yul\":1050:1062   */\n  revert\n    /* \"#utility.yul\":1074:1196   */\ntag_11:\n    /* \"#utility.yul\":1147:1171   */\n  tag_28\n    /* \"#utility.yul\":1165:1170   */\n  dup2\n    /* \"#utility.yul\":1147:1171   */\n  tag_19\n  jump\t// in\ntag_28:\n    /* \"#utility.yul\":1140:1145   */\n  dup2\n    /* \"#utility.yul\":1137:1172   */\n  eq\n    /* \"#utility.yul\":1127:1190   */\n  tag_29\n  jumpi\n    /* \"#utility.yul\":1186:1187   */\n  0x00\n    /* \"#utility.yul\":1183:1184   */\n  dup1\n    /* \"#utility.yul\":1176:1188   */\n  revert\n    /* \"#utility.yul\":1127:1190   */\ntag_29:\n    /* \"#utility.yul\":1074:1196   */\n  pop\n  jump\t// out\n    /* \"Samples/bankSystem.sol\":321:2389  contract bankingSystem{\r... */\ntag_6:\n  dataSize(sub_0)\n  dup1\n  dataOffset(sub_0)\n  0x00\n  codecopy\n  0x00\n  return\nstop\n\nsub_0: assembly {\n        /* \"Samples/bankSystem.sol\":321:2389  contract bankingSystem{\r... */\n      mstore(0x40, 0x80)\n      callvalue\n      dup1\n      iszero\n      tag_1\n      jumpi\n      0x00\n      dup1\n      revert\n    tag_1:\n      pop\n      jumpi(tag_2, lt(calldatasize, 0x04))\n      shr(0xe0, calldataload(0x00))\n      dup1\n      0x8da5cb5b\n      gt\n      tag_12\n      jumpi\n      dup1\n      0x8da5cb5b\n      eq\n      tag_7\n      jumpi\n      dup1\n      0x9d76ea58\n      eq\n      tag_8\n      jumpi\n      dup1\n      0xa1f3ae22\n      eq\n      tag_9\n      jumpi\n      dup1\n      0xdfcdcb73\n      eq\n      tag_10\n      jumpi\n      dup1\n      0xe27858b1\n      eq\n      tag_11\n      jumpi\n      jump(tag_2)\n    tag_12:\n      dup1\n      0x0562b9f7\n      eq\n      tag_3\n      jumpi\n      dup1\n      0x2929d121\n      eq\n      tag_4\n      jumpi\n      dup1\n      0x3f3078df\n      eq\n      tag_5\n      jumpi\n      dup1\n      0x81fd25c0\n      eq\n      tag_6\n      jumpi\n    tag_2:\n      0x00\n      dup1\n      revert\n        /* \"Samples/bankSystem.sol\":1905:2172  function withdrawAmount(uint Amount) public {\r... */\n    tag_3:\n      tag_13\n      0x04\n      dup1\n      calldatasize\n      sub\n      dup2\n      add\n      swap1\n      tag_14\n      swap2\n      swap1\n      tag_15\n      jump\t// in\n    tag_14:\n      tag_16\n      jump\t// in\n    tag_13:\n      stop\n        /* \"Samples/bankSystem.sol\":681:730  mapping(uint => Register) public userRegistration */\n    tag_4:\n      tag_17\n      0x04\n      dup1\n      calldatasize\n      sub\n      dup2\n      add\n      swap1\n      tag_18\n      swap2\n      swap1\n      tag_15\n      jump\t// in\n    tag_18:\n      tag_19\n      jump\t// in\n    tag_17:\n      mload(0x40)\n      tag_20\n      swap6\n      swap5\n      swap4\n      swap3\n      swap2\n      swap1\n      tag_21\n      jump\t// in\n    tag_20:\n      mload(0x40)\n      dup1\n      swap2\n      sub\n      swap1\n      return\n        /* \"Samples/bankSystem.sol\":1546:1897  function sendAmount(uint senderId, uint rcvrId, uint amount) public {\r... */\n    tag_5:\n      tag_22\n      0x04\n      dup1\n      calldatasize\n      sub\n      dup2\n      add\n      swap1\n      tag_23\n      swap2\n      swap1\n      tag_24\n      jump\t// in\n    tag_23:\n      tag_25\n      jump\t// in\n    tag_22:\n      stop\n        /* \"Samples/bankSystem.sol\":1046:1325  function clientDeposit(uint ID, uint Amount) public {\r... */\n    tag_6:\n      tag_26\n      0x04\n      dup1\n      calldatasize\n      sub\n      dup2\n      add\n      swap1\n      tag_27\n      swap2\n      swap1\n      tag_28\n      jump\t// in\n    tag_27:\n      tag_29\n      jump\t// in\n    tag_26:\n      stop\n        /* \"Samples/bankSystem.sol\":500:520  address public owner */\n    tag_7:\n      tag_30\n      tag_31\n      jump\t// in\n    tag_30:\n      mload(0x40)\n      tag_32\n      swap2\n      swap1\n      tag_33\n      jump\t// in\n    tag_32:\n      mload(0x40)\n      dup1\n      swap2\n      sub\n      swap1\n      return\n        /* \"Samples/bankSystem.sol\":527:554  address public tokenAddress */\n    tag_8:\n      tag_34\n      tag_35\n      jump\t// in\n    tag_34:\n      mload(0x40)\n      tag_36\n      swap2\n      swap1\n      tag_33\n      jump\t// in\n    tag_36:\n      mload(0x40)\n      dup1\n      swap2\n      sub\n      swap1\n      return\n        /* \"Samples/bankSystem.sol\":739:1038  function clientRegistration(uint ID, string memory userName, uint clientNo) public{\r... */\n    tag_9:\n      tag_37\n      0x04\n      dup1\n      calldatasize\n      sub\n      dup2\n      add\n      swap1\n      tag_38\n      swap2\n      swap1\n      tag_39\n      jump\t// in\n    tag_38:\n      tag_40\n      jump\t// in\n    tag_37:\n      stop\n        /* \"Samples/bankSystem.sol\":2180:2384  function emergencyWithDraw(uint Amount) public{\r... */\n    tag_10:\n      tag_41\n      0x04\n      dup1\n      calldatasize\n      sub\n      dup2\n      add\n      swap1\n      tag_42\n      swap2\n      swap1\n      tag_15\n      jump\t// in\n    tag_42:\n      tag_43\n      jump\t// in\n    tag_41:\n      stop\n        /* \"Samples/bankSystem.sol\":1333:1538  function sendingAmount( uint ID, uint Amount) public {\r... */\n    tag_11:\n      tag_44\n      0x04\n      dup1\n      calldatasize\n      sub\n      dup2\n      add\n      swap1\n      tag_45\n      swap2\n      swap1\n      tag_28\n      jump\t// in\n    tag_45:\n      tag_46\n      jump\t// in\n    tag_44:\n      stop\n        /* \"Samples/bankSystem.sol\":1905:2172  function withdrawAmount(uint Amount) public {\r... */\n    tag_16:\n        /* \"Samples/bankSystem.sol\":1960:1985  Register storage withdraw */\n      0x00\n        /* \"Samples/bankSystem.sol\":2007:2023  userRegistration */\n      0x02\n        /* \"Samples/bankSystem.sol\":2007:2031  userRegistration[Amount] */\n      0x00\n        /* \"Samples/bankSystem.sol\":2024:2030  Amount */\n      dup4\n        /* \"Samples/bankSystem.sol\":2007:2031  userRegistration[Amount] */\n      dup2\n      mstore\n      0x20\n      add\n      swap1\n      dup2\n      mstore\n      0x20\n      add\n      0x00\n      keccak256\n        /* \"Samples/bankSystem.sol\":1996:2031  withdraw = userRegistration[Amount] */\n      swap1\n      pop\n        /* \"Samples/bankSystem.sol\":2077:2083  Amount */\n      dup2\n        /* \"Samples/bankSystem.sol\":2050:2058  withdraw */\n      dup2\n        /* \"Samples/bankSystem.sol\":2050:2073  withdraw.accountBalance */\n      0x04\n      add\n      sload\n        /* \"Samples/bankSystem.sol\":2050:2083  withdraw.accountBalance >= Amount */\n      lt\n      iszero\n        /* \"Samples/bankSystem.sol\":2042:2103  require(withdraw.accountBalance >= Amount, \"in valid amount\") */\n      tag_48\n      jumpi\n      mload(0x40)\n      0x08c379a000000000000000000000000000000000000000000000000000000000\n      dup2\n      mstore\n      0x04\n      add\n      tag_49\n      swap1\n      tag_50\n      jump\t// in\n    tag_49:\n      mload(0x40)\n      dup1\n      swap2\n      sub\n      swap1\n      revert\n    tag_48:\n        /* \"Samples/bankSystem.sol\":2123:2135  tokenAddress */\n      0x01\n      0x00\n      swap1\n      sload\n      swap1\n      0x0100\n      exp\n      swap1\n      div\n      0xffffffffffffffffffffffffffffffffffffffff\n      and\n        /* \"Samples/bankSystem.sol\":2116:2145  IERC20(tokenAddress).transfer */\n      0xffffffffffffffffffffffffffffffffffffffff\n      and\n      0xa9059cbb\n        /* \"Samples/bankSystem.sol\":2146:2156  msg.sender */\n      caller\n        /* \"Samples/bankSystem.sol\":2157:2163  Amount */\n      dup5\n        /* \"Samples/bankSystem.sol\":2116:2164  IERC20(tokenAddress).transfer(msg.sender,Amount) */\n      mload(0x40)\n      dup4\n      0xffffffff\n      and\n      0xe0\n      shl\n      dup2\n      mstore\n      0x04\n      add\n      tag_51\n      swap3\n      swap2\n      swap1\n      tag_52\n      jump\t// in\n    tag_51:\n      0x20\n      mload(0x40)\n      dup1\n      dup4\n      sub\n      dup2\n      0x00\n      dup8\n      dup1\n      extcodesize\n      iszero\n      dup1\n      iszero\n      tag_53\n      jumpi\n      0x00\n      dup1\n      revert\n    tag_53:\n      pop\n      gas\n      call\n      iszero\n      dup1\n      iszero\n      tag_55\n      jumpi\n      returndatasize\n      0x00\n      dup1\n      returndatacopy\n      revert(0x00, returndatasize)\n    tag_55:\n      pop\n      pop\n      pop\n      pop\n      mload(0x40)\n      returndatasize\n      not(0x1f)\n      0x1f\n      dup3\n      add\n      and\n      dup3\n      add\n      dup1\n      0x40\n      mstore\n      pop\n      dup2\n      add\n      swap1\n      tag_56\n      swap2\n      swap1\n      tag_57\n      jump\t// in\n    tag_56:\n      pop\n        /* \"Samples/bankSystem.sol\":1949:2172  {\r... */\n      pop\n        /* \"Samples/bankSystem.sol\":1905:2172  function withdrawAmount(uint Amount) public {\r... */\n      pop\n      jump\t// out\n        /* \"Samples/bankSystem.sol\":681:730  mapping(uint => Register) public userRegistration */\n    tag_19:\n      mstore(0x20, 0x02)\n      dup1\n      0x00\n      mstore\n      keccak256(0x00, 0x40)\n      0x00\n      swap2\n      pop\n      swap1\n      pop\n      dup1\n      0x00\n      add\n      sload\n      swap1\n      dup1\n      0x01\n      add\n      dup1\n      sload\n      tag_58\n      swap1\n      tag_59\n      jump\t// in\n    tag_58:\n      dup1\n      0x1f\n      add\n      0x20\n      dup1\n      swap2\n      div\n      mul\n      0x20\n      add\n      mload(0x40)\n      swap1\n      dup2\n      add\n      0x40\n      mstore\n      dup1\n      swap3\n      swap2\n      swap1\n      dup2\n      dup2\n      mstore\n      0x20\n      add\n      dup3\n      dup1\n      sload\n      tag_60\n      swap1\n      tag_59\n      jump\t// in\n    tag_60:\n      dup1\n      iszero\n      tag_61\n      jumpi\n      dup1\n      0x1f\n      lt\n      tag_62\n      jumpi\n      0x0100\n      dup1\n      dup4\n      sload\n      div\n      mul\n      dup4\n      mstore\n      swap2\n      0x20\n      add\n      swap2\n      jump(tag_61)\n    tag_62:\n      dup3\n      add\n      swap2\n      swap1\n      0x00\n      mstore\n      keccak256(0x00, 0x20)\n      swap1\n    tag_63:\n      dup2\n      sload\n      dup2\n      mstore\n      swap1\n      0x01\n      add\n      swap1\n      0x20\n      add\n      dup1\n      dup4\n      gt\n      tag_63\n      jumpi\n      dup3\n      swap1\n      sub\n      0x1f\n      and\n      dup3\n      add\n      swap2\n    tag_61:\n      pop\n      pop\n      pop\n      pop\n      pop\n      swap1\n      dup1\n      0x02\n      add\n      0x00\n      swap1\n      sload\n      swap1\n      0x0100\n      exp\n      swap1\n      div\n      0xffffffffffffffffffffffffffffffffffffffff\n      and\n      swap1\n      dup1\n      0x03\n      add\n      sload\n      swap1\n      dup1\n      0x04\n      add\n      sload\n      swap1\n      pop\n      dup6\n      jump\t// out\n        /* \"Samples/bankSystem.sol\":1546:1897  function sendAmount(uint senderId, uint rcvrId, uint amount) public {\r... */\n    tag_25:\n        /* \"Samples/bankSystem.sol\":1625:1648  Register storage sender */\n      0x00\n        /* \"Samples/bankSystem.sol\":1651:1667  userRegistration */\n      0x02\n        /* \"Samples/bankSystem.sol\":1651:1677  userRegistration[senderId] */\n      0x00\n        /* \"Samples/bankSystem.sol\":1668:1676  senderId */\n      dup6\n        /* \"Samples/bankSystem.sol\":1651:1677  userRegistration[senderId] */\n      dup2\n      mstore\n      0x20\n      add\n      swap1\n      dup2\n      mstore\n      0x20\n      add\n      0x00\n      keccak256\n        /* \"Samples/bankSystem.sol\":1625:1677  Register storage sender = userRegistration[senderId] */\n      swap1\n      pop\n        /* \"Samples/bankSystem.sol\":1688:1709  Register storage rcvr */\n      0x00\n        /* \"Samples/bankSystem.sol\":1712:1728  userRegistration */\n      0x02\n        /* \"Samples/bankSystem.sol\":1712:1736  userRegistration[rcvrId] */\n      0x00\n        /* \"Samples/bankSystem.sol\":1729:1735  rcvrId */\n      dup6\n        /* \"Samples/bankSystem.sol\":1712:1736  userRegistration[rcvrId] */\n      dup2\n      mstore\n      0x20\n      add\n      swap1\n      dup2\n      mstore\n      0x20\n      add\n      0x00\n      keccak256\n        /* \"Samples/bankSystem.sol\":1688:1736  Register storage rcvr = userRegistration[rcvrId] */\n      swap1\n      pop\n        /* \"Samples/bankSystem.sol\":1780:1786  amount */\n      dup3\n        /* \"Samples/bankSystem.sol\":1755:1761  sender */\n      dup3\n        /* \"Samples/bankSystem.sol\":1755:1776  sender.accountBalance */\n      0x04\n      add\n      sload\n        /* \"Samples/bankSystem.sol\":1755:1786  sender.accountBalance >= amount */\n      lt\n      iszero\n        /* \"Samples/bankSystem.sol\":1747:1807  require(sender.accountBalance >= amount,  \"In valid Amount\") */\n      tag_65\n      jumpi\n      mload(0x40)\n      0x08c379a000000000000000000000000000000000000000000000000000000000\n      dup2\n      mstore\n      0x04\n      add\n      tag_66\n      swap1\n      tag_67\n      jump\t// in\n    tag_66:\n      mload(0x40)\n      dup1\n      swap2\n      sub\n      swap1\n      revert\n    tag_65:\n        /* \"Samples/bankSystem.sol\":1843:1849  amount */\n      dup3\n        /* \"Samples/bankSystem.sol\":1818:1824  sender */\n      dup3\n        /* \"Samples/bankSystem.sol\":1818:1839  sender.accountBalance */\n      0x04\n      add\n      0x00\n        /* \"Samples/bankSystem.sol\":1818:1849  sender.accountBalance -= amount */\n      dup3\n      dup3\n      sload\n      tag_68\n      swap2\n      swap1\n      tag_69\n      jump\t// in\n    tag_68:\n      swap3\n      pop\n      pop\n      dup2\n      swap1\n      sstore\n      pop\n        /* \"Samples/bankSystem.sol\":1883:1889  amount */\n      dup3\n        /* \"Samples/bankSystem.sol\":1860:1864  rcvr */\n      dup2\n        /* \"Samples/bankSystem.sol\":1860:1879  rcvr.accountBalance */\n      0x04\n      add\n      0x00\n        /* \"Samples/bankSystem.sol\":1860:1889  rcvr.accountBalance += amount */\n      dup3\n      dup3\n      sload\n      tag_70\n      swap2\n      swap1\n      tag_71\n      jump\t// in\n    tag_70:\n      swap3\n      pop\n      pop\n      dup2\n      swap1\n      sstore\n      pop\n        /* \"Samples/bankSystem.sol\":1614:1897  {\r... */\n      pop\n      pop\n        /* \"Samples/bankSystem.sol\":1546:1897  function sendAmount(uint senderId, uint rcvrId, uint amount) public {\r... */\n      pop\n      pop\n      pop\n      jump\t// out\n        /* \"Samples/bankSystem.sol\":1046:1325  function clientDeposit(uint ID, uint Amount) public {\r... */\n    tag_29:\n        /* \"Samples/bankSystem.sol\":1109:1139  Register storage depositAmount */\n      0x00\n        /* \"Samples/bankSystem.sol\":1166:1182  userRegistration */\n      0x02\n        /* \"Samples/bankSystem.sol\":1166:1186  userRegistration[ID] */\n      0x00\n        /* \"Samples/bankSystem.sol\":1183:1185  ID */\n      dup5\n        /* \"Samples/bankSystem.sol\":1166:1186  userRegistration[ID] */\n      dup2\n      mstore\n      0x20\n      add\n      swap1\n      dup2\n      mstore\n      0x20\n      add\n      0x00\n      keccak256\n        /* \"Samples/bankSystem.sol\":1150:1186  depositAmount = userRegistration[ID] */\n      swap1\n      pop\n        /* \"Samples/bankSystem.sol\":1229:1235  Amount */\n      dup2\n        /* \"Samples/bankSystem.sol\":1197:1210  depositAmount */\n      dup2\n        /* \"Samples/bankSystem.sol\":1197:1225  depositAmount.accountBalance */\n      0x04\n      add\n      0x00\n        /* \"Samples/bankSystem.sol\":1197:1235  depositAmount.accountBalance += Amount */\n      dup3\n      dup3\n      sload\n      tag_73\n      swap2\n      swap1\n      tag_71\n      jump\t// in\n    tag_73:\n      swap3\n      pop\n      pop\n      dup2\n      swap1\n      sstore\n      pop\n        /* \"Samples/bankSystem.sol\":1256:1268  tokenAddress */\n      0x01\n      0x00\n      swap1\n      sload\n      swap1\n      0x0100\n      exp\n      swap1\n      div\n      0xffffffffffffffffffffffffffffffffffffffff\n      and\n        /* \"Samples/bankSystem.sol\":1249:1282  IERC20(tokenAddress).transferFrom */\n      0xffffffffffffffffffffffffffffffffffffffff\n      and\n      0x23b872dd\n        /* \"Samples/bankSystem.sol\":1283:1293  msg.sender */\n      caller\n        /* \"Samples/bankSystem.sol\":1303:1307  this */\n      address\n        /* \"Samples/bankSystem.sol\":1310:1316  Amount */\n      dup6\n        /* \"Samples/bankSystem.sol\":1249:1317  IERC20(tokenAddress).transferFrom(msg.sender, address(this), Amount) */\n      mload(0x40)\n      dup5\n      0xffffffff\n      and\n      0xe0\n      shl\n      dup2\n      mstore\n      0x04\n      add\n      tag_74\n      swap4\n      swap3\n      swap2\n      swap1\n      tag_75\n      jump\t// in\n    tag_74:\n      0x20\n      mload(0x40)\n      dup1\n      dup4\n      sub\n      dup2\n      0x00\n      dup8\n      dup1\n      extcodesize\n      iszero\n      dup1\n      iszero\n      tag_76\n      jumpi\n      0x00\n      dup1\n      revert\n    tag_76:\n      pop\n      gas\n      call\n      iszero\n      dup1\n      iszero\n      tag_78\n      jumpi\n      returndatasize\n      0x00\n      dup1\n      returndatacopy\n      revert(0x00, returndatasize)\n    tag_78:\n      pop\n      pop\n      pop\n      pop\n      mload(0x40)\n      returndatasize\n      not(0x1f)\n      0x1f\n      dup3\n      add\n      and\n      dup3\n      add\n      dup1\n      0x40\n      mstore\n      pop\n      dup2\n      add\n      swap1\n      tag_79\n      swap2\n      swap1\n      tag_57\n      jump\t// in\n    tag_79:\n      pop\n        /* \"Samples/bankSystem.sol\":1098:1325  {\r... */\n      pop\n        /* \"Samples/bankSystem.sol\":1046:1325  function clientDeposit(uint ID, uint Amount) public {\r... */\n      pop\n      pop\n      jump\t// out\n        /* \"Samples/bankSystem.sol\":500:520  address public owner */\n    tag_31:\n      0x00\n      dup1\n      sload\n      swap1\n      0x0100\n      exp\n      swap1\n      div\n      0xffffffffffffffffffffffffffffffffffffffff\n      and\n      dup2\n      jump\t// out\n        /* \"Samples/bankSystem.sol\":527:554  address public tokenAddress */\n    tag_35:\n      0x01\n      0x00\n      swap1\n      sload\n      swap1\n      0x0100\n      exp\n      swap1\n      div\n      0xffffffffffffffffffffffffffffffffffffffff\n      and\n      dup2\n      jump\t// out\n        /* \"Samples/bankSystem.sol\":739:1038  function clientRegistration(uint ID, string memory userName, uint clientNo) public{\r... */\n    tag_40:\n        /* \"Samples/bankSystem.sol\":832:854  Register memory record */\n      tag_81\n      tag_82\n      jump\t// in\n    tag_81:\n        /* \"Samples/bankSystem.sol\":879:881  ID */\n      dup4\n        /* \"Samples/bankSystem.sol\":867:873  record */\n      dup2\n        /* \"Samples/bankSystem.sol\":867:876  record.id */\n      0x00\n      add\n        /* \"Samples/bankSystem.sol\":867:881  record.id = ID */\n      dup2\n      dup2\n      mstore\n      pop\n      pop\n        /* \"Samples/bankSystem.sol\":906:914  userName */\n      dup3\n        /* \"Samples/bankSystem.sol\":892:898  record */\n      dup2\n        /* \"Samples/bankSystem.sol\":892:903  record.name */\n      0x20\n      add\n        /* \"Samples/bankSystem.sol\":892:914  record.name = userName */\n      dup2\n      swap1\n      mstore\n      pop\n        /* \"Samples/bankSystem.sol\":939:947  clientNo */\n      dup2\n        /* \"Samples/bankSystem.sol\":925:931  record */\n      dup2\n        /* \"Samples/bankSystem.sol\":925:936  record.phNo */\n      0x60\n      add\n        /* \"Samples/bankSystem.sol\":925:947  record.phNo = clientNo */\n      dup2\n      dup2\n      mstore\n      pop\n      pop\n        /* \"Samples/bankSystem.sol\":975:985  msg.sender */\n      caller\n        /* \"Samples/bankSystem.sol\":958:964  record */\n      dup2\n        /* \"Samples/bankSystem.sol\":958:972  record.Address */\n      0x40\n      add\n        /* \"Samples/bankSystem.sol\":958:985  record.Address = msg.sender */\n      swap1\n      0xffffffffffffffffffffffffffffffffffffffff\n      and\n      swap1\n      dup2\n      0xffffffffffffffffffffffffffffffffffffffff\n      and\n      dup2\n      mstore\n      pop\n      pop\n        /* \"Samples/bankSystem.sol\":1022:1028  record */\n      dup1\n        /* \"Samples/bankSystem.sol\":999:1015  userRegistration */\n      0x02\n        /* \"Samples/bankSystem.sol\":999:1019  userRegistration[ID] */\n      0x00\n        /* \"Samples/bankSystem.sol\":1016:1018  ID */\n      dup7\n        /* \"Samples/bankSystem.sol\":999:1019  userRegistration[ID] */\n      dup2\n      mstore\n      0x20\n      add\n      swap1\n      dup2\n      mstore\n      0x20\n      add\n      0x00\n      keccak256\n        /* \"Samples/bankSystem.sol\":999:1028  userRegistration[ID] = record */\n      0x00\n      dup3\n      add\n      mload\n      dup2\n      0x00\n      add\n      sstore\n      0x20\n      dup3\n      add\n      mload\n      dup2\n      0x01\n      add\n      swap1\n      dup1\n      mload\n      swap1\n      0x20\n      add\n      swap1\n      tag_83\n      swap3\n      swap2\n      swap1\n      tag_84\n      jump\t// in\n    tag_83:\n      pop\n      0x40\n      dup3\n      add\n      mload\n      dup2\n      0x02\n      add\n      exp(0x0100, 0x00)\n      dup2\n      sload\n      dup2\n      0xffffffffffffffffffffffffffffffffffffffff\n      mul\n      not\n      and\n      swap1\n      dup4\n      0xffffffffffffffffffffffffffffffffffffffff\n      and\n      mul\n      or\n      swap1\n      sstore\n      pop\n      0x60\n      dup3\n      add\n      mload\n      dup2\n      0x03\n      add\n      sstore\n      0x80\n      dup3\n      add\n      mload\n      dup2\n      0x04\n      add\n      sstore\n      swap1\n      pop\n      pop\n        /* \"Samples/bankSystem.sol\":821:1038  {\r... */\n      pop\n        /* \"Samples/bankSystem.sol\":739:1038  function clientRegistration(uint ID, string memory userName, uint clientNo) public{\r... */\n      pop\n      pop\n      pop\n      jump\t// out\n        /* \"Samples/bankSystem.sol\":2180:2384  function emergencyWithDraw(uint Amount) public{\r... */\n    tag_43:\n        /* \"Samples/bankSystem.sol\":2237:2267  Register storage emergWithDraw */\n      0x00\n        /* \"Samples/bankSystem.sol\":2294:2310  userRegistration */\n      0x02\n        /* \"Samples/bankSystem.sol\":2294:2318  userRegistration[Amount] */\n      0x00\n        /* \"Samples/bankSystem.sol\":2311:2317  Amount */\n      dup4\n        /* \"Samples/bankSystem.sol\":2294:2318  userRegistration[Amount] */\n      dup2\n      mstore\n      0x20\n      add\n      swap1\n      dup2\n      mstore\n      0x20\n      add\n      0x00\n      keccak256\n        /* \"Samples/bankSystem.sol\":2278:2318  emergWithDraw = userRegistration[Amount] */\n      swap1\n      pop\n        /* \"Samples/bankSystem.sol\":2340:2352  tokenAddress */\n      0x01\n      0x00\n      swap1\n      sload\n      swap1\n      0x0100\n      exp\n      swap1\n      div\n      0xffffffffffffffffffffffffffffffffffffffff\n      and\n        /* \"Samples/bankSystem.sol\":2333:2362  IERC20(tokenAddress).transfer */\n      0xffffffffffffffffffffffffffffffffffffffff\n      and\n      0xa9059cbb\n        /* \"Samples/bankSystem.sol\":2363:2368  owner */\n      0x00\n      dup1\n      sload\n      swap1\n      0x0100\n      exp\n      swap1\n      div\n      0xffffffffffffffffffffffffffffffffffffffff\n      and\n        /* \"Samples/bankSystem.sol\":2369:2375  Amount */\n      dup5\n        /* \"Samples/bankSystem.sol\":2333:2376  IERC20(tokenAddress).transfer(owner,Amount) */\n      mload(0x40)\n      dup4\n      0xffffffff\n      and\n      0xe0\n      shl\n      dup2\n      mstore\n      0x04\n      add\n      tag_86\n      swap3\n      swap2\n      swap1\n      tag_52\n      jump\t// in\n    tag_86:\n      0x20\n      mload(0x40)\n      dup1\n      dup4\n      sub\n      dup2\n      0x00\n      dup8\n      dup1\n      extcodesize\n      iszero\n      dup1\n      iszero\n      tag_87\n      jumpi\n      0x00\n      dup1\n      revert\n    tag_87:\n      pop\n      gas\n      call\n      iszero\n      dup1\n      iszero\n      tag_89\n      jumpi\n      returndatasize\n      0x00\n      dup1\n      returndatacopy\n      revert(0x00, returndatasize)\n    tag_89:\n      pop\n      pop\n      pop\n      pop\n      mload(0x40)\n      returndatasize\n      not(0x1f)\n      0x1f\n      dup3\n      add\n      and\n      dup3\n      add\n      dup1\n      0x40\n      mstore\n      pop\n      dup2\n      add\n      swap1\n      tag_90\n      swap2\n      swap1\n      tag_57\n      jump\t// in\n    tag_90:\n      pop\n        /* \"Samples/bankSystem.sol\":2226:2384  {\r... */\n      pop\n        /* \"Samples/bankSystem.sol\":2180:2384  function emergencyWithDraw(uint Amount) public{\r... */\n      pop\n      jump\t// out\n        /* \"Samples/bankSystem.sol\":1333:1538  function sendingAmount( uint ID, uint Amount) public {\r... */\n    tag_46:\n        /* \"Samples/bankSystem.sol\":1397:1420  address recieverAddress */\n      0x00\n        /* \"Samples/bankSystem.sol\":1423:1439  userRegistration */\n      0x02\n        /* \"Samples/bankSystem.sol\":1423:1443  userRegistration[ID] */\n      0x00\n        /* \"Samples/bankSystem.sol\":1440:1442  ID */\n      dup5\n        /* \"Samples/bankSystem.sol\":1423:1443  userRegistration[ID] */\n      dup2\n      mstore\n      0x20\n      add\n      swap1\n      dup2\n      mstore\n      0x20\n      add\n      0x00\n      keccak256\n        /* \"Samples/bankSystem.sol\":1423:1451  userRegistration[ID].Address */\n      0x02\n      add\n      0x00\n      swap1\n      sload\n      swap1\n      0x0100\n      exp\n      swap1\n      div\n      0xffffffffffffffffffffffffffffffffffffffff\n      and\n        /* \"Samples/bankSystem.sol\":1397:1451  address recieverAddress = userRegistration[ID].Address */\n      swap1\n      pop\n        /* \"Samples/bankSystem.sol\":1469:1481  tokenAddress */\n      0x01\n      0x00\n      swap1\n      sload\n      swap1\n      0x0100\n      exp\n      swap1\n      div\n      0xffffffffffffffffffffffffffffffffffffffff\n      and\n        /* \"Samples/bankSystem.sol\":1462:1495  IERC20(tokenAddress).transferFrom */\n      0xffffffffffffffffffffffffffffffffffffffff\n      and\n      0x23b872dd\n        /* \"Samples/bankSystem.sol\":1496:1506  msg.sender */\n      caller\n        /* \"Samples/bankSystem.sol\":1507:1522  recieverAddress */\n      dup4\n        /* \"Samples/bankSystem.sol\":1523:1529  Amount */\n      dup6\n        /* \"Samples/bankSystem.sol\":1462:1530  IERC20(tokenAddress).transferFrom(msg.sender,recieverAddress,Amount) */\n      mload(0x40)\n      dup5\n      0xffffffff\n      and\n      0xe0\n      shl\n      dup2\n      mstore\n      0x04\n      add\n      tag_92\n      swap4\n      swap3\n      swap2\n      swap1\n      tag_75\n      jump\t// in\n    tag_92:\n      0x20\n      mload(0x40)\n      dup1\n      dup4\n      sub\n      dup2\n      0x00\n      dup8\n      dup1\n      extcodesize\n      iszero\n      dup1\n      iszero\n      tag_93\n      jumpi\n      0x00\n      dup1\n      revert\n    tag_93:\n      pop\n      gas\n      call\n      iszero\n      dup1\n      iszero\n      tag_95\n      jumpi\n      returndatasize\n      0x00\n      dup1\n      returndatacopy\n      revert(0x00, returndatasize)\n    tag_95:\n      pop\n      pop\n      pop\n      pop\n      mload(0x40)\n      returndatasize\n      not(0x1f)\n      0x1f\n      dup3\n      add\n      and\n      dup3\n      add\n      dup1\n      0x40\n      mstore\n      pop\n      dup2\n      add\n      swap1\n      tag_96\n      swap2\n      swap1\n      tag_57\n      jump\t// in\n    tag_96:\n      pop\n        /* \"Samples/bankSystem.sol\":1386:1538  {\r... */\n      pop\n        /* \"Samples/bankSystem.sol\":1333:1538  function sendingAmount( uint ID, uint Amount) public {\r... */\n      pop\n      pop\n      jump\t// out\n    tag_82:\n      mload(0x40)\n      dup1\n      0xa0\n      add\n      0x40\n      mstore\n      dup1\n      0x00\n      dup2\n      mstore\n      0x20\n      add\n      0x60\n      dup2\n      mstore\n      0x20\n      add\n      and(0xffffffffffffffffffffffffffffffffffffffff, 0x00)\n      dup2\n      mstore\n      0x20\n      add\n      0x00\n      dup2\n      mstore\n      0x20\n      add\n      0x00\n      dup2\n      mstore\n      pop\n      swap1\n      jump\t// out\n    tag_84:\n      dup3\n      dup1\n      sload\n      tag_97\n      swap1\n      tag_59\n      jump\t// in\n    tag_97:\n      swap1\n      0x00\n      mstore\n      keccak256(0x00, 0x20)\n      swap1\n      0x1f\n      add\n      0x20\n      swap1\n      div\n      dup2\n      add\n      swap3\n      dup3\n      tag_99\n      jumpi\n      0x00\n      dup6\n      sstore\n      jump(tag_98)\n    tag_99:\n      dup3\n      0x1f\n      lt\n      tag_100\n      jumpi\n      dup1\n      mload\n      not(0xff)\n      and\n      dup4\n      dup1\n      add\n      or\n      dup6\n      sstore\n      jump(tag_98)\n    tag_100:\n      dup3\n      dup1\n      add\n      0x01\n      add\n      dup6\n      sstore\n      dup3\n      iszero\n      tag_98\n      jumpi\n      swap2\n      dup3\n      add\n    tag_101:\n      dup3\n      dup2\n      gt\n      iszero\n      tag_102\n      jumpi\n      dup3\n      mload\n      dup3\n      sstore\n      swap2\n      0x20\n      add\n      swap2\n      swap1\n      0x01\n      add\n      swap1\n      jump(tag_101)\n    tag_102:\n    tag_98:\n      pop\n      swap1\n      pop\n      tag_103\n      swap2\n      swap1\n      tag_104\n      jump\t// in\n    tag_103:\n      pop\n      swap1\n      jump\t// out\n    tag_104:\n    tag_105:\n      dup1\n      dup3\n      gt\n      iszero\n      tag_106\n      jumpi\n      0x00\n      dup2\n      0x00\n      swap1\n      sstore\n      pop\n      0x01\n      add\n      jump(tag_105)\n    tag_106:\n      pop\n      swap1\n      jump\t// out\n        /* \"#utility.yul\":7:419   */\n    tag_108:\n        /* \"#utility.yul\":85:90   */\n      0x00\n        /* \"#utility.yul\":110:176   */\n      tag_110\n        /* \"#utility.yul\":126:175   */\n      tag_111\n        /* \"#utility.yul\":168:174   */\n      dup5\n        /* \"#utility.yul\":126:175   */\n      tag_112\n      jump\t// in\n    tag_111:\n        /* \"#utility.yul\":110:176   */\n      tag_113\n      jump\t// in\n    tag_110:\n        /* \"#utility.yul\":101:176   */\n      swap1\n      pop\n        /* \"#utility.yul\":199:205   */\n      dup3\n        /* \"#utility.yul\":192:197   */\n      dup2\n        /* \"#utility.yul\":185:206   */\n      mstore\n        /* \"#utility.yul\":237:241   */\n      0x20\n        /* \"#utility.yul\":230:235   */\n      dup2\n        /* \"#utility.yul\":226:242   */\n      add\n        /* \"#utility.yul\":275:278   */\n      dup5\n        /* \"#utility.yul\":266:272   */\n      dup5\n        /* \"#utility.yul\":261:264   */\n      dup5\n        /* \"#utility.yul\":257:273   */\n      add\n        /* \"#utility.yul\":254:279   */\n      gt\n        /* \"#utility.yul\":251:363   */\n      iszero\n      tag_114\n      jumpi\n        /* \"#utility.yul\":282:361   */\n      tag_115\n      tag_116\n      jump\t// in\n    tag_115:\n        /* \"#utility.yul\":251:363   */\n    tag_114:\n        /* \"#utility.yul\":372:413   */\n      tag_117\n        /* \"#utility.yul\":406:412   */\n      dup5\n        /* \"#utility.yul\":401:404   */\n      dup3\n        /* \"#utility.yul\":396:399   */\n      dup6\n        /* \"#utility.yul\":372:413   */\n      tag_118\n      jump\t// in\n    tag_117:\n        /* \"#utility.yul\":91:419   */\n      pop\n        /* \"#utility.yul\":7:419   */\n      swap4\n      swap3\n      pop\n      pop\n      pop\n      jump\t// out\n        /* \"#utility.yul\":425:562   */\n    tag_119:\n        /* \"#utility.yul\":479:484   */\n      0x00\n        /* \"#utility.yul\":510:516   */\n      dup2\n        /* \"#utility.yul\":504:517   */\n      mload\n        /* \"#utility.yul\":495:517   */\n      swap1\n      pop\n        /* \"#utility.yul\":526:556   */\n      tag_121\n        /* \"#utility.yul\":550:555   */\n      dup2\n        /* \"#utility.yul\":526:556   */\n      tag_122\n      jump\t// in\n    tag_121:\n        /* \"#utility.yul\":425:562   */\n      swap3\n      swap2\n      pop\n      pop\n      jump\t// out\n        /* \"#utility.yul\":582:922   */\n    tag_123:\n        /* \"#utility.yul\":638:643   */\n      0x00\n        /* \"#utility.yul\":687:690   */\n      dup3\n        /* \"#utility.yul\":680:684   */\n      0x1f\n        /* \"#utility.yul\":672:678   */\n      dup4\n        /* \"#utility.yul\":668:685   */\n      add\n        /* \"#utility.yul\":664:691   */\n      slt\n        /* \"#utility.yul\":654:776   */\n      tag_125\n      jumpi\n        /* \"#utility.yul\":695:774   */\n      tag_126\n      tag_127\n      jump\t// in\n    tag_126:\n        /* \"#utility.yul\":654:776   */\n    tag_125:\n        /* \"#utility.yul\":812:818   */\n      dup2\n        /* \"#utility.yul\":799:819   */\n      calldataload\n        /* \"#utility.yul\":837:916   */\n      tag_128\n        /* \"#utility.yul\":912:915   */\n      dup5\n        /* \"#utility.yul\":904:910   */\n      dup3\n        /* \"#utility.yul\":897:901   */\n      0x20\n        /* \"#utility.yul\":889:895   */\n      dup7\n        /* \"#utility.yul\":885:902   */\n      add\n        /* \"#utility.yul\":837:916   */\n      tag_108\n      jump\t// in\n    tag_128:\n        /* \"#utility.yul\":828:916   */\n      swap2\n      pop\n        /* \"#utility.yul\":644:922   */\n      pop\n        /* \"#utility.yul\":582:922   */\n      swap3\n      swap2\n      pop\n      pop\n      jump\t// out\n        /* \"#utility.yul\":928:1067   */\n    tag_129:\n        /* \"#utility.yul\":974:979   */\n      0x00\n        /* \"#utility.yul\":1012:1018   */\n      dup2\n        /* \"#utility.yul\":999:1019   */\n      calldataload\n        /* \"#utility.yul\":990:1019   */\n      swap1\n      pop\n        /* \"#utility.yul\":1028:1061   */\n      tag_131\n        /* \"#utility.yul\":1055:1060   */\n      dup2\n        /* \"#utility.yul\":1028:1061   */\n      tag_132\n      jump\t// in\n    tag_131:\n        /* \"#utility.yul\":928:1067   */\n      swap3\n      swap2\n      pop\n      pop\n      jump\t// out\n        /* \"#utility.yul\":1073:1418   */\n    tag_57:\n        /* \"#utility.yul\":1140:1146   */\n      0x00\n        /* \"#utility.yul\":1189:1191   */\n      0x20\n        /* \"#utility.yul\":1177:1186   */\n      dup3\n        /* \"#utility.yul\":1168:1175   */\n      dup5\n        /* \"#utility.yul\":1164:1187   */\n      sub\n        /* \"#utility.yul\":1160:1192   */\n      slt\n        /* \"#utility.yul\":1157:1276   */\n      iszero\n      tag_134\n      jumpi\n        /* \"#utility.yul\":1195:1274   */\n      tag_135\n      tag_136\n      jump\t// in\n    tag_135:\n        /* \"#utility.yul\":1157:1276   */\n    tag_134:\n        /* \"#utility.yul\":1315:1316   */\n      0x00\n        /* \"#utility.yul\":1340:1401   */\n      tag_137\n        /* \"#utility.yul\":1393:1400   */\n      dup5\n        /* \"#utility.yul\":1384:1390   */\n      dup3\n        /* \"#utility.yul\":1373:1382   */\n      dup6\n        /* \"#utility.yul\":1369:1391   */\n      add\n        /* \"#utility.yul\":1340:1401   */\n      tag_119\n      jump\t// in\n    tag_137:\n        /* \"#utility.yul\":1330:1401   */\n      swap2\n      pop\n        /* \"#utility.yul\":1286:1411   */\n      pop\n        /* \"#utility.yul\":1073:1418   */\n      swap3\n      swap2\n      pop\n      pop\n      jump\t// out\n        /* \"#utility.yul\":1424:1753   */\n    tag_15:\n        /* \"#utility.yul\":1483:1489   */\n      0x00\n        /* \"#utility.yul\":1532:1534   */\n      0x20\n        /* \"#utility.yul\":1520:1529   */\n      dup3\n        /* \"#utility.yul\":1511:1518   */\n      dup5\n        /* \"#utility.yul\":1507:1530   */\n      sub\n        /* \"#utility.yul\":1503:1535   */\n      slt\n        /* \"#utility.yul\":1500:1619   */\n      iszero\n      tag_139\n      jumpi\n        /* \"#utility.yul\":1538:1617   */\n      tag_140\n      tag_136\n      jump\t// in\n    tag_140:\n        /* \"#utility.yul\":1500:1619   */\n    tag_139:\n        /* \"#utility.yul\":1658:1659   */\n      0x00\n        /* \"#utility.yul\":1683:1736   */\n      tag_141\n        /* \"#utility.yul\":1728:1735   */\n      dup5\n        /* \"#utility.yul\":1719:1725   */\n      dup3\n        /* \"#utility.yul\":1708:1717   */\n      dup6\n        /* \"#utility.yul\":1704:1726   */\n      add\n        /* \"#utility.yul\":1683:1736   */\n      tag_129\n      jump\t// in\n    tag_141:\n        /* \"#utility.yul\":1673:1736   */\n      swap2\n      pop\n        /* \"#utility.yul\":1629:1746   */\n      pop\n        /* \"#utility.yul\":1424:1753   */\n      swap3\n      swap2\n      pop\n      pop\n      jump\t// out\n        /* \"#utility.yul\":1759:2558   */\n    tag_39:\n        /* \"#utility.yul\":1846:1852   */\n      0x00\n        /* \"#utility.yul\":1854:1860   */\n      dup1\n        /* \"#utility.yul\":1862:1868   */\n      0x00\n        /* \"#utility.yul\":1911:1913   */\n      0x60\n        /* \"#utility.yul\":1899:1908   */\n      dup5\n        /* \"#utility.yul\":1890:1897   */\n      dup7\n        /* \"#utility.yul\":1886:1909   */\n      sub\n        /* \"#utility.yul\":1882:1914   */\n      slt\n        /* \"#utility.yul\":1879:1998   */\n      iszero\n      tag_143\n      jumpi\n        /* \"#utility.yul\":1917:1996   */\n      tag_144\n      tag_136\n      jump\t// in\n    tag_144:\n        /* \"#utility.yul\":1879:1998   */\n    tag_143:\n        /* \"#utility.yul\":2037:2038   */\n      0x00\n        /* \"#utility.yul\":2062:2115   */\n      tag_145\n        /* \"#utility.yul\":2107:2114   */\n      dup7\n        /* \"#utility.yul\":2098:2104   */\n      dup3\n        /* \"#utility.yul\":2087:2096   */\n      dup8\n        /* \"#utility.yul\":2083:2105   */\n      add\n        /* \"#utility.yul\":2062:2115   */\n      tag_129\n      jump\t// in\n    tag_145:\n        /* \"#utility.yul\":2052:2115   */\n      swap4\n      pop\n        /* \"#utility.yul\":2008:2125   */\n      pop\n        /* \"#utility.yul\":2192:2194   */\n      0x20\n        /* \"#utility.yul\":2181:2190   */\n      dup5\n        /* \"#utility.yul\":2177:2195   */\n      add\n        /* \"#utility.yul\":2164:2196   */\n      calldataload\n        /* \"#utility.yul\":2223:2241   */\n      0xffffffffffffffff\n        /* \"#utility.yul\":2215:2221   */\n      dup2\n        /* \"#utility.yul\":2212:2242   */\n      gt\n        /* \"#utility.yul\":2209:2326   */\n      iszero\n      tag_146\n      jumpi\n        /* \"#utility.yul\":2245:2324   */\n      tag_147\n      tag_148\n      jump\t// in\n    tag_147:\n        /* \"#utility.yul\":2209:2326   */\n    tag_146:\n        /* \"#utility.yul\":2350:2413   */\n      tag_149\n        /* \"#utility.yul\":2405:2412   */\n      dup7\n        /* \"#utility.yul\":2396:2402   */\n      dup3\n        /* \"#utility.yul\":2385:2394   */\n      dup8\n        /* \"#utility.yul\":2381:2403   */\n      add\n        /* \"#utility.yul\":2350:2413   */\n      tag_123\n      jump\t// in\n    tag_149:\n        /* \"#utility.yul\":2340:2413   */\n      swap3\n      pop\n        /* \"#utility.yul\":2135:2423   */\n      pop\n        /* \"#utility.yul\":2462:2464   */\n      0x40\n        /* \"#utility.yul\":2488:2541   */\n      tag_150\n        /* \"#utility.yul\":2533:2540   */\n      dup7\n        /* \"#utility.yul\":2524:2530   */\n      dup3\n        /* \"#utility.yul\":2513:2522   */\n      dup8\n        /* \"#utility.yul\":2509:2531   */\n      add\n        /* \"#utility.yul\":2488:2541   */\n      tag_129\n      jump\t// in\n    tag_150:\n        /* \"#utility.yul\":2478:2541   */\n      swap2\n      pop\n        /* \"#utility.yul\":2433:2551   */\n      pop\n        /* \"#utility.yul\":1759:2558   */\n      swap3\n      pop\n      swap3\n      pop\n      swap3\n      jump\t// out\n        /* \"#utility.yul\":2564:3038   */\n    tag_28:\n        /* \"#utility.yul\":2632:2638   */\n      0x00\n        /* \"#utility.yul\":2640:2646   */\n      dup1\n        /* \"#utility.yul\":2689:2691   */\n      0x40\n        /* \"#utility.yul\":2677:2686   */\n      dup4\n        /* \"#utility.yul\":2668:2675   */\n      dup6\n        /* \"#utility.yul\":2664:2687   */\n      sub\n        /* \"#utility.yul\":2660:2692   */\n      slt\n        /* \"#utility.yul\":2657:2776   */\n      iszero\n      tag_152\n      jumpi\n        /* \"#utility.yul\":2695:2774   */\n      tag_153\n      tag_136\n      jump\t// in\n    tag_153:\n        /* \"#utility.yul\":2657:2776   */\n    tag_152:\n        /* \"#utility.yul\":2815:2816   */\n      0x00\n        /* \"#utility.yul\":2840:2893   */\n      tag_154\n        /* \"#utility.yul\":2885:2892   */\n      dup6\n        /* \"#utility.yul\":2876:2882   */\n      dup3\n        /* \"#utility.yul\":2865:2874   */\n      dup7\n        /* \"#utility.yul\":2861:2883   */\n      add\n        /* \"#utility.yul\":2840:2893   */\n      tag_129\n      jump\t// in\n    tag_154:\n        /* \"#utility.yul\":2830:2893   */\n      swap3\n      pop\n        /* \"#utility.yul\":2786:2903   */\n      pop\n        /* \"#utility.yul\":2942:2944   */\n      0x20\n        /* \"#utility.yul\":2968:3021   */\n      tag_155\n        /* \"#utility.yul\":3013:3020   */\n      dup6\n        /* \"#utility.yul\":3004:3010   */\n      dup3\n        /* \"#utility.yul\":2993:3002   */\n      dup7\n        /* \"#utility.yul\":2989:3011   */\n      add\n        /* \"#utility.yul\":2968:3021   */\n      tag_129\n      jump\t// in\n    tag_155:\n        /* \"#utility.yul\":2958:3021   */\n      swap2\n      pop\n        /* \"#utility.yul\":2913:3031   */\n      pop\n        /* \"#utility.yul\":2564:3038   */\n      swap3\n      pop\n      swap3\n      swap1\n      pop\n      jump\t// out\n        /* \"#utility.yul\":3044:3663   */\n    tag_24:\n        /* \"#utility.yul\":3121:3127   */\n      0x00\n        /* \"#utility.yul\":3129:3135   */\n      dup1\n        /* \"#utility.yul\":3137:3143   */\n      0x00\n        /* \"#utility.yul\":3186:3188   */\n      0x60\n        /* \"#utility.yul\":3174:3183   */\n      dup5\n        /* \"#utility.yul\":3165:3172   */\n      dup7\n        /* \"#utility.yul\":3161:3184   */\n      sub\n        /* \"#utility.yul\":3157:3189   */\n      slt\n        /* \"#utility.yul\":3154:3273   */\n      iszero\n      tag_157\n      jumpi\n        /* \"#utility.yul\":3192:3271   */\n      tag_158\n      tag_136\n      jump\t// in\n    tag_158:\n        /* \"#utility.yul\":3154:3273   */\n    tag_157:\n        /* \"#utility.yul\":3312:3313   */\n      0x00\n        /* \"#utility.yul\":3337:3390   */\n      tag_159\n        /* \"#utility.yul\":3382:3389   */\n      dup7\n        /* \"#utility.yul\":3373:3379   */\n      dup3\n        /* \"#utility.yul\":3362:3371   */\n      dup8\n        /* \"#utility.yul\":3358:3380   */\n      add\n        /* \"#utility.yul\":3337:3390   */\n      tag_129\n      jump\t// in\n    tag_159:\n        /* \"#utility.yul\":3327:3390   */\n      swap4\n      pop\n        /* \"#utility.yul\":3283:3400   */\n      pop\n        /* \"#utility.yul\":3439:3441   */\n      0x20\n        /* \"#utility.yul\":3465:3518   */\n      tag_160\n        /* \"#utility.yul\":3510:3517   */\n      dup7\n        /* \"#utility.yul\":3501:3507   */\n      dup3\n        /* \"#utility.yul\":3490:3499   */\n      dup8\n        /* \"#utility.yul\":3486:3508   */\n      add\n        /* \"#utility.yul\":3465:3518   */\n      tag_129\n      jump\t// in\n    tag_160:\n        /* \"#utility.yul\":3455:3518   */\n      swap3\n      pop\n        /* \"#utility.yul\":3410:3528   */\n      pop\n        /* \"#utility.yul\":3567:3569   */\n      0x40\n        /* \"#utility.yul\":3593:3646   */\n      tag_161\n        /* \"#utility.yul\":3638:3645   */\n      dup7\n        /* \"#utility.yul\":3629:3635   */\n      dup3\n        /* \"#utility.yul\":3618:3627   */\n      dup8\n        /* \"#utility.yul\":3614:3636   */\n      add\n        /* \"#utility.yul\":3593:3646   */\n      tag_129\n      jump\t// in\n    tag_161:\n        /* \"#utility.yul\":3583:3646   */\n      swap2\n      pop\n        /* \"#utility.yul\":3538:3656   */\n      pop\n        /* \"#utility.yul\":3044:3663   */\n      swap3\n      pop\n      swap3\n      pop\n      swap3\n      jump\t// out\n        /* \"#utility.yul\":3669:3787   */\n    tag_162:\n        /* \"#utility.yul\":3756:3780   */\n      tag_164\n        /* \"#utility.yul\":3774:3779   */\n      dup2\n        /* \"#utility.yul\":3756:3780   */\n      tag_165\n      jump\t// in\n    tag_164:\n        /* \"#utility.yul\":3751:3754   */\n      dup3\n        /* \"#utility.yul\":3744:3781   */\n      mstore\n        /* \"#utility.yul\":3669:3787   */\n      pop\n      pop\n      jump\t// out\n        /* \"#utility.yul\":3793:4157   */\n    tag_166:\n        /* \"#utility.yul\":3881:3884   */\n      0x00\n        /* \"#utility.yul\":3909:3948   */\n      tag_168\n        /* \"#utility.yul\":3942:3947   */\n      dup3\n        /* \"#utility.yul\":3909:3948   */\n      tag_169\n      jump\t// in\n    tag_168:\n        /* \"#utility.yul\":3964:4035   */\n      tag_170\n        /* \"#utility.yul\":4028:4034   */\n      dup2\n        /* \"#utility.yul\":4023:4026   */\n      dup6\n        /* \"#utility.yul\":3964:4035   */\n      tag_171\n      jump\t// in\n    tag_170:\n        /* \"#utility.yul\":3957:4035   */\n      swap4\n      pop\n        /* \"#utility.yul\":4044:4096   */\n      tag_172\n        /* \"#utility.yul\":4089:4095   */\n      dup2\n        /* \"#utility.yul\":4084:4087   */\n      dup6\n        /* \"#utility.yul\":4077:4081   */\n      0x20\n        /* \"#utility.yul\":4070:4075   */\n      dup7\n        /* \"#utility.yul\":4066:4082   */\n      add\n        /* \"#utility.yul\":4044:4096   */\n      tag_173\n      jump\t// in\n    tag_172:\n        /* \"#utility.yul\":4121:4150   */\n      tag_174\n        /* \"#utility.yul\":4143:4149   */\n      dup2\n        /* \"#utility.yul\":4121:4150   */\n      tag_175\n      jump\t// in\n    tag_174:\n        /* \"#utility.yul\":4116:4119   */\n      dup5\n        /* \"#utility.yul\":4112:4151   */\n      add\n        /* \"#utility.yul\":4105:4151   */\n      swap2\n      pop\n        /* \"#utility.yul\":3885:4157   */\n      pop\n        /* \"#utility.yul\":3793:4157   */\n      swap3\n      swap2\n      pop\n      pop\n      jump\t// out\n        /* \"#utility.yul\":4163:4529   */\n    tag_176:\n        /* \"#utility.yul\":4305:4308   */\n      0x00\n        /* \"#utility.yul\":4326:4393   */\n      tag_178\n        /* \"#utility.yul\":4390:4392   */\n      0x0f\n        /* \"#utility.yul\":4385:4388   */\n      dup4\n        /* \"#utility.yul\":4326:4393   */\n      tag_171\n      jump\t// in\n    tag_178:\n        /* \"#utility.yul\":4319:4393   */\n      swap2\n      pop\n        /* \"#utility.yul\":4402:4495   */\n      tag_179\n        /* \"#utility.yul\":4491:4494   */\n      dup3\n        /* \"#utility.yul\":4402:4495   */\n      tag_180\n      jump\t// in\n    tag_179:\n        /* \"#utility.yul\":4520:4522   */\n      0x20\n        /* \"#utility.yul\":4515:4518   */\n      dup3\n        /* \"#utility.yul\":4511:4523   */\n      add\n        /* \"#utility.yul\":4504:4523   */\n      swap1\n      pop\n        /* \"#utility.yul\":4163:4529   */\n      swap2\n      swap1\n      pop\n      jump\t// out\n        /* \"#utility.yul\":4535:4901   */\n    tag_181:\n        /* \"#utility.yul\":4677:4680   */\n      0x00\n        /* \"#utility.yul\":4698:4765   */\n      tag_183\n        /* \"#utility.yul\":4762:4764   */\n      0x0f\n        /* \"#utility.yul\":4757:4760   */\n      dup4\n        /* \"#utility.yul\":4698:4765   */\n      tag_171\n      jump\t// in\n    tag_183:\n        /* \"#utility.yul\":4691:4765   */\n      swap2\n      pop\n        /* \"#utility.yul\":4774:4867   */\n      tag_184\n        /* \"#utility.yul\":4863:4866   */\n      dup3\n        /* \"#utility.yul\":4774:4867   */\n      tag_185\n      jump\t// in\n    tag_184:\n        /* \"#utility.yul\":4892:4894   */\n      0x20\n        /* \"#utility.yul\":4887:4890   */\n      dup3\n        /* \"#utility.yul\":4883:4895   */\n      add\n        /* \"#utility.yul\":4876:4895   */\n      swap1\n      pop\n        /* \"#utility.yul\":4535:4901   */\n      swap2\n      swap1\n      pop\n      jump\t// out\n        /* \"#utility.yul\":4907:5025   */\n    tag_186:\n        /* \"#utility.yul\":4994:5018   */\n      tag_188\n        /* \"#utility.yul\":5012:5017   */\n      dup2\n        /* \"#utility.yul\":4994:5018   */\n      tag_189\n      jump\t// in\n    tag_188:\n        /* \"#utility.yul\":4989:4992   */\n      dup3\n        /* \"#utility.yul\":4982:5019   */\n      mstore\n        /* \"#utility.yul\":4907:5025   */\n      pop\n      pop\n      jump\t// out\n        /* \"#utility.yul\":5031:5253   */\n    tag_33:\n        /* \"#utility.yul\":5124:5128   */\n      0x00\n        /* \"#utility.yul\":5162:5164   */\n      0x20\n        /* \"#utility.yul\":5151:5160   */\n      dup3\n        /* \"#utility.yul\":5147:5165   */\n      add\n        /* \"#utility.yul\":5139:5165   */\n      swap1\n      pop\n        /* \"#utility.yul\":5175:5246   */\n      tag_191\n        /* \"#utility.yul\":5243:5244   */\n      0x00\n        /* \"#utility.yul\":5232:5241   */\n      dup4\n        /* \"#utility.yul\":5228:5245   */\n      add\n        /* \"#utility.yul\":5219:5225   */\n      dup5\n        /* \"#utility.yul\":5175:5246   */\n      tag_162\n      jump\t// in\n    tag_191:\n        /* \"#utility.yul\":5031:5253   */\n      swap3\n      swap2\n      pop\n      pop\n      jump\t// out\n        /* \"#utility.yul\":5259:5701   */\n    tag_75:\n        /* \"#utility.yul\":5408:5412   */\n      0x00\n        /* \"#utility.yul\":5446:5448   */\n      0x60\n        /* \"#utility.yul\":5435:5444   */\n      dup3\n        /* \"#utility.yul\":5431:5449   */\n      add\n        /* \"#utility.yul\":5423:5449   */\n      swap1\n      pop\n        /* \"#utility.yul\":5459:5530   */\n      tag_193\n        /* \"#utility.yul\":5527:5528   */\n      0x00\n        /* \"#utility.yul\":5516:5525   */\n      dup4\n        /* \"#utility.yul\":5512:5529   */\n      add\n        /* \"#utility.yul\":5503:5509   */\n      dup7\n        /* \"#utility.yul\":5459:5530   */\n      tag_162\n      jump\t// in\n    tag_193:\n        /* \"#utility.yul\":5540:5612   */\n      tag_194\n        /* \"#utility.yul\":5608:5610   */\n      0x20\n        /* \"#utility.yul\":5597:5606   */\n      dup4\n        /* \"#utility.yul\":5593:5611   */\n      add\n        /* \"#utility.yul\":5584:5590   */\n      dup6\n        /* \"#utility.yul\":5540:5612   */\n      tag_162\n      jump\t// in\n    tag_194:\n        /* \"#utility.yul\":5622:5694   */\n      tag_195\n        /* \"#utility.yul\":5690:5692   */\n      0x40\n        /* \"#utility.yul\":5679:5688   */\n      dup4\n        /* \"#utility.yul\":5675:5693   */\n      add\n        /* \"#utility.yul\":5666:5672   */\n      dup5\n        /* \"#utility.yul\":5622:5694   */\n      tag_186\n      jump\t// in\n    tag_195:\n        /* \"#utility.yul\":5259:5701   */\n      swap5\n      swap4\n      pop\n      pop\n      pop\n      pop\n      jump\t// out\n        /* \"#utility.yul\":5707:6039   */\n    tag_52:\n        /* \"#utility.yul\":5828:5832   */\n      0x00\n        /* \"#utility.yul\":5866:5868   */\n      0x40\n        /* \"#utility.yul\":5855:5864   */\n      dup3\n        /* \"#utility.yul\":5851:5869   */\n      add\n        /* \"#utility.yul\":5843:5869   */\n      swap1\n      pop\n        /* \"#utility.yul\":5879:5950   */\n      tag_197\n        /* \"#utility.yul\":5947:5948   */\n      0x00\n        /* \"#utility.yul\":5936:5945   */\n      dup4\n        /* \"#utility.yul\":5932:5949   */\n      add\n        /* \"#utility.yul\":5923:5929   */\n      dup6\n        /* \"#utility.yul\":5879:5950   */\n      tag_162\n      jump\t// in\n    tag_197:\n        /* \"#utility.yul\":5960:6032   */\n      tag_198\n        /* \"#utility.yul\":6028:6030   */\n      0x20\n        /* \"#utility.yul\":6017:6026   */\n      dup4\n        /* \"#utility.yul\":6013:6031   */\n      add\n        /* \"#utility.yul\":6004:6010   */\n      dup5\n        /* \"#utility.yul\":5960:6032   */\n      tag_186\n      jump\t// in\n    tag_198:\n        /* \"#utility.yul\":5707:6039   */\n      swap4\n      swap3\n      pop\n      pop\n      pop\n      jump\t// out\n        /* \"#utility.yul\":6045:6464   */\n    tag_50:\n        /* \"#utility.yul\":6211:6215   */\n      0x00\n        /* \"#utility.yul\":6249:6251   */\n      0x20\n        /* \"#utility.yul\":6238:6247   */\n      dup3\n        /* \"#utility.yul\":6234:6252   */\n      add\n        /* \"#utility.yul\":6226:6252   */\n      swap1\n      pop\n        /* \"#utility.yul\":6298:6307   */\n      dup2\n        /* \"#utility.yul\":6292:6296   */\n      dup2\n        /* \"#utility.yul\":6288:6308   */\n      sub\n        /* \"#utility.yul\":6284:6285   */\n      0x00\n        /* \"#utility.yul\":6273:6282   */\n      dup4\n        /* \"#utility.yul\":6269:6286   */\n      add\n        /* \"#utility.yul\":6262:6309   */\n      mstore\n        /* \"#utility.yul\":6326:6457   */\n      tag_200\n        /* \"#utility.yul\":6452:6456   */\n      dup2\n        /* \"#utility.yul\":6326:6457   */\n      tag_176\n      jump\t// in\n    tag_200:\n        /* \"#utility.yul\":6318:6457   */\n      swap1\n      pop\n        /* \"#utility.yul\":6045:6464   */\n      swap2\n      swap1\n      pop\n      jump\t// out\n        /* \"#utility.yul\":6470:6889   */\n    tag_67:\n        /* \"#utility.yul\":6636:6640   */\n      0x00\n        /* \"#utility.yul\":6674:6676   */\n      0x20\n        /* \"#utility.yul\":6663:6672   */\n      dup3\n        /* \"#utility.yul\":6659:6677   */\n      add\n        /* \"#utility.yul\":6651:6677   */\n      swap1\n      pop\n        /* \"#utility.yul\":6723:6732   */\n      dup2\n        /* \"#utility.yul\":6717:6721   */\n      dup2\n        /* \"#utility.yul\":6713:6733   */\n      sub\n        /* \"#utility.yul\":6709:6710   */\n      0x00\n        /* \"#utility.yul\":6698:6707   */\n      dup4\n        /* \"#utility.yul\":6694:6711   */\n      add\n        /* \"#utility.yul\":6687:6734   */\n      mstore\n        /* \"#utility.yul\":6751:6882   */\n      tag_202\n        /* \"#utility.yul\":6877:6881   */\n      dup2\n        /* \"#utility.yul\":6751:6882   */\n      tag_181\n      jump\t// in\n    tag_202:\n        /* \"#utility.yul\":6743:6882   */\n      swap1\n      pop\n        /* \"#utility.yul\":6470:6889   */\n      swap2\n      swap1\n      pop\n      jump\t// out\n        /* \"#utility.yul\":6895:7650   */\n    tag_21:\n        /* \"#utility.yul\":7120:7124   */\n      0x00\n        /* \"#utility.yul\":7158:7161   */\n      0xa0\n        /* \"#utility.yul\":7147:7156   */\n      dup3\n        /* \"#utility.yul\":7143:7162   */\n      add\n        /* \"#utility.yul\":7135:7162   */\n      swap1\n      pop\n        /* \"#utility.yul\":7172:7243   */\n      tag_204\n        /* \"#utility.yul\":7240:7241   */\n      0x00\n        /* \"#utility.yul\":7229:7238   */\n      dup4\n        /* \"#utility.yul\":7225:7242   */\n      add\n        /* \"#utility.yul\":7216:7222   */\n      dup9\n        /* \"#utility.yul\":7172:7243   */\n      tag_186\n      jump\t// in\n    tag_204:\n        /* \"#utility.yul\":7290:7299   */\n      dup2\n        /* \"#utility.yul\":7284:7288   */\n      dup2\n        /* \"#utility.yul\":7280:7300   */\n      sub\n        /* \"#utility.yul\":7275:7277   */\n      0x20\n        /* \"#utility.yul\":7264:7273   */\n      dup4\n        /* \"#utility.yul\":7260:7278   */\n      add\n        /* \"#utility.yul\":7253:7301   */\n      mstore\n        /* \"#utility.yul\":7318:7396   */\n      tag_205\n        /* \"#utility.yul\":7391:7395   */\n      dup2\n        /* \"#utility.yul\":7382:7388   */\n      dup8\n        /* \"#utility.yul\":7318:7396   */\n      tag_166\n      jump\t// in\n    tag_205:\n        /* \"#utility.yul\":7310:7396   */\n      swap1\n      pop\n        /* \"#utility.yul\":7406:7478   */\n      tag_206\n        /* \"#utility.yul\":7474:7476   */\n      0x40\n        /* \"#utility.yul\":7463:7472   */\n      dup4\n        /* \"#utility.yul\":7459:7477   */\n      add\n        /* \"#utility.yul\":7450:7456   */\n      dup7\n        /* \"#utility.yul\":7406:7478   */\n      tag_162\n      jump\t// in\n    tag_206:\n        /* \"#utility.yul\":7488:7560   */\n      tag_207\n        /* \"#utility.yul\":7556:7558   */\n      0x60\n        /* \"#utility.yul\":7545:7554   */\n      dup4\n        /* \"#utility.yul\":7541:7559   */\n      add\n        /* \"#utility.yul\":7532:7538   */\n      dup6\n        /* \"#utility.yul\":7488:7560   */\n      tag_186\n      jump\t// in\n    tag_207:\n        /* \"#utility.yul\":7570:7643   */\n      tag_208\n        /* \"#utility.yul\":7638:7641   */\n      0x80\n        /* \"#utility.yul\":7627:7636   */\n      dup4\n        /* \"#utility.yul\":7623:7642   */\n      add\n        /* \"#utility.yul\":7614:7620   */\n      dup5\n        /* \"#utility.yul\":7570:7643   */\n      tag_186\n      jump\t// in\n    tag_208:\n        /* \"#utility.yul\":6895:7650   */\n      swap7\n      swap6\n      pop\n      pop\n      pop\n      pop\n      pop\n      pop\n      jump\t// out\n        /* \"#utility.yul\":7656:7785   */\n    tag_113:\n        /* \"#utility.yul\":7690:7696   */\n      0x00\n        /* \"#utility.yul\":7717:7737   */\n      tag_210\n      tag_211\n      jump\t// in\n    tag_210:\n        /* \"#utility.yul\":7707:7737   */\n      swap1\n      pop\n        /* \"#utility.yul\":7746:7779   */\n      tag_212\n        /* \"#utility.yul\":7774:7778   */\n      dup3\n        /* \"#utility.yul\":7766:7772   */\n      dup3\n        /* \"#utility.yul\":7746:7779   */\n      tag_213\n      jump\t// in\n    tag_212:\n        /* \"#utility.yul\":7656:7785   */\n      swap2\n      swap1\n      pop\n      jump\t// out\n        /* \"#utility.yul\":7791:7866   */\n    tag_211:\n        /* \"#utility.yul\":7824:7830   */\n      0x00\n        /* \"#utility.yul\":7857:7859   */\n      0x40\n        /* \"#utility.yul\":7851:7860   */\n      mload\n        /* \"#utility.yul\":7841:7860   */\n      swap1\n      pop\n        /* \"#utility.yul\":7791:7866   */\n      swap1\n      jump\t// out\n        /* \"#utility.yul\":7872:8180   */\n    tag_112:\n        /* \"#utility.yul\":7934:7938   */\n      0x00\n        /* \"#utility.yul\":8024:8042   */\n      0xffffffffffffffff\n        /* \"#utility.yul\":8016:8022   */\n      dup3\n        /* \"#utility.yul\":8013:8043   */\n      gt\n        /* \"#utility.yul\":8010:8066   */\n      iszero\n      tag_216\n      jumpi\n        /* \"#utility.yul\":8046:8064   */\n      tag_217\n      tag_218\n      jump\t// in\n    tag_217:\n        /* \"#utility.yul\":8010:8066   */\n    tag_216:\n        /* \"#utility.yul\":8084:8113   */\n      tag_219\n        /* \"#utility.yul\":8106:8112   */\n      dup3\n        /* \"#utility.yul\":8084:8113   */\n      tag_175\n      jump\t// in\n    tag_219:\n        /* \"#utility.yul\":8076:8113   */\n      swap1\n      pop\n        /* \"#utility.yul\":8168:8172   */\n      0x20\n        /* \"#utility.yul\":8162:8166   */\n      dup2\n        /* \"#utility.yul\":8158:8173   */\n      add\n        /* \"#utility.yul\":8150:8173   */\n      swap1\n      pop\n        /* \"#utility.yul\":7872:8180   */\n      swap2\n      swap1\n      pop\n      jump\t// out\n        /* \"#utility.yul\":8186:8285   */\n    tag_169:\n        /* \"#utility.yul\":8238:8244   */\n      0x00\n        /* \"#utility.yul\":8272:8277   */\n      dup2\n        /* \"#utility.yul\":8266:8278   */\n      mload\n        /* \"#utility.yul\":8256:8278   */\n      swap1\n      pop\n        /* \"#utility.yul\":8186:8285   */\n      swap2\n      swap1\n      pop\n      jump\t// out\n        /* \"#utility.yul\":8291:8460   */\n    tag_171:\n        /* \"#utility.yul\":8375:8386   */\n      0x00\n        /* \"#utility.yul\":8409:8415   */\n      dup3\n        /* \"#utility.yul\":8404:8407   */\n      dup3\n        /* \"#utility.yul\":8397:8416   */\n      mstore\n        /* \"#utility.yul\":8449:8453   */\n      0x20\n        /* \"#utility.yul\":8444:8447   */\n      dup3\n        /* \"#utility.yul\":8440:8454   */\n      add\n        /* \"#utility.yul\":8425:8454   */\n      swap1\n      pop\n        /* \"#utility.yul\":8291:8460   */\n      swap3\n      swap2\n      pop\n      pop\n      jump\t// out\n        /* \"#utility.yul\":8466:8771   */\n    tag_71:\n        /* \"#utility.yul\":8506:8509   */\n      0x00\n        /* \"#utility.yul\":8525:8545   */\n      tag_223\n        /* \"#utility.yul\":8543:8544   */\n      dup3\n        /* \"#utility.yul\":8525:8545   */\n      tag_189\n      jump\t// in\n    tag_223:\n        /* \"#utility.yul\":8520:8545   */\n      swap2\n      pop\n        /* \"#utility.yul\":8559:8579   */\n      tag_224\n        /* \"#utility.yul\":8577:8578   */\n      dup4\n        /* \"#utility.yul\":8559:8579   */\n      tag_189\n      jump\t// in\n    tag_224:\n        /* \"#utility.yul\":8554:8579   */\n      swap3\n      pop\n        /* \"#utility.yul\":8713:8714   */\n      dup3\n        /* \"#utility.yul\":8645:8711   */\n      0xffffffffffffffffffffffffffffffffffffffffffffffffffffffffffffffff\n        /* \"#utility.yul\":8641:8715   */\n      sub\n        /* \"#utility.yul\":8638:8639   */\n      dup3\n        /* \"#utility.yul\":8635:8716   */\n      gt\n        /* \"#utility.yul\":8632:8739   */\n      iszero\n      tag_225\n      jumpi\n        /* \"#utility.yul\":8719:8737   */\n      tag_226\n      tag_227\n      jump\t// in\n    tag_226:\n        /* \"#utility.yul\":8632:8739   */\n    tag_225:\n        /* \"#utility.yul\":8763:8764   */\n      dup3\n        /* \"#utility.yul\":8760:8761   */\n      dup3\n        /* \"#utility.yul\":8756:8765   */\n      add\n        /* \"#utility.yul\":8749:8765   */\n      swap1\n      pop\n        /* \"#utility.yul\":8466:8771   */\n      swap3\n      swap2\n      pop\n      pop\n      jump\t// out\n        /* \"#utility.yul\":8777:8968   */\n    tag_69:\n        /* \"#utility.yul\":8817:8821   */\n      0x00\n        /* \"#utility.yul\":8837:8857   */\n      tag_229\n        /* \"#utility.yul\":8855:8856   */\n      dup3\n        /* \"#utility.yul\":8837:8857   */\n      tag_189\n      jump\t// in\n    tag_229:\n        /* \"#utility.yul\":8832:8857   */\n      swap2\n      pop\n        /* \"#utility.yul\":8871:8891   */\n      tag_230\n        /* \"#utility.yul\":8889:8890   */\n      dup4\n        /* \"#utility.yul\":8871:8891   */\n      tag_189\n      jump\t// in\n    tag_230:\n        /* \"#utility.yul\":8866:8891   */\n      swap3\n      pop\n        /* \"#utility.yul\":8910:8911   */\n      dup3\n        /* \"#utility.yul\":8907:8908   */\n      dup3\n        /* \"#utility.yul\":8904:8912   */\n      lt\n        /* \"#utility.yul\":8901:8935   */\n      iszero\n      tag_231\n      jumpi\n        /* \"#utility.yul\":8915:8933   */\n      tag_232\n      tag_227\n      jump\t// in\n    tag_232:\n        /* \"#utility.yul\":8901:8935   */\n    tag_231:\n        /* \"#utility.yul\":8960:8961   */\n      dup3\n        /* \"#utility.yul\":8957:8958   */\n      dup3\n        /* \"#utility.yul\":8953:8962   */\n      sub\n        /* \"#utility.yul\":8945:8962   */\n      swap1\n      pop\n        /* \"#utility.yul\":8777:8968   */\n      swap3\n      swap2\n      pop\n      pop\n      jump\t// out\n        /* \"#utility.yul\":8974:9070   */\n    tag_165:\n        /* \"#utility.yul\":9011:9018   */\n      0x00\n        /* \"#utility.yul\":9040:9064   */\n      tag_234\n        /* \"#utility.yul\":9058:9063   */\n      dup3\n        /* \"#utility.yul\":9040:9064   */\n      tag_235\n      jump\t// in\n    tag_234:\n        /* \"#utility.yul\":9029:9064   */\n      swap1\n      pop\n        /* \"#utility.yul\":8974:9070   */\n      swap2\n      swap1\n      pop\n      jump\t// out\n        /* \"#utility.yul\":9076:9166   */\n    tag_236:\n        /* \"#utility.yul\":9110:9117   */\n      0x00\n        /* \"#utility.yul\":9153:9158   */\n      dup2\n        /* \"#utility.yul\":9146:9159   */\n      iszero\n        /* \"#utility.yul\":9139:9160   */\n      iszero\n        /* \"#utility.yul\":9128:9160   */\n      swap1\n      pop\n        /* \"#utility.yul\":9076:9166   */\n      swap2\n      swap1\n      pop\n      jump\t// out\n        /* \"#utility.yul\":9172:9298   */\n    tag_235:\n        /* \"#utility.yul\":9209:9216   */\n      0x00\n        /* \"#utility.yul\":9249:9291   */\n      0xffffffffffffffffffffffffffffffffffffffff\n        /* \"#utility.yul\":9242:9247   */\n      dup3\n        /* \"#utility.yul\":9238:9292   */\n      and\n        /* \"#utility.yul\":9227:9292   */\n      swap1\n      pop\n        /* \"#utility.yul\":9172:9298   */\n      swap2\n      swap1\n      pop\n      jump\t// out\n        /* \"#utility.yul\":9304:9381   */\n    tag_189:\n        /* \"#utility.yul\":9341:9348   */\n      0x00\n        /* \"#utility.yul\":9370:9375   */\n      dup2\n        /* \"#utility.yul\":9359:9375   */\n      swap1\n      pop\n        /* \"#utility.yul\":9304:9381   */\n      swap2\n      swap1\n      pop\n      jump\t// out\n        /* \"#utility.yul\":9387:9541   */\n    tag_118:\n        /* \"#utility.yul\":9471:9477   */\n      dup3\n        /* \"#utility.yul\":9466:9469   */\n      dup2\n        /* \"#utility.yul\":9461:9464   */\n      dup4\n        /* \"#utility.yul\":9448:9478   */\n      calldatacopy\n        /* \"#utility.yul\":9533:9534   */\n      0x00\n        /* \"#utility.yul\":9524:9530   */\n      dup4\n        /* \"#utility.yul\":9519:9522   */\n      dup4\n        /* \"#utility.yul\":9515:9531   */\n      add\n        /* \"#utility.yul\":9508:9535   */\n      mstore\n        /* \"#utility.yul\":9387:9541   */\n      pop\n      pop\n      pop\n      jump\t// out\n        /* \"#utility.yul\":9547:9854   */\n    tag_173:\n        /* \"#utility.yul\":9615:9616   */\n      0x00\n        /* \"#utility.yul\":9625:9738   */\n    tag_242:\n        /* \"#utility.yul\":9639:9645   */\n      dup4\n        /* \"#utility.yul\":9636:9637   */\n      dup2\n        /* \"#utility.yul\":9633:9646   */\n      lt\n        /* \"#utility.yul\":9625:9738   */\n      iszero\n      tag_244\n      jumpi\n        /* \"#utility.yul\":9724:9725   */\n      dup1\n        /* \"#utility.yul\":9719:9722   */\n      dup3\n        /* \"#utility.yul\":9715:9726   */\n      add\n        /* \"#utility.yul\":9709:9727   */\n      mload\n        /* \"#utility.yul\":9705:9706   */\n      dup2\n        /* \"#utility.yul\":9700:9703   */\n      dup5\n        /* \"#utility.yul\":9696:9707   */\n      add\n        /* \"#utility.yul\":9689:9728   */\n      mstore\n        /* \"#utility.yul\":9661:9663   */\n      0x20\n        /* \"#utility.yul\":9658:9659   */\n      dup2\n        /* \"#utility.yul\":9654:9664   */\n      add\n        /* \"#utility.yul\":9649:9664   */\n      swap1\n      pop\n        /* \"#utility.yul\":9625:9738   */\n      jump(tag_242)\n    tag_244:\n        /* \"#utility.yul\":9756:9762   */\n      dup4\n        /* \"#utility.yul\":9753:9754   */\n      dup2\n        /* \"#utility.yul\":9750:9763   */\n      gt\n        /* \"#utility.yul\":9747:9848   */\n      iszero\n      tag_245\n      jumpi\n        /* \"#utility.yul\":9836:9837   */\n      0x00\n        /* \"#utility.yul\":9827:9833   */\n      dup5\n        /* \"#utility.yul\":9822:9825   */\n      dup5\n        /* \"#utility.yul\":9818:9834   */\n      add\n        /* \"#utility.yul\":9811:9838   */\n      mstore\n        /* \"#utility.yul\":9747:9848   */\n    tag_245:\n        /* \"#utility.yul\":9596:9854   */\n      pop\n        /* \"#utility.yul\":9547:9854   */\n      pop\n      pop\n      pop\n      jump\t// out\n        /* \"#utility.yul\":9860:10180   */\n    tag_59:\n        /* \"#utility.yul\":9904:9910   */\n      0x00\n        /* \"#utility.yul\":9941:9942   */\n      0x02\n        /* \"#utility.yul\":9935:9939   */\n      dup3\n        /* \"#utility.yul\":9931:9943   */\n      div\n        /* \"#utility.yul\":9921:9943   */\n      swap1\n      pop\n        /* \"#utility.yul\":9988:9989   */\n      0x01\n        /* \"#utility.yul\":9982:9986   */\n      dup3\n        /* \"#utility.yul\":9978:9990   */\n      and\n        /* \"#utility.yul\":10009:10027   */\n      dup1\n        /* \"#utility.yul\":9999:10080   */\n      tag_247\n      jumpi\n        /* \"#utility.yul\":10065:10069   */\n      0x7f\n        /* \"#utility.yul\":10057:10063   */\n      dup3\n        /* \"#utility.yul\":10053:10070   */\n      and\n        /* \"#utility.yul\":10043:10070   */\n      swap2\n      pop\n        /* \"#utility.yul\":9999:10080   */\n    tag_247:\n        /* \"#utility.yul\":10127:10129   */\n      0x20\n        /* \"#utility.yul\":10119:10125   */\n      dup3\n        /* \"#utility.yul\":10116:10130   */\n      lt\n        /* \"#utility.yul\":10096:10114   */\n      dup2\n        /* \"#utility.yul\":10093:10131   */\n      eq\n        /* \"#utility.yul\":10090:10174   */\n      iszero\n      tag_248\n      jumpi\n        /* \"#utility.yul\":10146:10164   */\n      tag_249\n      tag_250\n      jump\t// in\n    tag_249:\n        /* \"#utility.yul\":10090:10174   */\n    tag_248:\n        /* \"#utility.yul\":9911:10180   */\n      pop\n        /* \"#utility.yul\":9860:10180   */\n      swap2\n      swap1\n      pop\n      jump\t// out\n        /* \"#utility.yul\":10186:10467   */\n    tag_213:\n        /* \"#utility.yul\":10269:10296   */\n      tag_252\n        /* \"#utility.yul\":10291:10295   */\n      dup3\n        /* \"#utility.yul\":10269:10296   */\n      tag_175\n      jump\t// in\n    tag_252:\n        /* \"#utility.yul\":10261:10267   */\n      dup2\n        /* \"#utility.yul\":10257:10297   */\n      add\n        /* \"#utility.yul\":10399:10405   */\n      dup2\n        /* \"#utility.yul\":10387:10397   */\n      dup2\n        /* \"#utility.yul\":10384:10406   */\n      lt\n        /* \"#utility.yul\":10363:10381   */\n      0xffffffffffffffff\n        /* \"#utility.yul\":10351:10361   */\n      dup3\n        /* \"#utility.yul\":10348:10382   */\n      gt\n        /* \"#utility.yul\":10345:10407   */\n      or\n        /* \"#utility.yul\":10342:10430   */\n      iszero\n      tag_253\n      jumpi\n        /* \"#utility.yul\":10410:10428   */\n      tag_254\n      tag_218\n      jump\t// in\n    tag_254:\n        /* \"#utility.yul\":10342:10430   */\n    tag_253:\n        /* \"#utility.yul\":10450:10460   */\n      dup1\n        /* \"#utility.yul\":10446:10448   */\n      0x40\n        /* \"#utility.yul\":10439:10461   */\n      mstore\n        /* \"#utility.yul\":10229:10467   */\n      pop\n        /* \"#utility.yul\":10186:10467   */\n      pop\n      pop\n      jump\t// out\n        /* \"#utility.yul\":10473:10653   */\n    tag_227:\n        /* \"#utility.yul\":10521:10598   */\n      0x4e487b7100000000000000000000000000000000000000000000000000000000\n        /* \"#utility.yul\":10518:10519   */\n      0x00\n        /* \"#utility.yul\":10511:10599   */\n      mstore\n        /* \"#utility.yul\":10618:10622   */\n      0x11\n        /* \"#utility.yul\":10615:10616   */\n      0x04\n        /* \"#utility.yul\":10608:10623   */\n      mstore\n        /* \"#utility.yul\":10642:10646   */\n      0x24\n        /* \"#utility.yul\":10639:10640   */\n      0x00\n        /* \"#utility.yul\":10632:10647   */\n      revert\n        /* \"#utility.yul\":10659:10839   */\n    tag_250:\n        /* \"#utility.yul\":10707:10784   */\n      0x4e487b7100000000000000000000000000000000000000000000000000000000\n        /* \"#utility.yul\":10704:10705   */\n      0x00\n        /* \"#utility.yul\":10697:10785   */\n      mstore\n        /* \"#utility.yul\":10804:10808   */\n      0x22\n        /* \"#utility.yul\":10801:10802   */\n      0x04\n        /* \"#utility.yul\":10794:10809   */\n      mstore\n        /* \"#utility.yul\":10828:10832   */\n      0x24\n        /* \"#utility.yul\":10825:10826   */\n      0x00\n        /* \"#utility.yul\":10818:10833   */\n      revert\n        /* \"#utility.yul\":10845:11025   */\n    tag_218:\n        /* \"#utility.yul\":10893:10970   */\n      0x4e487b7100000000000000000000000000000000000000000000000000000000\n        /* \"#utility.yul\":10890:10891   */\n      0x00\n        /* \"#utility.yul\":10883:10971   */\n      mstore\n        /* \"#utility.yul\":10990:10994   */\n      0x41\n        /* \"#utility.yul\":10987:10988   */\n      0x04\n        /* \"#utility.yul\":10980:10995   */\n      mstore\n        /* \"#utility.yul\":11014:11018   */\n      0x24\n        /* \"#utility.yul\":11011:11012   */\n      0x00\n        /* \"#utility.yul\":11004:11019   */\n      revert\n        /* \"#utility.yul\":11031:11148   */\n    tag_127:\n        /* \"#utility.yul\":11140:11141   */\n      0x00\n        /* \"#utility.yul\":11137:11138   */\n      dup1\n        /* \"#utility.yul\":11130:11142   */\n      revert\n        /* \"#utility.yul\":11154:11271   */\n    tag_116:\n        /* \"#utility.yul\":11263:11264   */\n      0x00\n        /* \"#utility.yul\":11260:11261   */\n      dup1\n        /* \"#utility.yul\":11253:11265   */\n      revert\n        /* \"#utility.yul\":11277:11394   */\n    tag_148:\n        /* \"#utility.yul\":11386:11387   */\n      0x00\n        /* \"#utility.yul\":11383:11384   */\n      dup1\n        /* \"#utility.yul\":11376:11388   */\n      revert\n        /* \"#utility.yul\":11400:11517   */\n    tag_136:\n        /* \"#utility.yul\":11509:11510   */\n      0x00\n        /* \"#utility.yul\":11506:11507   */\n      dup1\n        /* \"#utility.yul\":11499:11511   */\n      revert\n        /* \"#utility.yul\":11523:11625   */\n    tag_175:\n        /* \"#utility.yul\":11564:11570   */\n      0x00\n        /* \"#utility.yul\":11615:11617   */\n      0x1f\n        /* \"#utility.yul\":11611:11618   */\n      not\n        /* \"#utility.yul\":11606:11608   */\n      0x1f\n        /* \"#utility.yul\":11599:11604   */\n      dup4\n        /* \"#utility.yul\":11595:11609   */\n      add\n        /* \"#utility.yul\":11591:11619   */\n      and\n        /* \"#utility.yul\":11581:11619   */\n      swap1\n      pop\n        /* \"#utility.yul\":11523:11625   */\n      swap2\n      swap1\n      pop\n      jump\t// out\n        /* \"#utility.yul\":11631:11796   */\n    tag_180:\n        /* \"#utility.yul\":11771:11788   */\n      0x696e2076616c696420616d6f756e740000000000000000000000000000000000\n        /* \"#utility.yul\":11767:11768   */\n      0x00\n        /* \"#utility.yul\":11759:11765   */\n      dup3\n        /* \"#utility.yul\":11755:11769   */\n      add\n        /* \"#utility.yul\":11748:11789   */\n      mstore\n        /* \"#utility.yul\":11631:11796   */\n      pop\n      jump\t// out\n        /* \"#utility.yul\":11802:11967   */\n    tag_185:\n        /* \"#utility.yul\":11942:11959   */\n      0x496e2076616c696420416d6f756e740000000000000000000000000000000000\n        /* \"#utility.yul\":11938:11939   */\n      0x00\n        /* \"#utility.yul\":11930:11936   */\n      dup3\n        /* \"#utility.yul\":11926:11940   */\n      add\n        /* \"#utility.yul\":11919:11960   */\n      mstore\n        /* \"#utility.yul\":11802:11967   */\n      pop\n      jump\t// out\n        /* \"#utility.yul\":11973:12089   */\n    tag_122:\n        /* \"#utility.yul\":12043:12064   */\n      tag_266\n        /* \"#utility.yul\":12058:12063   */\n      dup2\n        /* \"#utility.yul\":12043:12064   */\n      tag_236\n      jump\t// in\n    tag_266:\n        /* \"#utility.yul\":12036:12041   */\n      dup2\n        /* \"#utility.yul\":12033:12065   */\n      eq\n        /* \"#utility.yul\":12023:12083   */\n      tag_267\n      jumpi\n        /* \"#utility.yul\":12079:12080   */\n      0x00\n        /* \"#utility.yul\":12076:12077   */\n      dup1\n        /* \"#utility.yul\":12069:12081   */\n      revert\n        /* \"#utility.yul\":12023:12083   */\n    tag_267:\n        /* \"#utility.yul\":11973:12089   */\n      pop\n      jump\t// out\n        /* \"#utility.yul\":12095:12217   */\n    tag_132:\n        /* \"#utility.yul\":12168:12192   */\n      tag_269\n        /* \"#utility.yul\":12186:12191   */\n      dup2\n        /* \"#utility.yul\":12168:12192   */\n      tag_189\n      jump\t// in\n    tag_269:\n        /* \"#utility.yul\":12161:12166   */\n      dup2\n        /* \"#utility.yul\":12158:12193   */\n      eq\n        /* \"#utility.yul\":12148:12211   */\n      tag_270\n      jumpi\n        /* \"#utility.yul\":12207:12208   */\n      0x00\n        /* \"#utility.yul\":12204:12205   */\n      dup1\n        /* \"#utility.yul\":12197:12209   */\n      revert\n        /* \"#utility.yul\":12148:12211   */\n    tag_270:\n        /* \"#utility.yul\":12095:12217   */\n      pop\n      jump\t// out\n\n    auxdata: 0xa2646970667358221220e24a351ffb010a1127ca74fbb121339f8f97fc1606f1f616ab356eb452d0364364736f6c63430008070033\n}\n",
				"bytecode": {
					"linkReferences": {},
					"object": "60806040523480156200001157600080fd5b50604051620011aa380380620011aa8339818101604052810190620000379190620000d6565b80600160006101000a81548173ffffffffffffffffffffffffffffffffffffffff021916908373ffffffffffffffffffffffffffffffffffffffff160217905550336000806101000a81548173ffffffffffffffffffffffffffffffffffffffff021916908373ffffffffffffffffffffffffffffffffffffffff160217905550506200015b565b600081519050620000d08162000141565b92915050565b600060208284031215620000ef57620000ee6200013c565b5b6000620000ff84828501620000bf565b91505092915050565b600062000115826200011c565b9050919050565b600073ffffffffffffffffffffffffffffffffffffffff82169050919050565b600080fd5b6200014c8162000108565b81146200015857600080fd5b50565b61103f806200016b6000396000f3fe608060405234801561001057600080fd5b50600436106100935760003560e01c80638da5cb5b116100665780638da5cb5b146101205780639d76ea581461013e578063a1f3ae221461015c578063dfcdcb7314610178578063e27858b11461019457610093565b80630562b9f7146100985780632929d121146100b45780633f3078df146100e857806381fd25c014610104575b600080fd5b6100b260048036038101906100ad9190610a0d565b6101b0565b005b6100ce60048036038101906100c99190610a0d565b6102c2565b6040516100df959493929190610c94565b60405180910390f35b61010260048036038101906100fd9190610ae9565b6103a0565b005b61011e60048036038101906101199190610aa9565b610452565b005b61012861053b565b6040516101359190610bd9565b60405180910390f35b61014661055f565b6040516101539190610bd9565b60405180910390f35b61017660048036038101906101719190610a3a565b610585565b005b610192600480360381019061018d9190610a0d565b610681565b005b6101ae60048036038101906101a99190610aa9565b61076c565b005b6000600260008381526020019081526020016000209050818160040154101561020e576040517f08c379a000000000000000000000000000000000000000000000000000000000815260040161020590610c54565b60405180910390fd5b600160009054906101000a900473ffffffffffffffffffffffffffffffffffffffff1673ffffffffffffffffffffffffffffffffffffffff1663a9059cbb33846040518363ffffffff1660e01b815260040161026b929190610c2b565b602060405180830381600087803b15801561028557600080fd5b505af1158015610299573d6000803e3d6000fd5b505050506040513d601f19601f820116820180604052508101906102bd91906109e0565b505050565b60026020528060005260406000206000915090508060000154908060010180546102eb90610e74565b80601f016020809104026020016040519081016040528092919081815260200182805461031790610e74565b80156103645780601f1061033957610100808354040283529160200191610364565b820191906000526020600020905b81548152906001019060200180831161034757829003601f168201915b5050505050908060020160009054906101000a900473ffffffffffffffffffffffffffffffffffffffff16908060030154908060040154905085565b600060026000858152602001908152602001600020905060006002600085815260200190815260200160002090508282600401541015610415576040517f08c379a000000000000000000000000000000000000000000000000000000000815260040161040c90610c74565b60405180910390fd5b828260040160008282546104299190610db6565b92505081905550828160040160008282546104449190610d60565b925050819055505050505050565b60006002600084815260200190815260200160002090508181600401600082825461047d9190610d60565b92505081905550600160009054906101000a900473ffffffffffffffffffffffffffffffffffffffff1673ffffffffffffffffffffffffffffffffffffffff166323b872dd3330856040518463ffffffff1660e01b81526004016104e393929190610bf4565b602060405180830381600087803b1580156104fd57600080fd5b505af1158015610511573d6000803e3d6000fd5b505050506040513d601f19601f8201168201806040525081019061053591906109e0565b50505050565b60008054906101000a900473ffffffffffffffffffffffffffffffffffffffff1681565b600160009054906101000a900473ffffffffffffffffffffffffffffffffffffffff1681565b61058d61085e565b838160000181815250508281602001819052508181606001818152505033816040019073ffffffffffffffffffffffffffffffffffffffff16908173ffffffffffffffffffffffffffffffffffffffff1681525050806002600086815260200190815260200160002060008201518160000155602082015181600101908051906020019061061c9291906108a3565b5060408201518160020160006101000a81548173ffffffffffffffffffffffffffffffffffffffff021916908373ffffffffffffffffffffffffffffffffffffffff160217905550606082015181600301556080820151816004015590505050505050565b6000600260008381526020019081526020016000209050600160009054906101000a900473ffffffffffffffffffffffffffffffffffffffff1673ffffffffffffffffffffffffffffffffffffffff1663a9059cbb60008054906101000a900473ffffffffffffffffffffffffffffffffffffffff16846040518363ffffffff1660e01b8152600401610715929190610c2b565b602060405180830381600087803b15801561072f57600080fd5b505af1158015610743573d6000803e3d6000fd5b505050506040513d601f19601f8201168201806040525081019061076791906109e0565b505050565b60006002600084815260200190815260200160002060020160009054906101000a900473ffffffffffffffffffffffffffffffffffffffff169050600160009054906101000a900473ffffffffffffffffffffffffffffffffffffffff1673ffffffffffffffffffffffffffffffffffffffff166323b872dd3383856040518463ffffffff1660e01b815260040161080693929190610bf4565b602060405180830381600087803b15801561082057600080fd5b505af1158015610834573d6000803e3d6000fd5b505050506040513d601f19601f8201168201806040525081019061085891906109e0565b50505050565b6040518060a001604052806000815260200160608152602001600073ffffffffffffffffffffffffffffffffffffffff16815260200160008152602001600081525090565b8280546108af90610e74565b90600052602060002090601f0160209004810192826108d15760008555610918565b82601f106108ea57805160ff1916838001178555610918565b82800160010185558215610918579182015b828111156109175782518255916020019190600101906108fc565b5b5090506109259190610929565b5090565b5b8082111561094257600081600090555060010161092a565b5090565b600061095961095484610d13565b610cee565b90508281526020810184848401111561097557610974610f69565b5b610980848285610e32565b509392505050565b60008151905061099781610fdb565b92915050565b600082601f8301126109b2576109b1610f64565b5b81356109c2848260208601610946565b91505092915050565b6000813590506109da81610ff2565b92915050565b6000602082840312156109f6576109f5610f73565b5b6000610a0484828501610988565b91505092915050565b600060208284031215610a2357610a22610f73565b5b6000610a31848285016109cb565b91505092915050565b600080600060608486031215610a5357610a52610f73565b5b6000610a61868287016109cb565b935050602084013567ffffffffffffffff811115610a8257610a81610f6e565b5b610a8e8682870161099d565b9250506040610a9f868287016109cb565b9150509250925092565b60008060408385031215610ac057610abf610f73565b5b6000610ace858286016109cb565b9250506020610adf858286016109cb565b9150509250929050565b600080600060608486031215610b0257610b01610f73565b5b6000610b10868287016109cb565b9350506020610b21868287016109cb565b9250506040610b32868287016109cb565b9150509250925092565b610b4581610dea565b82525050565b6000610b5682610d44565b610b608185610d4f565b9350610b70818560208601610e41565b610b7981610f78565b840191505092915050565b6000610b91600f83610d4f565b9150610b9c82610f89565b602082019050919050565b6000610bb4600f83610d4f565b9150610bbf82610fb2565b602082019050919050565b610bd381610e28565b82525050565b6000602082019050610bee6000830184610b3c565b92915050565b6000606082019050610c096000830186610b3c565b610c166020830185610b3c565b610c236040830184610bca565b949350505050565b6000604082019050610c406000830185610b3c565b610c4d6020830184610bca565b9392505050565b60006020820190508181036000830152610c6d81610b84565b9050919050565b60006020820190508181036000830152610c8d81610ba7565b9050919050565b600060a082019050610ca96000830188610bca565b8181036020830152610cbb8187610b4b565b9050610cca6040830186610b3c565b610cd76060830185610bca565b610ce46080830184610bca565b9695505050505050565b6000610cf8610d09565b9050610d048282610ea6565b919050565b6000604051905090565b600067ffffffffffffffff821115610d2e57610d2d610f35565b5b610d3782610f78565b9050602081019050919050565b600081519050919050565b600082825260208201905092915050565b6000610d6b82610e28565b9150610d7683610e28565b9250827fffffffffffffffffffffffffffffffffffffffffffffffffffffffffffffffff03821115610dab57610daa610ed7565b5b828201905092915050565b6000610dc182610e28565b9150610dcc83610e28565b925082821015610ddf57610dde610ed7565b5b828203905092915050565b6000610df582610e08565b9050919050565b60008115159050919050565b600073ffffffffffffffffffffffffffffffffffffffff82169050919050565b6000819050919050565b82818337600083830152505050565b60005b83811015610e5f578082015181840152602081019050610e44565b83811115610e6e576000848401525b50505050565b60006002820490506001821680610e8c57607f821691505b60208210811415610ea057610e9f610f06565b5b50919050565b610eaf82610f78565b810181811067ffffffffffffffff82111715610ece57610ecd610f35565b5b80604052505050565b7f4e487b7100000000000000000000000000000000000000000000000000000000600052601160045260246000fd5b7f4e487b7100000000000000000000000000000000000000000000000000000000600052602260045260246000fd5b7f4e487b7100000000000000000000000000000000000000000000000000000000600052604160045260246000fd5b600080fd5b600080fd5b600080fd5b600080fd5b6000601f19601f8301169050919050565b7f696e2076616c696420616d6f756e740000000000000000000000000000000000600082015250565b7f496e2076616c696420416d6f756e740000000000000000000000000000000000600082015250565b610fe481610dfc565b8114610fef57600080fd5b50565b610ffb81610e28565b811461100657600080fd5b5056fea2646970667358221220e24a351ffb010a1127ca74fbb121339f8f97fc1606f1f616ab356eb452d0364364736f6c63430008070033",
					"opcodes": "PUSH1 0x80 PUSH1 0x40 MSTORE CALLVALUE DUP1 ISZERO PUSH3 0x11 JUMPI PUSH1 0x0 DUP1 REVERT JUMPDEST POP PUSH1 0x40 MLOAD PUSH3 0x11AA CODESIZE SUB DUP1 PUSH3 0x11AA DUP4 CODECOPY DUP2 DUP2 ADD PUSH1 0x40 MSTORE DUP2 ADD SWAP1 PUSH3 0x37 SWAP2 SWAP1 PUSH3 0xD6 JUMP JUMPDEST DUP1 PUSH1 0x1 PUSH1 0x0 PUSH2 0x100 EXP DUP2 SLOAD DUP2 PUSH20 0xFFFFFFFFFFFFFFFFFFFFFFFFFFFFFFFFFFFFFFFF MUL NOT AND SWAP1 DUP4 PUSH20 0xFFFFFFFFFFFFFFFFFFFFFFFFFFFFFFFFFFFFFFFF AND MUL OR SWAP1 SSTORE POP CALLER PUSH1 0x0 DUP1 PUSH2 0x100 EXP DUP2 SLOAD DUP2 PUSH20 0xFFFFFFFFFFFFFFFFFFFFFFFFFFFFFFFFFFFFFFFF MUL NOT AND SWAP1 DUP4 PUSH20 0xFFFFFFFFFFFFFFFFFFFFFFFFFFFFFFFFFFFFFFFF AND MUL OR SWAP1 SSTORE POP POP PUSH3 0x15B JUMP JUMPDEST PUSH1 0x0 DUP2 MLOAD SWAP1 POP PUSH3 0xD0 DUP2 PUSH3 0x141 JUMP JUMPDEST SWAP3 SWAP2 POP POP JUMP JUMPDEST PUSH1 0x0 PUSH1 0x20 DUP3 DUP5 SUB SLT ISZERO PUSH3 0xEF JUMPI PUSH3 0xEE PUSH3 0x13C JUMP JUMPDEST JUMPDEST PUSH1 0x0 PUSH3 0xFF DUP5 DUP3 DUP6 ADD PUSH3 0xBF JUMP JUMPDEST SWAP2 POP POP SWAP3 SWAP2 POP POP JUMP JUMPDEST PUSH1 0x0 PUSH3 0x115 DUP3 PUSH3 0x11C JUMP JUMPDEST SWAP1 POP SWAP2 SWAP1 POP JUMP JUMPDEST PUSH1 0x0 PUSH20 0xFFFFFFFFFFFFFFFFFFFFFFFFFFFFFFFFFFFFFFFF DUP3 AND SWAP1 POP SWAP2 SWAP1 POP JUMP JUMPDEST PUSH1 0x0 DUP1 REVERT JUMPDEST PUSH3 0x14C DUP2 PUSH3 0x108 JUMP JUMPDEST DUP2 EQ PUSH3 0x158 JUMPI PUSH1 0x0 DUP1 REVERT JUMPDEST POP JUMP JUMPDEST PUSH2 0x103F DUP1 PUSH3 0x16B PUSH1 0x0 CODECOPY PUSH1 0x0 RETURN INVALID PUSH1 0x80 PUSH1 0x40 MSTORE CALLVALUE DUP1 ISZERO PUSH2 0x10 JUMPI PUSH1 0x0 DUP1 REVERT JUMPDEST POP PUSH1 0x4 CALLDATASIZE LT PUSH2 0x93 JUMPI PUSH1 0x0 CALLDATALOAD PUSH1 0xE0 SHR DUP1 PUSH4 0x8DA5CB5B GT PUSH2 0x66 JUMPI DUP1 PUSH4 0x8DA5CB5B EQ PUSH2 0x120 JUMPI DUP1 PUSH4 0x9D76EA58 EQ PUSH2 0x13E JUMPI DUP1 PUSH4 0xA1F3AE22 EQ PUSH2 0x15C JUMPI DUP1 PUSH4 0xDFCDCB73 EQ PUSH2 0x178 JUMPI DUP1 PUSH4 0xE27858B1 EQ PUSH2 0x194 JUMPI PUSH2 0x93 JUMP JUMPDEST DUP1 PUSH4 0x562B9F7 EQ PUSH2 0x98 JUMPI DUP1 PUSH4 0x2929D121 EQ PUSH2 0xB4 JUMPI DUP1 PUSH4 0x3F3078DF EQ PUSH2 0xE8 JUMPI DUP1 PUSH4 0x81FD25C0 EQ PUSH2 0x104 JUMPI JUMPDEST PUSH1 0x0 DUP1 REVERT JUMPDEST PUSH2 0xB2 PUSH1 0x4 DUP1 CALLDATASIZE SUB DUP2 ADD SWAP1 PUSH2 0xAD SWAP2 SWAP1 PUSH2 0xA0D JUMP JUMPDEST PUSH2 0x1B0 JUMP JUMPDEST STOP JUMPDEST PUSH2 0xCE PUSH1 0x4 DUP1 CALLDATASIZE SUB DUP2 ADD SWAP1 PUSH2 0xC9 SWAP2 SWAP1 PUSH2 0xA0D JUMP JUMPDEST PUSH2 0x2C2 JUMP JUMPDEST PUSH1 0x40 MLOAD PUSH2 0xDF SWAP6 SWAP5 SWAP4 SWAP3 SWAP2 SWAP1 PUSH2 0xC94 JUMP JUMPDEST PUSH1 0x40 MLOAD DUP1 SWAP2 SUB SWAP1 RETURN JUMPDEST PUSH2 0x102 PUSH1 0x4 DUP1 CALLDATASIZE SUB DUP2 ADD SWAP1 PUSH2 0xFD SWAP2 SWAP1 PUSH2 0xAE9 JUMP JUMPDEST PUSH2 0x3A0 JUMP JUMPDEST STOP JUMPDEST PUSH2 0x11E PUSH1 0x4 DUP1 CALLDATASIZE SUB DUP2 ADD SWAP1 PUSH2 0x119 SWAP2 SWAP1 PUSH2 0xAA9 JUMP JUMPDEST PUSH2 0x452 JUMP JUMPDEST STOP JUMPDEST PUSH2 0x128 PUSH2 0x53B JUMP JUMPDEST PUSH1 0x40 MLOAD PUSH2 0x135 SWAP2 SWAP1 PUSH2 0xBD9 JUMP JUMPDEST PUSH1 0x40 MLOAD DUP1 SWAP2 SUB SWAP1 RETURN JUMPDEST PUSH2 0x146 PUSH2 0x55F JUMP JUMPDEST PUSH1 0x40 MLOAD PUSH2 0x153 SWAP2 SWAP1 PUSH2 0xBD9 JUMP JUMPDEST PUSH1 0x40 MLOAD DUP1 SWAP2 SUB SWAP1 RETURN JUMPDEST PUSH2 0x176 PUSH1 0x4 DUP1 CALLDATASIZE SUB DUP2 ADD SWAP1 PUSH2 0x171 SWAP2 SWAP1 PUSH2 0xA3A JUMP JUMPDEST PUSH2 0x585 JUMP JUMPDEST STOP JUMPDEST PUSH2 0x192 PUSH1 0x4 DUP1 CALLDATASIZE SUB DUP2 ADD SWAP1 PUSH2 0x18D SWAP2 SWAP1 PUSH2 0xA0D JUMP JUMPDEST PUSH2 0x681 JUMP JUMPDEST STOP JUMPDEST PUSH2 0x1AE PUSH1 0x4 DUP1 CALLDATASIZE SUB DUP2 ADD SWAP1 PUSH2 0x1A9 SWAP2 SWAP1 PUSH2 0xAA9 JUMP JUMPDEST PUSH2 0x76C JUMP JUMPDEST STOP JUMPDEST PUSH1 0x0 PUSH1 0x2 PUSH1 0x0 DUP4 DUP2 MSTORE PUSH1 0x20 ADD SWAP1 DUP2 MSTORE PUSH1 0x20 ADD PUSH1 0x0 KECCAK256 SWAP1 POP DUP2 DUP2 PUSH1 0x4 ADD SLOAD LT ISZERO PUSH2 0x20E JUMPI PUSH1 0x40 MLOAD PUSH32 0x8C379A000000000000000000000000000000000000000000000000000000000 DUP2 MSTORE PUSH1 0x4 ADD PUSH2 0x205 SWAP1 PUSH2 0xC54 JUMP JUMPDEST PUSH1 0x40 MLOAD DUP1 SWAP2 SUB SWAP1 REVERT JUMPDEST PUSH1 0x1 PUSH1 0x0 SWAP1 SLOAD SWAP1 PUSH2 0x100 EXP SWAP1 DIV PUSH20 0xFFFFFFFFFFFFFFFFFFFFFFFFFFFFFFFFFFFFFFFF AND PUSH20 0xFFFFFFFFFFFFFFFFFFFFFFFFFFFFFFFFFFFFFFFF AND PUSH4 0xA9059CBB CALLER DUP5 PUSH1 0x40 MLOAD DUP4 PUSH4 0xFFFFFFFF AND PUSH1 0xE0 SHL DUP2 MSTORE PUSH1 0x4 ADD PUSH2 0x26B SWAP3 SWAP2 SWAP1 PUSH2 0xC2B JUMP JUMPDEST PUSH1 0x20 PUSH1 0x40 MLOAD DUP1 DUP4 SUB DUP2 PUSH1 0x0 DUP8 DUP1 EXTCODESIZE ISZERO DUP1 ISZERO PUSH2 0x285 JUMPI PUSH1 0x0 DUP1 REVERT JUMPDEST POP GAS CALL ISZERO DUP1 ISZERO PUSH2 0x299 JUMPI RETURNDATASIZE PUSH1 0x0 DUP1 RETURNDATACOPY RETURNDATASIZE PUSH1 0x0 REVERT JUMPDEST POP POP POP POP PUSH1 0x40 MLOAD RETURNDATASIZE PUSH1 0x1F NOT PUSH1 0x1F DUP3 ADD AND DUP3 ADD DUP1 PUSH1 0x40 MSTORE POP DUP2 ADD SWAP1 PUSH2 0x2BD SWAP2 SWAP1 PUSH2 0x9E0 JUMP JUMPDEST POP POP POP JUMP JUMPDEST PUSH1 0x2 PUSH1 0x20 MSTORE DUP1 PUSH1 0x0 MSTORE PUSH1 0x40 PUSH1 0x0 KECCAK256 PUSH1 0x0 SWAP2 POP SWAP1 POP DUP1 PUSH1 0x0 ADD SLOAD SWAP1 DUP1 PUSH1 0x1 ADD DUP1 SLOAD PUSH2 0x2EB SWAP1 PUSH2 0xE74 JUMP JUMPDEST DUP1 PUSH1 0x1F ADD PUSH1 0x20 DUP1 SWAP2 DIV MUL PUSH1 0x20 ADD PUSH1 0x40 MLOAD SWAP1 DUP2 ADD PUSH1 0x40 MSTORE DUP1 SWAP3 SWAP2 SWAP1 DUP2 DUP2 MSTORE PUSH1 0x20 ADD DUP3 DUP1 SLOAD PUSH2 0x317 SWAP1 PUSH2 0xE74 JUMP JUMPDEST DUP1 ISZERO PUSH2 0x364 JUMPI DUP1 PUSH1 0x1F LT PUSH2 0x339 JUMPI PUSH2 0x100 DUP1 DUP4 SLOAD DIV MUL DUP4 MSTORE SWAP2 PUSH1 0x20 ADD SWAP2 PUSH2 0x364 JUMP JUMPDEST DUP3 ADD SWAP2 SWAP1 PUSH1 0x0 MSTORE PUSH1 0x20 PUSH1 0x0 KECCAK256 SWAP1 JUMPDEST DUP2 SLOAD DUP2 MSTORE SWAP1 PUSH1 0x1 ADD SWAP1 PUSH1 0x20 ADD DUP1 DUP4 GT PUSH2 0x347 JUMPI DUP3 SWAP1 SUB PUSH1 0x1F AND DUP3 ADD SWAP2 JUMPDEST POP POP POP POP POP SWAP1 DUP1 PUSH1 0x2 ADD PUSH1 0x0 SWAP1 SLOAD SWAP1 PUSH2 0x100 EXP SWAP1 DIV PUSH20 0xFFFFFFFFFFFFFFFFFFFFFFFFFFFFFFFFFFFFFFFF AND SWAP1 DUP1 PUSH1 0x3 ADD SLOAD SWAP1 DUP1 PUSH1 0x4 ADD SLOAD SWAP1 POP DUP6 JUMP JUMPDEST PUSH1 0x0 PUSH1 0x2 PUSH1 0x0 DUP6 DUP2 MSTORE PUSH1 0x20 ADD SWAP1 DUP2 MSTORE PUSH1 0x20 ADD PUSH1 0x0 KECCAK256 SWAP1 POP PUSH1 0x0 PUSH1 0x2 PUSH1 0x0 DUP6 DUP2 MSTORE PUSH1 0x20 ADD SWAP1 DUP2 MSTORE PUSH1 0x20 ADD PUSH1 0x0 KECCAK256 SWAP1 POP DUP3 DUP3 PUSH1 0x4 ADD SLOAD LT ISZERO PUSH2 0x415 JUMPI PUSH1 0x40 MLOAD PUSH32 0x8C379A000000000000000000000000000000000000000000000000000000000 DUP2 MSTORE PUSH1 0x4 ADD PUSH2 0x40C SWAP1 PUSH2 0xC74 JUMP JUMPDEST PUSH1 0x40 MLOAD DUP1 SWAP2 SUB SWAP1 REVERT JUMPDEST DUP3 DUP3 PUSH1 0x4 ADD PUSH1 0x0 DUP3 DUP3 SLOAD PUSH2 0x429 SWAP2 SWAP1 PUSH2 0xDB6 JUMP JUMPDEST SWAP3 POP POP DUP2 SWAP1 SSTORE POP DUP3 DUP2 PUSH1 0x4 ADD PUSH1 0x0 DUP3 DUP3 SLOAD PUSH2 0x444 SWAP2 SWAP1 PUSH2 0xD60 JUMP JUMPDEST SWAP3 POP POP DUP2 SWAP1 SSTORE POP POP POP POP POP POP JUMP JUMPDEST PUSH1 0x0 PUSH1 0x2 PUSH1 0x0 DUP5 DUP2 MSTORE PUSH1 0x20 ADD SWAP1 DUP2 MSTORE PUSH1 0x20 ADD PUSH1 0x0 KECCAK256 SWAP1 POP DUP2 DUP2 PUSH1 0x4 ADD PUSH1 0x0 DUP3 DUP3 SLOAD PUSH2 0x47D SWAP2 SWAP1 PUSH2 0xD60 JUMP JUMPDEST SWAP3 POP POP DUP2 SWAP1 SSTORE POP PUSH1 0x1 PUSH1 0x0 SWAP1 SLOAD SWAP1 PUSH2 0x100 EXP SWAP1 DIV PUSH20 0xFFFFFFFFFFFFFFFFFFFFFFFFFFFFFFFFFFFFFFFF AND PUSH20 0xFFFFFFFFFFFFFFFFFFFFFFFFFFFFFFFFFFFFFFFF AND PUSH4 0x23B872DD CALLER ADDRESS DUP6 PUSH1 0x40 MLOAD DUP5 PUSH4 0xFFFFFFFF AND PUSH1 0xE0 SHL DUP2 MSTORE PUSH1 0x4 ADD PUSH2 0x4E3 SWAP4 SWAP3 SWAP2 SWAP1 PUSH2 0xBF4 JUMP JUMPDEST PUSH1 0x20 PUSH1 0x40 MLOAD DUP1 DUP4 SUB DUP2 PUSH1 0x0 DUP8 DUP1 EXTCODESIZE ISZERO DUP1 ISZERO PUSH2 0x4FD JUMPI PUSH1 0x0 DUP1 REVERT JUMPDEST POP GAS CALL ISZERO DUP1 ISZERO PUSH2 0x511 JUMPI RETURNDATASIZE PUSH1 0x0 DUP1 RETURNDATACOPY RETURNDATASIZE PUSH1 0x0 REVERT JUMPDEST POP POP POP POP PUSH1 0x40 MLOAD RETURNDATASIZE PUSH1 0x1F NOT PUSH1 0x1F DUP3 ADD AND DUP3 ADD DUP1 PUSH1 0x40 MSTORE POP DUP2 ADD SWAP1 PUSH2 0x535 SWAP2 SWAP1 PUSH2 0x9E0 JUMP JUMPDEST POP POP POP POP JUMP JUMPDEST PUSH1 0x0 DUP1 SLOAD SWAP1 PUSH2 0x100 EXP SWAP1 DIV PUSH20 0xFFFFFFFFFFFFFFFFFFFFFFFFFFFFFFFFFFFFFFFF AND DUP2 JUMP JUMPDEST PUSH1 0x1 PUSH1 0x0 SWAP1 SLOAD SWAP1 PUSH2 0x100 EXP SWAP1 DIV PUSH20 0xFFFFFFFFFFFFFFFFFFFFFFFFFFFFFFFFFFFFFFFF AND DUP2 JUMP JUMPDEST PUSH2 0x58D PUSH2 0x85E JUMP JUMPDEST DUP4 DUP2 PUSH1 0x0 ADD DUP2 DUP2 MSTORE POP POP DUP3 DUP2 PUSH1 0x20 ADD DUP2 SWAP1 MSTORE POP DUP2 DUP2 PUSH1 0x60 ADD DUP2 DUP2 MSTORE POP POP CALLER DUP2 PUSH1 0x40 ADD SWAP1 PUSH20 0xFFFFFFFFFFFFFFFFFFFFFFFFFFFFFFFFFFFFFFFF AND SWAP1 DUP2 PUSH20 0xFFFFFFFFFFFFFFFFFFFFFFFFFFFFFFFFFFFFFFFF AND DUP2 MSTORE POP POP DUP1 PUSH1 0x2 PUSH1 0x0 DUP7 DUP2 MSTORE PUSH1 0x20 ADD SWAP1 DUP2 MSTORE PUSH1 0x20 ADD PUSH1 0x0 KECCAK256 PUSH1 0x0 DUP3 ADD MLOAD DUP2 PUSH1 0x0 ADD SSTORE PUSH1 0x20 DUP3 ADD MLOAD DUP2 PUSH1 0x1 ADD SWAP1 DUP1 MLOAD SWAP1 PUSH1 0x20 ADD SWAP1 PUSH2 0x61C SWAP3 SWAP2 SWAP1 PUSH2 0x8A3 JUMP JUMPDEST POP PUSH1 0x40 DUP3 ADD MLOAD DUP2 PUSH1 0x2 ADD PUSH1 0x0 PUSH2 0x100 EXP DUP2 SLOAD DUP2 PUSH20 0xFFFFFFFFFFFFFFFFFFFFFFFFFFFFFFFFFFFFFFFF MUL NOT AND SWAP1 DUP4 PUSH20 0xFFFFFFFFFFFFFFFFFFFFFFFFFFFFFFFFFFFFFFFF AND MUL OR SWAP1 SSTORE POP PUSH1 0x60 DUP3 ADD MLOAD DUP2 PUSH1 0x3 ADD SSTORE PUSH1 0x80 DUP3 ADD MLOAD DUP2 PUSH1 0x4 ADD SSTORE SWAP1 POP POP POP POP POP POP JUMP JUMPDEST PUSH1 0x0 PUSH1 0x2 PUSH1 0x0 DUP4 DUP2 MSTORE PUSH1 0x20 ADD SWAP1 DUP2 MSTORE PUSH1 0x20 ADD PUSH1 0x0 KECCAK256 SWAP1 POP PUSH1 0x1 PUSH1 0x0 SWAP1 SLOAD SWAP1 PUSH2 0x100 EXP SWAP1 DIV PUSH20 0xFFFFFFFFFFFFFFFFFFFFFFFFFFFFFFFFFFFFFFFF AND PUSH20 0xFFFFFFFFFFFFFFFFFFFFFFFFFFFFFFFFFFFFFFFF AND PUSH4 0xA9059CBB PUSH1 0x0 DUP1 SLOAD SWAP1 PUSH2 0x100 EXP SWAP1 DIV PUSH20 0xFFFFFFFFFFFFFFFFFFFFFFFFFFFFFFFFFFFFFFFF AND DUP5 PUSH1 0x40 MLOAD DUP4 PUSH4 0xFFFFFFFF AND PUSH1 0xE0 SHL DUP2 MSTORE PUSH1 0x4 ADD PUSH2 0x715 SWAP3 SWAP2 SWAP1 PUSH2 0xC2B JUMP JUMPDEST PUSH1 0x20 PUSH1 0x40 MLOAD DUP1 DUP4 SUB DUP2 PUSH1 0x0 DUP8 DUP1 EXTCODESIZE ISZERO DUP1 ISZERO PUSH2 0x72F JUMPI PUSH1 0x0 DUP1 REVERT JUMPDEST POP GAS CALL ISZERO DUP1 ISZERO PUSH2 0x743 JUMPI RETURNDATASIZE PUSH1 0x0 DUP1 RETURNDATACOPY RETURNDATASIZE PUSH1 0x0 REVERT JUMPDEST POP POP POP POP PUSH1 0x40 MLOAD RETURNDATASIZE PUSH1 0x1F NOT PUSH1 0x1F DUP3 ADD AND DUP3 ADD DUP1 PUSH1 0x40 MSTORE POP DUP2 ADD SWAP1 PUSH2 0x767 SWAP2 SWAP1 PUSH2 0x9E0 JUMP JUMPDEST POP POP POP JUMP JUMPDEST PUSH1 0x0 PUSH1 0x2 PUSH1 0x0 DUP5 DUP2 MSTORE PUSH1 0x20 ADD SWAP1 DUP2 MSTORE PUSH1 0x20 ADD PUSH1 0x0 KECCAK256 PUSH1 0x2 ADD PUSH1 0x0 SWAP1 SLOAD SWAP1 PUSH2 0x100 EXP SWAP1 DIV PUSH20 0xFFFFFFFFFFFFFFFFFFFFFFFFFFFFFFFFFFFFFFFF AND SWAP1 POP PUSH1 0x1 PUSH1 0x0 SWAP1 SLOAD SWAP1 PUSH2 0x100 EXP SWAP1 DIV PUSH20 0xFFFFFFFFFFFFFFFFFFFFFFFFFFFFFFFFFFFFFFFF AND PUSH20 0xFFFFFFFFFFFFFFFFFFFFFFFFFFFFFFFFFFFFFFFF AND PUSH4 0x23B872DD CALLER DUP4 DUP6 PUSH1 0x40 MLOAD DUP5 PUSH4 0xFFFFFFFF AND PUSH1 0xE0 SHL DUP2 MSTORE PUSH1 0x4 ADD PUSH2 0x806 SWAP4 SWAP3 SWAP2 SWAP1 PUSH2 0xBF4 JUMP JUMPDEST PUSH1 0x20 PUSH1 0x40 MLOAD DUP1 DUP4 SUB DUP2 PUSH1 0x0 DUP8 DUP1 EXTCODESIZE ISZERO DUP1 ISZERO PUSH2 0x820 JUMPI PUSH1 0x0 DUP1 REVERT JUMPDEST POP GAS CALL ISZERO DUP1 ISZERO PUSH2 0x834 JUMPI RETURNDATASIZE PUSH1 0x0 DUP1 RETURNDATACOPY RETURNDATASIZE PUSH1 0x0 REVERT JUMPDEST POP POP POP POP PUSH1 0x40 MLOAD RETURNDATASIZE PUSH1 0x1F NOT PUSH1 0x1F DUP3 ADD AND DUP3 ADD DUP1 PUSH1 0x40 MSTORE POP DUP2 ADD SWAP1 PUSH2 0x858 SWAP2 SWAP1 PUSH2 0x9E0 JUMP JUMPDEST POP POP POP POP JUMP JUMPDEST PUSH1 0x40 MLOAD DUP1 PUSH1 0xA0 ADD PUSH1 0x40 MSTORE DUP1 PUSH1 0x0 DUP2 MSTORE PUSH1 0x20 ADD PUSH1 0x60 DUP2 MSTORE PUSH1 0x20 ADD PUSH1 0x0 PUSH20 0xFFFFFFFFFFFFFFFFFFFFFFFFFFFFFFFFFFFFFFFF AND DUP2 MSTORE PUSH1 0x20 ADD PUSH1 0x0 DUP2 MSTORE PUSH1 0x20 ADD PUSH1 0x0 DUP2 MSTORE POP SWAP1 JUMP JUMPDEST DUP3 DUP1 SLOAD PUSH2 0x8AF SWAP1 PUSH2 0xE74 JUMP JUMPDEST SWAP1 PUSH1 0x0 MSTORE PUSH1 0x20 PUSH1 0x0 KECCAK256 SWAP1 PUSH1 0x1F ADD PUSH1 0x20 SWAP1 DIV DUP2 ADD SWAP3 DUP3 PUSH2 0x8D1 JUMPI PUSH1 0x0 DUP6 SSTORE PUSH2 0x918 JUMP JUMPDEST DUP3 PUSH1 0x1F LT PUSH2 0x8EA JUMPI DUP1 MLOAD PUSH1 0xFF NOT AND DUP4 DUP1 ADD OR DUP6 SSTORE PUSH2 0x918 JUMP JUMPDEST DUP3 DUP1 ADD PUSH1 0x1 ADD DUP6 SSTORE DUP3 ISZERO PUSH2 0x918 JUMPI SWAP2 DUP3 ADD JUMPDEST DUP3 DUP2 GT ISZERO PUSH2 0x917 JUMPI DUP3 MLOAD DUP3 SSTORE SWAP2 PUSH1 0x20 ADD SWAP2 SWAP1 PUSH1 0x1 ADD SWAP1 PUSH2 0x8FC JUMP JUMPDEST JUMPDEST POP SWAP1 POP PUSH2 0x925 SWAP2 SWAP1 PUSH2 0x929 JUMP JUMPDEST POP SWAP1 JUMP JUMPDEST JUMPDEST DUP1 DUP3 GT ISZERO PUSH2 0x942 JUMPI PUSH1 0x0 DUP2 PUSH1 0x0 SWAP1 SSTORE POP PUSH1 0x1 ADD PUSH2 0x92A JUMP JUMPDEST POP SWAP1 JUMP JUMPDEST PUSH1 0x0 PUSH2 0x959 PUSH2 0x954 DUP5 PUSH2 0xD13 JUMP JUMPDEST PUSH2 0xCEE JUMP JUMPDEST SWAP1 POP DUP3 DUP2 MSTORE PUSH1 0x20 DUP2 ADD DUP5 DUP5 DUP5 ADD GT ISZERO PUSH2 0x975 JUMPI PUSH2 0x974 PUSH2 0xF69 JUMP JUMPDEST JUMPDEST PUSH2 0x980 DUP5 DUP3 DUP6 PUSH2 0xE32 JUMP JUMPDEST POP SWAP4 SWAP3 POP POP POP JUMP JUMPDEST PUSH1 0x0 DUP2 MLOAD SWAP1 POP PUSH2 0x997 DUP2 PUSH2 0xFDB JUMP JUMPDEST SWAP3 SWAP2 POP POP JUMP JUMPDEST PUSH1 0x0 DUP3 PUSH1 0x1F DUP4 ADD SLT PUSH2 0x9B2 JUMPI PUSH2 0x9B1 PUSH2 0xF64 JUMP JUMPDEST JUMPDEST DUP2 CALLDATALOAD PUSH2 0x9C2 DUP5 DUP3 PUSH1 0x20 DUP7 ADD PUSH2 0x946 JUMP JUMPDEST SWAP2 POP POP SWAP3 SWAP2 POP POP JUMP JUMPDEST PUSH1 0x0 DUP2 CALLDATALOAD SWAP1 POP PUSH2 0x9DA DUP2 PUSH2 0xFF2 JUMP JUMPDEST SWAP3 SWAP2 POP POP JUMP JUMPDEST PUSH1 0x0 PUSH1 0x20 DUP3 DUP5 SUB SLT ISZERO PUSH2 0x9F6 JUMPI PUSH2 0x9F5 PUSH2 0xF73 JUMP JUMPDEST JUMPDEST PUSH1 0x0 PUSH2 0xA04 DUP5 DUP3 DUP6 ADD PUSH2 0x988 JUMP JUMPDEST SWAP2 POP POP SWAP3 SWAP2 POP POP JUMP JUMPDEST PUSH1 0x0 PUSH1 0x20 DUP3 DUP5 SUB SLT ISZERO PUSH2 0xA23 JUMPI PUSH2 0xA22 PUSH2 0xF73 JUMP JUMPDEST JUMPDEST PUSH1 0x0 PUSH2 0xA31 DUP5 DUP3 DUP6 ADD PUSH2 0x9CB JUMP JUMPDEST SWAP2 POP POP SWAP3 SWAP2 POP POP JUMP JUMPDEST PUSH1 0x0 DUP1 PUSH1 0x0 PUSH1 0x60 DUP5 DUP7 SUB SLT ISZERO PUSH2 0xA53 JUMPI PUSH2 0xA52 PUSH2 0xF73 JUMP JUMPDEST JUMPDEST PUSH1 0x0 PUSH2 0xA61 DUP7 DUP3 DUP8 ADD PUSH2 0x9CB JUMP JUMPDEST SWAP4 POP POP PUSH1 0x20 DUP5 ADD CALLDATALOAD PUSH8 0xFFFFFFFFFFFFFFFF DUP2 GT ISZERO PUSH2 0xA82 JUMPI PUSH2 0xA81 PUSH2 0xF6E JUMP JUMPDEST JUMPDEST PUSH2 0xA8E DUP7 DUP3 DUP8 ADD PUSH2 0x99D JUMP JUMPDEST SWAP3 POP POP PUSH1 0x40 PUSH2 0xA9F DUP7 DUP3 DUP8 ADD PUSH2 0x9CB JUMP JUMPDEST SWAP2 POP POP SWAP3 POP SWAP3 POP SWAP3 JUMP JUMPDEST PUSH1 0x0 DUP1 PUSH1 0x40 DUP4 DUP6 SUB SLT ISZERO PUSH2 0xAC0 JUMPI PUSH2 0xABF PUSH2 0xF73 JUMP JUMPDEST JUMPDEST PUSH1 0x0 PUSH2 0xACE DUP6 DUP3 DUP7 ADD PUSH2 0x9CB JUMP JUMPDEST SWAP3 POP POP PUSH1 0x20 PUSH2 0xADF DUP6 DUP3 DUP7 ADD PUSH2 0x9CB JUMP JUMPDEST SWAP2 POP POP SWAP3 POP SWAP3 SWAP1 POP JUMP JUMPDEST PUSH1 0x0 DUP1 PUSH1 0x0 PUSH1 0x60 DUP5 DUP7 SUB SLT ISZERO PUSH2 0xB02 JUMPI PUSH2 0xB01 PUSH2 0xF73 JUMP JUMPDEST JUMPDEST PUSH1 0x0 PUSH2 0xB10 DUP7 DUP3 DUP8 ADD PUSH2 0x9CB JUMP JUMPDEST SWAP4 POP POP PUSH1 0x20 PUSH2 0xB21 DUP7 DUP3 DUP8 ADD PUSH2 0x9CB JUMP JUMPDEST SWAP3 POP POP PUSH1 0x40 PUSH2 0xB32 DUP7 DUP3 DUP8 ADD PUSH2 0x9CB JUMP JUMPDEST SWAP2 POP POP SWAP3 POP SWAP3 POP SWAP3 JUMP JUMPDEST PUSH2 0xB45 DUP2 PUSH2 0xDEA JUMP JUMPDEST DUP3 MSTORE POP POP JUMP JUMPDEST PUSH1 0x0 PUSH2 0xB56 DUP3 PUSH2 0xD44 JUMP JUMPDEST PUSH2 0xB60 DUP2 DUP6 PUSH2 0xD4F JUMP JUMPDEST SWAP4 POP PUSH2 0xB70 DUP2 DUP6 PUSH1 0x20 DUP7 ADD PUSH2 0xE41 JUMP JUMPDEST PUSH2 0xB79 DUP2 PUSH2 0xF78 JUMP JUMPDEST DUP5 ADD SWAP2 POP POP SWAP3 SWAP2 POP POP JUMP JUMPDEST PUSH1 0x0 PUSH2 0xB91 PUSH1 0xF DUP4 PUSH2 0xD4F JUMP JUMPDEST SWAP2 POP PUSH2 0xB9C DUP3 PUSH2 0xF89 JUMP JUMPDEST PUSH1 0x20 DUP3 ADD SWAP1 POP SWAP2 SWAP1 POP JUMP JUMPDEST PUSH1 0x0 PUSH2 0xBB4 PUSH1 0xF DUP4 PUSH2 0xD4F JUMP JUMPDEST SWAP2 POP PUSH2 0xBBF DUP3 PUSH2 0xFB2 JUMP JUMPDEST PUSH1 0x20 DUP3 ADD SWAP1 POP SWAP2 SWAP1 POP JUMP JUMPDEST PUSH2 0xBD3 DUP2 PUSH2 0xE28 JUMP JUMPDEST DUP3 MSTORE POP POP JUMP JUMPDEST PUSH1 0x0 PUSH1 0x20 DUP3 ADD SWAP1 POP PUSH2 0xBEE PUSH1 0x0 DUP4 ADD DUP5 PUSH2 0xB3C JUMP JUMPDEST SWAP3 SWAP2 POP POP JUMP JUMPDEST PUSH1 0x0 PUSH1 0x60 DUP3 ADD SWAP1 POP PUSH2 0xC09 PUSH1 0x0 DUP4 ADD DUP7 PUSH2 0xB3C JUMP JUMPDEST PUSH2 0xC16 PUSH1 0x20 DUP4 ADD DUP6 PUSH2 0xB3C JUMP JUMPDEST PUSH2 0xC23 PUSH1 0x40 DUP4 ADD DUP5 PUSH2 0xBCA JUMP JUMPDEST SWAP5 SWAP4 POP POP POP POP JUMP JUMPDEST PUSH1 0x0 PUSH1 0x40 DUP3 ADD SWAP1 POP PUSH2 0xC40 PUSH1 0x0 DUP4 ADD DUP6 PUSH2 0xB3C JUMP JUMPDEST PUSH2 0xC4D PUSH1 0x20 DUP4 ADD DUP5 PUSH2 0xBCA JUMP JUMPDEST SWAP4 SWAP3 POP POP POP JUMP JUMPDEST PUSH1 0x0 PUSH1 0x20 DUP3 ADD SWAP1 POP DUP2 DUP2 SUB PUSH1 0x0 DUP4 ADD MSTORE PUSH2 0xC6D DUP2 PUSH2 0xB84 JUMP JUMPDEST SWAP1 POP SWAP2 SWAP1 POP JUMP JUMPDEST PUSH1 0x0 PUSH1 0x20 DUP3 ADD SWAP1 POP DUP2 DUP2 SUB PUSH1 0x0 DUP4 ADD MSTORE PUSH2 0xC8D DUP2 PUSH2 0xBA7 JUMP JUMPDEST SWAP1 POP SWAP2 SWAP1 POP JUMP JUMPDEST PUSH1 0x0 PUSH1 0xA0 DUP3 ADD SWAP1 POP PUSH2 0xCA9 PUSH1 0x0 DUP4 ADD DUP9 PUSH2 0xBCA JUMP JUMPDEST DUP2 DUP2 SUB PUSH1 0x20 DUP4 ADD MSTORE PUSH2 0xCBB DUP2 DUP8 PUSH2 0xB4B JUMP JUMPDEST SWAP1 POP PUSH2 0xCCA PUSH1 0x40 DUP4 ADD DUP7 PUSH2 0xB3C JUMP JUMPDEST PUSH2 0xCD7 PUSH1 0x60 DUP4 ADD DUP6 PUSH2 0xBCA JUMP JUMPDEST PUSH2 0xCE4 PUSH1 0x80 DUP4 ADD DUP5 PUSH2 0xBCA JUMP JUMPDEST SWAP7 SWAP6 POP POP POP POP POP POP JUMP JUMPDEST PUSH1 0x0 PUSH2 0xCF8 PUSH2 0xD09 JUMP JUMPDEST SWAP1 POP PUSH2 0xD04 DUP3 DUP3 PUSH2 0xEA6 JUMP JUMPDEST SWAP2 SWAP1 POP JUMP JUMPDEST PUSH1 0x0 PUSH1 0x40 MLOAD SWAP1 POP SWAP1 JUMP JUMPDEST PUSH1 0x0 PUSH8 0xFFFFFFFFFFFFFFFF DUP3 GT ISZERO PUSH2 0xD2E JUMPI PUSH2 0xD2D PUSH2 0xF35 JUMP JUMPDEST JUMPDEST PUSH2 0xD37 DUP3 PUSH2 0xF78 JUMP JUMPDEST SWAP1 POP PUSH1 0x20 DUP2 ADD SWAP1 POP SWAP2 SWAP1 POP JUMP JUMPDEST PUSH1 0x0 DUP2 MLOAD SWAP1 POP SWAP2 SWAP1 POP JUMP JUMPDEST PUSH1 0x0 DUP3 DUP3 MSTORE PUSH1 0x20 DUP3 ADD SWAP1 POP SWAP3 SWAP2 POP POP JUMP JUMPDEST PUSH1 0x0 PUSH2 0xD6B DUP3 PUSH2 0xE28 JUMP JUMPDEST SWAP2 POP PUSH2 0xD76 DUP4 PUSH2 0xE28 JUMP JUMPDEST SWAP3 POP DUP3 PUSH32 0xFFFFFFFFFFFFFFFFFFFFFFFFFFFFFFFFFFFFFFFFFFFFFFFFFFFFFFFFFFFFFFFF SUB DUP3 GT ISZERO PUSH2 0xDAB JUMPI PUSH2 0xDAA PUSH2 0xED7 JUMP JUMPDEST JUMPDEST DUP3 DUP3 ADD SWAP1 POP SWAP3 SWAP2 POP POP JUMP JUMPDEST PUSH1 0x0 PUSH2 0xDC1 DUP3 PUSH2 0xE28 JUMP JUMPDEST SWAP2 POP PUSH2 0xDCC DUP4 PUSH2 0xE28 JUMP JUMPDEST SWAP3 POP DUP3 DUP3 LT ISZERO PUSH2 0xDDF JUMPI PUSH2 0xDDE PUSH2 0xED7 JUMP JUMPDEST JUMPDEST DUP3 DUP3 SUB SWAP1 POP SWAP3 SWAP2 POP POP JUMP JUMPDEST PUSH1 0x0 PUSH2 0xDF5 DUP3 PUSH2 0xE08 JUMP JUMPDEST SWAP1 POP SWAP2 SWAP1 POP JUMP JUMPDEST PUSH1 0x0 DUP2 ISZERO ISZERO SWAP1 POP SWAP2 SWAP1 POP JUMP JUMPDEST PUSH1 0x0 PUSH20 0xFFFFFFFFFFFFFFFFFFFFFFFFFFFFFFFFFFFFFFFF DUP3 AND SWAP1 POP SWAP2 SWAP1 POP JUMP JUMPDEST PUSH1 0x0 DUP2 SWAP1 POP SWAP2 SWAP1 POP JUMP JUMPDEST DUP3 DUP2 DUP4 CALLDATACOPY PUSH1 0x0 DUP4 DUP4 ADD MSTORE POP POP POP JUMP JUMPDEST PUSH1 0x0 JUMPDEST DUP4 DUP2 LT ISZERO PUSH2 0xE5F JUMPI DUP1 DUP3 ADD MLOAD DUP2 DUP5 ADD MSTORE PUSH1 0x20 DUP2 ADD SWAP1 POP PUSH2 0xE44 JUMP JUMPDEST DUP4 DUP2 GT ISZERO PUSH2 0xE6E JUMPI PUSH1 0x0 DUP5 DUP5 ADD MSTORE JUMPDEST POP POP POP POP JUMP JUMPDEST PUSH1 0x0 PUSH1 0x2 DUP3 DIV SWAP1 POP PUSH1 0x1 DUP3 AND DUP1 PUSH2 0xE8C JUMPI PUSH1 0x7F DUP3 AND SWAP2 POP JUMPDEST PUSH1 0x20 DUP3 LT DUP2 EQ ISZERO PUSH2 0xEA0 JUMPI PUSH2 0xE9F PUSH2 0xF06 JUMP JUMPDEST JUMPDEST POP SWAP2 SWAP1 POP JUMP JUMPDEST PUSH2 0xEAF DUP3 PUSH2 0xF78 JUMP JUMPDEST DUP2 ADD DUP2 DUP2 LT PUSH8 0xFFFFFFFFFFFFFFFF DUP3 GT OR ISZERO PUSH2 0xECE JUMPI PUSH2 0xECD PUSH2 0xF35 JUMP JUMPDEST JUMPDEST DUP1 PUSH1 0x40 MSTORE POP POP POP JUMP JUMPDEST PUSH32 0x4E487B7100000000000000000000000000000000000000000000000000000000 PUSH1 0x0 MSTORE PUSH1 0x11 PUSH1 0x4 MSTORE PUSH1 0x24 PUSH1 0x0 REVERT JUMPDEST PUSH32 0x4E487B7100000000000000000000000000000000000000000000000000000000 PUSH1 0x0 MSTORE PUSH1 0x22 PUSH1 0x4 MSTORE PUSH1 0x24 PUSH1 0x0 REVERT JUMPDEST PUSH32 0x4E487B7100000000000000000000000000000000000000000000000000000000 PUSH1 0x0 MSTORE PUSH1 0x41 PUSH1 0x4 MSTORE PUSH1 0x24 PUSH1 0x0 REVERT JUMPDEST PUSH1 0x0 DUP1 REVERT JUMPDEST PUSH1 0x0 DUP1 REVERT JUMPDEST PUSH1 0x0 DUP1 REVERT JUMPDEST PUSH1 0x0 DUP1 REVERT JUMPDEST PUSH1 0x0 PUSH1 0x1F NOT PUSH1 0x1F DUP4 ADD AND SWAP1 POP SWAP2 SWAP1 POP JUMP JUMPDEST PUSH32 0x696E2076616C696420616D6F756E740000000000000000000000000000000000 PUSH1 0x0 DUP3 ADD MSTORE POP JUMP JUMPDEST PUSH32 0x496E2076616C696420416D6F756E740000000000000000000000000000000000 PUSH1 0x0 DUP3 ADD MSTORE POP JUMP JUMPDEST PUSH2 0xFE4 DUP2 PUSH2 0xDFC JUMP JUMPDEST DUP2 EQ PUSH2 0xFEF JUMPI PUSH1 0x0 DUP1 REVERT JUMPDEST POP JUMP JUMPDEST PUSH2 0xFFB DUP2 PUSH2 0xE28 JUMP JUMPDEST DUP2 EQ PUSH2 0x1006 JUMPI PUSH1 0x0 DUP1 REVERT JUMPDEST POP JUMP INVALID LOG2 PUSH5 0x6970667358 0x22 SLT KECCAK256 0xE2 0x4A CALLDATALOAD 0x1F 0xFB ADD EXP GT 0x27 0xCA PUSH21 0xFBB121339F8F97FC1606F1F616AB356EB452D03643 PUSH5 0x736F6C6343 STOP ADDMOD SMOD STOP CALLER "
				},
				"gasEstimates": {
					"creation": {
						"codeDepositCost": "831800",
						"executionCost": "infinite",
						"totalCost": "infinite"
					},
					"external": {
						"clientDeposit(uint256,uint256)": "infinite",
						"clientRegistration(uint256,string,uint256)": "infinite",
						"emergencyWithDraw(uint256)": "infinite",
						"owner()": "2511",
						"sendAmount(uint256,uint256,uint256)": "infinite",
						"sendingAmount(uint256,uint256)": "infinite",
						"tokenAddress()": "2536",
						"userRegistration(uint256)": "infinite",
						"withdrawAmount(uint256)": "infinite"
					}
				},
				"methodIdentifiers": {
					"clientDeposit(uint256,uint256)": "81fd25c0",
					"clientRegistration(uint256,string,uint256)": "a1f3ae22",
					"emergencyWithDraw(uint256)": "dfcdcb73",
					"owner()": "8da5cb5b",
					"sendAmount(uint256,uint256,uint256)": "3f3078df",
					"sendingAmount(uint256,uint256)": "e27858b1",
					"tokenAddress()": "9d76ea58",
					"userRegistration(uint256)": "2929d121",
					"withdrawAmount(uint256)": "0562b9f7"
				}
			},
			"storageLayout": {
				"storage": [
					{
						"astId": 749,
						"contract": "Samples/bankSystem.sol:bankingSystem",
						"label": "owner",
						"offset": 0,
						"slot": "0",
						"type": "t_address"
					},
					{
						"astId": 751,
						"contract": "Samples/bankSystem.sol:bankingSystem",
						"label": "tokenAddress",
						"offset": 0,
						"slot": "1",
						"type": "t_address"
					},
					{
						"astId": 771,
						"contract": "Samples/bankSystem.sol:bankingSystem",
						"label": "userRegistration",
						"offset": 0,
						"slot": "2",
						"type": "t_mapping(t_uint256,t_struct(Register)747_storage)"
					}
				],
				"types": {
					"t_address": {
						"encoding": "inplace",
						"label": "address",
						"numberOfBytes": "20"
					},
					"t_mapping(t_uint256,t_struct(Register)747_storage)": {
						"encoding": "mapping",
						"key": "t_uint256",
						"label": "mapping(uint256 => struct bankingSystem.Register)",
						"numberOfBytes": "32",
						"value": "t_struct(Register)747_storage"
					},
					"t_string_storage": {
						"encoding": "bytes",
						"label": "string",
						"numberOfBytes": "32"
					},
					"t_struct(Register)747_storage": {
						"encoding": "inplace",
						"label": "struct bankingSystem.Register",
						"members": [
							{
								"astId": 738,
								"contract": "Samples/bankSystem.sol:bankingSystem",
								"label": "id",
								"offset": 0,
								"slot": "0",
								"type": "t_uint256"
							},
							{
								"astId": 740,
								"contract": "Samples/bankSystem.sol:bankingSystem",
								"label": "name",
								"offset": 0,
								"slot": "1",
								"type": "t_string_storage"
							},
							{
								"astId": 742,
								"contract": "Samples/bankSystem.sol:bankingSystem",
								"label": "Address",
								"offset": 0,
								"slot": "2",
								"type": "t_address"
							},
							{
								"astId": 744,
								"contract": "Samples/bankSystem.sol:bankingSystem",
								"label": "phNo",
								"offset": 0,
								"slot": "3",
								"type": "t_uint256"
							},
							{
								"astId": 746,
								"contract": "Samples/bankSystem.sol:bankingSystem",
								"label": "accountBalance",
								"offset": 0,
								"slot": "4",
								"type": "t_uint256"
							}
						],
						"numberOfBytes": "160"
					},
					"t_uint256": {
						"encoding": "inplace",
						"label": "uint256",
						"numberOfBytes": "32"
					}
				}
			},
			"userdoc": {
				"kind": "user",
				"methods": {},
				"version": 1
			}
		}
	}
}