{
	"Samples/array10.sol": {
		"task": {
			"abi": [
				{
					"inputs": [],
					"name": "addArray",
					"outputs": [],
					"stateMutability": "nonpayable",
					"type": "function"
				},
				{
					"inputs": [],
					"name": "getarray",
					"outputs": [
						{
							"internalType": "uint256[5]",
							"name": "",
							"type": "uint256[5]"
						}
					],
					"stateMutability": "view",
					"type": "function"
				},
				{
					"inputs": [
						{
							"internalType": "uint256[]",
							"name": "value",
							"type": "uint256[]"
						}
					],
					"name": "setarray",
					"outputs": [],
					"stateMutability": "nonpayable",
					"type": "function"
				}
			],
			"devdoc": {
				"kind": "dev",
				"methods": {},
				"version": 1
			},
			"evm": {
				"assembly": "    /* \"Samples/array10.sol\":59:502  contract task{\r... */\n  mstore(0x40, 0x80)\n  callvalue\n  dup1\n  iszero\n  tag_1\n  jumpi\n  0x00\n  dup1\n  revert\ntag_1:\n  pop\n  dataSize(sub_0)\n  dup1\n  dataOffset(sub_0)\n  0x00\n  codecopy\n  0x00\n  return\nstop\n\nsub_0: assembly {\n        /* \"Samples/array10.sol\":59:502  contract task{\r... */\n      mstore(0x40, 0x80)\n      callvalue\n      dup1\n      iszero\n      tag_1\n      jumpi\n      0x00\n      dup1\n      revert\n    tag_1:\n      pop\n      jumpi(tag_2, lt(calldatasize, 0x04))\n      shr(0xe0, calldataload(0x00))\n      dup1\n      0x0cfd0fae\n      eq\n      tag_3\n      jumpi\n      dup1\n      0x4a6136c1\n      eq\n      tag_4\n      jumpi\n      dup1\n      0xc8e9be6c\n      eq\n      tag_5\n      jumpi\n    tag_2:\n      0x00\n      dup1\n      revert\n        /* \"Samples/array10.sol\":253:338  function getarray() public view returns(uint[5] memory){\r... */\n    tag_3:\n      tag_6\n      tag_7\n      jump\t// in\n    tag_6:\n      mload(0x40)\n      tag_8\n      swap2\n      swap1\n      tag_9\n      jump\t// in\n    tag_8:\n      mload(0x40)\n      dup1\n      swap2\n      sub\n      swap1\n      return\n        /* \"Samples/array10.sol\":102:245  function setarray(uint[] memory value) public {\r... */\n    tag_4:\n      tag_10\n      0x04\n      dup1\n      calldatasize\n      sub\n      dup2\n      add\n      swap1\n      tag_11\n      swap2\n      swap1\n      tag_12\n      jump\t// in\n    tag_11:\n      tag_13\n      jump\t// in\n    tag_10:\n      stop\n        /* \"Samples/array10.sol\":346:495  function addArray() public{\r... */\n    tag_5:\n      tag_14\n      tag_15\n      jump\t// in\n    tag_14:\n      stop\n        /* \"Samples/array10.sol\":253:338  function getarray() public view returns(uint[5] memory){\r... */\n    tag_7:\n        /* \"Samples/array10.sol\":293:307  uint[5] memory */\n      tag_16\n      tag_17\n      jump\t// in\n    tag_16:\n        /* \"Samples/array10.sol\":326:330  data */\n      0x00\n        /* \"Samples/array10.sol\":319:330  return data */\n      0x05\n      dup1\n      0x20\n      mul\n      mload(0x40)\n      swap1\n      dup2\n      add\n      0x40\n      mstore\n      dup1\n      swap3\n      swap2\n      swap1\n      dup3\n      0x05\n      dup1\n      iszero\n      tag_19\n      jumpi\n      0x20\n      mul\n      dup3\n      add\n      swap2\n    tag_20:\n      dup2\n      sload\n      dup2\n      mstore\n      0x20\n      add\n      swap1\n      0x01\n      add\n      swap1\n      dup1\n      dup4\n      gt\n      tag_20\n      jumpi\n    tag_19:\n      pop\n      pop\n      pop\n      pop\n      pop\n      swap1\n      pop\n        /* \"Samples/array10.sol\":253:338  function getarray() public view returns(uint[5] memory){\r... */\n      swap1\n      jump\t// out\n        /* \"Samples/array10.sol\":102:245  function setarray(uint[] memory value) public {\r... */\n    tag_13:\n        /* \"Samples/array10.sol\":163:169  uint x */\n      0x00\n        /* \"Samples/array10.sol\":159:238  for(uint x=0; x<value.length; x++){\r... */\n    tag_22:\n        /* \"Samples/array10.sol\":175:180  value */\n      dup2\n        /* \"Samples/array10.sol\":175:187  value.length */\n      mload\n        /* \"Samples/array10.sol\":173:174  x */\n      dup2\n        /* \"Samples/array10.sol\":173:187  x<value.length */\n      lt\n        /* \"Samples/array10.sol\":159:238  for(uint x=0; x<value.length; x++){\r... */\n      iszero\n      tag_23\n      jumpi\n        /* \"Samples/array10.sol\":218:223  value */\n      dup2\n        /* \"Samples/array10.sol\":224:225  x */\n      dup2\n        /* \"Samples/array10.sol\":218:226  value[x] */\n      dup2\n      mload\n      dup2\n      lt\n      tag_25\n      jumpi\n      tag_26\n      tag_27\n      jump\t// in\n    tag_26:\n    tag_25:\n      0x20\n      mul\n      0x20\n      add\n      add\n      mload\n        /* \"Samples/array10.sol\":208:212  data */\n      0x00\n        /* \"Samples/array10.sol\":213:214  x */\n      dup3\n        /* \"Samples/array10.sol\":208:215  data[x] */\n      0x05\n      dup2\n      lt\n      tag_28\n      jumpi\n      tag_29\n      tag_27\n      jump\t// in\n    tag_29:\n    tag_28:\n      add\n        /* \"Samples/array10.sol\":208:226  data[x] = value[x] */\n      dup2\n      swap1\n      sstore\n      pop\n        /* \"Samples/array10.sol\":189:192  x++ */\n      dup1\n      dup1\n      tag_31\n      swap1\n      tag_32\n      jump\t// in\n    tag_31:\n      swap2\n      pop\n      pop\n        /* \"Samples/array10.sol\":159:238  for(uint x=0; x<value.length; x++){\r... */\n      jump(tag_22)\n    tag_23:\n      pop\n        /* \"Samples/array10.sol\":102:245  function setarray(uint[] memory value) public {\r... */\n      pop\n      jump\t// out\n        /* \"Samples/array10.sol\":346:495  function addArray() public{\r... */\n    tag_15:\n        /* \"Samples/array10.sol\":387:393  uint x */\n      0x00\n        /* \"Samples/array10.sol\":383:488  for(uint x=0; x < data.length; x++){\r... */\n    tag_34:\n        /* \"Samples/array10.sol\":401:412  data.length */\n      0x05\n        /* \"Samples/array10.sol\":397:398  x */\n      dup2\n        /* \"Samples/array10.sol\":397:412  x < data.length */\n      lt\n        /* \"Samples/array10.sol\":383:488  for(uint x=0; x < data.length; x++){\r... */\n      iszero\n      tag_35\n      jumpi\n        /* \"Samples/array10.sol\":447:448  4 */\n      0x04\n        /* \"Samples/array10.sol\":436:440  data */\n      0x00\n        /* \"Samples/array10.sol\":441:442  x */\n      dup3\n        /* \"Samples/array10.sol\":436:443  data[x] */\n      0x05\n      dup2\n      lt\n      tag_37\n      jumpi\n      tag_38\n      tag_27\n      jump\t// in\n    tag_38:\n    tag_37:\n      add\n      sload\n        /* \"Samples/array10.sol\":436:448  data[x] == 4 */\n      eq\n        /* \"Samples/array10.sol\":433:476  if(data[x] == 4 )\r... */\n      iszero\n      tag_40\n      jumpi\n        /* \"Samples/array10.sol\":475:476  6 */\n      0x06\n        /* \"Samples/array10.sol\":464:468  data */\n      0x00\n        /* \"Samples/array10.sol\":469:470  x */\n      dup3\n        /* \"Samples/array10.sol\":464:471  data[x] */\n      0x05\n      dup2\n      lt\n      tag_41\n      jumpi\n      tag_42\n      tag_27\n      jump\t// in\n    tag_42:\n    tag_41:\n      add\n      0x00\n        /* \"Samples/array10.sol\":464:476  data[x] += 6 */\n      dup3\n      dup3\n      sload\n      tag_44\n      swap2\n      swap1\n      tag_45\n      jump\t// in\n    tag_44:\n      swap3\n      pop\n      pop\n      dup2\n      swap1\n      sstore\n      pop\n        /* \"Samples/array10.sol\":433:476  if(data[x] == 4 )\r... */\n    tag_40:\n        /* \"Samples/array10.sol\":414:417  x++ */\n      dup1\n      dup1\n      tag_46\n      swap1\n      tag_32\n      jump\t// in\n    tag_46:\n      swap2\n      pop\n      pop\n        /* \"Samples/array10.sol\":383:488  for(uint x=0; x < data.length; x++){\r... */\n      jump(tag_34)\n    tag_35:\n      pop\n        /* \"Samples/array10.sol\":346:495  function addArray() public{\r... */\n      jump\t// out\n    tag_17:\n      mload(0x40)\n      dup1\n      0xa0\n      add\n      0x40\n      mstore\n      dup1\n      0x05\n      swap1\n      0x20\n      dup3\n      mul\n      dup1\n      calldatasize\n      dup4\n      calldatacopy\n      dup1\n      dup3\n      add\n      swap2\n      pop\n      pop\n      swap1\n      pop\n      pop\n      swap1\n      jump\t// out\n        /* \"#utility.yul\":24:746   */\n    tag_48:\n        /* \"#utility.yul\":120:125   */\n      0x00\n        /* \"#utility.yul\":145:226   */\n      tag_50\n        /* \"#utility.yul\":161:225   */\n      tag_51\n        /* \"#utility.yul\":218:224   */\n      dup5\n        /* \"#utility.yul\":161:225   */\n      tag_52\n      jump\t// in\n    tag_51:\n        /* \"#utility.yul\":145:226   */\n      tag_53\n      jump\t// in\n    tag_50:\n        /* \"#utility.yul\":136:226   */\n      swap1\n      pop\n        /* \"#utility.yul\":246:251   */\n      dup1\n        /* \"#utility.yul\":275:281   */\n      dup4\n        /* \"#utility.yul\":268:273   */\n      dup3\n        /* \"#utility.yul\":261:282   */\n      mstore\n        /* \"#utility.yul\":309:313   */\n      0x20\n        /* \"#utility.yul\":302:307   */\n      dup3\n        /* \"#utility.yul\":298:314   */\n      add\n        /* \"#utility.yul\":291:314   */\n      swap1\n      pop\n        /* \"#utility.yul\":335:341   */\n      dup3\n        /* \"#utility.yul\":385:388   */\n      dup6\n        /* \"#utility.yul\":377:381   */\n      0x20\n        /* \"#utility.yul\":369:375   */\n      dup7\n        /* \"#utility.yul\":365:382   */\n      mul\n        /* \"#utility.yul\":360:363   */\n      dup3\n        /* \"#utility.yul\":356:383   */\n      add\n        /* \"#utility.yul\":353:389   */\n      gt\n        /* \"#utility.yul\":350:493   */\n      iszero\n      tag_54\n      jumpi\n        /* \"#utility.yul\":404:483   */\n      tag_55\n      tag_56\n      jump\t// in\n    tag_55:\n        /* \"#utility.yul\":350:493   */\n    tag_54:\n        /* \"#utility.yul\":517:518   */\n      0x00\n        /* \"#utility.yul\":502:740   */\n    tag_57:\n        /* \"#utility.yul\":527:533   */\n      dup6\n        /* \"#utility.yul\":524:525   */\n      dup2\n        /* \"#utility.yul\":521:534   */\n      lt\n        /* \"#utility.yul\":502:740   */\n      iszero\n      tag_59\n      jumpi\n        /* \"#utility.yul\":595:598   */\n      dup2\n        /* \"#utility.yul\":624:661   */\n      tag_60\n        /* \"#utility.yul\":657:660   */\n      dup9\n        /* \"#utility.yul\":645:655   */\n      dup3\n        /* \"#utility.yul\":624:661   */\n      tag_61\n      jump\t// in\n    tag_60:\n        /* \"#utility.yul\":619:622   */\n      dup5\n        /* \"#utility.yul\":612:662   */\n      mstore\n        /* \"#utility.yul\":691:695   */\n      0x20\n        /* \"#utility.yul\":686:689   */\n      dup5\n        /* \"#utility.yul\":682:696   */\n      add\n        /* \"#utility.yul\":675:696   */\n      swap4\n      pop\n        /* \"#utility.yul\":725:729   */\n      0x20\n        /* \"#utility.yul\":720:723   */\n      dup4\n        /* \"#utility.yul\":716:730   */\n      add\n        /* \"#utility.yul\":709:730   */\n      swap3\n      pop\n        /* \"#utility.yul\":562:740   */\n      pop\n        /* \"#utility.yul\":549:550   */\n      0x01\n        /* \"#utility.yul\":546:547   */\n      dup2\n        /* \"#utility.yul\":542:551   */\n      add\n        /* \"#utility.yul\":537:551   */\n      swap1\n      pop\n        /* \"#utility.yul\":502:740   */\n      jump(tag_57)\n    tag_59:\n        /* \"#utility.yul\":506:520   */\n      pop\n        /* \"#utility.yul\":126:746   */\n      pop\n      pop\n        /* \"#utility.yul\":24:746   */\n      swap4\n      swap3\n      pop\n      pop\n      pop\n      jump\t// out\n        /* \"#utility.yul\":769:1139   */\n    tag_62:\n        /* \"#utility.yul\":840:845   */\n      0x00\n        /* \"#utility.yul\":889:892   */\n      dup3\n        /* \"#utility.yul\":882:886   */\n      0x1f\n        /* \"#utility.yul\":874:880   */\n      dup4\n        /* \"#utility.yul\":870:887   */\n      add\n        /* \"#utility.yul\":866:893   */\n      slt\n        /* \"#utility.yul\":856:978   */\n      tag_64\n      jumpi\n        /* \"#utility.yul\":897:976   */\n      tag_65\n      tag_66\n      jump\t// in\n    tag_65:\n        /* \"#utility.yul\":856:978   */\n    tag_64:\n        /* \"#utility.yul\":1014:1020   */\n      dup2\n        /* \"#utility.yul\":1001:1021   */\n      calldataload\n        /* \"#utility.yul\":1039:1133   */\n      tag_67\n        /* \"#utility.yul\":1129:1132   */\n      dup5\n        /* \"#utility.yul\":1121:1127   */\n      dup3\n        /* \"#utility.yul\":1114:1118   */\n      0x20\n        /* \"#utility.yul\":1106:1112   */\n      dup7\n        /* \"#utility.yul\":1102:1119   */\n      add\n        /* \"#utility.yul\":1039:1133   */\n      tag_48\n      jump\t// in\n    tag_67:\n        /* \"#utility.yul\":1030:1133   */\n      swap2\n      pop\n        /* \"#utility.yul\":846:1139   */\n      pop\n        /* \"#utility.yul\":769:1139   */\n      swap3\n      swap2\n      pop\n      pop\n      jump\t// out\n        /* \"#utility.yul\":1145:1284   */\n    tag_61:\n        /* \"#utility.yul\":1191:1196   */\n      0x00\n        /* \"#utility.yul\":1229:1235   */\n      dup2\n        /* \"#utility.yul\":1216:1236   */\n      calldataload\n        /* \"#utility.yul\":1207:1236   */\n      swap1\n      pop\n        /* \"#utility.yul\":1245:1278   */\n      tag_69\n        /* \"#utility.yul\":1272:1277   */\n      dup2\n        /* \"#utility.yul\":1245:1278   */\n      tag_70\n      jump\t// in\n    tag_69:\n        /* \"#utility.yul\":1145:1284   */\n      swap3\n      swap2\n      pop\n      pop\n      jump\t// out\n        /* \"#utility.yul\":1290:1829   */\n    tag_12:\n        /* \"#utility.yul\":1374:1380   */\n      0x00\n        /* \"#utility.yul\":1423:1425   */\n      0x20\n        /* \"#utility.yul\":1411:1420   */\n      dup3\n        /* \"#utility.yul\":1402:1409   */\n      dup5\n        /* \"#utility.yul\":1398:1421   */\n      sub\n        /* \"#utility.yul\":1394:1426   */\n      slt\n        /* \"#utility.yul\":1391:1510   */\n      iszero\n      tag_72\n      jumpi\n        /* \"#utility.yul\":1429:1508   */\n      tag_73\n      tag_74\n      jump\t// in\n    tag_73:\n        /* \"#utility.yul\":1391:1510   */\n    tag_72:\n        /* \"#utility.yul\":1577:1578   */\n      0x00\n        /* \"#utility.yul\":1566:1575   */\n      dup3\n        /* \"#utility.yul\":1562:1579   */\n      add\n        /* \"#utility.yul\":1549:1580   */\n      calldataload\n        /* \"#utility.yul\":1607:1625   */\n      0xffffffffffffffff\n        /* \"#utility.yul\":1599:1605   */\n      dup2\n        /* \"#utility.yul\":1596:1626   */\n      gt\n        /* \"#utility.yul\":1593:1710   */\n      iszero\n      tag_75\n      jumpi\n        /* \"#utility.yul\":1629:1708   */\n      tag_76\n      tag_77\n      jump\t// in\n    tag_76:\n        /* \"#utility.yul\":1593:1710   */\n    tag_75:\n        /* \"#utility.yul\":1734:1812   */\n      tag_78\n        /* \"#utility.yul\":1804:1811   */\n      dup5\n        /* \"#utility.yul\":1795:1801   */\n      dup3\n        /* \"#utility.yul\":1784:1793   */\n      dup6\n        /* \"#utility.yul\":1780:1802   */\n      add\n        /* \"#utility.yul\":1734:1812   */\n      tag_62\n      jump\t// in\n    tag_78:\n        /* \"#utility.yul\":1724:1812   */\n      swap2\n      pop\n        /* \"#utility.yul\":1520:1822   */\n      pop\n        /* \"#utility.yul\":1290:1829   */\n      swap3\n      swap2\n      pop\n      pop\n      jump\t// out\n        /* \"#utility.yul\":1835:2014   */\n    tag_79:\n        /* \"#utility.yul\":1904:1914   */\n      0x00\n        /* \"#utility.yul\":1925:1971   */\n      tag_81\n        /* \"#utility.yul\":1967:1970   */\n      dup4\n        /* \"#utility.yul\":1959:1965   */\n      dup4\n        /* \"#utility.yul\":1925:1971   */\n      tag_82\n      jump\t// in\n    tag_81:\n        /* \"#utility.yul\":2003:2007   */\n      0x20\n        /* \"#utility.yul\":1998:2001   */\n      dup4\n        /* \"#utility.yul\":1994:2008   */\n      add\n        /* \"#utility.yul\":1980:2008   */\n      swap1\n      pop\n        /* \"#utility.yul\":1835:2014   */\n      swap3\n      swap2\n      pop\n      pop\n      jump\t// out\n        /* \"#utility.yul\":2052:2746   */\n    tag_83:\n        /* \"#utility.yul\":2188:2240   */\n      tag_85\n        /* \"#utility.yul\":2234:2239   */\n      dup2\n        /* \"#utility.yul\":2188:2240   */\n      tag_86\n      jump\t// in\n    tag_85:\n        /* \"#utility.yul\":2256:2340   */\n      tag_87\n        /* \"#utility.yul\":2333:2339   */\n      dup2\n        /* \"#utility.yul\":2328:2331   */\n      dup5\n        /* \"#utility.yul\":2256:2340   */\n      tag_88\n      jump\t// in\n    tag_87:\n        /* \"#utility.yul\":2249:2340   */\n      swap3\n      pop\n        /* \"#utility.yul\":2364:2418   */\n      tag_89\n        /* \"#utility.yul\":2412:2417   */\n      dup3\n        /* \"#utility.yul\":2364:2418   */\n      tag_90\n      jump\t// in\n    tag_89:\n        /* \"#utility.yul\":2441:2448   */\n      dup1\n        /* \"#utility.yul\":2472:2473   */\n      0x00\n        /* \"#utility.yul\":2457:2739   */\n    tag_91:\n        /* \"#utility.yul\":2482:2488   */\n      dup4\n        /* \"#utility.yul\":2479:2480   */\n      dup2\n        /* \"#utility.yul\":2476:2489   */\n      lt\n        /* \"#utility.yul\":2457:2739   */\n      iszero\n      tag_93\n      jumpi\n        /* \"#utility.yul\":2558:2564   */\n      dup2\n        /* \"#utility.yul\":2552:2565   */\n      mload\n        /* \"#utility.yul\":2585:2648   */\n      tag_94\n        /* \"#utility.yul\":2644:2647   */\n      dup8\n        /* \"#utility.yul\":2629:2642   */\n      dup3\n        /* \"#utility.yul\":2585:2648   */\n      tag_79\n      jump\t// in\n    tag_94:\n        /* \"#utility.yul\":2578:2648   */\n      swap7\n      pop\n        /* \"#utility.yul\":2671:2729   */\n      tag_95\n        /* \"#utility.yul\":2722:2728   */\n      dup4\n        /* \"#utility.yul\":2671:2729   */\n      tag_96\n      jump\t// in\n    tag_95:\n        /* \"#utility.yul\":2661:2729   */\n      swap3\n      pop\n        /* \"#utility.yul\":2517:2739   */\n      pop\n        /* \"#utility.yul\":2504:2505   */\n      0x01\n        /* \"#utility.yul\":2501:2502   */\n      dup2\n        /* \"#utility.yul\":2497:2506   */\n      add\n        /* \"#utility.yul\":2492:2506   */\n      swap1\n      pop\n        /* \"#utility.yul\":2457:2739   */\n      jump(tag_91)\n    tag_93:\n        /* \"#utility.yul\":2461:2475   */\n      pop\n        /* \"#utility.yul\":2164:2746   */\n      pop\n      pop\n      pop\n        /* \"#utility.yul\":2052:2746   */\n      pop\n      pop\n      jump\t// out\n        /* \"#utility.yul\":2752:2860   */\n    tag_82:\n        /* \"#utility.yul\":2829:2853   */\n      tag_98\n        /* \"#utility.yul\":2847:2852   */\n      dup2\n        /* \"#utility.yul\":2829:2853   */\n      tag_99\n      jump\t// in\n    tag_98:\n        /* \"#utility.yul\":2824:2827   */\n      dup3\n        /* \"#utility.yul\":2817:2854   */\n      mstore\n        /* \"#utility.yul\":2752:2860   */\n      pop\n      pop\n      jump\t// out\n        /* \"#utility.yul\":2866:3181   */\n    tag_9:\n        /* \"#utility.yul\":3005:3009   */\n      0x00\n        /* \"#utility.yul\":3043:3046   */\n      0xa0\n        /* \"#utility.yul\":3032:3041   */\n      dup3\n        /* \"#utility.yul\":3028:3047   */\n      add\n        /* \"#utility.yul\":3020:3047   */\n      swap1\n      pop\n        /* \"#utility.yul\":3057:3174   */\n      tag_101\n        /* \"#utility.yul\":3171:3172   */\n      0x00\n        /* \"#utility.yul\":3160:3169   */\n      dup4\n        /* \"#utility.yul\":3156:3173   */\n      add\n        /* \"#utility.yul\":3147:3153   */\n      dup5\n        /* \"#utility.yul\":3057:3174   */\n      tag_83\n      jump\t// in\n    tag_101:\n        /* \"#utility.yul\":2866:3181   */\n      swap3\n      swap2\n      pop\n      pop\n      jump\t// out\n        /* \"#utility.yul\":3187:3316   */\n    tag_53:\n        /* \"#utility.yul\":3221:3227   */\n      0x00\n        /* \"#utility.yul\":3248:3268   */\n      tag_103\n      tag_104\n      jump\t// in\n    tag_103:\n        /* \"#utility.yul\":3238:3268   */\n      swap1\n      pop\n        /* \"#utility.yul\":3277:3310   */\n      tag_105\n        /* \"#utility.yul\":3305:3309   */\n      dup3\n        /* \"#utility.yul\":3297:3303   */\n      dup3\n        /* \"#utility.yul\":3277:3310   */\n      tag_106\n      jump\t// in\n    tag_105:\n        /* \"#utility.yul\":3187:3316   */\n      swap2\n      swap1\n      pop\n      jump\t// out\n        /* \"#utility.yul\":3322:3397   */\n    tag_104:\n        /* \"#utility.yul\":3355:3361   */\n      0x00\n        /* \"#utility.yul\":3388:3390   */\n      0x40\n        /* \"#utility.yul\":3382:3391   */\n      mload\n        /* \"#utility.yul\":3372:3391   */\n      swap1\n      pop\n        /* \"#utility.yul\":3322:3397   */\n      swap1\n      jump\t// out\n        /* \"#utility.yul\":3403:3714   */\n    tag_52:\n        /* \"#utility.yul\":3480:3484   */\n      0x00\n        /* \"#utility.yul\":3570:3588   */\n      0xffffffffffffffff\n        /* \"#utility.yul\":3562:3568   */\n      dup3\n        /* \"#utility.yul\":3559:3589   */\n      gt\n        /* \"#utility.yul\":3556:3612   */\n      iszero\n      tag_109\n      jumpi\n        /* \"#utility.yul\":3592:3610   */\n      tag_110\n      tag_111\n      jump\t// in\n    tag_110:\n        /* \"#utility.yul\":3556:3612   */\n    tag_109:\n        /* \"#utility.yul\":3642:3646   */\n      0x20\n        /* \"#utility.yul\":3634:3640   */\n      dup3\n        /* \"#utility.yul\":3630:3647   */\n      mul\n        /* \"#utility.yul\":3622:3647   */\n      swap1\n      pop\n        /* \"#utility.yul\":3702:3706   */\n      0x20\n        /* \"#utility.yul\":3696:3700   */\n      dup2\n        /* \"#utility.yul\":3692:3707   */\n      add\n        /* \"#utility.yul\":3684:3707   */\n      swap1\n      pop\n        /* \"#utility.yul\":3403:3714   */\n      swap2\n      swap1\n      pop\n      jump\t// out\n        /* \"#utility.yul\":3720:3818   */\n    tag_90:\n        /* \"#utility.yul\":3785:3789   */\n      0x00\n        /* \"#utility.yul\":3808:3811   */\n      dup2\n        /* \"#utility.yul\":3800:3811   */\n      swap1\n      pop\n        /* \"#utility.yul\":3720:3818   */\n      swap2\n      swap1\n      pop\n      jump\t// out\n        /* \"#utility.yul\":3824:3928   */\n    tag_86:\n        /* \"#utility.yul\":3889:3895   */\n      0x00\n        /* \"#utility.yul\":3917:3921   */\n      0x05\n        /* \"#utility.yul\":3907:3921   */\n      swap1\n      pop\n        /* \"#utility.yul\":3824:3928   */\n      swap2\n      swap1\n      pop\n      jump\t// out\n        /* \"#utility.yul\":3934:4045   */\n    tag_96:\n        /* \"#utility.yul\":4002:4006   */\n      0x00\n        /* \"#utility.yul\":4034:4038   */\n      0x20\n        /* \"#utility.yul\":4029:4032   */\n      dup3\n        /* \"#utility.yul\":4025:4039   */\n      add\n        /* \"#utility.yul\":4017:4039   */\n      swap1\n      pop\n        /* \"#utility.yul\":3934:4045   */\n      swap2\n      swap1\n      pop\n      jump\t// out\n        /* \"#utility.yul\":4051:4194   */\n    tag_88:\n        /* \"#utility.yul\":4148:4159   */\n      0x00\n        /* \"#utility.yul\":4185:4188   */\n      dup2\n        /* \"#utility.yul\":4170:4188   */\n      swap1\n      pop\n        /* \"#utility.yul\":4051:4194   */\n      swap3\n      swap2\n      pop\n      pop\n      jump\t// out\n        /* \"#utility.yul\":4200:4505   */\n    tag_45:\n        /* \"#utility.yul\":4240:4243   */\n      0x00\n        /* \"#utility.yul\":4259:4279   */\n      tag_117\n        /* \"#utility.yul\":4277:4278   */\n      dup3\n        /* \"#utility.yul\":4259:4279   */\n      tag_99\n      jump\t// in\n    tag_117:\n        /* \"#utility.yul\":4254:4279   */\n      swap2\n      pop\n        /* \"#utility.yul\":4293:4313   */\n      tag_118\n        /* \"#utility.yul\":4311:4312   */\n      dup4\n        /* \"#utility.yul\":4293:4313   */\n      tag_99\n      jump\t// in\n    tag_118:\n        /* \"#utility.yul\":4288:4313   */\n      swap3\n      pop\n        /* \"#utility.yul\":4447:4448   */\n      dup3\n        /* \"#utility.yul\":4379:4445   */\n      0xffffffffffffffffffffffffffffffffffffffffffffffffffffffffffffffff\n        /* \"#utility.yul\":4375:4449   */\n      sub\n        /* \"#utility.yul\":4372:4373   */\n      dup3\n        /* \"#utility.yul\":4369:4450   */\n      gt\n        /* \"#utility.yul\":4366:4473   */\n      iszero\n      tag_119\n      jumpi\n        /* \"#utility.yul\":4453:4471   */\n      tag_120\n      tag_121\n      jump\t// in\n    tag_120:\n        /* \"#utility.yul\":4366:4473   */\n    tag_119:\n        /* \"#utility.yul\":4497:4498   */\n      dup3\n        /* \"#utility.yul\":4494:4495   */\n      dup3\n        /* \"#utility.yul\":4490:4499   */\n      add\n        /* \"#utility.yul\":4483:4499   */\n      swap1\n      pop\n        /* \"#utility.yul\":4200:4505   */\n      swap3\n      swap2\n      pop\n      pop\n      jump\t// out\n        /* \"#utility.yul\":4511:4588   */\n    tag_99:\n        /* \"#utility.yul\":4548:4555   */\n      0x00\n        /* \"#utility.yul\":4577:4582   */\n      dup2\n        /* \"#utility.yul\":4566:4582   */\n      swap1\n      pop\n        /* \"#utility.yul\":4511:4588   */\n      swap2\n      swap1\n      pop\n      jump\t// out\n        /* \"#utility.yul\":4594:4875   */\n    tag_106:\n        /* \"#utility.yul\":4677:4704   */\n      tag_124\n        /* \"#utility.yul\":4699:4703   */\n      dup3\n        /* \"#utility.yul\":4677:4704   */\n      tag_125\n      jump\t// in\n    tag_124:\n        /* \"#utility.yul\":4669:4675   */\n      dup2\n        /* \"#utility.yul\":4665:4705   */\n      add\n        /* \"#utility.yul\":4807:4813   */\n      dup2\n        /* \"#utility.yul\":4795:4805   */\n      dup2\n        /* \"#utility.yul\":4792:4814   */\n      lt\n        /* \"#utility.yul\":4771:4789   */\n      0xffffffffffffffff\n        /* \"#utility.yul\":4759:4769   */\n      dup3\n        /* \"#utility.yul\":4756:4790   */\n      gt\n        /* \"#utility.yul\":4753:4815   */\n      or\n        /* \"#utility.yul\":4750:4838   */\n      iszero\n      tag_126\n      jumpi\n        /* \"#utility.yul\":4818:4836   */\n      tag_127\n      tag_111\n      jump\t// in\n    tag_127:\n        /* \"#utility.yul\":4750:4838   */\n    tag_126:\n        /* \"#utility.yul\":4858:4868   */\n      dup1\n        /* \"#utility.yul\":4854:4856   */\n      0x40\n        /* \"#utility.yul\":4847:4869   */\n      mstore\n        /* \"#utility.yul\":4637:4875   */\n      pop\n        /* \"#utility.yul\":4594:4875   */\n      pop\n      pop\n      jump\t// out\n        /* \"#utility.yul\":4881:5114   */\n    tag_32:\n        /* \"#utility.yul\":4920:4923   */\n      0x00\n        /* \"#utility.yul\":4943:4967   */\n      tag_129\n        /* \"#utility.yul\":4961:4966   */\n      dup3\n        /* \"#utility.yul\":4943:4967   */\n      tag_99\n      jump\t// in\n    tag_129:\n        /* \"#utility.yul\":4934:4967   */\n      swap2\n      pop\n        /* \"#utility.yul\":4989:5055   */\n      0xffffffffffffffffffffffffffffffffffffffffffffffffffffffffffffffff\n        /* \"#utility.yul\":4982:4987   */\n      dup3\n        /* \"#utility.yul\":4979:5056   */\n      eq\n        /* \"#utility.yul\":4976:5079   */\n      iszero\n      tag_130\n      jumpi\n        /* \"#utility.yul\":5059:5077   */\n      tag_131\n      tag_121\n      jump\t// in\n    tag_131:\n        /* \"#utility.yul\":4976:5079   */\n    tag_130:\n        /* \"#utility.yul\":5106:5107   */\n      0x01\n        /* \"#utility.yul\":5099:5104   */\n      dup3\n        /* \"#utility.yul\":5095:5108   */\n      add\n        /* \"#utility.yul\":5088:5108   */\n      swap1\n      pop\n        /* \"#utility.yul\":4881:5114   */\n      swap2\n      swap1\n      pop\n      jump\t// out\n        /* \"#utility.yul\":5120:5300   */\n    tag_121:\n        /* \"#utility.yul\":5168:5245   */\n      0x4e487b7100000000000000000000000000000000000000000000000000000000\n        /* \"#utility.yul\":5165:5166   */\n      0x00\n        /* \"#utility.yul\":5158:5246   */\n      mstore\n        /* \"#utility.yul\":5265:5269   */\n      0x11\n        /* \"#utility.yul\":5262:5263   */\n      0x04\n        /* \"#utility.yul\":5255:5270   */\n      mstore\n        /* \"#utility.yul\":5289:5293   */\n      0x24\n        /* \"#utility.yul\":5286:5287   */\n      0x00\n        /* \"#utility.yul\":5279:5294   */\n      revert\n        /* \"#utility.yul\":5306:5486   */\n    tag_27:\n        /* \"#utility.yul\":5354:5431   */\n      0x4e487b7100000000000000000000000000000000000000000000000000000000\n        /* \"#utility.yul\":5351:5352   */\n      0x00\n        /* \"#utility.yul\":5344:5432   */\n      mstore\n        /* \"#utility.yul\":5451:5455   */\n      0x32\n        /* \"#utility.yul\":5448:5449   */\n      0x04\n        /* \"#utility.yul\":5441:5456   */\n      mstore\n        /* \"#utility.yul\":5475:5479   */\n      0x24\n        /* \"#utility.yul\":5472:5473   */\n      0x00\n        /* \"#utility.yul\":5465:5480   */\n      revert\n        /* \"#utility.yul\":5492:5672   */\n    tag_111:\n        /* \"#utility.yul\":5540:5617   */\n      0x4e487b7100000000000000000000000000000000000000000000000000000000\n        /* \"#utility.yul\":5537:5538   */\n      0x00\n        /* \"#utility.yul\":5530:5618   */\n      mstore\n        /* \"#utility.yul\":5637:5641   */\n      0x41\n        /* \"#utility.yul\":5634:5635   */\n      0x04\n        /* \"#utility.yul\":5627:5642   */\n      mstore\n        /* \"#utility.yul\":5661:5665   */\n      0x24\n        /* \"#utility.yul\":5658:5659   */\n      0x00\n        /* \"#utility.yul\":5651:5666   */\n      revert\n        /* \"#utility.yul\":5678:5795   */\n    tag_66:\n        /* \"#utility.yul\":5787:5788   */\n      0x00\n        /* \"#utility.yul\":5784:5785   */\n      dup1\n        /* \"#utility.yul\":5777:5789   */\n      revert\n        /* \"#utility.yul\":5801:5918   */\n    tag_56:\n        /* \"#utility.yul\":5910:5911   */\n      0x00\n        /* \"#utility.yul\":5907:5908   */\n      dup1\n        /* \"#utility.yul\":5900:5912   */\n      revert\n        /* \"#utility.yul\":5924:6041   */\n    tag_77:\n        /* \"#utility.yul\":6033:6034   */\n      0x00\n        /* \"#utility.yul\":6030:6031   */\n      dup1\n        /* \"#utility.yul\":6023:6035   */\n      revert\n        /* \"#utility.yul\":6047:6164   */\n    tag_74:\n        /* \"#utility.yul\":6156:6157   */\n      0x00\n        /* \"#utility.yul\":6153:6154   */\n      dup1\n        /* \"#utility.yul\":6146:6158   */\n      revert\n        /* \"#utility.yul\":6170:6272   */\n    tag_125:\n        /* \"#utility.yul\":6211:6217   */\n      0x00\n        /* \"#utility.yul\":6262:6264   */\n      0x1f\n        /* \"#utility.yul\":6258:6265   */\n      not\n        /* \"#utility.yul\":6253:6255   */\n      0x1f\n        /* \"#utility.yul\":6246:6251   */\n      dup4\n        /* \"#utility.yul\":6242:6256   */\n      add\n        /* \"#utility.yul\":6238:6266   */\n      and\n        /* \"#utility.yul\":6228:6266   */\n      swap1\n      pop\n        /* \"#utility.yul\":6170:6272   */\n      swap2\n      swap1\n      pop\n      jump\t// out\n        /* \"#utility.yul\":6278:6400   */\n    tag_70:\n        /* \"#utility.yul\":6351:6375   */\n      tag_141\n        /* \"#utility.yul\":6369:6374   */\n      dup2\n        /* \"#utility.yul\":6351:6375   */\n      tag_99\n      jump\t// in\n    tag_141:\n        /* \"#utility.yul\":6344:6349   */\n      dup2\n        /* \"#utility.yul\":6341:6376   */\n      eq\n        /* \"#utility.yul\":6331:6394   */\n      tag_142\n      jumpi\n        /* \"#utility.yul\":6390:6391   */\n      0x00\n        /* \"#utility.yul\":6387:6388   */\n      dup1\n        /* \"#utility.yul\":6380:6392   */\n      revert\n        /* \"#utility.yul\":6331:6394   */\n    tag_142:\n        /* \"#utility.yul\":6278:6400   */\n      pop\n      jump\t// out\n\n    auxdata: 0xa264697066735822122036a9263366d57ca9ab447432dc6361fc8d23ea50b9f2e15579b4b78c9880370264736f6c63430008070033\n}\n",
				"bytecode": {
					"linkReferences": {},
					"object": "608060405234801561001057600080fd5b506105a8806100206000396000f3fe608060405234801561001057600080fd5b50600436106100415760003560e01c80630cfd0fae146100465780634a6136c114610064578063c8e9be6c14610080575b600080fd5b61004e61008a565b60405161005b9190610336565b60405180910390f35b61007e6004803603810190610079919061026f565b6100d5565b005b61008861012c565b005b61009261019a565b60006005806020026040519081016040528092919082600580156100cb576020028201915b8154815260200190600101908083116100b7575b5050505050905090565b60005b8151811015610128578181815181106100f4576100f36104d8565b5b6020026020010151600082600581106101105761010f6104d8565b5b0181905550808061012090610460565b9150506100d8565b5050565b60005b60058110156101975760046000826005811061014e5761014d6104d8565b5b015414156101845760066000826005811061016c5761016b6104d8565b5b01600082825461017c91906103cf565b925050819055505b808061018f90610460565b91505061012f565b50565b6040518060a00160405280600590602082028036833780820191505090505090565b60006101cf6101ca84610376565b610351565b905080838252602082019050828560208602820111156101f2576101f161053b565b5b60005b858110156102225781610208888261025a565b8452602084019350602083019250506001810190506101f5565b5050509392505050565b600082601f83011261024157610240610536565b5b81356102518482602086016101bc565b91505092915050565b6000813590506102698161055b565b92915050565b60006020828403121561028557610284610545565b5b600082013567ffffffffffffffff8111156102a3576102a2610540565b5b6102af8482850161022c565b91505092915050565b60006102c48383610327565b60208301905092915050565b6102d9816103ac565b6102e381846103c4565b92506102ee826103a2565b8060005b8381101561031f57815161030687826102b8565b9650610311836103b7565b9250506001810190506102f2565b505050505050565b61033081610425565b82525050565b600060a08201905061034b60008301846102d0565b92915050565b600061035b61036c565b9050610367828261042f565b919050565b6000604051905090565b600067ffffffffffffffff82111561039157610390610507565b5b602082029050602081019050919050565b6000819050919050565b600060059050919050565b6000602082019050919050565b600081905092915050565b60006103da82610425565b91506103e583610425565b9250827fffffffffffffffffffffffffffffffffffffffffffffffffffffffffffffffff0382111561041a576104196104a9565b5b828201905092915050565b6000819050919050565b6104388261054a565b810181811067ffffffffffffffff8211171561045757610456610507565b5b80604052505050565b600061046b82610425565b91507fffffffffffffffffffffffffffffffffffffffffffffffffffffffffffffffff82141561049e5761049d6104a9565b5b600182019050919050565b7f4e487b7100000000000000000000000000000000000000000000000000000000600052601160045260246000fd5b7f4e487b7100000000000000000000000000000000000000000000000000000000600052603260045260246000fd5b7f4e487b7100000000000000000000000000000000000000000000000000000000600052604160045260246000fd5b600080fd5b600080fd5b600080fd5b600080fd5b6000601f19601f8301169050919050565b61056481610425565b811461056f57600080fd5b5056fea264697066735822122036a9263366d57ca9ab447432dc6361fc8d23ea50b9f2e15579b4b78c9880370264736f6c63430008070033",
					"opcodes": "PUSH1 0x80 PUSH1 0x40 MSTORE CALLVALUE DUP1 ISZERO PUSH2 0x10 JUMPI PUSH1 0x0 DUP1 REVERT JUMPDEST POP PUSH2 0x5A8 DUP1 PUSH2 0x20 PUSH1 0x0 CODECOPY PUSH1 0x0 RETURN INVALID PUSH1 0x80 PUSH1 0x40 MSTORE CALLVALUE DUP1 ISZERO PUSH2 0x10 JUMPI PUSH1 0x0 DUP1 REVERT JUMPDEST POP PUSH1 0x4 CALLDATASIZE LT PUSH2 0x41 JUMPI PUSH1 0x0 CALLDATALOAD PUSH1 0xE0 SHR DUP1 PUSH4 0xCFD0FAE EQ PUSH2 0x46 JUMPI DUP1 PUSH4 0x4A6136C1 EQ PUSH2 0x64 JUMPI DUP1 PUSH4 0xC8E9BE6C EQ PUSH2 0x80 JUMPI JUMPDEST PUSH1 0x0 DUP1 REVERT JUMPDEST PUSH2 0x4E PUSH2 0x8A JUMP JUMPDEST PUSH1 0x40 MLOAD PUSH2 0x5B SWAP2 SWAP1 PUSH2 0x336 JUMP JUMPDEST PUSH1 0x40 MLOAD DUP1 SWAP2 SUB SWAP1 RETURN JUMPDEST PUSH2 0x7E PUSH1 0x4 DUP1 CALLDATASIZE SUB DUP2 ADD SWAP1 PUSH2 0x79 SWAP2 SWAP1 PUSH2 0x26F JUMP JUMPDEST PUSH2 0xD5 JUMP JUMPDEST STOP JUMPDEST PUSH2 0x88 PUSH2 0x12C JUMP JUMPDEST STOP JUMPDEST PUSH2 0x92 PUSH2 0x19A JUMP JUMPDEST PUSH1 0x0 PUSH1 0x5 DUP1 PUSH1 0x20 MUL PUSH1 0x40 MLOAD SWAP1 DUP2 ADD PUSH1 0x40 MSTORE DUP1 SWAP3 SWAP2 SWAP1 DUP3 PUSH1 0x5 DUP1 ISZERO PUSH2 0xCB JUMPI PUSH1 0x20 MUL DUP3 ADD SWAP2 JUMPDEST DUP2 SLOAD DUP2 MSTORE PUSH1 0x20 ADD SWAP1 PUSH1 0x1 ADD SWAP1 DUP1 DUP4 GT PUSH2 0xB7 JUMPI JUMPDEST POP POP POP POP POP SWAP1 POP SWAP1 JUMP JUMPDEST PUSH1 0x0 JUMPDEST DUP2 MLOAD DUP2 LT ISZERO PUSH2 0x128 JUMPI DUP2 DUP2 DUP2 MLOAD DUP2 LT PUSH2 0xF4 JUMPI PUSH2 0xF3 PUSH2 0x4D8 JUMP JUMPDEST JUMPDEST PUSH1 0x20 MUL PUSH1 0x20 ADD ADD MLOAD PUSH1 0x0 DUP3 PUSH1 0x5 DUP2 LT PUSH2 0x110 JUMPI PUSH2 0x10F PUSH2 0x4D8 JUMP JUMPDEST JUMPDEST ADD DUP2 SWAP1 SSTORE POP DUP1 DUP1 PUSH2 0x120 SWAP1 PUSH2 0x460 JUMP JUMPDEST SWAP2 POP POP PUSH2 0xD8 JUMP JUMPDEST POP POP JUMP JUMPDEST PUSH1 0x0 JUMPDEST PUSH1 0x5 DUP2 LT ISZERO PUSH2 0x197 JUMPI PUSH1 0x4 PUSH1 0x0 DUP3 PUSH1 0x5 DUP2 LT PUSH2 0x14E JUMPI PUSH2 0x14D PUSH2 0x4D8 JUMP JUMPDEST JUMPDEST ADD SLOAD EQ ISZERO PUSH2 0x184 JUMPI PUSH1 0x6 PUSH1 0x0 DUP3 PUSH1 0x5 DUP2 LT PUSH2 0x16C JUMPI PUSH2 0x16B PUSH2 0x4D8 JUMP JUMPDEST JUMPDEST ADD PUSH1 0x0 DUP3 DUP3 SLOAD PUSH2 0x17C SWAP2 SWAP1 PUSH2 0x3CF JUMP JUMPDEST SWAP3 POP POP DUP2 SWAP1 SSTORE POP JUMPDEST DUP1 DUP1 PUSH2 0x18F SWAP1 PUSH2 0x460 JUMP JUMPDEST SWAP2 POP POP PUSH2 0x12F JUMP JUMPDEST POP JUMP JUMPDEST PUSH1 0x40 MLOAD DUP1 PUSH1 0xA0 ADD PUSH1 0x40 MSTORE DUP1 PUSH1 0x5 SWAP1 PUSH1 0x20 DUP3 MUL DUP1 CALLDATASIZE DUP4 CALLDATACOPY DUP1 DUP3 ADD SWAP2 POP POP SWAP1 POP POP SWAP1 JUMP JUMPDEST PUSH1 0x0 PUSH2 0x1CF PUSH2 0x1CA DUP5 PUSH2 0x376 JUMP JUMPDEST PUSH2 0x351 JUMP JUMPDEST SWAP1 POP DUP1 DUP4 DUP3 MSTORE PUSH1 0x20 DUP3 ADD SWAP1 POP DUP3 DUP6 PUSH1 0x20 DUP7 MUL DUP3 ADD GT ISZERO PUSH2 0x1F2 JUMPI PUSH2 0x1F1 PUSH2 0x53B JUMP JUMPDEST JUMPDEST PUSH1 0x0 JUMPDEST DUP6 DUP2 LT ISZERO PUSH2 0x222 JUMPI DUP2 PUSH2 0x208 DUP9 DUP3 PUSH2 0x25A JUMP JUMPDEST DUP5 MSTORE PUSH1 0x20 DUP5 ADD SWAP4 POP PUSH1 0x20 DUP4 ADD SWAP3 POP POP PUSH1 0x1 DUP2 ADD SWAP1 POP PUSH2 0x1F5 JUMP JUMPDEST POP POP POP SWAP4 SWAP3 POP POP POP JUMP JUMPDEST PUSH1 0x0 DUP3 PUSH1 0x1F DUP4 ADD SLT PUSH2 0x241 JUMPI PUSH2 0x240 PUSH2 0x536 JUMP JUMPDEST JUMPDEST DUP2 CALLDATALOAD PUSH2 0x251 DUP5 DUP3 PUSH1 0x20 DUP7 ADD PUSH2 0x1BC JUMP JUMPDEST SWAP2 POP POP SWAP3 SWAP2 POP POP JUMP JUMPDEST PUSH1 0x0 DUP2 CALLDATALOAD SWAP1 POP PUSH2 0x269 DUP2 PUSH2 0x55B JUMP JUMPDEST SWAP3 SWAP2 POP POP JUMP JUMPDEST PUSH1 0x0 PUSH1 0x20 DUP3 DUP5 SUB SLT ISZERO PUSH2 0x285 JUMPI PUSH2 0x284 PUSH2 0x545 JUMP JUMPDEST JUMPDEST PUSH1 0x0 DUP3 ADD CALLDATALOAD PUSH8 0xFFFFFFFFFFFFFFFF DUP2 GT ISZERO PUSH2 0x2A3 JUMPI PUSH2 0x2A2 PUSH2 0x540 JUMP JUMPDEST JUMPDEST PUSH2 0x2AF DUP5 DUP3 DUP6 ADD PUSH2 0x22C JUMP JUMPDEST SWAP2 POP POP SWAP3 SWAP2 POP POP JUMP JUMPDEST PUSH1 0x0 PUSH2 0x2C4 DUP4 DUP4 PUSH2 0x327 JUMP JUMPDEST PUSH1 0x20 DUP4 ADD SWAP1 POP SWAP3 SWAP2 POP POP JUMP JUMPDEST PUSH2 0x2D9 DUP2 PUSH2 0x3AC JUMP JUMPDEST PUSH2 0x2E3 DUP2 DUP5 PUSH2 0x3C4 JUMP JUMPDEST SWAP3 POP PUSH2 0x2EE DUP3 PUSH2 0x3A2 JUMP JUMPDEST DUP1 PUSH1 0x0 JUMPDEST DUP4 DUP2 LT ISZERO PUSH2 0x31F JUMPI DUP2 MLOAD PUSH2 0x306 DUP8 DUP3 PUSH2 0x2B8 JUMP JUMPDEST SWAP7 POP PUSH2 0x311 DUP4 PUSH2 0x3B7 JUMP JUMPDEST SWAP3 POP POP PUSH1 0x1 DUP2 ADD SWAP1 POP PUSH2 0x2F2 JUMP JUMPDEST POP POP POP POP POP POP JUMP JUMPDEST PUSH2 0x330 DUP2 PUSH2 0x425 JUMP JUMPDEST DUP3 MSTORE POP POP JUMP JUMPDEST PUSH1 0x0 PUSH1 0xA0 DUP3 ADD SWAP1 POP PUSH2 0x34B PUSH1 0x0 DUP4 ADD DUP5 PUSH2 0x2D0 JUMP JUMPDEST SWAP3 SWAP2 POP POP JUMP JUMPDEST PUSH1 0x0 PUSH2 0x35B PUSH2 0x36C JUMP JUMPDEST SWAP1 POP PUSH2 0x367 DUP3 DUP3 PUSH2 0x42F JUMP JUMPDEST SWAP2 SWAP1 POP JUMP JUMPDEST PUSH1 0x0 PUSH1 0x40 MLOAD SWAP1 POP SWAP1 JUMP JUMPDEST PUSH1 0x0 PUSH8 0xFFFFFFFFFFFFFFFF DUP3 GT ISZERO PUSH2 0x391 JUMPI PUSH2 0x390 PUSH2 0x507 JUMP JUMPDEST JUMPDEST PUSH1 0x20 DUP3 MUL SWAP1 POP PUSH1 0x20 DUP2 ADD SWAP1 POP SWAP2 SWAP1 POP JUMP JUMPDEST PUSH1 0x0 DUP2 SWAP1 POP SWAP2 SWAP1 POP JUMP JUMPDEST PUSH1 0x0 PUSH1 0x5 SWAP1 POP SWAP2 SWAP1 POP JUMP JUMPDEST PUSH1 0x0 PUSH1 0x20 DUP3 ADD SWAP1 POP SWAP2 SWAP1 POP JUMP JUMPDEST PUSH1 0x0 DUP2 SWAP1 POP SWAP3 SWAP2 POP POP JUMP JUMPDEST PUSH1 0x0 PUSH2 0x3DA DUP3 PUSH2 0x425 JUMP JUMPDEST SWAP2 POP PUSH2 0x3E5 DUP4 PUSH2 0x425 JUMP JUMPDEST SWAP3 POP DUP3 PUSH32 0xFFFFFFFFFFFFFFFFFFFFFFFFFFFFFFFFFFFFFFFFFFFFFFFFFFFFFFFFFFFFFFFF SUB DUP3 GT ISZERO PUSH2 0x41A JUMPI PUSH2 0x419 PUSH2 0x4A9 JUMP JUMPDEST JUMPDEST DUP3 DUP3 ADD SWAP1 POP SWAP3 SWAP2 POP POP JUMP JUMPDEST PUSH1 0x0 DUP2 SWAP1 POP SWAP2 SWAP1 POP JUMP JUMPDEST PUSH2 0x438 DUP3 PUSH2 0x54A JUMP JUMPDEST DUP2 ADD DUP2 DUP2 LT PUSH8 0xFFFFFFFFFFFFFFFF DUP3 GT OR ISZERO PUSH2 0x457 JUMPI PUSH2 0x456 PUSH2 0x507 JUMP JUMPDEST JUMPDEST DUP1 PUSH1 0x40 MSTORE POP POP POP JUMP JUMPDEST PUSH1 0x0 PUSH2 0x46B DUP3 PUSH2 0x425 JUMP JUMPDEST SWAP2 POP PUSH32 0xFFFFFFFFFFFFFFFFFFFFFFFFFFFFFFFFFFFFFFFFFFFFFFFFFFFFFFFFFFFFFFFF DUP3 EQ ISZERO PUSH2 0x49E JUMPI PUSH2 0x49D PUSH2 0x4A9 JUMP JUMPDEST JUMPDEST PUSH1 0x1 DUP3 ADD SWAP1 POP SWAP2 SWAP1 POP JUMP JUMPDEST PUSH32 0x4E487B7100000000000000000000000000000000000000000000000000000000 PUSH1 0x0 MSTORE PUSH1 0x11 PUSH1 0x4 MSTORE PUSH1 0x24 PUSH1 0x0 REVERT JUMPDEST PUSH32 0x4E487B7100000000000000000000000000000000000000000000000000000000 PUSH1 0x0 MSTORE PUSH1 0x32 PUSH1 0x4 MSTORE PUSH1 0x24 PUSH1 0x0 REVERT JUMPDEST PUSH32 0x4E487B7100000000000000000000000000000000000000000000000000000000 PUSH1 0x0 MSTORE PUSH1 0x41 PUSH1 0x4 MSTORE PUSH1 0x24 PUSH1 0x0 REVERT JUMPDEST PUSH1 0x0 DUP1 REVERT JUMPDEST PUSH1 0x0 DUP1 REVERT JUMPDEST PUSH1 0x0 DUP1 REVERT JUMPDEST PUSH1 0x0 DUP1 REVERT JUMPDEST PUSH1 0x0 PUSH1 0x1F NOT PUSH1 0x1F DUP4 ADD AND SWAP1 POP SWAP2 SWAP1 POP JUMP JUMPDEST PUSH2 0x564 DUP2 PUSH2 0x425 JUMP JUMPDEST DUP2 EQ PUSH2 0x56F JUMPI PUSH1 0x0 DUP1 REVERT JUMPDEST POP JUMP INVALID LOG2 PUSH5 0x6970667358 0x22 SLT KECCAK256 CALLDATASIZE 0xA9 0x26 CALLER PUSH7 0xD57CA9AB447432 0xDC PUSH4 0x61FC8D23 0xEA POP 0xB9 CALLCODE 0xE1 SSTORE PUSH26 0xB4B78C9880370264736F6C634300080700330000000000000000 "
				},
				"gasEstimates": {
					"creation": {
						"codeDepositCost": "289600",
						"executionCost": "331",
						"totalCost": "289931"
					},
					"external": {
						"addArray()": "infinite",
						"getarray()": "infinite",
						"setarray(uint256[])": "infinite"
					}
				},
				"methodIdentifiers": {
					"addArray()": "c8e9be6c",
					"getarray()": "0cfd0fae",
					"setarray(uint256[])": "4a6136c1"
				}
			},
			"storageLayout": {
				"storage": [
					{
						"astId": 5,
						"contract": "Samples/array10.sol:task",
						"label": "data",
						"offset": 0,
						"slot": "0",
						"type": "t_array(t_uint256)5_storage"
					}
				],
				"types": {
					"t_array(t_uint256)5_storage": {
						"base": "t_uint256",
						"encoding": "inplace",
						"label": "uint256[5]",
						"numberOfBytes": "160"
					},
					"t_uint256": {
						"encoding": "inplace",
						"label": "uint256",
						"numberOfBytes": "32"
					}
				}
			},
			"userdoc": {
				"kind": "user",
				"methods": {},
				"version": 1
			}
		}
	}
}