{
	"Samples/transfer.sol": {
		"trasnfer": {
			"abi": [
				{
					"inputs": [],
					"stateMutability": "nonpayable",
					"type": "constructor"
				},
				{
					"inputs": [],
					"name": "contractOwner",
					"outputs": [
						{
							"internalType": "address",
							"name": "",
							"type": "address"
						}
					],
					"stateMutability": "view",
					"type": "function"
				},
				{
					"inputs": [],
					"name": "getBalance",
					"outputs": [
						{
							"internalType": "uint256",
							"name": "",
							"type": "uint256"
						}
					],
					"stateMutability": "view",
					"type": "function"
				},
				{
					"inputs": [],
					"name": "sendEther",
					"outputs": [],
					"stateMutability": "payable",
					"type": "function"
				}
			],
			"devdoc": {
				"kind": "dev",
				"methods": {},
				"version": 1
			},
			"evm": {
				"assembly": "    /* \"Samples/transfer.sol\":59:404  contract trasnfer{\r... */\n  mstore(0x40, 0x80)\n    /* \"Samples/transfer.sol\":122:178  constructor(){\r... */\n  callvalue\n  dup1\n  iszero\n  tag_1\n  jumpi\n  0x00\n  dup1\n  revert\ntag_1:\n  pop\n    /* \"Samples/transfer.sol\":160:170  msg.sender */\n  caller\n    /* \"Samples/transfer.sol\":146:159  contractOwner */\n  0x00\n  dup1\n    /* \"Samples/transfer.sol\":146:170  contractOwner=msg.sender */\n  0x0100\n  exp\n  dup2\n  sload\n  dup2\n  0xffffffffffffffffffffffffffffffffffffffff\n  mul\n  not\n  and\n  swap1\n  dup4\n  0xffffffffffffffffffffffffffffffffffffffff\n  and\n  mul\n  or\n  swap1\n  sstore\n  pop\n    /* \"Samples/transfer.sol\":59:404  contract trasnfer{\r... */\n  dataSize(sub_0)\n  dup1\n  dataOffset(sub_0)\n  0x00\n  codecopy\n  0x00\n  return\nstop\n\nsub_0: assembly {\n        /* \"Samples/transfer.sol\":59:404  contract trasnfer{\r... */\n      mstore(0x40, 0x80)\n      jumpi(tag_1, lt(calldatasize, 0x04))\n      shr(0xe0, calldataload(0x00))\n      dup1\n      0x0e29df22\n      eq\n      tag_2\n      jumpi\n      dup1\n      0x12065fe0\n      eq\n      tag_3\n      jumpi\n      dup1\n      0xce606ee0\n      eq\n      tag_4\n      jumpi\n    tag_1:\n      0x00\n      dup1\n      revert\n        /* \"Samples/transfer.sol\":288:397  function sendEther() public payable{\r... */\n    tag_2:\n      tag_5\n      tag_6\n      jump\t// in\n    tag_5:\n      stop\n        /* \"Samples/transfer.sol\":186:280  function getBalance() public view returns(uint){\r... */\n    tag_3:\n      callvalue\n      dup1\n      iszero\n      tag_7\n      jumpi\n      0x00\n      dup1\n      revert\n    tag_7:\n      pop\n      tag_8\n      tag_9\n      jump\t// in\n    tag_8:\n      mload(0x40)\n      tag_10\n      swap2\n      swap1\n      tag_11\n      jump\t// in\n    tag_10:\n      mload(0x40)\n      dup1\n      swap2\n      sub\n      swap1\n      return\n        /* \"Samples/transfer.sol\":85:113  address public contractOwner */\n    tag_4:\n      callvalue\n      dup1\n      iszero\n      tag_12\n      jumpi\n      0x00\n      dup1\n      revert\n    tag_12:\n      pop\n      tag_13\n      tag_14\n      jump\t// in\n    tag_13:\n      mload(0x40)\n      tag_15\n      swap2\n      swap1\n      tag_16\n      jump\t// in\n    tag_15:\n      mload(0x40)\n      dup1\n      swap2\n      sub\n      swap1\n      return\n        /* \"Samples/transfer.sol\":288:397  function sendEther() public payable{\r... */\n    tag_6:\n        /* \"Samples/transfer.sol\":355:374  5000000000000000000 */\n      0x4563918244f40000\n        /* \"Samples/transfer.sol\":342:351  msg.value */\n      callvalue\n        /* \"Samples/transfer.sol\":342:374  msg.value >= 5000000000000000000 */\n      lt\n      iszero\n        /* \"Samples/transfer.sol\":334:389  require(msg.value >= 5000000000000000000, \"not enough\") */\n      tag_18\n      jumpi\n      mload(0x40)\n      0x08c379a000000000000000000000000000000000000000000000000000000000\n      dup2\n      mstore\n      0x04\n      add\n      tag_19\n      swap1\n      tag_20\n      jump\t// in\n    tag_19:\n      mload(0x40)\n      dup1\n      swap2\n      sub\n      swap1\n      revert\n    tag_18:\n        /* \"Samples/transfer.sol\":288:397  function sendEther() public payable{\r... */\n      jump\t// out\n        /* \"Samples/transfer.sol\":186:280  function getBalance() public view returns(uint){\r... */\n    tag_9:\n        /* \"Samples/transfer.sol\":228:232  uint */\n      0x00\n        /* \"Samples/transfer.sol\":251:272  address(this).balance */\n      selfbalance\n        /* \"Samples/transfer.sol\":244:272  return address(this).balance */\n      swap1\n      pop\n        /* \"Samples/transfer.sol\":186:280  function getBalance() public view returns(uint){\r... */\n      swap1\n      jump\t// out\n        /* \"Samples/transfer.sol\":85:113  address public contractOwner */\n    tag_14:\n      0x00\n      dup1\n      sload\n      swap1\n      0x0100\n      exp\n      swap1\n      div\n      0xffffffffffffffffffffffffffffffffffffffff\n      and\n      dup2\n      jump\t// out\n        /* \"#utility.yul\":7:125   */\n    tag_23:\n        /* \"#utility.yul\":94:118   */\n      tag_25\n        /* \"#utility.yul\":112:117   */\n      dup2\n        /* \"#utility.yul\":94:118   */\n      tag_26\n      jump\t// in\n    tag_25:\n        /* \"#utility.yul\":89:92   */\n      dup3\n        /* \"#utility.yul\":82:119   */\n      mstore\n        /* \"#utility.yul\":7:125   */\n      pop\n      pop\n      jump\t// out\n        /* \"#utility.yul\":131:497   */\n    tag_27:\n        /* \"#utility.yul\":273:276   */\n      0x00\n        /* \"#utility.yul\":294:361   */\n      tag_29\n        /* \"#utility.yul\":358:360   */\n      0x0a\n        /* \"#utility.yul\":353:356   */\n      dup4\n        /* \"#utility.yul\":294:361   */\n      tag_30\n      jump\t// in\n    tag_29:\n        /* \"#utility.yul\":287:361   */\n      swap2\n      pop\n        /* \"#utility.yul\":370:463   */\n      tag_31\n        /* \"#utility.yul\":459:462   */\n      dup3\n        /* \"#utility.yul\":370:463   */\n      tag_32\n      jump\t// in\n    tag_31:\n        /* \"#utility.yul\":488:490   */\n      0x20\n        /* \"#utility.yul\":483:486   */\n      dup3\n        /* \"#utility.yul\":479:491   */\n      add\n        /* \"#utility.yul\":472:491   */\n      swap1\n      pop\n        /* \"#utility.yul\":131:497   */\n      swap2\n      swap1\n      pop\n      jump\t// out\n        /* \"#utility.yul\":503:621   */\n    tag_33:\n        /* \"#utility.yul\":590:614   */\n      tag_35\n        /* \"#utility.yul\":608:613   */\n      dup2\n        /* \"#utility.yul\":590:614   */\n      tag_36\n      jump\t// in\n    tag_35:\n        /* \"#utility.yul\":585:588   */\n      dup3\n        /* \"#utility.yul\":578:615   */\n      mstore\n        /* \"#utility.yul\":503:621   */\n      pop\n      pop\n      jump\t// out\n        /* \"#utility.yul\":627:849   */\n    tag_16:\n        /* \"#utility.yul\":720:724   */\n      0x00\n        /* \"#utility.yul\":758:760   */\n      0x20\n        /* \"#utility.yul\":747:756   */\n      dup3\n        /* \"#utility.yul\":743:761   */\n      add\n        /* \"#utility.yul\":735:761   */\n      swap1\n      pop\n        /* \"#utility.yul\":771:842   */\n      tag_38\n        /* \"#utility.yul\":839:840   */\n      0x00\n        /* \"#utility.yul\":828:837   */\n      dup4\n        /* \"#utility.yul\":824:841   */\n      add\n        /* \"#utility.yul\":815:821   */\n      dup5\n        /* \"#utility.yul\":771:842   */\n      tag_23\n      jump\t// in\n    tag_38:\n        /* \"#utility.yul\":627:849   */\n      swap3\n      swap2\n      pop\n      pop\n      jump\t// out\n        /* \"#utility.yul\":855:1274   */\n    tag_20:\n        /* \"#utility.yul\":1021:1025   */\n      0x00\n        /* \"#utility.yul\":1059:1061   */\n      0x20\n        /* \"#utility.yul\":1048:1057   */\n      dup3\n        /* \"#utility.yul\":1044:1062   */\n      add\n        /* \"#utility.yul\":1036:1062   */\n      swap1\n      pop\n        /* \"#utility.yul\":1108:1117   */\n      dup2\n        /* \"#utility.yul\":1102:1106   */\n      dup2\n        /* \"#utility.yul\":1098:1118   */\n      sub\n        /* \"#utility.yul\":1094:1095   */\n      0x00\n        /* \"#utility.yul\":1083:1092   */\n      dup4\n        /* \"#utility.yul\":1079:1096   */\n      add\n        /* \"#utility.yul\":1072:1119   */\n      mstore\n        /* \"#utility.yul\":1136:1267   */\n      tag_40\n        /* \"#utility.yul\":1262:1266   */\n      dup2\n        /* \"#utility.yul\":1136:1267   */\n      tag_27\n      jump\t// in\n    tag_40:\n        /* \"#utility.yul\":1128:1267   */\n      swap1\n      pop\n        /* \"#utility.yul\":855:1274   */\n      swap2\n      swap1\n      pop\n      jump\t// out\n        /* \"#utility.yul\":1280:1502   */\n    tag_11:\n        /* \"#utility.yul\":1373:1377   */\n      0x00\n        /* \"#utility.yul\":1411:1413   */\n      0x20\n        /* \"#utility.yul\":1400:1409   */\n      dup3\n        /* \"#utility.yul\":1396:1414   */\n      add\n        /* \"#utility.yul\":1388:1414   */\n      swap1\n      pop\n        /* \"#utility.yul\":1424:1495   */\n      tag_42\n        /* \"#utility.yul\":1492:1493   */\n      0x00\n        /* \"#utility.yul\":1481:1490   */\n      dup4\n        /* \"#utility.yul\":1477:1494   */\n      add\n        /* \"#utility.yul\":1468:1474   */\n      dup5\n        /* \"#utility.yul\":1424:1495   */\n      tag_33\n      jump\t// in\n    tag_42:\n        /* \"#utility.yul\":1280:1502   */\n      swap3\n      swap2\n      pop\n      pop\n      jump\t// out\n        /* \"#utility.yul\":1508:1677   */\n    tag_30:\n        /* \"#utility.yul\":1592:1603   */\n      0x00\n        /* \"#utility.yul\":1626:1632   */\n      dup3\n        /* \"#utility.yul\":1621:1624   */\n      dup3\n        /* \"#utility.yul\":1614:1633   */\n      mstore\n        /* \"#utility.yul\":1666:1670   */\n      0x20\n        /* \"#utility.yul\":1661:1664   */\n      dup3\n        /* \"#utility.yul\":1657:1671   */\n      add\n        /* \"#utility.yul\":1642:1671   */\n      swap1\n      pop\n        /* \"#utility.yul\":1508:1677   */\n      swap3\n      swap2\n      pop\n      pop\n      jump\t// out\n        /* \"#utility.yul\":1683:1779   */\n    tag_26:\n        /* \"#utility.yul\":1720:1727   */\n      0x00\n        /* \"#utility.yul\":1749:1773   */\n      tag_45\n        /* \"#utility.yul\":1767:1772   */\n      dup3\n        /* \"#utility.yul\":1749:1773   */\n      tag_46\n      jump\t// in\n    tag_45:\n        /* \"#utility.yul\":1738:1773   */\n      swap1\n      pop\n        /* \"#utility.yul\":1683:1779   */\n      swap2\n      swap1\n      pop\n      jump\t// out\n        /* \"#utility.yul\":1785:1911   */\n    tag_46:\n        /* \"#utility.yul\":1822:1829   */\n      0x00\n        /* \"#utility.yul\":1862:1904   */\n      0xffffffffffffffffffffffffffffffffffffffff\n        /* \"#utility.yul\":1855:1860   */\n      dup3\n        /* \"#utility.yul\":1851:1905   */\n      and\n        /* \"#utility.yul\":1840:1905   */\n      swap1\n      pop\n        /* \"#utility.yul\":1785:1911   */\n      swap2\n      swap1\n      pop\n      jump\t// out\n        /* \"#utility.yul\":1917:1994   */\n    tag_36:\n        /* \"#utility.yul\":1954:1961   */\n      0x00\n        /* \"#utility.yul\":1983:1988   */\n      dup2\n        /* \"#utility.yul\":1972:1988   */\n      swap1\n      pop\n        /* \"#utility.yul\":1917:1994   */\n      swap2\n      swap1\n      pop\n      jump\t// out\n        /* \"#utility.yul\":2000:2160   */\n    tag_32:\n        /* \"#utility.yul\":2140:2152   */\n      0x6e6f7420656e6f75676800000000000000000000000000000000000000000000\n        /* \"#utility.yul\":2136:2137   */\n      0x00\n        /* \"#utility.yul\":2128:2134   */\n      dup3\n        /* \"#utility.yul\":2124:2138   */\n      add\n        /* \"#utility.yul\":2117:2153   */\n      mstore\n        /* \"#utility.yul\":2000:2160   */\n      pop\n      jump\t// out\n\n    auxdata: 0xa26469706673582212203cab6f208752a2e4d1c7113e312c864d8d97ccee447eda8cea55af307621d9d264736f6c63430008070033\n}\n",
				"bytecode": {
					"linkReferences": {},
					"object": "608060405234801561001057600080fd5b50336000806101000a81548173ffffffffffffffffffffffffffffffffffffffff021916908373ffffffffffffffffffffffffffffffffffffffff160217905550610255806100606000396000f3fe6080604052600436106100345760003560e01c80630e29df221461003957806312065fe014610043578063ce606ee01461006e575b600080fd5b610041610099565b005b34801561004f57600080fd5b506100586100e6565b604051610065919061018e565b60405180910390f35b34801561007a57600080fd5b506100836100ee565b6040516100909190610153565b60405180910390f35b674563918244f400003410156100e4576040517f08c379a00000000000000000000000000000000000000000000000000000000081526004016100db9061016e565b60405180910390fd5b565b600047905090565b60008054906101000a900473ffffffffffffffffffffffffffffffffffffffff1681565b61011b816101ba565b82525050565b600061012e600a836101a9565b9150610139826101f6565b602082019050919050565b61014d816101ec565b82525050565b60006020820190506101686000830184610112565b92915050565b6000602082019050818103600083015261018781610121565b9050919050565b60006020820190506101a36000830184610144565b92915050565b600082825260208201905092915050565b60006101c5826101cc565b9050919050565b600073ffffffffffffffffffffffffffffffffffffffff82169050919050565b6000819050919050565b7f6e6f7420656e6f7567680000000000000000000000000000000000000000000060008201525056fea26469706673582212203cab6f208752a2e4d1c7113e312c864d8d97ccee447eda8cea55af307621d9d264736f6c63430008070033",
					"opcodes": "PUSH1 0x80 PUSH1 0x40 MSTORE CALLVALUE DUP1 ISZERO PUSH2 0x10 JUMPI PUSH1 0x0 DUP1 REVERT JUMPDEST POP CALLER PUSH1 0x0 DUP1 PUSH2 0x100 EXP DUP2 SLOAD DUP2 PUSH20 0xFFFFFFFFFFFFFFFFFFFFFFFFFFFFFFFFFFFFFFFF MUL NOT AND SWAP1 DUP4 PUSH20 0xFFFFFFFFFFFFFFFFFFFFFFFFFFFFFFFFFFFFFFFF AND MUL OR SWAP1 SSTORE POP PUSH2 0x255 DUP1 PUSH2 0x60 PUSH1 0x0 CODECOPY PUSH1 0x0 RETURN INVALID PUSH1 0x80 PUSH1 0x40 MSTORE PUSH1 0x4 CALLDATASIZE LT PUSH2 0x34 JUMPI PUSH1 0x0 CALLDATALOAD PUSH1 0xE0 SHR DUP1 PUSH4 0xE29DF22 EQ PUSH2 0x39 JUMPI DUP1 PUSH4 0x12065FE0 EQ PUSH2 0x43 JUMPI DUP1 PUSH4 0xCE606EE0 EQ PUSH2 0x6E JUMPI JUMPDEST PUSH1 0x0 DUP1 REVERT JUMPDEST PUSH2 0x41 PUSH2 0x99 JUMP JUMPDEST STOP JUMPDEST CALLVALUE DUP1 ISZERO PUSH2 0x4F JUMPI PUSH1 0x0 DUP1 REVERT JUMPDEST POP PUSH2 0x58 PUSH2 0xE6 JUMP JUMPDEST PUSH1 0x40 MLOAD PUSH2 0x65 SWAP2 SWAP1 PUSH2 0x18E JUMP JUMPDEST PUSH1 0x40 MLOAD DUP1 SWAP2 SUB SWAP1 RETURN JUMPDEST CALLVALUE DUP1 ISZERO PUSH2 0x7A JUMPI PUSH1 0x0 DUP1 REVERT JUMPDEST POP PUSH2 0x83 PUSH2 0xEE JUMP JUMPDEST PUSH1 0x40 MLOAD PUSH2 0x90 SWAP2 SWAP1 PUSH2 0x153 JUMP JUMPDEST PUSH1 0x40 MLOAD DUP1 SWAP2 SUB SWAP1 RETURN JUMPDEST PUSH8 0x4563918244F40000 CALLVALUE LT ISZERO PUSH2 0xE4 JUMPI PUSH1 0x40 MLOAD PUSH32 0x8C379A000000000000000000000000000000000000000000000000000000000 DUP2 MSTORE PUSH1 0x4 ADD PUSH2 0xDB SWAP1 PUSH2 0x16E JUMP JUMPDEST PUSH1 0x40 MLOAD DUP1 SWAP2 SUB SWAP1 REVERT JUMPDEST JUMP JUMPDEST PUSH1 0x0 SELFBALANCE SWAP1 POP SWAP1 JUMP JUMPDEST PUSH1 0x0 DUP1 SLOAD SWAP1 PUSH2 0x100 EXP SWAP1 DIV PUSH20 0xFFFFFFFFFFFFFFFFFFFFFFFFFFFFFFFFFFFFFFFF AND DUP2 JUMP JUMPDEST PUSH2 0x11B DUP2 PUSH2 0x1BA JUMP JUMPDEST DUP3 MSTORE POP POP JUMP JUMPDEST PUSH1 0x0 PUSH2 0x12E PUSH1 0xA DUP4 PUSH2 0x1A9 JUMP JUMPDEST SWAP2 POP PUSH2 0x139 DUP3 PUSH2 0x1F6 JUMP JUMPDEST PUSH1 0x20 DUP3 ADD SWAP1 POP SWAP2 SWAP1 POP JUMP JUMPDEST PUSH2 0x14D DUP2 PUSH2 0x1EC JUMP JUMPDEST DUP3 MSTORE POP POP JUMP JUMPDEST PUSH1 0x0 PUSH1 0x20 DUP3 ADD SWAP1 POP PUSH2 0x168 PUSH1 0x0 DUP4 ADD DUP5 PUSH2 0x112 JUMP JUMPDEST SWAP3 SWAP2 POP POP JUMP JUMPDEST PUSH1 0x0 PUSH1 0x20 DUP3 ADD SWAP1 POP DUP2 DUP2 SUB PUSH1 0x0 DUP4 ADD MSTORE PUSH2 0x187 DUP2 PUSH2 0x121 JUMP JUMPDEST SWAP1 POP SWAP2 SWAP1 POP JUMP JUMPDEST PUSH1 0x0 PUSH1 0x20 DUP3 ADD SWAP1 POP PUSH2 0x1A3 PUSH1 0x0 DUP4 ADD DUP5 PUSH2 0x144 JUMP JUMPDEST SWAP3 SWAP2 POP POP JUMP JUMPDEST PUSH1 0x0 DUP3 DUP3 MSTORE PUSH1 0x20 DUP3 ADD SWAP1 POP SWAP3 SWAP2 POP POP JUMP JUMPDEST PUSH1 0x0 PUSH2 0x1C5 DUP3 PUSH2 0x1CC JUMP JUMPDEST SWAP1 POP SWAP2 SWAP1 POP JUMP JUMPDEST PUSH1 0x0 PUSH20 0xFFFFFFFFFFFFFFFFFFFFFFFFFFFFFFFFFFFFFFFF DUP3 AND SWAP1 POP SWAP2 SWAP1 POP JUMP JUMPDEST PUSH1 0x0 DUP2 SWAP1 POP SWAP2 SWAP1 POP JUMP JUMPDEST PUSH32 0x6E6F7420656E6F75676800000000000000000000000000000000000000000000 PUSH1 0x0 DUP3 ADD MSTORE POP JUMP INVALID LOG2 PUSH5 0x6970667358 0x22 SLT KECCAK256 EXTCODECOPY 0xAB PUSH16 0x208752A2E4D1C7113E312C864D8D97CC 0xEE DIFFICULTY PUSH31 0xDA8CEA55AF307621D9D264736F6C6343000807003300000000000000000000 "
				},
				"gasEstimates": {
					"creation": {
						"codeDepositCost": "119400",
						"executionCost": "24431",
						"totalCost": "143831"
					},
					"external": {
						"contractOwner()": "2533",
						"getBalance()": "339",
						"sendEther()": "412"
					}
				},
				"methodIdentifiers": {
					"contractOwner()": "ce606ee0",
					"getBalance()": "12065fe0",
					"sendEther()": "0e29df22"
				}
			},
			"storageLayout": {
				"storage": [
					{
						"astId": 3,
						"contract": "Samples/transfer.sol:trasnfer",
						"label": "contractOwner",
						"offset": 0,
						"slot": "0",
						"type": "t_address"
					}
				],
				"types": {
					"t_address": {
						"encoding": "inplace",
						"label": "address",
						"numberOfBytes": "20"
					}
				}
			},
			"userdoc": {
				"kind": "user",
				"methods": {},
				"version": 1
			}
		}
	}
}