{
	"Samples/bankCurrency.sol": {
		"bankingSystem": {
			"abi": [
				{
					"inputs": [],
					"stateMutability": "nonpayable",
					"type": "constructor"
				},
				{
					"stateMutability": "payable",
					"type": "fallback"
				},
				{
					"inputs": [
						{
							"internalType": "address",
							"name": "",
							"type": "address"
						}
					],
					"name": "balance",
					"outputs": [
						{
							"internalType": "uint256",
							"name": "",
							"type": "uint256"
						}
					],
					"stateMutability": "view",
					"type": "function"
				},
				{
					"inputs": [],
					"name": "deposit",
					"outputs": [],
					"stateMutability": "payable",
					"type": "function"
				},
				{
					"inputs": [
						{
							"internalType": "address",
							"name": "_sender",
							"type": "address"
						},
						{
							"internalType": "uint256",
							"name": "amount",
							"type": "uint256"
						}
					],
					"name": "emergencyWithdraw",
					"outputs": [],
					"stateMutability": "payable",
					"type": "function"
				},
				{
					"inputs": [],
					"name": "getBalance",
					"outputs": [
						{
							"internalType": "uint256",
							"name": "",
							"type": "uint256"
						}
					],
					"stateMutability": "view",
					"type": "function"
				},
				{
					"inputs": [],
					"name": "owner",
					"outputs": [
						{
							"internalType": "address",
							"name": "",
							"type": "address"
						}
					],
					"stateMutability": "view",
					"type": "function"
				},
				{
					"inputs": [
						{
							"internalType": "address",
							"name": "Sender",
							"type": "address"
						},
						{
							"internalType": "uint256",
							"name": "amount",
							"type": "uint256"
						}
					],
					"name": "sendFunds",
					"outputs": [],
					"stateMutability": "nonpayable",
					"type": "function"
				},
				{
					"inputs": [
						{
							"internalType": "uint256",
							"name": "amount",
							"type": "uint256"
						}
					],
					"name": "withdraw",
					"outputs": [
						{
							"internalType": "uint256",
							"name": "",
							"type": "uint256"
						}
					],
					"stateMutability": "payable",
					"type": "function"
				},
				{
					"stateMutability": "payable",
					"type": "receive"
				}
			],
			"devdoc": {
				"kind": "dev",
				"methods": {},
				"version": 1
			},
			"evm": {
				"assembly": "    /* \"Samples/bankCurrency.sol\":60:1224  contract bankingSystem{... */\n  mstore(0x40, 0x80)\n    /* \"Samples/bankCurrency.sol\":167:218  constructor() {... */\n  callvalue\n  dup1\n  iszero\n  tag_1\n  jumpi\n  0x00\n  dup1\n  revert\ntag_1:\n  pop\n    /* \"Samples/bankCurrency.sol\":200:210  msg.sender */\n  caller\n    /* \"Samples/bankCurrency.sol\":192:197  owner */\n  0x00\n  dup1\n    /* \"Samples/bankCurrency.sol\":192:210  owner = msg.sender */\n  0x0100\n  exp\n  dup2\n  sload\n  dup2\n  0xffffffffffffffffffffffffffffffffffffffff\n  mul\n  not\n  and\n  swap1\n  dup4\n  0xffffffffffffffffffffffffffffffffffffffff\n  and\n  mul\n  or\n  swap1\n  sstore\n  pop\n    /* \"Samples/bankCurrency.sol\":60:1224  contract bankingSystem{... */\n  dataSize(sub_0)\n  dup1\n  dataOffset(sub_0)\n  0x00\n  codecopy\n  0x00\n  return\nstop\n\nsub_0: assembly {\n        /* \"Samples/bankCurrency.sol\":60:1224  contract bankingSystem{... */\n      mstore(0x40, 0x80)\n      jumpi(tag_1, lt(calldatasize, 0x04))\n      shr(0xe0, calldataload(0x00))\n      dup1\n      0x8da5cb5b\n      gt\n      tag_10\n      jumpi\n      dup1\n      0x8da5cb5b\n      eq\n      tag_6\n      jumpi\n      dup1\n      0x95ccea67\n      eq\n      tag_7\n      jumpi\n      dup1\n      0xd0e30db0\n      eq\n      tag_8\n      jumpi\n      dup1\n      0xe3d670d7\n      eq\n      tag_9\n      jumpi\n      jump(tag_2)\n    tag_10:\n      dup1\n      0x12065fe0\n      eq\n      tag_3\n      jumpi\n      dup1\n      0x2e1a7d4d\n      eq\n      tag_4\n      jumpi\n      dup1\n      0x6f64234e\n      eq\n      tag_5\n      jumpi\n      jump(tag_2)\n    tag_1:\n      jumpi(tag_2, calldatasize)\n      stop\n    tag_2:\n      stop\n        /* \"Samples/bankCurrency.sol\":815:909  function getBalance() public view returns (uint) {... */\n    tag_3:\n      callvalue\n      dup1\n      iszero\n      tag_15\n      jumpi\n      0x00\n      dup1\n      revert\n    tag_15:\n      pop\n      tag_16\n      tag_17\n      jump\t// in\n    tag_16:\n      mload(0x40)\n      tag_18\n      swap2\n      swap1\n      tag_19\n      jump\t// in\n    tag_18:\n      mload(0x40)\n      dup1\n      swap2\n      sub\n      swap1\n      return\n        /* \"Samples/bankCurrency.sol\":391:608  function withdraw(uint amount) public payable returns(uint) {... */\n    tag_4:\n      tag_20\n      0x04\n      dup1\n      calldatasize\n      sub\n      dup2\n      add\n      swap1\n      tag_21\n      swap2\n      swap1\n      tag_22\n      jump\t// in\n    tag_21:\n      tag_23\n      jump\t// in\n    tag_20:\n      mload(0x40)\n      tag_24\n      swap2\n      swap1\n      tag_19\n      jump\t// in\n    tag_24:\n      mload(0x40)\n      dup1\n      swap2\n      sub\n      swap1\n      return\n        /* \"Samples/bankCurrency.sol\":614:809  function sendFunds(address Sender, uint amount) public {... */\n    tag_5:\n      callvalue\n      dup1\n      iszero\n      tag_25\n      jumpi\n      0x00\n      dup1\n      revert\n    tag_25:\n      pop\n      tag_26\n      0x04\n      dup1\n      calldatasize\n      sub\n      dup2\n      add\n      swap1\n      tag_27\n      swap2\n      swap1\n      tag_28\n      jump\t// in\n    tag_27:\n      tag_29\n      jump\t// in\n    tag_26:\n      stop\n        /* \"Samples/bankCurrency.sol\":91:111  address public owner */\n    tag_6:\n      callvalue\n      dup1\n      iszero\n      tag_30\n      jumpi\n      0x00\n      dup1\n      revert\n    tag_30:\n      pop\n      tag_31\n      tag_32\n      jump\t// in\n    tag_31:\n      mload(0x40)\n      tag_33\n      swap2\n      swap1\n      tag_34\n      jump\t// in\n    tag_33:\n      mload(0x40)\n      dup1\n      swap2\n      sub\n      swap1\n      return\n        /* \"Samples/bankCurrency.sol\":917:1142  function emergencyWithdraw(address _sender,uint amount) public payable {... */\n    tag_7:\n      tag_35\n      0x04\n      dup1\n      calldatasize\n      sub\n      dup2\n      add\n      swap1\n      tag_36\n      swap2\n      swap1\n      tag_28\n      jump\t// in\n    tag_36:\n      tag_37\n      jump\t// in\n    tag_35:\n      stop\n        /* \"Samples/bankCurrency.sol\":226:385  function deposit() public payable {... */\n    tag_8:\n      tag_38\n      tag_39\n      jump\t// in\n    tag_38:\n      stop\n        /* \"Samples/bankCurrency.sol\":118:157  mapping(address => uint) public balance */\n    tag_9:\n      callvalue\n      dup1\n      iszero\n      tag_40\n      jumpi\n      0x00\n      dup1\n      revert\n    tag_40:\n      pop\n      tag_41\n      0x04\n      dup1\n      calldatasize\n      sub\n      dup2\n      add\n      swap1\n      tag_42\n      swap2\n      swap1\n      tag_43\n      jump\t// in\n    tag_42:\n      tag_44\n      jump\t// in\n    tag_41:\n      mload(0x40)\n      tag_45\n      swap2\n      swap1\n      tag_19\n      jump\t// in\n    tag_45:\n      mload(0x40)\n      dup1\n      swap2\n      sub\n      swap1\n      return\n        /* \"Samples/bankCurrency.sol\":815:909  function getBalance() public view returns (uint) {... */\n    tag_17:\n        /* \"Samples/bankCurrency.sol\":858:862  uint */\n      0x00\n        /* \"Samples/bankCurrency.sol\":882:889  balance */\n      0x01\n        /* \"Samples/bankCurrency.sol\":882:901  balance[msg.sender] */\n      0x00\n        /* \"Samples/bankCurrency.sol\":890:900  msg.sender */\n      caller\n        /* \"Samples/bankCurrency.sol\":882:901  balance[msg.sender] */\n      0xffffffffffffffffffffffffffffffffffffffff\n      and\n      0xffffffffffffffffffffffffffffffffffffffff\n      and\n      dup2\n      mstore\n      0x20\n      add\n      swap1\n      dup2\n      mstore\n      0x20\n      add\n      0x00\n      keccak256\n      sload\n        /* \"Samples/bankCurrency.sol\":875:901  return balance[msg.sender] */\n      swap1\n      pop\n        /* \"Samples/bankCurrency.sol\":815:909  function getBalance() public view returns (uint) {... */\n      swap1\n      jump\t// out\n        /* \"Samples/bankCurrency.sol\":391:608  function withdraw(uint amount) public payable returns(uint) {... */\n    tag_23:\n        /* \"Samples/bankCurrency.sol\":445:449  uint */\n      0x00\n        /* \"Samples/bankCurrency.sol\":479:480  0 */\n      dup1\n        /* \"Samples/bankCurrency.sol\":470:476  amount */\n      dup3\n        /* \"Samples/bankCurrency.sol\":470:480  amount > 0 */\n      gt\n        /* \"Samples/bankCurrency.sol\":462:523  require(amount > 0, \"Withdraw amount must be greater than 0\") */\n      tag_48\n      jumpi\n      mload(0x40)\n      0x08c379a000000000000000000000000000000000000000000000000000000000\n      dup2\n      mstore\n      0x04\n      add\n      tag_49\n      swap1\n      tag_50\n      jump\t// in\n    tag_49:\n      mload(0x40)\n      dup1\n      swap2\n      sub\n      swap1\n      revert\n    tag_48:\n        /* \"Samples/bankCurrency.sol\":557:563  amount */\n      dup2\n        /* \"Samples/bankCurrency.sol\":534:541  balance */\n      0x01\n        /* \"Samples/bankCurrency.sol\":534:553  balance[msg.sender] */\n      0x00\n        /* \"Samples/bankCurrency.sol\":542:552  msg.sender */\n      caller\n        /* \"Samples/bankCurrency.sol\":534:553  balance[msg.sender] */\n      0xffffffffffffffffffffffffffffffffffffffff\n      and\n      0xffffffffffffffffffffffffffffffffffffffff\n      and\n      dup2\n      mstore\n      0x20\n      add\n      swap1\n      dup2\n      mstore\n      0x20\n      add\n      0x00\n      keccak256\n      0x00\n        /* \"Samples/bankCurrency.sol\":534:563  balance[msg.sender] -= amount */\n      dup3\n      dup3\n      sload\n      tag_51\n      swap2\n      swap1\n      tag_52\n      jump\t// in\n    tag_51:\n      swap3\n      pop\n      pop\n      dup2\n      swap1\n      sstore\n      pop\n        /* \"Samples/bankCurrency.sol\":581:588  balance */\n      0x01\n        /* \"Samples/bankCurrency.sol\":581:600  balance[msg.sender] */\n      0x00\n        /* \"Samples/bankCurrency.sol\":589:599  msg.sender */\n      caller\n        /* \"Samples/bankCurrency.sol\":581:600  balance[msg.sender] */\n      0xffffffffffffffffffffffffffffffffffffffff\n      and\n      0xffffffffffffffffffffffffffffffffffffffff\n      and\n      dup2\n      mstore\n      0x20\n      add\n      swap1\n      dup2\n      mstore\n      0x20\n      add\n      0x00\n      keccak256\n      sload\n        /* \"Samples/bankCurrency.sol\":574:600  return balance[msg.sender] */\n      swap1\n      pop\n        /* \"Samples/bankCurrency.sol\":391:608  function withdraw(uint amount) public payable returns(uint) {... */\n      swap2\n      swap1\n      pop\n      jump\t// out\n        /* \"Samples/bankCurrency.sol\":614:809  function sendFunds(address Sender, uint amount) public {... */\n    tag_29:\n        /* \"Samples/bankCurrency.sol\":693:694  0 */\n      0x00\n        /* \"Samples/bankCurrency.sol\":684:690  amount */\n      dup2\n        /* \"Samples/bankCurrency.sol\":684:694  amount > 0 */\n      gt\n        /* \"Samples/bankCurrency.sol\":676:737  require(amount > 0, \"Transfer amount must be greater than 0\") */\n      tag_54\n      jumpi\n      mload(0x40)\n      0x08c379a000000000000000000000000000000000000000000000000000000000\n      dup2\n      mstore\n      0x04\n      add\n      tag_55\n      swap1\n      tag_56\n      jump\t// in\n    tag_55:\n      mload(0x40)\n      dup1\n      swap2\n      sub\n      swap1\n      revert\n    tag_54:\n        /* \"Samples/bankCurrency.sol\":767:773  amount */\n      dup1\n        /* \"Samples/bankCurrency.sol\":744:751  balance */\n      0x01\n        /* \"Samples/bankCurrency.sol\":744:763  balance[msg.sender] */\n      0x00\n        /* \"Samples/bankCurrency.sol\":752:762  msg.sender */\n      caller\n        /* \"Samples/bankCurrency.sol\":744:763  balance[msg.sender] */\n      0xffffffffffffffffffffffffffffffffffffffff\n      and\n      0xffffffffffffffffffffffffffffffffffffffff\n      and\n      dup2\n      mstore\n      0x20\n      add\n      swap1\n      dup2\n      mstore\n      0x20\n      add\n      0x00\n      keccak256\n      0x00\n        /* \"Samples/bankCurrency.sol\":744:773  balance[msg.sender] -= amount */\n      dup3\n      dup3\n      sload\n      tag_57\n      swap2\n      swap1\n      tag_52\n      jump\t// in\n    tag_57:\n      swap3\n      pop\n      pop\n      dup2\n      swap1\n      sstore\n      pop\n        /* \"Samples/bankCurrency.sol\":799:805  amount */\n      dup1\n        /* \"Samples/bankCurrency.sol\":780:787  balance */\n      0x01\n        /* \"Samples/bankCurrency.sol\":780:795  balance[Sender] */\n      0x00\n        /* \"Samples/bankCurrency.sol\":788:794  Sender */\n      dup5\n        /* \"Samples/bankCurrency.sol\":780:795  balance[Sender] */\n      0xffffffffffffffffffffffffffffffffffffffff\n      and\n      0xffffffffffffffffffffffffffffffffffffffff\n      and\n      dup2\n      mstore\n      0x20\n      add\n      swap1\n      dup2\n      mstore\n      0x20\n      add\n      0x00\n      keccak256\n      0x00\n        /* \"Samples/bankCurrency.sol\":780:805  balance[Sender] += amount */\n      dup3\n      dup3\n      sload\n      tag_58\n      swap2\n      swap1\n      tag_59\n      jump\t// in\n    tag_58:\n      swap3\n      pop\n      pop\n      dup2\n      swap1\n      sstore\n      pop\n        /* \"Samples/bankCurrency.sol\":614:809  function sendFunds(address Sender, uint amount) public {... */\n      pop\n      pop\n      jump\t// out\n        /* \"Samples/bankCurrency.sol\":91:111  address public owner */\n    tag_32:\n      0x00\n      dup1\n      sload\n      swap1\n      0x0100\n      exp\n      swap1\n      div\n      0xffffffffffffffffffffffffffffffffffffffff\n      and\n      dup2\n      jump\t// out\n        /* \"Samples/bankCurrency.sol\":917:1142  function emergencyWithdraw(address _sender,uint amount) public payable {... */\n    tag_37:\n        /* \"Samples/bankCurrency.sol\":1017:1022  owner */\n      0x00\n      dup1\n      sload\n      swap1\n      0x0100\n      exp\n      swap1\n      div\n      0xffffffffffffffffffffffffffffffffffffffff\n      and\n        /* \"Samples/bankCurrency.sol\":1003:1022  msg.sender == owner */\n      0xffffffffffffffffffffffffffffffffffffffff\n      and\n        /* \"Samples/bankCurrency.sol\":1003:1013  msg.sender */\n      caller\n        /* \"Samples/bankCurrency.sol\":1003:1022  msg.sender == owner */\n      0xffffffffffffffffffffffffffffffffffffffff\n      and\n      eq\n        /* \"Samples/bankCurrency.sol\":995:1037  require(msg.sender == owner, \"Only owner\") */\n      tag_61\n      jumpi\n      mload(0x40)\n      0x08c379a000000000000000000000000000000000000000000000000000000000\n      dup2\n      mstore\n      0x04\n      add\n      tag_62\n      swap1\n      tag_63\n      jump\t// in\n    tag_62:\n      mload(0x40)\n      dup1\n      swap2\n      sub\n      swap1\n      revert\n    tag_61:\n        /* \"Samples/bankCurrency.sol\":1061:1062  0 */\n      0x00\n        /* \"Samples/bankCurrency.sol\":1052:1058  amount */\n      dup2\n        /* \"Samples/bankCurrency.sol\":1052:1062  amount > 0 */\n      gt\n        /* \"Samples/bankCurrency.sol\":1044:1105  require(amount > 0, \"Withdraw amount must be greater than 0\") */\n      tag_64\n      jumpi\n      mload(0x40)\n      0x08c379a000000000000000000000000000000000000000000000000000000000\n      dup2\n      mstore\n      0x04\n      add\n      tag_65\n      swap1\n      tag_50\n      jump\t// in\n    tag_65:\n      mload(0x40)\n      dup1\n      swap2\n      sub\n      swap1\n      revert\n    tag_64:\n        /* \"Samples/bankCurrency.sol\":1132:1138  amount */\n      dup1\n        /* \"Samples/bankCurrency.sol\":1112:1119  balance */\n      0x01\n        /* \"Samples/bankCurrency.sol\":1112:1128  balance[_sender] */\n      0x00\n        /* \"Samples/bankCurrency.sol\":1120:1127  _sender */\n      dup5\n        /* \"Samples/bankCurrency.sol\":1112:1128  balance[_sender] */\n      0xffffffffffffffffffffffffffffffffffffffff\n      and\n      0xffffffffffffffffffffffffffffffffffffffff\n      and\n      dup2\n      mstore\n      0x20\n      add\n      swap1\n      dup2\n      mstore\n      0x20\n      add\n      0x00\n      keccak256\n      0x00\n        /* \"Samples/bankCurrency.sol\":1112:1138  balance[_sender] -= amount */\n      dup3\n      dup3\n      sload\n      tag_66\n      swap2\n      swap1\n      tag_52\n      jump\t// in\n    tag_66:\n      swap3\n      pop\n      pop\n      dup2\n      swap1\n      sstore\n      pop\n        /* \"Samples/bankCurrency.sol\":917:1142  function emergencyWithdraw(address _sender,uint amount) public payable {... */\n      pop\n      pop\n      jump\t// out\n        /* \"Samples/bankCurrency.sol\":226:385  function deposit() public payable {... */\n    tag_39:\n        /* \"Samples/bankCurrency.sol\":291:292  0 */\n      0x00\n        /* \"Samples/bankCurrency.sol\":279:288  msg.value */\n      callvalue\n        /* \"Samples/bankCurrency.sol\":279:292  msg.value > 0 */\n      gt\n        /* \"Samples/bankCurrency.sol\":271:334  require(msg.value > 0, \"Deposit amount must be greater than 0\") */\n      tag_68\n      jumpi\n      mload(0x40)\n      0x08c379a000000000000000000000000000000000000000000000000000000000\n      dup2\n      mstore\n      0x04\n      add\n      tag_69\n      swap1\n      tag_70\n      jump\t// in\n    tag_69:\n      mload(0x40)\n      dup1\n      swap2\n      sub\n      swap1\n      revert\n    tag_68:\n        /* \"Samples/bankCurrency.sol\":368:377  msg.value */\n      callvalue\n        /* \"Samples/bankCurrency.sol\":345:352  balance */\n      0x01\n        /* \"Samples/bankCurrency.sol\":345:364  balance[msg.sender] */\n      0x00\n        /* \"Samples/bankCurrency.sol\":353:363  msg.sender */\n      caller\n        /* \"Samples/bankCurrency.sol\":345:364  balance[msg.sender] */\n      0xffffffffffffffffffffffffffffffffffffffff\n      and\n      0xffffffffffffffffffffffffffffffffffffffff\n      and\n      dup2\n      mstore\n      0x20\n      add\n      swap1\n      dup2\n      mstore\n      0x20\n      add\n      0x00\n      keccak256\n      0x00\n        /* \"Samples/bankCurrency.sol\":345:377  balance[msg.sender] += msg.value */\n      dup3\n      dup3\n      sload\n      tag_71\n      swap2\n      swap1\n      tag_59\n      jump\t// in\n    tag_71:\n      swap3\n      pop\n      pop\n      dup2\n      swap1\n      sstore\n      pop\n        /* \"Samples/bankCurrency.sol\":226:385  function deposit() public payable {... */\n      jump\t// out\n        /* \"Samples/bankCurrency.sol\":118:157  mapping(address => uint) public balance */\n    tag_44:\n      mstore(0x20, 0x01)\n      dup1\n      0x00\n      mstore\n      keccak256(0x00, 0x40)\n      0x00\n      swap2\n      pop\n      swap1\n      pop\n      sload\n      dup2\n      jump\t// out\n        /* \"#utility.yul\":7:84   */\n    tag_72:\n        /* \"#utility.yul\":44:51   */\n      0x00\n        /* \"#utility.yul\":73:78   */\n      dup2\n        /* \"#utility.yul\":62:78   */\n      swap1\n      pop\n        /* \"#utility.yul\":7:84   */\n      swap2\n      swap1\n      pop\n      jump\t// out\n        /* \"#utility.yul\":90:208   */\n    tag_73:\n        /* \"#utility.yul\":177:201   */\n      tag_97\n        /* \"#utility.yul\":195:200   */\n      dup2\n        /* \"#utility.yul\":177:201   */\n      tag_72\n      jump\t// in\n    tag_97:\n        /* \"#utility.yul\":172:175   */\n      dup3\n        /* \"#utility.yul\":165:202   */\n      mstore\n        /* \"#utility.yul\":90:208   */\n      pop\n      pop\n      jump\t// out\n        /* \"#utility.yul\":214:436   */\n    tag_19:\n        /* \"#utility.yul\":307:311   */\n      0x00\n        /* \"#utility.yul\":345:347   */\n      0x20\n        /* \"#utility.yul\":334:343   */\n      dup3\n        /* \"#utility.yul\":330:348   */\n      add\n        /* \"#utility.yul\":322:348   */\n      swap1\n      pop\n        /* \"#utility.yul\":358:429   */\n      tag_99\n        /* \"#utility.yul\":426:427   */\n      0x00\n        /* \"#utility.yul\":415:424   */\n      dup4\n        /* \"#utility.yul\":411:428   */\n      add\n        /* \"#utility.yul\":402:408   */\n      dup5\n        /* \"#utility.yul\":358:429   */\n      tag_73\n      jump\t// in\n    tag_99:\n        /* \"#utility.yul\":214:436   */\n      swap3\n      swap2\n      pop\n      pop\n      jump\t// out\n        /* \"#utility.yul\":523:640   */\n    tag_75:\n        /* \"#utility.yul\":632:633   */\n      0x00\n        /* \"#utility.yul\":629:630   */\n      dup1\n        /* \"#utility.yul\":622:634   */\n      revert\n        /* \"#utility.yul\":769:891   */\n    tag_77:\n        /* \"#utility.yul\":842:866   */\n      tag_104\n        /* \"#utility.yul\":860:865   */\n      dup2\n        /* \"#utility.yul\":842:866   */\n      tag_72\n      jump\t// in\n    tag_104:\n        /* \"#utility.yul\":835:840   */\n      dup2\n        /* \"#utility.yul\":832:867   */\n      eq\n        /* \"#utility.yul\":822:885   */\n      tag_105\n      jumpi\n        /* \"#utility.yul\":881:882   */\n      0x00\n        /* \"#utility.yul\":878:879   */\n      dup1\n        /* \"#utility.yul\":871:883   */\n      revert\n        /* \"#utility.yul\":822:885   */\n    tag_105:\n        /* \"#utility.yul\":769:891   */\n      pop\n      jump\t// out\n        /* \"#utility.yul\":897:1036   */\n    tag_78:\n        /* \"#utility.yul\":943:948   */\n      0x00\n        /* \"#utility.yul\":981:987   */\n      dup2\n        /* \"#utility.yul\":968:988   */\n      calldataload\n        /* \"#utility.yul\":959:988   */\n      swap1\n      pop\n        /* \"#utility.yul\":997:1030   */\n      tag_107\n        /* \"#utility.yul\":1024:1029   */\n      dup2\n        /* \"#utility.yul\":997:1030   */\n      tag_77\n      jump\t// in\n    tag_107:\n        /* \"#utility.yul\":897:1036   */\n      swap3\n      swap2\n      pop\n      pop\n      jump\t// out\n        /* \"#utility.yul\":1042:1371   */\n    tag_22:\n        /* \"#utility.yul\":1101:1107   */\n      0x00\n        /* \"#utility.yul\":1150:1152   */\n      0x20\n        /* \"#utility.yul\":1138:1147   */\n      dup3\n        /* \"#utility.yul\":1129:1136   */\n      dup5\n        /* \"#utility.yul\":1125:1148   */\n      sub\n        /* \"#utility.yul\":1121:1153   */\n      slt\n        /* \"#utility.yul\":1118:1237   */\n      iszero\n      tag_109\n      jumpi\n        /* \"#utility.yul\":1156:1235   */\n      tag_110\n      tag_75\n      jump\t// in\n    tag_110:\n        /* \"#utility.yul\":1118:1237   */\n    tag_109:\n        /* \"#utility.yul\":1276:1277   */\n      0x00\n        /* \"#utility.yul\":1301:1354   */\n      tag_111\n        /* \"#utility.yul\":1346:1353   */\n      dup5\n        /* \"#utility.yul\":1337:1343   */\n      dup3\n        /* \"#utility.yul\":1326:1335   */\n      dup6\n        /* \"#utility.yul\":1322:1344   */\n      add\n        /* \"#utility.yul\":1301:1354   */\n      tag_78\n      jump\t// in\n    tag_111:\n        /* \"#utility.yul\":1291:1354   */\n      swap2\n      pop\n        /* \"#utility.yul\":1247:1364   */\n      pop\n        /* \"#utility.yul\":1042:1371   */\n      swap3\n      swap2\n      pop\n      pop\n      jump\t// out\n        /* \"#utility.yul\":1377:1503   */\n    tag_79:\n        /* \"#utility.yul\":1414:1421   */\n      0x00\n        /* \"#utility.yul\":1454:1496   */\n      0xffffffffffffffffffffffffffffffffffffffff\n        /* \"#utility.yul\":1447:1452   */\n      dup3\n        /* \"#utility.yul\":1443:1497   */\n      and\n        /* \"#utility.yul\":1432:1497   */\n      swap1\n      pop\n        /* \"#utility.yul\":1377:1503   */\n      swap2\n      swap1\n      pop\n      jump\t// out\n        /* \"#utility.yul\":1509:1605   */\n    tag_80:\n        /* \"#utility.yul\":1546:1553   */\n      0x00\n        /* \"#utility.yul\":1575:1599   */\n      tag_114\n        /* \"#utility.yul\":1593:1598   */\n      dup3\n        /* \"#utility.yul\":1575:1599   */\n      tag_79\n      jump\t// in\n    tag_114:\n        /* \"#utility.yul\":1564:1599   */\n      swap1\n      pop\n        /* \"#utility.yul\":1509:1605   */\n      swap2\n      swap1\n      pop\n      jump\t// out\n        /* \"#utility.yul\":1611:1733   */\n    tag_81:\n        /* \"#utility.yul\":1684:1708   */\n      tag_116\n        /* \"#utility.yul\":1702:1707   */\n      dup2\n        /* \"#utility.yul\":1684:1708   */\n      tag_80\n      jump\t// in\n    tag_116:\n        /* \"#utility.yul\":1677:1682   */\n      dup2\n        /* \"#utility.yul\":1674:1709   */\n      eq\n        /* \"#utility.yul\":1664:1727   */\n      tag_117\n      jumpi\n        /* \"#utility.yul\":1723:1724   */\n      0x00\n        /* \"#utility.yul\":1720:1721   */\n      dup1\n        /* \"#utility.yul\":1713:1725   */\n      revert\n        /* \"#utility.yul\":1664:1727   */\n    tag_117:\n        /* \"#utility.yul\":1611:1733   */\n      pop\n      jump\t// out\n        /* \"#utility.yul\":1739:1878   */\n    tag_82:\n        /* \"#utility.yul\":1785:1790   */\n      0x00\n        /* \"#utility.yul\":1823:1829   */\n      dup2\n        /* \"#utility.yul\":1810:1830   */\n      calldataload\n        /* \"#utility.yul\":1801:1830   */\n      swap1\n      pop\n        /* \"#utility.yul\":1839:1872   */\n      tag_119\n        /* \"#utility.yul\":1866:1871   */\n      dup2\n        /* \"#utility.yul\":1839:1872   */\n      tag_81\n      jump\t// in\n    tag_119:\n        /* \"#utility.yul\":1739:1878   */\n      swap3\n      swap2\n      pop\n      pop\n      jump\t// out\n        /* \"#utility.yul\":1884:2358   */\n    tag_28:\n        /* \"#utility.yul\":1952:1958   */\n      0x00\n        /* \"#utility.yul\":1960:1966   */\n      dup1\n        /* \"#utility.yul\":2009:2011   */\n      0x40\n        /* \"#utility.yul\":1997:2006   */\n      dup4\n        /* \"#utility.yul\":1988:1995   */\n      dup6\n        /* \"#utility.yul\":1984:2007   */\n      sub\n        /* \"#utility.yul\":1980:2012   */\n      slt\n        /* \"#utility.yul\":1977:2096   */\n      iszero\n      tag_121\n      jumpi\n        /* \"#utility.yul\":2015:2094   */\n      tag_122\n      tag_75\n      jump\t// in\n    tag_122:\n        /* \"#utility.yul\":1977:2096   */\n    tag_121:\n        /* \"#utility.yul\":2135:2136   */\n      0x00\n        /* \"#utility.yul\":2160:2213   */\n      tag_123\n        /* \"#utility.yul\":2205:2212   */\n      dup6\n        /* \"#utility.yul\":2196:2202   */\n      dup3\n        /* \"#utility.yul\":2185:2194   */\n      dup7\n        /* \"#utility.yul\":2181:2203   */\n      add\n        /* \"#utility.yul\":2160:2213   */\n      tag_82\n      jump\t// in\n    tag_123:\n        /* \"#utility.yul\":2150:2213   */\n      swap3\n      pop\n        /* \"#utility.yul\":2106:2223   */\n      pop\n        /* \"#utility.yul\":2262:2264   */\n      0x20\n        /* \"#utility.yul\":2288:2341   */\n      tag_124\n        /* \"#utility.yul\":2333:2340   */\n      dup6\n        /* \"#utility.yul\":2324:2330   */\n      dup3\n        /* \"#utility.yul\":2313:2322   */\n      dup7\n        /* \"#utility.yul\":2309:2331   */\n      add\n        /* \"#utility.yul\":2288:2341   */\n      tag_78\n      jump\t// in\n    tag_124:\n        /* \"#utility.yul\":2278:2341   */\n      swap2\n      pop\n        /* \"#utility.yul\":2233:2351   */\n      pop\n        /* \"#utility.yul\":1884:2358   */\n      swap3\n      pop\n      swap3\n      swap1\n      pop\n      jump\t// out\n        /* \"#utility.yul\":2364:2482   */\n    tag_83:\n        /* \"#utility.yul\":2451:2475   */\n      tag_126\n        /* \"#utility.yul\":2469:2474   */\n      dup2\n        /* \"#utility.yul\":2451:2475   */\n      tag_80\n      jump\t// in\n    tag_126:\n        /* \"#utility.yul\":2446:2449   */\n      dup3\n        /* \"#utility.yul\":2439:2476   */\n      mstore\n        /* \"#utility.yul\":2364:2482   */\n      pop\n      pop\n      jump\t// out\n        /* \"#utility.yul\":2488:2710   */\n    tag_34:\n        /* \"#utility.yul\":2581:2585   */\n      0x00\n        /* \"#utility.yul\":2619:2621   */\n      0x20\n        /* \"#utility.yul\":2608:2617   */\n      dup3\n        /* \"#utility.yul\":2604:2622   */\n      add\n        /* \"#utility.yul\":2596:2622   */\n      swap1\n      pop\n        /* \"#utility.yul\":2632:2703   */\n      tag_128\n        /* \"#utility.yul\":2700:2701   */\n      0x00\n        /* \"#utility.yul\":2689:2698   */\n      dup4\n        /* \"#utility.yul\":2685:2702   */\n      add\n        /* \"#utility.yul\":2676:2682   */\n      dup5\n        /* \"#utility.yul\":2632:2703   */\n      tag_83\n      jump\t// in\n    tag_128:\n        /* \"#utility.yul\":2488:2710   */\n      swap3\n      swap2\n      pop\n      pop\n      jump\t// out\n        /* \"#utility.yul\":2716:3045   */\n    tag_43:\n        /* \"#utility.yul\":2775:2781   */\n      0x00\n        /* \"#utility.yul\":2824:2826   */\n      0x20\n        /* \"#utility.yul\":2812:2821   */\n      dup3\n        /* \"#utility.yul\":2803:2810   */\n      dup5\n        /* \"#utility.yul\":2799:2822   */\n      sub\n        /* \"#utility.yul\":2795:2827   */\n      slt\n        /* \"#utility.yul\":2792:2911   */\n      iszero\n      tag_130\n      jumpi\n        /* \"#utility.yul\":2830:2909   */\n      tag_131\n      tag_75\n      jump\t// in\n    tag_131:\n        /* \"#utility.yul\":2792:2911   */\n    tag_130:\n        /* \"#utility.yul\":2950:2951   */\n      0x00\n        /* \"#utility.yul\":2975:3028   */\n      tag_132\n        /* \"#utility.yul\":3020:3027   */\n      dup5\n        /* \"#utility.yul\":3011:3017   */\n      dup3\n        /* \"#utility.yul\":3000:3009   */\n      dup6\n        /* \"#utility.yul\":2996:3018   */\n      add\n        /* \"#utility.yul\":2975:3028   */\n      tag_82\n      jump\t// in\n    tag_132:\n        /* \"#utility.yul\":2965:3028   */\n      swap2\n      pop\n        /* \"#utility.yul\":2921:3038   */\n      pop\n        /* \"#utility.yul\":2716:3045   */\n      swap3\n      swap2\n      pop\n      pop\n      jump\t// out\n        /* \"#utility.yul\":3051:3220   */\n    tag_84:\n        /* \"#utility.yul\":3135:3146   */\n      0x00\n        /* \"#utility.yul\":3169:3175   */\n      dup3\n        /* \"#utility.yul\":3164:3167   */\n      dup3\n        /* \"#utility.yul\":3157:3176   */\n      mstore\n        /* \"#utility.yul\":3209:3213   */\n      0x20\n        /* \"#utility.yul\":3204:3207   */\n      dup3\n        /* \"#utility.yul\":3200:3214   */\n      add\n        /* \"#utility.yul\":3185:3214   */\n      swap1\n      pop\n        /* \"#utility.yul\":3051:3220   */\n      swap3\n      swap2\n      pop\n      pop\n      jump\t// out\n        /* \"#utility.yul\":3226:3451   */\n    tag_85:\n        /* \"#utility.yul\":3366:3400   */\n      0x576974686472617720616d6f756e74206d757374206265206772656174657220\n        /* \"#utility.yul\":3362:3363   */\n      0x00\n        /* \"#utility.yul\":3354:3360   */\n      dup3\n        /* \"#utility.yul\":3350:3364   */\n      add\n        /* \"#utility.yul\":3343:3401   */\n      mstore\n        /* \"#utility.yul\":3435:3443   */\n      0x7468616e20300000000000000000000000000000000000000000000000000000\n        /* \"#utility.yul\":3430:3432   */\n      0x20\n        /* \"#utility.yul\":3422:3428   */\n      dup3\n        /* \"#utility.yul\":3418:3433   */\n      add\n        /* \"#utility.yul\":3411:3444   */\n      mstore\n        /* \"#utility.yul\":3226:3451   */\n      pop\n      jump\t// out\n        /* \"#utility.yul\":3457:3823   */\n    tag_86:\n        /* \"#utility.yul\":3599:3602   */\n      0x00\n        /* \"#utility.yul\":3620:3687   */\n      tag_136\n        /* \"#utility.yul\":3684:3686   */\n      0x26\n        /* \"#utility.yul\":3679:3682   */\n      dup4\n        /* \"#utility.yul\":3620:3687   */\n      tag_84\n      jump\t// in\n    tag_136:\n        /* \"#utility.yul\":3613:3687   */\n      swap2\n      pop\n        /* \"#utility.yul\":3696:3789   */\n      tag_137\n        /* \"#utility.yul\":3785:3788   */\n      dup3\n        /* \"#utility.yul\":3696:3789   */\n      tag_85\n      jump\t// in\n    tag_137:\n        /* \"#utility.yul\":3814:3816   */\n      0x40\n        /* \"#utility.yul\":3809:3812   */\n      dup3\n        /* \"#utility.yul\":3805:3817   */\n      add\n        /* \"#utility.yul\":3798:3817   */\n      swap1\n      pop\n        /* \"#utility.yul\":3457:3823   */\n      swap2\n      swap1\n      pop\n      jump\t// out\n        /* \"#utility.yul\":3829:4248   */\n    tag_50:\n        /* \"#utility.yul\":3995:3999   */\n      0x00\n        /* \"#utility.yul\":4033:4035   */\n      0x20\n        /* \"#utility.yul\":4022:4031   */\n      dup3\n        /* \"#utility.yul\":4018:4036   */\n      add\n        /* \"#utility.yul\":4010:4036   */\n      swap1\n      pop\n        /* \"#utility.yul\":4082:4091   */\n      dup2\n        /* \"#utility.yul\":4076:4080   */\n      dup2\n        /* \"#utility.yul\":4072:4092   */\n      sub\n        /* \"#utility.yul\":4068:4069   */\n      0x00\n        /* \"#utility.yul\":4057:4066   */\n      dup4\n        /* \"#utility.yul\":4053:4070   */\n      add\n        /* \"#utility.yul\":4046:4093   */\n      mstore\n        /* \"#utility.yul\":4110:4241   */\n      tag_139\n        /* \"#utility.yul\":4236:4240   */\n      dup2\n        /* \"#utility.yul\":4110:4241   */\n      tag_86\n      jump\t// in\n    tag_139:\n        /* \"#utility.yul\":4102:4241   */\n      swap1\n      pop\n        /* \"#utility.yul\":3829:4248   */\n      swap2\n      swap1\n      pop\n      jump\t// out\n        /* \"#utility.yul\":4254:4434   */\n    tag_87:\n        /* \"#utility.yul\":4302:4379   */\n      0x4e487b7100000000000000000000000000000000000000000000000000000000\n        /* \"#utility.yul\":4299:4300   */\n      0x00\n        /* \"#utility.yul\":4292:4380   */\n      mstore\n        /* \"#utility.yul\":4399:4403   */\n      0x11\n        /* \"#utility.yul\":4396:4397   */\n      0x04\n        /* \"#utility.yul\":4389:4404   */\n      mstore\n        /* \"#utility.yul\":4423:4427   */\n      0x24\n        /* \"#utility.yul\":4420:4421   */\n      0x00\n        /* \"#utility.yul\":4413:4428   */\n      revert\n        /* \"#utility.yul\":4440:4634   */\n    tag_52:\n        /* \"#utility.yul\":4480:4484   */\n      0x00\n        /* \"#utility.yul\":4500:4520   */\n      tag_142\n        /* \"#utility.yul\":4518:4519   */\n      dup3\n        /* \"#utility.yul\":4500:4520   */\n      tag_72\n      jump\t// in\n    tag_142:\n        /* \"#utility.yul\":4495:4520   */\n      swap2\n      pop\n        /* \"#utility.yul\":4534:4554   */\n      tag_143\n        /* \"#utility.yul\":4552:4553   */\n      dup4\n        /* \"#utility.yul\":4534:4554   */\n      tag_72\n      jump\t// in\n    tag_143:\n        /* \"#utility.yul\":4529:4554   */\n      swap3\n      pop\n        /* \"#utility.yul\":4578:4579   */\n      dup3\n        /* \"#utility.yul\":4575:4576   */\n      dup3\n        /* \"#utility.yul\":4571:4580   */\n      sub\n        /* \"#utility.yul\":4563:4580   */\n      swap1\n      pop\n        /* \"#utility.yul\":4602:4603   */\n      dup2\n        /* \"#utility.yul\":4596:4600   */\n      dup2\n        /* \"#utility.yul\":4593:4604   */\n      gt\n        /* \"#utility.yul\":4590:4627   */\n      iszero\n      tag_144\n      jumpi\n        /* \"#utility.yul\":4607:4625   */\n      tag_145\n      tag_87\n      jump\t// in\n    tag_145:\n        /* \"#utility.yul\":4590:4627   */\n    tag_144:\n        /* \"#utility.yul\":4440:4634   */\n      swap3\n      swap2\n      pop\n      pop\n      jump\t// out\n        /* \"#utility.yul\":4640:4865   */\n    tag_88:\n        /* \"#utility.yul\":4780:4814   */\n      0x5472616e7366657220616d6f756e74206d757374206265206772656174657220\n        /* \"#utility.yul\":4776:4777   */\n      0x00\n        /* \"#utility.yul\":4768:4774   */\n      dup3\n        /* \"#utility.yul\":4764:4778   */\n      add\n        /* \"#utility.yul\":4757:4815   */\n      mstore\n        /* \"#utility.yul\":4849:4857   */\n      0x7468616e20300000000000000000000000000000000000000000000000000000\n        /* \"#utility.yul\":4844:4846   */\n      0x20\n        /* \"#utility.yul\":4836:4842   */\n      dup3\n        /* \"#utility.yul\":4832:4847   */\n      add\n        /* \"#utility.yul\":4825:4858   */\n      mstore\n        /* \"#utility.yul\":4640:4865   */\n      pop\n      jump\t// out\n        /* \"#utility.yul\":4871:5237   */\n    tag_89:\n        /* \"#utility.yul\":5013:5016   */\n      0x00\n        /* \"#utility.yul\":5034:5101   */\n      tag_148\n        /* \"#utility.yul\":5098:5100   */\n      0x26\n        /* \"#utility.yul\":5093:5096   */\n      dup4\n        /* \"#utility.yul\":5034:5101   */\n      tag_84\n      jump\t// in\n    tag_148:\n        /* \"#utility.yul\":5027:5101   */\n      swap2\n      pop\n        /* \"#utility.yul\":5110:5203   */\n      tag_149\n        /* \"#utility.yul\":5199:5202   */\n      dup3\n        /* \"#utility.yul\":5110:5203   */\n      tag_88\n      jump\t// in\n    tag_149:\n        /* \"#utility.yul\":5228:5230   */\n      0x40\n        /* \"#utility.yul\":5223:5226   */\n      dup3\n        /* \"#utility.yul\":5219:5231   */\n      add\n        /* \"#utility.yul\":5212:5231   */\n      swap1\n      pop\n        /* \"#utility.yul\":4871:5237   */\n      swap2\n      swap1\n      pop\n      jump\t// out\n        /* \"#utility.yul\":5243:5662   */\n    tag_56:\n        /* \"#utility.yul\":5409:5413   */\n      0x00\n        /* \"#utility.yul\":5447:5449   */\n      0x20\n        /* \"#utility.yul\":5436:5445   */\n      dup3\n        /* \"#utility.yul\":5432:5450   */\n      add\n        /* \"#utility.yul\":5424:5450   */\n      swap1\n      pop\n        /* \"#utility.yul\":5496:5505   */\n      dup2\n        /* \"#utility.yul\":5490:5494   */\n      dup2\n        /* \"#utility.yul\":5486:5506   */\n      sub\n        /* \"#utility.yul\":5482:5483   */\n      0x00\n        /* \"#utility.yul\":5471:5480   */\n      dup4\n        /* \"#utility.yul\":5467:5484   */\n      add\n        /* \"#utility.yul\":5460:5507   */\n      mstore\n        /* \"#utility.yul\":5524:5655   */\n      tag_151\n        /* \"#utility.yul\":5650:5654   */\n      dup2\n        /* \"#utility.yul\":5524:5655   */\n      tag_89\n      jump\t// in\n    tag_151:\n        /* \"#utility.yul\":5516:5655   */\n      swap1\n      pop\n        /* \"#utility.yul\":5243:5662   */\n      swap2\n      swap1\n      pop\n      jump\t// out\n        /* \"#utility.yul\":5668:5859   */\n    tag_59:\n        /* \"#utility.yul\":5708:5711   */\n      0x00\n        /* \"#utility.yul\":5727:5747   */\n      tag_153\n        /* \"#utility.yul\":5745:5746   */\n      dup3\n        /* \"#utility.yul\":5727:5747   */\n      tag_72\n      jump\t// in\n    tag_153:\n        /* \"#utility.yul\":5722:5747   */\n      swap2\n      pop\n        /* \"#utility.yul\":5761:5781   */\n      tag_154\n        /* \"#utility.yul\":5779:5780   */\n      dup4\n        /* \"#utility.yul\":5761:5781   */\n      tag_72\n      jump\t// in\n    tag_154:\n        /* \"#utility.yul\":5756:5781   */\n      swap3\n      pop\n        /* \"#utility.yul\":5804:5805   */\n      dup3\n        /* \"#utility.yul\":5801:5802   */\n      dup3\n        /* \"#utility.yul\":5797:5806   */\n      add\n        /* \"#utility.yul\":5790:5806   */\n      swap1\n      pop\n        /* \"#utility.yul\":5825:5828   */\n      dup1\n        /* \"#utility.yul\":5822:5823   */\n      dup3\n        /* \"#utility.yul\":5819:5829   */\n      gt\n        /* \"#utility.yul\":5816:5852   */\n      iszero\n      tag_155\n      jumpi\n        /* \"#utility.yul\":5832:5850   */\n      tag_156\n      tag_87\n      jump\t// in\n    tag_156:\n        /* \"#utility.yul\":5816:5852   */\n    tag_155:\n        /* \"#utility.yul\":5668:5859   */\n      swap3\n      swap2\n      pop\n      pop\n      jump\t// out\n        /* \"#utility.yul\":5865:6025   */\n    tag_90:\n        /* \"#utility.yul\":6005:6017   */\n      0x4f6e6c79206f776e657200000000000000000000000000000000000000000000\n        /* \"#utility.yul\":6001:6002   */\n      0x00\n        /* \"#utility.yul\":5993:5999   */\n      dup3\n        /* \"#utility.yul\":5989:6003   */\n      add\n        /* \"#utility.yul\":5982:6018   */\n      mstore\n        /* \"#utility.yul\":5865:6025   */\n      pop\n      jump\t// out\n        /* \"#utility.yul\":6031:6397   */\n    tag_91:\n        /* \"#utility.yul\":6173:6176   */\n      0x00\n        /* \"#utility.yul\":6194:6261   */\n      tag_159\n        /* \"#utility.yul\":6258:6260   */\n      0x0a\n        /* \"#utility.yul\":6253:6256   */\n      dup4\n        /* \"#utility.yul\":6194:6261   */\n      tag_84\n      jump\t// in\n    tag_159:\n        /* \"#utility.yul\":6187:6261   */\n      swap2\n      pop\n        /* \"#utility.yul\":6270:6363   */\n      tag_160\n        /* \"#utility.yul\":6359:6362   */\n      dup3\n        /* \"#utility.yul\":6270:6363   */\n      tag_90\n      jump\t// in\n    tag_160:\n        /* \"#utility.yul\":6388:6390   */\n      0x20\n        /* \"#utility.yul\":6383:6386   */\n      dup3\n        /* \"#utility.yul\":6379:6391   */\n      add\n        /* \"#utility.yul\":6372:6391   */\n      swap1\n      pop\n        /* \"#utility.yul\":6031:6397   */\n      swap2\n      swap1\n      pop\n      jump\t// out\n        /* \"#utility.yul\":6403:6822   */\n    tag_63:\n        /* \"#utility.yul\":6569:6573   */\n      0x00\n        /* \"#utility.yul\":6607:6609   */\n      0x20\n        /* \"#utility.yul\":6596:6605   */\n      dup3\n        /* \"#utility.yul\":6592:6610   */\n      add\n        /* \"#utility.yul\":6584:6610   */\n      swap1\n      pop\n        /* \"#utility.yul\":6656:6665   */\n      dup2\n        /* \"#utility.yul\":6650:6654   */\n      dup2\n        /* \"#utility.yul\":6646:6666   */\n      sub\n        /* \"#utility.yul\":6642:6643   */\n      0x00\n        /* \"#utility.yul\":6631:6640   */\n      dup4\n        /* \"#utility.yul\":6627:6644   */\n      add\n        /* \"#utility.yul\":6620:6667   */\n      mstore\n        /* \"#utility.yul\":6684:6815   */\n      tag_162\n        /* \"#utility.yul\":6810:6814   */\n      dup2\n        /* \"#utility.yul\":6684:6815   */\n      tag_91\n      jump\t// in\n    tag_162:\n        /* \"#utility.yul\":6676:6815   */\n      swap1\n      pop\n        /* \"#utility.yul\":6403:6822   */\n      swap2\n      swap1\n      pop\n      jump\t// out\n        /* \"#utility.yul\":6828:7052   */\n    tag_92:\n        /* \"#utility.yul\":6968:7002   */\n      0x4465706f73697420616d6f756e74206d75737420626520677265617465722074\n        /* \"#utility.yul\":6964:6965   */\n      0x00\n        /* \"#utility.yul\":6956:6962   */\n      dup3\n        /* \"#utility.yul\":6952:6966   */\n      add\n        /* \"#utility.yul\":6945:7003   */\n      mstore\n        /* \"#utility.yul\":7037:7044   */\n      0x68616e2030000000000000000000000000000000000000000000000000000000\n        /* \"#utility.yul\":7032:7034   */\n      0x20\n        /* \"#utility.yul\":7024:7030   */\n      dup3\n        /* \"#utility.yul\":7020:7035   */\n      add\n        /* \"#utility.yul\":7013:7045   */\n      mstore\n        /* \"#utility.yul\":6828:7052   */\n      pop\n      jump\t// out\n        /* \"#utility.yul\":7058:7424   */\n    tag_93:\n        /* \"#utility.yul\":7200:7203   */\n      0x00\n        /* \"#utility.yul\":7221:7288   */\n      tag_165\n        /* \"#utility.yul\":7285:7287   */\n      0x25\n        /* \"#utility.yul\":7280:7283   */\n      dup4\n        /* \"#utility.yul\":7221:7288   */\n      tag_84\n      jump\t// in\n    tag_165:\n        /* \"#utility.yul\":7214:7288   */\n      swap2\n      pop\n        /* \"#utility.yul\":7297:7390   */\n      tag_166\n        /* \"#utility.yul\":7386:7389   */\n      dup3\n        /* \"#utility.yul\":7297:7390   */\n      tag_92\n      jump\t// in\n    tag_166:\n        /* \"#utility.yul\":7415:7417   */\n      0x40\n        /* \"#utility.yul\":7410:7413   */\n      dup3\n        /* \"#utility.yul\":7406:7418   */\n      add\n        /* \"#utility.yul\":7399:7418   */\n      swap1\n      pop\n        /* \"#utility.yul\":7058:7424   */\n      swap2\n      swap1\n      pop\n      jump\t// out\n        /* \"#utility.yul\":7430:7849   */\n    tag_70:\n        /* \"#utility.yul\":7596:7600   */\n      0x00\n        /* \"#utility.yul\":7634:7636   */\n      0x20\n        /* \"#utility.yul\":7623:7632   */\n      dup3\n        /* \"#utility.yul\":7619:7637   */\n      add\n        /* \"#utility.yul\":7611:7637   */\n      swap1\n      pop\n        /* \"#utility.yul\":7683:7692   */\n      dup2\n        /* \"#utility.yul\":7677:7681   */\n      dup2\n        /* \"#utility.yul\":7673:7693   */\n      sub\n        /* \"#utility.yul\":7669:7670   */\n      0x00\n        /* \"#utility.yul\":7658:7667   */\n      dup4\n        /* \"#utility.yul\":7654:7671   */\n      add\n        /* \"#utility.yul\":7647:7694   */\n      mstore\n        /* \"#utility.yul\":7711:7842   */\n      tag_168\n        /* \"#utility.yul\":7837:7841   */\n      dup2\n        /* \"#utility.yul\":7711:7842   */\n      tag_93\n      jump\t// in\n    tag_168:\n        /* \"#utility.yul\":7703:7842   */\n      swap1\n      pop\n        /* \"#utility.yul\":7430:7849   */\n      swap2\n      swap1\n      pop\n      jump\t// out\n\n    auxdata: 0xa2646970667358221220a4070ee00d7d5f03b390608ab26c03ce9d691e12bef31146af9649f231fe1cf264736f6c63430008120033\n}\n",
				"bytecode": {
					"linkReferences": {},
					"object": "608060405234801561001057600080fd5b50336000806101000a81548173ffffffffffffffffffffffffffffffffffffffff021916908373ffffffffffffffffffffffffffffffffffffffff160217905550610a33806100606000396000f3fe6080604052600436106100745760003560e01c80638da5cb5b1161004e5780638da5cb5b1461010157806395ccea671461012c578063d0e30db014610148578063e3d670d7146101525761007b565b806312065fe01461007d5780632e1a7d4d146100a85780636f64234e146100d85761007b565b3661007b57005b005b34801561008957600080fd5b5061009261018f565b60405161009f91906105c5565b60405180910390f35b6100c260048036038101906100bd9190610611565b6101d6565b6040516100cf91906105c5565b60405180910390f35b3480156100e457600080fd5b506100ff60048036038101906100fa919061069c565b6102b7565b005b34801561010d57600080fd5b506101166103aa565b60405161012391906106eb565b60405180910390f35b6101466004803603810190610141919061069c565b6103ce565b005b6101506104f9565b005b34801561015e57600080fd5b5061017960048036038101906101749190610706565b610594565b60405161018691906105c5565b60405180910390f35b6000600160003373ffffffffffffffffffffffffffffffffffffffff1673ffffffffffffffffffffffffffffffffffffffff16815260200190815260200160002054905090565b600080821161021a576040517f08c379a0000000000000000000000000000000000000000000000000000000008152600401610211906107b6565b60405180910390fd5b81600160003373ffffffffffffffffffffffffffffffffffffffff1673ffffffffffffffffffffffffffffffffffffffff16815260200190815260200160002060008282546102699190610805565b92505081905550600160003373ffffffffffffffffffffffffffffffffffffffff1673ffffffffffffffffffffffffffffffffffffffff168152602001908152602001600020549050919050565b600081116102fa576040517f08c379a00000000000000000000000000000000000000000000000000000000081526004016102f1906108ab565b60405180910390fd5b80600160003373ffffffffffffffffffffffffffffffffffffffff1673ffffffffffffffffffffffffffffffffffffffff16815260200190815260200160002060008282546103499190610805565b9250508190555080600160008473ffffffffffffffffffffffffffffffffffffffff1673ffffffffffffffffffffffffffffffffffffffff168152602001908152602001600020600082825461039f91906108cb565b925050819055505050565b60008054906101000a900473ffffffffffffffffffffffffffffffffffffffff1681565b60008054906101000a900473ffffffffffffffffffffffffffffffffffffffff1673ffffffffffffffffffffffffffffffffffffffff163373ffffffffffffffffffffffffffffffffffffffff161461045c576040517f08c379a00000000000000000000000000000000000000000000000000000000081526004016104539061094b565b60405180910390fd5b6000811161049f576040517f08c379a0000000000000000000000000000000000000000000000000000000008152600401610496906107b6565b60405180910390fd5b80600160008473ffffffffffffffffffffffffffffffffffffffff1673ffffffffffffffffffffffffffffffffffffffff16815260200190815260200160002060008282546104ee9190610805565b925050819055505050565b6000341161053c576040517f08c379a0000000000000000000000000000000000000000000000000000000008152600401610533906109dd565b60405180910390fd5b34600160003373ffffffffffffffffffffffffffffffffffffffff1673ffffffffffffffffffffffffffffffffffffffff168152602001908152602001600020600082825461058b91906108cb565b92505081905550565b60016020528060005260406000206000915090505481565b6000819050919050565b6105bf816105ac565b82525050565b60006020820190506105da60008301846105b6565b92915050565b600080fd5b6105ee816105ac565b81146105f957600080fd5b50565b60008135905061060b816105e5565b92915050565b600060208284031215610627576106266105e0565b5b6000610635848285016105fc565b91505092915050565b600073ffffffffffffffffffffffffffffffffffffffff82169050919050565b60006106698261063e565b9050919050565b6106798161065e565b811461068457600080fd5b50565b60008135905061069681610670565b92915050565b600080604083850312156106b3576106b26105e0565b5b60006106c185828601610687565b92505060206106d2858286016105fc565b9150509250929050565b6106e58161065e565b82525050565b600060208201905061070060008301846106dc565b92915050565b60006020828403121561071c5761071b6105e0565b5b600061072a84828501610687565b91505092915050565b600082825260208201905092915050565b7f576974686472617720616d6f756e74206d75737420626520677265617465722060008201527f7468616e20300000000000000000000000000000000000000000000000000000602082015250565b60006107a0602683610733565b91506107ab82610744565b604082019050919050565b600060208201905081810360008301526107cf81610793565b9050919050565b7f4e487b7100000000000000000000000000000000000000000000000000000000600052601160045260246000fd5b6000610810826105ac565b915061081b836105ac565b9250828203905081811115610833576108326107d6565b5b92915050565b7f5472616e7366657220616d6f756e74206d75737420626520677265617465722060008201527f7468616e20300000000000000000000000000000000000000000000000000000602082015250565b6000610895602683610733565b91506108a082610839565b604082019050919050565b600060208201905081810360008301526108c481610888565b9050919050565b60006108d6826105ac565b91506108e1836105ac565b92508282019050808211156108f9576108f86107d6565b5b92915050565b7f4f6e6c79206f776e657200000000000000000000000000000000000000000000600082015250565b6000610935600a83610733565b9150610940826108ff565b602082019050919050565b6000602082019050818103600083015261096481610928565b9050919050565b7f4465706f73697420616d6f756e74206d7573742062652067726561746572207460008201527f68616e2030000000000000000000000000000000000000000000000000000000602082015250565b60006109c7602583610733565b91506109d28261096b565b604082019050919050565b600060208201905081810360008301526109f6816109ba565b905091905056fea2646970667358221220a4070ee00d7d5f03b390608ab26c03ce9d691e12bef31146af9649f231fe1cf264736f6c63430008120033",
					"opcodes": "PUSH1 0x80 PUSH1 0x40 MSTORE CALLVALUE DUP1 ISZERO PUSH2 0x10 JUMPI PUSH1 0x0 DUP1 REVERT JUMPDEST POP CALLER PUSH1 0x0 DUP1 PUSH2 0x100 EXP DUP2 SLOAD DUP2 PUSH20 0xFFFFFFFFFFFFFFFFFFFFFFFFFFFFFFFFFFFFFFFF MUL NOT AND SWAP1 DUP4 PUSH20 0xFFFFFFFFFFFFFFFFFFFFFFFFFFFFFFFFFFFFFFFF AND MUL OR SWAP1 SSTORE POP PUSH2 0xA33 DUP1 PUSH2 0x60 PUSH1 0x0 CODECOPY PUSH1 0x0 RETURN INVALID PUSH1 0x80 PUSH1 0x40 MSTORE PUSH1 0x4 CALLDATASIZE LT PUSH2 0x74 JUMPI PUSH1 0x0 CALLDATALOAD PUSH1 0xE0 SHR DUP1 PUSH4 0x8DA5CB5B GT PUSH2 0x4E JUMPI DUP1 PUSH4 0x8DA5CB5B EQ PUSH2 0x101 JUMPI DUP1 PUSH4 0x95CCEA67 EQ PUSH2 0x12C JUMPI DUP1 PUSH4 0xD0E30DB0 EQ PUSH2 0x148 JUMPI DUP1 PUSH4 0xE3D670D7 EQ PUSH2 0x152 JUMPI PUSH2 0x7B JUMP JUMPDEST DUP1 PUSH4 0x12065FE0 EQ PUSH2 0x7D JUMPI DUP1 PUSH4 0x2E1A7D4D EQ PUSH2 0xA8 JUMPI DUP1 PUSH4 0x6F64234E EQ PUSH2 0xD8 JUMPI PUSH2 0x7B JUMP JUMPDEST CALLDATASIZE PUSH2 0x7B JUMPI STOP JUMPDEST STOP JUMPDEST CALLVALUE DUP1 ISZERO PUSH2 0x89 JUMPI PUSH1 0x0 DUP1 REVERT JUMPDEST POP PUSH2 0x92 PUSH2 0x18F JUMP JUMPDEST PUSH1 0x40 MLOAD PUSH2 0x9F SWAP2 SWAP1 PUSH2 0x5C5 JUMP JUMPDEST PUSH1 0x40 MLOAD DUP1 SWAP2 SUB SWAP1 RETURN JUMPDEST PUSH2 0xC2 PUSH1 0x4 DUP1 CALLDATASIZE SUB DUP2 ADD SWAP1 PUSH2 0xBD SWAP2 SWAP1 PUSH2 0x611 JUMP JUMPDEST PUSH2 0x1D6 JUMP JUMPDEST PUSH1 0x40 MLOAD PUSH2 0xCF SWAP2 SWAP1 PUSH2 0x5C5 JUMP JUMPDEST PUSH1 0x40 MLOAD DUP1 SWAP2 SUB SWAP1 RETURN JUMPDEST CALLVALUE DUP1 ISZERO PUSH2 0xE4 JUMPI PUSH1 0x0 DUP1 REVERT JUMPDEST POP PUSH2 0xFF PUSH1 0x4 DUP1 CALLDATASIZE SUB DUP2 ADD SWAP1 PUSH2 0xFA SWAP2 SWAP1 PUSH2 0x69C JUMP JUMPDEST PUSH2 0x2B7 JUMP JUMPDEST STOP JUMPDEST CALLVALUE DUP1 ISZERO PUSH2 0x10D JUMPI PUSH1 0x0 DUP1 REVERT JUMPDEST POP PUSH2 0x116 PUSH2 0x3AA JUMP JUMPDEST PUSH1 0x40 MLOAD PUSH2 0x123 SWAP2 SWAP1 PUSH2 0x6EB JUMP JUMPDEST PUSH1 0x40 MLOAD DUP1 SWAP2 SUB SWAP1 RETURN JUMPDEST PUSH2 0x146 PUSH1 0x4 DUP1 CALLDATASIZE SUB DUP2 ADD SWAP1 PUSH2 0x141 SWAP2 SWAP1 PUSH2 0x69C JUMP JUMPDEST PUSH2 0x3CE JUMP JUMPDEST STOP JUMPDEST PUSH2 0x150 PUSH2 0x4F9 JUMP JUMPDEST STOP JUMPDEST CALLVALUE DUP1 ISZERO PUSH2 0x15E JUMPI PUSH1 0x0 DUP1 REVERT JUMPDEST POP PUSH2 0x179 PUSH1 0x4 DUP1 CALLDATASIZE SUB DUP2 ADD SWAP1 PUSH2 0x174 SWAP2 SWAP1 PUSH2 0x706 JUMP JUMPDEST PUSH2 0x594 JUMP JUMPDEST PUSH1 0x40 MLOAD PUSH2 0x186 SWAP2 SWAP1 PUSH2 0x5C5 JUMP JUMPDEST PUSH1 0x40 MLOAD DUP1 SWAP2 SUB SWAP1 RETURN JUMPDEST PUSH1 0x0 PUSH1 0x1 PUSH1 0x0 CALLER PUSH20 0xFFFFFFFFFFFFFFFFFFFFFFFFFFFFFFFFFFFFFFFF AND PUSH20 0xFFFFFFFFFFFFFFFFFFFFFFFFFFFFFFFFFFFFFFFF AND DUP2 MSTORE PUSH1 0x20 ADD SWAP1 DUP2 MSTORE PUSH1 0x20 ADD PUSH1 0x0 KECCAK256 SLOAD SWAP1 POP SWAP1 JUMP JUMPDEST PUSH1 0x0 DUP1 DUP3 GT PUSH2 0x21A JUMPI PUSH1 0x40 MLOAD PUSH32 0x8C379A000000000000000000000000000000000000000000000000000000000 DUP2 MSTORE PUSH1 0x4 ADD PUSH2 0x211 SWAP1 PUSH2 0x7B6 JUMP JUMPDEST PUSH1 0x40 MLOAD DUP1 SWAP2 SUB SWAP1 REVERT JUMPDEST DUP2 PUSH1 0x1 PUSH1 0x0 CALLER PUSH20 0xFFFFFFFFFFFFFFFFFFFFFFFFFFFFFFFFFFFFFFFF AND PUSH20 0xFFFFFFFFFFFFFFFFFFFFFFFFFFFFFFFFFFFFFFFF AND DUP2 MSTORE PUSH1 0x20 ADD SWAP1 DUP2 MSTORE PUSH1 0x20 ADD PUSH1 0x0 KECCAK256 PUSH1 0x0 DUP3 DUP3 SLOAD PUSH2 0x269 SWAP2 SWAP1 PUSH2 0x805 JUMP JUMPDEST SWAP3 POP POP DUP2 SWAP1 SSTORE POP PUSH1 0x1 PUSH1 0x0 CALLER PUSH20 0xFFFFFFFFFFFFFFFFFFFFFFFFFFFFFFFFFFFFFFFF AND PUSH20 0xFFFFFFFFFFFFFFFFFFFFFFFFFFFFFFFFFFFFFFFF AND DUP2 MSTORE PUSH1 0x20 ADD SWAP1 DUP2 MSTORE PUSH1 0x20 ADD PUSH1 0x0 KECCAK256 SLOAD SWAP1 POP SWAP2 SWAP1 POP JUMP JUMPDEST PUSH1 0x0 DUP2 GT PUSH2 0x2FA JUMPI PUSH1 0x40 MLOAD PUSH32 0x8C379A000000000000000000000000000000000000000000000000000000000 DUP2 MSTORE PUSH1 0x4 ADD PUSH2 0x2F1 SWAP1 PUSH2 0x8AB JUMP JUMPDEST PUSH1 0x40 MLOAD DUP1 SWAP2 SUB SWAP1 REVERT JUMPDEST DUP1 PUSH1 0x1 PUSH1 0x0 CALLER PUSH20 0xFFFFFFFFFFFFFFFFFFFFFFFFFFFFFFFFFFFFFFFF AND PUSH20 0xFFFFFFFFFFFFFFFFFFFFFFFFFFFFFFFFFFFFFFFF AND DUP2 MSTORE PUSH1 0x20 ADD SWAP1 DUP2 MSTORE PUSH1 0x20 ADD PUSH1 0x0 KECCAK256 PUSH1 0x0 DUP3 DUP3 SLOAD PUSH2 0x349 SWAP2 SWAP1 PUSH2 0x805 JUMP JUMPDEST SWAP3 POP POP DUP2 SWAP1 SSTORE POP DUP1 PUSH1 0x1 PUSH1 0x0 DUP5 PUSH20 0xFFFFFFFFFFFFFFFFFFFFFFFFFFFFFFFFFFFFFFFF AND PUSH20 0xFFFFFFFFFFFFFFFFFFFFFFFFFFFFFFFFFFFFFFFF AND DUP2 MSTORE PUSH1 0x20 ADD SWAP1 DUP2 MSTORE PUSH1 0x20 ADD PUSH1 0x0 KECCAK256 PUSH1 0x0 DUP3 DUP3 SLOAD PUSH2 0x39F SWAP2 SWAP1 PUSH2 0x8CB JUMP JUMPDEST SWAP3 POP POP DUP2 SWAP1 SSTORE POP POP POP JUMP JUMPDEST PUSH1 0x0 DUP1 SLOAD SWAP1 PUSH2 0x100 EXP SWAP1 DIV PUSH20 0xFFFFFFFFFFFFFFFFFFFFFFFFFFFFFFFFFFFFFFFF AND DUP2 JUMP JUMPDEST PUSH1 0x0 DUP1 SLOAD SWAP1 PUSH2 0x100 EXP SWAP1 DIV PUSH20 0xFFFFFFFFFFFFFFFFFFFFFFFFFFFFFFFFFFFFFFFF AND PUSH20 0xFFFFFFFFFFFFFFFFFFFFFFFFFFFFFFFFFFFFFFFF AND CALLER PUSH20 0xFFFFFFFFFFFFFFFFFFFFFFFFFFFFFFFFFFFFFFFF AND EQ PUSH2 0x45C JUMPI PUSH1 0x40 MLOAD PUSH32 0x8C379A000000000000000000000000000000000000000000000000000000000 DUP2 MSTORE PUSH1 0x4 ADD PUSH2 0x453 SWAP1 PUSH2 0x94B JUMP JUMPDEST PUSH1 0x40 MLOAD DUP1 SWAP2 SUB SWAP1 REVERT JUMPDEST PUSH1 0x0 DUP2 GT PUSH2 0x49F JUMPI PUSH1 0x40 MLOAD PUSH32 0x8C379A000000000000000000000000000000000000000000000000000000000 DUP2 MSTORE PUSH1 0x4 ADD PUSH2 0x496 SWAP1 PUSH2 0x7B6 JUMP JUMPDEST PUSH1 0x40 MLOAD DUP1 SWAP2 SUB SWAP1 REVERT JUMPDEST DUP1 PUSH1 0x1 PUSH1 0x0 DUP5 PUSH20 0xFFFFFFFFFFFFFFFFFFFFFFFFFFFFFFFFFFFFFFFF AND PUSH20 0xFFFFFFFFFFFFFFFFFFFFFFFFFFFFFFFFFFFFFFFF AND DUP2 MSTORE PUSH1 0x20 ADD SWAP1 DUP2 MSTORE PUSH1 0x20 ADD PUSH1 0x0 KECCAK256 PUSH1 0x0 DUP3 DUP3 SLOAD PUSH2 0x4EE SWAP2 SWAP1 PUSH2 0x805 JUMP JUMPDEST SWAP3 POP POP DUP2 SWAP1 SSTORE POP POP POP JUMP JUMPDEST PUSH1 0x0 CALLVALUE GT PUSH2 0x53C JUMPI PUSH1 0x40 MLOAD PUSH32 0x8C379A000000000000000000000000000000000000000000000000000000000 DUP2 MSTORE PUSH1 0x4 ADD PUSH2 0x533 SWAP1 PUSH2 0x9DD JUMP JUMPDEST PUSH1 0x40 MLOAD DUP1 SWAP2 SUB SWAP1 REVERT JUMPDEST CALLVALUE PUSH1 0x1 PUSH1 0x0 CALLER PUSH20 0xFFFFFFFFFFFFFFFFFFFFFFFFFFFFFFFFFFFFFFFF AND PUSH20 0xFFFFFFFFFFFFFFFFFFFFFFFFFFFFFFFFFFFFFFFF AND DUP2 MSTORE PUSH1 0x20 ADD SWAP1 DUP2 MSTORE PUSH1 0x20 ADD PUSH1 0x0 KECCAK256 PUSH1 0x0 DUP3 DUP3 SLOAD PUSH2 0x58B SWAP2 SWAP1 PUSH2 0x8CB JUMP JUMPDEST SWAP3 POP POP DUP2 SWAP1 SSTORE POP JUMP JUMPDEST PUSH1 0x1 PUSH1 0x20 MSTORE DUP1 PUSH1 0x0 MSTORE PUSH1 0x40 PUSH1 0x0 KECCAK256 PUSH1 0x0 SWAP2 POP SWAP1 POP SLOAD DUP2 JUMP JUMPDEST PUSH1 0x0 DUP2 SWAP1 POP SWAP2 SWAP1 POP JUMP JUMPDEST PUSH2 0x5BF DUP2 PUSH2 0x5AC JUMP JUMPDEST DUP3 MSTORE POP POP JUMP JUMPDEST PUSH1 0x0 PUSH1 0x20 DUP3 ADD SWAP1 POP PUSH2 0x5DA PUSH1 0x0 DUP4 ADD DUP5 PUSH2 0x5B6 JUMP JUMPDEST SWAP3 SWAP2 POP POP JUMP JUMPDEST PUSH1 0x0 DUP1 REVERT JUMPDEST PUSH2 0x5EE DUP2 PUSH2 0x5AC JUMP JUMPDEST DUP2 EQ PUSH2 0x5F9 JUMPI PUSH1 0x0 DUP1 REVERT JUMPDEST POP JUMP JUMPDEST PUSH1 0x0 DUP2 CALLDATALOAD SWAP1 POP PUSH2 0x60B DUP2 PUSH2 0x5E5 JUMP JUMPDEST SWAP3 SWAP2 POP POP JUMP JUMPDEST PUSH1 0x0 PUSH1 0x20 DUP3 DUP5 SUB SLT ISZERO PUSH2 0x627 JUMPI PUSH2 0x626 PUSH2 0x5E0 JUMP JUMPDEST JUMPDEST PUSH1 0x0 PUSH2 0x635 DUP5 DUP3 DUP6 ADD PUSH2 0x5FC JUMP JUMPDEST SWAP2 POP POP SWAP3 SWAP2 POP POP JUMP JUMPDEST PUSH1 0x0 PUSH20 0xFFFFFFFFFFFFFFFFFFFFFFFFFFFFFFFFFFFFFFFF DUP3 AND SWAP1 POP SWAP2 SWAP1 POP JUMP JUMPDEST PUSH1 0x0 PUSH2 0x669 DUP3 PUSH2 0x63E JUMP JUMPDEST SWAP1 POP SWAP2 SWAP1 POP JUMP JUMPDEST PUSH2 0x679 DUP2 PUSH2 0x65E JUMP JUMPDEST DUP2 EQ PUSH2 0x684 JUMPI PUSH1 0x0 DUP1 REVERT JUMPDEST POP JUMP JUMPDEST PUSH1 0x0 DUP2 CALLDATALOAD SWAP1 POP PUSH2 0x696 DUP2 PUSH2 0x670 JUMP JUMPDEST SWAP3 SWAP2 POP POP JUMP JUMPDEST PUSH1 0x0 DUP1 PUSH1 0x40 DUP4 DUP6 SUB SLT ISZERO PUSH2 0x6B3 JUMPI PUSH2 0x6B2 PUSH2 0x5E0 JUMP JUMPDEST JUMPDEST PUSH1 0x0 PUSH2 0x6C1 DUP6 DUP3 DUP7 ADD PUSH2 0x687 JUMP JUMPDEST SWAP3 POP POP PUSH1 0x20 PUSH2 0x6D2 DUP6 DUP3 DUP7 ADD PUSH2 0x5FC JUMP JUMPDEST SWAP2 POP POP SWAP3 POP SWAP3 SWAP1 POP JUMP JUMPDEST PUSH2 0x6E5 DUP2 PUSH2 0x65E JUMP JUMPDEST DUP3 MSTORE POP POP JUMP JUMPDEST PUSH1 0x0 PUSH1 0x20 DUP3 ADD SWAP1 POP PUSH2 0x700 PUSH1 0x0 DUP4 ADD DUP5 PUSH2 0x6DC JUMP JUMPDEST SWAP3 SWAP2 POP POP JUMP JUMPDEST PUSH1 0x0 PUSH1 0x20 DUP3 DUP5 SUB SLT ISZERO PUSH2 0x71C JUMPI PUSH2 0x71B PUSH2 0x5E0 JUMP JUMPDEST JUMPDEST PUSH1 0x0 PUSH2 0x72A DUP5 DUP3 DUP6 ADD PUSH2 0x687 JUMP JUMPDEST SWAP2 POP POP SWAP3 SWAP2 POP POP JUMP JUMPDEST PUSH1 0x0 DUP3 DUP3 MSTORE PUSH1 0x20 DUP3 ADD SWAP1 POP SWAP3 SWAP2 POP POP JUMP JUMPDEST PUSH32 0x576974686472617720616D6F756E74206D757374206265206772656174657220 PUSH1 0x0 DUP3 ADD MSTORE PUSH32 0x7468616E20300000000000000000000000000000000000000000000000000000 PUSH1 0x20 DUP3 ADD MSTORE POP JUMP JUMPDEST PUSH1 0x0 PUSH2 0x7A0 PUSH1 0x26 DUP4 PUSH2 0x733 JUMP JUMPDEST SWAP2 POP PUSH2 0x7AB DUP3 PUSH2 0x744 JUMP JUMPDEST PUSH1 0x40 DUP3 ADD SWAP1 POP SWAP2 SWAP1 POP JUMP JUMPDEST PUSH1 0x0 PUSH1 0x20 DUP3 ADD SWAP1 POP DUP2 DUP2 SUB PUSH1 0x0 DUP4 ADD MSTORE PUSH2 0x7CF DUP2 PUSH2 0x793 JUMP JUMPDEST SWAP1 POP SWAP2 SWAP1 POP JUMP JUMPDEST PUSH32 0x4E487B7100000000000000000000000000000000000000000000000000000000 PUSH1 0x0 MSTORE PUSH1 0x11 PUSH1 0x4 MSTORE PUSH1 0x24 PUSH1 0x0 REVERT JUMPDEST PUSH1 0x0 PUSH2 0x810 DUP3 PUSH2 0x5AC JUMP JUMPDEST SWAP2 POP PUSH2 0x81B DUP4 PUSH2 0x5AC JUMP JUMPDEST SWAP3 POP DUP3 DUP3 SUB SWAP1 POP DUP2 DUP2 GT ISZERO PUSH2 0x833 JUMPI PUSH2 0x832 PUSH2 0x7D6 JUMP JUMPDEST JUMPDEST SWAP3 SWAP2 POP POP JUMP JUMPDEST PUSH32 0x5472616E7366657220616D6F756E74206D757374206265206772656174657220 PUSH1 0x0 DUP3 ADD MSTORE PUSH32 0x7468616E20300000000000000000000000000000000000000000000000000000 PUSH1 0x20 DUP3 ADD MSTORE POP JUMP JUMPDEST PUSH1 0x0 PUSH2 0x895 PUSH1 0x26 DUP4 PUSH2 0x733 JUMP JUMPDEST SWAP2 POP PUSH2 0x8A0 DUP3 PUSH2 0x839 JUMP JUMPDEST PUSH1 0x40 DUP3 ADD SWAP1 POP SWAP2 SWAP1 POP JUMP JUMPDEST PUSH1 0x0 PUSH1 0x20 DUP3 ADD SWAP1 POP DUP2 DUP2 SUB PUSH1 0x0 DUP4 ADD MSTORE PUSH2 0x8C4 DUP2 PUSH2 0x888 JUMP JUMPDEST SWAP1 POP SWAP2 SWAP1 POP JUMP JUMPDEST PUSH1 0x0 PUSH2 0x8D6 DUP3 PUSH2 0x5AC JUMP JUMPDEST SWAP2 POP PUSH2 0x8E1 DUP4 PUSH2 0x5AC JUMP JUMPDEST SWAP3 POP DUP3 DUP3 ADD SWAP1 POP DUP1 DUP3 GT ISZERO PUSH2 0x8F9 JUMPI PUSH2 0x8F8 PUSH2 0x7D6 JUMP JUMPDEST JUMPDEST SWAP3 SWAP2 POP POP JUMP JUMPDEST PUSH32 0x4F6E6C79206F776E657200000000000000000000000000000000000000000000 PUSH1 0x0 DUP3 ADD MSTORE POP JUMP JUMPDEST PUSH1 0x0 PUSH2 0x935 PUSH1 0xA DUP4 PUSH2 0x733 JUMP JUMPDEST SWAP2 POP PUSH2 0x940 DUP3 PUSH2 0x8FF JUMP JUMPDEST PUSH1 0x20 DUP3 ADD SWAP1 POP SWAP2 SWAP1 POP JUMP JUMPDEST PUSH1 0x0 PUSH1 0x20 DUP3 ADD SWAP1 POP DUP2 DUP2 SUB PUSH1 0x0 DUP4 ADD MSTORE PUSH2 0x964 DUP2 PUSH2 0x928 JUMP JUMPDEST SWAP1 POP SWAP2 SWAP1 POP JUMP JUMPDEST PUSH32 0x4465706F73697420616D6F756E74206D75737420626520677265617465722074 PUSH1 0x0 DUP3 ADD MSTORE PUSH32 0x68616E2030000000000000000000000000000000000000000000000000000000 PUSH1 0x20 DUP3 ADD MSTORE POP JUMP JUMPDEST PUSH1 0x0 PUSH2 0x9C7 PUSH1 0x25 DUP4 PUSH2 0x733 JUMP JUMPDEST SWAP2 POP PUSH2 0x9D2 DUP3 PUSH2 0x96B JUMP JUMPDEST PUSH1 0x40 DUP3 ADD SWAP1 POP SWAP2 SWAP1 POP JUMP JUMPDEST PUSH1 0x0 PUSH1 0x20 DUP3 ADD SWAP1 POP DUP2 DUP2 SUB PUSH1 0x0 DUP4 ADD MSTORE PUSH2 0x9F6 DUP2 PUSH2 0x9BA JUMP JUMPDEST SWAP1 POP SWAP2 SWAP1 POP JUMP INVALID LOG2 PUSH5 0x6970667358 0x22 SLT KECCAK256 LOG4 SMOD 0xE 0xE0 0xD PUSH30 0x5F03B390608AB26C03CE9D691E12BEF31146AF9649F231FE1CF264736F6C PUSH4 0x43000812 STOP CALLER "
				},
				"gasEstimates": {
					"creation": {
						"codeDepositCost": "522200",
						"executionCost": "24822",
						"totalCost": "547022"
					},
					"external": {
						"": "152",
						"balance(address)": "2880",
						"deposit()": "infinite",
						"emergencyWithdraw(address,uint256)": "infinite",
						"getBalance()": "2527",
						"owner()": "2511",
						"sendFunds(address,uint256)": "infinite",
						"withdraw(uint256)": "infinite"
					}
				},
				"methodIdentifiers": {
					"balance(address)": "e3d670d7",
					"deposit()": "d0e30db0",
					"emergencyWithdraw(address,uint256)": "95ccea67",
					"getBalance()": "12065fe0",
					"owner()": "8da5cb5b",
					"sendFunds(address,uint256)": "6f64234e",
					"withdraw(uint256)": "2e1a7d4d"
				}
			},
			"storageLayout": {
				"storage": [
					{
						"astId": 3,
						"contract": "Samples/bankCurrency.sol:bankingSystem",
						"label": "owner",
						"offset": 0,
						"slot": "0",
						"type": "t_address"
					},
					{
						"astId": 7,
						"contract": "Samples/bankCurrency.sol:bankingSystem",
						"label": "balance",
						"offset": 0,
						"slot": "1",
						"type": "t_mapping(t_address,t_uint256)"
					}
				],
				"types": {
					"t_address": {
						"encoding": "inplace",
						"label": "address",
						"numberOfBytes": "20"
					},
					"t_mapping(t_address,t_uint256)": {
						"encoding": "mapping",
						"key": "t_address",
						"label": "mapping(address => uint256)",
						"numberOfBytes": "32",
						"value": "t_uint256"
					},
					"t_uint256": {
						"encoding": "inplace",
						"label": "uint256",
						"numberOfBytes": "32"
					}
				}
			},
			"userdoc": {
				"kind": "user",
				"methods": {},
				"version": 1
			}
		}
	}
}