{
	"Samples/erc20example.sol": {
		"example": {
			"abi": [
				{
					"inputs": [],
					"stateMutability": "nonpayable",
					"type": "constructor"
				},
				{
					"inputs": [
						{
							"internalType": "address",
							"name": "_userAddress",
							"type": "address"
						},
						{
							"internalType": "uint256",
							"name": "_amount",
							"type": "uint256"
						}
					],
					"name": "_mint",
					"outputs": [],
					"stateMutability": "nonpayable",
					"type": "function"
				},
				{
					"inputs": [
						{
							"internalType": "address",
							"name": "",
							"type": "address"
						},
						{
							"internalType": "address",
							"name": "",
							"type": "address"
						}
					],
					"name": "allowence",
					"outputs": [
						{
							"internalType": "uint256",
							"name": "",
							"type": "uint256"
						}
					],
					"stateMutability": "view",
					"type": "function"
				},
				{
					"inputs": [
						{
							"internalType": "address",
							"name": "spender",
							"type": "address"
						},
						{
							"internalType": "uint256",
							"name": "amount",
							"type": "uint256"
						}
					],
					"name": "approve",
					"outputs": [],
					"stateMutability": "nonpayable",
					"type": "function"
				},
				{
					"inputs": [
						{
							"internalType": "address",
							"name": "",
							"type": "address"
						}
					],
					"name": "balance",
					"outputs": [
						{
							"internalType": "uint256",
							"name": "",
							"type": "uint256"
						}
					],
					"stateMutability": "view",
					"type": "function"
				},
				{
					"inputs": [
						{
							"internalType": "address",
							"name": "checkbalance",
							"type": "address"
						}
					],
					"name": "balanceof",
					"outputs": [
						{
							"internalType": "uint256",
							"name": "",
							"type": "uint256"
						}
					],
					"stateMutability": "view",
					"type": "function"
				},
				{
					"inputs": [],
					"name": "totalsupply",
					"outputs": [
						{
							"internalType": "uint256",
							"name": "",
							"type": "uint256"
						}
					],
					"stateMutability": "view",
					"type": "function"
				},
				{
					"inputs": [
						{
							"internalType": "address",
							"name": "to",
							"type": "address"
						},
						{
							"internalType": "uint256",
							"name": "amount",
							"type": "uint256"
						}
					],
					"name": "transfer",
					"outputs": [],
					"stateMutability": "nonpayable",
					"type": "function"
				},
				{
					"inputs": [
						{
							"internalType": "address",
							"name": "from",
							"type": "address"
						},
						{
							"internalType": "address",
							"name": "to",
							"type": "address"
						},
						{
							"internalType": "uint256",
							"name": "amount",
							"type": "uint256"
						}
					],
					"name": "transferfrom",
					"outputs": [],
					"stateMutability": "nonpayable",
					"type": "function"
				}
			],
			"devdoc": {
				"kind": "dev",
				"methods": {},
				"version": 1
			},
			"evm": {
				"assembly": "    /* \"Samples/erc20example.sol\":60:1268  contract example {... */\n  mstore(0x40, 0x80)\n    /* \"Samples/erc20example.sol\":86:200  constructor() {... */\n  callvalue\n  dup1\n  iszero\n  tag_1\n  jumpi\n  0x00\n  dup1\n  revert\ntag_1:\n  pop\n    /* \"Samples/erc20example.sol\":111:148  _mint(msg.sender, 1000000000 *10**18) */\n  tag_4\n    /* \"Samples/erc20example.sol\":117:127  msg.sender */\n  caller\n    /* \"Samples/erc20example.sol\":129:147  1000000000 *10**18 */\n  0x033b2e3c9fd0803ce8000000\n    /* \"Samples/erc20example.sol\":111:116  _mint */\n  shl(0x20, tag_5)\n    /* \"Samples/erc20example.sol\":111:148  _mint(msg.sender, 1000000000 *10**18) */\n  0x20\n  shr\n  jump\t// in\ntag_4:\n    /* \"Samples/erc20example.sol\":174:192  1000000000 *10**18 */\n  0x033b2e3c9fd0803ce8000000\n    /* \"Samples/erc20example.sol\":159:171  total_supply */\n  0x02\n    /* \"Samples/erc20example.sol\":159:192  total_supply = 1000000000 *10**18 */\n  dup2\n  swap1\n  sstore\n  pop\n    /* \"Samples/erc20example.sol\":60:1268  contract example {... */\n  jump(tag_6)\n    /* \"Samples/erc20example.sol\":496:606  function _mint(address _userAddress, uint256 _amount) public{... */\ntag_5:\n    /* \"Samples/erc20example.sol\":591:598  _amount */\n  dup1\n    /* \"Samples/erc20example.sol\":567:574  balance */\n  0x00\n    /* \"Samples/erc20example.sol\":567:588  balance[_userAddress] */\n  dup1\n    /* \"Samples/erc20example.sol\":575:587  _userAddress */\n  dup5\n    /* \"Samples/erc20example.sol\":567:588  balance[_userAddress] */\n  0xffffffffffffffffffffffffffffffffffffffff\n  and\n  0xffffffffffffffffffffffffffffffffffffffff\n  and\n  dup2\n  mstore\n  0x20\n  add\n  swap1\n  dup2\n  mstore\n  0x20\n  add\n  0x00\n  keccak256\n    /* \"Samples/erc20example.sol\":567:598  balance[_userAddress] = _amount */\n  dup2\n  swap1\n  sstore\n  pop\n    /* \"Samples/erc20example.sol\":496:606  function _mint(address _userAddress, uint256 _amount) public{... */\n  pop\n  pop\n  jump\t// out\n    /* \"Samples/erc20example.sol\":60:1268  contract example {... */\ntag_6:\n  dataSize(sub_0)\n  dup1\n  dataOffset(sub_0)\n  0x00\n  codecopy\n  0x00\n  return\nstop\n\nsub_0: assembly {\n        /* \"Samples/erc20example.sol\":60:1268  contract example {... */\n      mstore(0x40, 0x80)\n      callvalue\n      dup1\n      iszero\n      tag_1\n      jumpi\n      0x00\n      dup1\n      revert\n    tag_1:\n      pop\n      jumpi(tag_2, lt(calldatasize, 0x04))\n      shr(0xe0, calldataload(0x00))\n      dup1\n      0x72dd529b\n      gt\n      tag_11\n      jumpi\n      dup1\n      0x72dd529b\n      eq\n      tag_7\n      jumpi\n      dup1\n      0xa77a8230\n      eq\n      tag_8\n      jumpi\n      dup1\n      0xa9059cbb\n      eq\n      tag_9\n      jumpi\n      dup1\n      0xe3d670d7\n      eq\n      tag_10\n      jumpi\n      jump(tag_2)\n    tag_11:\n      dup1\n      0x095ea7b3\n      eq\n      tag_3\n      jumpi\n      dup1\n      0x3d64125b\n      eq\n      tag_4\n      jumpi\n      dup1\n      0x4e6ec247\n      eq\n      tag_5\n      jumpi\n      dup1\n      0x63b0545f\n      eq\n      tag_6\n      jumpi\n    tag_2:\n      0x00\n      dup1\n      revert\n        /* \"Samples/erc20example.sol\":1150:1262  function approve(address spender, uint amount) public{... */\n    tag_3:\n      tag_12\n      0x04\n      dup1\n      calldatasize\n      sub\n      dup2\n      add\n      swap1\n      tag_13\n      swap2\n      swap1\n      tag_14\n      jump\t// in\n    tag_13:\n      tag_15\n      jump\t// in\n    tag_12:\n      stop\n        /* \"Samples/erc20example.sol\":614:727  function balanceof(address checkbalance) public view returns(uint){... */\n    tag_4:\n      tag_16\n      0x04\n      dup1\n      calldatasize\n      sub\n      dup2\n      add\n      swap1\n      tag_17\n      swap2\n      swap1\n      tag_18\n      jump\t// in\n    tag_17:\n      tag_19\n      jump\t// in\n    tag_16:\n      mload(0x40)\n      tag_20\n      swap2\n      swap1\n      tag_21\n      jump\t// in\n    tag_20:\n      mload(0x40)\n      dup1\n      swap2\n      sub\n      swap1\n      return\n        /* \"Samples/erc20example.sol\":496:606  function _mint(address _userAddress, uint256 _amount) public{... */\n    tag_5:\n      tag_22\n      0x04\n      dup1\n      calldatasize\n      sub\n      dup2\n      add\n      swap1\n      tag_23\n      swap2\n      swap1\n      tag_14\n      jump\t// in\n    tag_23:\n      tag_24\n      jump\t// in\n    tag_22:\n      stop\n        /* \"Samples/erc20example.sol\":870:1142  function transferfrom(address from, address to, uint amount) public{... */\n    tag_6:\n      tag_25\n      0x04\n      dup1\n      calldatasize\n      sub\n      dup2\n      add\n      swap1\n      tag_26\n      swap2\n      swap1\n      tag_27\n      jump\t// in\n    tag_26:\n      tag_28\n      jump\t// in\n    tag_25:\n      stop\n        /* \"Samples/erc20example.sol\":404:490  function totalsupply() public view returns(uint){... */\n    tag_7:\n      tag_29\n      tag_30\n      jump\t// in\n    tag_29:\n      mload(0x40)\n      tag_31\n      swap2\n      swap1\n      tag_21\n      jump\t// in\n    tag_31:\n      mload(0x40)\n      dup1\n      swap2\n      sub\n      swap1\n      return\n        /* \"Samples/erc20example.sol\":304:368  mapping(address => mapping(address => uint256)) public allowence */\n    tag_8:\n      tag_32\n      0x04\n      dup1\n      calldatasize\n      sub\n      dup2\n      add\n      swap1\n      tag_33\n      swap2\n      swap1\n      tag_34\n      jump\t// in\n    tag_33:\n      tag_35\n      jump\t// in\n    tag_32:\n      mload(0x40)\n      tag_36\n      swap2\n      swap1\n      tag_21\n      jump\t// in\n    tag_36:\n      mload(0x40)\n      dup1\n      swap2\n      sub\n      swap1\n      return\n        /* \"Samples/erc20example.sol\":735:862  function transfer(address to, uint amount) public{... */\n    tag_9:\n      tag_37\n      0x04\n      dup1\n      calldatasize\n      sub\n      dup2\n      add\n      swap1\n      tag_38\n      swap2\n      swap1\n      tag_14\n      jump\t// in\n    tag_38:\n      tag_39\n      jump\t// in\n    tag_37:\n      stop\n        /* \"Samples/erc20example.sol\":208:247  mapping(address => uint) public balance */\n    tag_10:\n      tag_40\n      0x04\n      dup1\n      calldatasize\n      sub\n      dup2\n      add\n      swap1\n      tag_41\n      swap2\n      swap1\n      tag_18\n      jump\t// in\n    tag_41:\n      tag_42\n      jump\t// in\n    tag_40:\n      mload(0x40)\n      tag_43\n      swap2\n      swap1\n      tag_21\n      jump\t// in\n    tag_43:\n      mload(0x40)\n      dup1\n      swap2\n      sub\n      swap1\n      return\n        /* \"Samples/erc20example.sol\":1150:1262  function approve(address spender, uint amount) public{... */\n    tag_15:\n        /* \"Samples/erc20example.sol\":1248:1254  amount */\n      dup1\n        /* \"Samples/erc20example.sol\":1214:1223  allowence */\n      0x01\n        /* \"Samples/erc20example.sol\":1214:1235  allowence[msg.sender] */\n      0x00\n        /* \"Samples/erc20example.sol\":1224:1234  msg.sender */\n      caller\n        /* \"Samples/erc20example.sol\":1214:1235  allowence[msg.sender] */\n      0xffffffffffffffffffffffffffffffffffffffff\n      and\n      0xffffffffffffffffffffffffffffffffffffffff\n      and\n      dup2\n      mstore\n      0x20\n      add\n      swap1\n      dup2\n      mstore\n      0x20\n      add\n      0x00\n      keccak256\n        /* \"Samples/erc20example.sol\":1214:1244  allowence[msg.sender][spender] */\n      0x00\n        /* \"Samples/erc20example.sol\":1236:1243  spender */\n      dup5\n        /* \"Samples/erc20example.sol\":1214:1244  allowence[msg.sender][spender] */\n      0xffffffffffffffffffffffffffffffffffffffff\n      and\n      0xffffffffffffffffffffffffffffffffffffffff\n      and\n      dup2\n      mstore\n      0x20\n      add\n      swap1\n      dup2\n      mstore\n      0x20\n      add\n      0x00\n      keccak256\n      0x00\n        /* \"Samples/erc20example.sol\":1214:1254  allowence[msg.sender][spender] += amount */\n      dup3\n      dup3\n      sload\n      tag_45\n      swap2\n      swap1\n      tag_46\n      jump\t// in\n    tag_45:\n      swap3\n      pop\n      pop\n      dup2\n      swap1\n      sstore\n      pop\n        /* \"Samples/erc20example.sol\":1150:1262  function approve(address spender, uint amount) public{... */\n      pop\n      pop\n      jump\t// out\n        /* \"Samples/erc20example.sol\":614:727  function balanceof(address checkbalance) public view returns(uint){... */\n    tag_19:\n        /* \"Samples/erc20example.sol\":675:679  uint */\n      0x00\n        /* \"Samples/erc20example.sol\":698:705  balance */\n      dup1\n        /* \"Samples/erc20example.sol\":698:719  balance[checkbalance] */\n      0x00\n        /* \"Samples/erc20example.sol\":706:718  checkbalance */\n      dup4\n        /* \"Samples/erc20example.sol\":698:719  balance[checkbalance] */\n      0xffffffffffffffffffffffffffffffffffffffff\n      and\n      0xffffffffffffffffffffffffffffffffffffffff\n      and\n      dup2\n      mstore\n      0x20\n      add\n      swap1\n      dup2\n      mstore\n      0x20\n      add\n      0x00\n      keccak256\n      sload\n        /* \"Samples/erc20example.sol\":691:719  return balance[checkbalance] */\n      swap1\n      pop\n        /* \"Samples/erc20example.sol\":614:727  function balanceof(address checkbalance) public view returns(uint){... */\n      swap2\n      swap1\n      pop\n      jump\t// out\n        /* \"Samples/erc20example.sol\":496:606  function _mint(address _userAddress, uint256 _amount) public{... */\n    tag_24:\n        /* \"Samples/erc20example.sol\":591:598  _amount */\n      dup1\n        /* \"Samples/erc20example.sol\":567:574  balance */\n      0x00\n        /* \"Samples/erc20example.sol\":567:588  balance[_userAddress] */\n      dup1\n        /* \"Samples/erc20example.sol\":575:587  _userAddress */\n      dup5\n        /* \"Samples/erc20example.sol\":567:588  balance[_userAddress] */\n      0xffffffffffffffffffffffffffffffffffffffff\n      and\n      0xffffffffffffffffffffffffffffffffffffffff\n      and\n      dup2\n      mstore\n      0x20\n      add\n      swap1\n      dup2\n      mstore\n      0x20\n      add\n      0x00\n      keccak256\n        /* \"Samples/erc20example.sol\":567:598  balance[_userAddress] = _amount */\n      dup2\n      swap1\n      sstore\n      pop\n        /* \"Samples/erc20example.sol\":496:606  function _mint(address _userAddress, uint256 _amount) public{... */\n      pop\n      pop\n      jump\t// out\n        /* \"Samples/erc20example.sol\":870:1142  function transferfrom(address from, address to, uint amount) public{... */\n    tag_28:\n        /* \"Samples/erc20example.sol\":971:980  allowence */\n      0x01\n        /* \"Samples/erc20example.sol\":971:986  allowence[from] */\n      0x00\n        /* \"Samples/erc20example.sol\":981:985  from */\n      dup5\n        /* \"Samples/erc20example.sol\":971:986  allowence[from] */\n      0xffffffffffffffffffffffffffffffffffffffff\n      and\n      0xffffffffffffffffffffffffffffffffffffffff\n      and\n      dup2\n      mstore\n      0x20\n      add\n      swap1\n      dup2\n      mstore\n      0x20\n      add\n      0x00\n      keccak256\n        /* \"Samples/erc20example.sol\":971:998  allowence[from][msg.sender] */\n      0x00\n        /* \"Samples/erc20example.sol\":987:997  msg.sender */\n      caller\n        /* \"Samples/erc20example.sol\":971:998  allowence[from][msg.sender] */\n      0xffffffffffffffffffffffffffffffffffffffff\n      and\n      0xffffffffffffffffffffffffffffffffffffffff\n      and\n      dup2\n      mstore\n      0x20\n      add\n      swap1\n      dup2\n      mstore\n      0x20\n      add\n      0x00\n      keccak256\n      sload\n        /* \"Samples/erc20example.sol\":962:968  amount */\n      dup2\n        /* \"Samples/erc20example.sol\":962:998  amount < allowence[from][msg.sender] */\n      lt\n        /* \"Samples/erc20example.sol\":954:1017  require(amount < allowence[from][msg.sender], \"not authorized\") */\n      tag_50\n      jumpi\n      mload(0x40)\n      0x08c379a000000000000000000000000000000000000000000000000000000000\n      dup2\n      mstore\n      0x04\n      add\n      tag_51\n      swap1\n      tag_52\n      jump\t// in\n    tag_51:\n      mload(0x40)\n      dup1\n      swap2\n      sub\n      swap1\n      revert\n    tag_50:\n        /* \"Samples/erc20example.sol\":1045:1051  amount */\n      dup1\n        /* \"Samples/erc20example.sol\":1028:1035  balance */\n      0x00\n        /* \"Samples/erc20example.sol\":1028:1041  balance[from] */\n      dup1\n        /* \"Samples/erc20example.sol\":1036:1040  from */\n      dup6\n        /* \"Samples/erc20example.sol\":1028:1041  balance[from] */\n      0xffffffffffffffffffffffffffffffffffffffff\n      and\n      0xffffffffffffffffffffffffffffffffffffffff\n      and\n      dup2\n      mstore\n      0x20\n      add\n      swap1\n      dup2\n      mstore\n      0x20\n      add\n      0x00\n      keccak256\n      0x00\n        /* \"Samples/erc20example.sol\":1028:1051  balance[from] -= amount */\n      dup3\n      dup3\n      sload\n      tag_53\n      swap2\n      swap1\n      tag_54\n      jump\t// in\n    tag_53:\n      swap3\n      pop\n      pop\n      dup2\n      swap1\n      sstore\n      pop\n        /* \"Samples/erc20example.sol\":1077:1083  amount */\n      dup1\n        /* \"Samples/erc20example.sol\":1062:1069  balance */\n      0x00\n        /* \"Samples/erc20example.sol\":1062:1073  balance[to] */\n      dup1\n        /* \"Samples/erc20example.sol\":1070:1072  to */\n      dup5\n        /* \"Samples/erc20example.sol\":1062:1073  balance[to] */\n      0xffffffffffffffffffffffffffffffffffffffff\n      and\n      0xffffffffffffffffffffffffffffffffffffffff\n      and\n      dup2\n      mstore\n      0x20\n      add\n      swap1\n      dup2\n      mstore\n      0x20\n      add\n      0x00\n      keccak256\n      0x00\n        /* \"Samples/erc20example.sol\":1062:1083  balance[to] += amount */\n      dup3\n      dup3\n      sload\n      tag_55\n      swap2\n      swap1\n      tag_46\n      jump\t// in\n    tag_55:\n      swap3\n      pop\n      pop\n      dup2\n      swap1\n      sstore\n      pop\n        /* \"Samples/erc20example.sol\":1125:1131  amount */\n      dup1\n        /* \"Samples/erc20example.sol\":1094:1103  allowence */\n      0x01\n        /* \"Samples/erc20example.sol\":1094:1109  allowence[from] */\n      0x00\n        /* \"Samples/erc20example.sol\":1104:1108  from */\n      dup6\n        /* \"Samples/erc20example.sol\":1094:1109  allowence[from] */\n      0xffffffffffffffffffffffffffffffffffffffff\n      and\n      0xffffffffffffffffffffffffffffffffffffffff\n      and\n      dup2\n      mstore\n      0x20\n      add\n      swap1\n      dup2\n      mstore\n      0x20\n      add\n      0x00\n      keccak256\n        /* \"Samples/erc20example.sol\":1094:1121  allowence[from][msg.sender] */\n      0x00\n        /* \"Samples/erc20example.sol\":1110:1120  msg.sender */\n      caller\n        /* \"Samples/erc20example.sol\":1094:1121  allowence[from][msg.sender] */\n      0xffffffffffffffffffffffffffffffffffffffff\n      and\n      0xffffffffffffffffffffffffffffffffffffffff\n      and\n      dup2\n      mstore\n      0x20\n      add\n      swap1\n      dup2\n      mstore\n      0x20\n      add\n      0x00\n      keccak256\n      0x00\n        /* \"Samples/erc20example.sol\":1094:1131  allowence[from][msg.sender] -= amount */\n      dup3\n      dup3\n      sload\n      tag_56\n      swap2\n      swap1\n      tag_54\n      jump\t// in\n    tag_56:\n      swap3\n      pop\n      pop\n      dup2\n      swap1\n      sstore\n      pop\n        /* \"Samples/erc20example.sol\":870:1142  function transferfrom(address from, address to, uint amount) public{... */\n      pop\n      pop\n      pop\n      jump\t// out\n        /* \"Samples/erc20example.sol\":404:490  function totalsupply() public view returns(uint){... */\n    tag_30:\n        /* \"Samples/erc20example.sol\":447:451  uint */\n      0x00\n        /* \"Samples/erc20example.sol\":470:482  total_supply */\n      sload(0x02)\n        /* \"Samples/erc20example.sol\":463:482  return total_supply */\n      swap1\n      pop\n        /* \"Samples/erc20example.sol\":404:490  function totalsupply() public view returns(uint){... */\n      swap1\n      jump\t// out\n        /* \"Samples/erc20example.sol\":304:368  mapping(address => mapping(address => uint256)) public allowence */\n    tag_35:\n      mstore(0x20, 0x01)\n      dup2\n      0x00\n      mstore\n      mstore(0x20, keccak256(0x00, 0x40))\n      dup1\n      0x00\n      mstore\n      keccak256(0x00, 0x40)\n      0x00\n      swap2\n      pop\n      swap2\n      pop\n      pop\n      sload\n      dup2\n      jump\t// out\n        /* \"Samples/erc20example.sol\":735:862  function transfer(address to, uint amount) public{... */\n    tag_39:\n        /* \"Samples/erc20example.sol\":817:823  amount */\n      dup1\n        /* \"Samples/erc20example.sol\":795:802  balance */\n      0x00\n        /* \"Samples/erc20example.sol\":795:814  balance[msg.sender] */\n      dup1\n        /* \"Samples/erc20example.sol\":803:813  msg.sender */\n      caller\n        /* \"Samples/erc20example.sol\":795:814  balance[msg.sender] */\n      0xffffffffffffffffffffffffffffffffffffffff\n      and\n      0xffffffffffffffffffffffffffffffffffffffff\n      and\n      dup2\n      mstore\n      0x20\n      add\n      swap1\n      dup2\n      mstore\n      0x20\n      add\n      0x00\n      keccak256\n        /* \"Samples/erc20example.sol\":795:823  balance[msg.sender] = amount */\n      dup2\n      swap1\n      sstore\n      pop\n        /* \"Samples/erc20example.sol\":848:854  amount */\n      dup1\n        /* \"Samples/erc20example.sol\":834:841  balance */\n      0x00\n        /* \"Samples/erc20example.sol\":834:845  balance[to] */\n      dup1\n        /* \"Samples/erc20example.sol\":842:844  to */\n      dup5\n        /* \"Samples/erc20example.sol\":834:845  balance[to] */\n      0xffffffffffffffffffffffffffffffffffffffff\n      and\n      0xffffffffffffffffffffffffffffffffffffffff\n      and\n      dup2\n      mstore\n      0x20\n      add\n      swap1\n      dup2\n      mstore\n      0x20\n      add\n      0x00\n      keccak256\n      0x00\n        /* \"Samples/erc20example.sol\":834:854  balance[to] +=amount */\n      dup3\n      dup3\n      sload\n      tag_59\n      swap2\n      swap1\n      tag_46\n      jump\t// in\n    tag_59:\n      swap3\n      pop\n      pop\n      dup2\n      swap1\n      sstore\n      pop\n        /* \"Samples/erc20example.sol\":735:862  function transfer(address to, uint amount) public{... */\n      pop\n      pop\n      jump\t// out\n        /* \"Samples/erc20example.sol\":208:247  mapping(address => uint) public balance */\n    tag_42:\n      mstore(0x20, 0x00)\n      dup1\n      0x00\n      mstore\n      keccak256(0x00, 0x40)\n      0x00\n      swap2\n      pop\n      swap1\n      pop\n      sload\n      dup2\n      jump\t// out\n        /* \"#utility.yul\":88:205   */\n    tag_61:\n        /* \"#utility.yul\":197:198   */\n      0x00\n        /* \"#utility.yul\":194:195   */\n      dup1\n        /* \"#utility.yul\":187:199   */\n      revert\n        /* \"#utility.yul\":334:460   */\n    tag_63:\n        /* \"#utility.yul\":371:378   */\n      0x00\n        /* \"#utility.yul\":411:453   */\n      0xffffffffffffffffffffffffffffffffffffffff\n        /* \"#utility.yul\":404:409   */\n      dup3\n        /* \"#utility.yul\":400:454   */\n      and\n        /* \"#utility.yul\":389:454   */\n      swap1\n      pop\n        /* \"#utility.yul\":334:460   */\n      swap2\n      swap1\n      pop\n      jump\t// out\n        /* \"#utility.yul\":466:562   */\n    tag_64:\n        /* \"#utility.yul\":503:510   */\n      0x00\n        /* \"#utility.yul\":532:556   */\n      tag_81\n        /* \"#utility.yul\":550:555   */\n      dup3\n        /* \"#utility.yul\":532:556   */\n      tag_63\n      jump\t// in\n    tag_81:\n        /* \"#utility.yul\":521:556   */\n      swap1\n      pop\n        /* \"#utility.yul\":466:562   */\n      swap2\n      swap1\n      pop\n      jump\t// out\n        /* \"#utility.yul\":568:690   */\n    tag_65:\n        /* \"#utility.yul\":641:665   */\n      tag_83\n        /* \"#utility.yul\":659:664   */\n      dup2\n        /* \"#utility.yul\":641:665   */\n      tag_64\n      jump\t// in\n    tag_83:\n        /* \"#utility.yul\":634:639   */\n      dup2\n        /* \"#utility.yul\":631:666   */\n      eq\n        /* \"#utility.yul\":621:684   */\n      tag_84\n      jumpi\n        /* \"#utility.yul\":680:681   */\n      0x00\n        /* \"#utility.yul\":677:678   */\n      dup1\n        /* \"#utility.yul\":670:682   */\n      revert\n        /* \"#utility.yul\":621:684   */\n    tag_84:\n        /* \"#utility.yul\":568:690   */\n      pop\n      jump\t// out\n        /* \"#utility.yul\":696:835   */\n    tag_66:\n        /* \"#utility.yul\":742:747   */\n      0x00\n        /* \"#utility.yul\":780:786   */\n      dup2\n        /* \"#utility.yul\":767:787   */\n      calldataload\n        /* \"#utility.yul\":758:787   */\n      swap1\n      pop\n        /* \"#utility.yul\":796:829   */\n      tag_86\n        /* \"#utility.yul\":823:828   */\n      dup2\n        /* \"#utility.yul\":796:829   */\n      tag_65\n      jump\t// in\n    tag_86:\n        /* \"#utility.yul\":696:835   */\n      swap3\n      swap2\n      pop\n      pop\n      jump\t// out\n        /* \"#utility.yul\":841:918   */\n    tag_67:\n        /* \"#utility.yul\":878:885   */\n      0x00\n        /* \"#utility.yul\":907:912   */\n      dup2\n        /* \"#utility.yul\":896:912   */\n      swap1\n      pop\n        /* \"#utility.yul\":841:918   */\n      swap2\n      swap1\n      pop\n      jump\t// out\n        /* \"#utility.yul\":924:1046   */\n    tag_68:\n        /* \"#utility.yul\":997:1021   */\n      tag_89\n        /* \"#utility.yul\":1015:1020   */\n      dup2\n        /* \"#utility.yul\":997:1021   */\n      tag_67\n      jump\t// in\n    tag_89:\n        /* \"#utility.yul\":990:995   */\n      dup2\n        /* \"#utility.yul\":987:1022   */\n      eq\n        /* \"#utility.yul\":977:1040   */\n      tag_90\n      jumpi\n        /* \"#utility.yul\":1036:1037   */\n      0x00\n        /* \"#utility.yul\":1033:1034   */\n      dup1\n        /* \"#utility.yul\":1026:1038   */\n      revert\n        /* \"#utility.yul\":977:1040   */\n    tag_90:\n        /* \"#utility.yul\":924:1046   */\n      pop\n      jump\t// out\n        /* \"#utility.yul\":1052:1191   */\n    tag_69:\n        /* \"#utility.yul\":1098:1103   */\n      0x00\n        /* \"#utility.yul\":1136:1142   */\n      dup2\n        /* \"#utility.yul\":1123:1143   */\n      calldataload\n        /* \"#utility.yul\":1114:1143   */\n      swap1\n      pop\n        /* \"#utility.yul\":1152:1185   */\n      tag_92\n        /* \"#utility.yul\":1179:1184   */\n      dup2\n        /* \"#utility.yul\":1152:1185   */\n      tag_68\n      jump\t// in\n    tag_92:\n        /* \"#utility.yul\":1052:1191   */\n      swap3\n      swap2\n      pop\n      pop\n      jump\t// out\n        /* \"#utility.yul\":1197:1671   */\n    tag_14:\n        /* \"#utility.yul\":1265:1271   */\n      0x00\n        /* \"#utility.yul\":1273:1279   */\n      dup1\n        /* \"#utility.yul\":1322:1324   */\n      0x40\n        /* \"#utility.yul\":1310:1319   */\n      dup4\n        /* \"#utility.yul\":1301:1308   */\n      dup6\n        /* \"#utility.yul\":1297:1320   */\n      sub\n        /* \"#utility.yul\":1293:1325   */\n      slt\n        /* \"#utility.yul\":1290:1409   */\n      iszero\n      tag_94\n      jumpi\n        /* \"#utility.yul\":1328:1407   */\n      tag_95\n      tag_61\n      jump\t// in\n    tag_95:\n        /* \"#utility.yul\":1290:1409   */\n    tag_94:\n        /* \"#utility.yul\":1448:1449   */\n      0x00\n        /* \"#utility.yul\":1473:1526   */\n      tag_96\n        /* \"#utility.yul\":1518:1525   */\n      dup6\n        /* \"#utility.yul\":1509:1515   */\n      dup3\n        /* \"#utility.yul\":1498:1507   */\n      dup7\n        /* \"#utility.yul\":1494:1516   */\n      add\n        /* \"#utility.yul\":1473:1526   */\n      tag_66\n      jump\t// in\n    tag_96:\n        /* \"#utility.yul\":1463:1526   */\n      swap3\n      pop\n        /* \"#utility.yul\":1419:1536   */\n      pop\n        /* \"#utility.yul\":1575:1577   */\n      0x20\n        /* \"#utility.yul\":1601:1654   */\n      tag_97\n        /* \"#utility.yul\":1646:1653   */\n      dup6\n        /* \"#utility.yul\":1637:1643   */\n      dup3\n        /* \"#utility.yul\":1626:1635   */\n      dup7\n        /* \"#utility.yul\":1622:1644   */\n      add\n        /* \"#utility.yul\":1601:1654   */\n      tag_69\n      jump\t// in\n    tag_97:\n        /* \"#utility.yul\":1591:1654   */\n      swap2\n      pop\n        /* \"#utility.yul\":1546:1664   */\n      pop\n        /* \"#utility.yul\":1197:1671   */\n      swap3\n      pop\n      swap3\n      swap1\n      pop\n      jump\t// out\n        /* \"#utility.yul\":1677:2006   */\n    tag_18:\n        /* \"#utility.yul\":1736:1742   */\n      0x00\n        /* \"#utility.yul\":1785:1787   */\n      0x20\n        /* \"#utility.yul\":1773:1782   */\n      dup3\n        /* \"#utility.yul\":1764:1771   */\n      dup5\n        /* \"#utility.yul\":1760:1783   */\n      sub\n        /* \"#utility.yul\":1756:1788   */\n      slt\n        /* \"#utility.yul\":1753:1872   */\n      iszero\n      tag_99\n      jumpi\n        /* \"#utility.yul\":1791:1870   */\n      tag_100\n      tag_61\n      jump\t// in\n    tag_100:\n        /* \"#utility.yul\":1753:1872   */\n    tag_99:\n        /* \"#utility.yul\":1911:1912   */\n      0x00\n        /* \"#utility.yul\":1936:1989   */\n      tag_101\n        /* \"#utility.yul\":1981:1988   */\n      dup5\n        /* \"#utility.yul\":1972:1978   */\n      dup3\n        /* \"#utility.yul\":1961:1970   */\n      dup6\n        /* \"#utility.yul\":1957:1979   */\n      add\n        /* \"#utility.yul\":1936:1989   */\n      tag_66\n      jump\t// in\n    tag_101:\n        /* \"#utility.yul\":1926:1989   */\n      swap2\n      pop\n        /* \"#utility.yul\":1882:1999   */\n      pop\n        /* \"#utility.yul\":1677:2006   */\n      swap3\n      swap2\n      pop\n      pop\n      jump\t// out\n        /* \"#utility.yul\":2012:2130   */\n    tag_70:\n        /* \"#utility.yul\":2099:2123   */\n      tag_103\n        /* \"#utility.yul\":2117:2122   */\n      dup2\n        /* \"#utility.yul\":2099:2123   */\n      tag_67\n      jump\t// in\n    tag_103:\n        /* \"#utility.yul\":2094:2097   */\n      dup3\n        /* \"#utility.yul\":2087:2124   */\n      mstore\n        /* \"#utility.yul\":2012:2130   */\n      pop\n      pop\n      jump\t// out\n        /* \"#utility.yul\":2136:2358   */\n    tag_21:\n        /* \"#utility.yul\":2229:2233   */\n      0x00\n        /* \"#utility.yul\":2267:2269   */\n      0x20\n        /* \"#utility.yul\":2256:2265   */\n      dup3\n        /* \"#utility.yul\":2252:2270   */\n      add\n        /* \"#utility.yul\":2244:2270   */\n      swap1\n      pop\n        /* \"#utility.yul\":2280:2351   */\n      tag_105\n        /* \"#utility.yul\":2348:2349   */\n      0x00\n        /* \"#utility.yul\":2337:2346   */\n      dup4\n        /* \"#utility.yul\":2333:2350   */\n      add\n        /* \"#utility.yul\":2324:2330   */\n      dup5\n        /* \"#utility.yul\":2280:2351   */\n      tag_70\n      jump\t// in\n    tag_105:\n        /* \"#utility.yul\":2136:2358   */\n      swap3\n      swap2\n      pop\n      pop\n      jump\t// out\n        /* \"#utility.yul\":2364:2983   */\n    tag_27:\n        /* \"#utility.yul\":2441:2447   */\n      0x00\n        /* \"#utility.yul\":2449:2455   */\n      dup1\n        /* \"#utility.yul\":2457:2463   */\n      0x00\n        /* \"#utility.yul\":2506:2508   */\n      0x60\n        /* \"#utility.yul\":2494:2503   */\n      dup5\n        /* \"#utility.yul\":2485:2492   */\n      dup7\n        /* \"#utility.yul\":2481:2504   */\n      sub\n        /* \"#utility.yul\":2477:2509   */\n      slt\n        /* \"#utility.yul\":2474:2593   */\n      iszero\n      tag_107\n      jumpi\n        /* \"#utility.yul\":2512:2591   */\n      tag_108\n      tag_61\n      jump\t// in\n    tag_108:\n        /* \"#utility.yul\":2474:2593   */\n    tag_107:\n        /* \"#utility.yul\":2632:2633   */\n      0x00\n        /* \"#utility.yul\":2657:2710   */\n      tag_109\n        /* \"#utility.yul\":2702:2709   */\n      dup7\n        /* \"#utility.yul\":2693:2699   */\n      dup3\n        /* \"#utility.yul\":2682:2691   */\n      dup8\n        /* \"#utility.yul\":2678:2700   */\n      add\n        /* \"#utility.yul\":2657:2710   */\n      tag_66\n      jump\t// in\n    tag_109:\n        /* \"#utility.yul\":2647:2710   */\n      swap4\n      pop\n        /* \"#utility.yul\":2603:2720   */\n      pop\n        /* \"#utility.yul\":2759:2761   */\n      0x20\n        /* \"#utility.yul\":2785:2838   */\n      tag_110\n        /* \"#utility.yul\":2830:2837   */\n      dup7\n        /* \"#utility.yul\":2821:2827   */\n      dup3\n        /* \"#utility.yul\":2810:2819   */\n      dup8\n        /* \"#utility.yul\":2806:2828   */\n      add\n        /* \"#utility.yul\":2785:2838   */\n      tag_66\n      jump\t// in\n    tag_110:\n        /* \"#utility.yul\":2775:2838   */\n      swap3\n      pop\n        /* \"#utility.yul\":2730:2848   */\n      pop\n        /* \"#utility.yul\":2887:2889   */\n      0x40\n        /* \"#utility.yul\":2913:2966   */\n      tag_111\n        /* \"#utility.yul\":2958:2965   */\n      dup7\n        /* \"#utility.yul\":2949:2955   */\n      dup3\n        /* \"#utility.yul\":2938:2947   */\n      dup8\n        /* \"#utility.yul\":2934:2956   */\n      add\n        /* \"#utility.yul\":2913:2966   */\n      tag_69\n      jump\t// in\n    tag_111:\n        /* \"#utility.yul\":2903:2966   */\n      swap2\n      pop\n        /* \"#utility.yul\":2858:2976   */\n      pop\n        /* \"#utility.yul\":2364:2983   */\n      swap3\n      pop\n      swap3\n      pop\n      swap3\n      jump\t// out\n        /* \"#utility.yul\":2989:3463   */\n    tag_34:\n        /* \"#utility.yul\":3057:3063   */\n      0x00\n        /* \"#utility.yul\":3065:3071   */\n      dup1\n        /* \"#utility.yul\":3114:3116   */\n      0x40\n        /* \"#utility.yul\":3102:3111   */\n      dup4\n        /* \"#utility.yul\":3093:3100   */\n      dup6\n        /* \"#utility.yul\":3089:3112   */\n      sub\n        /* \"#utility.yul\":3085:3117   */\n      slt\n        /* \"#utility.yul\":3082:3201   */\n      iszero\n      tag_113\n      jumpi\n        /* \"#utility.yul\":3120:3199   */\n      tag_114\n      tag_61\n      jump\t// in\n    tag_114:\n        /* \"#utility.yul\":3082:3201   */\n    tag_113:\n        /* \"#utility.yul\":3240:3241   */\n      0x00\n        /* \"#utility.yul\":3265:3318   */\n      tag_115\n        /* \"#utility.yul\":3310:3317   */\n      dup6\n        /* \"#utility.yul\":3301:3307   */\n      dup3\n        /* \"#utility.yul\":3290:3299   */\n      dup7\n        /* \"#utility.yul\":3286:3308   */\n      add\n        /* \"#utility.yul\":3265:3318   */\n      tag_66\n      jump\t// in\n    tag_115:\n        /* \"#utility.yul\":3255:3318   */\n      swap3\n      pop\n        /* \"#utility.yul\":3211:3328   */\n      pop\n        /* \"#utility.yul\":3367:3369   */\n      0x20\n        /* \"#utility.yul\":3393:3446   */\n      tag_116\n        /* \"#utility.yul\":3438:3445   */\n      dup6\n        /* \"#utility.yul\":3429:3435   */\n      dup3\n        /* \"#utility.yul\":3418:3427   */\n      dup7\n        /* \"#utility.yul\":3414:3436   */\n      add\n        /* \"#utility.yul\":3393:3446   */\n      tag_66\n      jump\t// in\n    tag_116:\n        /* \"#utility.yul\":3383:3446   */\n      swap2\n      pop\n        /* \"#utility.yul\":3338:3456   */\n      pop\n        /* \"#utility.yul\":2989:3463   */\n      swap3\n      pop\n      swap3\n      swap1\n      pop\n      jump\t// out\n        /* \"#utility.yul\":3469:3649   */\n    tag_71:\n        /* \"#utility.yul\":3517:3594   */\n      0x4e487b7100000000000000000000000000000000000000000000000000000000\n        /* \"#utility.yul\":3514:3515   */\n      0x00\n        /* \"#utility.yul\":3507:3595   */\n      mstore\n        /* \"#utility.yul\":3614:3618   */\n      0x11\n        /* \"#utility.yul\":3611:3612   */\n      0x04\n        /* \"#utility.yul\":3604:3619   */\n      mstore\n        /* \"#utility.yul\":3638:3642   */\n      0x24\n        /* \"#utility.yul\":3635:3636   */\n      0x00\n        /* \"#utility.yul\":3628:3643   */\n      revert\n        /* \"#utility.yul\":3655:3846   */\n    tag_46:\n        /* \"#utility.yul\":3695:3698   */\n      0x00\n        /* \"#utility.yul\":3714:3734   */\n      tag_119\n        /* \"#utility.yul\":3732:3733   */\n      dup3\n        /* \"#utility.yul\":3714:3734   */\n      tag_67\n      jump\t// in\n    tag_119:\n        /* \"#utility.yul\":3709:3734   */\n      swap2\n      pop\n        /* \"#utility.yul\":3748:3768   */\n      tag_120\n        /* \"#utility.yul\":3766:3767   */\n      dup4\n        /* \"#utility.yul\":3748:3768   */\n      tag_67\n      jump\t// in\n    tag_120:\n        /* \"#utility.yul\":3743:3768   */\n      swap3\n      pop\n        /* \"#utility.yul\":3791:3792   */\n      dup3\n        /* \"#utility.yul\":3788:3789   */\n      dup3\n        /* \"#utility.yul\":3784:3793   */\n      add\n        /* \"#utility.yul\":3777:3793   */\n      swap1\n      pop\n        /* \"#utility.yul\":3812:3815   */\n      dup1\n        /* \"#utility.yul\":3809:3810   */\n      dup3\n        /* \"#utility.yul\":3806:3816   */\n      gt\n        /* \"#utility.yul\":3803:3839   */\n      iszero\n      tag_121\n      jumpi\n        /* \"#utility.yul\":3819:3837   */\n      tag_122\n      tag_71\n      jump\t// in\n    tag_122:\n        /* \"#utility.yul\":3803:3839   */\n    tag_121:\n        /* \"#utility.yul\":3655:3846   */\n      swap3\n      swap2\n      pop\n      pop\n      jump\t// out\n        /* \"#utility.yul\":3852:4021   */\n    tag_72:\n        /* \"#utility.yul\":3936:3947   */\n      0x00\n        /* \"#utility.yul\":3970:3976   */\n      dup3\n        /* \"#utility.yul\":3965:3968   */\n      dup3\n        /* \"#utility.yul\":3958:3977   */\n      mstore\n        /* \"#utility.yul\":4010:4014   */\n      0x20\n        /* \"#utility.yul\":4005:4008   */\n      dup3\n        /* \"#utility.yul\":4001:4015   */\n      add\n        /* \"#utility.yul\":3986:4015   */\n      swap1\n      pop\n        /* \"#utility.yul\":3852:4021   */\n      swap3\n      swap2\n      pop\n      pop\n      jump\t// out\n        /* \"#utility.yul\":4027:4191   */\n    tag_73:\n        /* \"#utility.yul\":4167:4183   */\n      0x6e6f7420617574686f72697a6564000000000000000000000000000000000000\n        /* \"#utility.yul\":4163:4164   */\n      0x00\n        /* \"#utility.yul\":4155:4161   */\n      dup3\n        /* \"#utility.yul\":4151:4165   */\n      add\n        /* \"#utility.yul\":4144:4184   */\n      mstore\n        /* \"#utility.yul\":4027:4191   */\n      pop\n      jump\t// out\n        /* \"#utility.yul\":4197:4563   */\n    tag_74:\n        /* \"#utility.yul\":4339:4342   */\n      0x00\n        /* \"#utility.yul\":4360:4427   */\n      tag_126\n        /* \"#utility.yul\":4424:4426   */\n      0x0e\n        /* \"#utility.yul\":4419:4422   */\n      dup4\n        /* \"#utility.yul\":4360:4427   */\n      tag_72\n      jump\t// in\n    tag_126:\n        /* \"#utility.yul\":4353:4427   */\n      swap2\n      pop\n        /* \"#utility.yul\":4436:4529   */\n      tag_127\n        /* \"#utility.yul\":4525:4528   */\n      dup3\n        /* \"#utility.yul\":4436:4529   */\n      tag_73\n      jump\t// in\n    tag_127:\n        /* \"#utility.yul\":4554:4556   */\n      0x20\n        /* \"#utility.yul\":4549:4552   */\n      dup3\n        /* \"#utility.yul\":4545:4557   */\n      add\n        /* \"#utility.yul\":4538:4557   */\n      swap1\n      pop\n        /* \"#utility.yul\":4197:4563   */\n      swap2\n      swap1\n      pop\n      jump\t// out\n        /* \"#utility.yul\":4569:4988   */\n    tag_52:\n        /* \"#utility.yul\":4735:4739   */\n      0x00\n        /* \"#utility.yul\":4773:4775   */\n      0x20\n        /* \"#utility.yul\":4762:4771   */\n      dup3\n        /* \"#utility.yul\":4758:4776   */\n      add\n        /* \"#utility.yul\":4750:4776   */\n      swap1\n      pop\n        /* \"#utility.yul\":4822:4831   */\n      dup2\n        /* \"#utility.yul\":4816:4820   */\n      dup2\n        /* \"#utility.yul\":4812:4832   */\n      sub\n        /* \"#utility.yul\":4808:4809   */\n      0x00\n        /* \"#utility.yul\":4797:4806   */\n      dup4\n        /* \"#utility.yul\":4793:4810   */\n      add\n        /* \"#utility.yul\":4786:4833   */\n      mstore\n        /* \"#utility.yul\":4850:4981   */\n      tag_129\n        /* \"#utility.yul\":4976:4980   */\n      dup2\n        /* \"#utility.yul\":4850:4981   */\n      tag_74\n      jump\t// in\n    tag_129:\n        /* \"#utility.yul\":4842:4981   */\n      swap1\n      pop\n        /* \"#utility.yul\":4569:4988   */\n      swap2\n      swap1\n      pop\n      jump\t// out\n        /* \"#utility.yul\":4994:5188   */\n    tag_54:\n        /* \"#utility.yul\":5034:5038   */\n      0x00\n        /* \"#utility.yul\":5054:5074   */\n      tag_131\n        /* \"#utility.yul\":5072:5073   */\n      dup3\n        /* \"#utility.yul\":5054:5074   */\n      tag_67\n      jump\t// in\n    tag_131:\n        /* \"#utility.yul\":5049:5074   */\n      swap2\n      pop\n        /* \"#utility.yul\":5088:5108   */\n      tag_132\n        /* \"#utility.yul\":5106:5107   */\n      dup4\n        /* \"#utility.yul\":5088:5108   */\n      tag_67\n      jump\t// in\n    tag_132:\n        /* \"#utility.yul\":5083:5108   */\n      swap3\n      pop\n        /* \"#utility.yul\":5132:5133   */\n      dup3\n        /* \"#utility.yul\":5129:5130   */\n      dup3\n        /* \"#utility.yul\":5125:5134   */\n      sub\n        /* \"#utility.yul\":5117:5134   */\n      swap1\n      pop\n        /* \"#utility.yul\":5156:5157   */\n      dup2\n        /* \"#utility.yul\":5150:5154   */\n      dup2\n        /* \"#utility.yul\":5147:5158   */\n      gt\n        /* \"#utility.yul\":5144:5181   */\n      iszero\n      tag_133\n      jumpi\n        /* \"#utility.yul\":5161:5179   */\n      tag_134\n      tag_71\n      jump\t// in\n    tag_134:\n        /* \"#utility.yul\":5144:5181   */\n    tag_133:\n        /* \"#utility.yul\":4994:5188   */\n      swap3\n      swap2\n      pop\n      pop\n      jump\t// out\n\n    auxdata: 0xa26469706673582212205edaa930e7c7b900b515873ae1668244bc08f105111a5df9decf3b67a135520764736f6c63430008130033\n}\n",
				"bytecode": {
					"linkReferences": {},
					"object": "608060405234801561001057600080fd5b5061002d336b033b2e3c9fd0803ce800000061004560201b60201c565b6b033b2e3c9fd0803ce800000060028190555061008c565b806000808473ffffffffffffffffffffffffffffffffffffffff1673ffffffffffffffffffffffffffffffffffffffff168152602001908152602001600020819055505050565b6108c18061009b6000396000f3fe608060405234801561001057600080fd5b50600436106100885760003560e01c806372dd529b1161005b57806372dd529b14610111578063a77a82301461012f578063a9059cbb1461015f578063e3d670d71461017b57610088565b8063095ea7b31461008d5780633d64125b146100a95780634e6ec247146100d957806363b0545f146100f5575b600080fd5b6100a760048036038101906100a2919061064d565b6101ab565b005b6100c360048036038101906100be919061068d565b610242565b6040516100d091906106c9565b60405180910390f35b6100f360048036038101906100ee919061064d565b61028a565b005b61010f600480360381019061010a91906106e4565b6102d1565b005b6101196104d1565b60405161012691906106c9565b60405180910390f35b61014960048036038101906101449190610737565b6104db565b60405161015691906106c9565b60405180910390f35b6101796004803603810190610174919061064d565b610500565b005b6101956004803603810190610190919061068d565b61059c565b6040516101a291906106c9565b60405180910390f35b80600160003373ffffffffffffffffffffffffffffffffffffffff1673ffffffffffffffffffffffffffffffffffffffff16815260200190815260200160002060008473ffffffffffffffffffffffffffffffffffffffff1673ffffffffffffffffffffffffffffffffffffffff168152602001908152602001600020600082825461023791906107a6565b925050819055505050565b60008060008373ffffffffffffffffffffffffffffffffffffffff1673ffffffffffffffffffffffffffffffffffffffff168152602001908152602001600020549050919050565b806000808473ffffffffffffffffffffffffffffffffffffffff1673ffffffffffffffffffffffffffffffffffffffff168152602001908152602001600020819055505050565b600160008473ffffffffffffffffffffffffffffffffffffffff1673ffffffffffffffffffffffffffffffffffffffff16815260200190815260200160002060003373ffffffffffffffffffffffffffffffffffffffff1673ffffffffffffffffffffffffffffffffffffffff16815260200190815260200160002054811061038f576040517f08c379a000000000000000000000000000000000000000000000000000000000815260040161038690610837565b60405180910390fd5b806000808573ffffffffffffffffffffffffffffffffffffffff1673ffffffffffffffffffffffffffffffffffffffff16815260200190815260200160002060008282546103dd9190610857565b92505081905550806000808473ffffffffffffffffffffffffffffffffffffffff1673ffffffffffffffffffffffffffffffffffffffff168152602001908152602001600020600082825461043291906107a6565b9250508190555080600160008573ffffffffffffffffffffffffffffffffffffffff1673ffffffffffffffffffffffffffffffffffffffff16815260200190815260200160002060003373ffffffffffffffffffffffffffffffffffffffff1673ffffffffffffffffffffffffffffffffffffffff16815260200190815260200160002060008282546104c59190610857565b92505081905550505050565b6000600254905090565b6001602052816000526040600020602052806000526040600020600091509150505481565b806000803373ffffffffffffffffffffffffffffffffffffffff1673ffffffffffffffffffffffffffffffffffffffff16815260200190815260200160002081905550806000808473ffffffffffffffffffffffffffffffffffffffff1673ffffffffffffffffffffffffffffffffffffffff168152602001908152602001600020600082825461059191906107a6565b925050819055505050565b60006020528060005260406000206000915090505481565b600080fd5b600073ffffffffffffffffffffffffffffffffffffffff82169050919050565b60006105e4826105b9565b9050919050565b6105f4816105d9565b81146105ff57600080fd5b50565b600081359050610611816105eb565b92915050565b6000819050919050565b61062a81610617565b811461063557600080fd5b50565b60008135905061064781610621565b92915050565b60008060408385031215610664576106636105b4565b5b600061067285828601610602565b925050602061068385828601610638565b9150509250929050565b6000602082840312156106a3576106a26105b4565b5b60006106b184828501610602565b91505092915050565b6106c381610617565b82525050565b60006020820190506106de60008301846106ba565b92915050565b6000806000606084860312156106fd576106fc6105b4565b5b600061070b86828701610602565b935050602061071c86828701610602565b925050604061072d86828701610638565b9150509250925092565b6000806040838503121561074e5761074d6105b4565b5b600061075c85828601610602565b925050602061076d85828601610602565b9150509250929050565b7f4e487b7100000000000000000000000000000000000000000000000000000000600052601160045260246000fd5b60006107b182610617565b91506107bc83610617565b92508282019050808211156107d4576107d3610777565b5b92915050565b600082825260208201905092915050565b7f6e6f7420617574686f72697a6564000000000000000000000000000000000000600082015250565b6000610821600e836107da565b915061082c826107eb565b602082019050919050565b6000602082019050818103600083015261085081610814565b9050919050565b600061086282610617565b915061086d83610617565b925082820390508181111561088557610884610777565b5b9291505056fea26469706673582212205edaa930e7c7b900b515873ae1668244bc08f105111a5df9decf3b67a135520764736f6c63430008130033",
					"opcodes": "PUSH1 0x80 PUSH1 0x40 MSTORE CALLVALUE DUP1 ISZERO PUSH2 0x10 JUMPI PUSH1 0x0 DUP1 REVERT JUMPDEST POP PUSH2 0x2D CALLER PUSH12 0x33B2E3C9FD0803CE8000000 PUSH2 0x45 PUSH1 0x20 SHL PUSH1 0x20 SHR JUMP JUMPDEST PUSH12 0x33B2E3C9FD0803CE8000000 PUSH1 0x2 DUP2 SWAP1 SSTORE POP PUSH2 0x8C JUMP JUMPDEST DUP1 PUSH1 0x0 DUP1 DUP5 PUSH20 0xFFFFFFFFFFFFFFFFFFFFFFFFFFFFFFFFFFFFFFFF AND PUSH20 0xFFFFFFFFFFFFFFFFFFFFFFFFFFFFFFFFFFFFFFFF AND DUP2 MSTORE PUSH1 0x20 ADD SWAP1 DUP2 MSTORE PUSH1 0x20 ADD PUSH1 0x0 KECCAK256 DUP2 SWAP1 SSTORE POP POP POP JUMP JUMPDEST PUSH2 0x8C1 DUP1 PUSH2 0x9B PUSH1 0x0 CODECOPY PUSH1 0x0 RETURN INVALID PUSH1 0x80 PUSH1 0x40 MSTORE CALLVALUE DUP1 ISZERO PUSH2 0x10 JUMPI PUSH1 0x0 DUP1 REVERT JUMPDEST POP PUSH1 0x4 CALLDATASIZE LT PUSH2 0x88 JUMPI PUSH1 0x0 CALLDATALOAD PUSH1 0xE0 SHR DUP1 PUSH4 0x72DD529B GT PUSH2 0x5B JUMPI DUP1 PUSH4 0x72DD529B EQ PUSH2 0x111 JUMPI DUP1 PUSH4 0xA77A8230 EQ PUSH2 0x12F JUMPI DUP1 PUSH4 0xA9059CBB EQ PUSH2 0x15F JUMPI DUP1 PUSH4 0xE3D670D7 EQ PUSH2 0x17B JUMPI PUSH2 0x88 JUMP JUMPDEST DUP1 PUSH4 0x95EA7B3 EQ PUSH2 0x8D JUMPI DUP1 PUSH4 0x3D64125B EQ PUSH2 0xA9 JUMPI DUP1 PUSH4 0x4E6EC247 EQ PUSH2 0xD9 JUMPI DUP1 PUSH4 0x63B0545F EQ PUSH2 0xF5 JUMPI JUMPDEST PUSH1 0x0 DUP1 REVERT JUMPDEST PUSH2 0xA7 PUSH1 0x4 DUP1 CALLDATASIZE SUB DUP2 ADD SWAP1 PUSH2 0xA2 SWAP2 SWAP1 PUSH2 0x64D JUMP JUMPDEST PUSH2 0x1AB JUMP JUMPDEST STOP JUMPDEST PUSH2 0xC3 PUSH1 0x4 DUP1 CALLDATASIZE SUB DUP2 ADD SWAP1 PUSH2 0xBE SWAP2 SWAP1 PUSH2 0x68D JUMP JUMPDEST PUSH2 0x242 JUMP JUMPDEST PUSH1 0x40 MLOAD PUSH2 0xD0 SWAP2 SWAP1 PUSH2 0x6C9 JUMP JUMPDEST PUSH1 0x40 MLOAD DUP1 SWAP2 SUB SWAP1 RETURN JUMPDEST PUSH2 0xF3 PUSH1 0x4 DUP1 CALLDATASIZE SUB DUP2 ADD SWAP1 PUSH2 0xEE SWAP2 SWAP1 PUSH2 0x64D JUMP JUMPDEST PUSH2 0x28A JUMP JUMPDEST STOP JUMPDEST PUSH2 0x10F PUSH1 0x4 DUP1 CALLDATASIZE SUB DUP2 ADD SWAP1 PUSH2 0x10A SWAP2 SWAP1 PUSH2 0x6E4 JUMP JUMPDEST PUSH2 0x2D1 JUMP JUMPDEST STOP JUMPDEST PUSH2 0x119 PUSH2 0x4D1 JUMP JUMPDEST PUSH1 0x40 MLOAD PUSH2 0x126 SWAP2 SWAP1 PUSH2 0x6C9 JUMP JUMPDEST PUSH1 0x40 MLOAD DUP1 SWAP2 SUB SWAP1 RETURN JUMPDEST PUSH2 0x149 PUSH1 0x4 DUP1 CALLDATASIZE SUB DUP2 ADD SWAP1 PUSH2 0x144 SWAP2 SWAP1 PUSH2 0x737 JUMP JUMPDEST PUSH2 0x4DB JUMP JUMPDEST PUSH1 0x40 MLOAD PUSH2 0x156 SWAP2 SWAP1 PUSH2 0x6C9 JUMP JUMPDEST PUSH1 0x40 MLOAD DUP1 SWAP2 SUB SWAP1 RETURN JUMPDEST PUSH2 0x179 PUSH1 0x4 DUP1 CALLDATASIZE SUB DUP2 ADD SWAP1 PUSH2 0x174 SWAP2 SWAP1 PUSH2 0x64D JUMP JUMPDEST PUSH2 0x500 JUMP JUMPDEST STOP JUMPDEST PUSH2 0x195 PUSH1 0x4 DUP1 CALLDATASIZE SUB DUP2 ADD SWAP1 PUSH2 0x190 SWAP2 SWAP1 PUSH2 0x68D JUMP JUMPDEST PUSH2 0x59C JUMP JUMPDEST PUSH1 0x40 MLOAD PUSH2 0x1A2 SWAP2 SWAP1 PUSH2 0x6C9 JUMP JUMPDEST PUSH1 0x40 MLOAD DUP1 SWAP2 SUB SWAP1 RETURN JUMPDEST DUP1 PUSH1 0x1 PUSH1 0x0 CALLER PUSH20 0xFFFFFFFFFFFFFFFFFFFFFFFFFFFFFFFFFFFFFFFF AND PUSH20 0xFFFFFFFFFFFFFFFFFFFFFFFFFFFFFFFFFFFFFFFF AND DUP2 MSTORE PUSH1 0x20 ADD SWAP1 DUP2 MSTORE PUSH1 0x20 ADD PUSH1 0x0 KECCAK256 PUSH1 0x0 DUP5 PUSH20 0xFFFFFFFFFFFFFFFFFFFFFFFFFFFFFFFFFFFFFFFF AND PUSH20 0xFFFFFFFFFFFFFFFFFFFFFFFFFFFFFFFFFFFFFFFF AND DUP2 MSTORE PUSH1 0x20 ADD SWAP1 DUP2 MSTORE PUSH1 0x20 ADD PUSH1 0x0 KECCAK256 PUSH1 0x0 DUP3 DUP3 SLOAD PUSH2 0x237 SWAP2 SWAP1 PUSH2 0x7A6 JUMP JUMPDEST SWAP3 POP POP DUP2 SWAP1 SSTORE POP POP POP JUMP JUMPDEST PUSH1 0x0 DUP1 PUSH1 0x0 DUP4 PUSH20 0xFFFFFFFFFFFFFFFFFFFFFFFFFFFFFFFFFFFFFFFF AND PUSH20 0xFFFFFFFFFFFFFFFFFFFFFFFFFFFFFFFFFFFFFFFF AND DUP2 MSTORE PUSH1 0x20 ADD SWAP1 DUP2 MSTORE PUSH1 0x20 ADD PUSH1 0x0 KECCAK256 SLOAD SWAP1 POP SWAP2 SWAP1 POP JUMP JUMPDEST DUP1 PUSH1 0x0 DUP1 DUP5 PUSH20 0xFFFFFFFFFFFFFFFFFFFFFFFFFFFFFFFFFFFFFFFF AND PUSH20 0xFFFFFFFFFFFFFFFFFFFFFFFFFFFFFFFFFFFFFFFF AND DUP2 MSTORE PUSH1 0x20 ADD SWAP1 DUP2 MSTORE PUSH1 0x20 ADD PUSH1 0x0 KECCAK256 DUP2 SWAP1 SSTORE POP POP POP JUMP JUMPDEST PUSH1 0x1 PUSH1 0x0 DUP5 PUSH20 0xFFFFFFFFFFFFFFFFFFFFFFFFFFFFFFFFFFFFFFFF AND PUSH20 0xFFFFFFFFFFFFFFFFFFFFFFFFFFFFFFFFFFFFFFFF AND DUP2 MSTORE PUSH1 0x20 ADD SWAP1 DUP2 MSTORE PUSH1 0x20 ADD PUSH1 0x0 KECCAK256 PUSH1 0x0 CALLER PUSH20 0xFFFFFFFFFFFFFFFFFFFFFFFFFFFFFFFFFFFFFFFF AND PUSH20 0xFFFFFFFFFFFFFFFFFFFFFFFFFFFFFFFFFFFFFFFF AND DUP2 MSTORE PUSH1 0x20 ADD SWAP1 DUP2 MSTORE PUSH1 0x20 ADD PUSH1 0x0 KECCAK256 SLOAD DUP2 LT PUSH2 0x38F JUMPI PUSH1 0x40 MLOAD PUSH32 0x8C379A000000000000000000000000000000000000000000000000000000000 DUP2 MSTORE PUSH1 0x4 ADD PUSH2 0x386 SWAP1 PUSH2 0x837 JUMP JUMPDEST PUSH1 0x40 MLOAD DUP1 SWAP2 SUB SWAP1 REVERT JUMPDEST DUP1 PUSH1 0x0 DUP1 DUP6 PUSH20 0xFFFFFFFFFFFFFFFFFFFFFFFFFFFFFFFFFFFFFFFF AND PUSH20 0xFFFFFFFFFFFFFFFFFFFFFFFFFFFFFFFFFFFFFFFF AND DUP2 MSTORE PUSH1 0x20 ADD SWAP1 DUP2 MSTORE PUSH1 0x20 ADD PUSH1 0x0 KECCAK256 PUSH1 0x0 DUP3 DUP3 SLOAD PUSH2 0x3DD SWAP2 SWAP1 PUSH2 0x857 JUMP JUMPDEST SWAP3 POP POP DUP2 SWAP1 SSTORE POP DUP1 PUSH1 0x0 DUP1 DUP5 PUSH20 0xFFFFFFFFFFFFFFFFFFFFFFFFFFFFFFFFFFFFFFFF AND PUSH20 0xFFFFFFFFFFFFFFFFFFFFFFFFFFFFFFFFFFFFFFFF AND DUP2 MSTORE PUSH1 0x20 ADD SWAP1 DUP2 MSTORE PUSH1 0x20 ADD PUSH1 0x0 KECCAK256 PUSH1 0x0 DUP3 DUP3 SLOAD PUSH2 0x432 SWAP2 SWAP1 PUSH2 0x7A6 JUMP JUMPDEST SWAP3 POP POP DUP2 SWAP1 SSTORE POP DUP1 PUSH1 0x1 PUSH1 0x0 DUP6 PUSH20 0xFFFFFFFFFFFFFFFFFFFFFFFFFFFFFFFFFFFFFFFF AND PUSH20 0xFFFFFFFFFFFFFFFFFFFFFFFFFFFFFFFFFFFFFFFF AND DUP2 MSTORE PUSH1 0x20 ADD SWAP1 DUP2 MSTORE PUSH1 0x20 ADD PUSH1 0x0 KECCAK256 PUSH1 0x0 CALLER PUSH20 0xFFFFFFFFFFFFFFFFFFFFFFFFFFFFFFFFFFFFFFFF AND PUSH20 0xFFFFFFFFFFFFFFFFFFFFFFFFFFFFFFFFFFFFFFFF AND DUP2 MSTORE PUSH1 0x20 ADD SWAP1 DUP2 MSTORE PUSH1 0x20 ADD PUSH1 0x0 KECCAK256 PUSH1 0x0 DUP3 DUP3 SLOAD PUSH2 0x4C5 SWAP2 SWAP1 PUSH2 0x857 JUMP JUMPDEST SWAP3 POP POP DUP2 SWAP1 SSTORE POP POP POP POP JUMP JUMPDEST PUSH1 0x0 PUSH1 0x2 SLOAD SWAP1 POP SWAP1 JUMP JUMPDEST PUSH1 0x1 PUSH1 0x20 MSTORE DUP2 PUSH1 0x0 MSTORE PUSH1 0x40 PUSH1 0x0 KECCAK256 PUSH1 0x20 MSTORE DUP1 PUSH1 0x0 MSTORE PUSH1 0x40 PUSH1 0x0 KECCAK256 PUSH1 0x0 SWAP2 POP SWAP2 POP POP SLOAD DUP2 JUMP JUMPDEST DUP1 PUSH1 0x0 DUP1 CALLER PUSH20 0xFFFFFFFFFFFFFFFFFFFFFFFFFFFFFFFFFFFFFFFF AND PUSH20 0xFFFFFFFFFFFFFFFFFFFFFFFFFFFFFFFFFFFFFFFF AND DUP2 MSTORE PUSH1 0x20 ADD SWAP1 DUP2 MSTORE PUSH1 0x20 ADD PUSH1 0x0 KECCAK256 DUP2 SWAP1 SSTORE POP DUP1 PUSH1 0x0 DUP1 DUP5 PUSH20 0xFFFFFFFFFFFFFFFFFFFFFFFFFFFFFFFFFFFFFFFF AND PUSH20 0xFFFFFFFFFFFFFFFFFFFFFFFFFFFFFFFFFFFFFFFF AND DUP2 MSTORE PUSH1 0x20 ADD SWAP1 DUP2 MSTORE PUSH1 0x20 ADD PUSH1 0x0 KECCAK256 PUSH1 0x0 DUP3 DUP3 SLOAD PUSH2 0x591 SWAP2 SWAP1 PUSH2 0x7A6 JUMP JUMPDEST SWAP3 POP POP DUP2 SWAP1 SSTORE POP POP POP JUMP JUMPDEST PUSH1 0x0 PUSH1 0x20 MSTORE DUP1 PUSH1 0x0 MSTORE PUSH1 0x40 PUSH1 0x0 KECCAK256 PUSH1 0x0 SWAP2 POP SWAP1 POP SLOAD DUP2 JUMP JUMPDEST PUSH1 0x0 DUP1 REVERT JUMPDEST PUSH1 0x0 PUSH20 0xFFFFFFFFFFFFFFFFFFFFFFFFFFFFFFFFFFFFFFFF DUP3 AND SWAP1 POP SWAP2 SWAP1 POP JUMP JUMPDEST PUSH1 0x0 PUSH2 0x5E4 DUP3 PUSH2 0x5B9 JUMP JUMPDEST SWAP1 POP SWAP2 SWAP1 POP JUMP JUMPDEST PUSH2 0x5F4 DUP2 PUSH2 0x5D9 JUMP JUMPDEST DUP2 EQ PUSH2 0x5FF JUMPI PUSH1 0x0 DUP1 REVERT JUMPDEST POP JUMP JUMPDEST PUSH1 0x0 DUP2 CALLDATALOAD SWAP1 POP PUSH2 0x611 DUP2 PUSH2 0x5EB JUMP JUMPDEST SWAP3 SWAP2 POP POP JUMP JUMPDEST PUSH1 0x0 DUP2 SWAP1 POP SWAP2 SWAP1 POP JUMP JUMPDEST PUSH2 0x62A DUP2 PUSH2 0x617 JUMP JUMPDEST DUP2 EQ PUSH2 0x635 JUMPI PUSH1 0x0 DUP1 REVERT JUMPDEST POP JUMP JUMPDEST PUSH1 0x0 DUP2 CALLDATALOAD SWAP1 POP PUSH2 0x647 DUP2 PUSH2 0x621 JUMP JUMPDEST SWAP3 SWAP2 POP POP JUMP JUMPDEST PUSH1 0x0 DUP1 PUSH1 0x40 DUP4 DUP6 SUB SLT ISZERO PUSH2 0x664 JUMPI PUSH2 0x663 PUSH2 0x5B4 JUMP JUMPDEST JUMPDEST PUSH1 0x0 PUSH2 0x672 DUP6 DUP3 DUP7 ADD PUSH2 0x602 JUMP JUMPDEST SWAP3 POP POP PUSH1 0x20 PUSH2 0x683 DUP6 DUP3 DUP7 ADD PUSH2 0x638 JUMP JUMPDEST SWAP2 POP POP SWAP3 POP SWAP3 SWAP1 POP JUMP JUMPDEST PUSH1 0x0 PUSH1 0x20 DUP3 DUP5 SUB SLT ISZERO PUSH2 0x6A3 JUMPI PUSH2 0x6A2 PUSH2 0x5B4 JUMP JUMPDEST JUMPDEST PUSH1 0x0 PUSH2 0x6B1 DUP5 DUP3 DUP6 ADD PUSH2 0x602 JUMP JUMPDEST SWAP2 POP POP SWAP3 SWAP2 POP POP JUMP JUMPDEST PUSH2 0x6C3 DUP2 PUSH2 0x617 JUMP JUMPDEST DUP3 MSTORE POP POP JUMP JUMPDEST PUSH1 0x0 PUSH1 0x20 DUP3 ADD SWAP1 POP PUSH2 0x6DE PUSH1 0x0 DUP4 ADD DUP5 PUSH2 0x6BA JUMP JUMPDEST SWAP3 SWAP2 POP POP JUMP JUMPDEST PUSH1 0x0 DUP1 PUSH1 0x0 PUSH1 0x60 DUP5 DUP7 SUB SLT ISZERO PUSH2 0x6FD JUMPI PUSH2 0x6FC PUSH2 0x5B4 JUMP JUMPDEST JUMPDEST PUSH1 0x0 PUSH2 0x70B DUP7 DUP3 DUP8 ADD PUSH2 0x602 JUMP JUMPDEST SWAP4 POP POP PUSH1 0x20 PUSH2 0x71C DUP7 DUP3 DUP8 ADD PUSH2 0x602 JUMP JUMPDEST SWAP3 POP POP PUSH1 0x40 PUSH2 0x72D DUP7 DUP3 DUP8 ADD PUSH2 0x638 JUMP JUMPDEST SWAP2 POP POP SWAP3 POP SWAP3 POP SWAP3 JUMP JUMPDEST PUSH1 0x0 DUP1 PUSH1 0x40 DUP4 DUP6 SUB SLT ISZERO PUSH2 0x74E JUMPI PUSH2 0x74D PUSH2 0x5B4 JUMP JUMPDEST JUMPDEST PUSH1 0x0 PUSH2 0x75C DUP6 DUP3 DUP7 ADD PUSH2 0x602 JUMP JUMPDEST SWAP3 POP POP PUSH1 0x20 PUSH2 0x76D DUP6 DUP3 DUP7 ADD PUSH2 0x602 JUMP JUMPDEST SWAP2 POP POP SWAP3 POP SWAP3 SWAP1 POP JUMP JUMPDEST PUSH32 0x4E487B7100000000000000000000000000000000000000000000000000000000 PUSH1 0x0 MSTORE PUSH1 0x11 PUSH1 0x4 MSTORE PUSH1 0x24 PUSH1 0x0 REVERT JUMPDEST PUSH1 0x0 PUSH2 0x7B1 DUP3 PUSH2 0x617 JUMP JUMPDEST SWAP2 POP PUSH2 0x7BC DUP4 PUSH2 0x617 JUMP JUMPDEST SWAP3 POP DUP3 DUP3 ADD SWAP1 POP DUP1 DUP3 GT ISZERO PUSH2 0x7D4 JUMPI PUSH2 0x7D3 PUSH2 0x777 JUMP JUMPDEST JUMPDEST SWAP3 SWAP2 POP POP JUMP JUMPDEST PUSH1 0x0 DUP3 DUP3 MSTORE PUSH1 0x20 DUP3 ADD SWAP1 POP SWAP3 SWAP2 POP POP JUMP JUMPDEST PUSH32 0x6E6F7420617574686F72697A6564000000000000000000000000000000000000 PUSH1 0x0 DUP3 ADD MSTORE POP JUMP JUMPDEST PUSH1 0x0 PUSH2 0x821 PUSH1 0xE DUP4 PUSH2 0x7DA JUMP JUMPDEST SWAP2 POP PUSH2 0x82C DUP3 PUSH2 0x7EB JUMP JUMPDEST PUSH1 0x20 DUP3 ADD SWAP1 POP SWAP2 SWAP1 POP JUMP JUMPDEST PUSH1 0x0 PUSH1 0x20 DUP3 ADD SWAP1 POP DUP2 DUP2 SUB PUSH1 0x0 DUP4 ADD MSTORE PUSH2 0x850 DUP2 PUSH2 0x814 JUMP JUMPDEST SWAP1 POP SWAP2 SWAP1 POP JUMP JUMPDEST PUSH1 0x0 PUSH2 0x862 DUP3 PUSH2 0x617 JUMP JUMPDEST SWAP2 POP PUSH2 0x86D DUP4 PUSH2 0x617 JUMP JUMPDEST SWAP3 POP DUP3 DUP3 SUB SWAP1 POP DUP2 DUP2 GT ISZERO PUSH2 0x885 JUMPI PUSH2 0x884 PUSH2 0x777 JUMP JUMPDEST JUMPDEST SWAP3 SWAP2 POP POP JUMP INVALID LOG2 PUSH5 0x6970667358 0x22 SLT KECCAK256 0x5E 0xDA 0xA9 ADDRESS 0xE7 0xC7 0xB9 STOP 0xB5 ISZERO DUP8 GASPRICE 0xE1 PUSH7 0x8244BC08F10511 BYTE 0x5D 0xF9 0xDE 0xCF EXTCODESIZE PUSH8 0xA135520764736F6C PUSH4 0x43000813 STOP CALLER "
				},
				"gasEstimates": {
					"creation": {
						"codeDepositCost": "448200",
						"executionCost": "infinite",
						"totalCost": "infinite"
					},
					"external": {
						"_mint(address,uint256)": "22877",
						"allowence(address,address)": "infinite",
						"approve(address,uint256)": "infinite",
						"balance(address)": "2880",
						"balanceof(address)": "2864",
						"totalsupply()": "2437",
						"transfer(address,uint256)": "infinite",
						"transferfrom(address,address,uint256)": "infinite"
					}
				},
				"methodIdentifiers": {
					"_mint(address,uint256)": "4e6ec247",
					"allowence(address,address)": "a77a8230",
					"approve(address,uint256)": "095ea7b3",
					"balance(address)": "e3d670d7",
					"balanceof(address)": "3d64125b",
					"totalsupply()": "72dd529b",
					"transfer(address,uint256)": "a9059cbb",
					"transferfrom(address,address,uint256)": "63b0545f"
				}
			},
			"storageLayout": {
				"storage": [
					{
						"astId": 27,
						"contract": "Samples/erc20example.sol:example",
						"label": "balance",
						"offset": 0,
						"slot": "0",
						"type": "t_mapping(t_address,t_uint256)"
					},
					{
						"astId": 33,
						"contract": "Samples/erc20example.sol:example",
						"label": "allowence",
						"offset": 0,
						"slot": "1",
						"type": "t_mapping(t_address,t_mapping(t_address,t_uint256))"
					},
					{
						"astId": 35,
						"contract": "Samples/erc20example.sol:example",
						"label": "total_supply",
						"offset": 0,
						"slot": "2",
						"type": "t_uint256"
					}
				],
				"types": {
					"t_address": {
						"encoding": "inplace",
						"label": "address",
						"numberOfBytes": "20"
					},
					"t_mapping(t_address,t_mapping(t_address,t_uint256))": {
						"encoding": "mapping",
						"key": "t_address",
						"label": "mapping(address => mapping(address => uint256))",
						"numberOfBytes": "32",
						"value": "t_mapping(t_address,t_uint256)"
					},
					"t_mapping(t_address,t_uint256)": {
						"encoding": "mapping",
						"key": "t_address",
						"label": "mapping(address => uint256)",
						"numberOfBytes": "32",
						"value": "t_uint256"
					},
					"t_uint256": {
						"encoding": "inplace",
						"label": "uint256",
						"numberOfBytes": "32"
					}
				}
			},
			"userdoc": {
				"kind": "user",
				"methods": {},
				"version": 1
			}
		}
	}
}