{
	"Samples/bankSystemCurrency.sol": {
		"bankingSystem": {
			"abi": [
				{
					"inputs": [],
					"stateMutability": "payable",
					"type": "constructor"
				},
				{
					"stateMutability": "payable",
					"type": "fallback"
				},
				{
					"inputs": [
						{
							"internalType": "uint256",
							"name": "ID",
							"type": "uint256"
						},
						{
							"internalType": "uint256",
							"name": "_amount",
							"type": "uint256"
						}
					],
					"name": "clientDeposit",
					"outputs": [],
					"stateMutability": "payable",
					"type": "function"
				},
				{
					"inputs": [
						{
							"internalType": "uint256",
							"name": "ID",
							"type": "uint256"
						},
						{
							"internalType": "string",
							"name": "Name",
							"type": "string"
						},
						{
							"internalType": "uint256",
							"name": "PhNo",
							"type": "uint256"
						}
					],
					"name": "clientRegistration",
					"outputs": [],
					"stateMutability": "payable",
					"type": "function"
				},
				{
					"inputs": [],
					"name": "owner",
					"outputs": [
						{
							"internalType": "address payable",
							"name": "",
							"type": "address"
						}
					],
					"stateMutability": "view",
					"type": "function"
				},
				{
					"inputs": [
						{
							"internalType": "uint256",
							"name": "senderId",
							"type": "uint256"
						},
						{
							"internalType": "uint256",
							"name": "receiverId",
							"type": "uint256"
						},
						{
							"internalType": "uint256",
							"name": "amount",
							"type": "uint256"
						}
					],
					"name": "sendAmount",
					"outputs": [],
					"stateMutability": "nonpayable",
					"type": "function"
				},
				{
					"inputs": [
						{
							"internalType": "uint256",
							"name": "",
							"type": "uint256"
						}
					],
					"name": "userRegistration",
					"outputs": [
						{
							"internalType": "uint256",
							"name": "id",
							"type": "uint256"
						},
						{
							"internalType": "string",
							"name": "name",
							"type": "string"
						},
						{
							"internalType": "address",
							"name": "_address",
							"type": "address"
						},
						{
							"internalType": "uint256",
							"name": "phNo",
							"type": "uint256"
						},
						{
							"internalType": "uint256",
							"name": "accountbalance",
							"type": "uint256"
						}
					],
					"stateMutability": "view",
					"type": "function"
				},
				{
					"inputs": [
						{
							"internalType": "uint256",
							"name": "amount",
							"type": "uint256"
						}
					],
					"name": "withdrawAmount",
					"outputs": [],
					"stateMutability": "payable",
					"type": "function"
				},
				{
					"stateMutability": "payable",
					"type": "receive"
				}
			],
			"devdoc": {
				"kind": "dev",
				"methods": {},
				"version": 1
			},
			"evm": {
				"assembly": "    /* \"Samples/bankSystemCurrency.sol\":60:1579  contract bankingSystem {\r... */\n  mstore(0x40, 0x80)\n    /* \"Samples/bankSystemCurrency.sol\":326:336  msg.sender */\n  caller\n    /* \"Samples/bankSystemCurrency.sol\":311:316  owner */\n  0x00\n  dup1\n    /* \"Samples/bankSystemCurrency.sol\":311:337  owner =payable(msg.sender) */\n  0x0100\n  exp\n  dup2\n  sload\n  dup2\n  0xffffffffffffffffffffffffffffffffffffffff\n  mul\n  not\n  and\n  swap1\n  dup4\n  0xffffffffffffffffffffffffffffffffffffffff\n  and\n  mul\n  or\n  swap1\n  sstore\n  pop\n    /* \"Samples/bankSystemCurrency.sol\":60:1579  contract bankingSystem {\r... */\n  dataSize(sub_0)\n  dup1\n  dataOffset(sub_0)\n  0x00\n  codecopy\n  0x00\n  return\nstop\n\nsub_0: assembly {\n        /* \"Samples/bankSystemCurrency.sol\":60:1579  contract bankingSystem {\r... */\n      mstore(0x40, 0x80)\n      jumpi(tag_1, lt(calldatasize, 0x04))\n      shr(0xe0, calldataload(0x00))\n      dup1\n      0x0562b9f7\n      eq\n      tag_3\n      jumpi\n      dup1\n      0x2929d121\n      eq\n      tag_4\n      jumpi\n      dup1\n      0x3f3078df\n      eq\n      tag_5\n      jumpi\n      dup1\n      0x81fd25c0\n      eq\n      tag_6\n      jumpi\n      dup1\n      0x8da5cb5b\n      eq\n      tag_7\n      jumpi\n      dup1\n      0xa1f3ae22\n      eq\n      tag_8\n      jumpi\n      jump(tag_2)\n    tag_1:\n      jumpi(tag_2, calldatasize)\n      stop\n    tag_2:\n      stop\n        /* \"Samples/bankSystemCurrency.sol\":1306:1497  function withdrawAmount(uint amount) public payable{\r... */\n    tag_3:\n      tag_13\n      0x04\n      dup1\n      calldatasize\n      sub\n      dup2\n      add\n      swap1\n      tag_14\n      swap2\n      swap1\n      tag_15\n      jump\t// in\n    tag_14:\n      tag_16\n      jump\t// in\n    tag_13:\n      stop\n        /* \"Samples/bankSystemCurrency.sol\":355:404  mapping(uint => Register) public userRegistration */\n    tag_4:\n      callvalue\n      dup1\n      iszero\n      tag_17\n      jumpi\n      0x00\n      dup1\n      revert\n    tag_17:\n      pop\n      tag_18\n      0x04\n      dup1\n      calldatasize\n      sub\n      dup2\n      add\n      swap1\n      tag_19\n      swap2\n      swap1\n      tag_15\n      jump\t// in\n    tag_19:\n      tag_20\n      jump\t// in\n    tag_18:\n      mload(0x40)\n      tag_21\n      swap6\n      swap5\n      swap4\n      swap3\n      swap2\n      swap1\n      tag_22\n      jump\t// in\n    tag_21:\n      mload(0x40)\n      dup1\n      swap2\n      sub\n      swap1\n      return\n        /* \"Samples/bankSystemCurrency.sol\":961:1298  function sendAmount(uint senderId, uint receiverId, uint amount) public {\r... */\n    tag_5:\n      callvalue\n      dup1\n      iszero\n      tag_23\n      jumpi\n      0x00\n      dup1\n      revert\n    tag_23:\n      pop\n      tag_24\n      0x04\n      dup1\n      calldatasize\n      sub\n      dup2\n      add\n      swap1\n      tag_25\n      swap2\n      swap1\n      tag_26\n      jump\t// in\n    tag_25:\n      tag_27\n      jump\t// in\n    tag_24:\n      stop\n        /* \"Samples/bankSystemCurrency.sol\":740:953  function clientDeposit(uint ID, uint _amount) public payable{\r... */\n    tag_6:\n      tag_28\n      0x04\n      dup1\n      calldatasize\n      sub\n      dup2\n      add\n      swap1\n      tag_29\n      swap2\n      swap1\n      tag_30\n      jump\t// in\n    tag_29:\n      tag_31\n      jump\t// in\n    tag_28:\n      stop\n        /* \"Samples/bankSystemCurrency.sol\":241:269  address payable public owner */\n    tag_7:\n      callvalue\n      dup1\n      iszero\n      tag_32\n      jumpi\n      0x00\n      dup1\n      revert\n    tag_32:\n      pop\n      tag_33\n      tag_34\n      jump\t// in\n    tag_33:\n      mload(0x40)\n      tag_35\n      swap2\n      swap1\n      tag_36\n      jump\t// in\n    tag_35:\n      mload(0x40)\n      dup1\n      swap2\n      sub\n      swap1\n      return\n        /* \"Samples/bankSystemCurrency.sol\":413:727  function clientRegistration(uint ID, string memory Name, uint PhNo) public payable {\r... */\n    tag_8:\n      tag_37\n      0x04\n      dup1\n      calldatasize\n      sub\n      dup2\n      add\n      swap1\n      tag_38\n      swap2\n      swap1\n      tag_39\n      jump\t// in\n    tag_38:\n      tag_40\n      jump\t// in\n    tag_37:\n      stop\n        /* \"Samples/bankSystemCurrency.sol\":1306:1497  function withdrawAmount(uint amount) public payable{\r... */\n    tag_16:\n        /* \"Samples/bankSystemCurrency.sol\":1368:1393  Register storage withdraw */\n      0x00\n        /* \"Samples/bankSystemCurrency.sol\":1417:1433  userRegistration */\n      0x01\n        /* \"Samples/bankSystemCurrency.sol\":1417:1441  userRegistration[amount] */\n      0x00\n        /* \"Samples/bankSystemCurrency.sol\":1434:1440  amount */\n      dup4\n        /* \"Samples/bankSystemCurrency.sol\":1417:1441  userRegistration[amount] */\n      dup2\n      mstore\n      0x20\n      add\n      swap1\n      dup2\n      mstore\n      0x20\n      add\n      0x00\n      keccak256\n        /* \"Samples/bankSystemCurrency.sol\":1406:1441  withdraw = userRegistration[amount] */\n      swap1\n      pop\n        /* \"Samples/bankSystemCurrency.sol\":1479:1485  amount */\n      dup2\n        /* \"Samples/bankSystemCurrency.sol\":1452:1460  withdraw */\n      dup2\n        /* \"Samples/bankSystemCurrency.sol\":1452:1475  withdraw.accountbalance */\n      0x04\n      add\n      0x00\n        /* \"Samples/bankSystemCurrency.sol\":1452:1485  withdraw.accountbalance -= amount */\n      dup3\n      dup3\n      sload\n      tag_42\n      swap2\n      swap1\n      tag_43\n      jump\t// in\n    tag_42:\n      swap3\n      pop\n      pop\n      dup2\n      swap1\n      sstore\n      pop\n        /* \"Samples/bankSystemCurrency.sol\":1357:1497  {\r... */\n      pop\n        /* \"Samples/bankSystemCurrency.sol\":1306:1497  function withdrawAmount(uint amount) public payable{\r... */\n      pop\n      jump\t// out\n        /* \"Samples/bankSystemCurrency.sol\":355:404  mapping(uint => Register) public userRegistration */\n    tag_20:\n      mstore(0x20, 0x01)\n      dup1\n      0x00\n      mstore\n      keccak256(0x00, 0x40)\n      0x00\n      swap2\n      pop\n      swap1\n      pop\n      dup1\n      0x00\n      add\n      sload\n      swap1\n      dup1\n      0x01\n      add\n      dup1\n      sload\n      tag_44\n      swap1\n      tag_45\n      jump\t// in\n    tag_44:\n      dup1\n      0x1f\n      add\n      0x20\n      dup1\n      swap2\n      div\n      mul\n      0x20\n      add\n      mload(0x40)\n      swap1\n      dup2\n      add\n      0x40\n      mstore\n      dup1\n      swap3\n      swap2\n      swap1\n      dup2\n      dup2\n      mstore\n      0x20\n      add\n      dup3\n      dup1\n      sload\n      tag_46\n      swap1\n      tag_45\n      jump\t// in\n    tag_46:\n      dup1\n      iszero\n      tag_47\n      jumpi\n      dup1\n      0x1f\n      lt\n      tag_48\n      jumpi\n      0x0100\n      dup1\n      dup4\n      sload\n      div\n      mul\n      dup4\n      mstore\n      swap2\n      0x20\n      add\n      swap2\n      jump(tag_47)\n    tag_48:\n      dup3\n      add\n      swap2\n      swap1\n      0x00\n      mstore\n      keccak256(0x00, 0x20)\n      swap1\n    tag_49:\n      dup2\n      sload\n      dup2\n      mstore\n      swap1\n      0x01\n      add\n      swap1\n      0x20\n      add\n      dup1\n      dup4\n      gt\n      tag_49\n      jumpi\n      dup3\n      swap1\n      sub\n      0x1f\n      and\n      dup3\n      add\n      swap2\n    tag_47:\n      pop\n      pop\n      pop\n      pop\n      pop\n      swap1\n      dup1\n      0x02\n      add\n      0x00\n      swap1\n      sload\n      swap1\n      0x0100\n      exp\n      swap1\n      div\n      0xffffffffffffffffffffffffffffffffffffffff\n      and\n      swap1\n      dup1\n      0x03\n      add\n      sload\n      swap1\n      dup1\n      0x04\n      add\n      sload\n      swap1\n      pop\n      dup6\n      jump\t// out\n        /* \"Samples/bankSystemCurrency.sol\":961:1298  function sendAmount(uint senderId, uint receiverId, uint amount) public {\r... */\n    tag_27:\n        /* \"Samples/bankSystemCurrency.sol\":1044:1067  Register storage sender */\n      0x00\n        /* \"Samples/bankSystemCurrency.sol\":1078:1103  Register storage reciever */\n      dup1\n        /* \"Samples/bankSystemCurrency.sol\":1124:1140  userRegistration */\n      0x01\n        /* \"Samples/bankSystemCurrency.sol\":1124:1150  userRegistration[senderId] */\n      0x00\n        /* \"Samples/bankSystemCurrency.sol\":1141:1149  senderId */\n      dup7\n        /* \"Samples/bankSystemCurrency.sol\":1124:1150  userRegistration[senderId] */\n      dup2\n      mstore\n      0x20\n      add\n      swap1\n      dup2\n      mstore\n      0x20\n      add\n      0x00\n      keccak256\n        /* \"Samples/bankSystemCurrency.sol\":1114:1150  sender =  userRegistration[senderId] */\n      swap2\n      pop\n        /* \"Samples/bankSystemCurrency.sol\":1172:1188  userRegistration */\n      0x01\n        /* \"Samples/bankSystemCurrency.sol\":1172:1200  userRegistration[receiverId] */\n      0x00\n        /* \"Samples/bankSystemCurrency.sol\":1189:1199  receiverId */\n      dup6\n        /* \"Samples/bankSystemCurrency.sol\":1172:1200  userRegistration[receiverId] */\n      dup2\n      mstore\n      0x20\n      add\n      swap1\n      dup2\n      mstore\n      0x20\n      add\n      0x00\n      keccak256\n        /* \"Samples/bankSystemCurrency.sol\":1161:1200  reciever = userRegistration[receiverId] */\n      swap1\n      pop\n        /* \"Samples/bankSystemCurrency.sol\":1238:1244  amount */\n      dup3\n        /* \"Samples/bankSystemCurrency.sol\":1213:1219  sender */\n      dup3\n        /* \"Samples/bankSystemCurrency.sol\":1213:1234  sender.accountbalance */\n      0x04\n      add\n      0x00\n        /* \"Samples/bankSystemCurrency.sol\":1213:1244  sender.accountbalance -= amount */\n      dup3\n      dup3\n      sload\n      tag_51\n      swap2\n      swap1\n      tag_43\n      jump\t// in\n    tag_51:\n      swap3\n      pop\n      pop\n      dup2\n      swap1\n      sstore\n      pop\n        /* \"Samples/bankSystemCurrency.sol\":1282:1288  amount */\n      dup3\n        /* \"Samples/bankSystemCurrency.sol\":1255:1263  reciever */\n      dup2\n        /* \"Samples/bankSystemCurrency.sol\":1255:1278  reciever.accountbalance */\n      0x04\n      add\n      0x00\n        /* \"Samples/bankSystemCurrency.sol\":1255:1288  reciever.accountbalance += amount */\n      dup3\n      dup3\n      sload\n      tag_52\n      swap2\n      swap1\n      tag_53\n      jump\t// in\n    tag_52:\n      swap3\n      pop\n      pop\n      dup2\n      swap1\n      sstore\n      pop\n        /* \"Samples/bankSystemCurrency.sol\":1033:1298  {\r... */\n      pop\n      pop\n        /* \"Samples/bankSystemCurrency.sol\":961:1298  function sendAmount(uint senderId, uint receiverId, uint amount) public {\r... */\n      pop\n      pop\n      pop\n      jump\t// out\n        /* \"Samples/bankSystemCurrency.sol\":740:953  function clientDeposit(uint ID, uint _amount) public payable{\r... */\n    tag_31:\n        /* \"Samples/bankSystemCurrency.sol\":812:842  Register storage depositAmount */\n      0x00\n        /* \"Samples/bankSystemCurrency.sol\":870:886  userRegistration */\n      0x01\n        /* \"Samples/bankSystemCurrency.sol\":870:890  userRegistration[ID] */\n      0x00\n        /* \"Samples/bankSystemCurrency.sol\":887:889  ID */\n      dup5\n        /* \"Samples/bankSystemCurrency.sol\":870:890  userRegistration[ID] */\n      dup2\n      mstore\n      0x20\n      add\n      swap1\n      dup2\n      mstore\n      0x20\n      add\n      0x00\n      keccak256\n        /* \"Samples/bankSystemCurrency.sol\":854:890  depositAmount = userRegistration[ID] */\n      swap1\n      pop\n        /* \"Samples/bankSystemCurrency.sol\":934:941  _amount */\n      dup2\n        /* \"Samples/bankSystemCurrency.sol\":902:915  depositAmount */\n      dup2\n        /* \"Samples/bankSystemCurrency.sol\":902:930  depositAmount.accountbalance */\n      0x04\n      add\n      0x00\n        /* \"Samples/bankSystemCurrency.sol\":902:941  depositAmount.accountbalance += _amount */\n      dup3\n      dup3\n      sload\n      tag_55\n      swap2\n      swap1\n      tag_53\n      jump\t// in\n    tag_55:\n      swap3\n      pop\n      pop\n      dup2\n      swap1\n      sstore\n      pop\n        /* \"Samples/bankSystemCurrency.sol\":800:953  {\r... */\n      pop\n        /* \"Samples/bankSystemCurrency.sol\":740:953  function clientDeposit(uint ID, uint _amount) public payable{\r... */\n      pop\n      pop\n      jump\t// out\n        /* \"Samples/bankSystemCurrency.sol\":241:269  address payable public owner */\n    tag_34:\n      0x00\n      dup1\n      sload\n      swap1\n      0x0100\n      exp\n      swap1\n      div\n      0xffffffffffffffffffffffffffffffffffffffff\n      and\n      dup2\n      jump\t// out\n        /* \"Samples/bankSystemCurrency.sol\":413:727  function clientRegistration(uint ID, string memory Name, uint PhNo) public payable {\r... */\n    tag_40:\n        /* \"Samples/bankSystemCurrency.sol\":511:533  Register memory record */\n      tag_57\n      tag_58\n      jump\t// in\n    tag_57:\n        /* \"Samples/bankSystemCurrency.sol\":562:564  ID */\n      dup4\n        /* \"Samples/bankSystemCurrency.sol\":550:556  record */\n      dup2\n        /* \"Samples/bankSystemCurrency.sol\":550:559  record.id */\n      0x00\n      add\n        /* \"Samples/bankSystemCurrency.sol\":550:564  record.id = ID */\n      dup2\n      dup2\n      mstore\n      pop\n      pop\n        /* \"Samples/bankSystemCurrency.sol\":593:597  Name */\n      dup3\n        /* \"Samples/bankSystemCurrency.sol\":579:585  record */\n      dup2\n        /* \"Samples/bankSystemCurrency.sol\":579:590  record.name */\n      0x20\n      add\n        /* \"Samples/bankSystemCurrency.sol\":579:597  record.name = Name */\n      dup2\n      swap1\n      mstore\n      pop\n        /* \"Samples/bankSystemCurrency.sol\":630:640  msg.sender */\n      caller\n        /* \"Samples/bankSystemCurrency.sol\":612:618  record */\n      dup2\n        /* \"Samples/bankSystemCurrency.sol\":612:627  record._address */\n      0x40\n      add\n        /* \"Samples/bankSystemCurrency.sol\":612:640  record._address = msg.sender */\n      swap1\n      0xffffffffffffffffffffffffffffffffffffffff\n      and\n      swap1\n      dup2\n      0xffffffffffffffffffffffffffffffffffffffff\n      and\n      dup2\n      mstore\n      pop\n      pop\n        /* \"Samples/bankSystemCurrency.sol\":669:673  PhNo */\n      dup2\n        /* \"Samples/bankSystemCurrency.sol\":655:661  record */\n      dup2\n        /* \"Samples/bankSystemCurrency.sol\":655:666  record.phNo */\n      0x60\n      add\n        /* \"Samples/bankSystemCurrency.sol\":655:673  record.phNo = PhNo */\n      dup2\n      dup2\n      mstore\n      pop\n      pop\n        /* \"Samples/bankSystemCurrency.sol\":713:719  record */\n      dup1\n        /* \"Samples/bankSystemCurrency.sol\":690:706  userRegistration */\n      0x01\n        /* \"Samples/bankSystemCurrency.sol\":690:710  userRegistration[ID] */\n      0x00\n        /* \"Samples/bankSystemCurrency.sol\":707:709  ID */\n      dup7\n        /* \"Samples/bankSystemCurrency.sol\":690:710  userRegistration[ID] */\n      dup2\n      mstore\n      0x20\n      add\n      swap1\n      dup2\n      mstore\n      0x20\n      add\n      0x00\n      keccak256\n        /* \"Samples/bankSystemCurrency.sol\":690:719  userRegistration[ID] = record */\n      0x00\n      dup3\n      add\n      mload\n      dup2\n      0x00\n      add\n      sstore\n      0x20\n      dup3\n      add\n      mload\n      dup2\n      0x01\n      add\n      swap1\n      dup1\n      mload\n      swap1\n      0x20\n      add\n      swap1\n      tag_59\n      swap3\n      swap2\n      swap1\n      tag_60\n      jump\t// in\n    tag_59:\n      pop\n      0x40\n      dup3\n      add\n      mload\n      dup2\n      0x02\n      add\n      exp(0x0100, 0x00)\n      dup2\n      sload\n      dup2\n      0xffffffffffffffffffffffffffffffffffffffff\n      mul\n      not\n      and\n      swap1\n      dup4\n      0xffffffffffffffffffffffffffffffffffffffff\n      and\n      mul\n      or\n      swap1\n      sstore\n      pop\n      0x60\n      dup3\n      add\n      mload\n      dup2\n      0x03\n      add\n      sstore\n      0x80\n      dup3\n      add\n      mload\n      dup2\n      0x04\n      add\n      sstore\n      swap1\n      pop\n      pop\n        /* \"Samples/bankSystemCurrency.sol\":496:727  {\r... */\n      pop\n        /* \"Samples/bankSystemCurrency.sol\":413:727  function clientRegistration(uint ID, string memory Name, uint PhNo) public payable {\r... */\n      pop\n      pop\n      pop\n      jump\t// out\n    tag_58:\n      mload(0x40)\n      dup1\n      0xa0\n      add\n      0x40\n      mstore\n      dup1\n      0x00\n      dup2\n      mstore\n      0x20\n      add\n      0x60\n      dup2\n      mstore\n      0x20\n      add\n      and(0xffffffffffffffffffffffffffffffffffffffff, 0x00)\n      dup2\n      mstore\n      0x20\n      add\n      0x00\n      dup2\n      mstore\n      0x20\n      add\n      0x00\n      dup2\n      mstore\n      pop\n      swap1\n      jump\t// out\n    tag_60:\n      dup3\n      dup1\n      sload\n      tag_61\n      swap1\n      tag_45\n      jump\t// in\n    tag_61:\n      swap1\n      0x00\n      mstore\n      keccak256(0x00, 0x20)\n      swap1\n      0x1f\n      add\n      0x20\n      swap1\n      div\n      dup2\n      add\n      swap3\n      dup3\n      tag_63\n      jumpi\n      0x00\n      dup6\n      sstore\n      jump(tag_62)\n    tag_63:\n      dup3\n      0x1f\n      lt\n      tag_64\n      jumpi\n      dup1\n      mload\n      not(0xff)\n      and\n      dup4\n      dup1\n      add\n      or\n      dup6\n      sstore\n      jump(tag_62)\n    tag_64:\n      dup3\n      dup1\n      add\n      0x01\n      add\n      dup6\n      sstore\n      dup3\n      iszero\n      tag_62\n      jumpi\n      swap2\n      dup3\n      add\n    tag_65:\n      dup3\n      dup2\n      gt\n      iszero\n      tag_66\n      jumpi\n      dup3\n      mload\n      dup3\n      sstore\n      swap2\n      0x20\n      add\n      swap2\n      swap1\n      0x01\n      add\n      swap1\n      jump(tag_65)\n    tag_66:\n    tag_62:\n      pop\n      swap1\n      pop\n      tag_67\n      swap2\n      swap1\n      tag_68\n      jump\t// in\n    tag_67:\n      pop\n      swap1\n      jump\t// out\n    tag_68:\n    tag_69:\n      dup1\n      dup3\n      gt\n      iszero\n      tag_70\n      jumpi\n      0x00\n      dup2\n      0x00\n      swap1\n      sstore\n      pop\n      0x01\n      add\n      jump(tag_69)\n    tag_70:\n      pop\n      swap1\n      jump\t// out\n        /* \"#utility.yul\":7:419   */\n    tag_72:\n        /* \"#utility.yul\":85:90   */\n      0x00\n        /* \"#utility.yul\":110:176   */\n      tag_74\n        /* \"#utility.yul\":126:175   */\n      tag_75\n        /* \"#utility.yul\":168:174   */\n      dup5\n        /* \"#utility.yul\":126:175   */\n      tag_76\n      jump\t// in\n    tag_75:\n        /* \"#utility.yul\":110:176   */\n      tag_77\n      jump\t// in\n    tag_74:\n        /* \"#utility.yul\":101:176   */\n      swap1\n      pop\n        /* \"#utility.yul\":199:205   */\n      dup3\n        /* \"#utility.yul\":192:197   */\n      dup2\n        /* \"#utility.yul\":185:206   */\n      mstore\n        /* \"#utility.yul\":237:241   */\n      0x20\n        /* \"#utility.yul\":230:235   */\n      dup2\n        /* \"#utility.yul\":226:242   */\n      add\n        /* \"#utility.yul\":275:278   */\n      dup5\n        /* \"#utility.yul\":266:272   */\n      dup5\n        /* \"#utility.yul\":261:264   */\n      dup5\n        /* \"#utility.yul\":257:273   */\n      add\n        /* \"#utility.yul\":254:279   */\n      gt\n        /* \"#utility.yul\":251:363   */\n      iszero\n      tag_78\n      jumpi\n        /* \"#utility.yul\":282:361   */\n      tag_79\n      tag_80\n      jump\t// in\n    tag_79:\n        /* \"#utility.yul\":251:363   */\n    tag_78:\n        /* \"#utility.yul\":372:413   */\n      tag_81\n        /* \"#utility.yul\":406:412   */\n      dup5\n        /* \"#utility.yul\":401:404   */\n      dup3\n        /* \"#utility.yul\":396:399   */\n      dup6\n        /* \"#utility.yul\":372:413   */\n      tag_82\n      jump\t// in\n    tag_81:\n        /* \"#utility.yul\":91:419   */\n      pop\n        /* \"#utility.yul\":7:419   */\n      swap4\n      swap3\n      pop\n      pop\n      pop\n      jump\t// out\n        /* \"#utility.yul\":439:779   */\n    tag_83:\n        /* \"#utility.yul\":495:500   */\n      0x00\n        /* \"#utility.yul\":544:547   */\n      dup3\n        /* \"#utility.yul\":537:541   */\n      0x1f\n        /* \"#utility.yul\":529:535   */\n      dup4\n        /* \"#utility.yul\":525:542   */\n      add\n        /* \"#utility.yul\":521:548   */\n      slt\n        /* \"#utility.yul\":511:633   */\n      tag_85\n      jumpi\n        /* \"#utility.yul\":552:631   */\n      tag_86\n      tag_87\n      jump\t// in\n    tag_86:\n        /* \"#utility.yul\":511:633   */\n    tag_85:\n        /* \"#utility.yul\":669:675   */\n      dup2\n        /* \"#utility.yul\":656:676   */\n      calldataload\n        /* \"#utility.yul\":694:773   */\n      tag_88\n        /* \"#utility.yul\":769:772   */\n      dup5\n        /* \"#utility.yul\":761:767   */\n      dup3\n        /* \"#utility.yul\":754:758   */\n      0x20\n        /* \"#utility.yul\":746:752   */\n      dup7\n        /* \"#utility.yul\":742:759   */\n      add\n        /* \"#utility.yul\":694:773   */\n      tag_72\n      jump\t// in\n    tag_88:\n        /* \"#utility.yul\":685:773   */\n      swap2\n      pop\n        /* \"#utility.yul\":501:779   */\n      pop\n        /* \"#utility.yul\":439:779   */\n      swap3\n      swap2\n      pop\n      pop\n      jump\t// out\n        /* \"#utility.yul\":785:924   */\n    tag_89:\n        /* \"#utility.yul\":831:836   */\n      0x00\n        /* \"#utility.yul\":869:875   */\n      dup2\n        /* \"#utility.yul\":856:876   */\n      calldataload\n        /* \"#utility.yul\":847:876   */\n      swap1\n      pop\n        /* \"#utility.yul\":885:918   */\n      tag_91\n        /* \"#utility.yul\":912:917   */\n      dup2\n        /* \"#utility.yul\":885:918   */\n      tag_92\n      jump\t// in\n    tag_91:\n        /* \"#utility.yul\":785:924   */\n      swap3\n      swap2\n      pop\n      pop\n      jump\t// out\n        /* \"#utility.yul\":930:1259   */\n    tag_15:\n        /* \"#utility.yul\":989:995   */\n      0x00\n        /* \"#utility.yul\":1038:1040   */\n      0x20\n        /* \"#utility.yul\":1026:1035   */\n      dup3\n        /* \"#utility.yul\":1017:1024   */\n      dup5\n        /* \"#utility.yul\":1013:1036   */\n      sub\n        /* \"#utility.yul\":1009:1041   */\n      slt\n        /* \"#utility.yul\":1006:1125   */\n      iszero\n      tag_94\n      jumpi\n        /* \"#utility.yul\":1044:1123   */\n      tag_95\n      tag_96\n      jump\t// in\n    tag_95:\n        /* \"#utility.yul\":1006:1125   */\n    tag_94:\n        /* \"#utility.yul\":1164:1165   */\n      0x00\n        /* \"#utility.yul\":1189:1242   */\n      tag_97\n        /* \"#utility.yul\":1234:1241   */\n      dup5\n        /* \"#utility.yul\":1225:1231   */\n      dup3\n        /* \"#utility.yul\":1214:1223   */\n      dup6\n        /* \"#utility.yul\":1210:1232   */\n      add\n        /* \"#utility.yul\":1189:1242   */\n      tag_89\n      jump\t// in\n    tag_97:\n        /* \"#utility.yul\":1179:1242   */\n      swap2\n      pop\n        /* \"#utility.yul\":1135:1252   */\n      pop\n        /* \"#utility.yul\":930:1259   */\n      swap3\n      swap2\n      pop\n      pop\n      jump\t// out\n        /* \"#utility.yul\":1265:2064   */\n    tag_39:\n        /* \"#utility.yul\":1352:1358   */\n      0x00\n        /* \"#utility.yul\":1360:1366   */\n      dup1\n        /* \"#utility.yul\":1368:1374   */\n      0x00\n        /* \"#utility.yul\":1417:1419   */\n      0x60\n        /* \"#utility.yul\":1405:1414   */\n      dup5\n        /* \"#utility.yul\":1396:1403   */\n      dup7\n        /* \"#utility.yul\":1392:1415   */\n      sub\n        /* \"#utility.yul\":1388:1420   */\n      slt\n        /* \"#utility.yul\":1385:1504   */\n      iszero\n      tag_99\n      jumpi\n        /* \"#utility.yul\":1423:1502   */\n      tag_100\n      tag_96\n      jump\t// in\n    tag_100:\n        /* \"#utility.yul\":1385:1504   */\n    tag_99:\n        /* \"#utility.yul\":1543:1544   */\n      0x00\n        /* \"#utility.yul\":1568:1621   */\n      tag_101\n        /* \"#utility.yul\":1613:1620   */\n      dup7\n        /* \"#utility.yul\":1604:1610   */\n      dup3\n        /* \"#utility.yul\":1593:1602   */\n      dup8\n        /* \"#utility.yul\":1589:1611   */\n      add\n        /* \"#utility.yul\":1568:1621   */\n      tag_89\n      jump\t// in\n    tag_101:\n        /* \"#utility.yul\":1558:1621   */\n      swap4\n      pop\n        /* \"#utility.yul\":1514:1631   */\n      pop\n        /* \"#utility.yul\":1698:1700   */\n      0x20\n        /* \"#utility.yul\":1687:1696   */\n      dup5\n        /* \"#utility.yul\":1683:1701   */\n      add\n        /* \"#utility.yul\":1670:1702   */\n      calldataload\n        /* \"#utility.yul\":1729:1747   */\n      0xffffffffffffffff\n        /* \"#utility.yul\":1721:1727   */\n      dup2\n        /* \"#utility.yul\":1718:1748   */\n      gt\n        /* \"#utility.yul\":1715:1832   */\n      iszero\n      tag_102\n      jumpi\n        /* \"#utility.yul\":1751:1830   */\n      tag_103\n      tag_104\n      jump\t// in\n    tag_103:\n        /* \"#utility.yul\":1715:1832   */\n    tag_102:\n        /* \"#utility.yul\":1856:1919   */\n      tag_105\n        /* \"#utility.yul\":1911:1918   */\n      dup7\n        /* \"#utility.yul\":1902:1908   */\n      dup3\n        /* \"#utility.yul\":1891:1900   */\n      dup8\n        /* \"#utility.yul\":1887:1909   */\n      add\n        /* \"#utility.yul\":1856:1919   */\n      tag_83\n      jump\t// in\n    tag_105:\n        /* \"#utility.yul\":1846:1919   */\n      swap3\n      pop\n        /* \"#utility.yul\":1641:1929   */\n      pop\n        /* \"#utility.yul\":1968:1970   */\n      0x40\n        /* \"#utility.yul\":1994:2047   */\n      tag_106\n        /* \"#utility.yul\":2039:2046   */\n      dup7\n        /* \"#utility.yul\":2030:2036   */\n      dup3\n        /* \"#utility.yul\":2019:2028   */\n      dup8\n        /* \"#utility.yul\":2015:2037   */\n      add\n        /* \"#utility.yul\":1994:2047   */\n      tag_89\n      jump\t// in\n    tag_106:\n        /* \"#utility.yul\":1984:2047   */\n      swap2\n      pop\n        /* \"#utility.yul\":1939:2057   */\n      pop\n        /* \"#utility.yul\":1265:2064   */\n      swap3\n      pop\n      swap3\n      pop\n      swap3\n      jump\t// out\n        /* \"#utility.yul\":2070:2544   */\n    tag_30:\n        /* \"#utility.yul\":2138:2144   */\n      0x00\n        /* \"#utility.yul\":2146:2152   */\n      dup1\n        /* \"#utility.yul\":2195:2197   */\n      0x40\n        /* \"#utility.yul\":2183:2192   */\n      dup4\n        /* \"#utility.yul\":2174:2181   */\n      dup6\n        /* \"#utility.yul\":2170:2193   */\n      sub\n        /* \"#utility.yul\":2166:2198   */\n      slt\n        /* \"#utility.yul\":2163:2282   */\n      iszero\n      tag_108\n      jumpi\n        /* \"#utility.yul\":2201:2280   */\n      tag_109\n      tag_96\n      jump\t// in\n    tag_109:\n        /* \"#utility.yul\":2163:2282   */\n    tag_108:\n        /* \"#utility.yul\":2321:2322   */\n      0x00\n        /* \"#utility.yul\":2346:2399   */\n      tag_110\n        /* \"#utility.yul\":2391:2398   */\n      dup6\n        /* \"#utility.yul\":2382:2388   */\n      dup3\n        /* \"#utility.yul\":2371:2380   */\n      dup7\n        /* \"#utility.yul\":2367:2389   */\n      add\n        /* \"#utility.yul\":2346:2399   */\n      tag_89\n      jump\t// in\n    tag_110:\n        /* \"#utility.yul\":2336:2399   */\n      swap3\n      pop\n        /* \"#utility.yul\":2292:2409   */\n      pop\n        /* \"#utility.yul\":2448:2450   */\n      0x20\n        /* \"#utility.yul\":2474:2527   */\n      tag_111\n        /* \"#utility.yul\":2519:2526   */\n      dup6\n        /* \"#utility.yul\":2510:2516   */\n      dup3\n        /* \"#utility.yul\":2499:2508   */\n      dup7\n        /* \"#utility.yul\":2495:2517   */\n      add\n        /* \"#utility.yul\":2474:2527   */\n      tag_89\n      jump\t// in\n    tag_111:\n        /* \"#utility.yul\":2464:2527   */\n      swap2\n      pop\n        /* \"#utility.yul\":2419:2537   */\n      pop\n        /* \"#utility.yul\":2070:2544   */\n      swap3\n      pop\n      swap3\n      swap1\n      pop\n      jump\t// out\n        /* \"#utility.yul\":2550:3169   */\n    tag_26:\n        /* \"#utility.yul\":2627:2633   */\n      0x00\n        /* \"#utility.yul\":2635:2641   */\n      dup1\n        /* \"#utility.yul\":2643:2649   */\n      0x00\n        /* \"#utility.yul\":2692:2694   */\n      0x60\n        /* \"#utility.yul\":2680:2689   */\n      dup5\n        /* \"#utility.yul\":2671:2678   */\n      dup7\n        /* \"#utility.yul\":2667:2690   */\n      sub\n        /* \"#utility.yul\":2663:2695   */\n      slt\n        /* \"#utility.yul\":2660:2779   */\n      iszero\n      tag_113\n      jumpi\n        /* \"#utility.yul\":2698:2777   */\n      tag_114\n      tag_96\n      jump\t// in\n    tag_114:\n        /* \"#utility.yul\":2660:2779   */\n    tag_113:\n        /* \"#utility.yul\":2818:2819   */\n      0x00\n        /* \"#utility.yul\":2843:2896   */\n      tag_115\n        /* \"#utility.yul\":2888:2895   */\n      dup7\n        /* \"#utility.yul\":2879:2885   */\n      dup3\n        /* \"#utility.yul\":2868:2877   */\n      dup8\n        /* \"#utility.yul\":2864:2886   */\n      add\n        /* \"#utility.yul\":2843:2896   */\n      tag_89\n      jump\t// in\n    tag_115:\n        /* \"#utility.yul\":2833:2896   */\n      swap4\n      pop\n        /* \"#utility.yul\":2789:2906   */\n      pop\n        /* \"#utility.yul\":2945:2947   */\n      0x20\n        /* \"#utility.yul\":2971:3024   */\n      tag_116\n        /* \"#utility.yul\":3016:3023   */\n      dup7\n        /* \"#utility.yul\":3007:3013   */\n      dup3\n        /* \"#utility.yul\":2996:3005   */\n      dup8\n        /* \"#utility.yul\":2992:3014   */\n      add\n        /* \"#utility.yul\":2971:3024   */\n      tag_89\n      jump\t// in\n    tag_116:\n        /* \"#utility.yul\":2961:3024   */\n      swap3\n      pop\n        /* \"#utility.yul\":2916:3034   */\n      pop\n        /* \"#utility.yul\":3073:3075   */\n      0x40\n        /* \"#utility.yul\":3099:3152   */\n      tag_117\n        /* \"#utility.yul\":3144:3151   */\n      dup7\n        /* \"#utility.yul\":3135:3141   */\n      dup3\n        /* \"#utility.yul\":3124:3133   */\n      dup8\n        /* \"#utility.yul\":3120:3142   */\n      add\n        /* \"#utility.yul\":3099:3152   */\n      tag_89\n      jump\t// in\n    tag_117:\n        /* \"#utility.yul\":3089:3152   */\n      swap2\n      pop\n        /* \"#utility.yul\":3044:3162   */\n      pop\n        /* \"#utility.yul\":2550:3169   */\n      swap3\n      pop\n      swap3\n      pop\n      swap3\n      jump\t// out\n        /* \"#utility.yul\":3175:3317   */\n    tag_118:\n        /* \"#utility.yul\":3278:3310   */\n      tag_120\n        /* \"#utility.yul\":3304:3309   */\n      dup2\n        /* \"#utility.yul\":3278:3310   */\n      tag_121\n      jump\t// in\n    tag_120:\n        /* \"#utility.yul\":3273:3276   */\n      dup3\n        /* \"#utility.yul\":3266:3311   */\n      mstore\n        /* \"#utility.yul\":3175:3317   */\n      pop\n      pop\n      jump\t// out\n        /* \"#utility.yul\":3323:3441   */\n    tag_122:\n        /* \"#utility.yul\":3410:3434   */\n      tag_124\n        /* \"#utility.yul\":3428:3433   */\n      dup2\n        /* \"#utility.yul\":3410:3434   */\n      tag_125\n      jump\t// in\n    tag_124:\n        /* \"#utility.yul\":3405:3408   */\n      dup3\n        /* \"#utility.yul\":3398:3435   */\n      mstore\n        /* \"#utility.yul\":3323:3441   */\n      pop\n      pop\n      jump\t// out\n        /* \"#utility.yul\":3447:3811   */\n    tag_126:\n        /* \"#utility.yul\":3535:3538   */\n      0x00\n        /* \"#utility.yul\":3563:3602   */\n      tag_128\n        /* \"#utility.yul\":3596:3601   */\n      dup3\n        /* \"#utility.yul\":3563:3602   */\n      tag_129\n      jump\t// in\n    tag_128:\n        /* \"#utility.yul\":3618:3689   */\n      tag_130\n        /* \"#utility.yul\":3682:3688   */\n      dup2\n        /* \"#utility.yul\":3677:3680   */\n      dup6\n        /* \"#utility.yul\":3618:3689   */\n      tag_131\n      jump\t// in\n    tag_130:\n        /* \"#utility.yul\":3611:3689   */\n      swap4\n      pop\n        /* \"#utility.yul\":3698:3750   */\n      tag_132\n        /* \"#utility.yul\":3743:3749   */\n      dup2\n        /* \"#utility.yul\":3738:3741   */\n      dup6\n        /* \"#utility.yul\":3731:3735   */\n      0x20\n        /* \"#utility.yul\":3724:3729   */\n      dup7\n        /* \"#utility.yul\":3720:3736   */\n      add\n        /* \"#utility.yul\":3698:3750   */\n      tag_133\n      jump\t// in\n    tag_132:\n        /* \"#utility.yul\":3775:3804   */\n      tag_134\n        /* \"#utility.yul\":3797:3803   */\n      dup2\n        /* \"#utility.yul\":3775:3804   */\n      tag_135\n      jump\t// in\n    tag_134:\n        /* \"#utility.yul\":3770:3773   */\n      dup5\n        /* \"#utility.yul\":3766:3805   */\n      add\n        /* \"#utility.yul\":3759:3805   */\n      swap2\n      pop\n        /* \"#utility.yul\":3539:3811   */\n      pop\n        /* \"#utility.yul\":3447:3811   */\n      swap3\n      swap2\n      pop\n      pop\n      jump\t// out\n        /* \"#utility.yul\":3817:3935   */\n    tag_136:\n        /* \"#utility.yul\":3904:3928   */\n      tag_138\n        /* \"#utility.yul\":3922:3927   */\n      dup2\n        /* \"#utility.yul\":3904:3928   */\n      tag_139\n      jump\t// in\n    tag_138:\n        /* \"#utility.yul\":3899:3902   */\n      dup3\n        /* \"#utility.yul\":3892:3929   */\n      mstore\n        /* \"#utility.yul\":3817:3935   */\n      pop\n      pop\n      jump\t// out\n        /* \"#utility.yul\":3941:4195   */\n    tag_36:\n        /* \"#utility.yul\":4050:4054   */\n      0x00\n        /* \"#utility.yul\":4088:4090   */\n      0x20\n        /* \"#utility.yul\":4077:4086   */\n      dup3\n        /* \"#utility.yul\":4073:4091   */\n      add\n        /* \"#utility.yul\":4065:4091   */\n      swap1\n      pop\n        /* \"#utility.yul\":4101:4188   */\n      tag_141\n        /* \"#utility.yul\":4185:4186   */\n      0x00\n        /* \"#utility.yul\":4174:4183   */\n      dup4\n        /* \"#utility.yul\":4170:4187   */\n      add\n        /* \"#utility.yul\":4161:4167   */\n      dup5\n        /* \"#utility.yul\":4101:4188   */\n      tag_118\n      jump\t// in\n    tag_141:\n        /* \"#utility.yul\":3941:4195   */\n      swap3\n      swap2\n      pop\n      pop\n      jump\t// out\n        /* \"#utility.yul\":4201:4956   */\n    tag_22:\n        /* \"#utility.yul\":4426:4430   */\n      0x00\n        /* \"#utility.yul\":4464:4467   */\n      0xa0\n        /* \"#utility.yul\":4453:4462   */\n      dup3\n        /* \"#utility.yul\":4449:4468   */\n      add\n        /* \"#utility.yul\":4441:4468   */\n      swap1\n      pop\n        /* \"#utility.yul\":4478:4549   */\n      tag_143\n        /* \"#utility.yul\":4546:4547   */\n      0x00\n        /* \"#utility.yul\":4535:4544   */\n      dup4\n        /* \"#utility.yul\":4531:4548   */\n      add\n        /* \"#utility.yul\":4522:4528   */\n      dup9\n        /* \"#utility.yul\":4478:4549   */\n      tag_136\n      jump\t// in\n    tag_143:\n        /* \"#utility.yul\":4596:4605   */\n      dup2\n        /* \"#utility.yul\":4590:4594   */\n      dup2\n        /* \"#utility.yul\":4586:4606   */\n      sub\n        /* \"#utility.yul\":4581:4583   */\n      0x20\n        /* \"#utility.yul\":4570:4579   */\n      dup4\n        /* \"#utility.yul\":4566:4584   */\n      add\n        /* \"#utility.yul\":4559:4607   */\n      mstore\n        /* \"#utility.yul\":4624:4702   */\n      tag_144\n        /* \"#utility.yul\":4697:4701   */\n      dup2\n        /* \"#utility.yul\":4688:4694   */\n      dup8\n        /* \"#utility.yul\":4624:4702   */\n      tag_126\n      jump\t// in\n    tag_144:\n        /* \"#utility.yul\":4616:4702   */\n      swap1\n      pop\n        /* \"#utility.yul\":4712:4784   */\n      tag_145\n        /* \"#utility.yul\":4780:4782   */\n      0x40\n        /* \"#utility.yul\":4769:4778   */\n      dup4\n        /* \"#utility.yul\":4765:4783   */\n      add\n        /* \"#utility.yul\":4756:4762   */\n      dup7\n        /* \"#utility.yul\":4712:4784   */\n      tag_122\n      jump\t// in\n    tag_145:\n        /* \"#utility.yul\":4794:4866   */\n      tag_146\n        /* \"#utility.yul\":4862:4864   */\n      0x60\n        /* \"#utility.yul\":4851:4860   */\n      dup4\n        /* \"#utility.yul\":4847:4865   */\n      add\n        /* \"#utility.yul\":4838:4844   */\n      dup6\n        /* \"#utility.yul\":4794:4866   */\n      tag_136\n      jump\t// in\n    tag_146:\n        /* \"#utility.yul\":4876:4949   */\n      tag_147\n        /* \"#utility.yul\":4944:4947   */\n      0x80\n        /* \"#utility.yul\":4933:4942   */\n      dup4\n        /* \"#utility.yul\":4929:4948   */\n      add\n        /* \"#utility.yul\":4920:4926   */\n      dup5\n        /* \"#utility.yul\":4876:4949   */\n      tag_136\n      jump\t// in\n    tag_147:\n        /* \"#utility.yul\":4201:4956   */\n      swap7\n      swap6\n      pop\n      pop\n      pop\n      pop\n      pop\n      pop\n      jump\t// out\n        /* \"#utility.yul\":4962:5091   */\n    tag_77:\n        /* \"#utility.yul\":4996:5002   */\n      0x00\n        /* \"#utility.yul\":5023:5043   */\n      tag_149\n      tag_150\n      jump\t// in\n    tag_149:\n        /* \"#utility.yul\":5013:5043   */\n      swap1\n      pop\n        /* \"#utility.yul\":5052:5085   */\n      tag_151\n        /* \"#utility.yul\":5080:5084   */\n      dup3\n        /* \"#utility.yul\":5072:5078   */\n      dup3\n        /* \"#utility.yul\":5052:5085   */\n      tag_152\n      jump\t// in\n    tag_151:\n        /* \"#utility.yul\":4962:5091   */\n      swap2\n      swap1\n      pop\n      jump\t// out\n        /* \"#utility.yul\":5097:5172   */\n    tag_150:\n        /* \"#utility.yul\":5130:5136   */\n      0x00\n        /* \"#utility.yul\":5163:5165   */\n      0x40\n        /* \"#utility.yul\":5157:5166   */\n      mload\n        /* \"#utility.yul\":5147:5166   */\n      swap1\n      pop\n        /* \"#utility.yul\":5097:5172   */\n      swap1\n      jump\t// out\n        /* \"#utility.yul\":5178:5486   */\n    tag_76:\n        /* \"#utility.yul\":5240:5244   */\n      0x00\n        /* \"#utility.yul\":5330:5348   */\n      0xffffffffffffffff\n        /* \"#utility.yul\":5322:5328   */\n      dup3\n        /* \"#utility.yul\":5319:5349   */\n      gt\n        /* \"#utility.yul\":5316:5372   */\n      iszero\n      tag_155\n      jumpi\n        /* \"#utility.yul\":5352:5370   */\n      tag_156\n      tag_157\n      jump\t// in\n    tag_156:\n        /* \"#utility.yul\":5316:5372   */\n    tag_155:\n        /* \"#utility.yul\":5390:5419   */\n      tag_158\n        /* \"#utility.yul\":5412:5418   */\n      dup3\n        /* \"#utility.yul\":5390:5419   */\n      tag_135\n      jump\t// in\n    tag_158:\n        /* \"#utility.yul\":5382:5419   */\n      swap1\n      pop\n        /* \"#utility.yul\":5474:5478   */\n      0x20\n        /* \"#utility.yul\":5468:5472   */\n      dup2\n        /* \"#utility.yul\":5464:5479   */\n      add\n        /* \"#utility.yul\":5456:5479   */\n      swap1\n      pop\n        /* \"#utility.yul\":5178:5486   */\n      swap2\n      swap1\n      pop\n      jump\t// out\n        /* \"#utility.yul\":5492:5591   */\n    tag_129:\n        /* \"#utility.yul\":5544:5550   */\n      0x00\n        /* \"#utility.yul\":5578:5583   */\n      dup2\n        /* \"#utility.yul\":5572:5584   */\n      mload\n        /* \"#utility.yul\":5562:5584   */\n      swap1\n      pop\n        /* \"#utility.yul\":5492:5591   */\n      swap2\n      swap1\n      pop\n      jump\t// out\n        /* \"#utility.yul\":5597:5766   */\n    tag_131:\n        /* \"#utility.yul\":5681:5692   */\n      0x00\n        /* \"#utility.yul\":5715:5721   */\n      dup3\n        /* \"#utility.yul\":5710:5713   */\n      dup3\n        /* \"#utility.yul\":5703:5722   */\n      mstore\n        /* \"#utility.yul\":5755:5759   */\n      0x20\n        /* \"#utility.yul\":5750:5753   */\n      dup3\n        /* \"#utility.yul\":5746:5760   */\n      add\n        /* \"#utility.yul\":5731:5760   */\n      swap1\n      pop\n        /* \"#utility.yul\":5597:5766   */\n      swap3\n      swap2\n      pop\n      pop\n      jump\t// out\n        /* \"#utility.yul\":5772:6077   */\n    tag_53:\n        /* \"#utility.yul\":5812:5815   */\n      0x00\n        /* \"#utility.yul\":5831:5851   */\n      tag_162\n        /* \"#utility.yul\":5849:5850   */\n      dup3\n        /* \"#utility.yul\":5831:5851   */\n      tag_139\n      jump\t// in\n    tag_162:\n        /* \"#utility.yul\":5826:5851   */\n      swap2\n      pop\n        /* \"#utility.yul\":5865:5885   */\n      tag_163\n        /* \"#utility.yul\":5883:5884   */\n      dup4\n        /* \"#utility.yul\":5865:5885   */\n      tag_139\n      jump\t// in\n    tag_163:\n        /* \"#utility.yul\":5860:5885   */\n      swap3\n      pop\n        /* \"#utility.yul\":6019:6020   */\n      dup3\n        /* \"#utility.yul\":5951:6017   */\n      0xffffffffffffffffffffffffffffffffffffffffffffffffffffffffffffffff\n        /* \"#utility.yul\":5947:6021   */\n      sub\n        /* \"#utility.yul\":5944:5945   */\n      dup3\n        /* \"#utility.yul\":5941:6022   */\n      gt\n        /* \"#utility.yul\":5938:6045   */\n      iszero\n      tag_164\n      jumpi\n        /* \"#utility.yul\":6025:6043   */\n      tag_165\n      tag_166\n      jump\t// in\n    tag_165:\n        /* \"#utility.yul\":5938:6045   */\n    tag_164:\n        /* \"#utility.yul\":6069:6070   */\n      dup3\n        /* \"#utility.yul\":6066:6067   */\n      dup3\n        /* \"#utility.yul\":6062:6071   */\n      add\n        /* \"#utility.yul\":6055:6071   */\n      swap1\n      pop\n        /* \"#utility.yul\":5772:6077   */\n      swap3\n      swap2\n      pop\n      pop\n      jump\t// out\n        /* \"#utility.yul\":6083:6274   */\n    tag_43:\n        /* \"#utility.yul\":6123:6127   */\n      0x00\n        /* \"#utility.yul\":6143:6163   */\n      tag_168\n        /* \"#utility.yul\":6161:6162   */\n      dup3\n        /* \"#utility.yul\":6143:6163   */\n      tag_139\n      jump\t// in\n    tag_168:\n        /* \"#utility.yul\":6138:6163   */\n      swap2\n      pop\n        /* \"#utility.yul\":6177:6197   */\n      tag_169\n        /* \"#utility.yul\":6195:6196   */\n      dup4\n        /* \"#utility.yul\":6177:6197   */\n      tag_139\n      jump\t// in\n    tag_169:\n        /* \"#utility.yul\":6172:6197   */\n      swap3\n      pop\n        /* \"#utility.yul\":6216:6217   */\n      dup3\n        /* \"#utility.yul\":6213:6214   */\n      dup3\n        /* \"#utility.yul\":6210:6218   */\n      lt\n        /* \"#utility.yul\":6207:6241   */\n      iszero\n      tag_170\n      jumpi\n        /* \"#utility.yul\":6221:6239   */\n      tag_171\n      tag_166\n      jump\t// in\n    tag_171:\n        /* \"#utility.yul\":6207:6241   */\n    tag_170:\n        /* \"#utility.yul\":6266:6267   */\n      dup3\n        /* \"#utility.yul\":6263:6264   */\n      dup3\n        /* \"#utility.yul\":6259:6268   */\n      sub\n        /* \"#utility.yul\":6251:6268   */\n      swap1\n      pop\n        /* \"#utility.yul\":6083:6274   */\n      swap3\n      swap2\n      pop\n      pop\n      jump\t// out\n        /* \"#utility.yul\":6280:6376   */\n    tag_125:\n        /* \"#utility.yul\":6317:6324   */\n      0x00\n        /* \"#utility.yul\":6346:6370   */\n      tag_173\n        /* \"#utility.yul\":6364:6369   */\n      dup3\n        /* \"#utility.yul\":6346:6370   */\n      tag_174\n      jump\t// in\n    tag_173:\n        /* \"#utility.yul\":6335:6370   */\n      swap1\n      pop\n        /* \"#utility.yul\":6280:6376   */\n      swap2\n      swap1\n      pop\n      jump\t// out\n        /* \"#utility.yul\":6382:6486   */\n    tag_121:\n        /* \"#utility.yul\":6427:6434   */\n      0x00\n        /* \"#utility.yul\":6456:6480   */\n      tag_176\n        /* \"#utility.yul\":6474:6479   */\n      dup3\n        /* \"#utility.yul\":6456:6480   */\n      tag_174\n      jump\t// in\n    tag_176:\n        /* \"#utility.yul\":6445:6480   */\n      swap1\n      pop\n        /* \"#utility.yul\":6382:6486   */\n      swap2\n      swap1\n      pop\n      jump\t// out\n        /* \"#utility.yul\":6492:6618   */\n    tag_174:\n        /* \"#utility.yul\":6529:6536   */\n      0x00\n        /* \"#utility.yul\":6569:6611   */\n      0xffffffffffffffffffffffffffffffffffffffff\n        /* \"#utility.yul\":6562:6567   */\n      dup3\n        /* \"#utility.yul\":6558:6612   */\n      and\n        /* \"#utility.yul\":6547:6612   */\n      swap1\n      pop\n        /* \"#utility.yul\":6492:6618   */\n      swap2\n      swap1\n      pop\n      jump\t// out\n        /* \"#utility.yul\":6624:6701   */\n    tag_139:\n        /* \"#utility.yul\":6661:6668   */\n      0x00\n        /* \"#utility.yul\":6690:6695   */\n      dup2\n        /* \"#utility.yul\":6679:6695   */\n      swap1\n      pop\n        /* \"#utility.yul\":6624:6701   */\n      swap2\n      swap1\n      pop\n      jump\t// out\n        /* \"#utility.yul\":6707:6861   */\n    tag_82:\n        /* \"#utility.yul\":6791:6797   */\n      dup3\n        /* \"#utility.yul\":6786:6789   */\n      dup2\n        /* \"#utility.yul\":6781:6784   */\n      dup4\n        /* \"#utility.yul\":6768:6798   */\n      calldatacopy\n        /* \"#utility.yul\":6853:6854   */\n      0x00\n        /* \"#utility.yul\":6844:6850   */\n      dup4\n        /* \"#utility.yul\":6839:6842   */\n      dup4\n        /* \"#utility.yul\":6835:6851   */\n      add\n        /* \"#utility.yul\":6828:6855   */\n      mstore\n        /* \"#utility.yul\":6707:6861   */\n      pop\n      pop\n      pop\n      jump\t// out\n        /* \"#utility.yul\":6867:7174   */\n    tag_133:\n        /* \"#utility.yul\":6935:6936   */\n      0x00\n        /* \"#utility.yul\":6945:7058   */\n    tag_181:\n        /* \"#utility.yul\":6959:6965   */\n      dup4\n        /* \"#utility.yul\":6956:6957   */\n      dup2\n        /* \"#utility.yul\":6953:6966   */\n      lt\n        /* \"#utility.yul\":6945:7058   */\n      iszero\n      tag_183\n      jumpi\n        /* \"#utility.yul\":7044:7045   */\n      dup1\n        /* \"#utility.yul\":7039:7042   */\n      dup3\n        /* \"#utility.yul\":7035:7046   */\n      add\n        /* \"#utility.yul\":7029:7047   */\n      mload\n        /* \"#utility.yul\":7025:7026   */\n      dup2\n        /* \"#utility.yul\":7020:7023   */\n      dup5\n        /* \"#utility.yul\":7016:7027   */\n      add\n        /* \"#utility.yul\":7009:7048   */\n      mstore\n        /* \"#utility.yul\":6981:6983   */\n      0x20\n        /* \"#utility.yul\":6978:6979   */\n      dup2\n        /* \"#utility.yul\":6974:6984   */\n      add\n        /* \"#utility.yul\":6969:6984   */\n      swap1\n      pop\n        /* \"#utility.yul\":6945:7058   */\n      jump(tag_181)\n    tag_183:\n        /* \"#utility.yul\":7076:7082   */\n      dup4\n        /* \"#utility.yul\":7073:7074   */\n      dup2\n        /* \"#utility.yul\":7070:7083   */\n      gt\n        /* \"#utility.yul\":7067:7168   */\n      iszero\n      tag_184\n      jumpi\n        /* \"#utility.yul\":7156:7157   */\n      0x00\n        /* \"#utility.yul\":7147:7153   */\n      dup5\n        /* \"#utility.yul\":7142:7145   */\n      dup5\n        /* \"#utility.yul\":7138:7154   */\n      add\n        /* \"#utility.yul\":7131:7158   */\n      mstore\n        /* \"#utility.yul\":7067:7168   */\n    tag_184:\n        /* \"#utility.yul\":6916:7174   */\n      pop\n        /* \"#utility.yul\":6867:7174   */\n      pop\n      pop\n      pop\n      jump\t// out\n        /* \"#utility.yul\":7180:7500   */\n    tag_45:\n        /* \"#utility.yul\":7224:7230   */\n      0x00\n        /* \"#utility.yul\":7261:7262   */\n      0x02\n        /* \"#utility.yul\":7255:7259   */\n      dup3\n        /* \"#utility.yul\":7251:7263   */\n      div\n        /* \"#utility.yul\":7241:7263   */\n      swap1\n      pop\n        /* \"#utility.yul\":7308:7309   */\n      0x01\n        /* \"#utility.yul\":7302:7306   */\n      dup3\n        /* \"#utility.yul\":7298:7310   */\n      and\n        /* \"#utility.yul\":7329:7347   */\n      dup1\n        /* \"#utility.yul\":7319:7400   */\n      tag_186\n      jumpi\n        /* \"#utility.yul\":7385:7389   */\n      0x7f\n        /* \"#utility.yul\":7377:7383   */\n      dup3\n        /* \"#utility.yul\":7373:7390   */\n      and\n        /* \"#utility.yul\":7363:7390   */\n      swap2\n      pop\n        /* \"#utility.yul\":7319:7400   */\n    tag_186:\n        /* \"#utility.yul\":7447:7449   */\n      0x20\n        /* \"#utility.yul\":7439:7445   */\n      dup3\n        /* \"#utility.yul\":7436:7450   */\n      lt\n        /* \"#utility.yul\":7416:7434   */\n      dup2\n        /* \"#utility.yul\":7413:7451   */\n      eq\n        /* \"#utility.yul\":7410:7494   */\n      iszero\n      tag_187\n      jumpi\n        /* \"#utility.yul\":7466:7484   */\n      tag_188\n      tag_189\n      jump\t// in\n    tag_188:\n        /* \"#utility.yul\":7410:7494   */\n    tag_187:\n        /* \"#utility.yul\":7231:7500   */\n      pop\n        /* \"#utility.yul\":7180:7500   */\n      swap2\n      swap1\n      pop\n      jump\t// out\n        /* \"#utility.yul\":7506:7787   */\n    tag_152:\n        /* \"#utility.yul\":7589:7616   */\n      tag_191\n        /* \"#utility.yul\":7611:7615   */\n      dup3\n        /* \"#utility.yul\":7589:7616   */\n      tag_135\n      jump\t// in\n    tag_191:\n        /* \"#utility.yul\":7581:7587   */\n      dup2\n        /* \"#utility.yul\":7577:7617   */\n      add\n        /* \"#utility.yul\":7719:7725   */\n      dup2\n        /* \"#utility.yul\":7707:7717   */\n      dup2\n        /* \"#utility.yul\":7704:7726   */\n      lt\n        /* \"#utility.yul\":7683:7701   */\n      0xffffffffffffffff\n        /* \"#utility.yul\":7671:7681   */\n      dup3\n        /* \"#utility.yul\":7668:7702   */\n      gt\n        /* \"#utility.yul\":7665:7727   */\n      or\n        /* \"#utility.yul\":7662:7750   */\n      iszero\n      tag_192\n      jumpi\n        /* \"#utility.yul\":7730:7748   */\n      tag_193\n      tag_157\n      jump\t// in\n    tag_193:\n        /* \"#utility.yul\":7662:7750   */\n    tag_192:\n        /* \"#utility.yul\":7770:7780   */\n      dup1\n        /* \"#utility.yul\":7766:7768   */\n      0x40\n        /* \"#utility.yul\":7759:7781   */\n      mstore\n        /* \"#utility.yul\":7549:7787   */\n      pop\n        /* \"#utility.yul\":7506:7787   */\n      pop\n      pop\n      jump\t// out\n        /* \"#utility.yul\":7793:7973   */\n    tag_166:\n        /* \"#utility.yul\":7841:7918   */\n      0x4e487b7100000000000000000000000000000000000000000000000000000000\n        /* \"#utility.yul\":7838:7839   */\n      0x00\n        /* \"#utility.yul\":7831:7919   */\n      mstore\n        /* \"#utility.yul\":7938:7942   */\n      0x11\n        /* \"#utility.yul\":7935:7936   */\n      0x04\n        /* \"#utility.yul\":7928:7943   */\n      mstore\n        /* \"#utility.yul\":7962:7966   */\n      0x24\n        /* \"#utility.yul\":7959:7960   */\n      0x00\n        /* \"#utility.yul\":7952:7967   */\n      revert\n        /* \"#utility.yul\":7979:8159   */\n    tag_189:\n        /* \"#utility.yul\":8027:8104   */\n      0x4e487b7100000000000000000000000000000000000000000000000000000000\n        /* \"#utility.yul\":8024:8025   */\n      0x00\n        /* \"#utility.yul\":8017:8105   */\n      mstore\n        /* \"#utility.yul\":8124:8128   */\n      0x22\n        /* \"#utility.yul\":8121:8122   */\n      0x04\n        /* \"#utility.yul\":8114:8129   */\n      mstore\n        /* \"#utility.yul\":8148:8152   */\n      0x24\n        /* \"#utility.yul\":8145:8146   */\n      0x00\n        /* \"#utility.yul\":8138:8153   */\n      revert\n        /* \"#utility.yul\":8165:8345   */\n    tag_157:\n        /* \"#utility.yul\":8213:8290   */\n      0x4e487b7100000000000000000000000000000000000000000000000000000000\n        /* \"#utility.yul\":8210:8211   */\n      0x00\n        /* \"#utility.yul\":8203:8291   */\n      mstore\n        /* \"#utility.yul\":8310:8314   */\n      0x41\n        /* \"#utility.yul\":8307:8308   */\n      0x04\n        /* \"#utility.yul\":8300:8315   */\n      mstore\n        /* \"#utility.yul\":8334:8338   */\n      0x24\n        /* \"#utility.yul\":8331:8332   */\n      0x00\n        /* \"#utility.yul\":8324:8339   */\n      revert\n        /* \"#utility.yul\":8351:8468   */\n    tag_87:\n        /* \"#utility.yul\":8460:8461   */\n      0x00\n        /* \"#utility.yul\":8457:8458   */\n      dup1\n        /* \"#utility.yul\":8450:8462   */\n      revert\n        /* \"#utility.yul\":8474:8591   */\n    tag_80:\n        /* \"#utility.yul\":8583:8584   */\n      0x00\n        /* \"#utility.yul\":8580:8581   */\n      dup1\n        /* \"#utility.yul\":8573:8585   */\n      revert\n        /* \"#utility.yul\":8597:8714   */\n    tag_104:\n        /* \"#utility.yul\":8706:8707   */\n      0x00\n        /* \"#utility.yul\":8703:8704   */\n      dup1\n        /* \"#utility.yul\":8696:8708   */\n      revert\n        /* \"#utility.yul\":8720:8837   */\n    tag_96:\n        /* \"#utility.yul\":8829:8830   */\n      0x00\n        /* \"#utility.yul\":8826:8827   */\n      dup1\n        /* \"#utility.yul\":8819:8831   */\n      revert\n        /* \"#utility.yul\":8843:8945   */\n    tag_135:\n        /* \"#utility.yul\":8884:8890   */\n      0x00\n        /* \"#utility.yul\":8935:8937   */\n      0x1f\n        /* \"#utility.yul\":8931:8938   */\n      not\n        /* \"#utility.yul\":8926:8928   */\n      0x1f\n        /* \"#utility.yul\":8919:8924   */\n      dup4\n        /* \"#utility.yul\":8915:8929   */\n      add\n        /* \"#utility.yul\":8911:8939   */\n      and\n        /* \"#utility.yul\":8901:8939   */\n      swap1\n      pop\n        /* \"#utility.yul\":8843:8945   */\n      swap2\n      swap1\n      pop\n      jump\t// out\n        /* \"#utility.yul\":8951:9073   */\n    tag_92:\n        /* \"#utility.yul\":9024:9048   */\n      tag_203\n        /* \"#utility.yul\":9042:9047   */\n      dup2\n        /* \"#utility.yul\":9024:9048   */\n      tag_139\n      jump\t// in\n    tag_203:\n        /* \"#utility.yul\":9017:9022   */\n      dup2\n        /* \"#utility.yul\":9014:9049   */\n      eq\n        /* \"#utility.yul\":9004:9067   */\n      tag_204\n      jumpi\n        /* \"#utility.yul\":9063:9064   */\n      0x00\n        /* \"#utility.yul\":9060:9061   */\n      dup1\n        /* \"#utility.yul\":9053:9065   */\n      revert\n        /* \"#utility.yul\":9004:9067   */\n    tag_204:\n        /* \"#utility.yul\":8951:9073   */\n      pop\n      jump\t// out\n\n    auxdata: 0xa2646970667358221220332d6aa16cde997f3f288ccc0ffcaebe0034521af54770d6d309ad024106fc6e64736f6c63430008070033\n}\n",
				"bytecode": {
					"linkReferences": {},
					"object": "6080604052336000806101000a81548173ffffffffffffffffffffffffffffffffffffffff021916908373ffffffffffffffffffffffffffffffffffffffff160217905550610a85806100536000396000f3fe6080604052600436106100595760003560e01c80630562b9f7146100625780632929d1211461007e5780633f3078df146100bf57806381fd25c0146100e85780638da5cb5b14610104578063a1f3ae221461012f57610060565b3661006057005b005b61007c6004803603810190610077919061058d565b61014b565b005b34801561008a57600080fd5b506100a560048036038101906100a0919061058d565b610181565b6040516100b695949392919061073d565b60405180910390f35b3480156100cb57600080fd5b506100e660048036038101906100e19190610669565b61025f565b005b61010260048036038101906100fd9190610629565b6102c9565b005b34801561011057600080fd5b50610119610300565b6040516101269190610722565b60405180910390f35b610149600480360381019061014491906105ba565b610324565b005b600060016000838152602001908152602001600020905081816004016000828254610176919061085f565b925050819055505050565b60016020528060005260406000206000915090508060000154908060010180546101aa90610923565b80601f01602080910402602001604051908101604052809291908181526020018280546101d690610923565b80156102235780601f106101f857610100808354040283529160200191610223565b820191906000526020600020905b81548152906001019060200180831161020657829003601f168201915b5050505050908060020160009054906101000a900473ffffffffffffffffffffffffffffffffffffffff16908060030154908060040154905085565b600080600160008681526020019081526020016000209150600160008581526020019081526020016000209050828260040160008282546102a0919061085f565b92505081905550828160040160008282546102bb9190610809565b925050819055505050505050565b6000600160008481526020019081526020016000209050818160040160008282546102f49190610809565b92505081905550505050565b60008054906101000a900473ffffffffffffffffffffffffffffffffffffffff1681565b61032c610420565b8381600001818152505082816020018190525033816040019073ffffffffffffffffffffffffffffffffffffffff16908173ffffffffffffffffffffffffffffffffffffffff16815250508181606001818152505080600160008681526020019081526020016000206000820151816000015560208201518160010190805190602001906103bb929190610465565b5060408201518160020160006101000a81548173ffffffffffffffffffffffffffffffffffffffff021916908373ffffffffffffffffffffffffffffffffffffffff160217905550606082015181600301556080820151816004015590505050505050565b6040518060a001604052806000815260200160608152602001600073ffffffffffffffffffffffffffffffffffffffff16815260200160008152602001600081525090565b82805461047190610923565b90600052602060002090601f01602090048101928261049357600085556104da565b82601f106104ac57805160ff19168380011785556104da565b828001600101855582156104da579182015b828111156104d95782518255916020019190600101906104be565b5b5090506104e791906104eb565b5090565b5b808211156105045760008160009055506001016104ec565b5090565b600061051b610516846107bc565b610797565b90508281526020810184848401111561053757610536610a18565b5b6105428482856108e1565b509392505050565b600082601f83011261055f5761055e610a13565b5b813561056f848260208601610508565b91505092915050565b60008135905061058781610a38565b92915050565b6000602082840312156105a3576105a2610a22565b5b60006105b184828501610578565b91505092915050565b6000806000606084860312156105d3576105d2610a22565b5b60006105e186828701610578565b935050602084013567ffffffffffffffff81111561060257610601610a1d565b5b61060e8682870161054a565b925050604061061f86828701610578565b9150509250925092565b600080604083850312156106405761063f610a22565b5b600061064e85828601610578565b925050602061065f85828601610578565b9150509250929050565b60008060006060848603121561068257610681610a22565b5b600061069086828701610578565b93505060206106a186828701610578565b92505060406106b286828701610578565b9150509250925092565b6106c5816108a5565b82525050565b6106d481610893565b82525050565b60006106e5826107ed565b6106ef81856107f8565b93506106ff8185602086016108f0565b61070881610a27565b840191505092915050565b61071c816108d7565b82525050565b600060208201905061073760008301846106bc565b92915050565b600060a0820190506107526000830188610713565b818103602083015261076481876106da565b905061077360408301866106cb565b6107806060830185610713565b61078d6080830184610713565b9695505050505050565b60006107a16107b2565b90506107ad8282610955565b919050565b6000604051905090565b600067ffffffffffffffff8211156107d7576107d66109e4565b5b6107e082610a27565b9050602081019050919050565b600081519050919050565b600082825260208201905092915050565b6000610814826108d7565b915061081f836108d7565b9250827fffffffffffffffffffffffffffffffffffffffffffffffffffffffffffffffff0382111561085457610853610986565b5b828201905092915050565b600061086a826108d7565b9150610875836108d7565b92508282101561088857610887610986565b5b828203905092915050565b600061089e826108b7565b9050919050565b60006108b0826108b7565b9050919050565b600073ffffffffffffffffffffffffffffffffffffffff82169050919050565b6000819050919050565b82818337600083830152505050565b60005b8381101561090e5780820151818401526020810190506108f3565b8381111561091d576000848401525b50505050565b6000600282049050600182168061093b57607f821691505b6020821081141561094f5761094e6109b5565b5b50919050565b61095e82610a27565b810181811067ffffffffffffffff8211171561097d5761097c6109e4565b5b80604052505050565b7f4e487b7100000000000000000000000000000000000000000000000000000000600052601160045260246000fd5b7f4e487b7100000000000000000000000000000000000000000000000000000000600052602260045260246000fd5b7f4e487b7100000000000000000000000000000000000000000000000000000000600052604160045260246000fd5b600080fd5b600080fd5b600080fd5b600080fd5b6000601f19601f8301169050919050565b610a41816108d7565b8114610a4c57600080fd5b5056fea2646970667358221220332d6aa16cde997f3f288ccc0ffcaebe0034521af54770d6d309ad024106fc6e64736f6c63430008070033",
					"opcodes": "PUSH1 0x80 PUSH1 0x40 MSTORE CALLER PUSH1 0x0 DUP1 PUSH2 0x100 EXP DUP2 SLOAD DUP2 PUSH20 0xFFFFFFFFFFFFFFFFFFFFFFFFFFFFFFFFFFFFFFFF MUL NOT AND SWAP1 DUP4 PUSH20 0xFFFFFFFFFFFFFFFFFFFFFFFFFFFFFFFFFFFFFFFF AND MUL OR SWAP1 SSTORE POP PUSH2 0xA85 DUP1 PUSH2 0x53 PUSH1 0x0 CODECOPY PUSH1 0x0 RETURN INVALID PUSH1 0x80 PUSH1 0x40 MSTORE PUSH1 0x4 CALLDATASIZE LT PUSH2 0x59 JUMPI PUSH1 0x0 CALLDATALOAD PUSH1 0xE0 SHR DUP1 PUSH4 0x562B9F7 EQ PUSH2 0x62 JUMPI DUP1 PUSH4 0x2929D121 EQ PUSH2 0x7E JUMPI DUP1 PUSH4 0x3F3078DF EQ PUSH2 0xBF JUMPI DUP1 PUSH4 0x81FD25C0 EQ PUSH2 0xE8 JUMPI DUP1 PUSH4 0x8DA5CB5B EQ PUSH2 0x104 JUMPI DUP1 PUSH4 0xA1F3AE22 EQ PUSH2 0x12F JUMPI PUSH2 0x60 JUMP JUMPDEST CALLDATASIZE PUSH2 0x60 JUMPI STOP JUMPDEST STOP JUMPDEST PUSH2 0x7C PUSH1 0x4 DUP1 CALLDATASIZE SUB DUP2 ADD SWAP1 PUSH2 0x77 SWAP2 SWAP1 PUSH2 0x58D JUMP JUMPDEST PUSH2 0x14B JUMP JUMPDEST STOP JUMPDEST CALLVALUE DUP1 ISZERO PUSH2 0x8A JUMPI PUSH1 0x0 DUP1 REVERT JUMPDEST POP PUSH2 0xA5 PUSH1 0x4 DUP1 CALLDATASIZE SUB DUP2 ADD SWAP1 PUSH2 0xA0 SWAP2 SWAP1 PUSH2 0x58D JUMP JUMPDEST PUSH2 0x181 JUMP JUMPDEST PUSH1 0x40 MLOAD PUSH2 0xB6 SWAP6 SWAP5 SWAP4 SWAP3 SWAP2 SWAP1 PUSH2 0x73D JUMP JUMPDEST PUSH1 0x40 MLOAD DUP1 SWAP2 SUB SWAP1 RETURN JUMPDEST CALLVALUE DUP1 ISZERO PUSH2 0xCB JUMPI PUSH1 0x0 DUP1 REVERT JUMPDEST POP PUSH2 0xE6 PUSH1 0x4 DUP1 CALLDATASIZE SUB DUP2 ADD SWAP1 PUSH2 0xE1 SWAP2 SWAP1 PUSH2 0x669 JUMP JUMPDEST PUSH2 0x25F JUMP JUMPDEST STOP JUMPDEST PUSH2 0x102 PUSH1 0x4 DUP1 CALLDATASIZE SUB DUP2 ADD SWAP1 PUSH2 0xFD SWAP2 SWAP1 PUSH2 0x629 JUMP JUMPDEST PUSH2 0x2C9 JUMP JUMPDEST STOP JUMPDEST CALLVALUE DUP1 ISZERO PUSH2 0x110 JUMPI PUSH1 0x0 DUP1 REVERT JUMPDEST POP PUSH2 0x119 PUSH2 0x300 JUMP JUMPDEST PUSH1 0x40 MLOAD PUSH2 0x126 SWAP2 SWAP1 PUSH2 0x722 JUMP JUMPDEST PUSH1 0x40 MLOAD DUP1 SWAP2 SUB SWAP1 RETURN JUMPDEST PUSH2 0x149 PUSH1 0x4 DUP1 CALLDATASIZE SUB DUP2 ADD SWAP1 PUSH2 0x144 SWAP2 SWAP1 PUSH2 0x5BA JUMP JUMPDEST PUSH2 0x324 JUMP JUMPDEST STOP JUMPDEST PUSH1 0x0 PUSH1 0x1 PUSH1 0x0 DUP4 DUP2 MSTORE PUSH1 0x20 ADD SWAP1 DUP2 MSTORE PUSH1 0x20 ADD PUSH1 0x0 KECCAK256 SWAP1 POP DUP2 DUP2 PUSH1 0x4 ADD PUSH1 0x0 DUP3 DUP3 SLOAD PUSH2 0x176 SWAP2 SWAP1 PUSH2 0x85F JUMP JUMPDEST SWAP3 POP POP DUP2 SWAP1 SSTORE POP POP POP JUMP JUMPDEST PUSH1 0x1 PUSH1 0x20 MSTORE DUP1 PUSH1 0x0 MSTORE PUSH1 0x40 PUSH1 0x0 KECCAK256 PUSH1 0x0 SWAP2 POP SWAP1 POP DUP1 PUSH1 0x0 ADD SLOAD SWAP1 DUP1 PUSH1 0x1 ADD DUP1 SLOAD PUSH2 0x1AA SWAP1 PUSH2 0x923 JUMP JUMPDEST DUP1 PUSH1 0x1F ADD PUSH1 0x20 DUP1 SWAP2 DIV MUL PUSH1 0x20 ADD PUSH1 0x40 MLOAD SWAP1 DUP2 ADD PUSH1 0x40 MSTORE DUP1 SWAP3 SWAP2 SWAP1 DUP2 DUP2 MSTORE PUSH1 0x20 ADD DUP3 DUP1 SLOAD PUSH2 0x1D6 SWAP1 PUSH2 0x923 JUMP JUMPDEST DUP1 ISZERO PUSH2 0x223 JUMPI DUP1 PUSH1 0x1F LT PUSH2 0x1F8 JUMPI PUSH2 0x100 DUP1 DUP4 SLOAD DIV MUL DUP4 MSTORE SWAP2 PUSH1 0x20 ADD SWAP2 PUSH2 0x223 JUMP JUMPDEST DUP3 ADD SWAP2 SWAP1 PUSH1 0x0 MSTORE PUSH1 0x20 PUSH1 0x0 KECCAK256 SWAP1 JUMPDEST DUP2 SLOAD DUP2 MSTORE SWAP1 PUSH1 0x1 ADD SWAP1 PUSH1 0x20 ADD DUP1 DUP4 GT PUSH2 0x206 JUMPI DUP3 SWAP1 SUB PUSH1 0x1F AND DUP3 ADD SWAP2 JUMPDEST POP POP POP POP POP SWAP1 DUP1 PUSH1 0x2 ADD PUSH1 0x0 SWAP1 SLOAD SWAP1 PUSH2 0x100 EXP SWAP1 DIV PUSH20 0xFFFFFFFFFFFFFFFFFFFFFFFFFFFFFFFFFFFFFFFF AND SWAP1 DUP1 PUSH1 0x3 ADD SLOAD SWAP1 DUP1 PUSH1 0x4 ADD SLOAD SWAP1 POP DUP6 JUMP JUMPDEST PUSH1 0x0 DUP1 PUSH1 0x1 PUSH1 0x0 DUP7 DUP2 MSTORE PUSH1 0x20 ADD SWAP1 DUP2 MSTORE PUSH1 0x20 ADD PUSH1 0x0 KECCAK256 SWAP2 POP PUSH1 0x1 PUSH1 0x0 DUP6 DUP2 MSTORE PUSH1 0x20 ADD SWAP1 DUP2 MSTORE PUSH1 0x20 ADD PUSH1 0x0 KECCAK256 SWAP1 POP DUP3 DUP3 PUSH1 0x4 ADD PUSH1 0x0 DUP3 DUP3 SLOAD PUSH2 0x2A0 SWAP2 SWAP1 PUSH2 0x85F JUMP JUMPDEST SWAP3 POP POP DUP2 SWAP1 SSTORE POP DUP3 DUP2 PUSH1 0x4 ADD PUSH1 0x0 DUP3 DUP3 SLOAD PUSH2 0x2BB SWAP2 SWAP1 PUSH2 0x809 JUMP JUMPDEST SWAP3 POP POP DUP2 SWAP1 SSTORE POP POP POP POP POP POP JUMP JUMPDEST PUSH1 0x0 PUSH1 0x1 PUSH1 0x0 DUP5 DUP2 MSTORE PUSH1 0x20 ADD SWAP1 DUP2 MSTORE PUSH1 0x20 ADD PUSH1 0x0 KECCAK256 SWAP1 POP DUP2 DUP2 PUSH1 0x4 ADD PUSH1 0x0 DUP3 DUP3 SLOAD PUSH2 0x2F4 SWAP2 SWAP1 PUSH2 0x809 JUMP JUMPDEST SWAP3 POP POP DUP2 SWAP1 SSTORE POP POP POP POP JUMP JUMPDEST PUSH1 0x0 DUP1 SLOAD SWAP1 PUSH2 0x100 EXP SWAP1 DIV PUSH20 0xFFFFFFFFFFFFFFFFFFFFFFFFFFFFFFFFFFFFFFFF AND DUP2 JUMP JUMPDEST PUSH2 0x32C PUSH2 0x420 JUMP JUMPDEST DUP4 DUP2 PUSH1 0x0 ADD DUP2 DUP2 MSTORE POP POP DUP3 DUP2 PUSH1 0x20 ADD DUP2 SWAP1 MSTORE POP CALLER DUP2 PUSH1 0x40 ADD SWAP1 PUSH20 0xFFFFFFFFFFFFFFFFFFFFFFFFFFFFFFFFFFFFFFFF AND SWAP1 DUP2 PUSH20 0xFFFFFFFFFFFFFFFFFFFFFFFFFFFFFFFFFFFFFFFF AND DUP2 MSTORE POP POP DUP2 DUP2 PUSH1 0x60 ADD DUP2 DUP2 MSTORE POP POP DUP1 PUSH1 0x1 PUSH1 0x0 DUP7 DUP2 MSTORE PUSH1 0x20 ADD SWAP1 DUP2 MSTORE PUSH1 0x20 ADD PUSH1 0x0 KECCAK256 PUSH1 0x0 DUP3 ADD MLOAD DUP2 PUSH1 0x0 ADD SSTORE PUSH1 0x20 DUP3 ADD MLOAD DUP2 PUSH1 0x1 ADD SWAP1 DUP1 MLOAD SWAP1 PUSH1 0x20 ADD SWAP1 PUSH2 0x3BB SWAP3 SWAP2 SWAP1 PUSH2 0x465 JUMP JUMPDEST POP PUSH1 0x40 DUP3 ADD MLOAD DUP2 PUSH1 0x2 ADD PUSH1 0x0 PUSH2 0x100 EXP DUP2 SLOAD DUP2 PUSH20 0xFFFFFFFFFFFFFFFFFFFFFFFFFFFFFFFFFFFFFFFF MUL NOT AND SWAP1 DUP4 PUSH20 0xFFFFFFFFFFFFFFFFFFFFFFFFFFFFFFFFFFFFFFFF AND MUL OR SWAP1 SSTORE POP PUSH1 0x60 DUP3 ADD MLOAD DUP2 PUSH1 0x3 ADD SSTORE PUSH1 0x80 DUP3 ADD MLOAD DUP2 PUSH1 0x4 ADD SSTORE SWAP1 POP POP POP POP POP POP JUMP JUMPDEST PUSH1 0x40 MLOAD DUP1 PUSH1 0xA0 ADD PUSH1 0x40 MSTORE DUP1 PUSH1 0x0 DUP2 MSTORE PUSH1 0x20 ADD PUSH1 0x60 DUP2 MSTORE PUSH1 0x20 ADD PUSH1 0x0 PUSH20 0xFFFFFFFFFFFFFFFFFFFFFFFFFFFFFFFFFFFFFFFF AND DUP2 MSTORE PUSH1 0x20 ADD PUSH1 0x0 DUP2 MSTORE PUSH1 0x20 ADD PUSH1 0x0 DUP2 MSTORE POP SWAP1 JUMP JUMPDEST DUP3 DUP1 SLOAD PUSH2 0x471 SWAP1 PUSH2 0x923 JUMP JUMPDEST SWAP1 PUSH1 0x0 MSTORE PUSH1 0x20 PUSH1 0x0 KECCAK256 SWAP1 PUSH1 0x1F ADD PUSH1 0x20 SWAP1 DIV DUP2 ADD SWAP3 DUP3 PUSH2 0x493 JUMPI PUSH1 0x0 DUP6 SSTORE PUSH2 0x4DA JUMP JUMPDEST DUP3 PUSH1 0x1F LT PUSH2 0x4AC JUMPI DUP1 MLOAD PUSH1 0xFF NOT AND DUP4 DUP1 ADD OR DUP6 SSTORE PUSH2 0x4DA JUMP JUMPDEST DUP3 DUP1 ADD PUSH1 0x1 ADD DUP6 SSTORE DUP3 ISZERO PUSH2 0x4DA JUMPI SWAP2 DUP3 ADD JUMPDEST DUP3 DUP2 GT ISZERO PUSH2 0x4D9 JUMPI DUP3 MLOAD DUP3 SSTORE SWAP2 PUSH1 0x20 ADD SWAP2 SWAP1 PUSH1 0x1 ADD SWAP1 PUSH2 0x4BE JUMP JUMPDEST JUMPDEST POP SWAP1 POP PUSH2 0x4E7 SWAP2 SWAP1 PUSH2 0x4EB JUMP JUMPDEST POP SWAP1 JUMP JUMPDEST JUMPDEST DUP1 DUP3 GT ISZERO PUSH2 0x504 JUMPI PUSH1 0x0 DUP2 PUSH1 0x0 SWAP1 SSTORE POP PUSH1 0x1 ADD PUSH2 0x4EC JUMP JUMPDEST POP SWAP1 JUMP JUMPDEST PUSH1 0x0 PUSH2 0x51B PUSH2 0x516 DUP5 PUSH2 0x7BC JUMP JUMPDEST PUSH2 0x797 JUMP JUMPDEST SWAP1 POP DUP3 DUP2 MSTORE PUSH1 0x20 DUP2 ADD DUP5 DUP5 DUP5 ADD GT ISZERO PUSH2 0x537 JUMPI PUSH2 0x536 PUSH2 0xA18 JUMP JUMPDEST JUMPDEST PUSH2 0x542 DUP5 DUP3 DUP6 PUSH2 0x8E1 JUMP JUMPDEST POP SWAP4 SWAP3 POP POP POP JUMP JUMPDEST PUSH1 0x0 DUP3 PUSH1 0x1F DUP4 ADD SLT PUSH2 0x55F JUMPI PUSH2 0x55E PUSH2 0xA13 JUMP JUMPDEST JUMPDEST DUP2 CALLDATALOAD PUSH2 0x56F DUP5 DUP3 PUSH1 0x20 DUP7 ADD PUSH2 0x508 JUMP JUMPDEST SWAP2 POP POP SWAP3 SWAP2 POP POP JUMP JUMPDEST PUSH1 0x0 DUP2 CALLDATALOAD SWAP1 POP PUSH2 0x587 DUP2 PUSH2 0xA38 JUMP JUMPDEST SWAP3 SWAP2 POP POP JUMP JUMPDEST PUSH1 0x0 PUSH1 0x20 DUP3 DUP5 SUB SLT ISZERO PUSH2 0x5A3 JUMPI PUSH2 0x5A2 PUSH2 0xA22 JUMP JUMPDEST JUMPDEST PUSH1 0x0 PUSH2 0x5B1 DUP5 DUP3 DUP6 ADD PUSH2 0x578 JUMP JUMPDEST SWAP2 POP POP SWAP3 SWAP2 POP POP JUMP JUMPDEST PUSH1 0x0 DUP1 PUSH1 0x0 PUSH1 0x60 DUP5 DUP7 SUB SLT ISZERO PUSH2 0x5D3 JUMPI PUSH2 0x5D2 PUSH2 0xA22 JUMP JUMPDEST JUMPDEST PUSH1 0x0 PUSH2 0x5E1 DUP7 DUP3 DUP8 ADD PUSH2 0x578 JUMP JUMPDEST SWAP4 POP POP PUSH1 0x20 DUP5 ADD CALLDATALOAD PUSH8 0xFFFFFFFFFFFFFFFF DUP2 GT ISZERO PUSH2 0x602 JUMPI PUSH2 0x601 PUSH2 0xA1D JUMP JUMPDEST JUMPDEST PUSH2 0x60E DUP7 DUP3 DUP8 ADD PUSH2 0x54A JUMP JUMPDEST SWAP3 POP POP PUSH1 0x40 PUSH2 0x61F DUP7 DUP3 DUP8 ADD PUSH2 0x578 JUMP JUMPDEST SWAP2 POP POP SWAP3 POP SWAP3 POP SWAP3 JUMP JUMPDEST PUSH1 0x0 DUP1 PUSH1 0x40 DUP4 DUP6 SUB SLT ISZERO PUSH2 0x640 JUMPI PUSH2 0x63F PUSH2 0xA22 JUMP JUMPDEST JUMPDEST PUSH1 0x0 PUSH2 0x64E DUP6 DUP3 DUP7 ADD PUSH2 0x578 JUMP JUMPDEST SWAP3 POP POP PUSH1 0x20 PUSH2 0x65F DUP6 DUP3 DUP7 ADD PUSH2 0x578 JUMP JUMPDEST SWAP2 POP POP SWAP3 POP SWAP3 SWAP1 POP JUMP JUMPDEST PUSH1 0x0 DUP1 PUSH1 0x0 PUSH1 0x60 DUP5 DUP7 SUB SLT ISZERO PUSH2 0x682 JUMPI PUSH2 0x681 PUSH2 0xA22 JUMP JUMPDEST JUMPDEST PUSH1 0x0 PUSH2 0x690 DUP7 DUP3 DUP8 ADD PUSH2 0x578 JUMP JUMPDEST SWAP4 POP POP PUSH1 0x20 PUSH2 0x6A1 DUP7 DUP3 DUP8 ADD PUSH2 0x578 JUMP JUMPDEST SWAP3 POP POP PUSH1 0x40 PUSH2 0x6B2 DUP7 DUP3 DUP8 ADD PUSH2 0x578 JUMP JUMPDEST SWAP2 POP POP SWAP3 POP SWAP3 POP SWAP3 JUMP JUMPDEST PUSH2 0x6C5 DUP2 PUSH2 0x8A5 JUMP JUMPDEST DUP3 MSTORE POP POP JUMP JUMPDEST PUSH2 0x6D4 DUP2 PUSH2 0x893 JUMP JUMPDEST DUP3 MSTORE POP POP JUMP JUMPDEST PUSH1 0x0 PUSH2 0x6E5 DUP3 PUSH2 0x7ED JUMP JUMPDEST PUSH2 0x6EF DUP2 DUP6 PUSH2 0x7F8 JUMP JUMPDEST SWAP4 POP PUSH2 0x6FF DUP2 DUP6 PUSH1 0x20 DUP7 ADD PUSH2 0x8F0 JUMP JUMPDEST PUSH2 0x708 DUP2 PUSH2 0xA27 JUMP JUMPDEST DUP5 ADD SWAP2 POP POP SWAP3 SWAP2 POP POP JUMP JUMPDEST PUSH2 0x71C DUP2 PUSH2 0x8D7 JUMP JUMPDEST DUP3 MSTORE POP POP JUMP JUMPDEST PUSH1 0x0 PUSH1 0x20 DUP3 ADD SWAP1 POP PUSH2 0x737 PUSH1 0x0 DUP4 ADD DUP5 PUSH2 0x6BC JUMP JUMPDEST SWAP3 SWAP2 POP POP JUMP JUMPDEST PUSH1 0x0 PUSH1 0xA0 DUP3 ADD SWAP1 POP PUSH2 0x752 PUSH1 0x0 DUP4 ADD DUP9 PUSH2 0x713 JUMP JUMPDEST DUP2 DUP2 SUB PUSH1 0x20 DUP4 ADD MSTORE PUSH2 0x764 DUP2 DUP8 PUSH2 0x6DA JUMP JUMPDEST SWAP1 POP PUSH2 0x773 PUSH1 0x40 DUP4 ADD DUP7 PUSH2 0x6CB JUMP JUMPDEST PUSH2 0x780 PUSH1 0x60 DUP4 ADD DUP6 PUSH2 0x713 JUMP JUMPDEST PUSH2 0x78D PUSH1 0x80 DUP4 ADD DUP5 PUSH2 0x713 JUMP JUMPDEST SWAP7 SWAP6 POP POP POP POP POP POP JUMP JUMPDEST PUSH1 0x0 PUSH2 0x7A1 PUSH2 0x7B2 JUMP JUMPDEST SWAP1 POP PUSH2 0x7AD DUP3 DUP3 PUSH2 0x955 JUMP JUMPDEST SWAP2 SWAP1 POP JUMP JUMPDEST PUSH1 0x0 PUSH1 0x40 MLOAD SWAP1 POP SWAP1 JUMP JUMPDEST PUSH1 0x0 PUSH8 0xFFFFFFFFFFFFFFFF DUP3 GT ISZERO PUSH2 0x7D7 JUMPI PUSH2 0x7D6 PUSH2 0x9E4 JUMP JUMPDEST JUMPDEST PUSH2 0x7E0 DUP3 PUSH2 0xA27 JUMP JUMPDEST SWAP1 POP PUSH1 0x20 DUP2 ADD SWAP1 POP SWAP2 SWAP1 POP JUMP JUMPDEST PUSH1 0x0 DUP2 MLOAD SWAP1 POP SWAP2 SWAP1 POP JUMP JUMPDEST PUSH1 0x0 DUP3 DUP3 MSTORE PUSH1 0x20 DUP3 ADD SWAP1 POP SWAP3 SWAP2 POP POP JUMP JUMPDEST PUSH1 0x0 PUSH2 0x814 DUP3 PUSH2 0x8D7 JUMP JUMPDEST SWAP2 POP PUSH2 0x81F DUP4 PUSH2 0x8D7 JUMP JUMPDEST SWAP3 POP DUP3 PUSH32 0xFFFFFFFFFFFFFFFFFFFFFFFFFFFFFFFFFFFFFFFFFFFFFFFFFFFFFFFFFFFFFFFF SUB DUP3 GT ISZERO PUSH2 0x854 JUMPI PUSH2 0x853 PUSH2 0x986 JUMP JUMPDEST JUMPDEST DUP3 DUP3 ADD SWAP1 POP SWAP3 SWAP2 POP POP JUMP JUMPDEST PUSH1 0x0 PUSH2 0x86A DUP3 PUSH2 0x8D7 JUMP JUMPDEST SWAP2 POP PUSH2 0x875 DUP4 PUSH2 0x8D7 JUMP JUMPDEST SWAP3 POP DUP3 DUP3 LT ISZERO PUSH2 0x888 JUMPI PUSH2 0x887 PUSH2 0x986 JUMP JUMPDEST JUMPDEST DUP3 DUP3 SUB SWAP1 POP SWAP3 SWAP2 POP POP JUMP JUMPDEST PUSH1 0x0 PUSH2 0x89E DUP3 PUSH2 0x8B7 JUMP JUMPDEST SWAP1 POP SWAP2 SWAP1 POP JUMP JUMPDEST PUSH1 0x0 PUSH2 0x8B0 DUP3 PUSH2 0x8B7 JUMP JUMPDEST SWAP1 POP SWAP2 SWAP1 POP JUMP JUMPDEST PUSH1 0x0 PUSH20 0xFFFFFFFFFFFFFFFFFFFFFFFFFFFFFFFFFFFFFFFF DUP3 AND SWAP1 POP SWAP2 SWAP1 POP JUMP JUMPDEST PUSH1 0x0 DUP2 SWAP1 POP SWAP2 SWAP1 POP JUMP JUMPDEST DUP3 DUP2 DUP4 CALLDATACOPY PUSH1 0x0 DUP4 DUP4 ADD MSTORE POP POP POP JUMP JUMPDEST PUSH1 0x0 JUMPDEST DUP4 DUP2 LT ISZERO PUSH2 0x90E JUMPI DUP1 DUP3 ADD MLOAD DUP2 DUP5 ADD MSTORE PUSH1 0x20 DUP2 ADD SWAP1 POP PUSH2 0x8F3 JUMP JUMPDEST DUP4 DUP2 GT ISZERO PUSH2 0x91D JUMPI PUSH1 0x0 DUP5 DUP5 ADD MSTORE JUMPDEST POP POP POP POP JUMP JUMPDEST PUSH1 0x0 PUSH1 0x2 DUP3 DIV SWAP1 POP PUSH1 0x1 DUP3 AND DUP1 PUSH2 0x93B JUMPI PUSH1 0x7F DUP3 AND SWAP2 POP JUMPDEST PUSH1 0x20 DUP3 LT DUP2 EQ ISZERO PUSH2 0x94F JUMPI PUSH2 0x94E PUSH2 0x9B5 JUMP JUMPDEST JUMPDEST POP SWAP2 SWAP1 POP JUMP JUMPDEST PUSH2 0x95E DUP3 PUSH2 0xA27 JUMP JUMPDEST DUP2 ADD DUP2 DUP2 LT PUSH8 0xFFFFFFFFFFFFFFFF DUP3 GT OR ISZERO PUSH2 0x97D JUMPI PUSH2 0x97C PUSH2 0x9E4 JUMP JUMPDEST JUMPDEST DUP1 PUSH1 0x40 MSTORE POP POP POP JUMP JUMPDEST PUSH32 0x4E487B7100000000000000000000000000000000000000000000000000000000 PUSH1 0x0 MSTORE PUSH1 0x11 PUSH1 0x4 MSTORE PUSH1 0x24 PUSH1 0x0 REVERT JUMPDEST PUSH32 0x4E487B7100000000000000000000000000000000000000000000000000000000 PUSH1 0x0 MSTORE PUSH1 0x22 PUSH1 0x4 MSTORE PUSH1 0x24 PUSH1 0x0 REVERT JUMPDEST PUSH32 0x4E487B7100000000000000000000000000000000000000000000000000000000 PUSH1 0x0 MSTORE PUSH1 0x41 PUSH1 0x4 MSTORE PUSH1 0x24 PUSH1 0x0 REVERT JUMPDEST PUSH1 0x0 DUP1 REVERT JUMPDEST PUSH1 0x0 DUP1 REVERT JUMPDEST PUSH1 0x0 DUP1 REVERT JUMPDEST PUSH1 0x0 DUP1 REVERT JUMPDEST PUSH1 0x0 PUSH1 0x1F NOT PUSH1 0x1F DUP4 ADD AND SWAP1 POP SWAP2 SWAP1 POP JUMP JUMPDEST PUSH2 0xA41 DUP2 PUSH2 0x8D7 JUMP JUMPDEST DUP2 EQ PUSH2 0xA4C JUMPI PUSH1 0x0 DUP1 REVERT JUMPDEST POP JUMP INVALID LOG2 PUSH5 0x6970667358 0x22 SLT KECCAK256 CALLER 0x2D PUSH11 0xA16CDE997F3F288CCC0FFC 0xAE 0xBE STOP CALLVALUE MSTORE BYTE CREATE2 SELFBALANCE PUSH17 0xD6D309AD024106FC6E64736F6C63430008 SMOD STOP CALLER "
				},
				"gasEstimates": {
					"creation": {
						"codeDepositCost": "538600",
						"executionCost": "24817",
						"totalCost": "563417"
					},
					"external": {
						"": "195",
						"clientDeposit(uint256,uint256)": "infinite",
						"clientRegistration(uint256,string,uint256)": "infinite",
						"owner()": "2577",
						"sendAmount(uint256,uint256,uint256)": "infinite",
						"userRegistration(uint256)": "infinite",
						"withdrawAmount(uint256)": "infinite"
					}
				},
				"methodIdentifiers": {
					"clientDeposit(uint256,uint256)": "81fd25c0",
					"clientRegistration(uint256,string,uint256)": "a1f3ae22",
					"owner()": "8da5cb5b",
					"sendAmount(uint256,uint256,uint256)": "3f3078df",
					"userRegistration(uint256)": "2929d121",
					"withdrawAmount(uint256)": "0562b9f7"
				}
			},
			"storageLayout": {
				"storage": [
					{
						"astId": 14,
						"contract": "Samples/bankSystemCurrency.sol:bankingSystem",
						"label": "owner",
						"offset": 0,
						"slot": "0",
						"type": "t_address_payable"
					},
					{
						"astId": 31,
						"contract": "Samples/bankSystemCurrency.sol:bankingSystem",
						"label": "userRegistration",
						"offset": 0,
						"slot": "1",
						"type": "t_mapping(t_uint256,t_struct(Register)12_storage)"
					}
				],
				"types": {
					"t_address": {
						"encoding": "inplace",
						"label": "address",
						"numberOfBytes": "20"
					},
					"t_address_payable": {
						"encoding": "inplace",
						"label": "address payable",
						"numberOfBytes": "20"
					},
					"t_mapping(t_uint256,t_struct(Register)12_storage)": {
						"encoding": "mapping",
						"key": "t_uint256",
						"label": "mapping(uint256 => struct bankingSystem.Register)",
						"numberOfBytes": "32",
						"value": "t_struct(Register)12_storage"
					},
					"t_string_storage": {
						"encoding": "bytes",
						"label": "string",
						"numberOfBytes": "32"
					},
					"t_struct(Register)12_storage": {
						"encoding": "inplace",
						"label": "struct bankingSystem.Register",
						"members": [
							{
								"astId": 3,
								"contract": "Samples/bankSystemCurrency.sol:bankingSystem",
								"label": "id",
								"offset": 0,
								"slot": "0",
								"type": "t_uint256"
							},
							{
								"astId": 5,
								"contract": "Samples/bankSystemCurrency.sol:bankingSystem",
								"label": "name",
								"offset": 0,
								"slot": "1",
								"type": "t_string_storage"
							},
							{
								"astId": 7,
								"contract": "Samples/bankSystemCurrency.sol:bankingSystem",
								"label": "_address",
								"offset": 0,
								"slot": "2",
								"type": "t_address"
							},
							{
								"astId": 9,
								"contract": "Samples/bankSystemCurrency.sol:bankingSystem",
								"label": "phNo",
								"offset": 0,
								"slot": "3",
								"type": "t_uint256"
							},
							{
								"astId": 11,
								"contract": "Samples/bankSystemCurrency.sol:bankingSystem",
								"label": "accountbalance",
								"offset": 0,
								"slot": "4",
								"type": "t_uint256"
							}
						],
						"numberOfBytes": "160"
					},
					"t_uint256": {
						"encoding": "inplace",
						"label": "uint256",
						"numberOfBytes": "32"
					}
				}
			},
			"userdoc": {
				"kind": "user",
				"methods": {},
				"version": 1
			}
		}
	}
}