{
	"Samples/transfer1.sol": {
		"example": {
			"abi": [
				{
					"inputs": [],
					"stateMutability": "nonpayable",
					"type": "constructor"
				},
				{
					"inputs": [
						{
							"internalType": "address",
							"name": "",
							"type": "address"
						},
						{
							"internalType": "address",
							"name": "",
							"type": "address"
						}
					],
					"name": "allowence",
					"outputs": [
						{
							"internalType": "uint256",
							"name": "",
							"type": "uint256"
						}
					],
					"stateMutability": "view",
					"type": "function"
				},
				{
					"inputs": [
						{
							"internalType": "address",
							"name": "spender",
							"type": "address"
						},
						{
							"internalType": "uint256",
							"name": "amount",
							"type": "uint256"
						}
					],
					"name": "approve",
					"outputs": [],
					"stateMutability": "nonpayable",
					"type": "function"
				},
				{
					"inputs": [
						{
							"internalType": "address",
							"name": "",
							"type": "address"
						}
					],
					"name": "balance",
					"outputs": [
						{
							"internalType": "uint256",
							"name": "",
							"type": "uint256"
						}
					],
					"stateMutability": "view",
					"type": "function"
				},
				{
					"inputs": [
						{
							"internalType": "address",
							"name": "checkbalance",
							"type": "address"
						}
					],
					"name": "balanceof",
					"outputs": [
						{
							"internalType": "uint256",
							"name": "",
							"type": "uint256"
						}
					],
					"stateMutability": "view",
					"type": "function"
				},
				{
					"inputs": [
						{
							"internalType": "address",
							"name": "userAddress",
							"type": "address"
						},
						{
							"internalType": "uint256",
							"name": "amount",
							"type": "uint256"
						}
					],
					"name": "mint",
					"outputs": [],
					"stateMutability": "nonpayable",
					"type": "function"
				},
				{
					"inputs": [],
					"name": "totalsupply",
					"outputs": [
						{
							"internalType": "uint256",
							"name": "",
							"type": "uint256"
						}
					],
					"stateMutability": "view",
					"type": "function"
				},
				{
					"inputs": [
						{
							"internalType": "address",
							"name": "to",
							"type": "address"
						},
						{
							"internalType": "uint256",
							"name": "amount",
							"type": "uint256"
						}
					],
					"name": "transfer",
					"outputs": [],
					"stateMutability": "nonpayable",
					"type": "function"
				},
				{
					"inputs": [
						{
							"internalType": "address",
							"name": "from",
							"type": "address"
						},
						{
							"internalType": "address",
							"name": "to",
							"type": "address"
						},
						{
							"internalType": "uint256",
							"name": "amount",
							"type": "uint256"
						}
					],
					"name": "transferfrom",
					"outputs": [],
					"stateMutability": "nonpayable",
					"type": "function"
				}
			],
			"devdoc": {
				"kind": "dev",
				"methods": {},
				"version": 1
			},
			"evm": {
				"assembly": "    /* \"Samples/transfer1.sol\":60:1489  contract example{... */\n  mstore(0x40, 0x80)\n    /* \"Samples/transfer1.sol\":229:333  constructor(){... */\n  callvalue\n  dup1\n  iszero\n  tag_1\n  jumpi\n  0x00\n  dup1\n  revert\ntag_1:\n  pop\n    /* \"Samples/transfer1.sol\":253:284  mint(msg.sender, 1000 * 10**18) */\n  tag_4\n    /* \"Samples/transfer1.sol\":258:268  msg.sender */\n  caller\n    /* \"Samples/transfer1.sol\":270:283  1000 * 10**18 */\n  0x3635c9adc5dea00000\n    /* \"Samples/transfer1.sol\":253:257  mint */\n  shl(0x20, tag_5)\n    /* \"Samples/transfer1.sol\":253:284  mint(msg.sender, 1000 * 10**18) */\n  0x20\n  shr\n  jump\t// in\ntag_4:\n    /* \"Samples/transfer1.sol\":310:323  1000 * 10**18 */\n  0x3635c9adc5dea00000\n    /* \"Samples/transfer1.sol\":295:307  total_supply */\n  0x02\n    /* \"Samples/transfer1.sol\":295:323  total_supply = 1000 * 10**18 */\n  dup2\n  swap1\n  sstore\n  pop\n    /* \"Samples/transfer1.sol\":60:1489  contract example{... */\n  jump(tag_6)\n    /* \"Samples/transfer1.sol\":342:515  function mint(address userAddress, uint amount) public{... */\ntag_5:\n    /* \"Samples/transfer1.sol\":438:439  0 */\n  0x00\n    /* \"Samples/transfer1.sol\":415:440  userAddress != address(0) */\n  0xffffffffffffffffffffffffffffffffffffffff\n  and\n    /* \"Samples/transfer1.sol\":415:426  userAddress */\n  dup3\n    /* \"Samples/transfer1.sol\":415:440  userAddress != address(0) */\n  0xffffffffffffffffffffffffffffffffffffffff\n  and\n  sub\n    /* \"Samples/transfer1.sol\":407:466  require(userAddress != address(0), \"mint the zero address\") */\n  tag_8\n  jumpi\n  mload(0x40)\n  0x08c379a000000000000000000000000000000000000000000000000000000000\n  dup2\n  mstore\n  0x04\n  add\n  tag_9\n  swap1\n  tag_10\n  jump\t// in\ntag_9:\n  mload(0x40)\n  dup1\n  swap2\n  sub\n  swap1\n  revert\ntag_8:\n    /* \"Samples/transfer1.sol\":501:507  amount */\n  dup1\n    /* \"Samples/transfer1.sol\":477:484  balance */\n  0x00\n    /* \"Samples/transfer1.sol\":477:497  balance[userAddress] */\n  dup1\n    /* \"Samples/transfer1.sol\":485:496  userAddress */\n  dup5\n    /* \"Samples/transfer1.sol\":477:497  balance[userAddress] */\n  0xffffffffffffffffffffffffffffffffffffffff\n  and\n  0xffffffffffffffffffffffffffffffffffffffff\n  and\n  dup2\n  mstore\n  0x20\n  add\n  swap1\n  dup2\n  mstore\n  0x20\n  add\n  0x00\n  keccak256\n  0x00\n    /* \"Samples/transfer1.sol\":477:507  balance[userAddress] += amount */\n  dup3\n  dup3\n  sload\n  tag_11\n  swap2\n  swap1\n  tag_12\n  jump\t// in\ntag_11:\n  swap3\n  pop\n  pop\n  dup2\n  swap1\n  sstore\n  pop\n    /* \"Samples/transfer1.sol\":342:515  function mint(address userAddress, uint amount) public{... */\n  pop\n  pop\n  jump\t// out\n    /* \"#utility.yul\":7:176   */\ntag_13:\n    /* \"#utility.yul\":91:102   */\n  0x00\n    /* \"#utility.yul\":125:131   */\n  dup3\n    /* \"#utility.yul\":120:123   */\n  dup3\n    /* \"#utility.yul\":113:132   */\n  mstore\n    /* \"#utility.yul\":165:169   */\n  0x20\n    /* \"#utility.yul\":160:163   */\n  dup3\n    /* \"#utility.yul\":156:170   */\n  add\n    /* \"#utility.yul\":141:170   */\n  swap1\n  pop\n    /* \"#utility.yul\":7:176   */\n  swap3\n  swap2\n  pop\n  pop\n  jump\t// out\n    /* \"#utility.yul\":182:353   */\ntag_14:\n    /* \"#utility.yul\":322:345   */\n  0x6d696e7420746865207a65726f20616464726573730000000000000000000000\n    /* \"#utility.yul\":318:319   */\n  0x00\n    /* \"#utility.yul\":310:316   */\n  dup3\n    /* \"#utility.yul\":306:320   */\n  add\n    /* \"#utility.yul\":299:346   */\n  mstore\n    /* \"#utility.yul\":182:353   */\n  pop\n  jump\t// out\n    /* \"#utility.yul\":359:725   */\ntag_15:\n    /* \"#utility.yul\":501:504   */\n  0x00\n    /* \"#utility.yul\":522:589   */\n  tag_22\n    /* \"#utility.yul\":586:588   */\n  0x15\n    /* \"#utility.yul\":581:584   */\n  dup4\n    /* \"#utility.yul\":522:589   */\n  tag_13\n  jump\t// in\ntag_22:\n    /* \"#utility.yul\":515:589   */\n  swap2\n  pop\n    /* \"#utility.yul\":598:691   */\n  tag_23\n    /* \"#utility.yul\":687:690   */\n  dup3\n    /* \"#utility.yul\":598:691   */\n  tag_14\n  jump\t// in\ntag_23:\n    /* \"#utility.yul\":716:718   */\n  0x20\n    /* \"#utility.yul\":711:714   */\n  dup3\n    /* \"#utility.yul\":707:719   */\n  add\n    /* \"#utility.yul\":700:719   */\n  swap1\n  pop\n    /* \"#utility.yul\":359:725   */\n  swap2\n  swap1\n  pop\n  jump\t// out\n    /* \"#utility.yul\":731:1150   */\ntag_10:\n    /* \"#utility.yul\":897:901   */\n  0x00\n    /* \"#utility.yul\":935:937   */\n  0x20\n    /* \"#utility.yul\":924:933   */\n  dup3\n    /* \"#utility.yul\":920:938   */\n  add\n    /* \"#utility.yul\":912:938   */\n  swap1\n  pop\n    /* \"#utility.yul\":984:993   */\n  dup2\n    /* \"#utility.yul\":978:982   */\n  dup2\n    /* \"#utility.yul\":974:994   */\n  sub\n    /* \"#utility.yul\":970:971   */\n  0x00\n    /* \"#utility.yul\":959:968   */\n  dup4\n    /* \"#utility.yul\":955:972   */\n  add\n    /* \"#utility.yul\":948:995   */\n  mstore\n    /* \"#utility.yul\":1012:1143   */\n  tag_25\n    /* \"#utility.yul\":1138:1142   */\n  dup2\n    /* \"#utility.yul\":1012:1143   */\n  tag_15\n  jump\t// in\ntag_25:\n    /* \"#utility.yul\":1004:1143   */\n  swap1\n  pop\n    /* \"#utility.yul\":731:1150   */\n  swap2\n  swap1\n  pop\n  jump\t// out\n    /* \"#utility.yul\":1156:1233   */\ntag_16:\n    /* \"#utility.yul\":1193:1200   */\n  0x00\n    /* \"#utility.yul\":1222:1227   */\n  dup2\n    /* \"#utility.yul\":1211:1227   */\n  swap1\n  pop\n    /* \"#utility.yul\":1156:1233   */\n  swap2\n  swap1\n  pop\n  jump\t// out\n    /* \"#utility.yul\":1239:1419   */\ntag_17:\n    /* \"#utility.yul\":1287:1364   */\n  0x4e487b7100000000000000000000000000000000000000000000000000000000\n    /* \"#utility.yul\":1284:1285   */\n  0x00\n    /* \"#utility.yul\":1277:1365   */\n  mstore\n    /* \"#utility.yul\":1384:1388   */\n  0x11\n    /* \"#utility.yul\":1381:1382   */\n  0x04\n    /* \"#utility.yul\":1374:1389   */\n  mstore\n    /* \"#utility.yul\":1408:1412   */\n  0x24\n    /* \"#utility.yul\":1405:1406   */\n  0x00\n    /* \"#utility.yul\":1398:1413   */\n  revert\n    /* \"#utility.yul\":1425:1616   */\ntag_12:\n    /* \"#utility.yul\":1465:1468   */\n  0x00\n    /* \"#utility.yul\":1484:1504   */\n  tag_29\n    /* \"#utility.yul\":1502:1503   */\n  dup3\n    /* \"#utility.yul\":1484:1504   */\n  tag_16\n  jump\t// in\ntag_29:\n    /* \"#utility.yul\":1479:1504   */\n  swap2\n  pop\n    /* \"#utility.yul\":1518:1538   */\n  tag_30\n    /* \"#utility.yul\":1536:1537   */\n  dup4\n    /* \"#utility.yul\":1518:1538   */\n  tag_16\n  jump\t// in\ntag_30:\n    /* \"#utility.yul\":1513:1538   */\n  swap3\n  pop\n    /* \"#utility.yul\":1561:1562   */\n  dup3\n    /* \"#utility.yul\":1558:1559   */\n  dup3\n    /* \"#utility.yul\":1554:1563   */\n  add\n    /* \"#utility.yul\":1547:1563   */\n  swap1\n  pop\n    /* \"#utility.yul\":1582:1585   */\n  dup1\n    /* \"#utility.yul\":1579:1580   */\n  dup3\n    /* \"#utility.yul\":1576:1586   */\n  gt\n    /* \"#utility.yul\":1573:1609   */\n  iszero\n  tag_31\n  jumpi\n    /* \"#utility.yul\":1589:1607   */\n  tag_32\n  tag_17\n  jump\t// in\ntag_32:\n    /* \"#utility.yul\":1573:1609   */\ntag_31:\n    /* \"#utility.yul\":1425:1616   */\n  swap3\n  swap2\n  pop\n  pop\n  jump\t// out\n    /* \"Samples/transfer1.sol\":60:1489  contract example{... */\ntag_6:\n  dataSize(sub_0)\n  dup1\n  dataOffset(sub_0)\n  0x00\n  codecopy\n  0x00\n  return\nstop\n\nsub_0: assembly {\n        /* \"Samples/transfer1.sol\":60:1489  contract example{... */\n      mstore(0x40, 0x80)\n      callvalue\n      dup1\n      iszero\n      tag_1\n      jumpi\n      0x00\n      dup1\n      revert\n    tag_1:\n      pop\n      jumpi(tag_2, lt(calldatasize, 0x04))\n      shr(0xe0, calldataload(0x00))\n      dup1\n      0x72dd529b\n      gt\n      tag_11\n      jumpi\n      dup1\n      0x72dd529b\n      eq\n      tag_7\n      jumpi\n      dup1\n      0xa77a8230\n      eq\n      tag_8\n      jumpi\n      dup1\n      0xa9059cbb\n      eq\n      tag_9\n      jumpi\n      dup1\n      0xe3d670d7\n      eq\n      tag_10\n      jumpi\n      jump(tag_2)\n    tag_11:\n      dup1\n      0x095ea7b3\n      eq\n      tag_3\n      jumpi\n      dup1\n      0x3d64125b\n      eq\n      tag_4\n      jumpi\n      dup1\n      0x40c10f19\n      eq\n      tag_5\n      jumpi\n      dup1\n      0x63b0545f\n      eq\n      tag_6\n      jumpi\n    tag_2:\n      0x00\n      dup1\n      revert\n        /* \"Samples/transfer1.sol\":1297:1480  function approve(address spender,uint amount) public{... */\n    tag_3:\n      tag_12\n      0x04\n      dup1\n      calldatasize\n      sub\n      dup2\n      add\n      swap1\n      tag_13\n      swap2\n      swap1\n      tag_14\n      jump\t// in\n    tag_13:\n      tag_15\n      jump\t// in\n    tag_12:\n      stop\n        /* \"Samples/transfer1.sol\":617:730  function balanceof(address checkbalance) public view returns(uint){... */\n    tag_4:\n      tag_16\n      0x04\n      dup1\n      calldatasize\n      sub\n      dup2\n      add\n      swap1\n      tag_17\n      swap2\n      swap1\n      tag_18\n      jump\t// in\n    tag_17:\n      tag_19\n      jump\t// in\n    tag_16:\n      mload(0x40)\n      tag_20\n      swap2\n      swap1\n      tag_21\n      jump\t// in\n    tag_20:\n      mload(0x40)\n      dup1\n      swap2\n      sub\n      swap1\n      return\n        /* \"Samples/transfer1.sol\":342:515  function mint(address userAddress, uint amount) public{... */\n    tag_5:\n      tag_22\n      0x04\n      dup1\n      calldatasize\n      sub\n      dup2\n      add\n      swap1\n      tag_23\n      swap2\n      swap1\n      tag_14\n      jump\t// in\n    tag_23:\n      tag_24\n      jump\t// in\n    tag_22:\n      stop\n        /* \"Samples/transfer1.sol\":950:1289  function transferfrom(address from, address to, uint amount) public{... */\n    tag_6:\n      tag_25\n      0x04\n      dup1\n      calldatasize\n      sub\n      dup2\n      add\n      swap1\n      tag_26\n      swap2\n      swap1\n      tag_27\n      jump\t// in\n    tag_26:\n      tag_28\n      jump\t// in\n    tag_25:\n      stop\n        /* \"Samples/transfer1.sol\":523:609  function totalsupply() public view returns(uint){... */\n    tag_7:\n      tag_29\n      tag_30\n      jump\t// in\n    tag_29:\n      mload(0x40)\n      tag_31\n      swap2\n      swap1\n      tag_21\n      jump\t// in\n    tag_31:\n      mload(0x40)\n      dup1\n      swap2\n      sub\n      swap1\n      return\n        /* \"Samples/transfer1.sol\":133:194  mapping(address => mapping(address => uint)) public allowence */\n    tag_8:\n      tag_32\n      0x04\n      dup1\n      calldatasize\n      sub\n      dup2\n      add\n      swap1\n      tag_33\n      swap2\n      swap1\n      tag_34\n      jump\t// in\n    tag_33:\n      tag_35\n      jump\t// in\n    tag_32:\n      mload(0x40)\n      tag_36\n      swap2\n      swap1\n      tag_21\n      jump\t// in\n    tag_36:\n      mload(0x40)\n      dup1\n      swap2\n      sub\n      swap1\n      return\n        /* \"Samples/transfer1.sol\":738:942  function transfer(address to, uint amount) public{... */\n    tag_9:\n      tag_37\n      0x04\n      dup1\n      calldatasize\n      sub\n      dup2\n      add\n      swap1\n      tag_38\n      swap2\n      swap1\n      tag_14\n      jump\t// in\n    tag_38:\n      tag_39\n      jump\t// in\n    tag_37:\n      stop\n        /* \"Samples/transfer1.sol\":87:126  mapping(address => uint) public balance */\n    tag_10:\n      tag_40\n      0x04\n      dup1\n      calldatasize\n      sub\n      dup2\n      add\n      swap1\n      tag_41\n      swap2\n      swap1\n      tag_18\n      jump\t// in\n    tag_41:\n      tag_42\n      jump\t// in\n    tag_40:\n      mload(0x40)\n      tag_43\n      swap2\n      swap1\n      tag_21\n      jump\t// in\n    tag_43:\n      mload(0x40)\n      dup1\n      swap2\n      sub\n      swap1\n      return\n        /* \"Samples/transfer1.sol\":1297:1480  function approve(address spender,uint amount) public{... */\n    tag_15:\n        /* \"Samples/transfer1.sol\":1389:1390  0 */\n      0x00\n        /* \"Samples/transfer1.sol\":1370:1391  spender != address(0) */\n      0xffffffffffffffffffffffffffffffffffffffff\n      and\n        /* \"Samples/transfer1.sol\":1370:1377  spender */\n      dup3\n        /* \"Samples/transfer1.sol\":1370:1391  spender != address(0) */\n      0xffffffffffffffffffffffffffffffffffffffff\n      and\n      sub\n        /* \"Samples/transfer1.sol\":1362:1419  require(spender != address(0), \"approve to zero address\") */\n      tag_45\n      jumpi\n      mload(0x40)\n      0x08c379a000000000000000000000000000000000000000000000000000000000\n      dup2\n      mstore\n      0x04\n      add\n      tag_46\n      swap1\n      tag_47\n      jump\t// in\n    tag_46:\n      mload(0x40)\n      dup1\n      swap2\n      sub\n      swap1\n      revert\n    tag_45:\n        /* \"Samples/transfer1.sol\":1466:1472  amount */\n      dup1\n        /* \"Samples/transfer1.sol\":1432:1441  allowence */\n      0x01\n        /* \"Samples/transfer1.sol\":1432:1453  allowence[msg.sender] */\n      0x00\n        /* \"Samples/transfer1.sol\":1442:1452  msg.sender */\n      caller\n        /* \"Samples/transfer1.sol\":1432:1453  allowence[msg.sender] */\n      0xffffffffffffffffffffffffffffffffffffffff\n      and\n      0xffffffffffffffffffffffffffffffffffffffff\n      and\n      dup2\n      mstore\n      0x20\n      add\n      swap1\n      dup2\n      mstore\n      0x20\n      add\n      0x00\n      keccak256\n        /* \"Samples/transfer1.sol\":1432:1462  allowence[msg.sender][spender] */\n      0x00\n        /* \"Samples/transfer1.sol\":1454:1461  spender */\n      dup5\n        /* \"Samples/transfer1.sol\":1432:1462  allowence[msg.sender][spender] */\n      0xffffffffffffffffffffffffffffffffffffffff\n      and\n      0xffffffffffffffffffffffffffffffffffffffff\n      and\n      dup2\n      mstore\n      0x20\n      add\n      swap1\n      dup2\n      mstore\n      0x20\n      add\n      0x00\n      keccak256\n      0x00\n        /* \"Samples/transfer1.sol\":1432:1472  allowence[msg.sender][spender] += amount */\n      dup3\n      dup3\n      sload\n      tag_48\n      swap2\n      swap1\n      tag_49\n      jump\t// in\n    tag_48:\n      swap3\n      pop\n      pop\n      dup2\n      swap1\n      sstore\n      pop\n        /* \"Samples/transfer1.sol\":1297:1480  function approve(address spender,uint amount) public{... */\n      pop\n      pop\n      jump\t// out\n        /* \"Samples/transfer1.sol\":617:730  function balanceof(address checkbalance) public view returns(uint){... */\n    tag_19:\n        /* \"Samples/transfer1.sol\":678:682  uint */\n      0x00\n        /* \"Samples/transfer1.sol\":701:708  balance */\n      dup1\n        /* \"Samples/transfer1.sol\":701:722  balance[checkbalance] */\n      0x00\n        /* \"Samples/transfer1.sol\":709:721  checkbalance */\n      dup4\n        /* \"Samples/transfer1.sol\":701:722  balance[checkbalance] */\n      0xffffffffffffffffffffffffffffffffffffffff\n      and\n      0xffffffffffffffffffffffffffffffffffffffff\n      and\n      dup2\n      mstore\n      0x20\n      add\n      swap1\n      dup2\n      mstore\n      0x20\n      add\n      0x00\n      keccak256\n      sload\n        /* \"Samples/transfer1.sol\":694:722  return balance[checkbalance] */\n      swap1\n      pop\n        /* \"Samples/transfer1.sol\":617:730  function balanceof(address checkbalance) public view returns(uint){... */\n      swap2\n      swap1\n      pop\n      jump\t// out\n        /* \"Samples/transfer1.sol\":342:515  function mint(address userAddress, uint amount) public{... */\n    tag_24:\n        /* \"Samples/transfer1.sol\":438:439  0 */\n      0x00\n        /* \"Samples/transfer1.sol\":415:440  userAddress != address(0) */\n      0xffffffffffffffffffffffffffffffffffffffff\n      and\n        /* \"Samples/transfer1.sol\":415:426  userAddress */\n      dup3\n        /* \"Samples/transfer1.sol\":415:440  userAddress != address(0) */\n      0xffffffffffffffffffffffffffffffffffffffff\n      and\n      sub\n        /* \"Samples/transfer1.sol\":407:466  require(userAddress != address(0), \"mint the zero address\") */\n      tag_52\n      jumpi\n      mload(0x40)\n      0x08c379a000000000000000000000000000000000000000000000000000000000\n      dup2\n      mstore\n      0x04\n      add\n      tag_53\n      swap1\n      tag_54\n      jump\t// in\n    tag_53:\n      mload(0x40)\n      dup1\n      swap2\n      sub\n      swap1\n      revert\n    tag_52:\n        /* \"Samples/transfer1.sol\":501:507  amount */\n      dup1\n        /* \"Samples/transfer1.sol\":477:484  balance */\n      0x00\n        /* \"Samples/transfer1.sol\":477:497  balance[userAddress] */\n      dup1\n        /* \"Samples/transfer1.sol\":485:496  userAddress */\n      dup5\n        /* \"Samples/transfer1.sol\":477:497  balance[userAddress] */\n      0xffffffffffffffffffffffffffffffffffffffff\n      and\n      0xffffffffffffffffffffffffffffffffffffffff\n      and\n      dup2\n      mstore\n      0x20\n      add\n      swap1\n      dup2\n      mstore\n      0x20\n      add\n      0x00\n      keccak256\n      0x00\n        /* \"Samples/transfer1.sol\":477:507  balance[userAddress] += amount */\n      dup3\n      dup3\n      sload\n      tag_55\n      swap2\n      swap1\n      tag_49\n      jump\t// in\n    tag_55:\n      swap3\n      pop\n      pop\n      dup2\n      swap1\n      sstore\n      pop\n        /* \"Samples/transfer1.sol\":342:515  function mint(address userAddress, uint amount) public{... */\n      pop\n      pop\n      jump\t// out\n        /* \"Samples/transfer1.sol\":950:1289  function transferfrom(address from, address to, uint amount) public{... */\n    tag_28:\n        /* \"Samples/transfer1.sol\":1045:1054  allowence */\n      0x01\n        /* \"Samples/transfer1.sol\":1045:1060  allowence[from] */\n      0x00\n        /* \"Samples/transfer1.sol\":1055:1059  from */\n      dup5\n        /* \"Samples/transfer1.sol\":1045:1060  allowence[from] */\n      0xffffffffffffffffffffffffffffffffffffffff\n      and\n      0xffffffffffffffffffffffffffffffffffffffff\n      and\n      dup2\n      mstore\n      0x20\n      add\n      swap1\n      dup2\n      mstore\n      0x20\n      add\n      0x00\n      keccak256\n        /* \"Samples/transfer1.sol\":1045:1072  allowence[from][msg.sender] */\n      0x00\n        /* \"Samples/transfer1.sol\":1061:1071  msg.sender */\n      caller\n        /* \"Samples/transfer1.sol\":1045:1072  allowence[from][msg.sender] */\n      0xffffffffffffffffffffffffffffffffffffffff\n      and\n      0xffffffffffffffffffffffffffffffffffffffff\n      and\n      dup2\n      mstore\n      0x20\n      add\n      swap1\n      dup2\n      mstore\n      0x20\n      add\n      0x00\n      keccak256\n      sload\n        /* \"Samples/transfer1.sol\":1036:1042  amount */\n      dup2\n        /* \"Samples/transfer1.sol\":1036:1072  amount < allowence[from][msg.sender] */\n      lt\n        /* \"Samples/transfer1.sol\":1028:1091  require(amount < allowence[from][msg.sender], \"not authorized\") */\n      tag_57\n      jumpi\n      mload(0x40)\n      0x08c379a000000000000000000000000000000000000000000000000000000000\n      dup2\n      mstore\n      0x04\n      add\n      tag_58\n      swap1\n      tag_59\n      jump\t// in\n    tag_58:\n      mload(0x40)\n      dup1\n      swap2\n      sub\n      swap1\n      revert\n    tag_57:\n        /* \"Samples/transfer1.sol\":1124:1125  0 */\n      0x00\n        /* \"Samples/transfer1.sol\":1110:1126  to != address(0) */\n      0xffffffffffffffffffffffffffffffffffffffff\n      and\n        /* \"Samples/transfer1.sol\":1110:1112  to */\n      dup3\n        /* \"Samples/transfer1.sol\":1110:1126  to != address(0) */\n      0xffffffffffffffffffffffffffffffffffffffff\n      and\n      sub\n        /* \"Samples/transfer1.sol\":1102:1167  require(to != address(0),\"transfer to zero address not possible\") */\n      tag_60\n      jumpi\n      mload(0x40)\n      0x08c379a000000000000000000000000000000000000000000000000000000000\n      dup2\n      mstore\n      0x04\n      add\n      tag_61\n      swap1\n      tag_62\n      jump\t// in\n    tag_61:\n      mload(0x40)\n      dup1\n      swap2\n      sub\n      swap1\n      revert\n    tag_60:\n        /* \"Samples/transfer1.sol\":1195:1201  amount */\n      dup1\n        /* \"Samples/transfer1.sol\":1178:1185  balance */\n      0x00\n        /* \"Samples/transfer1.sol\":1178:1191  balance[from] */\n      dup1\n        /* \"Samples/transfer1.sol\":1186:1190  from */\n      dup6\n        /* \"Samples/transfer1.sol\":1178:1191  balance[from] */\n      0xffffffffffffffffffffffffffffffffffffffff\n      and\n      0xffffffffffffffffffffffffffffffffffffffff\n      and\n      dup2\n      mstore\n      0x20\n      add\n      swap1\n      dup2\n      mstore\n      0x20\n      add\n      0x00\n      keccak256\n      0x00\n        /* \"Samples/transfer1.sol\":1178:1201  balance[from] -= amount */\n      dup3\n      dup3\n      sload\n      tag_63\n      swap2\n      swap1\n      tag_64\n      jump\t// in\n    tag_63:\n      swap3\n      pop\n      pop\n      dup2\n      swap1\n      sstore\n      pop\n        /* \"Samples/transfer1.sol\":1227:1233  amount */\n      dup1\n        /* \"Samples/transfer1.sol\":1212:1219  balance */\n      0x00\n        /* \"Samples/transfer1.sol\":1212:1223  balance[to] */\n      dup1\n        /* \"Samples/transfer1.sol\":1220:1222  to */\n      dup5\n        /* \"Samples/transfer1.sol\":1212:1223  balance[to] */\n      0xffffffffffffffffffffffffffffffffffffffff\n      and\n      0xffffffffffffffffffffffffffffffffffffffff\n      and\n      dup2\n      mstore\n      0x20\n      add\n      swap1\n      dup2\n      mstore\n      0x20\n      add\n      0x00\n      keccak256\n      0x00\n        /* \"Samples/transfer1.sol\":1212:1233  balance[to] += amount */\n      dup3\n      dup3\n      sload\n      tag_65\n      swap2\n      swap1\n      tag_49\n      jump\t// in\n    tag_65:\n      swap3\n      pop\n      pop\n      dup2\n      swap1\n      sstore\n      pop\n        /* \"Samples/transfer1.sol\":1275:1281  amount */\n      dup1\n        /* \"Samples/transfer1.sol\":1244:1253  allowence */\n      0x01\n        /* \"Samples/transfer1.sol\":1244:1259  allowence[from] */\n      0x00\n        /* \"Samples/transfer1.sol\":1254:1258  from */\n      dup6\n        /* \"Samples/transfer1.sol\":1244:1259  allowence[from] */\n      0xffffffffffffffffffffffffffffffffffffffff\n      and\n      0xffffffffffffffffffffffffffffffffffffffff\n      and\n      dup2\n      mstore\n      0x20\n      add\n      swap1\n      dup2\n      mstore\n      0x20\n      add\n      0x00\n      keccak256\n        /* \"Samples/transfer1.sol\":1244:1271  allowence[from][msg.sender] */\n      0x00\n        /* \"Samples/transfer1.sol\":1260:1270  msg.sender */\n      caller\n        /* \"Samples/transfer1.sol\":1244:1271  allowence[from][msg.sender] */\n      0xffffffffffffffffffffffffffffffffffffffff\n      and\n      0xffffffffffffffffffffffffffffffffffffffff\n      and\n      dup2\n      mstore\n      0x20\n      add\n      swap1\n      dup2\n      mstore\n      0x20\n      add\n      0x00\n      keccak256\n      0x00\n        /* \"Samples/transfer1.sol\":1244:1281  allowence[from][msg.sender] -= amount */\n      dup3\n      dup3\n      sload\n      tag_66\n      swap2\n      swap1\n      tag_64\n      jump\t// in\n    tag_66:\n      swap3\n      pop\n      pop\n      dup2\n      swap1\n      sstore\n      pop\n        /* \"Samples/transfer1.sol\":950:1289  function transferfrom(address from, address to, uint amount) public{... */\n      pop\n      pop\n      pop\n      jump\t// out\n        /* \"Samples/transfer1.sol\":523:609  function totalsupply() public view returns(uint){... */\n    tag_30:\n        /* \"Samples/transfer1.sol\":566:570  uint */\n      0x00\n        /* \"Samples/transfer1.sol\":589:601  total_supply */\n      sload(0x02)\n        /* \"Samples/transfer1.sol\":582:601  return total_supply */\n      swap1\n      pop\n        /* \"Samples/transfer1.sol\":523:609  function totalsupply() public view returns(uint){... */\n      swap1\n      jump\t// out\n        /* \"Samples/transfer1.sol\":133:194  mapping(address => mapping(address => uint)) public allowence */\n    tag_35:\n      mstore(0x20, 0x01)\n      dup2\n      0x00\n      mstore\n      mstore(0x20, keccak256(0x00, 0x40))\n      dup1\n      0x00\n      mstore\n      keccak256(0x00, 0x40)\n      0x00\n      swap2\n      pop\n      swap2\n      pop\n      pop\n      sload\n      dup2\n      jump\t// out\n        /* \"Samples/transfer1.sol\":738:942  function transfer(address to, uint amount) public{... */\n    tag_39:\n        /* \"Samples/transfer1.sol\":820:821  0 */\n      0x00\n        /* \"Samples/transfer1.sol\":806:822  to != address(0) */\n      0xffffffffffffffffffffffffffffffffffffffff\n      and\n        /* \"Samples/transfer1.sol\":806:808  to */\n      dup3\n        /* \"Samples/transfer1.sol\":806:822  to != address(0) */\n      0xffffffffffffffffffffffffffffffffffffffff\n      and\n      sub\n        /* \"Samples/transfer1.sol\":798:863  require(to != address(0),\"transfer to zero address not possible\") */\n      tag_69\n      jumpi\n      mload(0x40)\n      0x08c379a000000000000000000000000000000000000000000000000000000000\n      dup2\n      mstore\n      0x04\n      add\n      tag_70\n      swap1\n      tag_62\n      jump\t// in\n    tag_70:\n      mload(0x40)\n      dup1\n      swap2\n      sub\n      swap1\n      revert\n    tag_69:\n        /* \"Samples/transfer1.sol\":897:903  amount */\n      dup1\n        /* \"Samples/transfer1.sol\":874:881  balance */\n      0x00\n        /* \"Samples/transfer1.sol\":874:893  balance[msg.sender] */\n      dup1\n        /* \"Samples/transfer1.sol\":882:892  msg.sender */\n      caller\n        /* \"Samples/transfer1.sol\":874:893  balance[msg.sender] */\n      0xffffffffffffffffffffffffffffffffffffffff\n      and\n      0xffffffffffffffffffffffffffffffffffffffff\n      and\n      dup2\n      mstore\n      0x20\n      add\n      swap1\n      dup2\n      mstore\n      0x20\n      add\n      0x00\n      keccak256\n      0x00\n        /* \"Samples/transfer1.sol\":874:903  balance[msg.sender] -= amount */\n      dup3\n      dup3\n      sload\n      tag_71\n      swap2\n      swap1\n      tag_64\n      jump\t// in\n    tag_71:\n      swap3\n      pop\n      pop\n      dup2\n      swap1\n      sstore\n      pop\n        /* \"Samples/transfer1.sol\":928:934  amount */\n      dup1\n        /* \"Samples/transfer1.sol\":914:921  balance */\n      0x00\n        /* \"Samples/transfer1.sol\":914:925  balance[to] */\n      dup1\n        /* \"Samples/transfer1.sol\":922:924  to */\n      dup5\n        /* \"Samples/transfer1.sol\":914:925  balance[to] */\n      0xffffffffffffffffffffffffffffffffffffffff\n      and\n      0xffffffffffffffffffffffffffffffffffffffff\n      and\n      dup2\n      mstore\n      0x20\n      add\n      swap1\n      dup2\n      mstore\n      0x20\n      add\n      0x00\n      keccak256\n      0x00\n        /* \"Samples/transfer1.sol\":914:934  balance[to] +=amount */\n      dup3\n      dup3\n      sload\n      tag_72\n      swap2\n      swap1\n      tag_49\n      jump\t// in\n    tag_72:\n      swap3\n      pop\n      pop\n      dup2\n      swap1\n      sstore\n      pop\n        /* \"Samples/transfer1.sol\":738:942  function transfer(address to, uint amount) public{... */\n      pop\n      pop\n      jump\t// out\n        /* \"Samples/transfer1.sol\":87:126  mapping(address => uint) public balance */\n    tag_42:\n      mstore(0x20, 0x00)\n      dup1\n      0x00\n      mstore\n      keccak256(0x00, 0x40)\n      0x00\n      swap2\n      pop\n      swap1\n      pop\n      sload\n      dup2\n      jump\t// out\n        /* \"#utility.yul\":88:205   */\n    tag_74:\n        /* \"#utility.yul\":197:198   */\n      0x00\n        /* \"#utility.yul\":194:195   */\n      dup1\n        /* \"#utility.yul\":187:199   */\n      revert\n        /* \"#utility.yul\":334:460   */\n    tag_76:\n        /* \"#utility.yul\":371:378   */\n      0x00\n        /* \"#utility.yul\":411:453   */\n      0xffffffffffffffffffffffffffffffffffffffff\n        /* \"#utility.yul\":404:409   */\n      dup3\n        /* \"#utility.yul\":400:454   */\n      and\n        /* \"#utility.yul\":389:454   */\n      swap1\n      pop\n        /* \"#utility.yul\":334:460   */\n      swap2\n      swap1\n      pop\n      jump\t// out\n        /* \"#utility.yul\":466:562   */\n    tag_77:\n        /* \"#utility.yul\":503:510   */\n      0x00\n        /* \"#utility.yul\":532:556   */\n      tag_100\n        /* \"#utility.yul\":550:555   */\n      dup3\n        /* \"#utility.yul\":532:556   */\n      tag_76\n      jump\t// in\n    tag_100:\n        /* \"#utility.yul\":521:556   */\n      swap1\n      pop\n        /* \"#utility.yul\":466:562   */\n      swap2\n      swap1\n      pop\n      jump\t// out\n        /* \"#utility.yul\":568:690   */\n    tag_78:\n        /* \"#utility.yul\":641:665   */\n      tag_102\n        /* \"#utility.yul\":659:664   */\n      dup2\n        /* \"#utility.yul\":641:665   */\n      tag_77\n      jump\t// in\n    tag_102:\n        /* \"#utility.yul\":634:639   */\n      dup2\n        /* \"#utility.yul\":631:666   */\n      eq\n        /* \"#utility.yul\":621:684   */\n      tag_103\n      jumpi\n        /* \"#utility.yul\":680:681   */\n      0x00\n        /* \"#utility.yul\":677:678   */\n      dup1\n        /* \"#utility.yul\":670:682   */\n      revert\n        /* \"#utility.yul\":621:684   */\n    tag_103:\n        /* \"#utility.yul\":568:690   */\n      pop\n      jump\t// out\n        /* \"#utility.yul\":696:835   */\n    tag_79:\n        /* \"#utility.yul\":742:747   */\n      0x00\n        /* \"#utility.yul\":780:786   */\n      dup2\n        /* \"#utility.yul\":767:787   */\n      calldataload\n        /* \"#utility.yul\":758:787   */\n      swap1\n      pop\n        /* \"#utility.yul\":796:829   */\n      tag_105\n        /* \"#utility.yul\":823:828   */\n      dup2\n        /* \"#utility.yul\":796:829   */\n      tag_78\n      jump\t// in\n    tag_105:\n        /* \"#utility.yul\":696:835   */\n      swap3\n      swap2\n      pop\n      pop\n      jump\t// out\n        /* \"#utility.yul\":841:918   */\n    tag_80:\n        /* \"#utility.yul\":878:885   */\n      0x00\n        /* \"#utility.yul\":907:912   */\n      dup2\n        /* \"#utility.yul\":896:912   */\n      swap1\n      pop\n        /* \"#utility.yul\":841:918   */\n      swap2\n      swap1\n      pop\n      jump\t// out\n        /* \"#utility.yul\":924:1046   */\n    tag_81:\n        /* \"#utility.yul\":997:1021   */\n      tag_108\n        /* \"#utility.yul\":1015:1020   */\n      dup2\n        /* \"#utility.yul\":997:1021   */\n      tag_80\n      jump\t// in\n    tag_108:\n        /* \"#utility.yul\":990:995   */\n      dup2\n        /* \"#utility.yul\":987:1022   */\n      eq\n        /* \"#utility.yul\":977:1040   */\n      tag_109\n      jumpi\n        /* \"#utility.yul\":1036:1037   */\n      0x00\n        /* \"#utility.yul\":1033:1034   */\n      dup1\n        /* \"#utility.yul\":1026:1038   */\n      revert\n        /* \"#utility.yul\":977:1040   */\n    tag_109:\n        /* \"#utility.yul\":924:1046   */\n      pop\n      jump\t// out\n        /* \"#utility.yul\":1052:1191   */\n    tag_82:\n        /* \"#utility.yul\":1098:1103   */\n      0x00\n        /* \"#utility.yul\":1136:1142   */\n      dup2\n        /* \"#utility.yul\":1123:1143   */\n      calldataload\n        /* \"#utility.yul\":1114:1143   */\n      swap1\n      pop\n        /* \"#utility.yul\":1152:1185   */\n      tag_111\n        /* \"#utility.yul\":1179:1184   */\n      dup2\n        /* \"#utility.yul\":1152:1185   */\n      tag_81\n      jump\t// in\n    tag_111:\n        /* \"#utility.yul\":1052:1191   */\n      swap3\n      swap2\n      pop\n      pop\n      jump\t// out\n        /* \"#utility.yul\":1197:1671   */\n    tag_14:\n        /* \"#utility.yul\":1265:1271   */\n      0x00\n        /* \"#utility.yul\":1273:1279   */\n      dup1\n        /* \"#utility.yul\":1322:1324   */\n      0x40\n        /* \"#utility.yul\":1310:1319   */\n      dup4\n        /* \"#utility.yul\":1301:1308   */\n      dup6\n        /* \"#utility.yul\":1297:1320   */\n      sub\n        /* \"#utility.yul\":1293:1325   */\n      slt\n        /* \"#utility.yul\":1290:1409   */\n      iszero\n      tag_113\n      jumpi\n        /* \"#utility.yul\":1328:1407   */\n      tag_114\n      tag_74\n      jump\t// in\n    tag_114:\n        /* \"#utility.yul\":1290:1409   */\n    tag_113:\n        /* \"#utility.yul\":1448:1449   */\n      0x00\n        /* \"#utility.yul\":1473:1526   */\n      tag_115\n        /* \"#utility.yul\":1518:1525   */\n      dup6\n        /* \"#utility.yul\":1509:1515   */\n      dup3\n        /* \"#utility.yul\":1498:1507   */\n      dup7\n        /* \"#utility.yul\":1494:1516   */\n      add\n        /* \"#utility.yul\":1473:1526   */\n      tag_79\n      jump\t// in\n    tag_115:\n        /* \"#utility.yul\":1463:1526   */\n      swap3\n      pop\n        /* \"#utility.yul\":1419:1536   */\n      pop\n        /* \"#utility.yul\":1575:1577   */\n      0x20\n        /* \"#utility.yul\":1601:1654   */\n      tag_116\n        /* \"#utility.yul\":1646:1653   */\n      dup6\n        /* \"#utility.yul\":1637:1643   */\n      dup3\n        /* \"#utility.yul\":1626:1635   */\n      dup7\n        /* \"#utility.yul\":1622:1644   */\n      add\n        /* \"#utility.yul\":1601:1654   */\n      tag_82\n      jump\t// in\n    tag_116:\n        /* \"#utility.yul\":1591:1654   */\n      swap2\n      pop\n        /* \"#utility.yul\":1546:1664   */\n      pop\n        /* \"#utility.yul\":1197:1671   */\n      swap3\n      pop\n      swap3\n      swap1\n      pop\n      jump\t// out\n        /* \"#utility.yul\":1677:2006   */\n    tag_18:\n        /* \"#utility.yul\":1736:1742   */\n      0x00\n        /* \"#utility.yul\":1785:1787   */\n      0x20\n        /* \"#utility.yul\":1773:1782   */\n      dup3\n        /* \"#utility.yul\":1764:1771   */\n      dup5\n        /* \"#utility.yul\":1760:1783   */\n      sub\n        /* \"#utility.yul\":1756:1788   */\n      slt\n        /* \"#utility.yul\":1753:1872   */\n      iszero\n      tag_118\n      jumpi\n        /* \"#utility.yul\":1791:1870   */\n      tag_119\n      tag_74\n      jump\t// in\n    tag_119:\n        /* \"#utility.yul\":1753:1872   */\n    tag_118:\n        /* \"#utility.yul\":1911:1912   */\n      0x00\n        /* \"#utility.yul\":1936:1989   */\n      tag_120\n        /* \"#utility.yul\":1981:1988   */\n      dup5\n        /* \"#utility.yul\":1972:1978   */\n      dup3\n        /* \"#utility.yul\":1961:1970   */\n      dup6\n        /* \"#utility.yul\":1957:1979   */\n      add\n        /* \"#utility.yul\":1936:1989   */\n      tag_79\n      jump\t// in\n    tag_120:\n        /* \"#utility.yul\":1926:1989   */\n      swap2\n      pop\n        /* \"#utility.yul\":1882:1999   */\n      pop\n        /* \"#utility.yul\":1677:2006   */\n      swap3\n      swap2\n      pop\n      pop\n      jump\t// out\n        /* \"#utility.yul\":2012:2130   */\n    tag_83:\n        /* \"#utility.yul\":2099:2123   */\n      tag_122\n        /* \"#utility.yul\":2117:2122   */\n      dup2\n        /* \"#utility.yul\":2099:2123   */\n      tag_80\n      jump\t// in\n    tag_122:\n        /* \"#utility.yul\":2094:2097   */\n      dup3\n        /* \"#utility.yul\":2087:2124   */\n      mstore\n        /* \"#utility.yul\":2012:2130   */\n      pop\n      pop\n      jump\t// out\n        /* \"#utility.yul\":2136:2358   */\n    tag_21:\n        /* \"#utility.yul\":2229:2233   */\n      0x00\n        /* \"#utility.yul\":2267:2269   */\n      0x20\n        /* \"#utility.yul\":2256:2265   */\n      dup3\n        /* \"#utility.yul\":2252:2270   */\n      add\n        /* \"#utility.yul\":2244:2270   */\n      swap1\n      pop\n        /* \"#utility.yul\":2280:2351   */\n      tag_124\n        /* \"#utility.yul\":2348:2349   */\n      0x00\n        /* \"#utility.yul\":2337:2346   */\n      dup4\n        /* \"#utility.yul\":2333:2350   */\n      add\n        /* \"#utility.yul\":2324:2330   */\n      dup5\n        /* \"#utility.yul\":2280:2351   */\n      tag_83\n      jump\t// in\n    tag_124:\n        /* \"#utility.yul\":2136:2358   */\n      swap3\n      swap2\n      pop\n      pop\n      jump\t// out\n        /* \"#utility.yul\":2364:2983   */\n    tag_27:\n        /* \"#utility.yul\":2441:2447   */\n      0x00\n        /* \"#utility.yul\":2449:2455   */\n      dup1\n        /* \"#utility.yul\":2457:2463   */\n      0x00\n        /* \"#utility.yul\":2506:2508   */\n      0x60\n        /* \"#utility.yul\":2494:2503   */\n      dup5\n        /* \"#utility.yul\":2485:2492   */\n      dup7\n        /* \"#utility.yul\":2481:2504   */\n      sub\n        /* \"#utility.yul\":2477:2509   */\n      slt\n        /* \"#utility.yul\":2474:2593   */\n      iszero\n      tag_126\n      jumpi\n        /* \"#utility.yul\":2512:2591   */\n      tag_127\n      tag_74\n      jump\t// in\n    tag_127:\n        /* \"#utility.yul\":2474:2593   */\n    tag_126:\n        /* \"#utility.yul\":2632:2633   */\n      0x00\n        /* \"#utility.yul\":2657:2710   */\n      tag_128\n        /* \"#utility.yul\":2702:2709   */\n      dup7\n        /* \"#utility.yul\":2693:2699   */\n      dup3\n        /* \"#utility.yul\":2682:2691   */\n      dup8\n        /* \"#utility.yul\":2678:2700   */\n      add\n        /* \"#utility.yul\":2657:2710   */\n      tag_79\n      jump\t// in\n    tag_128:\n        /* \"#utility.yul\":2647:2710   */\n      swap4\n      pop\n        /* \"#utility.yul\":2603:2720   */\n      pop\n        /* \"#utility.yul\":2759:2761   */\n      0x20\n        /* \"#utility.yul\":2785:2838   */\n      tag_129\n        /* \"#utility.yul\":2830:2837   */\n      dup7\n        /* \"#utility.yul\":2821:2827   */\n      dup3\n        /* \"#utility.yul\":2810:2819   */\n      dup8\n        /* \"#utility.yul\":2806:2828   */\n      add\n        /* \"#utility.yul\":2785:2838   */\n      tag_79\n      jump\t// in\n    tag_129:\n        /* \"#utility.yul\":2775:2838   */\n      swap3\n      pop\n        /* \"#utility.yul\":2730:2848   */\n      pop\n        /* \"#utility.yul\":2887:2889   */\n      0x40\n        /* \"#utility.yul\":2913:2966   */\n      tag_130\n        /* \"#utility.yul\":2958:2965   */\n      dup7\n        /* \"#utility.yul\":2949:2955   */\n      dup3\n        /* \"#utility.yul\":2938:2947   */\n      dup8\n        /* \"#utility.yul\":2934:2956   */\n      add\n        /* \"#utility.yul\":2913:2966   */\n      tag_82\n      jump\t// in\n    tag_130:\n        /* \"#utility.yul\":2903:2966   */\n      swap2\n      pop\n        /* \"#utility.yul\":2858:2976   */\n      pop\n        /* \"#utility.yul\":2364:2983   */\n      swap3\n      pop\n      swap3\n      pop\n      swap3\n      jump\t// out\n        /* \"#utility.yul\":2989:3463   */\n    tag_34:\n        /* \"#utility.yul\":3057:3063   */\n      0x00\n        /* \"#utility.yul\":3065:3071   */\n      dup1\n        /* \"#utility.yul\":3114:3116   */\n      0x40\n        /* \"#utility.yul\":3102:3111   */\n      dup4\n        /* \"#utility.yul\":3093:3100   */\n      dup6\n        /* \"#utility.yul\":3089:3112   */\n      sub\n        /* \"#utility.yul\":3085:3117   */\n      slt\n        /* \"#utility.yul\":3082:3201   */\n      iszero\n      tag_132\n      jumpi\n        /* \"#utility.yul\":3120:3199   */\n      tag_133\n      tag_74\n      jump\t// in\n    tag_133:\n        /* \"#utility.yul\":3082:3201   */\n    tag_132:\n        /* \"#utility.yul\":3240:3241   */\n      0x00\n        /* \"#utility.yul\":3265:3318   */\n      tag_134\n        /* \"#utility.yul\":3310:3317   */\n      dup6\n        /* \"#utility.yul\":3301:3307   */\n      dup3\n        /* \"#utility.yul\":3290:3299   */\n      dup7\n        /* \"#utility.yul\":3286:3308   */\n      add\n        /* \"#utility.yul\":3265:3318   */\n      tag_79\n      jump\t// in\n    tag_134:\n        /* \"#utility.yul\":3255:3318   */\n      swap3\n      pop\n        /* \"#utility.yul\":3211:3328   */\n      pop\n        /* \"#utility.yul\":3367:3369   */\n      0x20\n        /* \"#utility.yul\":3393:3446   */\n      tag_135\n        /* \"#utility.yul\":3438:3445   */\n      dup6\n        /* \"#utility.yul\":3429:3435   */\n      dup3\n        /* \"#utility.yul\":3418:3427   */\n      dup7\n        /* \"#utility.yul\":3414:3436   */\n      add\n        /* \"#utility.yul\":3393:3446   */\n      tag_79\n      jump\t// in\n    tag_135:\n        /* \"#utility.yul\":3383:3446   */\n      swap2\n      pop\n        /* \"#utility.yul\":3338:3456   */\n      pop\n        /* \"#utility.yul\":2989:3463   */\n      swap3\n      pop\n      swap3\n      swap1\n      pop\n      jump\t// out\n        /* \"#utility.yul\":3469:3638   */\n    tag_84:\n        /* \"#utility.yul\":3553:3564   */\n      0x00\n        /* \"#utility.yul\":3587:3593   */\n      dup3\n        /* \"#utility.yul\":3582:3585   */\n      dup3\n        /* \"#utility.yul\":3575:3594   */\n      mstore\n        /* \"#utility.yul\":3627:3631   */\n      0x20\n        /* \"#utility.yul\":3622:3625   */\n      dup3\n        /* \"#utility.yul\":3618:3632   */\n      add\n        /* \"#utility.yul\":3603:3632   */\n      swap1\n      pop\n        /* \"#utility.yul\":3469:3638   */\n      swap3\n      swap2\n      pop\n      pop\n      jump\t// out\n        /* \"#utility.yul\":3644:3817   */\n    tag_85:\n        /* \"#utility.yul\":3784:3809   */\n      0x617070726f766520746f207a65726f2061646472657373000000000000000000\n        /* \"#utility.yul\":3780:3781   */\n      0x00\n        /* \"#utility.yul\":3772:3778   */\n      dup3\n        /* \"#utility.yul\":3768:3782   */\n      add\n        /* \"#utility.yul\":3761:3810   */\n      mstore\n        /* \"#utility.yul\":3644:3817   */\n      pop\n      jump\t// out\n        /* \"#utility.yul\":3823:4189   */\n    tag_86:\n        /* \"#utility.yul\":3965:3968   */\n      0x00\n        /* \"#utility.yul\":3986:4053   */\n      tag_139\n        /* \"#utility.yul\":4050:4052   */\n      0x17\n        /* \"#utility.yul\":4045:4048   */\n      dup4\n        /* \"#utility.yul\":3986:4053   */\n      tag_84\n      jump\t// in\n    tag_139:\n        /* \"#utility.yul\":3979:4053   */\n      swap2\n      pop\n        /* \"#utility.yul\":4062:4155   */\n      tag_140\n        /* \"#utility.yul\":4151:4154   */\n      dup3\n        /* \"#utility.yul\":4062:4155   */\n      tag_85\n      jump\t// in\n    tag_140:\n        /* \"#utility.yul\":4180:4182   */\n      0x20\n        /* \"#utility.yul\":4175:4178   */\n      dup3\n        /* \"#utility.yul\":4171:4183   */\n      add\n        /* \"#utility.yul\":4164:4183   */\n      swap1\n      pop\n        /* \"#utility.yul\":3823:4189   */\n      swap2\n      swap1\n      pop\n      jump\t// out\n        /* \"#utility.yul\":4195:4614   */\n    tag_47:\n        /* \"#utility.yul\":4361:4365   */\n      0x00\n        /* \"#utility.yul\":4399:4401   */\n      0x20\n        /* \"#utility.yul\":4388:4397   */\n      dup3\n        /* \"#utility.yul\":4384:4402   */\n      add\n        /* \"#utility.yul\":4376:4402   */\n      swap1\n      pop\n        /* \"#utility.yul\":4448:4457   */\n      dup2\n        /* \"#utility.yul\":4442:4446   */\n      dup2\n        /* \"#utility.yul\":4438:4458   */\n      sub\n        /* \"#utility.yul\":4434:4435   */\n      0x00\n        /* \"#utility.yul\":4423:4432   */\n      dup4\n        /* \"#utility.yul\":4419:4436   */\n      add\n        /* \"#utility.yul\":4412:4459   */\n      mstore\n        /* \"#utility.yul\":4476:4607   */\n      tag_142\n        /* \"#utility.yul\":4602:4606   */\n      dup2\n        /* \"#utility.yul\":4476:4607   */\n      tag_86\n      jump\t// in\n    tag_142:\n        /* \"#utility.yul\":4468:4607   */\n      swap1\n      pop\n        /* \"#utility.yul\":4195:4614   */\n      swap2\n      swap1\n      pop\n      jump\t// out\n        /* \"#utility.yul\":4620:4800   */\n    tag_87:\n        /* \"#utility.yul\":4668:4745   */\n      0x4e487b7100000000000000000000000000000000000000000000000000000000\n        /* \"#utility.yul\":4665:4666   */\n      0x00\n        /* \"#utility.yul\":4658:4746   */\n      mstore\n        /* \"#utility.yul\":4765:4769   */\n      0x11\n        /* \"#utility.yul\":4762:4763   */\n      0x04\n        /* \"#utility.yul\":4755:4770   */\n      mstore\n        /* \"#utility.yul\":4789:4793   */\n      0x24\n        /* \"#utility.yul\":4786:4787   */\n      0x00\n        /* \"#utility.yul\":4779:4794   */\n      revert\n        /* \"#utility.yul\":4806:4997   */\n    tag_49:\n        /* \"#utility.yul\":4846:4849   */\n      0x00\n        /* \"#utility.yul\":4865:4885   */\n      tag_145\n        /* \"#utility.yul\":4883:4884   */\n      dup3\n        /* \"#utility.yul\":4865:4885   */\n      tag_80\n      jump\t// in\n    tag_145:\n        /* \"#utility.yul\":4860:4885   */\n      swap2\n      pop\n        /* \"#utility.yul\":4899:4919   */\n      tag_146\n        /* \"#utility.yul\":4917:4918   */\n      dup4\n        /* \"#utility.yul\":4899:4919   */\n      tag_80\n      jump\t// in\n    tag_146:\n        /* \"#utility.yul\":4894:4919   */\n      swap3\n      pop\n        /* \"#utility.yul\":4942:4943   */\n      dup3\n        /* \"#utility.yul\":4939:4940   */\n      dup3\n        /* \"#utility.yul\":4935:4944   */\n      add\n        /* \"#utility.yul\":4928:4944   */\n      swap1\n      pop\n        /* \"#utility.yul\":4963:4966   */\n      dup1\n        /* \"#utility.yul\":4960:4961   */\n      dup3\n        /* \"#utility.yul\":4957:4967   */\n      gt\n        /* \"#utility.yul\":4954:4990   */\n      iszero\n      tag_147\n      jumpi\n        /* \"#utility.yul\":4970:4988   */\n      tag_148\n      tag_87\n      jump\t// in\n    tag_148:\n        /* \"#utility.yul\":4954:4990   */\n    tag_147:\n        /* \"#utility.yul\":4806:4997   */\n      swap3\n      swap2\n      pop\n      pop\n      jump\t// out\n        /* \"#utility.yul\":5003:5174   */\n    tag_88:\n        /* \"#utility.yul\":5143:5166   */\n      0x6d696e7420746865207a65726f20616464726573730000000000000000000000\n        /* \"#utility.yul\":5139:5140   */\n      0x00\n        /* \"#utility.yul\":5131:5137   */\n      dup3\n        /* \"#utility.yul\":5127:5141   */\n      add\n        /* \"#utility.yul\":5120:5167   */\n      mstore\n        /* \"#utility.yul\":5003:5174   */\n      pop\n      jump\t// out\n        /* \"#utility.yul\":5180:5546   */\n    tag_89:\n        /* \"#utility.yul\":5322:5325   */\n      0x00\n        /* \"#utility.yul\":5343:5410   */\n      tag_151\n        /* \"#utility.yul\":5407:5409   */\n      0x15\n        /* \"#utility.yul\":5402:5405   */\n      dup4\n        /* \"#utility.yul\":5343:5410   */\n      tag_84\n      jump\t// in\n    tag_151:\n        /* \"#utility.yul\":5336:5410   */\n      swap2\n      pop\n        /* \"#utility.yul\":5419:5512   */\n      tag_152\n        /* \"#utility.yul\":5508:5511   */\n      dup3\n        /* \"#utility.yul\":5419:5512   */\n      tag_88\n      jump\t// in\n    tag_152:\n        /* \"#utility.yul\":5537:5539   */\n      0x20\n        /* \"#utility.yul\":5532:5535   */\n      dup3\n        /* \"#utility.yul\":5528:5540   */\n      add\n        /* \"#utility.yul\":5521:5540   */\n      swap1\n      pop\n        /* \"#utility.yul\":5180:5546   */\n      swap2\n      swap1\n      pop\n      jump\t// out\n        /* \"#utility.yul\":5552:5971   */\n    tag_54:\n        /* \"#utility.yul\":5718:5722   */\n      0x00\n        /* \"#utility.yul\":5756:5758   */\n      0x20\n        /* \"#utility.yul\":5745:5754   */\n      dup3\n        /* \"#utility.yul\":5741:5759   */\n      add\n        /* \"#utility.yul\":5733:5759   */\n      swap1\n      pop\n        /* \"#utility.yul\":5805:5814   */\n      dup2\n        /* \"#utility.yul\":5799:5803   */\n      dup2\n        /* \"#utility.yul\":5795:5815   */\n      sub\n        /* \"#utility.yul\":5791:5792   */\n      0x00\n        /* \"#utility.yul\":5780:5789   */\n      dup4\n        /* \"#utility.yul\":5776:5793   */\n      add\n        /* \"#utility.yul\":5769:5816   */\n      mstore\n        /* \"#utility.yul\":5833:5964   */\n      tag_154\n        /* \"#utility.yul\":5959:5963   */\n      dup2\n        /* \"#utility.yul\":5833:5964   */\n      tag_89\n      jump\t// in\n    tag_154:\n        /* \"#utility.yul\":5825:5964   */\n      swap1\n      pop\n        /* \"#utility.yul\":5552:5971   */\n      swap2\n      swap1\n      pop\n      jump\t// out\n        /* \"#utility.yul\":5977:6141   */\n    tag_90:\n        /* \"#utility.yul\":6117:6133   */\n      0x6e6f7420617574686f72697a6564000000000000000000000000000000000000\n        /* \"#utility.yul\":6113:6114   */\n      0x00\n        /* \"#utility.yul\":6105:6111   */\n      dup3\n        /* \"#utility.yul\":6101:6115   */\n      add\n        /* \"#utility.yul\":6094:6134   */\n      mstore\n        /* \"#utility.yul\":5977:6141   */\n      pop\n      jump\t// out\n        /* \"#utility.yul\":6147:6513   */\n    tag_91:\n        /* \"#utility.yul\":6289:6292   */\n      0x00\n        /* \"#utility.yul\":6310:6377   */\n      tag_157\n        /* \"#utility.yul\":6374:6376   */\n      0x0e\n        /* \"#utility.yul\":6369:6372   */\n      dup4\n        /* \"#utility.yul\":6310:6377   */\n      tag_84\n      jump\t// in\n    tag_157:\n        /* \"#utility.yul\":6303:6377   */\n      swap2\n      pop\n        /* \"#utility.yul\":6386:6479   */\n      tag_158\n        /* \"#utility.yul\":6475:6478   */\n      dup3\n        /* \"#utility.yul\":6386:6479   */\n      tag_90\n      jump\t// in\n    tag_158:\n        /* \"#utility.yul\":6504:6506   */\n      0x20\n        /* \"#utility.yul\":6499:6502   */\n      dup3\n        /* \"#utility.yul\":6495:6507   */\n      add\n        /* \"#utility.yul\":6488:6507   */\n      swap1\n      pop\n        /* \"#utility.yul\":6147:6513   */\n      swap2\n      swap1\n      pop\n      jump\t// out\n        /* \"#utility.yul\":6519:6938   */\n    tag_59:\n        /* \"#utility.yul\":6685:6689   */\n      0x00\n        /* \"#utility.yul\":6723:6725   */\n      0x20\n        /* \"#utility.yul\":6712:6721   */\n      dup3\n        /* \"#utility.yul\":6708:6726   */\n      add\n        /* \"#utility.yul\":6700:6726   */\n      swap1\n      pop\n        /* \"#utility.yul\":6772:6781   */\n      dup2\n        /* \"#utility.yul\":6766:6770   */\n      dup2\n        /* \"#utility.yul\":6762:6782   */\n      sub\n        /* \"#utility.yul\":6758:6759   */\n      0x00\n        /* \"#utility.yul\":6747:6756   */\n      dup4\n        /* \"#utility.yul\":6743:6760   */\n      add\n        /* \"#utility.yul\":6736:6783   */\n      mstore\n        /* \"#utility.yul\":6800:6931   */\n      tag_160\n        /* \"#utility.yul\":6926:6930   */\n      dup2\n        /* \"#utility.yul\":6800:6931   */\n      tag_91\n      jump\t// in\n    tag_160:\n        /* \"#utility.yul\":6792:6931   */\n      swap1\n      pop\n        /* \"#utility.yul\":6519:6938   */\n      swap2\n      swap1\n      pop\n      jump\t// out\n        /* \"#utility.yul\":6944:7168   */\n    tag_92:\n        /* \"#utility.yul\":7084:7118   */\n      0x7472616e7366657220746f207a65726f2061646472657373206e6f7420706f73\n        /* \"#utility.yul\":7080:7081   */\n      0x00\n        /* \"#utility.yul\":7072:7078   */\n      dup3\n        /* \"#utility.yul\":7068:7082   */\n      add\n        /* \"#utility.yul\":7061:7119   */\n      mstore\n        /* \"#utility.yul\":7153:7160   */\n      0x7369626c65000000000000000000000000000000000000000000000000000000\n        /* \"#utility.yul\":7148:7150   */\n      0x20\n        /* \"#utility.yul\":7140:7146   */\n      dup3\n        /* \"#utility.yul\":7136:7151   */\n      add\n        /* \"#utility.yul\":7129:7161   */\n      mstore\n        /* \"#utility.yul\":6944:7168   */\n      pop\n      jump\t// out\n        /* \"#utility.yul\":7174:7540   */\n    tag_93:\n        /* \"#utility.yul\":7316:7319   */\n      0x00\n        /* \"#utility.yul\":7337:7404   */\n      tag_163\n        /* \"#utility.yul\":7401:7403   */\n      0x25\n        /* \"#utility.yul\":7396:7399   */\n      dup4\n        /* \"#utility.yul\":7337:7404   */\n      tag_84\n      jump\t// in\n    tag_163:\n        /* \"#utility.yul\":7330:7404   */\n      swap2\n      pop\n        /* \"#utility.yul\":7413:7506   */\n      tag_164\n        /* \"#utility.yul\":7502:7505   */\n      dup3\n        /* \"#utility.yul\":7413:7506   */\n      tag_92\n      jump\t// in\n    tag_164:\n        /* \"#utility.yul\":7531:7533   */\n      0x40\n        /* \"#utility.yul\":7526:7529   */\n      dup3\n        /* \"#utility.yul\":7522:7534   */\n      add\n        /* \"#utility.yul\":7515:7534   */\n      swap1\n      pop\n        /* \"#utility.yul\":7174:7540   */\n      swap2\n      swap1\n      pop\n      jump\t// out\n        /* \"#utility.yul\":7546:7965   */\n    tag_62:\n        /* \"#utility.yul\":7712:7716   */\n      0x00\n        /* \"#utility.yul\":7750:7752   */\n      0x20\n        /* \"#utility.yul\":7739:7748   */\n      dup3\n        /* \"#utility.yul\":7735:7753   */\n      add\n        /* \"#utility.yul\":7727:7753   */\n      swap1\n      pop\n        /* \"#utility.yul\":7799:7808   */\n      dup2\n        /* \"#utility.yul\":7793:7797   */\n      dup2\n        /* \"#utility.yul\":7789:7809   */\n      sub\n        /* \"#utility.yul\":7785:7786   */\n      0x00\n        /* \"#utility.yul\":7774:7783   */\n      dup4\n        /* \"#utility.yul\":7770:7787   */\n      add\n        /* \"#utility.yul\":7763:7810   */\n      mstore\n        /* \"#utility.yul\":7827:7958   */\n      tag_166\n        /* \"#utility.yul\":7953:7957   */\n      dup2\n        /* \"#utility.yul\":7827:7958   */\n      tag_93\n      jump\t// in\n    tag_166:\n        /* \"#utility.yul\":7819:7958   */\n      swap1\n      pop\n        /* \"#utility.yul\":7546:7965   */\n      swap2\n      swap1\n      pop\n      jump\t// out\n        /* \"#utility.yul\":7971:8165   */\n    tag_64:\n        /* \"#utility.yul\":8011:8015   */\n      0x00\n        /* \"#utility.yul\":8031:8051   */\n      tag_168\n        /* \"#utility.yul\":8049:8050   */\n      dup3\n        /* \"#utility.yul\":8031:8051   */\n      tag_80\n      jump\t// in\n    tag_168:\n        /* \"#utility.yul\":8026:8051   */\n      swap2\n      pop\n        /* \"#utility.yul\":8065:8085   */\n      tag_169\n        /* \"#utility.yul\":8083:8084   */\n      dup4\n        /* \"#utility.yul\":8065:8085   */\n      tag_80\n      jump\t// in\n    tag_169:\n        /* \"#utility.yul\":8060:8085   */\n      swap3\n      pop\n        /* \"#utility.yul\":8109:8110   */\n      dup3\n        /* \"#utility.yul\":8106:8107   */\n      dup3\n        /* \"#utility.yul\":8102:8111   */\n      sub\n        /* \"#utility.yul\":8094:8111   */\n      swap1\n      pop\n        /* \"#utility.yul\":8133:8134   */\n      dup2\n        /* \"#utility.yul\":8127:8131   */\n      dup2\n        /* \"#utility.yul\":8124:8135   */\n      gt\n        /* \"#utility.yul\":8121:8158   */\n      iszero\n      tag_170\n      jumpi\n        /* \"#utility.yul\":8138:8156   */\n      tag_171\n      tag_87\n      jump\t// in\n    tag_171:\n        /* \"#utility.yul\":8121:8158   */\n    tag_170:\n        /* \"#utility.yul\":7971:8165   */\n      swap3\n      swap2\n      pop\n      pop\n      jump\t// out\n\n    auxdata: 0xa26469706673582212204fb41d778f3bb6969c13a8fc76adc715d0df6ad36d80988e1ce16150d80d19f864736f6c63430008130033\n}\n",
				"bytecode": {
					"linkReferences": {},
					"object": "60806040523480156200001157600080fd5b506200002d33683635c9adc5dea000006200004360201b60201c565b683635c9adc5dea0000060028190555062000207565b600073ffffffffffffffffffffffffffffffffffffffff168273ffffffffffffffffffffffffffffffffffffffff1603620000b5576040517f08c379a0000000000000000000000000000000000000000000000000000000008152600401620000ac9062000171565b60405180910390fd5b806000808473ffffffffffffffffffffffffffffffffffffffff1673ffffffffffffffffffffffffffffffffffffffff1681526020019081526020016000206000828254620001059190620001cc565b925050819055505050565b600082825260208201905092915050565b7f6d696e7420746865207a65726f20616464726573730000000000000000000000600082015250565b60006200015960158362000110565b9150620001668262000121565b602082019050919050565b600060208201905081810360008301526200018c816200014a565b9050919050565b6000819050919050565b7f4e487b7100000000000000000000000000000000000000000000000000000000600052601160045260246000fd5b6000620001d98262000193565b9150620001e68362000193565b92508282019050808211156200020157620002006200019d565b5b92915050565b610c0b80620002176000396000f3fe608060405234801561001057600080fd5b50600436106100885760003560e01c806372dd529b1161005b57806372dd529b14610111578063a77a82301461012f578063a9059cbb1461015f578063e3d670d71461017b57610088565b8063095ea7b31461008d5780633d64125b146100a957806340c10f19146100d957806363b0545f146100f5575b600080fd5b6100a760048036038101906100a2919061082d565b6101ab565b005b6100c360048036038101906100be919061086d565b6102b1565b6040516100d091906108a9565b60405180910390f35b6100f360048036038101906100ee919061082d565b6102f9565b005b61010f600480360381019061010a91906108c4565b6103c1565b005b610119610630565b60405161012691906108a9565b60405180910390f35b61014960048036038101906101449190610917565b61063a565b60405161015691906108a9565b60405180910390f35b6101796004803603810190610174919061082d565b61065f565b005b6101956004803603810190610190919061086d565b61077c565b6040516101a291906108a9565b60405180910390f35b600073ffffffffffffffffffffffffffffffffffffffff168273ffffffffffffffffffffffffffffffffffffffff160361021a576040517f08c379a0000000000000000000000000000000000000000000000000000000008152600401610211906109b4565b60405180910390fd5b80600160003373ffffffffffffffffffffffffffffffffffffffff1673ffffffffffffffffffffffffffffffffffffffff16815260200190815260200160002060008473ffffffffffffffffffffffffffffffffffffffff1673ffffffffffffffffffffffffffffffffffffffff16815260200190815260200160002060008282546102a69190610a03565b925050819055505050565b60008060008373ffffffffffffffffffffffffffffffffffffffff1673ffffffffffffffffffffffffffffffffffffffff168152602001908152602001600020549050919050565b600073ffffffffffffffffffffffffffffffffffffffff168273ffffffffffffffffffffffffffffffffffffffff1603610368576040517f08c379a000000000000000000000000000000000000000000000000000000000815260040161035f90610a83565b60405180910390fd5b806000808473ffffffffffffffffffffffffffffffffffffffff1673ffffffffffffffffffffffffffffffffffffffff16815260200190815260200160002060008282546103b69190610a03565b925050819055505050565b600160008473ffffffffffffffffffffffffffffffffffffffff1673ffffffffffffffffffffffffffffffffffffffff16815260200190815260200160002060003373ffffffffffffffffffffffffffffffffffffffff1673ffffffffffffffffffffffffffffffffffffffff16815260200190815260200160002054811061047f576040517f08c379a000000000000000000000000000000000000000000000000000000000815260040161047690610aef565b60405180910390fd5b600073ffffffffffffffffffffffffffffffffffffffff168273ffffffffffffffffffffffffffffffffffffffff16036104ee576040517f08c379a00000000000000000000000000000000000000000000000000000000081526004016104e590610b81565b60405180910390fd5b806000808573ffffffffffffffffffffffffffffffffffffffff1673ffffffffffffffffffffffffffffffffffffffff168152602001908152602001600020600082825461053c9190610ba1565b92505081905550806000808473ffffffffffffffffffffffffffffffffffffffff1673ffffffffffffffffffffffffffffffffffffffff16815260200190815260200160002060008282546105919190610a03565b9250508190555080600160008573ffffffffffffffffffffffffffffffffffffffff1673ffffffffffffffffffffffffffffffffffffffff16815260200190815260200160002060003373ffffffffffffffffffffffffffffffffffffffff1673ffffffffffffffffffffffffffffffffffffffff16815260200190815260200160002060008282546106249190610ba1565b92505081905550505050565b6000600254905090565b6001602052816000526040600020602052806000526040600020600091509150505481565b600073ffffffffffffffffffffffffffffffffffffffff168273ffffffffffffffffffffffffffffffffffffffff16036106ce576040517f08c379a00000000000000000000000000000000000000000000000000000000081526004016106c590610b81565b60405180910390fd5b806000803373ffffffffffffffffffffffffffffffffffffffff1673ffffffffffffffffffffffffffffffffffffffff168152602001908152602001600020600082825461071c9190610ba1565b92505081905550806000808473ffffffffffffffffffffffffffffffffffffffff1673ffffffffffffffffffffffffffffffffffffffff16815260200190815260200160002060008282546107719190610a03565b925050819055505050565b60006020528060005260406000206000915090505481565b600080fd5b600073ffffffffffffffffffffffffffffffffffffffff82169050919050565b60006107c482610799565b9050919050565b6107d4816107b9565b81146107df57600080fd5b50565b6000813590506107f1816107cb565b92915050565b6000819050919050565b61080a816107f7565b811461081557600080fd5b50565b60008135905061082781610801565b92915050565b6000806040838503121561084457610843610794565b5b6000610852858286016107e2565b925050602061086385828601610818565b9150509250929050565b60006020828403121561088357610882610794565b5b6000610891848285016107e2565b91505092915050565b6108a3816107f7565b82525050565b60006020820190506108be600083018461089a565b92915050565b6000806000606084860312156108dd576108dc610794565b5b60006108eb868287016107e2565b93505060206108fc868287016107e2565b925050604061090d86828701610818565b9150509250925092565b6000806040838503121561092e5761092d610794565b5b600061093c858286016107e2565b925050602061094d858286016107e2565b9150509250929050565b600082825260208201905092915050565b7f617070726f766520746f207a65726f2061646472657373000000000000000000600082015250565b600061099e601783610957565b91506109a982610968565b602082019050919050565b600060208201905081810360008301526109cd81610991565b9050919050565b7f4e487b7100000000000000000000000000000000000000000000000000000000600052601160045260246000fd5b6000610a0e826107f7565b9150610a19836107f7565b9250828201905080821115610a3157610a306109d4565b5b92915050565b7f6d696e7420746865207a65726f20616464726573730000000000000000000000600082015250565b6000610a6d601583610957565b9150610a7882610a37565b602082019050919050565b60006020820190508181036000830152610a9c81610a60565b9050919050565b7f6e6f7420617574686f72697a6564000000000000000000000000000000000000600082015250565b6000610ad9600e83610957565b9150610ae482610aa3565b602082019050919050565b60006020820190508181036000830152610b0881610acc565b9050919050565b7f7472616e7366657220746f207a65726f2061646472657373206e6f7420706f7360008201527f7369626c65000000000000000000000000000000000000000000000000000000602082015250565b6000610b6b602583610957565b9150610b7682610b0f565b604082019050919050565b60006020820190508181036000830152610b9a81610b5e565b9050919050565b6000610bac826107f7565b9150610bb7836107f7565b9250828203905081811115610bcf57610bce6109d4565b5b9291505056fea26469706673582212204fb41d778f3bb6969c13a8fc76adc715d0df6ad36d80988e1ce16150d80d19f864736f6c63430008130033",
					"opcodes": "PUSH1 0x80 PUSH1 0x40 MSTORE CALLVALUE DUP1 ISZERO PUSH3 0x11 JUMPI PUSH1 0x0 DUP1 REVERT JUMPDEST POP PUSH3 0x2D CALLER PUSH9 0x3635C9ADC5DEA00000 PUSH3 0x43 PUSH1 0x20 SHL PUSH1 0x20 SHR JUMP JUMPDEST PUSH9 0x3635C9ADC5DEA00000 PUSH1 0x2 DUP2 SWAP1 SSTORE POP PUSH3 0x207 JUMP JUMPDEST PUSH1 0x0 PUSH20 0xFFFFFFFFFFFFFFFFFFFFFFFFFFFFFFFFFFFFFFFF AND DUP3 PUSH20 0xFFFFFFFFFFFFFFFFFFFFFFFFFFFFFFFFFFFFFFFF AND SUB PUSH3 0xB5 JUMPI PUSH1 0x40 MLOAD PUSH32 0x8C379A000000000000000000000000000000000000000000000000000000000 DUP2 MSTORE PUSH1 0x4 ADD PUSH3 0xAC SWAP1 PUSH3 0x171 JUMP JUMPDEST PUSH1 0x40 MLOAD DUP1 SWAP2 SUB SWAP1 REVERT JUMPDEST DUP1 PUSH1 0x0 DUP1 DUP5 PUSH20 0xFFFFFFFFFFFFFFFFFFFFFFFFFFFFFFFFFFFFFFFF AND PUSH20 0xFFFFFFFFFFFFFFFFFFFFFFFFFFFFFFFFFFFFFFFF AND DUP2 MSTORE PUSH1 0x20 ADD SWAP1 DUP2 MSTORE PUSH1 0x20 ADD PUSH1 0x0 KECCAK256 PUSH1 0x0 DUP3 DUP3 SLOAD PUSH3 0x105 SWAP2 SWAP1 PUSH3 0x1CC JUMP JUMPDEST SWAP3 POP POP DUP2 SWAP1 SSTORE POP POP POP JUMP JUMPDEST PUSH1 0x0 DUP3 DUP3 MSTORE PUSH1 0x20 DUP3 ADD SWAP1 POP SWAP3 SWAP2 POP POP JUMP JUMPDEST PUSH32 0x6D696E7420746865207A65726F20616464726573730000000000000000000000 PUSH1 0x0 DUP3 ADD MSTORE POP JUMP JUMPDEST PUSH1 0x0 PUSH3 0x159 PUSH1 0x15 DUP4 PUSH3 0x110 JUMP JUMPDEST SWAP2 POP PUSH3 0x166 DUP3 PUSH3 0x121 JUMP JUMPDEST PUSH1 0x20 DUP3 ADD SWAP1 POP SWAP2 SWAP1 POP JUMP JUMPDEST PUSH1 0x0 PUSH1 0x20 DUP3 ADD SWAP1 POP DUP2 DUP2 SUB PUSH1 0x0 DUP4 ADD MSTORE PUSH3 0x18C DUP2 PUSH3 0x14A JUMP JUMPDEST SWAP1 POP SWAP2 SWAP1 POP JUMP JUMPDEST PUSH1 0x0 DUP2 SWAP1 POP SWAP2 SWAP1 POP JUMP JUMPDEST PUSH32 0x4E487B7100000000000000000000000000000000000000000000000000000000 PUSH1 0x0 MSTORE PUSH1 0x11 PUSH1 0x4 MSTORE PUSH1 0x24 PUSH1 0x0 REVERT JUMPDEST PUSH1 0x0 PUSH3 0x1D9 DUP3 PUSH3 0x193 JUMP JUMPDEST SWAP2 POP PUSH3 0x1E6 DUP4 PUSH3 0x193 JUMP JUMPDEST SWAP3 POP DUP3 DUP3 ADD SWAP1 POP DUP1 DUP3 GT ISZERO PUSH3 0x201 JUMPI PUSH3 0x200 PUSH3 0x19D JUMP JUMPDEST JUMPDEST SWAP3 SWAP2 POP POP JUMP JUMPDEST PUSH2 0xC0B DUP1 PUSH3 0x217 PUSH1 0x0 CODECOPY PUSH1 0x0 RETURN INVALID PUSH1 0x80 PUSH1 0x40 MSTORE CALLVALUE DUP1 ISZERO PUSH2 0x10 JUMPI PUSH1 0x0 DUP1 REVERT JUMPDEST POP PUSH1 0x4 CALLDATASIZE LT PUSH2 0x88 JUMPI PUSH1 0x0 CALLDATALOAD PUSH1 0xE0 SHR DUP1 PUSH4 0x72DD529B GT PUSH2 0x5B JUMPI DUP1 PUSH4 0x72DD529B EQ PUSH2 0x111 JUMPI DUP1 PUSH4 0xA77A8230 EQ PUSH2 0x12F JUMPI DUP1 PUSH4 0xA9059CBB EQ PUSH2 0x15F JUMPI DUP1 PUSH4 0xE3D670D7 EQ PUSH2 0x17B JUMPI PUSH2 0x88 JUMP JUMPDEST DUP1 PUSH4 0x95EA7B3 EQ PUSH2 0x8D JUMPI DUP1 PUSH4 0x3D64125B EQ PUSH2 0xA9 JUMPI DUP1 PUSH4 0x40C10F19 EQ PUSH2 0xD9 JUMPI DUP1 PUSH4 0x63B0545F EQ PUSH2 0xF5 JUMPI JUMPDEST PUSH1 0x0 DUP1 REVERT JUMPDEST PUSH2 0xA7 PUSH1 0x4 DUP1 CALLDATASIZE SUB DUP2 ADD SWAP1 PUSH2 0xA2 SWAP2 SWAP1 PUSH2 0x82D JUMP JUMPDEST PUSH2 0x1AB JUMP JUMPDEST STOP JUMPDEST PUSH2 0xC3 PUSH1 0x4 DUP1 CALLDATASIZE SUB DUP2 ADD SWAP1 PUSH2 0xBE SWAP2 SWAP1 PUSH2 0x86D JUMP JUMPDEST PUSH2 0x2B1 JUMP JUMPDEST PUSH1 0x40 MLOAD PUSH2 0xD0 SWAP2 SWAP1 PUSH2 0x8A9 JUMP JUMPDEST PUSH1 0x40 MLOAD DUP1 SWAP2 SUB SWAP1 RETURN JUMPDEST PUSH2 0xF3 PUSH1 0x4 DUP1 CALLDATASIZE SUB DUP2 ADD SWAP1 PUSH2 0xEE SWAP2 SWAP1 PUSH2 0x82D JUMP JUMPDEST PUSH2 0x2F9 JUMP JUMPDEST STOP JUMPDEST PUSH2 0x10F PUSH1 0x4 DUP1 CALLDATASIZE SUB DUP2 ADD SWAP1 PUSH2 0x10A SWAP2 SWAP1 PUSH2 0x8C4 JUMP JUMPDEST PUSH2 0x3C1 JUMP JUMPDEST STOP JUMPDEST PUSH2 0x119 PUSH2 0x630 JUMP JUMPDEST PUSH1 0x40 MLOAD PUSH2 0x126 SWAP2 SWAP1 PUSH2 0x8A9 JUMP JUMPDEST PUSH1 0x40 MLOAD DUP1 SWAP2 SUB SWAP1 RETURN JUMPDEST PUSH2 0x149 PUSH1 0x4 DUP1 CALLDATASIZE SUB DUP2 ADD SWAP1 PUSH2 0x144 SWAP2 SWAP1 PUSH2 0x917 JUMP JUMPDEST PUSH2 0x63A JUMP JUMPDEST PUSH1 0x40 MLOAD PUSH2 0x156 SWAP2 SWAP1 PUSH2 0x8A9 JUMP JUMPDEST PUSH1 0x40 MLOAD DUP1 SWAP2 SUB SWAP1 RETURN JUMPDEST PUSH2 0x179 PUSH1 0x4 DUP1 CALLDATASIZE SUB DUP2 ADD SWAP1 PUSH2 0x174 SWAP2 SWAP1 PUSH2 0x82D JUMP JUMPDEST PUSH2 0x65F JUMP JUMPDEST STOP JUMPDEST PUSH2 0x195 PUSH1 0x4 DUP1 CALLDATASIZE SUB DUP2 ADD SWAP1 PUSH2 0x190 SWAP2 SWAP1 PUSH2 0x86D JUMP JUMPDEST PUSH2 0x77C JUMP JUMPDEST PUSH1 0x40 MLOAD PUSH2 0x1A2 SWAP2 SWAP1 PUSH2 0x8A9 JUMP JUMPDEST PUSH1 0x40 MLOAD DUP1 SWAP2 SUB SWAP1 RETURN JUMPDEST PUSH1 0x0 PUSH20 0xFFFFFFFFFFFFFFFFFFFFFFFFFFFFFFFFFFFFFFFF AND DUP3 PUSH20 0xFFFFFFFFFFFFFFFFFFFFFFFFFFFFFFFFFFFFFFFF AND SUB PUSH2 0x21A JUMPI PUSH1 0x40 MLOAD PUSH32 0x8C379A000000000000000000000000000000000000000000000000000000000 DUP2 MSTORE PUSH1 0x4 ADD PUSH2 0x211 SWAP1 PUSH2 0x9B4 JUMP JUMPDEST PUSH1 0x40 MLOAD DUP1 SWAP2 SUB SWAP1 REVERT JUMPDEST DUP1 PUSH1 0x1 PUSH1 0x0 CALLER PUSH20 0xFFFFFFFFFFFFFFFFFFFFFFFFFFFFFFFFFFFFFFFF AND PUSH20 0xFFFFFFFFFFFFFFFFFFFFFFFFFFFFFFFFFFFFFFFF AND DUP2 MSTORE PUSH1 0x20 ADD SWAP1 DUP2 MSTORE PUSH1 0x20 ADD PUSH1 0x0 KECCAK256 PUSH1 0x0 DUP5 PUSH20 0xFFFFFFFFFFFFFFFFFFFFFFFFFFFFFFFFFFFFFFFF AND PUSH20 0xFFFFFFFFFFFFFFFFFFFFFFFFFFFFFFFFFFFFFFFF AND DUP2 MSTORE PUSH1 0x20 ADD SWAP1 DUP2 MSTORE PUSH1 0x20 ADD PUSH1 0x0 KECCAK256 PUSH1 0x0 DUP3 DUP3 SLOAD PUSH2 0x2A6 SWAP2 SWAP1 PUSH2 0xA03 JUMP JUMPDEST SWAP3 POP POP DUP2 SWAP1 SSTORE POP POP POP JUMP JUMPDEST PUSH1 0x0 DUP1 PUSH1 0x0 DUP4 PUSH20 0xFFFFFFFFFFFFFFFFFFFFFFFFFFFFFFFFFFFFFFFF AND PUSH20 0xFFFFFFFFFFFFFFFFFFFFFFFFFFFFFFFFFFFFFFFF AND DUP2 MSTORE PUSH1 0x20 ADD SWAP1 DUP2 MSTORE PUSH1 0x20 ADD PUSH1 0x0 KECCAK256 SLOAD SWAP1 POP SWAP2 SWAP1 POP JUMP JUMPDEST PUSH1 0x0 PUSH20 0xFFFFFFFFFFFFFFFFFFFFFFFFFFFFFFFFFFFFFFFF AND DUP3 PUSH20 0xFFFFFFFFFFFFFFFFFFFFFFFFFFFFFFFFFFFFFFFF AND SUB PUSH2 0x368 JUMPI PUSH1 0x40 MLOAD PUSH32 0x8C379A000000000000000000000000000000000000000000000000000000000 DUP2 MSTORE PUSH1 0x4 ADD PUSH2 0x35F SWAP1 PUSH2 0xA83 JUMP JUMPDEST PUSH1 0x40 MLOAD DUP1 SWAP2 SUB SWAP1 REVERT JUMPDEST DUP1 PUSH1 0x0 DUP1 DUP5 PUSH20 0xFFFFFFFFFFFFFFFFFFFFFFFFFFFFFFFFFFFFFFFF AND PUSH20 0xFFFFFFFFFFFFFFFFFFFFFFFFFFFFFFFFFFFFFFFF AND DUP2 MSTORE PUSH1 0x20 ADD SWAP1 DUP2 MSTORE PUSH1 0x20 ADD PUSH1 0x0 KECCAK256 PUSH1 0x0 DUP3 DUP3 SLOAD PUSH2 0x3B6 SWAP2 SWAP1 PUSH2 0xA03 JUMP JUMPDEST SWAP3 POP POP DUP2 SWAP1 SSTORE POP POP POP JUMP JUMPDEST PUSH1 0x1 PUSH1 0x0 DUP5 PUSH20 0xFFFFFFFFFFFFFFFFFFFFFFFFFFFFFFFFFFFFFFFF AND PUSH20 0xFFFFFFFFFFFFFFFFFFFFFFFFFFFFFFFFFFFFFFFF AND DUP2 MSTORE PUSH1 0x20 ADD SWAP1 DUP2 MSTORE PUSH1 0x20 ADD PUSH1 0x0 KECCAK256 PUSH1 0x0 CALLER PUSH20 0xFFFFFFFFFFFFFFFFFFFFFFFFFFFFFFFFFFFFFFFF AND PUSH20 0xFFFFFFFFFFFFFFFFFFFFFFFFFFFFFFFFFFFFFFFF AND DUP2 MSTORE PUSH1 0x20 ADD SWAP1 DUP2 MSTORE PUSH1 0x20 ADD PUSH1 0x0 KECCAK256 SLOAD DUP2 LT PUSH2 0x47F JUMPI PUSH1 0x40 MLOAD PUSH32 0x8C379A000000000000000000000000000000000000000000000000000000000 DUP2 MSTORE PUSH1 0x4 ADD PUSH2 0x476 SWAP1 PUSH2 0xAEF JUMP JUMPDEST PUSH1 0x40 MLOAD DUP1 SWAP2 SUB SWAP1 REVERT JUMPDEST PUSH1 0x0 PUSH20 0xFFFFFFFFFFFFFFFFFFFFFFFFFFFFFFFFFFFFFFFF AND DUP3 PUSH20 0xFFFFFFFFFFFFFFFFFFFFFFFFFFFFFFFFFFFFFFFF AND SUB PUSH2 0x4EE JUMPI PUSH1 0x40 MLOAD PUSH32 0x8C379A000000000000000000000000000000000000000000000000000000000 DUP2 MSTORE PUSH1 0x4 ADD PUSH2 0x4E5 SWAP1 PUSH2 0xB81 JUMP JUMPDEST PUSH1 0x40 MLOAD DUP1 SWAP2 SUB SWAP1 REVERT JUMPDEST DUP1 PUSH1 0x0 DUP1 DUP6 PUSH20 0xFFFFFFFFFFFFFFFFFFFFFFFFFFFFFFFFFFFFFFFF AND PUSH20 0xFFFFFFFFFFFFFFFFFFFFFFFFFFFFFFFFFFFFFFFF AND DUP2 MSTORE PUSH1 0x20 ADD SWAP1 DUP2 MSTORE PUSH1 0x20 ADD PUSH1 0x0 KECCAK256 PUSH1 0x0 DUP3 DUP3 SLOAD PUSH2 0x53C SWAP2 SWAP1 PUSH2 0xBA1 JUMP JUMPDEST SWAP3 POP POP DUP2 SWAP1 SSTORE POP DUP1 PUSH1 0x0 DUP1 DUP5 PUSH20 0xFFFFFFFFFFFFFFFFFFFFFFFFFFFFFFFFFFFFFFFF AND PUSH20 0xFFFFFFFFFFFFFFFFFFFFFFFFFFFFFFFFFFFFFFFF AND DUP2 MSTORE PUSH1 0x20 ADD SWAP1 DUP2 MSTORE PUSH1 0x20 ADD PUSH1 0x0 KECCAK256 PUSH1 0x0 DUP3 DUP3 SLOAD PUSH2 0x591 SWAP2 SWAP1 PUSH2 0xA03 JUMP JUMPDEST SWAP3 POP POP DUP2 SWAP1 SSTORE POP DUP1 PUSH1 0x1 PUSH1 0x0 DUP6 PUSH20 0xFFFFFFFFFFFFFFFFFFFFFFFFFFFFFFFFFFFFFFFF AND PUSH20 0xFFFFFFFFFFFFFFFFFFFFFFFFFFFFFFFFFFFFFFFF AND DUP2 MSTORE PUSH1 0x20 ADD SWAP1 DUP2 MSTORE PUSH1 0x20 ADD PUSH1 0x0 KECCAK256 PUSH1 0x0 CALLER PUSH20 0xFFFFFFFFFFFFFFFFFFFFFFFFFFFFFFFFFFFFFFFF AND PUSH20 0xFFFFFFFFFFFFFFFFFFFFFFFFFFFFFFFFFFFFFFFF AND DUP2 MSTORE PUSH1 0x20 ADD SWAP1 DUP2 MSTORE PUSH1 0x20 ADD PUSH1 0x0 KECCAK256 PUSH1 0x0 DUP3 DUP3 SLOAD PUSH2 0x624 SWAP2 SWAP1 PUSH2 0xBA1 JUMP JUMPDEST SWAP3 POP POP DUP2 SWAP1 SSTORE POP POP POP POP JUMP JUMPDEST PUSH1 0x0 PUSH1 0x2 SLOAD SWAP1 POP SWAP1 JUMP JUMPDEST PUSH1 0x1 PUSH1 0x20 MSTORE DUP2 PUSH1 0x0 MSTORE PUSH1 0x40 PUSH1 0x0 KECCAK256 PUSH1 0x20 MSTORE DUP1 PUSH1 0x0 MSTORE PUSH1 0x40 PUSH1 0x0 KECCAK256 PUSH1 0x0 SWAP2 POP SWAP2 POP POP SLOAD DUP2 JUMP JUMPDEST PUSH1 0x0 PUSH20 0xFFFFFFFFFFFFFFFFFFFFFFFFFFFFFFFFFFFFFFFF AND DUP3 PUSH20 0xFFFFFFFFFFFFFFFFFFFFFFFFFFFFFFFFFFFFFFFF AND SUB PUSH2 0x6CE JUMPI PUSH1 0x40 MLOAD PUSH32 0x8C379A000000000000000000000000000000000000000000000000000000000 DUP2 MSTORE PUSH1 0x4 ADD PUSH2 0x6C5 SWAP1 PUSH2 0xB81 JUMP JUMPDEST PUSH1 0x40 MLOAD DUP1 SWAP2 SUB SWAP1 REVERT JUMPDEST DUP1 PUSH1 0x0 DUP1 CALLER PUSH20 0xFFFFFFFFFFFFFFFFFFFFFFFFFFFFFFFFFFFFFFFF AND PUSH20 0xFFFFFFFFFFFFFFFFFFFFFFFFFFFFFFFFFFFFFFFF AND DUP2 MSTORE PUSH1 0x20 ADD SWAP1 DUP2 MSTORE PUSH1 0x20 ADD PUSH1 0x0 KECCAK256 PUSH1 0x0 DUP3 DUP3 SLOAD PUSH2 0x71C SWAP2 SWAP1 PUSH2 0xBA1 JUMP JUMPDEST SWAP3 POP POP DUP2 SWAP1 SSTORE POP DUP1 PUSH1 0x0 DUP1 DUP5 PUSH20 0xFFFFFFFFFFFFFFFFFFFFFFFFFFFFFFFFFFFFFFFF AND PUSH20 0xFFFFFFFFFFFFFFFFFFFFFFFFFFFFFFFFFFFFFFFF AND DUP2 MSTORE PUSH1 0x20 ADD SWAP1 DUP2 MSTORE PUSH1 0x20 ADD PUSH1 0x0 KECCAK256 PUSH1 0x0 DUP3 DUP3 SLOAD PUSH2 0x771 SWAP2 SWAP1 PUSH2 0xA03 JUMP JUMPDEST SWAP3 POP POP DUP2 SWAP1 SSTORE POP POP POP JUMP JUMPDEST PUSH1 0x0 PUSH1 0x20 MSTORE DUP1 PUSH1 0x0 MSTORE PUSH1 0x40 PUSH1 0x0 KECCAK256 PUSH1 0x0 SWAP2 POP SWAP1 POP SLOAD DUP2 JUMP JUMPDEST PUSH1 0x0 DUP1 REVERT JUMPDEST PUSH1 0x0 PUSH20 0xFFFFFFFFFFFFFFFFFFFFFFFFFFFFFFFFFFFFFFFF DUP3 AND SWAP1 POP SWAP2 SWAP1 POP JUMP JUMPDEST PUSH1 0x0 PUSH2 0x7C4 DUP3 PUSH2 0x799 JUMP JUMPDEST SWAP1 POP SWAP2 SWAP1 POP JUMP JUMPDEST PUSH2 0x7D4 DUP2 PUSH2 0x7B9 JUMP JUMPDEST DUP2 EQ PUSH2 0x7DF JUMPI PUSH1 0x0 DUP1 REVERT JUMPDEST POP JUMP JUMPDEST PUSH1 0x0 DUP2 CALLDATALOAD SWAP1 POP PUSH2 0x7F1 DUP2 PUSH2 0x7CB JUMP JUMPDEST SWAP3 SWAP2 POP POP JUMP JUMPDEST PUSH1 0x0 DUP2 SWAP1 POP SWAP2 SWAP1 POP JUMP JUMPDEST PUSH2 0x80A DUP2 PUSH2 0x7F7 JUMP JUMPDEST DUP2 EQ PUSH2 0x815 JUMPI PUSH1 0x0 DUP1 REVERT JUMPDEST POP JUMP JUMPDEST PUSH1 0x0 DUP2 CALLDATALOAD SWAP1 POP PUSH2 0x827 DUP2 PUSH2 0x801 JUMP JUMPDEST SWAP3 SWAP2 POP POP JUMP JUMPDEST PUSH1 0x0 DUP1 PUSH1 0x40 DUP4 DUP6 SUB SLT ISZERO PUSH2 0x844 JUMPI PUSH2 0x843 PUSH2 0x794 JUMP JUMPDEST JUMPDEST PUSH1 0x0 PUSH2 0x852 DUP6 DUP3 DUP7 ADD PUSH2 0x7E2 JUMP JUMPDEST SWAP3 POP POP PUSH1 0x20 PUSH2 0x863 DUP6 DUP3 DUP7 ADD PUSH2 0x818 JUMP JUMPDEST SWAP2 POP POP SWAP3 POP SWAP3 SWAP1 POP JUMP JUMPDEST PUSH1 0x0 PUSH1 0x20 DUP3 DUP5 SUB SLT ISZERO PUSH2 0x883 JUMPI PUSH2 0x882 PUSH2 0x794 JUMP JUMPDEST JUMPDEST PUSH1 0x0 PUSH2 0x891 DUP5 DUP3 DUP6 ADD PUSH2 0x7E2 JUMP JUMPDEST SWAP2 POP POP SWAP3 SWAP2 POP POP JUMP JUMPDEST PUSH2 0x8A3 DUP2 PUSH2 0x7F7 JUMP JUMPDEST DUP3 MSTORE POP POP JUMP JUMPDEST PUSH1 0x0 PUSH1 0x20 DUP3 ADD SWAP1 POP PUSH2 0x8BE PUSH1 0x0 DUP4 ADD DUP5 PUSH2 0x89A JUMP JUMPDEST SWAP3 SWAP2 POP POP JUMP JUMPDEST PUSH1 0x0 DUP1 PUSH1 0x0 PUSH1 0x60 DUP5 DUP7 SUB SLT ISZERO PUSH2 0x8DD JUMPI PUSH2 0x8DC PUSH2 0x794 JUMP JUMPDEST JUMPDEST PUSH1 0x0 PUSH2 0x8EB DUP7 DUP3 DUP8 ADD PUSH2 0x7E2 JUMP JUMPDEST SWAP4 POP POP PUSH1 0x20 PUSH2 0x8FC DUP7 DUP3 DUP8 ADD PUSH2 0x7E2 JUMP JUMPDEST SWAP3 POP POP PUSH1 0x40 PUSH2 0x90D DUP7 DUP3 DUP8 ADD PUSH2 0x818 JUMP JUMPDEST SWAP2 POP POP SWAP3 POP SWAP3 POP SWAP3 JUMP JUMPDEST PUSH1 0x0 DUP1 PUSH1 0x40 DUP4 DUP6 SUB SLT ISZERO PUSH2 0x92E JUMPI PUSH2 0x92D PUSH2 0x794 JUMP JUMPDEST JUMPDEST PUSH1 0x0 PUSH2 0x93C DUP6 DUP3 DUP7 ADD PUSH2 0x7E2 JUMP JUMPDEST SWAP3 POP POP PUSH1 0x20 PUSH2 0x94D DUP6 DUP3 DUP7 ADD PUSH2 0x7E2 JUMP JUMPDEST SWAP2 POP POP SWAP3 POP SWAP3 SWAP1 POP JUMP JUMPDEST PUSH1 0x0 DUP3 DUP3 MSTORE PUSH1 0x20 DUP3 ADD SWAP1 POP SWAP3 SWAP2 POP POP JUMP JUMPDEST PUSH32 0x617070726F766520746F207A65726F2061646472657373000000000000000000 PUSH1 0x0 DUP3 ADD MSTORE POP JUMP JUMPDEST PUSH1 0x0 PUSH2 0x99E PUSH1 0x17 DUP4 PUSH2 0x957 JUMP JUMPDEST SWAP2 POP PUSH2 0x9A9 DUP3 PUSH2 0x968 JUMP JUMPDEST PUSH1 0x20 DUP3 ADD SWAP1 POP SWAP2 SWAP1 POP JUMP JUMPDEST PUSH1 0x0 PUSH1 0x20 DUP3 ADD SWAP1 POP DUP2 DUP2 SUB PUSH1 0x0 DUP4 ADD MSTORE PUSH2 0x9CD DUP2 PUSH2 0x991 JUMP JUMPDEST SWAP1 POP SWAP2 SWAP1 POP JUMP JUMPDEST PUSH32 0x4E487B7100000000000000000000000000000000000000000000000000000000 PUSH1 0x0 MSTORE PUSH1 0x11 PUSH1 0x4 MSTORE PUSH1 0x24 PUSH1 0x0 REVERT JUMPDEST PUSH1 0x0 PUSH2 0xA0E DUP3 PUSH2 0x7F7 JUMP JUMPDEST SWAP2 POP PUSH2 0xA19 DUP4 PUSH2 0x7F7 JUMP JUMPDEST SWAP3 POP DUP3 DUP3 ADD SWAP1 POP DUP1 DUP3 GT ISZERO PUSH2 0xA31 JUMPI PUSH2 0xA30 PUSH2 0x9D4 JUMP JUMPDEST JUMPDEST SWAP3 SWAP2 POP POP JUMP JUMPDEST PUSH32 0x6D696E7420746865207A65726F20616464726573730000000000000000000000 PUSH1 0x0 DUP3 ADD MSTORE POP JUMP JUMPDEST PUSH1 0x0 PUSH2 0xA6D PUSH1 0x15 DUP4 PUSH2 0x957 JUMP JUMPDEST SWAP2 POP PUSH2 0xA78 DUP3 PUSH2 0xA37 JUMP JUMPDEST PUSH1 0x20 DUP3 ADD SWAP1 POP SWAP2 SWAP1 POP JUMP JUMPDEST PUSH1 0x0 PUSH1 0x20 DUP3 ADD SWAP1 POP DUP2 DUP2 SUB PUSH1 0x0 DUP4 ADD MSTORE PUSH2 0xA9C DUP2 PUSH2 0xA60 JUMP JUMPDEST SWAP1 POP SWAP2 SWAP1 POP JUMP JUMPDEST PUSH32 0x6E6F7420617574686F72697A6564000000000000000000000000000000000000 PUSH1 0x0 DUP3 ADD MSTORE POP JUMP JUMPDEST PUSH1 0x0 PUSH2 0xAD9 PUSH1 0xE DUP4 PUSH2 0x957 JUMP JUMPDEST SWAP2 POP PUSH2 0xAE4 DUP3 PUSH2 0xAA3 JUMP JUMPDEST PUSH1 0x20 DUP3 ADD SWAP1 POP SWAP2 SWAP1 POP JUMP JUMPDEST PUSH1 0x0 PUSH1 0x20 DUP3 ADD SWAP1 POP DUP2 DUP2 SUB PUSH1 0x0 DUP4 ADD MSTORE PUSH2 0xB08 DUP2 PUSH2 0xACC JUMP JUMPDEST SWAP1 POP SWAP2 SWAP1 POP JUMP JUMPDEST PUSH32 0x7472616E7366657220746F207A65726F2061646472657373206E6F7420706F73 PUSH1 0x0 DUP3 ADD MSTORE PUSH32 0x7369626C65000000000000000000000000000000000000000000000000000000 PUSH1 0x20 DUP3 ADD MSTORE POP JUMP JUMPDEST PUSH1 0x0 PUSH2 0xB6B PUSH1 0x25 DUP4 PUSH2 0x957 JUMP JUMPDEST SWAP2 POP PUSH2 0xB76 DUP3 PUSH2 0xB0F JUMP JUMPDEST PUSH1 0x40 DUP3 ADD SWAP1 POP SWAP2 SWAP1 POP JUMP JUMPDEST PUSH1 0x0 PUSH1 0x20 DUP3 ADD SWAP1 POP DUP2 DUP2 SUB PUSH1 0x0 DUP4 ADD MSTORE PUSH2 0xB9A DUP2 PUSH2 0xB5E JUMP JUMPDEST SWAP1 POP SWAP2 SWAP1 POP JUMP JUMPDEST PUSH1 0x0 PUSH2 0xBAC DUP3 PUSH2 0x7F7 JUMP JUMPDEST SWAP2 POP PUSH2 0xBB7 DUP4 PUSH2 0x7F7 JUMP JUMPDEST SWAP3 POP DUP3 DUP3 SUB SWAP1 POP DUP2 DUP2 GT ISZERO PUSH2 0xBCF JUMPI PUSH2 0xBCE PUSH2 0x9D4 JUMP JUMPDEST JUMPDEST SWAP3 SWAP2 POP POP JUMP INVALID LOG2 PUSH5 0x6970667358 0x22 SLT KECCAK256 0x4F 0xB4 SAR PUSH24 0x8F3BB6969C13A8FC76ADC715D0DF6AD36D80988E1CE16150 0xD8 0xD NOT 0xF8 PUSH5 0x736F6C6343 STOP ADDMOD SGT STOP CALLER "
				},
				"gasEstimates": {
					"creation": {
						"codeDepositCost": "616600",
						"executionCost": "infinite",
						"totalCost": "infinite"
					},
					"external": {
						"allowence(address,address)": "infinite",
						"approve(address,uint256)": "infinite",
						"balance(address)": "2880",
						"balanceof(address)": "2864",
						"mint(address,uint256)": "infinite",
						"totalsupply()": "2437",
						"transfer(address,uint256)": "infinite",
						"transferfrom(address,address,uint256)": "infinite"
					}
				},
				"methodIdentifiers": {
					"allowence(address,address)": "a77a8230",
					"approve(address,uint256)": "095ea7b3",
					"balance(address)": "e3d670d7",
					"balanceof(address)": "3d64125b",
					"mint(address,uint256)": "40c10f19",
					"totalsupply()": "72dd529b",
					"transfer(address,uint256)": "a9059cbb",
					"transferfrom(address,address,uint256)": "63b0545f"
				}
			},
			"storageLayout": {
				"storage": [
					{
						"astId": 5,
						"contract": "Samples/transfer1.sol:example",
						"label": "balance",
						"offset": 0,
						"slot": "0",
						"type": "t_mapping(t_address,t_uint256)"
					},
					{
						"astId": 11,
						"contract": "Samples/transfer1.sol:example",
						"label": "allowence",
						"offset": 0,
						"slot": "1",
						"type": "t_mapping(t_address,t_mapping(t_address,t_uint256))"
					},
					{
						"astId": 13,
						"contract": "Samples/transfer1.sol:example",
						"label": "total_supply",
						"offset": 0,
						"slot": "2",
						"type": "t_uint256"
					}
				],
				"types": {
					"t_address": {
						"encoding": "inplace",
						"label": "address",
						"numberOfBytes": "20"
					},
					"t_mapping(t_address,t_mapping(t_address,t_uint256))": {
						"encoding": "mapping",
						"key": "t_address",
						"label": "mapping(address => mapping(address => uint256))",
						"numberOfBytes": "32",
						"value": "t_mapping(t_address,t_uint256)"
					},
					"t_mapping(t_address,t_uint256)": {
						"encoding": "mapping",
						"key": "t_address",
						"label": "mapping(address => uint256)",
						"numberOfBytes": "32",
						"value": "t_uint256"
					},
					"t_uint256": {
						"encoding": "inplace",
						"label": "uint256",
						"numberOfBytes": "32"
					}
				}
			},
			"userdoc": {
				"kind": "user",
				"methods": {},
				"version": 1
			}
		}
	}
}