{
	"Samples/array.sol": {
		"example": {
			"abi": [
				{
					"inputs": [
						{
							"internalType": "uint256",
							"name": "anyNumber",
							"type": "uint256"
						}
					],
					"name": "arrayCheck",
					"outputs": [],
					"stateMutability": "nonpayable",
					"type": "function"
				},
				{
					"inputs": [],
					"name": "checkArray",
					"outputs": [
						{
							"internalType": "uint256[5]",
							"name": "",
							"type": "uint256[5]"
						}
					],
					"stateMutability": "pure",
					"type": "function"
				},
				{
					"inputs": [],
					"name": "getDynmaicArray",
					"outputs": [
						{
							"internalType": "uint256[]",
							"name": "",
							"type": "uint256[]"
						}
					],
					"stateMutability": "view",
					"type": "function"
				}
			],
			"devdoc": {
				"kind": "dev",
				"methods": {},
				"version": 1
			},
			"evm": {
				"assembly": "    /* \"Samples/array.sol\":59:461  contract example{\r... */\n  mstore(0x40, 0x80)\n  callvalue\n  dup1\n  iszero\n  tag_1\n  jumpi\n  0x00\n  dup1\n  revert\ntag_1:\n  pop\n  dataSize(sub_0)\n  dup1\n  dataOffset(sub_0)\n  0x00\n  codecopy\n  0x00\n  return\nstop\n\nsub_0: assembly {\n        /* \"Samples/array.sol\":59:461  contract example{\r... */\n      mstore(0x40, 0x80)\n      callvalue\n      dup1\n      iszero\n      tag_1\n      jumpi\n      0x00\n      dup1\n      revert\n    tag_1:\n      pop\n      jumpi(tag_2, lt(calldatasize, 0x04))\n      shr(0xe0, calldataload(0x00))\n      dup1\n      0x2b8d345c\n      eq\n      tag_3\n      jumpi\n      dup1\n      0x7b3f7296\n      eq\n      tag_4\n      jumpi\n      dup1\n      0xd66ac8a6\n      eq\n      tag_5\n      jumpi\n    tag_2:\n      0x00\n      dup1\n      revert\n        /* \"Samples/array.sol\":107:195  function arrayCheck(uint256 anyNumber) public {\r... */\n    tag_3:\n      tag_6\n      0x04\n      dup1\n      calldatasize\n      sub\n      dup2\n      add\n      swap1\n      tag_7\n      swap2\n      swap1\n      tag_8\n      jump\t// in\n    tag_7:\n      tag_9\n      jump\t// in\n    tag_6:\n      stop\n        /* \"Samples/array.sol\":203:349  function checkArray() public pure returns(uint[5] memory){\r... */\n    tag_4:\n      tag_10\n      tag_11\n      jump\t// in\n    tag_10:\n      mload(0x40)\n      tag_12\n      swap2\n      swap1\n      tag_13\n      jump\t// in\n    tag_12:\n      mload(0x40)\n      dup1\n      swap2\n      sub\n      swap1\n      return\n        /* \"Samples/array.sol\":357:454  function getDynmaicArray() public view returns(uint256[] memory){\r... */\n    tag_5:\n      tag_14\n      tag_15\n      jump\t// in\n    tag_14:\n      mload(0x40)\n      tag_16\n      swap2\n      swap1\n      tag_17\n      jump\t// in\n    tag_16:\n      mload(0x40)\n      dup1\n      swap2\n      sub\n      swap1\n      return\n        /* \"Samples/array.sol\":107:195  function arrayCheck(uint256 anyNumber) public {\r... */\n    tag_9:\n        /* \"Samples/array.sol\":164:171  balance */\n      0x00\n        /* \"Samples/array.sol\":177:186  anyNumber */\n      dup2\n        /* \"Samples/array.sol\":164:187  balance.push(anyNumber) */\n      swap1\n      dup1\n      0x01\n      dup2\n      sload\n      add\n      dup1\n      dup3\n      sstore\n      dup1\n      swap2\n      pop\n      pop\n      0x01\n      swap1\n      sub\n      swap1\n      0x00\n      mstore\n      keccak256(0x00, 0x20)\n      add\n      0x00\n      swap1\n      swap2\n      swap1\n      swap2\n      swap1\n      swap2\n      pop\n      sstore\n        /* \"Samples/array.sol\":107:195  function arrayCheck(uint256 anyNumber) public {\r... */\n      pop\n      jump\t// out\n        /* \"Samples/array.sol\":203:349  function checkArray() public pure returns(uint[5] memory){\r... */\n    tag_11:\n        /* \"Samples/array.sol\":245:259  uint[5] memory */\n      tag_20\n      tag_21\n      jump\t// in\n    tag_20:\n        /* \"Samples/array.sol\":271:290  uint[5] memory data */\n      0x00\n        /* \"Samples/array.sol\":271:319  uint[5] memory data = [uint(50), 63, 77, 28, 90] */\n      mload(0x40)\n      dup1\n      0xa0\n      add\n      0x40\n      mstore\n      dup1\n        /* \"Samples/array.sol\":299:301  50 */\n      0x32\n        /* \"Samples/array.sol\":271:319  uint[5] memory data = [uint(50), 63, 77, 28, 90] */\n      dup2\n      mstore\n      0x20\n      add\n        /* \"Samples/array.sol\":304:306  63 */\n      0x3f\n        /* \"Samples/array.sol\":271:319  uint[5] memory data = [uint(50), 63, 77, 28, 90] */\n      dup2\n      mstore\n      0x20\n      add\n        /* \"Samples/array.sol\":308:310  77 */\n      0x4d\n        /* \"Samples/array.sol\":271:319  uint[5] memory data = [uint(50), 63, 77, 28, 90] */\n      dup2\n      mstore\n      0x20\n      add\n        /* \"Samples/array.sol\":312:314  28 */\n      0x1c\n        /* \"Samples/array.sol\":271:319  uint[5] memory data = [uint(50), 63, 77, 28, 90] */\n      dup2\n      mstore\n      0x20\n      add\n        /* \"Samples/array.sol\":316:318  90 */\n      0x5a\n        /* \"Samples/array.sol\":271:319  uint[5] memory data = [uint(50), 63, 77, 28, 90] */\n      dup2\n      mstore\n      pop\n      swap1\n      pop\n        /* \"Samples/array.sol\":337:341  data */\n      dup1\n        /* \"Samples/array.sol\":330:341  return data */\n      swap2\n      pop\n      pop\n        /* \"Samples/array.sol\":203:349  function checkArray() public pure returns(uint[5] memory){\r... */\n      swap1\n      jump\t// out\n        /* \"Samples/array.sol\":357:454  function getDynmaicArray() public view returns(uint256[] memory){\r... */\n    tag_15:\n        /* \"Samples/array.sol\":404:420  uint256[] memory */\n      0x60\n        /* \"Samples/array.sol\":439:446  balance */\n      0x00\n        /* \"Samples/array.sol\":432:446  return balance */\n      dup1\n      sload\n      dup1\n      0x20\n      mul\n      0x20\n      add\n      mload(0x40)\n      swap1\n      dup2\n      add\n      0x40\n      mstore\n      dup1\n      swap3\n      swap2\n      swap1\n      dup2\n      dup2\n      mstore\n      0x20\n      add\n      dup3\n      dup1\n      sload\n      dup1\n      iszero\n      tag_24\n      jumpi\n      0x20\n      mul\n      dup3\n      add\n      swap2\n      swap1\n      0x00\n      mstore\n      keccak256(0x00, 0x20)\n      swap1\n    tag_25:\n      dup2\n      sload\n      dup2\n      mstore\n      0x20\n      add\n      swap1\n      0x01\n      add\n      swap1\n      dup1\n      dup4\n      gt\n      tag_25\n      jumpi\n    tag_24:\n      pop\n      pop\n      pop\n      pop\n      pop\n      swap1\n      pop\n        /* \"Samples/array.sol\":357:454  function getDynmaicArray() public view returns(uint256[] memory){\r... */\n      swap1\n      jump\t// out\n    tag_21:\n      mload(0x40)\n      dup1\n      0xa0\n      add\n      0x40\n      mstore\n      dup1\n      0x05\n      swap1\n      0x20\n      dup3\n      mul\n      dup1\n      calldatasize\n      dup4\n      calldatacopy\n      dup1\n      dup3\n      add\n      swap2\n      pop\n      pop\n      swap1\n      pop\n      pop\n      swap1\n      jump\t// out\n        /* \"#utility.yul\":7:146   */\n    tag_27:\n        /* \"#utility.yul\":53:58   */\n      0x00\n        /* \"#utility.yul\":91:97   */\n      dup2\n        /* \"#utility.yul\":78:98   */\n      calldataload\n        /* \"#utility.yul\":69:98   */\n      swap1\n      pop\n        /* \"#utility.yul\":107:140   */\n      tag_29\n        /* \"#utility.yul\":134:139   */\n      dup2\n        /* \"#utility.yul\":107:140   */\n      tag_30\n      jump\t// in\n    tag_29:\n        /* \"#utility.yul\":7:146   */\n      swap3\n      swap2\n      pop\n      pop\n      jump\t// out\n        /* \"#utility.yul\":152:481   */\n    tag_8:\n        /* \"#utility.yul\":211:217   */\n      0x00\n        /* \"#utility.yul\":260:262   */\n      0x20\n        /* \"#utility.yul\":248:257   */\n      dup3\n        /* \"#utility.yul\":239:246   */\n      dup5\n        /* \"#utility.yul\":235:258   */\n      sub\n        /* \"#utility.yul\":231:263   */\n      slt\n        /* \"#utility.yul\":228:347   */\n      iszero\n      tag_32\n      jumpi\n        /* \"#utility.yul\":266:345   */\n      tag_33\n      tag_34\n      jump\t// in\n    tag_33:\n        /* \"#utility.yul\":228:347   */\n    tag_32:\n        /* \"#utility.yul\":386:387   */\n      0x00\n        /* \"#utility.yul\":411:464   */\n      tag_35\n        /* \"#utility.yul\":456:463   */\n      dup5\n        /* \"#utility.yul\":447:453   */\n      dup3\n        /* \"#utility.yul\":436:445   */\n      dup6\n        /* \"#utility.yul\":432:454   */\n      add\n        /* \"#utility.yul\":411:464   */\n      tag_27\n      jump\t// in\n    tag_35:\n        /* \"#utility.yul\":401:464   */\n      swap2\n      pop\n        /* \"#utility.yul\":357:474   */\n      pop\n        /* \"#utility.yul\":152:481   */\n      swap3\n      swap2\n      pop\n      pop\n      jump\t// out\n        /* \"#utility.yul\":487:666   */\n    tag_36:\n        /* \"#utility.yul\":556:566   */\n      0x00\n        /* \"#utility.yul\":577:623   */\n      tag_38\n        /* \"#utility.yul\":619:622   */\n      dup4\n        /* \"#utility.yul\":611:617   */\n      dup4\n        /* \"#utility.yul\":577:623   */\n      tag_39\n      jump\t// in\n    tag_38:\n        /* \"#utility.yul\":655:659   */\n      0x20\n        /* \"#utility.yul\":650:653   */\n      dup4\n        /* \"#utility.yul\":646:660   */\n      add\n        /* \"#utility.yul\":632:660   */\n      swap1\n      pop\n        /* \"#utility.yul\":487:666   */\n      swap3\n      swap2\n      pop\n      pop\n      jump\t// out\n        /* \"#utility.yul\":704:1398   */\n    tag_40:\n        /* \"#utility.yul\":840:892   */\n      tag_42\n        /* \"#utility.yul\":886:891   */\n      dup2\n        /* \"#utility.yul\":840:892   */\n      tag_43\n      jump\t// in\n    tag_42:\n        /* \"#utility.yul\":908:992   */\n      tag_44\n        /* \"#utility.yul\":985:991   */\n      dup2\n        /* \"#utility.yul\":980:983   */\n      dup5\n        /* \"#utility.yul\":908:992   */\n      tag_45\n      jump\t// in\n    tag_44:\n        /* \"#utility.yul\":901:992   */\n      swap3\n      pop\n        /* \"#utility.yul\":1016:1070   */\n      tag_46\n        /* \"#utility.yul\":1064:1069   */\n      dup3\n        /* \"#utility.yul\":1016:1070   */\n      tag_47\n      jump\t// in\n    tag_46:\n        /* \"#utility.yul\":1093:1100   */\n      dup1\n        /* \"#utility.yul\":1124:1125   */\n      0x00\n        /* \"#utility.yul\":1109:1391   */\n    tag_48:\n        /* \"#utility.yul\":1134:1140   */\n      dup4\n        /* \"#utility.yul\":1131:1132   */\n      dup2\n        /* \"#utility.yul\":1128:1141   */\n      lt\n        /* \"#utility.yul\":1109:1391   */\n      iszero\n      tag_50\n      jumpi\n        /* \"#utility.yul\":1210:1216   */\n      dup2\n        /* \"#utility.yul\":1204:1217   */\n      mload\n        /* \"#utility.yul\":1237:1300   */\n      tag_51\n        /* \"#utility.yul\":1296:1299   */\n      dup8\n        /* \"#utility.yul\":1281:1294   */\n      dup3\n        /* \"#utility.yul\":1237:1300   */\n      tag_36\n      jump\t// in\n    tag_51:\n        /* \"#utility.yul\":1230:1300   */\n      swap7\n      pop\n        /* \"#utility.yul\":1323:1381   */\n      tag_52\n        /* \"#utility.yul\":1374:1380   */\n      dup4\n        /* \"#utility.yul\":1323:1381   */\n      tag_53\n      jump\t// in\n    tag_52:\n        /* \"#utility.yul\":1313:1381   */\n      swap3\n      pop\n        /* \"#utility.yul\":1169:1391   */\n      pop\n        /* \"#utility.yul\":1156:1157   */\n      0x01\n        /* \"#utility.yul\":1153:1154   */\n      dup2\n        /* \"#utility.yul\":1149:1158   */\n      add\n        /* \"#utility.yul\":1144:1158   */\n      swap1\n      pop\n        /* \"#utility.yul\":1109:1391   */\n      jump(tag_48)\n    tag_50:\n        /* \"#utility.yul\":1113:1127   */\n      pop\n        /* \"#utility.yul\":816:1398   */\n      pop\n      pop\n      pop\n        /* \"#utility.yul\":704:1398   */\n      pop\n      pop\n      jump\t// out\n        /* \"#utility.yul\":1434:2166   */\n    tag_54:\n        /* \"#utility.yul\":1553:1556   */\n      0x00\n        /* \"#utility.yul\":1582:1636   */\n      tag_56\n        /* \"#utility.yul\":1630:1635   */\n      dup3\n        /* \"#utility.yul\":1582:1636   */\n      tag_57\n      jump\t// in\n    tag_56:\n        /* \"#utility.yul\":1652:1738   */\n      tag_58\n        /* \"#utility.yul\":1731:1737   */\n      dup2\n        /* \"#utility.yul\":1726:1729   */\n      dup6\n        /* \"#utility.yul\":1652:1738   */\n      tag_59\n      jump\t// in\n    tag_58:\n        /* \"#utility.yul\":1645:1738   */\n      swap4\n      pop\n        /* \"#utility.yul\":1762:1818   */\n      tag_60\n        /* \"#utility.yul\":1812:1817   */\n      dup4\n        /* \"#utility.yul\":1762:1818   */\n      tag_61\n      jump\t// in\n    tag_60:\n        /* \"#utility.yul\":1841:1848   */\n      dup1\n        /* \"#utility.yul\":1872:1873   */\n      0x00\n        /* \"#utility.yul\":1857:2141   */\n    tag_62:\n        /* \"#utility.yul\":1882:1888   */\n      dup4\n        /* \"#utility.yul\":1879:1880   */\n      dup2\n        /* \"#utility.yul\":1876:1889   */\n      lt\n        /* \"#utility.yul\":1857:2141   */\n      iszero\n      tag_64\n      jumpi\n        /* \"#utility.yul\":1958:1964   */\n      dup2\n        /* \"#utility.yul\":1952:1965   */\n      mload\n        /* \"#utility.yul\":1985:2048   */\n      tag_65\n        /* \"#utility.yul\":2044:2047   */\n      dup9\n        /* \"#utility.yul\":2029:2042   */\n      dup3\n        /* \"#utility.yul\":1985:2048   */\n      tag_36\n      jump\t// in\n    tag_65:\n        /* \"#utility.yul\":1978:2048   */\n      swap8\n      pop\n        /* \"#utility.yul\":2071:2131   */\n      tag_66\n        /* \"#utility.yul\":2124:2130   */\n      dup4\n        /* \"#utility.yul\":2071:2131   */\n      tag_67\n      jump\t// in\n    tag_66:\n        /* \"#utility.yul\":2061:2131   */\n      swap3\n      pop\n        /* \"#utility.yul\":1917:2141   */\n      pop\n        /* \"#utility.yul\":1904:1905   */\n      0x01\n        /* \"#utility.yul\":1901:1902   */\n      dup2\n        /* \"#utility.yul\":1897:1906   */\n      add\n        /* \"#utility.yul\":1892:1906   */\n      swap1\n      pop\n        /* \"#utility.yul\":1857:2141   */\n      jump(tag_62)\n    tag_64:\n        /* \"#utility.yul\":1861:1875   */\n      pop\n        /* \"#utility.yul\":2157:2160   */\n      dup6\n        /* \"#utility.yul\":2150:2160   */\n      swap4\n      pop\n        /* \"#utility.yul\":1558:2166   */\n      pop\n      pop\n      pop\n        /* \"#utility.yul\":1434:2166   */\n      swap3\n      swap2\n      pop\n      pop\n      jump\t// out\n        /* \"#utility.yul\":2172:2280   */\n    tag_39:\n        /* \"#utility.yul\":2249:2273   */\n      tag_69\n        /* \"#utility.yul\":2267:2272   */\n      dup2\n        /* \"#utility.yul\":2249:2273   */\n      tag_70\n      jump\t// in\n    tag_69:\n        /* \"#utility.yul\":2244:2247   */\n      dup3\n        /* \"#utility.yul\":2237:2274   */\n      mstore\n        /* \"#utility.yul\":2172:2280   */\n      pop\n      pop\n      jump\t// out\n        /* \"#utility.yul\":2286:2601   */\n    tag_13:\n        /* \"#utility.yul\":2425:2429   */\n      0x00\n        /* \"#utility.yul\":2463:2466   */\n      0xa0\n        /* \"#utility.yul\":2452:2461   */\n      dup3\n        /* \"#utility.yul\":2448:2467   */\n      add\n        /* \"#utility.yul\":2440:2467   */\n      swap1\n      pop\n        /* \"#utility.yul\":2477:2594   */\n      tag_72\n        /* \"#utility.yul\":2591:2592   */\n      0x00\n        /* \"#utility.yul\":2580:2589   */\n      dup4\n        /* \"#utility.yul\":2576:2593   */\n      add\n        /* \"#utility.yul\":2567:2573   */\n      dup5\n        /* \"#utility.yul\":2477:2594   */\n      tag_40\n      jump\t// in\n    tag_72:\n        /* \"#utility.yul\":2286:2601   */\n      swap3\n      swap2\n      pop\n      pop\n      jump\t// out\n        /* \"#utility.yul\":2607:2980   */\n    tag_17:\n        /* \"#utility.yul\":2750:2754   */\n      0x00\n        /* \"#utility.yul\":2788:2790   */\n      0x20\n        /* \"#utility.yul\":2777:2786   */\n      dup3\n        /* \"#utility.yul\":2773:2791   */\n      add\n        /* \"#utility.yul\":2765:2791   */\n      swap1\n      pop\n        /* \"#utility.yul\":2837:2846   */\n      dup2\n        /* \"#utility.yul\":2831:2835   */\n      dup2\n        /* \"#utility.yul\":2827:2847   */\n      sub\n        /* \"#utility.yul\":2823:2824   */\n      0x00\n        /* \"#utility.yul\":2812:2821   */\n      dup4\n        /* \"#utility.yul\":2808:2825   */\n      add\n        /* \"#utility.yul\":2801:2848   */\n      mstore\n        /* \"#utility.yul\":2865:2973   */\n      tag_74\n        /* \"#utility.yul\":2968:2972   */\n      dup2\n        /* \"#utility.yul\":2959:2965   */\n      dup5\n        /* \"#utility.yul\":2865:2973   */\n      tag_54\n      jump\t// in\n    tag_74:\n        /* \"#utility.yul\":2857:2973   */\n      swap1\n      pop\n        /* \"#utility.yul\":2607:2980   */\n      swap3\n      swap2\n      pop\n      pop\n      jump\t// out\n        /* \"#utility.yul\":3067:3165   */\n    tag_47:\n        /* \"#utility.yul\":3132:3136   */\n      0x00\n        /* \"#utility.yul\":3155:3158   */\n      dup2\n        /* \"#utility.yul\":3147:3158   */\n      swap1\n      pop\n        /* \"#utility.yul\":3067:3165   */\n      swap2\n      swap1\n      pop\n      jump\t// out\n        /* \"#utility.yul\":3171:3303   */\n    tag_61:\n        /* \"#utility.yul\":3238:3242   */\n      0x00\n        /* \"#utility.yul\":3261:3264   */\n      dup2\n        /* \"#utility.yul\":3253:3264   */\n      swap1\n      pop\n        /* \"#utility.yul\":3291:3295   */\n      0x20\n        /* \"#utility.yul\":3286:3289   */\n      dup3\n        /* \"#utility.yul\":3282:3296   */\n      add\n        /* \"#utility.yul\":3274:3296   */\n      swap1\n      pop\n        /* \"#utility.yul\":3171:3303   */\n      swap2\n      swap1\n      pop\n      jump\t// out\n        /* \"#utility.yul\":3309:3413   */\n    tag_43:\n        /* \"#utility.yul\":3374:3380   */\n      0x00\n        /* \"#utility.yul\":3402:3406   */\n      0x05\n        /* \"#utility.yul\":3392:3406   */\n      swap1\n      pop\n        /* \"#utility.yul\":3309:3413   */\n      swap2\n      swap1\n      pop\n      jump\t// out\n        /* \"#utility.yul\":3419:3533   */\n    tag_57:\n        /* \"#utility.yul\":3486:3492   */\n      0x00\n        /* \"#utility.yul\":3520:3525   */\n      dup2\n        /* \"#utility.yul\":3514:3526   */\n      mload\n        /* \"#utility.yul\":3504:3526   */\n      swap1\n      pop\n        /* \"#utility.yul\":3419:3533   */\n      swap2\n      swap1\n      pop\n      jump\t// out\n        /* \"#utility.yul\":3539:3650   */\n    tag_53:\n        /* \"#utility.yul\":3607:3611   */\n      0x00\n        /* \"#utility.yul\":3639:3643   */\n      0x20\n        /* \"#utility.yul\":3634:3637   */\n      dup3\n        /* \"#utility.yul\":3630:3644   */\n      add\n        /* \"#utility.yul\":3622:3644   */\n      swap1\n      pop\n        /* \"#utility.yul\":3539:3650   */\n      swap2\n      swap1\n      pop\n      jump\t// out\n        /* \"#utility.yul\":3656:3769   */\n    tag_67:\n        /* \"#utility.yul\":3726:3730   */\n      0x00\n        /* \"#utility.yul\":3758:3762   */\n      0x20\n        /* \"#utility.yul\":3753:3756   */\n      dup3\n        /* \"#utility.yul\":3749:3763   */\n      add\n        /* \"#utility.yul\":3741:3763   */\n      swap1\n      pop\n        /* \"#utility.yul\":3656:3769   */\n      swap2\n      swap1\n      pop\n      jump\t// out\n        /* \"#utility.yul\":3775:3918   */\n    tag_45:\n        /* \"#utility.yul\":3872:3883   */\n      0x00\n        /* \"#utility.yul\":3909:3912   */\n      dup2\n        /* \"#utility.yul\":3894:3912   */\n      swap1\n      pop\n        /* \"#utility.yul\":3775:3918   */\n      swap3\n      swap2\n      pop\n      pop\n      jump\t// out\n        /* \"#utility.yul\":3924:4108   */\n    tag_59:\n        /* \"#utility.yul\":4023:4034   */\n      0x00\n        /* \"#utility.yul\":4057:4063   */\n      dup3\n        /* \"#utility.yul\":4052:4055   */\n      dup3\n        /* \"#utility.yul\":4045:4064   */\n      mstore\n        /* \"#utility.yul\":4097:4101   */\n      0x20\n        /* \"#utility.yul\":4092:4095   */\n      dup3\n        /* \"#utility.yul\":4088:4102   */\n      add\n        /* \"#utility.yul\":4073:4102   */\n      swap1\n      pop\n        /* \"#utility.yul\":3924:4108   */\n      swap3\n      swap2\n      pop\n      pop\n      jump\t// out\n        /* \"#utility.yul\":4114:4191   */\n    tag_70:\n        /* \"#utility.yul\":4151:4158   */\n      0x00\n        /* \"#utility.yul\":4180:4185   */\n      dup2\n        /* \"#utility.yul\":4169:4185   */\n      swap1\n      pop\n        /* \"#utility.yul\":4114:4191   */\n      swap2\n      swap1\n      pop\n      jump\t// out\n        /* \"#utility.yul\":4320:4437   */\n    tag_34:\n        /* \"#utility.yul\":4429:4430   */\n      0x00\n        /* \"#utility.yul\":4426:4427   */\n      dup1\n        /* \"#utility.yul\":4419:4431   */\n      revert\n        /* \"#utility.yul\":4443:4565   */\n    tag_30:\n        /* \"#utility.yul\":4516:4540   */\n      tag_90\n        /* \"#utility.yul\":4534:4539   */\n      dup2\n        /* \"#utility.yul\":4516:4540   */\n      tag_70\n      jump\t// in\n    tag_90:\n        /* \"#utility.yul\":4509:4514   */\n      dup2\n        /* \"#utility.yul\":4506:4541   */\n      eq\n        /* \"#utility.yul\":4496:4559   */\n      tag_91\n      jumpi\n        /* \"#utility.yul\":4555:4556   */\n      0x00\n        /* \"#utility.yul\":4552:4553   */\n      dup1\n        /* \"#utility.yul\":4545:4557   */\n      revert\n        /* \"#utility.yul\":4496:4559   */\n    tag_91:\n        /* \"#utility.yul\":4443:4565   */\n      pop\n      jump\t// out\n\n    auxdata: 0xa264697066735822122027fe5780e20c7f76656b3c110930ba2afb421c16a1ad9da103fe463bfd3e61de64736f6c63430008070033\n}\n",
				"bytecode": {
					"linkReferences": {},
					"object": "608060405234801561001057600080fd5b506103a0806100206000396000f3fe608060405234801561001057600080fd5b50600436106100415760003560e01c80632b8d345c146100465780637b3f729614610062578063d66ac8a614610080575b600080fd5b610060600480360381019061005b9190610198565b61009e565b005b61006a6100ca565b60405161007791906102a1565b60405180910390f35b610088610109565b60405161009591906102bc565b60405180910390f35b600081908060018154018082558091505060019003906000526020600020016000909190919091505550565b6100d2610161565b60006040518060a0016040528060328152602001603f8152602001604d8152602001601c8152602001605a81525090508091505090565b6060600080548060200260200160405190810160405280929190818152602001828054801561015757602002820191906000526020600020905b815481526020019060010190808311610143575b5050505050905090565b6040518060a00160405280600590602082028036833780820191505090505090565b60008135905061019281610353565b92915050565b6000602082840312156101ae576101ad61034e565b5b60006101bc84828501610183565b91505092915050565b60006101d18383610292565b60208301905092915050565b6101e6816102f8565b6101f08184610328565b92506101fb826102de565b8060005b8381101561022c57815161021387826101c5565b965061021e8361030e565b9250506001810190506101ff565b505050505050565b600061023f82610303565b6102498185610333565b9350610254836102e8565b8060005b8381101561028557815161026c88826101c5565b97506102778361031b565b925050600181019050610258565b5085935050505092915050565b61029b81610344565b82525050565b600060a0820190506102b660008301846101dd565b92915050565b600060208201905081810360008301526102d68184610234565b905092915050565b6000819050919050565b6000819050602082019050919050565b600060059050919050565b600081519050919050565b6000602082019050919050565b6000602082019050919050565b600081905092915050565b600082825260208201905092915050565b6000819050919050565b600080fd5b61035c81610344565b811461036757600080fd5b5056fea264697066735822122027fe5780e20c7f76656b3c110930ba2afb421c16a1ad9da103fe463bfd3e61de64736f6c63430008070033",
					"opcodes": "PUSH1 0x80 PUSH1 0x40 MSTORE CALLVALUE DUP1 ISZERO PUSH2 0x10 JUMPI PUSH1 0x0 DUP1 REVERT JUMPDEST POP PUSH2 0x3A0 DUP1 PUSH2 0x20 PUSH1 0x0 CODECOPY PUSH1 0x0 RETURN INVALID PUSH1 0x80 PUSH1 0x40 MSTORE CALLVALUE DUP1 ISZERO PUSH2 0x10 JUMPI PUSH1 0x0 DUP1 REVERT JUMPDEST POP PUSH1 0x4 CALLDATASIZE LT PUSH2 0x41 JUMPI PUSH1 0x0 CALLDATALOAD PUSH1 0xE0 SHR DUP1 PUSH4 0x2B8D345C EQ PUSH2 0x46 JUMPI DUP1 PUSH4 0x7B3F7296 EQ PUSH2 0x62 JUMPI DUP1 PUSH4 0xD66AC8A6 EQ PUSH2 0x80 JUMPI JUMPDEST PUSH1 0x0 DUP1 REVERT JUMPDEST PUSH2 0x60 PUSH1 0x4 DUP1 CALLDATASIZE SUB DUP2 ADD SWAP1 PUSH2 0x5B SWAP2 SWAP1 PUSH2 0x198 JUMP JUMPDEST PUSH2 0x9E JUMP JUMPDEST STOP JUMPDEST PUSH2 0x6A PUSH2 0xCA JUMP JUMPDEST PUSH1 0x40 MLOAD PUSH2 0x77 SWAP2 SWAP1 PUSH2 0x2A1 JUMP JUMPDEST PUSH1 0x40 MLOAD DUP1 SWAP2 SUB SWAP1 RETURN JUMPDEST PUSH2 0x88 PUSH2 0x109 JUMP JUMPDEST PUSH1 0x40 MLOAD PUSH2 0x95 SWAP2 SWAP1 PUSH2 0x2BC JUMP JUMPDEST PUSH1 0x40 MLOAD DUP1 SWAP2 SUB SWAP1 RETURN JUMPDEST PUSH1 0x0 DUP2 SWAP1 DUP1 PUSH1 0x1 DUP2 SLOAD ADD DUP1 DUP3 SSTORE DUP1 SWAP2 POP POP PUSH1 0x1 SWAP1 SUB SWAP1 PUSH1 0x0 MSTORE PUSH1 0x20 PUSH1 0x0 KECCAK256 ADD PUSH1 0x0 SWAP1 SWAP2 SWAP1 SWAP2 SWAP1 SWAP2 POP SSTORE POP JUMP JUMPDEST PUSH2 0xD2 PUSH2 0x161 JUMP JUMPDEST PUSH1 0x0 PUSH1 0x40 MLOAD DUP1 PUSH1 0xA0 ADD PUSH1 0x40 MSTORE DUP1 PUSH1 0x32 DUP2 MSTORE PUSH1 0x20 ADD PUSH1 0x3F DUP2 MSTORE PUSH1 0x20 ADD PUSH1 0x4D DUP2 MSTORE PUSH1 0x20 ADD PUSH1 0x1C DUP2 MSTORE PUSH1 0x20 ADD PUSH1 0x5A DUP2 MSTORE POP SWAP1 POP DUP1 SWAP2 POP POP SWAP1 JUMP JUMPDEST PUSH1 0x60 PUSH1 0x0 DUP1 SLOAD DUP1 PUSH1 0x20 MUL PUSH1 0x20 ADD PUSH1 0x40 MLOAD SWAP1 DUP2 ADD PUSH1 0x40 MSTORE DUP1 SWAP3 SWAP2 SWAP1 DUP2 DUP2 MSTORE PUSH1 0x20 ADD DUP3 DUP1 SLOAD DUP1 ISZERO PUSH2 0x157 JUMPI PUSH1 0x20 MUL DUP3 ADD SWAP2 SWAP1 PUSH1 0x0 MSTORE PUSH1 0x20 PUSH1 0x0 KECCAK256 SWAP1 JUMPDEST DUP2 SLOAD DUP2 MSTORE PUSH1 0x20 ADD SWAP1 PUSH1 0x1 ADD SWAP1 DUP1 DUP4 GT PUSH2 0x143 JUMPI JUMPDEST POP POP POP POP POP SWAP1 POP SWAP1 JUMP JUMPDEST PUSH1 0x40 MLOAD DUP1 PUSH1 0xA0 ADD PUSH1 0x40 MSTORE DUP1 PUSH1 0x5 SWAP1 PUSH1 0x20 DUP3 MUL DUP1 CALLDATASIZE DUP4 CALLDATACOPY DUP1 DUP3 ADD SWAP2 POP POP SWAP1 POP POP SWAP1 JUMP JUMPDEST PUSH1 0x0 DUP2 CALLDATALOAD SWAP1 POP PUSH2 0x192 DUP2 PUSH2 0x353 JUMP JUMPDEST SWAP3 SWAP2 POP POP JUMP JUMPDEST PUSH1 0x0 PUSH1 0x20 DUP3 DUP5 SUB SLT ISZERO PUSH2 0x1AE JUMPI PUSH2 0x1AD PUSH2 0x34E JUMP JUMPDEST JUMPDEST PUSH1 0x0 PUSH2 0x1BC DUP5 DUP3 DUP6 ADD PUSH2 0x183 JUMP JUMPDEST SWAP2 POP POP SWAP3 SWAP2 POP POP JUMP JUMPDEST PUSH1 0x0 PUSH2 0x1D1 DUP4 DUP4 PUSH2 0x292 JUMP JUMPDEST PUSH1 0x20 DUP4 ADD SWAP1 POP SWAP3 SWAP2 POP POP JUMP JUMPDEST PUSH2 0x1E6 DUP2 PUSH2 0x2F8 JUMP JUMPDEST PUSH2 0x1F0 DUP2 DUP5 PUSH2 0x328 JUMP JUMPDEST SWAP3 POP PUSH2 0x1FB DUP3 PUSH2 0x2DE JUMP JUMPDEST DUP1 PUSH1 0x0 JUMPDEST DUP4 DUP2 LT ISZERO PUSH2 0x22C JUMPI DUP2 MLOAD PUSH2 0x213 DUP8 DUP3 PUSH2 0x1C5 JUMP JUMPDEST SWAP7 POP PUSH2 0x21E DUP4 PUSH2 0x30E JUMP JUMPDEST SWAP3 POP POP PUSH1 0x1 DUP2 ADD SWAP1 POP PUSH2 0x1FF JUMP JUMPDEST POP POP POP POP POP POP JUMP JUMPDEST PUSH1 0x0 PUSH2 0x23F DUP3 PUSH2 0x303 JUMP JUMPDEST PUSH2 0x249 DUP2 DUP6 PUSH2 0x333 JUMP JUMPDEST SWAP4 POP PUSH2 0x254 DUP4 PUSH2 0x2E8 JUMP JUMPDEST DUP1 PUSH1 0x0 JUMPDEST DUP4 DUP2 LT ISZERO PUSH2 0x285 JUMPI DUP2 MLOAD PUSH2 0x26C DUP9 DUP3 PUSH2 0x1C5 JUMP JUMPDEST SWAP8 POP PUSH2 0x277 DUP4 PUSH2 0x31B JUMP JUMPDEST SWAP3 POP POP PUSH1 0x1 DUP2 ADD SWAP1 POP PUSH2 0x258 JUMP JUMPDEST POP DUP6 SWAP4 POP POP POP POP SWAP3 SWAP2 POP POP JUMP JUMPDEST PUSH2 0x29B DUP2 PUSH2 0x344 JUMP JUMPDEST DUP3 MSTORE POP POP JUMP JUMPDEST PUSH1 0x0 PUSH1 0xA0 DUP3 ADD SWAP1 POP PUSH2 0x2B6 PUSH1 0x0 DUP4 ADD DUP5 PUSH2 0x1DD JUMP JUMPDEST SWAP3 SWAP2 POP POP JUMP JUMPDEST PUSH1 0x0 PUSH1 0x20 DUP3 ADD SWAP1 POP DUP2 DUP2 SUB PUSH1 0x0 DUP4 ADD MSTORE PUSH2 0x2D6 DUP2 DUP5 PUSH2 0x234 JUMP JUMPDEST SWAP1 POP SWAP3 SWAP2 POP POP JUMP JUMPDEST PUSH1 0x0 DUP2 SWAP1 POP SWAP2 SWAP1 POP JUMP JUMPDEST PUSH1 0x0 DUP2 SWAP1 POP PUSH1 0x20 DUP3 ADD SWAP1 POP SWAP2 SWAP1 POP JUMP JUMPDEST PUSH1 0x0 PUSH1 0x5 SWAP1 POP SWAP2 SWAP1 POP JUMP JUMPDEST PUSH1 0x0 DUP2 MLOAD SWAP1 POP SWAP2 SWAP1 POP JUMP JUMPDEST PUSH1 0x0 PUSH1 0x20 DUP3 ADD SWAP1 POP SWAP2 SWAP1 POP JUMP JUMPDEST PUSH1 0x0 PUSH1 0x20 DUP3 ADD SWAP1 POP SWAP2 SWAP1 POP JUMP JUMPDEST PUSH1 0x0 DUP2 SWAP1 POP SWAP3 SWAP2 POP POP JUMP JUMPDEST PUSH1 0x0 DUP3 DUP3 MSTORE PUSH1 0x20 DUP3 ADD SWAP1 POP SWAP3 SWAP2 POP POP JUMP JUMPDEST PUSH1 0x0 DUP2 SWAP1 POP SWAP2 SWAP1 POP JUMP JUMPDEST PUSH1 0x0 DUP1 REVERT JUMPDEST PUSH2 0x35C DUP2 PUSH2 0x344 JUMP JUMPDEST DUP2 EQ PUSH2 0x367 JUMPI PUSH1 0x0 DUP1 REVERT JUMPDEST POP JUMP INVALID LOG2 PUSH5 0x6970667358 0x22 SLT KECCAK256 0x27 INVALID JUMPI DUP1 0xE2 0xC PUSH32 0x76656B3C110930BA2AFB421C16A1AD9DA103FE463BFD3E61DE64736F6C634300 ADDMOD SMOD STOP CALLER "
				},
				"gasEstimates": {
					"creation": {
						"codeDepositCost": "185600",
						"executionCost": "226",
						"totalCost": "185826"
					},
					"external": {
						"arrayCheck(uint256)": "46807",
						"checkArray()": "infinite",
						"getDynmaicArray()": "infinite"
					}
				},
				"methodIdentifiers": {
					"arrayCheck(uint256)": "2b8d345c",
					"checkArray()": "7b3f7296",
					"getDynmaicArray()": "d66ac8a6"
				}
			},
			"storageLayout": {
				"storage": [
					{
						"astId": 4,
						"contract": "Samples/array.sol:example",
						"label": "balance",
						"offset": 0,
						"slot": "0",
						"type": "t_array(t_uint256)dyn_storage"
					}
				],
				"types": {
					"t_array(t_uint256)dyn_storage": {
						"base": "t_uint256",
						"encoding": "dynamic_array",
						"label": "uint256[]",
						"numberOfBytes": "32"
					},
					"t_uint256": {
						"encoding": "inplace",
						"label": "uint256",
						"numberOfBytes": "32"
					}
				}
			},
			"userdoc": {
				"kind": "user",
				"methods": {},
				"version": 1
			}
		}
	}
}