{
	"Samples/abcArrayStruct.sol": {
		"vehicleShowRoom": {
			"abi": [
				{
					"inputs": [],
					"stateMutability": "nonpayable",
					"type": "constructor"
				},
				{
					"stateMutability": "payable",
					"type": "fallback"
				},
				{
					"inputs": [
						{
							"internalType": "uint256",
							"name": "vehicleID",
							"type": "uint256"
						},
						{
							"internalType": "string",
							"name": "Name",
							"type": "string"
						},
						{
							"internalType": "uint256",
							"name": "Price",
							"type": "uint256"
						}
					],
					"name": "addvehicle",
					"outputs": [],
					"stateMutability": "nonpayable",
					"type": "function"
				},
				{
					"inputs": [
						{
							"internalType": "uint256",
							"name": "vehicleID",
							"type": "uint256"
						}
					],
					"name": "buytheVehicle",
					"outputs": [],
					"stateMutability": "payable",
					"type": "function"
				},
				{
					"inputs": [],
					"name": "count",
					"outputs": [
						{
							"internalType": "uint256",
							"name": "",
							"type": "uint256"
						}
					],
					"stateMutability": "view",
					"type": "function"
				},
				{
					"inputs": [],
					"name": "getRecords",
					"outputs": [
						{
							"components": [
								{
									"internalType": "string",
									"name": "name",
									"type": "string"
								},
								{
									"internalType": "uint256",
									"name": "price",
									"type": "uint256"
								},
								{
									"internalType": "address",
									"name": "owner",
									"type": "address"
								},
								{
									"internalType": "bool",
									"name": "sold",
									"type": "bool"
								}
							],
							"internalType": "struct vehicleShowRoom.ListofVehicle[]",
							"name": "",
							"type": "tuple[]"
						}
					],
					"stateMutability": "view",
					"type": "function"
				},
				{
					"inputs": [
						{
							"internalType": "uint256",
							"name": "",
							"type": "uint256"
						}
					],
					"name": "indexOf",
					"outputs": [
						{
							"internalType": "uint256",
							"name": "",
							"type": "uint256"
						}
					],
					"stateMutability": "view",
					"type": "function"
				},
				{
					"inputs": [
						{
							"internalType": "uint256",
							"name": "",
							"type": "uint256"
						}
					],
					"name": "showVehicle",
					"outputs": [
						{
							"internalType": "string",
							"name": "name",
							"type": "string"
						},
						{
							"internalType": "uint256",
							"name": "price",
							"type": "uint256"
						},
						{
							"internalType": "address",
							"name": "owner",
							"type": "address"
						},
						{
							"internalType": "bool",
							"name": "sold",
							"type": "bool"
						}
					],
					"stateMutability": "view",
					"type": "function"
				},
				{
					"stateMutability": "payable",
					"type": "receive"
				}
			],
			"devdoc": {
				"kind": "dev",
				"methods": {},
				"version": 1
			},
			"evm": {
				"assembly": "    /* \"Samples/abcArrayStruct.sol\":59:1521  contract vehicleShowRoom{\r... */\n  mstore(0x40, 0x80)\n    /* \"Samples/abcArrayStruct.sol\":265:316  constructor() {\r... */\n  callvalue\n  dup1\n  iszero\n  tag_1\n  jumpi\n  0x00\n  dup1\n  revert\ntag_1:\n  pop\n    /* \"Samples/abcArrayStruct.sol\":298:308  msg.sender */\n  caller\n    /* \"Samples/abcArrayStruct.sol\":290:295  owner */\n  0x00\n  dup1\n    /* \"Samples/abcArrayStruct.sol\":290:308  owner = msg.sender */\n  0x0100\n  exp\n  dup2\n  sload\n  dup2\n  0xffffffffffffffffffffffffffffffffffffffff\n  mul\n  not\n  and\n  swap1\n  dup4\n  0xffffffffffffffffffffffffffffffffffffffff\n  and\n  mul\n  or\n  swap1\n  sstore\n  pop\n    /* \"Samples/abcArrayStruct.sol\":59:1521  contract vehicleShowRoom{\r... */\n  dataSize(sub_0)\n  dup1\n  dataOffset(sub_0)\n  0x00\n  codecopy\n  0x00\n  return\nstop\n\nsub_0: assembly {\n        /* \"Samples/abcArrayStruct.sol\":59:1521  contract vehicleShowRoom{\r... */\n      mstore(0x40, 0x80)\n      jumpi(tag_1, lt(calldatasize, 0x04))\n      shr(0xe0, calldataload(0x00))\n      dup1\n      0x06661abd\n      eq\n      tag_3\n      jumpi\n      dup1\n      0x40a18bb7\n      eq\n      tag_4\n      jumpi\n      dup1\n      0x8eff3c29\n      eq\n      tag_5\n      jumpi\n      dup1\n      0x91ac7e65\n      eq\n      tag_6\n      jumpi\n      dup1\n      0xc9b27ba8\n      eq\n      tag_7\n      jumpi\n      dup1\n      0xf618a725\n      eq\n      tag_8\n      jumpi\n      jump(tag_2)\n    tag_1:\n      jumpi(tag_2, calldatasize)\n      stop\n    tag_2:\n      stop\n        /* \"Samples/abcArrayStruct.sol\":236:256  uint256 public count */\n    tag_3:\n      callvalue\n      dup1\n      iszero\n      tag_13\n      jumpi\n      0x00\n      dup1\n      revert\n    tag_13:\n      pop\n      tag_14\n      tag_15\n      jump\t// in\n    tag_14:\n      mload(0x40)\n      tag_16\n      swap2\n      swap1\n      tag_17\n      jump\t// in\n    tag_16:\n      mload(0x40)\n      dup1\n      swap2\n      sub\n      swap1\n      return\n        /* \"Samples/abcArrayStruct.sol\":918:1334  function buytheVehicle(uint vehicleID) public payable{\r... */\n    tag_4:\n      tag_18\n      0x04\n      dup1\n      calldatasize\n      sub\n      dup2\n      add\n      swap1\n      tag_19\n      swap2\n      swap1\n      tag_20\n      jump\t// in\n    tag_19:\n      tag_21\n      jump\t// in\n    tag_18:\n      stop\n        /* \"Samples/abcArrayStruct.sol\":1342:1447  function getRecords() public view returns(ListofVehicle[] memory){\r... */\n    tag_5:\n      callvalue\n      dup1\n      iszero\n      tag_22\n      jumpi\n      0x00\n      dup1\n      revert\n    tag_22:\n      pop\n      tag_23\n      tag_24\n      jump\t// in\n    tag_23:\n      mload(0x40)\n      tag_25\n      swap2\n      swap1\n      tag_26\n      jump\t// in\n    tag_25:\n      mload(0x40)\n      dup1\n      swap2\n      sub\n      swap1\n      return\n        /* \"Samples/abcArrayStruct.sol\":416:458  mapping(uint256 => uint256) public indexOf */\n    tag_6:\n      callvalue\n      dup1\n      iszero\n      tag_27\n      jumpi\n      0x00\n      dup1\n      revert\n    tag_27:\n      pop\n      tag_28\n      0x04\n      dup1\n      calldatasize\n      sub\n      dup2\n      add\n      swap1\n      tag_29\n      swap2\n      swap1\n      tag_20\n      jump\t// in\n    tag_29:\n      tag_30\n      jump\t// in\n    tag_28:\n      mload(0x40)\n      tag_31\n      swap2\n      swap1\n      tag_17\n      jump\t// in\n    tag_31:\n      mload(0x40)\n      dup1\n      swap2\n      sub\n      swap1\n      return\n        /* \"Samples/abcArrayStruct.sol\":361:409  mapping(uint=> ListofVehicle) public showVehicle */\n    tag_7:\n      callvalue\n      dup1\n      iszero\n      tag_32\n      jumpi\n      0x00\n      dup1\n      revert\n    tag_32:\n      pop\n      tag_33\n      0x04\n      dup1\n      calldatasize\n      sub\n      dup2\n      add\n      swap1\n      tag_34\n      swap2\n      swap1\n      tag_20\n      jump\t// in\n    tag_34:\n      tag_35\n      jump\t// in\n    tag_33:\n      mload(0x40)\n      tag_36\n      swap5\n      swap4\n      swap3\n      swap2\n      swap1\n      tag_37\n      jump\t// in\n    tag_36:\n      mload(0x40)\n      dup1\n      swap2\n      sub\n      swap1\n      return\n        /* \"Samples/abcArrayStruct.sol\":467:910  function addvehicle(uint vehicleID,string memory Name,uint Price) public{\r... */\n    tag_8:\n      callvalue\n      dup1\n      iszero\n      tag_38\n      jumpi\n      0x00\n      dup1\n      revert\n    tag_38:\n      pop\n      tag_39\n      0x04\n      dup1\n      calldatasize\n      sub\n      dup2\n      add\n      swap1\n      tag_40\n      swap2\n      swap1\n      tag_41\n      jump\t// in\n    tag_40:\n      tag_42\n      jump\t// in\n    tag_39:\n      stop\n        /* \"Samples/abcArrayStruct.sol\":236:256  uint256 public count */\n    tag_15:\n      sload(0x01)\n      dup2\n      jump\t// out\n        /* \"Samples/abcArrayStruct.sol\":918:1334  function buytheVehicle(uint vehicleID) public payable{\r... */\n    tag_21:\n        /* \"Samples/abcArrayStruct.sol\":982:1016  ListofVehicle storage updateRecord */\n      0x00\n        /* \"Samples/abcArrayStruct.sol\":1041:1052  showVehicle */\n      0x03\n        /* \"Samples/abcArrayStruct.sol\":1041:1063  showVehicle[vehicleID] */\n      0x00\n        /* \"Samples/abcArrayStruct.sol\":1053:1062  vehicleID */\n      dup4\n        /* \"Samples/abcArrayStruct.sol\":1041:1063  showVehicle[vehicleID] */\n      dup2\n      mstore\n      0x20\n      add\n      swap1\n      dup2\n      mstore\n      0x20\n      add\n      0x00\n      keccak256\n        /* \"Samples/abcArrayStruct.sol\":1027:1063  updateRecord =showVehicle[vehicleID] */\n      swap1\n      pop\n        /* \"Samples/abcArrayStruct.sol\":1095:1107  updateRecord */\n      dup1\n        /* \"Samples/abcArrayStruct.sol\":1095:1113  updateRecord.price */\n      0x01\n      add\n      sload\n        /* \"Samples/abcArrayStruct.sol\":1082:1091  msg.value */\n      callvalue\n        /* \"Samples/abcArrayStruct.sol\":1082:1113  msg.value >= updateRecord.price */\n      lt\n      iszero\n        /* \"Samples/abcArrayStruct.sol\":1074:1154  require(msg.value >= updateRecord.price, \"ennay paisy nae teray kol, chl pj ja\") */\n      tag_44\n      jumpi\n      mload(0x40)\n      0x08c379a000000000000000000000000000000000000000000000000000000000\n      dup2\n      mstore\n      0x04\n      add\n      tag_45\n      swap1\n      tag_46\n      jump\t// in\n    tag_45:\n      mload(0x40)\n      dup1\n      swap2\n      sub\n      swap1\n      revert\n    tag_44:\n        /* \"Samples/abcArrayStruct.sol\":1185:1195  msg.sender */\n      caller\n        /* \"Samples/abcArrayStruct.sol\":1165:1177  updateRecord */\n      dup2\n        /* \"Samples/abcArrayStruct.sol\":1165:1183  updateRecord.owner */\n      0x02\n      add\n      0x00\n        /* \"Samples/abcArrayStruct.sol\":1165:1195  updateRecord.owner =msg.sender */\n      0x0100\n      exp\n      dup2\n      sload\n      dup2\n      0xffffffffffffffffffffffffffffffffffffffff\n      mul\n      not\n      and\n      swap1\n      dup4\n      0xffffffffffffffffffffffffffffffffffffffff\n      and\n      mul\n      or\n      swap1\n      sstore\n      pop\n        /* \"Samples/abcArrayStruct.sol\":1226:1230  true */\n      0x01\n        /* \"Samples/abcArrayStruct.sol\":1206:1218  updateRecord */\n      dup2\n        /* \"Samples/abcArrayStruct.sol\":1206:1223  updateRecord.sold */\n      0x02\n      add\n      0x14\n        /* \"Samples/abcArrayStruct.sol\":1206:1230  updateRecord.sold = true */\n      0x0100\n      exp\n      dup2\n      sload\n      dup2\n      0xff\n      mul\n      not\n      and\n      swap1\n      dup4\n      iszero\n      iszero\n      mul\n      or\n      swap1\n      sstore\n      pop\n        /* \"Samples/abcArrayStruct.sol\":1243:1256  uint256 index */\n      0x00\n        /* \"Samples/abcArrayStruct.sol\":1259:1266  indexOf */\n      0x04\n        /* \"Samples/abcArrayStruct.sol\":1259:1277  indexOf[vehicleID] */\n      0x00\n        /* \"Samples/abcArrayStruct.sol\":1267:1276  vehicleID */\n      dup5\n        /* \"Samples/abcArrayStruct.sol\":1259:1277  indexOf[vehicleID] */\n      dup2\n      mstore\n      0x20\n      add\n      swap1\n      dup2\n      mstore\n      0x20\n      add\n      0x00\n      keccak256\n      sload\n        /* \"Samples/abcArrayStruct.sol\":1243:1277  uint256 index = indexOf[vehicleID] */\n      swap1\n      pop\n        /* \"Samples/abcArrayStruct.sol\":1312:1324  updateRecord */\n      dup2\n        /* \"Samples/abcArrayStruct.sol\":1288:1302  vehicleRecords */\n      0x02\n        /* \"Samples/abcArrayStruct.sol\":1303:1308  index */\n      dup3\n        /* \"Samples/abcArrayStruct.sol\":1288:1309  vehicleRecords[index] */\n      dup2\n      sload\n      dup2\n      lt\n      tag_47\n      jumpi\n      tag_48\n      tag_49\n      jump\t// in\n    tag_48:\n    tag_47:\n      swap1\n      0x00\n      mstore\n      keccak256(0x00, 0x20)\n      swap1\n      0x03\n      mul\n      add\n        /* \"Samples/abcArrayStruct.sol\":1288:1324  vehicleRecords[index] = updateRecord */\n      0x00\n      dup3\n      add\n      dup2\n      0x00\n      add\n      swap1\n      dup1\n      sload\n      tag_51\n      swap1\n      tag_52\n      jump\t// in\n    tag_51:\n      tag_53\n      swap3\n      swap2\n      swap1\n      tag_54\n      jump\t// in\n    tag_53:\n      pop\n      0x01\n      dup3\n      add\n      sload\n      dup2\n      0x01\n      add\n      sstore\n      0x02\n      dup3\n      add\n      0x00\n      swap1\n      sload\n      swap1\n      0x0100\n      exp\n      swap1\n      div\n      0xffffffffffffffffffffffffffffffffffffffff\n      and\n      dup2\n      0x02\n      add\n      exp(0x0100, 0x00)\n      dup2\n      sload\n      dup2\n      0xffffffffffffffffffffffffffffffffffffffff\n      mul\n      not\n      and\n      swap1\n      dup4\n      0xffffffffffffffffffffffffffffffffffffffff\n      and\n      mul\n      or\n      swap1\n      sstore\n      pop\n      0x02\n      dup3\n      add\n      0x14\n      swap1\n      sload\n      swap1\n      0x0100\n      exp\n      swap1\n      div\n      0xff\n      and\n      dup2\n      0x02\n      add\n      exp(0x0100, 0x14)\n      dup2\n      sload\n      dup2\n      0xff\n      mul\n      not\n      and\n      swap1\n      dup4\n      iszero\n      iszero\n      mul\n      or\n      swap1\n      sstore\n      pop\n      swap1\n      pop\n      pop\n        /* \"Samples/abcArrayStruct.sol\":971:1334  {\r... */\n      pop\n      pop\n        /* \"Samples/abcArrayStruct.sol\":918:1334  function buytheVehicle(uint vehicleID) public payable{\r... */\n      pop\n      jump\t// out\n        /* \"Samples/abcArrayStruct.sol\":1342:1447  function getRecords() public view returns(ListofVehicle[] memory){\r... */\n    tag_24:\n        /* \"Samples/abcArrayStruct.sol\":1384:1406  ListofVehicle[] memory */\n      0x60\n        /* \"Samples/abcArrayStruct.sol\":1425:1439  vehicleRecords */\n      0x02\n        /* \"Samples/abcArrayStruct.sol\":1418:1439  return vehicleRecords */\n      dup1\n      sload\n      dup1\n      0x20\n      mul\n      0x20\n      add\n      mload(0x40)\n      swap1\n      dup2\n      add\n      0x40\n      mstore\n      dup1\n      swap3\n      swap2\n      swap1\n      dup2\n      dup2\n      mstore\n      0x20\n      add\n      0x00\n      swap1\n    tag_56:\n      dup3\n      dup3\n      lt\n      iszero\n      tag_57\n      jumpi\n      dup4\n      dup3\n      swap1\n      0x00\n      mstore\n      keccak256(0x00, 0x20)\n      swap1\n      0x03\n      mul\n      add\n      mload(0x40)\n      dup1\n      0x80\n      add\n      0x40\n      mstore\n      swap1\n      dup2\n      0x00\n      dup3\n      add\n      dup1\n      sload\n      tag_59\n      swap1\n      tag_52\n      jump\t// in\n    tag_59:\n      dup1\n      0x1f\n      add\n      0x20\n      dup1\n      swap2\n      div\n      mul\n      0x20\n      add\n      mload(0x40)\n      swap1\n      dup2\n      add\n      0x40\n      mstore\n      dup1\n      swap3\n      swap2\n      swap1\n      dup2\n      dup2\n      mstore\n      0x20\n      add\n      dup3\n      dup1\n      sload\n      tag_60\n      swap1\n      tag_52\n      jump\t// in\n    tag_60:\n      dup1\n      iszero\n      tag_61\n      jumpi\n      dup1\n      0x1f\n      lt\n      tag_62\n      jumpi\n      0x0100\n      dup1\n      dup4\n      sload\n      div\n      mul\n      dup4\n      mstore\n      swap2\n      0x20\n      add\n      swap2\n      jump(tag_61)\n    tag_62:\n      dup3\n      add\n      swap2\n      swap1\n      0x00\n      mstore\n      keccak256(0x00, 0x20)\n      swap1\n    tag_63:\n      dup2\n      sload\n      dup2\n      mstore\n      swap1\n      0x01\n      add\n      swap1\n      0x20\n      add\n      dup1\n      dup4\n      gt\n      tag_63\n      jumpi\n      dup3\n      swap1\n      sub\n      0x1f\n      and\n      dup3\n      add\n      swap2\n    tag_61:\n      pop\n      pop\n      pop\n      pop\n      pop\n      dup2\n      mstore\n      0x20\n      add\n      0x01\n      dup3\n      add\n      sload\n      dup2\n      mstore\n      0x20\n      add\n      0x02\n      dup3\n      add\n      0x00\n      swap1\n      sload\n      swap1\n      0x0100\n      exp\n      swap1\n      div\n      0xffffffffffffffffffffffffffffffffffffffff\n      and\n      0xffffffffffffffffffffffffffffffffffffffff\n      and\n      0xffffffffffffffffffffffffffffffffffffffff\n      and\n      dup2\n      mstore\n      0x20\n      add\n      0x02\n      dup3\n      add\n      0x14\n      swap1\n      sload\n      swap1\n      0x0100\n      exp\n      swap1\n      div\n      0xff\n      and\n      iszero\n      iszero\n      iszero\n      iszero\n      dup2\n      mstore\n      pop\n      pop\n      dup2\n      mstore\n      0x20\n      add\n      swap1\n      0x01\n      add\n      swap1\n      jump(tag_56)\n    tag_57:\n      pop\n      pop\n      pop\n      pop\n      swap1\n      pop\n        /* \"Samples/abcArrayStruct.sol\":1342:1447  function getRecords() public view returns(ListofVehicle[] memory){\r... */\n      swap1\n      jump\t// out\n        /* \"Samples/abcArrayStruct.sol\":416:458  mapping(uint256 => uint256) public indexOf */\n    tag_30:\n      mstore(0x20, 0x04)\n      dup1\n      0x00\n      mstore\n      keccak256(0x00, 0x40)\n      0x00\n      swap2\n      pop\n      swap1\n      pop\n      sload\n      dup2\n      jump\t// out\n        /* \"Samples/abcArrayStruct.sol\":361:409  mapping(uint=> ListofVehicle) public showVehicle */\n    tag_35:\n      mstore(0x20, 0x03)\n      dup1\n      0x00\n      mstore\n      keccak256(0x00, 0x40)\n      0x00\n      swap2\n      pop\n      swap1\n      pop\n      dup1\n      0x00\n      add\n      dup1\n      sload\n      tag_64\n      swap1\n      tag_52\n      jump\t// in\n    tag_64:\n      dup1\n      0x1f\n      add\n      0x20\n      dup1\n      swap2\n      div\n      mul\n      0x20\n      add\n      mload(0x40)\n      swap1\n      dup2\n      add\n      0x40\n      mstore\n      dup1\n      swap3\n      swap2\n      swap1\n      dup2\n      dup2\n      mstore\n      0x20\n      add\n      dup3\n      dup1\n      sload\n      tag_65\n      swap1\n      tag_52\n      jump\t// in\n    tag_65:\n      dup1\n      iszero\n      tag_66\n      jumpi\n      dup1\n      0x1f\n      lt\n      tag_67\n      jumpi\n      0x0100\n      dup1\n      dup4\n      sload\n      div\n      mul\n      dup4\n      mstore\n      swap2\n      0x20\n      add\n      swap2\n      jump(tag_66)\n    tag_67:\n      dup3\n      add\n      swap2\n      swap1\n      0x00\n      mstore\n      keccak256(0x00, 0x20)\n      swap1\n    tag_68:\n      dup2\n      sload\n      dup2\n      mstore\n      swap1\n      0x01\n      add\n      swap1\n      0x20\n      add\n      dup1\n      dup4\n      gt\n      tag_68\n      jumpi\n      dup3\n      swap1\n      sub\n      0x1f\n      and\n      dup3\n      add\n      swap2\n    tag_66:\n      pop\n      pop\n      pop\n      pop\n      pop\n      swap1\n      dup1\n      0x01\n      add\n      sload\n      swap1\n      dup1\n      0x02\n      add\n      0x00\n      swap1\n      sload\n      swap1\n      0x0100\n      exp\n      swap1\n      div\n      0xffffffffffffffffffffffffffffffffffffffff\n      and\n      swap1\n      dup1\n      0x02\n      add\n      0x14\n      swap1\n      sload\n      swap1\n      0x0100\n      exp\n      swap1\n      div\n      0xff\n      and\n      swap1\n      pop\n      dup5\n      jump\t// out\n        /* \"Samples/abcArrayStruct.sol\":467:910  function addvehicle(uint vehicleID,string memory Name,uint Price) public{\r... */\n    tag_42:\n        /* \"Samples/abcArrayStruct.sol\":571:576  owner */\n      0x00\n      dup1\n      sload\n      swap1\n      0x0100\n      exp\n      swap1\n      div\n      0xffffffffffffffffffffffffffffffffffffffff\n      and\n        /* \"Samples/abcArrayStruct.sol\":558:576  msg.sender== owner */\n      0xffffffffffffffffffffffffffffffffffffffff\n      and\n        /* \"Samples/abcArrayStruct.sol\":558:568  msg.sender */\n      caller\n        /* \"Samples/abcArrayStruct.sol\":558:576  msg.sender== owner */\n      0xffffffffffffffffffffffffffffffffffffffff\n      and\n      eq\n        /* \"Samples/abcArrayStruct.sol\":550:611  require(msg.sender== owner, \"only owner can add the vehicle\") */\n      tag_70\n      jumpi\n      mload(0x40)\n      0x08c379a000000000000000000000000000000000000000000000000000000000\n      dup2\n      mstore\n      0x04\n      add\n      tag_71\n      swap1\n      tag_72\n      jump\t// in\n    tag_71:\n      mload(0x40)\n      dup1\n      swap2\n      sub\n      swap1\n      revert\n    tag_70:\n        /* \"Samples/abcArrayStruct.sol\":622:649  ListofVehicle memory Record */\n      tag_73\n      tag_74\n      jump\t// in\n    tag_73:\n        /* \"Samples/abcArrayStruct.sol\":672:676  Name */\n      dup3\n        /* \"Samples/abcArrayStruct.sol\":660:666  Record */\n      dup2\n        /* \"Samples/abcArrayStruct.sol\":660:671  Record.name */\n      0x00\n      add\n        /* \"Samples/abcArrayStruct.sol\":660:676  Record.name=Name */\n      dup2\n      swap1\n      mstore\n      pop\n        /* \"Samples/abcArrayStruct.sol\":700:705  Price */\n      dup2\n        /* \"Samples/abcArrayStruct.sol\":687:693  Record */\n      dup2\n        /* \"Samples/abcArrayStruct.sol\":687:699  Record.price */\n      0x20\n      add\n        /* \"Samples/abcArrayStruct.sol\":687:705  Record.price=Price */\n      dup2\n      dup2\n      mstore\n      pop\n      pop\n        /* \"Samples/abcArrayStruct.sol\":729:739  msg.sender */\n      caller\n        /* \"Samples/abcArrayStruct.sol\":716:722  Record */\n      dup2\n        /* \"Samples/abcArrayStruct.sol\":716:728  Record.owner */\n      0x40\n      add\n        /* \"Samples/abcArrayStruct.sol\":716:739  Record.owner=msg.sender */\n      swap1\n      0xffffffffffffffffffffffffffffffffffffffff\n      and\n      swap1\n      dup2\n      0xffffffffffffffffffffffffffffffffffffffff\n      and\n      dup2\n      mstore\n      pop\n      pop\n        /* \"Samples/abcArrayStruct.sol\":775:781  Record */\n      dup1\n        /* \"Samples/abcArrayStruct.sol\":750:761  showVehicle */\n      0x03\n        /* \"Samples/abcArrayStruct.sol\":750:772  showVehicle[vehicleID] */\n      0x00\n        /* \"Samples/abcArrayStruct.sol\":762:771  vehicleID */\n      dup7\n        /* \"Samples/abcArrayStruct.sol\":750:772  showVehicle[vehicleID] */\n      dup2\n      mstore\n      0x20\n      add\n      swap1\n      dup2\n      mstore\n      0x20\n      add\n      0x00\n      keccak256\n        /* \"Samples/abcArrayStruct.sol\":750:781  showVehicle[vehicleID] = Record */\n      0x00\n      dup3\n      add\n      mload\n      dup2\n      0x00\n      add\n      swap1\n      dup1\n      mload\n      swap1\n      0x20\n      add\n      swap1\n      tag_75\n      swap3\n      swap2\n      swap1\n      tag_76\n      jump\t// in\n    tag_75:\n      pop\n      0x20\n      dup3\n      add\n      mload\n      dup2\n      0x01\n      add\n      sstore\n      0x40\n      dup3\n      add\n      mload\n      dup2\n      0x02\n      add\n      exp(0x0100, 0x00)\n      dup2\n      sload\n      dup2\n      0xffffffffffffffffffffffffffffffffffffffff\n      mul\n      not\n      and\n      swap1\n      dup4\n      0xffffffffffffffffffffffffffffffffffffffff\n      and\n      mul\n      or\n      swap1\n      sstore\n      pop\n      0x60\n      dup3\n      add\n      mload\n      dup2\n      0x02\n      add\n      exp(0x0100, 0x14)\n      dup2\n      sload\n      dup2\n      0xff\n      mul\n      not\n      and\n      swap1\n      dup4\n      iszero\n      iszero\n      mul\n      or\n      swap1\n      sstore\n      pop\n      swap1\n      pop\n      pop\n        /* \"Samples/abcArrayStruct.sol\":813:818  count */\n      sload(0x01)\n        /* \"Samples/abcArrayStruct.sol\":792:799  indexOf */\n      0x04\n        /* \"Samples/abcArrayStruct.sol\":792:810  indexOf[vehicleID] */\n      0x00\n        /* \"Samples/abcArrayStruct.sol\":800:809  vehicleID */\n      dup7\n        /* \"Samples/abcArrayStruct.sol\":792:810  indexOf[vehicleID] */\n      dup2\n      mstore\n      0x20\n      add\n      swap1\n      dup2\n      mstore\n      0x20\n      add\n      0x00\n      keccak256\n        /* \"Samples/abcArrayStruct.sol\":792:818  indexOf[vehicleID] = count */\n      dup2\n      swap1\n      sstore\n      pop\n        /* \"Samples/abcArrayStruct.sol\":829:843  vehicleRecords */\n      0x02\n        /* \"Samples/abcArrayStruct.sol\":849:855  Record */\n      dup2\n        /* \"Samples/abcArrayStruct.sol\":829:856  vehicleRecords.push(Record) */\n      swap1\n      dup1\n      0x01\n      dup2\n      sload\n      add\n      dup1\n      dup3\n      sstore\n      dup1\n      swap2\n      pop\n      pop\n      0x01\n      swap1\n      sub\n      swap1\n      0x00\n      mstore\n      keccak256(0x00, 0x20)\n      swap1\n      0x03\n      mul\n      add\n      0x00\n      swap1\n      swap2\n      swap1\n      swap2\n      swap1\n      swap2\n      pop\n      0x00\n      dup3\n      add\n      mload\n      dup2\n      0x00\n      add\n      swap1\n      dup1\n      mload\n      swap1\n      0x20\n      add\n      swap1\n      tag_78\n      swap3\n      swap2\n      swap1\n      tag_76\n      jump\t// in\n    tag_78:\n      pop\n      0x20\n      dup3\n      add\n      mload\n      dup2\n      0x01\n      add\n      sstore\n      0x40\n      dup3\n      add\n      mload\n      dup2\n      0x02\n      add\n      exp(0x0100, 0x00)\n      dup2\n      sload\n      dup2\n      0xffffffffffffffffffffffffffffffffffffffff\n      mul\n      not\n      and\n      swap1\n      dup4\n      0xffffffffffffffffffffffffffffffffffffffff\n      and\n      mul\n      or\n      swap1\n      sstore\n      pop\n      0x60\n      dup3\n      add\n      mload\n      dup2\n      0x02\n      add\n      exp(0x0100, 0x14)\n      dup2\n      sload\n      dup2\n      0xff\n      mul\n      not\n      and\n      swap1\n      dup4\n      iszero\n      iszero\n      mul\n      or\n      swap1\n      sstore\n      pop\n      pop\n      pop\n        /* \"Samples/abcArrayStruct.sol\":879:884  false */\n      0x00\n        /* \"Samples/abcArrayStruct.sol\":867:873  Record */\n      dup2\n        /* \"Samples/abcArrayStruct.sol\":867:878  Record.sold */\n      0x60\n      add\n        /* \"Samples/abcArrayStruct.sol\":867:884  Record.sold=false */\n      swap1\n      iszero\n      iszero\n      swap1\n      dup2\n      iszero\n      iszero\n      dup2\n      mstore\n      pop\n      pop\n        /* \"Samples/abcArrayStruct.sol\":895:900  count */\n      0x01\n      0x00\n        /* \"Samples/abcArrayStruct.sol\":895:902  count++ */\n      dup2\n      sload\n      dup1\n      swap3\n      swap2\n      swap1\n      tag_79\n      swap1\n      tag_80\n      jump\t// in\n    tag_79:\n      swap2\n      swap1\n      pop\n      sstore\n      pop\n        /* \"Samples/abcArrayStruct.sol\":539:910  {\r... */\n      pop\n        /* \"Samples/abcArrayStruct.sol\":467:910  function addvehicle(uint vehicleID,string memory Name,uint Price) public{\r... */\n      pop\n      pop\n      pop\n      jump\t// out\n    tag_54:\n      dup3\n      dup1\n      sload\n      tag_81\n      swap1\n      tag_52\n      jump\t// in\n    tag_81:\n      swap1\n      0x00\n      mstore\n      keccak256(0x00, 0x20)\n      swap1\n      0x1f\n      add\n      0x20\n      swap1\n      div\n      dup2\n      add\n      swap3\n      dup3\n      tag_83\n      jumpi\n      0x00\n      dup6\n      sstore\n      jump(tag_82)\n    tag_83:\n      dup3\n      0x1f\n      lt\n      tag_84\n      jumpi\n      dup1\n      sload\n      dup6\n      sstore\n      jump(tag_82)\n    tag_84:\n      dup3\n      dup1\n      add\n      0x01\n      add\n      dup6\n      sstore\n      dup3\n      iszero\n      tag_82\n      jumpi\n      0x00\n      mstore\n      keccak256(0x00, 0x20)\n      swap2\n      0x1f\n      add\n      0x20\n      swap1\n      div\n      dup3\n      add\n    tag_85:\n      dup3\n      dup2\n      gt\n      iszero\n      tag_86\n      jumpi\n      dup3\n      sload\n      dup3\n      sstore\n      swap2\n      0x01\n      add\n      swap2\n      swap1\n      0x01\n      add\n      swap1\n      jump(tag_85)\n    tag_86:\n    tag_82:\n      pop\n      swap1\n      pop\n      tag_87\n      swap2\n      swap1\n      tag_88\n      jump\t// in\n    tag_87:\n      pop\n      swap1\n      jump\t// out\n    tag_74:\n      mload(0x40)\n      dup1\n      0x80\n      add\n      0x40\n      mstore\n      dup1\n      0x60\n      dup2\n      mstore\n      0x20\n      add\n      0x00\n      dup2\n      mstore\n      0x20\n      add\n      and(0xffffffffffffffffffffffffffffffffffffffff, 0x00)\n      dup2\n      mstore\n      0x20\n      add\n      iszero(iszero(0x00))\n      dup2\n      mstore\n      pop\n      swap1\n      jump\t// out\n    tag_76:\n      dup3\n      dup1\n      sload\n      tag_89\n      swap1\n      tag_52\n      jump\t// in\n    tag_89:\n      swap1\n      0x00\n      mstore\n      keccak256(0x00, 0x20)\n      swap1\n      0x1f\n      add\n      0x20\n      swap1\n      div\n      dup2\n      add\n      swap3\n      dup3\n      tag_91\n      jumpi\n      0x00\n      dup6\n      sstore\n      jump(tag_90)\n    tag_91:\n      dup3\n      0x1f\n      lt\n      tag_92\n      jumpi\n      dup1\n      mload\n      not(0xff)\n      and\n      dup4\n      dup1\n      add\n      or\n      dup6\n      sstore\n      jump(tag_90)\n    tag_92:\n      dup3\n      dup1\n      add\n      0x01\n      add\n      dup6\n      sstore\n      dup3\n      iszero\n      tag_90\n      jumpi\n      swap2\n      dup3\n      add\n    tag_93:\n      dup3\n      dup2\n      gt\n      iszero\n      tag_94\n      jumpi\n      dup3\n      mload\n      dup3\n      sstore\n      swap2\n      0x20\n      add\n      swap2\n      swap1\n      0x01\n      add\n      swap1\n      jump(tag_93)\n    tag_94:\n    tag_90:\n      pop\n      swap1\n      pop\n      tag_95\n      swap2\n      swap1\n      tag_88\n      jump\t// in\n    tag_95:\n      pop\n      swap1\n      jump\t// out\n    tag_88:\n    tag_96:\n      dup1\n      dup3\n      gt\n      iszero\n      tag_97\n      jumpi\n      0x00\n      dup2\n      0x00\n      swap1\n      sstore\n      pop\n      0x01\n      add\n      jump(tag_96)\n    tag_97:\n      pop\n      swap1\n      jump\t// out\n        /* \"#utility.yul\":7:419   */\n    tag_99:\n        /* \"#utility.yul\":85:90   */\n      0x00\n        /* \"#utility.yul\":110:176   */\n      tag_101\n        /* \"#utility.yul\":126:175   */\n      tag_102\n        /* \"#utility.yul\":168:174   */\n      dup5\n        /* \"#utility.yul\":126:175   */\n      tag_103\n      jump\t// in\n    tag_102:\n        /* \"#utility.yul\":110:176   */\n      tag_104\n      jump\t// in\n    tag_101:\n        /* \"#utility.yul\":101:176   */\n      swap1\n      pop\n        /* \"#utility.yul\":199:205   */\n      dup3\n        /* \"#utility.yul\":192:197   */\n      dup2\n        /* \"#utility.yul\":185:206   */\n      mstore\n        /* \"#utility.yul\":237:241   */\n      0x20\n        /* \"#utility.yul\":230:235   */\n      dup2\n        /* \"#utility.yul\":226:242   */\n      add\n        /* \"#utility.yul\":275:278   */\n      dup5\n        /* \"#utility.yul\":266:272   */\n      dup5\n        /* \"#utility.yul\":261:264   */\n      dup5\n        /* \"#utility.yul\":257:273   */\n      add\n        /* \"#utility.yul\":254:279   */\n      gt\n        /* \"#utility.yul\":251:363   */\n      iszero\n      tag_105\n      jumpi\n        /* \"#utility.yul\":282:361   */\n      tag_106\n      tag_107\n      jump\t// in\n    tag_106:\n        /* \"#utility.yul\":251:363   */\n    tag_105:\n        /* \"#utility.yul\":372:413   */\n      tag_108\n        /* \"#utility.yul\":406:412   */\n      dup5\n        /* \"#utility.yul\":401:404   */\n      dup3\n        /* \"#utility.yul\":396:399   */\n      dup6\n        /* \"#utility.yul\":372:413   */\n      tag_109\n      jump\t// in\n    tag_108:\n        /* \"#utility.yul\":91:419   */\n      pop\n        /* \"#utility.yul\":7:419   */\n      swap4\n      swap3\n      pop\n      pop\n      pop\n      jump\t// out\n        /* \"#utility.yul\":439:779   */\n    tag_110:\n        /* \"#utility.yul\":495:500   */\n      0x00\n        /* \"#utility.yul\":544:547   */\n      dup3\n        /* \"#utility.yul\":537:541   */\n      0x1f\n        /* \"#utility.yul\":529:535   */\n      dup4\n        /* \"#utility.yul\":525:542   */\n      add\n        /* \"#utility.yul\":521:548   */\n      slt\n        /* \"#utility.yul\":511:633   */\n      tag_112\n      jumpi\n        /* \"#utility.yul\":552:631   */\n      tag_113\n      tag_114\n      jump\t// in\n    tag_113:\n        /* \"#utility.yul\":511:633   */\n    tag_112:\n        /* \"#utility.yul\":669:675   */\n      dup2\n        /* \"#utility.yul\":656:676   */\n      calldataload\n        /* \"#utility.yul\":694:773   */\n      tag_115\n        /* \"#utility.yul\":769:772   */\n      dup5\n        /* \"#utility.yul\":761:767   */\n      dup3\n        /* \"#utility.yul\":754:758   */\n      0x20\n        /* \"#utility.yul\":746:752   */\n      dup7\n        /* \"#utility.yul\":742:759   */\n      add\n        /* \"#utility.yul\":694:773   */\n      tag_99\n      jump\t// in\n    tag_115:\n        /* \"#utility.yul\":685:773   */\n      swap2\n      pop\n        /* \"#utility.yul\":501:779   */\n      pop\n        /* \"#utility.yul\":439:779   */\n      swap3\n      swap2\n      pop\n      pop\n      jump\t// out\n        /* \"#utility.yul\":785:924   */\n    tag_116:\n        /* \"#utility.yul\":831:836   */\n      0x00\n        /* \"#utility.yul\":869:875   */\n      dup2\n        /* \"#utility.yul\":856:876   */\n      calldataload\n        /* \"#utility.yul\":847:876   */\n      swap1\n      pop\n        /* \"#utility.yul\":885:918   */\n      tag_118\n        /* \"#utility.yul\":912:917   */\n      dup2\n        /* \"#utility.yul\":885:918   */\n      tag_119\n      jump\t// in\n    tag_118:\n        /* \"#utility.yul\":785:924   */\n      swap3\n      swap2\n      pop\n      pop\n      jump\t// out\n        /* \"#utility.yul\":930:1259   */\n    tag_20:\n        /* \"#utility.yul\":989:995   */\n      0x00\n        /* \"#utility.yul\":1038:1040   */\n      0x20\n        /* \"#utility.yul\":1026:1035   */\n      dup3\n        /* \"#utility.yul\":1017:1024   */\n      dup5\n        /* \"#utility.yul\":1013:1036   */\n      sub\n        /* \"#utility.yul\":1009:1041   */\n      slt\n        /* \"#utility.yul\":1006:1125   */\n      iszero\n      tag_121\n      jumpi\n        /* \"#utility.yul\":1044:1123   */\n      tag_122\n      tag_123\n      jump\t// in\n    tag_122:\n        /* \"#utility.yul\":1006:1125   */\n    tag_121:\n        /* \"#utility.yul\":1164:1165   */\n      0x00\n        /* \"#utility.yul\":1189:1242   */\n      tag_124\n        /* \"#utility.yul\":1234:1241   */\n      dup5\n        /* \"#utility.yul\":1225:1231   */\n      dup3\n        /* \"#utility.yul\":1214:1223   */\n      dup6\n        /* \"#utility.yul\":1210:1232   */\n      add\n        /* \"#utility.yul\":1189:1242   */\n      tag_116\n      jump\t// in\n    tag_124:\n        /* \"#utility.yul\":1179:1242   */\n      swap2\n      pop\n        /* \"#utility.yul\":1135:1252   */\n      pop\n        /* \"#utility.yul\":930:1259   */\n      swap3\n      swap2\n      pop\n      pop\n      jump\t// out\n        /* \"#utility.yul\":1265:2064   */\n    tag_41:\n        /* \"#utility.yul\":1352:1358   */\n      0x00\n        /* \"#utility.yul\":1360:1366   */\n      dup1\n        /* \"#utility.yul\":1368:1374   */\n      0x00\n        /* \"#utility.yul\":1417:1419   */\n      0x60\n        /* \"#utility.yul\":1405:1414   */\n      dup5\n        /* \"#utility.yul\":1396:1403   */\n      dup7\n        /* \"#utility.yul\":1392:1415   */\n      sub\n        /* \"#utility.yul\":1388:1420   */\n      slt\n        /* \"#utility.yul\":1385:1504   */\n      iszero\n      tag_126\n      jumpi\n        /* \"#utility.yul\":1423:1502   */\n      tag_127\n      tag_123\n      jump\t// in\n    tag_127:\n        /* \"#utility.yul\":1385:1504   */\n    tag_126:\n        /* \"#utility.yul\":1543:1544   */\n      0x00\n        /* \"#utility.yul\":1568:1621   */\n      tag_128\n        /* \"#utility.yul\":1613:1620   */\n      dup7\n        /* \"#utility.yul\":1604:1610   */\n      dup3\n        /* \"#utility.yul\":1593:1602   */\n      dup8\n        /* \"#utility.yul\":1589:1611   */\n      add\n        /* \"#utility.yul\":1568:1621   */\n      tag_116\n      jump\t// in\n    tag_128:\n        /* \"#utility.yul\":1558:1621   */\n      swap4\n      pop\n        /* \"#utility.yul\":1514:1631   */\n      pop\n        /* \"#utility.yul\":1698:1700   */\n      0x20\n        /* \"#utility.yul\":1687:1696   */\n      dup5\n        /* \"#utility.yul\":1683:1701   */\n      add\n        /* \"#utility.yul\":1670:1702   */\n      calldataload\n        /* \"#utility.yul\":1729:1747   */\n      0xffffffffffffffff\n        /* \"#utility.yul\":1721:1727   */\n      dup2\n        /* \"#utility.yul\":1718:1748   */\n      gt\n        /* \"#utility.yul\":1715:1832   */\n      iszero\n      tag_129\n      jumpi\n        /* \"#utility.yul\":1751:1830   */\n      tag_130\n      tag_131\n      jump\t// in\n    tag_130:\n        /* \"#utility.yul\":1715:1832   */\n    tag_129:\n        /* \"#utility.yul\":1856:1919   */\n      tag_132\n        /* \"#utility.yul\":1911:1918   */\n      dup7\n        /* \"#utility.yul\":1902:1908   */\n      dup3\n        /* \"#utility.yul\":1891:1900   */\n      dup8\n        /* \"#utility.yul\":1887:1909   */\n      add\n        /* \"#utility.yul\":1856:1919   */\n      tag_110\n      jump\t// in\n    tag_132:\n        /* \"#utility.yul\":1846:1919   */\n      swap3\n      pop\n        /* \"#utility.yul\":1641:1929   */\n      pop\n        /* \"#utility.yul\":1968:1970   */\n      0x40\n        /* \"#utility.yul\":1994:2047   */\n      tag_133\n        /* \"#utility.yul\":2039:2046   */\n      dup7\n        /* \"#utility.yul\":2030:2036   */\n      dup3\n        /* \"#utility.yul\":2019:2028   */\n      dup8\n        /* \"#utility.yul\":2015:2037   */\n      add\n        /* \"#utility.yul\":1994:2047   */\n      tag_116\n      jump\t// in\n    tag_133:\n        /* \"#utility.yul\":1984:2047   */\n      swap2\n      pop\n        /* \"#utility.yul\":1939:2057   */\n      pop\n        /* \"#utility.yul\":1265:2064   */\n      swap3\n      pop\n      swap3\n      pop\n      swap3\n      jump\t// out\n        /* \"#utility.yul\":2070:2342   */\n    tag_134:\n        /* \"#utility.yul\":2197:2207   */\n      0x00\n        /* \"#utility.yul\":2232:2336   */\n      tag_136\n        /* \"#utility.yul\":2332:2335   */\n      dup4\n        /* \"#utility.yul\":2324:2330   */\n      dup4\n        /* \"#utility.yul\":2232:2336   */\n      tag_137\n      jump\t// in\n    tag_136:\n        /* \"#utility.yul\":2218:2336   */\n      swap1\n      pop\n        /* \"#utility.yul\":2070:2342   */\n      swap3\n      swap2\n      pop\n      pop\n      jump\t// out\n        /* \"#utility.yul\":2348:2456   */\n    tag_138:\n        /* \"#utility.yul\":2425:2449   */\n      tag_140\n        /* \"#utility.yul\":2443:2448   */\n      dup2\n        /* \"#utility.yul\":2425:2449   */\n      tag_141\n      jump\t// in\n    tag_140:\n        /* \"#utility.yul\":2420:2423   */\n      dup3\n        /* \"#utility.yul\":2413:2450   */\n      mstore\n        /* \"#utility.yul\":2348:2456   */\n      pop\n      pop\n      jump\t// out\n        /* \"#utility.yul\":2462:2580   */\n    tag_142:\n        /* \"#utility.yul\":2549:2573   */\n      tag_144\n        /* \"#utility.yul\":2567:2572   */\n      dup2\n        /* \"#utility.yul\":2549:2573   */\n      tag_141\n      jump\t// in\n    tag_144:\n        /* \"#utility.yul\":2544:2547   */\n      dup3\n        /* \"#utility.yul\":2537:2574   */\n      mstore\n        /* \"#utility.yul\":2462:2580   */\n      pop\n      pop\n      jump\t// out\n        /* \"#utility.yul\":2674:3817   */\n    tag_145:\n        /* \"#utility.yul\":2851:2854   */\n      0x00\n        /* \"#utility.yul\":2880:2963   */\n      tag_147\n        /* \"#utility.yul\":2957:2962   */\n      dup3\n        /* \"#utility.yul\":2880:2963   */\n      tag_148\n      jump\t// in\n    tag_147:\n        /* \"#utility.yul\":2979:3094   */\n      tag_149\n        /* \"#utility.yul\":3087:3093   */\n      dup2\n        /* \"#utility.yul\":3082:3085   */\n      dup6\n        /* \"#utility.yul\":2979:3094   */\n      tag_150\n      jump\t// in\n    tag_149:\n        /* \"#utility.yul\":2972:3094   */\n      swap4\n      pop\n        /* \"#utility.yul\":3120:3123   */\n      dup4\n        /* \"#utility.yul\":3165:3169   */\n      0x20\n        /* \"#utility.yul\":3157:3163   */\n      dup3\n        /* \"#utility.yul\":3153:3170   */\n      mul\n        /* \"#utility.yul\":3148:3151   */\n      dup6\n        /* \"#utility.yul\":3144:3171   */\n      add\n        /* \"#utility.yul\":3195:3280   */\n      tag_151\n        /* \"#utility.yul\":3274:3279   */\n      dup6\n        /* \"#utility.yul\":3195:3280   */\n      tag_152\n      jump\t// in\n    tag_151:\n        /* \"#utility.yul\":3303:3310   */\n      dup1\n        /* \"#utility.yul\":3334:3335   */\n      0x00\n        /* \"#utility.yul\":3319:3772   */\n    tag_153:\n        /* \"#utility.yul\":3344:3350   */\n      dup6\n        /* \"#utility.yul\":3341:3342   */\n      dup2\n        /* \"#utility.yul\":3338:3351   */\n      lt\n        /* \"#utility.yul\":3319:3772   */\n      iszero\n      tag_155\n      jumpi\n        /* \"#utility.yul\":3415:3424   */\n      dup5\n        /* \"#utility.yul\":3409:3413   */\n      dup5\n        /* \"#utility.yul\":3405:3425   */\n      sub\n        /* \"#utility.yul\":3400:3403   */\n      dup10\n        /* \"#utility.yul\":3393:3426   */\n      mstore\n        /* \"#utility.yul\":3466:3472   */\n      dup2\n        /* \"#utility.yul\":3460:3473   */\n      mload\n        /* \"#utility.yul\":3494:3616   */\n      tag_156\n        /* \"#utility.yul\":3611:3615   */\n      dup6\n        /* \"#utility.yul\":3596:3609   */\n      dup3\n        /* \"#utility.yul\":3494:3616   */\n      tag_134\n      jump\t// in\n    tag_156:\n        /* \"#utility.yul\":3486:3616   */\n      swap5\n      pop\n        /* \"#utility.yul\":3639:3728   */\n      tag_157\n        /* \"#utility.yul\":3721:3727   */\n      dup4\n        /* \"#utility.yul\":3639:3728   */\n      tag_158\n      jump\t// in\n    tag_157:\n        /* \"#utility.yul\":3629:3728   */\n      swap3\n      pop\n        /* \"#utility.yul\":3757:3761   */\n      0x20\n        /* \"#utility.yul\":3752:3755   */\n      dup11\n        /* \"#utility.yul\":3748:3762   */\n      add\n        /* \"#utility.yul\":3741:3762   */\n      swap10\n      pop\n        /* \"#utility.yul\":3379:3772   */\n      pop\n        /* \"#utility.yul\":3366:3367   */\n      0x01\n        /* \"#utility.yul\":3363:3364   */\n      dup2\n        /* \"#utility.yul\":3359:3368   */\n      add\n        /* \"#utility.yul\":3354:3368   */\n      swap1\n      pop\n        /* \"#utility.yul\":3319:3772   */\n      jump(tag_153)\n    tag_155:\n        /* \"#utility.yul\":3323:3337   */\n      pop\n        /* \"#utility.yul\":3788:3792   */\n      dup3\n        /* \"#utility.yul\":3781:3792   */\n      swap8\n      pop\n        /* \"#utility.yul\":3808:3811   */\n      dup8\n        /* \"#utility.yul\":3801:3811   */\n      swap6\n      pop\n        /* \"#utility.yul\":2856:3817   */\n      pop\n      pop\n      pop\n      pop\n      pop\n        /* \"#utility.yul\":2674:3817   */\n      swap3\n      swap2\n      pop\n      pop\n      jump\t// out\n        /* \"#utility.yul\":3823:3922   */\n    tag_159:\n        /* \"#utility.yul\":3894:3915   */\n      tag_161\n        /* \"#utility.yul\":3909:3914   */\n      dup2\n        /* \"#utility.yul\":3894:3915   */\n      tag_162\n      jump\t// in\n    tag_161:\n        /* \"#utility.yul\":3889:3892   */\n      dup3\n        /* \"#utility.yul\":3882:3916   */\n      mstore\n        /* \"#utility.yul\":3823:3922   */\n      pop\n      pop\n      jump\t// out\n        /* \"#utility.yul\":3928:4037   */\n    tag_163:\n        /* \"#utility.yul\":4009:4030   */\n      tag_165\n        /* \"#utility.yul\":4024:4029   */\n      dup2\n        /* \"#utility.yul\":4009:4030   */\n      tag_162\n      jump\t// in\n    tag_165:\n        /* \"#utility.yul\":4004:4007   */\n      dup3\n        /* \"#utility.yul\":3997:4031   */\n      mstore\n        /* \"#utility.yul\":3928:4037   */\n      pop\n      pop\n      jump\t// out\n        /* \"#utility.yul\":4043:4387   */\n    tag_166:\n        /* \"#utility.yul\":4121:4124   */\n      0x00\n        /* \"#utility.yul\":4149:4188   */\n      tag_168\n        /* \"#utility.yul\":4182:4187   */\n      dup3\n        /* \"#utility.yul\":4149:4188   */\n      tag_169\n      jump\t// in\n    tag_168:\n        /* \"#utility.yul\":4204:4265   */\n      tag_170\n        /* \"#utility.yul\":4258:4264   */\n      dup2\n        /* \"#utility.yul\":4253:4256   */\n      dup6\n        /* \"#utility.yul\":4204:4265   */\n      tag_171\n      jump\t// in\n    tag_170:\n        /* \"#utility.yul\":4197:4265   */\n      swap4\n      pop\n        /* \"#utility.yul\":4274:4326   */\n      tag_172\n        /* \"#utility.yul\":4319:4325   */\n      dup2\n        /* \"#utility.yul\":4314:4317   */\n      dup6\n        /* \"#utility.yul\":4307:4311   */\n      0x20\n        /* \"#utility.yul\":4300:4305   */\n      dup7\n        /* \"#utility.yul\":4296:4312   */\n      add\n        /* \"#utility.yul\":4274:4326   */\n      tag_173\n      jump\t// in\n    tag_172:\n        /* \"#utility.yul\":4351:4380   */\n      tag_174\n        /* \"#utility.yul\":4373:4379   */\n      dup2\n        /* \"#utility.yul\":4351:4380   */\n      tag_175\n      jump\t// in\n    tag_174:\n        /* \"#utility.yul\":4346:4349   */\n      dup5\n        /* \"#utility.yul\":4342:4381   */\n      add\n        /* \"#utility.yul\":4335:4381   */\n      swap2\n      pop\n        /* \"#utility.yul\":4125:4387   */\n      pop\n        /* \"#utility.yul\":4043:4387   */\n      swap3\n      swap2\n      pop\n      pop\n      jump\t// out\n        /* \"#utility.yul\":4393:4757   */\n    tag_176:\n        /* \"#utility.yul\":4481:4484   */\n      0x00\n        /* \"#utility.yul\":4509:4548   */\n      tag_178\n        /* \"#utility.yul\":4542:4547   */\n      dup3\n        /* \"#utility.yul\":4509:4548   */\n      tag_169\n      jump\t// in\n    tag_178:\n        /* \"#utility.yul\":4564:4635   */\n      tag_179\n        /* \"#utility.yul\":4628:4634   */\n      dup2\n        /* \"#utility.yul\":4623:4626   */\n      dup6\n        /* \"#utility.yul\":4564:4635   */\n      tag_180\n      jump\t// in\n    tag_179:\n        /* \"#utility.yul\":4557:4635   */\n      swap4\n      pop\n        /* \"#utility.yul\":4644:4696   */\n      tag_181\n        /* \"#utility.yul\":4689:4695   */\n      dup2\n        /* \"#utility.yul\":4684:4687   */\n      dup6\n        /* \"#utility.yul\":4677:4681   */\n      0x20\n        /* \"#utility.yul\":4670:4675   */\n      dup7\n        /* \"#utility.yul\":4666:4682   */\n      add\n        /* \"#utility.yul\":4644:4696   */\n      tag_173\n      jump\t// in\n    tag_181:\n        /* \"#utility.yul\":4721:4750   */\n      tag_182\n        /* \"#utility.yul\":4743:4749   */\n      dup2\n        /* \"#utility.yul\":4721:4750   */\n      tag_175\n      jump\t// in\n    tag_182:\n        /* \"#utility.yul\":4716:4719   */\n      dup5\n        /* \"#utility.yul\":4712:4751   */\n      add\n        /* \"#utility.yul\":4705:4751   */\n      swap2\n      pop\n        /* \"#utility.yul\":4485:4757   */\n      pop\n        /* \"#utility.yul\":4393:4757   */\n      swap3\n      swap2\n      pop\n      pop\n      jump\t// out\n        /* \"#utility.yul\":4763:5129   */\n    tag_183:\n        /* \"#utility.yul\":4905:4908   */\n      0x00\n        /* \"#utility.yul\":4926:4993   */\n      tag_185\n        /* \"#utility.yul\":4990:4992   */\n      0x24\n        /* \"#utility.yul\":4985:4988   */\n      dup4\n        /* \"#utility.yul\":4926:4993   */\n      tag_180\n      jump\t// in\n    tag_185:\n        /* \"#utility.yul\":4919:4993   */\n      swap2\n      pop\n        /* \"#utility.yul\":5002:5095   */\n      tag_186\n        /* \"#utility.yul\":5091:5094   */\n      dup3\n        /* \"#utility.yul\":5002:5095   */\n      tag_187\n      jump\t// in\n    tag_186:\n        /* \"#utility.yul\":5120:5122   */\n      0x40\n        /* \"#utility.yul\":5115:5118   */\n      dup3\n        /* \"#utility.yul\":5111:5123   */\n      add\n        /* \"#utility.yul\":5104:5123   */\n      swap1\n      pop\n        /* \"#utility.yul\":4763:5129   */\n      swap2\n      swap1\n      pop\n      jump\t// out\n        /* \"#utility.yul\":5135:5501   */\n    tag_188:\n        /* \"#utility.yul\":5277:5280   */\n      0x00\n        /* \"#utility.yul\":5298:5365   */\n      tag_190\n        /* \"#utility.yul\":5362:5364   */\n      0x1e\n        /* \"#utility.yul\":5357:5360   */\n      dup4\n        /* \"#utility.yul\":5298:5365   */\n      tag_180\n      jump\t// in\n    tag_190:\n        /* \"#utility.yul\":5291:5365   */\n      swap2\n      pop\n        /* \"#utility.yul\":5374:5467   */\n      tag_191\n        /* \"#utility.yul\":5463:5466   */\n      dup3\n        /* \"#utility.yul\":5374:5467   */\n      tag_192\n      jump\t// in\n    tag_191:\n        /* \"#utility.yul\":5492:5494   */\n      0x20\n        /* \"#utility.yul\":5487:5490   */\n      dup3\n        /* \"#utility.yul\":5483:5495   */\n      add\n        /* \"#utility.yul\":5476:5495   */\n      swap1\n      pop\n        /* \"#utility.yul\":5135:5501   */\n      swap2\n      swap1\n      pop\n      jump\t// out\n        /* \"#utility.yul\":5591:6539   */\n    tag_137:\n        /* \"#utility.yul\":5708:5711   */\n      0x00\n        /* \"#utility.yul\":5744:5748   */\n      0x80\n        /* \"#utility.yul\":5739:5742   */\n      dup4\n        /* \"#utility.yul\":5735:5749   */\n      add\n        /* \"#utility.yul\":5831:5835   */\n      0x00\n        /* \"#utility.yul\":5824:5829   */\n      dup4\n        /* \"#utility.yul\":5820:5836   */\n      add\n        /* \"#utility.yul\":5814:5837   */\n      mload\n        /* \"#utility.yul\":5884:5887   */\n      dup5\n        /* \"#utility.yul\":5878:5882   */\n      dup3\n        /* \"#utility.yul\":5874:5888   */\n      sub\n        /* \"#utility.yul\":5867:5871   */\n      0x00\n        /* \"#utility.yul\":5862:5865   */\n      dup7\n        /* \"#utility.yul\":5858:5872   */\n      add\n        /* \"#utility.yul\":5851:5889   */\n      mstore\n        /* \"#utility.yul\":5910:5983   */\n      tag_194\n        /* \"#utility.yul\":5978:5982   */\n      dup3\n        /* \"#utility.yul\":5964:5976   */\n      dup3\n        /* \"#utility.yul\":5910:5983   */\n      tag_166\n      jump\t// in\n    tag_194:\n        /* \"#utility.yul\":5902:5983   */\n      swap2\n      pop\n        /* \"#utility.yul\":5759:5994   */\n      pop\n        /* \"#utility.yul\":6077:6081   */\n      0x20\n        /* \"#utility.yul\":6070:6075   */\n      dup4\n        /* \"#utility.yul\":6066:6082   */\n      add\n        /* \"#utility.yul\":6060:6083   */\n      mload\n        /* \"#utility.yul\":6096:6159   */\n      tag_195\n        /* \"#utility.yul\":6153:6157   */\n      0x20\n        /* \"#utility.yul\":6148:6151   */\n      dup7\n        /* \"#utility.yul\":6144:6158   */\n      add\n        /* \"#utility.yul\":6130:6142   */\n      dup3\n        /* \"#utility.yul\":6096:6159   */\n      tag_196\n      jump\t// in\n    tag_195:\n        /* \"#utility.yul\":6004:6169   */\n      pop\n        /* \"#utility.yul\":6252:6256   */\n      0x40\n        /* \"#utility.yul\":6245:6250   */\n      dup4\n        /* \"#utility.yul\":6241:6257   */\n      add\n        /* \"#utility.yul\":6235:6258   */\n      mload\n        /* \"#utility.yul\":6271:6334   */\n      tag_197\n        /* \"#utility.yul\":6328:6332   */\n      0x40\n        /* \"#utility.yul\":6323:6326   */\n      dup7\n        /* \"#utility.yul\":6319:6333   */\n      add\n        /* \"#utility.yul\":6305:6317   */\n      dup3\n        /* \"#utility.yul\":6271:6334   */\n      tag_138\n      jump\t// in\n    tag_197:\n        /* \"#utility.yul\":6179:6344   */\n      pop\n        /* \"#utility.yul\":6426:6430   */\n      0x60\n        /* \"#utility.yul\":6419:6424   */\n      dup4\n        /* \"#utility.yul\":6415:6431   */\n      add\n        /* \"#utility.yul\":6409:6432   */\n      mload\n        /* \"#utility.yul\":6445:6502   */\n      tag_198\n        /* \"#utility.yul\":6496:6500   */\n      0x60\n        /* \"#utility.yul\":6491:6494   */\n      dup7\n        /* \"#utility.yul\":6487:6501   */\n      add\n        /* \"#utility.yul\":6473:6485   */\n      dup3\n        /* \"#utility.yul\":6445:6502   */\n      tag_159\n      jump\t// in\n    tag_198:\n        /* \"#utility.yul\":6354:6512   */\n      pop\n        /* \"#utility.yul\":6529:6533   */\n      dup1\n        /* \"#utility.yul\":6522:6533   */\n      swap2\n      pop\n        /* \"#utility.yul\":5713:6539   */\n      pop\n        /* \"#utility.yul\":5591:6539   */\n      swap3\n      swap2\n      pop\n      pop\n      jump\t// out\n        /* \"#utility.yul\":6545:6653   */\n    tag_196:\n        /* \"#utility.yul\":6622:6646   */\n      tag_200\n        /* \"#utility.yul\":6640:6645   */\n      dup2\n        /* \"#utility.yul\":6622:6646   */\n      tag_201\n      jump\t// in\n    tag_200:\n        /* \"#utility.yul\":6617:6620   */\n      dup3\n        /* \"#utility.yul\":6610:6647   */\n      mstore\n        /* \"#utility.yul\":6545:6653   */\n      pop\n      pop\n      jump\t// out\n        /* \"#utility.yul\":6659:6777   */\n    tag_202:\n        /* \"#utility.yul\":6746:6770   */\n      tag_204\n        /* \"#utility.yul\":6764:6769   */\n      dup2\n        /* \"#utility.yul\":6746:6770   */\n      tag_201\n      jump\t// in\n    tag_204:\n        /* \"#utility.yul\":6741:6744   */\n      dup3\n        /* \"#utility.yul\":6734:6771   */\n      mstore\n        /* \"#utility.yul\":6659:6777   */\n      pop\n      pop\n      jump\t// out\n        /* \"#utility.yul\":6783:7272   */\n    tag_26:\n        /* \"#utility.yul\":6984:6988   */\n      0x00\n        /* \"#utility.yul\":7022:7024   */\n      0x20\n        /* \"#utility.yul\":7011:7020   */\n      dup3\n        /* \"#utility.yul\":7007:7025   */\n      add\n        /* \"#utility.yul\":6999:7025   */\n      swap1\n      pop\n        /* \"#utility.yul\":7071:7080   */\n      dup2\n        /* \"#utility.yul\":7065:7069   */\n      dup2\n        /* \"#utility.yul\":7061:7081   */\n      sub\n        /* \"#utility.yul\":7057:7058   */\n      0x00\n        /* \"#utility.yul\":7046:7055   */\n      dup4\n        /* \"#utility.yul\":7042:7059   */\n      add\n        /* \"#utility.yul\":7035:7082   */\n      mstore\n        /* \"#utility.yul\":7099:7265   */\n      tag_206\n        /* \"#utility.yul\":7260:7264   */\n      dup2\n        /* \"#utility.yul\":7251:7257   */\n      dup5\n        /* \"#utility.yul\":7099:7265   */\n      tag_145\n      jump\t// in\n    tag_206:\n        /* \"#utility.yul\":7091:7265   */\n      swap1\n      pop\n        /* \"#utility.yul\":6783:7272   */\n      swap3\n      swap2\n      pop\n      pop\n      jump\t// out\n        /* \"#utility.yul\":7278:7910   */\n    tag_37:\n        /* \"#utility.yul\":7469:7473   */\n      0x00\n        /* \"#utility.yul\":7507:7510   */\n      0x80\n        /* \"#utility.yul\":7496:7505   */\n      dup3\n        /* \"#utility.yul\":7492:7511   */\n      add\n        /* \"#utility.yul\":7484:7511   */\n      swap1\n      pop\n        /* \"#utility.yul\":7557:7566   */\n      dup2\n        /* \"#utility.yul\":7551:7555   */\n      dup2\n        /* \"#utility.yul\":7547:7567   */\n      sub\n        /* \"#utility.yul\":7543:7544   */\n      0x00\n        /* \"#utility.yul\":7532:7541   */\n      dup4\n        /* \"#utility.yul\":7528:7545   */\n      add\n        /* \"#utility.yul\":7521:7568   */\n      mstore\n        /* \"#utility.yul\":7585:7663   */\n      tag_208\n        /* \"#utility.yul\":7658:7662   */\n      dup2\n        /* \"#utility.yul\":7649:7655   */\n      dup8\n        /* \"#utility.yul\":7585:7663   */\n      tag_176\n      jump\t// in\n    tag_208:\n        /* \"#utility.yul\":7577:7663   */\n      swap1\n      pop\n        /* \"#utility.yul\":7673:7745   */\n      tag_209\n        /* \"#utility.yul\":7741:7743   */\n      0x20\n        /* \"#utility.yul\":7730:7739   */\n      dup4\n        /* \"#utility.yul\":7726:7744   */\n      add\n        /* \"#utility.yul\":7717:7723   */\n      dup7\n        /* \"#utility.yul\":7673:7745   */\n      tag_202\n      jump\t// in\n    tag_209:\n        /* \"#utility.yul\":7755:7827   */\n      tag_210\n        /* \"#utility.yul\":7823:7825   */\n      0x40\n        /* \"#utility.yul\":7812:7821   */\n      dup4\n        /* \"#utility.yul\":7808:7826   */\n      add\n        /* \"#utility.yul\":7799:7805   */\n      dup6\n        /* \"#utility.yul\":7755:7827   */\n      tag_142\n      jump\t// in\n    tag_210:\n        /* \"#utility.yul\":7837:7903   */\n      tag_211\n        /* \"#utility.yul\":7899:7901   */\n      0x60\n        /* \"#utility.yul\":7888:7897   */\n      dup4\n        /* \"#utility.yul\":7884:7902   */\n      add\n        /* \"#utility.yul\":7875:7881   */\n      dup5\n        /* \"#utility.yul\":7837:7903   */\n      tag_163\n      jump\t// in\n    tag_211:\n        /* \"#utility.yul\":7278:7910   */\n      swap6\n      swap5\n      pop\n      pop\n      pop\n      pop\n      pop\n      jump\t// out\n        /* \"#utility.yul\":7916:8335   */\n    tag_46:\n        /* \"#utility.yul\":8082:8086   */\n      0x00\n        /* \"#utility.yul\":8120:8122   */\n      0x20\n        /* \"#utility.yul\":8109:8118   */\n      dup3\n        /* \"#utility.yul\":8105:8123   */\n      add\n        /* \"#utility.yul\":8097:8123   */\n      swap1\n      pop\n        /* \"#utility.yul\":8169:8178   */\n      dup2\n        /* \"#utility.yul\":8163:8167   */\n      dup2\n        /* \"#utility.yul\":8159:8179   */\n      sub\n        /* \"#utility.yul\":8155:8156   */\n      0x00\n        /* \"#utility.yul\":8144:8153   */\n      dup4\n        /* \"#utility.yul\":8140:8157   */\n      add\n        /* \"#utility.yul\":8133:8180   */\n      mstore\n        /* \"#utility.yul\":8197:8328   */\n      tag_213\n        /* \"#utility.yul\":8323:8327   */\n      dup2\n        /* \"#utility.yul\":8197:8328   */\n      tag_183\n      jump\t// in\n    tag_213:\n        /* \"#utility.yul\":8189:8328   */\n      swap1\n      pop\n        /* \"#utility.yul\":7916:8335   */\n      swap2\n      swap1\n      pop\n      jump\t// out\n        /* \"#utility.yul\":8341:8760   */\n    tag_72:\n        /* \"#utility.yul\":8507:8511   */\n      0x00\n        /* \"#utility.yul\":8545:8547   */\n      0x20\n        /* \"#utility.yul\":8534:8543   */\n      dup3\n        /* \"#utility.yul\":8530:8548   */\n      add\n        /* \"#utility.yul\":8522:8548   */\n      swap1\n      pop\n        /* \"#utility.yul\":8594:8603   */\n      dup2\n        /* \"#utility.yul\":8588:8592   */\n      dup2\n        /* \"#utility.yul\":8584:8604   */\n      sub\n        /* \"#utility.yul\":8580:8581   */\n      0x00\n        /* \"#utility.yul\":8569:8578   */\n      dup4\n        /* \"#utility.yul\":8565:8582   */\n      add\n        /* \"#utility.yul\":8558:8605   */\n      mstore\n        /* \"#utility.yul\":8622:8753   */\n      tag_215\n        /* \"#utility.yul\":8748:8752   */\n      dup2\n        /* \"#utility.yul\":8622:8753   */\n      tag_188\n      jump\t// in\n    tag_215:\n        /* \"#utility.yul\":8614:8753   */\n      swap1\n      pop\n        /* \"#utility.yul\":8341:8760   */\n      swap2\n      swap1\n      pop\n      jump\t// out\n        /* \"#utility.yul\":8766:8988   */\n    tag_17:\n        /* \"#utility.yul\":8859:8863   */\n      0x00\n        /* \"#utility.yul\":8897:8899   */\n      0x20\n        /* \"#utility.yul\":8886:8895   */\n      dup3\n        /* \"#utility.yul\":8882:8900   */\n      add\n        /* \"#utility.yul\":8874:8900   */\n      swap1\n      pop\n        /* \"#utility.yul\":8910:8981   */\n      tag_217\n        /* \"#utility.yul\":8978:8979   */\n      0x00\n        /* \"#utility.yul\":8967:8976   */\n      dup4\n        /* \"#utility.yul\":8963:8980   */\n      add\n        /* \"#utility.yul\":8954:8960   */\n      dup5\n        /* \"#utility.yul\":8910:8981   */\n      tag_202\n      jump\t// in\n    tag_217:\n        /* \"#utility.yul\":8766:8988   */\n      swap3\n      swap2\n      pop\n      pop\n      jump\t// out\n        /* \"#utility.yul\":8994:9123   */\n    tag_104:\n        /* \"#utility.yul\":9028:9034   */\n      0x00\n        /* \"#utility.yul\":9055:9075   */\n      tag_219\n      tag_220\n      jump\t// in\n    tag_219:\n        /* \"#utility.yul\":9045:9075   */\n      swap1\n      pop\n        /* \"#utility.yul\":9084:9117   */\n      tag_221\n        /* \"#utility.yul\":9112:9116   */\n      dup3\n        /* \"#utility.yul\":9104:9110   */\n      dup3\n        /* \"#utility.yul\":9084:9117   */\n      tag_222\n      jump\t// in\n    tag_221:\n        /* \"#utility.yul\":8994:9123   */\n      swap2\n      swap1\n      pop\n      jump\t// out\n        /* \"#utility.yul\":9129:9204   */\n    tag_220:\n        /* \"#utility.yul\":9162:9168   */\n      0x00\n        /* \"#utility.yul\":9195:9197   */\n      0x40\n        /* \"#utility.yul\":9189:9198   */\n      mload\n        /* \"#utility.yul\":9179:9198   */\n      swap1\n      pop\n        /* \"#utility.yul\":9129:9204   */\n      swap1\n      jump\t// out\n        /* \"#utility.yul\":9210:9518   */\n    tag_103:\n        /* \"#utility.yul\":9272:9276   */\n      0x00\n        /* \"#utility.yul\":9362:9380   */\n      0xffffffffffffffff\n        /* \"#utility.yul\":9354:9360   */\n      dup3\n        /* \"#utility.yul\":9351:9381   */\n      gt\n        /* \"#utility.yul\":9348:9404   */\n      iszero\n      tag_225\n      jumpi\n        /* \"#utility.yul\":9384:9402   */\n      tag_226\n      tag_227\n      jump\t// in\n    tag_226:\n        /* \"#utility.yul\":9348:9404   */\n    tag_225:\n        /* \"#utility.yul\":9422:9451   */\n      tag_228\n        /* \"#utility.yul\":9444:9450   */\n      dup3\n        /* \"#utility.yul\":9422:9451   */\n      tag_175\n      jump\t// in\n    tag_228:\n        /* \"#utility.yul\":9414:9451   */\n      swap1\n      pop\n        /* \"#utility.yul\":9506:9510   */\n      0x20\n        /* \"#utility.yul\":9500:9504   */\n      dup2\n        /* \"#utility.yul\":9496:9511   */\n      add\n        /* \"#utility.yul\":9488:9511   */\n      swap1\n      pop\n        /* \"#utility.yul\":9210:9518   */\n      swap2\n      swap1\n      pop\n      jump\t// out\n        /* \"#utility.yul\":9524:9685   */\n    tag_152:\n        /* \"#utility.yul\":9620:9624   */\n      0x00\n        /* \"#utility.yul\":9643:9646   */\n      dup2\n        /* \"#utility.yul\":9635:9646   */\n      swap1\n      pop\n        /* \"#utility.yul\":9673:9677   */\n      0x20\n        /* \"#utility.yul\":9668:9671   */\n      dup3\n        /* \"#utility.yul\":9664:9678   */\n      add\n        /* \"#utility.yul\":9656:9678   */\n      swap1\n      pop\n        /* \"#utility.yul\":9524:9685   */\n      swap2\n      swap1\n      pop\n      jump\t// out\n        /* \"#utility.yul\":9691:9834   */\n    tag_148:\n        /* \"#utility.yul\":9787:9793   */\n      0x00\n        /* \"#utility.yul\":9821:9826   */\n      dup2\n        /* \"#utility.yul\":9815:9827   */\n      mload\n        /* \"#utility.yul\":9805:9827   */\n      swap1\n      pop\n        /* \"#utility.yul\":9691:9834   */\n      swap2\n      swap1\n      pop\n      jump\t// out\n        /* \"#utility.yul\":9840:9939   */\n    tag_169:\n        /* \"#utility.yul\":9892:9898   */\n      0x00\n        /* \"#utility.yul\":9926:9931   */\n      dup2\n        /* \"#utility.yul\":9920:9932   */\n      mload\n        /* \"#utility.yul\":9910:9932   */\n      swap1\n      pop\n        /* \"#utility.yul\":9840:9939   */\n      swap2\n      swap1\n      pop\n      jump\t// out\n        /* \"#utility.yul\":9945:10087   */\n    tag_158:\n        /* \"#utility.yul\":10044:10048   */\n      0x00\n        /* \"#utility.yul\":10076:10080   */\n      0x20\n        /* \"#utility.yul\":10071:10074   */\n      dup3\n        /* \"#utility.yul\":10067:10081   */\n      add\n        /* \"#utility.yul\":10059:10081   */\n      swap1\n      pop\n        /* \"#utility.yul\":9945:10087   */\n      swap2\n      swap1\n      pop\n      jump\t// out\n        /* \"#utility.yul\":10093:10306   */\n    tag_150:\n        /* \"#utility.yul\":10221:10232   */\n      0x00\n        /* \"#utility.yul\":10255:10261   */\n      dup3\n        /* \"#utility.yul\":10250:10253   */\n      dup3\n        /* \"#utility.yul\":10243:10262   */\n      mstore\n        /* \"#utility.yul\":10295:10299   */\n      0x20\n        /* \"#utility.yul\":10290:10293   */\n      dup3\n        /* \"#utility.yul\":10286:10300   */\n      add\n        /* \"#utility.yul\":10271:10300   */\n      swap1\n      pop\n        /* \"#utility.yul\":10093:10306   */\n      swap3\n      swap2\n      pop\n      pop\n      jump\t// out\n        /* \"#utility.yul\":10312:10471   */\n    tag_171:\n        /* \"#utility.yul\":10386:10397   */\n      0x00\n        /* \"#utility.yul\":10420:10426   */\n      dup3\n        /* \"#utility.yul\":10415:10418   */\n      dup3\n        /* \"#utility.yul\":10408:10427   */\n      mstore\n        /* \"#utility.yul\":10460:10464   */\n      0x20\n        /* \"#utility.yul\":10455:10458   */\n      dup3\n        /* \"#utility.yul\":10451:10465   */\n      add\n        /* \"#utility.yul\":10436:10465   */\n      swap1\n      pop\n        /* \"#utility.yul\":10312:10471   */\n      swap3\n      swap2\n      pop\n      pop\n      jump\t// out\n        /* \"#utility.yul\":10477:10646   */\n    tag_180:\n        /* \"#utility.yul\":10561:10572   */\n      0x00\n        /* \"#utility.yul\":10595:10601   */\n      dup3\n        /* \"#utility.yul\":10590:10593   */\n      dup3\n        /* \"#utility.yul\":10583:10602   */\n      mstore\n        /* \"#utility.yul\":10635:10639   */\n      0x20\n        /* \"#utility.yul\":10630:10633   */\n      dup3\n        /* \"#utility.yul\":10626:10640   */\n      add\n        /* \"#utility.yul\":10611:10640   */\n      swap1\n      pop\n        /* \"#utility.yul\":10477:10646   */\n      swap3\n      swap2\n      pop\n      pop\n      jump\t// out\n        /* \"#utility.yul\":10652:10748   */\n    tag_141:\n        /* \"#utility.yul\":10689:10696   */\n      0x00\n        /* \"#utility.yul\":10718:10742   */\n      tag_237\n        /* \"#utility.yul\":10736:10741   */\n      dup3\n        /* \"#utility.yul\":10718:10742   */\n      tag_238\n      jump\t// in\n    tag_237:\n        /* \"#utility.yul\":10707:10742   */\n      swap1\n      pop\n        /* \"#utility.yul\":10652:10748   */\n      swap2\n      swap1\n      pop\n      jump\t// out\n        /* \"#utility.yul\":10754:10844   */\n    tag_162:\n        /* \"#utility.yul\":10788:10795   */\n      0x00\n        /* \"#utility.yul\":10831:10836   */\n      dup2\n        /* \"#utility.yul\":10824:10837   */\n      iszero\n        /* \"#utility.yul\":10817:10838   */\n      iszero\n        /* \"#utility.yul\":10806:10838   */\n      swap1\n      pop\n        /* \"#utility.yul\":10754:10844   */\n      swap2\n      swap1\n      pop\n      jump\t// out\n        /* \"#utility.yul\":10850:10976   */\n    tag_238:\n        /* \"#utility.yul\":10887:10894   */\n      0x00\n        /* \"#utility.yul\":10927:10969   */\n      0xffffffffffffffffffffffffffffffffffffffff\n        /* \"#utility.yul\":10920:10925   */\n      dup3\n        /* \"#utility.yul\":10916:10970   */\n      and\n        /* \"#utility.yul\":10905:10970   */\n      swap1\n      pop\n        /* \"#utility.yul\":10850:10976   */\n      swap2\n      swap1\n      pop\n      jump\t// out\n        /* \"#utility.yul\":10982:11059   */\n    tag_201:\n        /* \"#utility.yul\":11019:11026   */\n      0x00\n        /* \"#utility.yul\":11048:11053   */\n      dup2\n        /* \"#utility.yul\":11037:11053   */\n      swap1\n      pop\n        /* \"#utility.yul\":10982:11059   */\n      swap2\n      swap1\n      pop\n      jump\t// out\n        /* \"#utility.yul\":11065:11219   */\n    tag_109:\n        /* \"#utility.yul\":11149:11155   */\n      dup3\n        /* \"#utility.yul\":11144:11147   */\n      dup2\n        /* \"#utility.yul\":11139:11142   */\n      dup4\n        /* \"#utility.yul\":11126:11156   */\n      calldatacopy\n        /* \"#utility.yul\":11211:11212   */\n      0x00\n        /* \"#utility.yul\":11202:11208   */\n      dup4\n        /* \"#utility.yul\":11197:11200   */\n      dup4\n        /* \"#utility.yul\":11193:11209   */\n      add\n        /* \"#utility.yul\":11186:11213   */\n      mstore\n        /* \"#utility.yul\":11065:11219   */\n      pop\n      pop\n      pop\n      jump\t// out\n        /* \"#utility.yul\":11225:11532   */\n    tag_173:\n        /* \"#utility.yul\":11293:11294   */\n      0x00\n        /* \"#utility.yul\":11303:11416   */\n    tag_244:\n        /* \"#utility.yul\":11317:11323   */\n      dup4\n        /* \"#utility.yul\":11314:11315   */\n      dup2\n        /* \"#utility.yul\":11311:11324   */\n      lt\n        /* \"#utility.yul\":11303:11416   */\n      iszero\n      tag_246\n      jumpi\n        /* \"#utility.yul\":11402:11403   */\n      dup1\n        /* \"#utility.yul\":11397:11400   */\n      dup3\n        /* \"#utility.yul\":11393:11404   */\n      add\n        /* \"#utility.yul\":11387:11405   */\n      mload\n        /* \"#utility.yul\":11383:11384   */\n      dup2\n        /* \"#utility.yul\":11378:11381   */\n      dup5\n        /* \"#utility.yul\":11374:11385   */\n      add\n        /* \"#utility.yul\":11367:11406   */\n      mstore\n        /* \"#utility.yul\":11339:11341   */\n      0x20\n        /* \"#utility.yul\":11336:11337   */\n      dup2\n        /* \"#utility.yul\":11332:11342   */\n      add\n        /* \"#utility.yul\":11327:11342   */\n      swap1\n      pop\n        /* \"#utility.yul\":11303:11416   */\n      jump(tag_244)\n    tag_246:\n        /* \"#utility.yul\":11434:11440   */\n      dup4\n        /* \"#utility.yul\":11431:11432   */\n      dup2\n        /* \"#utility.yul\":11428:11441   */\n      gt\n        /* \"#utility.yul\":11425:11526   */\n      iszero\n      tag_247\n      jumpi\n        /* \"#utility.yul\":11514:11515   */\n      0x00\n        /* \"#utility.yul\":11505:11511   */\n      dup5\n        /* \"#utility.yul\":11500:11503   */\n      dup5\n        /* \"#utility.yul\":11496:11512   */\n      add\n        /* \"#utility.yul\":11489:11516   */\n      mstore\n        /* \"#utility.yul\":11425:11526   */\n    tag_247:\n        /* \"#utility.yul\":11274:11532   */\n      pop\n        /* \"#utility.yul\":11225:11532   */\n      pop\n      pop\n      pop\n      jump\t// out\n        /* \"#utility.yul\":11538:11858   */\n    tag_52:\n        /* \"#utility.yul\":11582:11588   */\n      0x00\n        /* \"#utility.yul\":11619:11620   */\n      0x02\n        /* \"#utility.yul\":11613:11617   */\n      dup3\n        /* \"#utility.yul\":11609:11621   */\n      div\n        /* \"#utility.yul\":11599:11621   */\n      swap1\n      pop\n        /* \"#utility.yul\":11666:11667   */\n      0x01\n        /* \"#utility.yul\":11660:11664   */\n      dup3\n        /* \"#utility.yul\":11656:11668   */\n      and\n        /* \"#utility.yul\":11687:11705   */\n      dup1\n        /* \"#utility.yul\":11677:11758   */\n      tag_249\n      jumpi\n        /* \"#utility.yul\":11743:11747   */\n      0x7f\n        /* \"#utility.yul\":11735:11741   */\n      dup3\n        /* \"#utility.yul\":11731:11748   */\n      and\n        /* \"#utility.yul\":11721:11748   */\n      swap2\n      pop\n        /* \"#utility.yul\":11677:11758   */\n    tag_249:\n        /* \"#utility.yul\":11805:11807   */\n      0x20\n        /* \"#utility.yul\":11797:11803   */\n      dup3\n        /* \"#utility.yul\":11794:11808   */\n      lt\n        /* \"#utility.yul\":11774:11792   */\n      dup2\n        /* \"#utility.yul\":11771:11809   */\n      eq\n        /* \"#utility.yul\":11768:11852   */\n      iszero\n      tag_250\n      jumpi\n        /* \"#utility.yul\":11824:11842   */\n      tag_251\n      tag_252\n      jump\t// in\n    tag_251:\n        /* \"#utility.yul\":11768:11852   */\n    tag_250:\n        /* \"#utility.yul\":11589:11858   */\n      pop\n        /* \"#utility.yul\":11538:11858   */\n      swap2\n      swap1\n      pop\n      jump\t// out\n        /* \"#utility.yul\":11864:12145   */\n    tag_222:\n        /* \"#utility.yul\":11947:11974   */\n      tag_254\n        /* \"#utility.yul\":11969:11973   */\n      dup3\n        /* \"#utility.yul\":11947:11974   */\n      tag_175\n      jump\t// in\n    tag_254:\n        /* \"#utility.yul\":11939:11945   */\n      dup2\n        /* \"#utility.yul\":11935:11975   */\n      add\n        /* \"#utility.yul\":12077:12083   */\n      dup2\n        /* \"#utility.yul\":12065:12075   */\n      dup2\n        /* \"#utility.yul\":12062:12084   */\n      lt\n        /* \"#utility.yul\":12041:12059   */\n      0xffffffffffffffff\n        /* \"#utility.yul\":12029:12039   */\n      dup3\n        /* \"#utility.yul\":12026:12060   */\n      gt\n        /* \"#utility.yul\":12023:12085   */\n      or\n        /* \"#utility.yul\":12020:12108   */\n      iszero\n      tag_255\n      jumpi\n        /* \"#utility.yul\":12088:12106   */\n      tag_256\n      tag_227\n      jump\t// in\n    tag_256:\n        /* \"#utility.yul\":12020:12108   */\n    tag_255:\n        /* \"#utility.yul\":12128:12138   */\n      dup1\n        /* \"#utility.yul\":12124:12126   */\n      0x40\n        /* \"#utility.yul\":12117:12139   */\n      mstore\n        /* \"#utility.yul\":11907:12145   */\n      pop\n        /* \"#utility.yul\":11864:12145   */\n      pop\n      pop\n      jump\t// out\n        /* \"#utility.yul\":12151:12384   */\n    tag_80:\n        /* \"#utility.yul\":12190:12193   */\n      0x00\n        /* \"#utility.yul\":12213:12237   */\n      tag_258\n        /* \"#utility.yul\":12231:12236   */\n      dup3\n        /* \"#utility.yul\":12213:12237   */\n      tag_201\n      jump\t// in\n    tag_258:\n        /* \"#utility.yul\":12204:12237   */\n      swap2\n      pop\n        /* \"#utility.yul\":12259:12325   */\n      0xffffffffffffffffffffffffffffffffffffffffffffffffffffffffffffffff\n        /* \"#utility.yul\":12252:12257   */\n      dup3\n        /* \"#utility.yul\":12249:12326   */\n      eq\n        /* \"#utility.yul\":12246:12349   */\n      iszero\n      tag_259\n      jumpi\n        /* \"#utility.yul\":12329:12347   */\n      tag_260\n      tag_261\n      jump\t// in\n    tag_260:\n        /* \"#utility.yul\":12246:12349   */\n    tag_259:\n        /* \"#utility.yul\":12376:12377   */\n      0x01\n        /* \"#utility.yul\":12369:12374   */\n      dup3\n        /* \"#utility.yul\":12365:12378   */\n      add\n        /* \"#utility.yul\":12358:12378   */\n      swap1\n      pop\n        /* \"#utility.yul\":12151:12384   */\n      swap2\n      swap1\n      pop\n      jump\t// out\n        /* \"#utility.yul\":12390:12570   */\n    tag_261:\n        /* \"#utility.yul\":12438:12515   */\n      0x4e487b7100000000000000000000000000000000000000000000000000000000\n        /* \"#utility.yul\":12435:12436   */\n      0x00\n        /* \"#utility.yul\":12428:12516   */\n      mstore\n        /* \"#utility.yul\":12535:12539   */\n      0x11\n        /* \"#utility.yul\":12532:12533   */\n      0x04\n        /* \"#utility.yul\":12525:12540   */\n      mstore\n        /* \"#utility.yul\":12559:12563   */\n      0x24\n        /* \"#utility.yul\":12556:12557   */\n      0x00\n        /* \"#utility.yul\":12549:12564   */\n      revert\n        /* \"#utility.yul\":12576:12756   */\n    tag_252:\n        /* \"#utility.yul\":12624:12701   */\n      0x4e487b7100000000000000000000000000000000000000000000000000000000\n        /* \"#utility.yul\":12621:12622   */\n      0x00\n        /* \"#utility.yul\":12614:12702   */\n      mstore\n        /* \"#utility.yul\":12721:12725   */\n      0x22\n        /* \"#utility.yul\":12718:12719   */\n      0x04\n        /* \"#utility.yul\":12711:12726   */\n      mstore\n        /* \"#utility.yul\":12745:12749   */\n      0x24\n        /* \"#utility.yul\":12742:12743   */\n      0x00\n        /* \"#utility.yul\":12735:12750   */\n      revert\n        /* \"#utility.yul\":12762:12942   */\n    tag_49:\n        /* \"#utility.yul\":12810:12887   */\n      0x4e487b7100000000000000000000000000000000000000000000000000000000\n        /* \"#utility.yul\":12807:12808   */\n      0x00\n        /* \"#utility.yul\":12800:12888   */\n      mstore\n        /* \"#utility.yul\":12907:12911   */\n      0x32\n        /* \"#utility.yul\":12904:12905   */\n      0x04\n        /* \"#utility.yul\":12897:12912   */\n      mstore\n        /* \"#utility.yul\":12931:12935   */\n      0x24\n        /* \"#utility.yul\":12928:12929   */\n      0x00\n        /* \"#utility.yul\":12921:12936   */\n      revert\n        /* \"#utility.yul\":12948:13128   */\n    tag_227:\n        /* \"#utility.yul\":12996:13073   */\n      0x4e487b7100000000000000000000000000000000000000000000000000000000\n        /* \"#utility.yul\":12993:12994   */\n      0x00\n        /* \"#utility.yul\":12986:13074   */\n      mstore\n        /* \"#utility.yul\":13093:13097   */\n      0x41\n        /* \"#utility.yul\":13090:13091   */\n      0x04\n        /* \"#utility.yul\":13083:13098   */\n      mstore\n        /* \"#utility.yul\":13117:13121   */\n      0x24\n        /* \"#utility.yul\":13114:13115   */\n      0x00\n        /* \"#utility.yul\":13107:13122   */\n      revert\n        /* \"#utility.yul\":13134:13251   */\n    tag_114:\n        /* \"#utility.yul\":13243:13244   */\n      0x00\n        /* \"#utility.yul\":13240:13241   */\n      dup1\n        /* \"#utility.yul\":13233:13245   */\n      revert\n        /* \"#utility.yul\":13257:13374   */\n    tag_107:\n        /* \"#utility.yul\":13366:13367   */\n      0x00\n        /* \"#utility.yul\":13363:13364   */\n      dup1\n        /* \"#utility.yul\":13356:13368   */\n      revert\n        /* \"#utility.yul\":13380:13497   */\n    tag_131:\n        /* \"#utility.yul\":13489:13490   */\n      0x00\n        /* \"#utility.yul\":13486:13487   */\n      dup1\n        /* \"#utility.yul\":13479:13491   */\n      revert\n        /* \"#utility.yul\":13503:13620   */\n    tag_123:\n        /* \"#utility.yul\":13612:13613   */\n      0x00\n        /* \"#utility.yul\":13609:13610   */\n      dup1\n        /* \"#utility.yul\":13602:13614   */\n      revert\n        /* \"#utility.yul\":13626:13728   */\n    tag_175:\n        /* \"#utility.yul\":13667:13673   */\n      0x00\n        /* \"#utility.yul\":13718:13720   */\n      0x1f\n        /* \"#utility.yul\":13714:13721   */\n      not\n        /* \"#utility.yul\":13709:13711   */\n      0x1f\n        /* \"#utility.yul\":13702:13707   */\n      dup4\n        /* \"#utility.yul\":13698:13712   */\n      add\n        /* \"#utility.yul\":13694:13722   */\n      and\n        /* \"#utility.yul\":13684:13722   */\n      swap1\n      pop\n        /* \"#utility.yul\":13626:13728   */\n      swap2\n      swap1\n      pop\n      jump\t// out\n        /* \"#utility.yul\":13734:13957   */\n    tag_187:\n        /* \"#utility.yul\":13874:13908   */\n      0x656e6e6179207061697379206e6165207465726179206b6f6c2c2063686c2070\n        /* \"#utility.yul\":13870:13871   */\n      0x00\n        /* \"#utility.yul\":13862:13868   */\n      dup3\n        /* \"#utility.yul\":13858:13872   */\n      add\n        /* \"#utility.yul\":13851:13909   */\n      mstore\n        /* \"#utility.yul\":13943:13949   */\n      0x6a206a6100000000000000000000000000000000000000000000000000000000\n        /* \"#utility.yul\":13938:13940   */\n      0x20\n        /* \"#utility.yul\":13930:13936   */\n      dup3\n        /* \"#utility.yul\":13926:13941   */\n      add\n        /* \"#utility.yul\":13919:13950   */\n      mstore\n        /* \"#utility.yul\":13734:13957   */\n      pop\n      jump\t// out\n        /* \"#utility.yul\":13963:14143   */\n    tag_192:\n        /* \"#utility.yul\":14103:14135   */\n      0x6f6e6c79206f776e65722063616e20616464207468652076656869636c650000\n        /* \"#utility.yul\":14099:14100   */\n      0x00\n        /* \"#utility.yul\":14091:14097   */\n      dup3\n        /* \"#utility.yul\":14087:14101   */\n      add\n        /* \"#utility.yul\":14080:14136   */\n      mstore\n        /* \"#utility.yul\":13963:14143   */\n      pop\n      jump\t// out\n        /* \"#utility.yul\":14149:14271   */\n    tag_119:\n        /* \"#utility.yul\":14222:14246   */\n      tag_274\n        /* \"#utility.yul\":14240:14245   */\n      dup2\n        /* \"#utility.yul\":14222:14246   */\n      tag_201\n      jump\t// in\n    tag_274:\n        /* \"#utility.yul\":14215:14220   */\n      dup2\n        /* \"#utility.yul\":14212:14247   */\n      eq\n        /* \"#utility.yul\":14202:14265   */\n      tag_275\n      jumpi\n        /* \"#utility.yul\":14261:14262   */\n      0x00\n        /* \"#utility.yul\":14258:14259   */\n      dup1\n        /* \"#utility.yul\":14251:14263   */\n      revert\n        /* \"#utility.yul\":14202:14265   */\n    tag_275:\n        /* \"#utility.yul\":14149:14271   */\n      pop\n      jump\t// out\n\n    auxdata: 0xa264697066735822122031e80fd4bf5e5105966bdb70c4ff59d8834a9b6e3b5d9958dfe522d316ac239c64736f6c63430008070033\n}\n",
				"bytecode": {
					"linkReferences": {},
					"object": "608060405234801561001057600080fd5b50336000806101000a81548173ffffffffffffffffffffffffffffffffffffffff021916908373ffffffffffffffffffffffffffffffffffffffff160217905550611123806100606000396000f3fe6080604052600436106100595760003560e01c806306661abd1461006257806340a18bb71461008d5780638eff3c29146100a957806391ac7e65146100d4578063c9b27ba814610111578063f618a7251461015157610060565b3661006057005b005b34801561006e57600080fd5b5061007761017a565b6040516100849190610d70565b60405180910390f35b6100a760048036038101906100a29190610a28565b610180565b005b3480156100b557600080fd5b506100be61033f565b6040516100cb9190610cc2565b60405180910390f35b3480156100e057600080fd5b506100fb60048036038101906100f69190610a28565b6104ab565b6040516101089190610d70565b60405180910390f35b34801561011d57600080fd5b5061013860048036038101906101339190610a28565b6104c3565b6040516101489493929190610ce4565b60405180910390f35b34801561015d57600080fd5b5061017860048036038101906101739190610a55565b6105a8565b005b60015481565b600060036000838152602001908152602001600020905080600101543410156101de576040517f08c379a00000000000000000000000000000000000000000000000000000000081526004016101d590610d30565b60405180910390fd5b338160020160006101000a81548173ffffffffffffffffffffffffffffffffffffffff021916908373ffffffffffffffffffffffffffffffffffffffff16021790555060018160020160146101000a81548160ff021916908315150217905550600060046000848152602001908152602001600020549050816002828154811061026b5761026a610fdb565b5b9060005260206000209060030201600082018160000190805461028d90610ed1565b610298929190610833565b50600182015481600101556002820160009054906101000a900473ffffffffffffffffffffffffffffffffffffffff168160020160006101000a81548173ffffffffffffffffffffffffffffffffffffffff021916908373ffffffffffffffffffffffffffffffffffffffff1602179055506002820160149054906101000a900460ff168160020160146101000a81548160ff021916908315150217905550905050505050565b60606002805480602002602001604051908101604052809291908181526020016000905b828210156104a2578382906000526020600020906003020160405180608001604052908160008201805461039690610ed1565b80601f01602080910402602001604051908101604052809291908181526020018280546103c290610ed1565b801561040f5780601f106103e45761010080835404028352916020019161040f565b820191906000526020600020905b8154815290600101906020018083116103f257829003601f168201915b50505050508152602001600182015481526020016002820160009054906101000a900473ffffffffffffffffffffffffffffffffffffffff1673ffffffffffffffffffffffffffffffffffffffff1673ffffffffffffffffffffffffffffffffffffffff1681526020016002820160149054906101000a900460ff16151515158152505081526020019060010190610363565b50505050905090565b60046020528060005260406000206000915090505481565b60036020528060005260406000206000915090508060000180546104e690610ed1565b80601f016020809104026020016040519081016040528092919081815260200182805461051290610ed1565b801561055f5780601f106105345761010080835404028352916020019161055f565b820191906000526020600020905b81548152906001019060200180831161054257829003601f168201915b5050505050908060010154908060020160009054906101000a900473ffffffffffffffffffffffffffffffffffffffff16908060020160149054906101000a900460ff16905084565b60008054906101000a900473ffffffffffffffffffffffffffffffffffffffff1673ffffffffffffffffffffffffffffffffffffffff163373ffffffffffffffffffffffffffffffffffffffff1614610636576040517f08c379a000000000000000000000000000000000000000000000000000000000815260040161062d90610d50565b60405180910390fd5b61063e6108c0565b8281600001819052508181602001818152505033816040019073ffffffffffffffffffffffffffffffffffffffff16908173ffffffffffffffffffffffffffffffffffffffff1681525050806003600086815260200190815260200160002060008201518160000190805190602001906106b9929190610900565b506020820151816001015560408201518160020160006101000a81548173ffffffffffffffffffffffffffffffffffffffff021916908373ffffffffffffffffffffffffffffffffffffffff16021790555060608201518160020160146101000a81548160ff021916908315150217905550905050600154600460008681526020019081526020016000208190555060028190806001815401808255809150506001900390600052602060002090600302016000909190919091506000820151816000019080519060200190610790929190610900565b506020820151816001015560408201518160020160006101000a81548173ffffffffffffffffffffffffffffffffffffffff021916908373ffffffffffffffffffffffffffffffffffffffff16021790555060608201518160020160146101000a81548160ff021916908315150217905550505060008160600190151590811515815250506001600081548092919061082890610f34565b919050555050505050565b82805461083f90610ed1565b90600052602060002090601f01602090048101928261086157600085556108af565b82601f1061087257805485556108af565b828001600101855582156108af57600052602060002091601f016020900482015b828111156108ae578254825591600101919060010190610893565b5b5090506108bc9190610986565b5090565b60405180608001604052806060815260200160008152602001600073ffffffffffffffffffffffffffffffffffffffff1681526020016000151581525090565b82805461090c90610ed1565b90600052602060002090601f01602090048101928261092e5760008555610975565b82601f1061094757805160ff1916838001178555610975565b82800160010185558215610975579182015b82811115610974578251825591602001919060010190610959565b5b5090506109829190610986565b5090565b5b8082111561099f576000816000905550600101610987565b5090565b60006109b66109b184610db0565b610d8b565b9050828152602081018484840111156109d2576109d161103e565b5b6109dd848285610e8f565b509392505050565b600082601f8301126109fa576109f9611039565b5b8135610a0a8482602086016109a3565b91505092915050565b600081359050610a22816110d6565b92915050565b600060208284031215610a3e57610a3d611048565b5b6000610a4c84828501610a13565b91505092915050565b600080600060608486031215610a6e57610a6d611048565b5b6000610a7c86828701610a13565b935050602084013567ffffffffffffffff811115610a9d57610a9c611043565b5b610aa9868287016109e5565b9250506040610aba86828701610a13565b9150509250925092565b6000610ad08383610c41565b905092915050565b610ae181610e47565b82525050565b610af081610e47565b82525050565b6000610b0182610df1565b610b0b8185610e14565b935083602082028501610b1d85610de1565b8060005b85811015610b595784840389528151610b3a8582610ac4565b9450610b4583610e07565b925060208a01995050600181019050610b21565b50829750879550505050505092915050565b610b7481610e59565b82525050565b610b8381610e59565b82525050565b6000610b9482610dfc565b610b9e8185610e25565b9350610bae818560208601610e9e565b610bb78161104d565b840191505092915050565b6000610bcd82610dfc565b610bd78185610e36565b9350610be7818560208601610e9e565b610bf08161104d565b840191505092915050565b6000610c08602483610e36565b9150610c138261105e565b604082019050919050565b6000610c2b601e83610e36565b9150610c36826110ad565b602082019050919050565b60006080830160008301518482036000860152610c5e8282610b89565b9150506020830151610c736020860182610ca4565b506040830151610c866040860182610ad8565b506060830151610c996060860182610b6b565b508091505092915050565b610cad81610e85565b82525050565b610cbc81610e85565b82525050565b60006020820190508181036000830152610cdc8184610af6565b905092915050565b60006080820190508181036000830152610cfe8187610bc2565b9050610d0d6020830186610cb3565b610d1a6040830185610ae7565b610d276060830184610b7a565b95945050505050565b60006020820190508181036000830152610d4981610bfb565b9050919050565b60006020820190508181036000830152610d6981610c1e565b9050919050565b6000602082019050610d856000830184610cb3565b92915050565b6000610d95610da6565b9050610da18282610f03565b919050565b6000604051905090565b600067ffffffffffffffff821115610dcb57610dca61100a565b5b610dd48261104d565b9050602081019050919050565b6000819050602082019050919050565b600081519050919050565b600081519050919050565b6000602082019050919050565b600082825260208201905092915050565b600082825260208201905092915050565b600082825260208201905092915050565b6000610e5282610e65565b9050919050565b60008115159050919050565b600073ffffffffffffffffffffffffffffffffffffffff82169050919050565b6000819050919050565b82818337600083830152505050565b60005b83811015610ebc578082015181840152602081019050610ea1565b83811115610ecb576000848401525b50505050565b60006002820490506001821680610ee957607f821691505b60208210811415610efd57610efc610fac565b5b50919050565b610f0c8261104d565b810181811067ffffffffffffffff82111715610f2b57610f2a61100a565b5b80604052505050565b6000610f3f82610e85565b91507fffffffffffffffffffffffffffffffffffffffffffffffffffffffffffffffff821415610f7257610f71610f7d565b5b600182019050919050565b7f4e487b7100000000000000000000000000000000000000000000000000000000600052601160045260246000fd5b7f4e487b7100000000000000000000000000000000000000000000000000000000600052602260045260246000fd5b7f4e487b7100000000000000000000000000000000000000000000000000000000600052603260045260246000fd5b7f4e487b7100000000000000000000000000000000000000000000000000000000600052604160045260246000fd5b600080fd5b600080fd5b600080fd5b600080fd5b6000601f19601f8301169050919050565b7f656e6e6179207061697379206e6165207465726179206b6f6c2c2063686c207060008201527f6a206a6100000000000000000000000000000000000000000000000000000000602082015250565b7f6f6e6c79206f776e65722063616e20616464207468652076656869636c650000600082015250565b6110df81610e85565b81146110ea57600080fd5b5056fea264697066735822122031e80fd4bf5e5105966bdb70c4ff59d8834a9b6e3b5d9958dfe522d316ac239c64736f6c63430008070033",
					"opcodes": "PUSH1 0x80 PUSH1 0x40 MSTORE CALLVALUE DUP1 ISZERO PUSH2 0x10 JUMPI PUSH1 0x0 DUP1 REVERT JUMPDEST POP CALLER PUSH1 0x0 DUP1 PUSH2 0x100 EXP DUP2 SLOAD DUP2 PUSH20 0xFFFFFFFFFFFFFFFFFFFFFFFFFFFFFFFFFFFFFFFF MUL NOT AND SWAP1 DUP4 PUSH20 0xFFFFFFFFFFFFFFFFFFFFFFFFFFFFFFFFFFFFFFFF AND MUL OR SWAP1 SSTORE POP PUSH2 0x1123 DUP1 PUSH2 0x60 PUSH1 0x0 CODECOPY PUSH1 0x0 RETURN INVALID PUSH1 0x80 PUSH1 0x40 MSTORE PUSH1 0x4 CALLDATASIZE LT PUSH2 0x59 JUMPI PUSH1 0x0 CALLDATALOAD PUSH1 0xE0 SHR DUP1 PUSH4 0x6661ABD EQ PUSH2 0x62 JUMPI DUP1 PUSH4 0x40A18BB7 EQ PUSH2 0x8D JUMPI DUP1 PUSH4 0x8EFF3C29 EQ PUSH2 0xA9 JUMPI DUP1 PUSH4 0x91AC7E65 EQ PUSH2 0xD4 JUMPI DUP1 PUSH4 0xC9B27BA8 EQ PUSH2 0x111 JUMPI DUP1 PUSH4 0xF618A725 EQ PUSH2 0x151 JUMPI PUSH2 0x60 JUMP JUMPDEST CALLDATASIZE PUSH2 0x60 JUMPI STOP JUMPDEST STOP JUMPDEST CALLVALUE DUP1 ISZERO PUSH2 0x6E JUMPI PUSH1 0x0 DUP1 REVERT JUMPDEST POP PUSH2 0x77 PUSH2 0x17A JUMP JUMPDEST PUSH1 0x40 MLOAD PUSH2 0x84 SWAP2 SWAP1 PUSH2 0xD70 JUMP JUMPDEST PUSH1 0x40 MLOAD DUP1 SWAP2 SUB SWAP1 RETURN JUMPDEST PUSH2 0xA7 PUSH1 0x4 DUP1 CALLDATASIZE SUB DUP2 ADD SWAP1 PUSH2 0xA2 SWAP2 SWAP1 PUSH2 0xA28 JUMP JUMPDEST PUSH2 0x180 JUMP JUMPDEST STOP JUMPDEST CALLVALUE DUP1 ISZERO PUSH2 0xB5 JUMPI PUSH1 0x0 DUP1 REVERT JUMPDEST POP PUSH2 0xBE PUSH2 0x33F JUMP JUMPDEST PUSH1 0x40 MLOAD PUSH2 0xCB SWAP2 SWAP1 PUSH2 0xCC2 JUMP JUMPDEST PUSH1 0x40 MLOAD DUP1 SWAP2 SUB SWAP1 RETURN JUMPDEST CALLVALUE DUP1 ISZERO PUSH2 0xE0 JUMPI PUSH1 0x0 DUP1 REVERT JUMPDEST POP PUSH2 0xFB PUSH1 0x4 DUP1 CALLDATASIZE SUB DUP2 ADD SWAP1 PUSH2 0xF6 SWAP2 SWAP1 PUSH2 0xA28 JUMP JUMPDEST PUSH2 0x4AB JUMP JUMPDEST PUSH1 0x40 MLOAD PUSH2 0x108 SWAP2 SWAP1 PUSH2 0xD70 JUMP JUMPDEST PUSH1 0x40 MLOAD DUP1 SWAP2 SUB SWAP1 RETURN JUMPDEST CALLVALUE DUP1 ISZERO PUSH2 0x11D JUMPI PUSH1 0x0 DUP1 REVERT JUMPDEST POP PUSH2 0x138 PUSH1 0x4 DUP1 CALLDATASIZE SUB DUP2 ADD SWAP1 PUSH2 0x133 SWAP2 SWAP1 PUSH2 0xA28 JUMP JUMPDEST PUSH2 0x4C3 JUMP JUMPDEST PUSH1 0x40 MLOAD PUSH2 0x148 SWAP5 SWAP4 SWAP3 SWAP2 SWAP1 PUSH2 0xCE4 JUMP JUMPDEST PUSH1 0x40 MLOAD DUP1 SWAP2 SUB SWAP1 RETURN JUMPDEST CALLVALUE DUP1 ISZERO PUSH2 0x15D JUMPI PUSH1 0x0 DUP1 REVERT JUMPDEST POP PUSH2 0x178 PUSH1 0x4 DUP1 CALLDATASIZE SUB DUP2 ADD SWAP1 PUSH2 0x173 SWAP2 SWAP1 PUSH2 0xA55 JUMP JUMPDEST PUSH2 0x5A8 JUMP JUMPDEST STOP JUMPDEST PUSH1 0x1 SLOAD DUP2 JUMP JUMPDEST PUSH1 0x0 PUSH1 0x3 PUSH1 0x0 DUP4 DUP2 MSTORE PUSH1 0x20 ADD SWAP1 DUP2 MSTORE PUSH1 0x20 ADD PUSH1 0x0 KECCAK256 SWAP1 POP DUP1 PUSH1 0x1 ADD SLOAD CALLVALUE LT ISZERO PUSH2 0x1DE JUMPI PUSH1 0x40 MLOAD PUSH32 0x8C379A000000000000000000000000000000000000000000000000000000000 DUP2 MSTORE PUSH1 0x4 ADD PUSH2 0x1D5 SWAP1 PUSH2 0xD30 JUMP JUMPDEST PUSH1 0x40 MLOAD DUP1 SWAP2 SUB SWAP1 REVERT JUMPDEST CALLER DUP2 PUSH1 0x2 ADD PUSH1 0x0 PUSH2 0x100 EXP DUP2 SLOAD DUP2 PUSH20 0xFFFFFFFFFFFFFFFFFFFFFFFFFFFFFFFFFFFFFFFF MUL NOT AND SWAP1 DUP4 PUSH20 0xFFFFFFFFFFFFFFFFFFFFFFFFFFFFFFFFFFFFFFFF AND MUL OR SWAP1 SSTORE POP PUSH1 0x1 DUP2 PUSH1 0x2 ADD PUSH1 0x14 PUSH2 0x100 EXP DUP2 SLOAD DUP2 PUSH1 0xFF MUL NOT AND SWAP1 DUP4 ISZERO ISZERO MUL OR SWAP1 SSTORE POP PUSH1 0x0 PUSH1 0x4 PUSH1 0x0 DUP5 DUP2 MSTORE PUSH1 0x20 ADD SWAP1 DUP2 MSTORE PUSH1 0x20 ADD PUSH1 0x0 KECCAK256 SLOAD SWAP1 POP DUP2 PUSH1 0x2 DUP3 DUP2 SLOAD DUP2 LT PUSH2 0x26B JUMPI PUSH2 0x26A PUSH2 0xFDB JUMP JUMPDEST JUMPDEST SWAP1 PUSH1 0x0 MSTORE PUSH1 0x20 PUSH1 0x0 KECCAK256 SWAP1 PUSH1 0x3 MUL ADD PUSH1 0x0 DUP3 ADD DUP2 PUSH1 0x0 ADD SWAP1 DUP1 SLOAD PUSH2 0x28D SWAP1 PUSH2 0xED1 JUMP JUMPDEST PUSH2 0x298 SWAP3 SWAP2 SWAP1 PUSH2 0x833 JUMP JUMPDEST POP PUSH1 0x1 DUP3 ADD SLOAD DUP2 PUSH1 0x1 ADD SSTORE PUSH1 0x2 DUP3 ADD PUSH1 0x0 SWAP1 SLOAD SWAP1 PUSH2 0x100 EXP SWAP1 DIV PUSH20 0xFFFFFFFFFFFFFFFFFFFFFFFFFFFFFFFFFFFFFFFF AND DUP2 PUSH1 0x2 ADD PUSH1 0x0 PUSH2 0x100 EXP DUP2 SLOAD DUP2 PUSH20 0xFFFFFFFFFFFFFFFFFFFFFFFFFFFFFFFFFFFFFFFF MUL NOT AND SWAP1 DUP4 PUSH20 0xFFFFFFFFFFFFFFFFFFFFFFFFFFFFFFFFFFFFFFFF AND MUL OR SWAP1 SSTORE POP PUSH1 0x2 DUP3 ADD PUSH1 0x14 SWAP1 SLOAD SWAP1 PUSH2 0x100 EXP SWAP1 DIV PUSH1 0xFF AND DUP2 PUSH1 0x2 ADD PUSH1 0x14 PUSH2 0x100 EXP DUP2 SLOAD DUP2 PUSH1 0xFF MUL NOT AND SWAP1 DUP4 ISZERO ISZERO MUL OR SWAP1 SSTORE POP SWAP1 POP POP POP POP POP JUMP JUMPDEST PUSH1 0x60 PUSH1 0x2 DUP1 SLOAD DUP1 PUSH1 0x20 MUL PUSH1 0x20 ADD PUSH1 0x40 MLOAD SWAP1 DUP2 ADD PUSH1 0x40 MSTORE DUP1 SWAP3 SWAP2 SWAP1 DUP2 DUP2 MSTORE PUSH1 0x20 ADD PUSH1 0x0 SWAP1 JUMPDEST DUP3 DUP3 LT ISZERO PUSH2 0x4A2 JUMPI DUP4 DUP3 SWAP1 PUSH1 0x0 MSTORE PUSH1 0x20 PUSH1 0x0 KECCAK256 SWAP1 PUSH1 0x3 MUL ADD PUSH1 0x40 MLOAD DUP1 PUSH1 0x80 ADD PUSH1 0x40 MSTORE SWAP1 DUP2 PUSH1 0x0 DUP3 ADD DUP1 SLOAD PUSH2 0x396 SWAP1 PUSH2 0xED1 JUMP JUMPDEST DUP1 PUSH1 0x1F ADD PUSH1 0x20 DUP1 SWAP2 DIV MUL PUSH1 0x20 ADD PUSH1 0x40 MLOAD SWAP1 DUP2 ADD PUSH1 0x40 MSTORE DUP1 SWAP3 SWAP2 SWAP1 DUP2 DUP2 MSTORE PUSH1 0x20 ADD DUP3 DUP1 SLOAD PUSH2 0x3C2 SWAP1 PUSH2 0xED1 JUMP JUMPDEST DUP1 ISZERO PUSH2 0x40F JUMPI DUP1 PUSH1 0x1F LT PUSH2 0x3E4 JUMPI PUSH2 0x100 DUP1 DUP4 SLOAD DIV MUL DUP4 MSTORE SWAP2 PUSH1 0x20 ADD SWAP2 PUSH2 0x40F JUMP JUMPDEST DUP3 ADD SWAP2 SWAP1 PUSH1 0x0 MSTORE PUSH1 0x20 PUSH1 0x0 KECCAK256 SWAP1 JUMPDEST DUP2 SLOAD DUP2 MSTORE SWAP1 PUSH1 0x1 ADD SWAP1 PUSH1 0x20 ADD DUP1 DUP4 GT PUSH2 0x3F2 JUMPI DUP3 SWAP1 SUB PUSH1 0x1F AND DUP3 ADD SWAP2 JUMPDEST POP POP POP POP POP DUP2 MSTORE PUSH1 0x20 ADD PUSH1 0x1 DUP3 ADD SLOAD DUP2 MSTORE PUSH1 0x20 ADD PUSH1 0x2 DUP3 ADD PUSH1 0x0 SWAP1 SLOAD SWAP1 PUSH2 0x100 EXP SWAP1 DIV PUSH20 0xFFFFFFFFFFFFFFFFFFFFFFFFFFFFFFFFFFFFFFFF AND PUSH20 0xFFFFFFFFFFFFFFFFFFFFFFFFFFFFFFFFFFFFFFFF AND PUSH20 0xFFFFFFFFFFFFFFFFFFFFFFFFFFFFFFFFFFFFFFFF AND DUP2 MSTORE PUSH1 0x20 ADD PUSH1 0x2 DUP3 ADD PUSH1 0x14 SWAP1 SLOAD SWAP1 PUSH2 0x100 EXP SWAP1 DIV PUSH1 0xFF AND ISZERO ISZERO ISZERO ISZERO DUP2 MSTORE POP POP DUP2 MSTORE PUSH1 0x20 ADD SWAP1 PUSH1 0x1 ADD SWAP1 PUSH2 0x363 JUMP JUMPDEST POP POP POP POP SWAP1 POP SWAP1 JUMP JUMPDEST PUSH1 0x4 PUSH1 0x20 MSTORE DUP1 PUSH1 0x0 MSTORE PUSH1 0x40 PUSH1 0x0 KECCAK256 PUSH1 0x0 SWAP2 POP SWAP1 POP SLOAD DUP2 JUMP JUMPDEST PUSH1 0x3 PUSH1 0x20 MSTORE DUP1 PUSH1 0x0 MSTORE PUSH1 0x40 PUSH1 0x0 KECCAK256 PUSH1 0x0 SWAP2 POP SWAP1 POP DUP1 PUSH1 0x0 ADD DUP1 SLOAD PUSH2 0x4E6 SWAP1 PUSH2 0xED1 JUMP JUMPDEST DUP1 PUSH1 0x1F ADD PUSH1 0x20 DUP1 SWAP2 DIV MUL PUSH1 0x20 ADD PUSH1 0x40 MLOAD SWAP1 DUP2 ADD PUSH1 0x40 MSTORE DUP1 SWAP3 SWAP2 SWAP1 DUP2 DUP2 MSTORE PUSH1 0x20 ADD DUP3 DUP1 SLOAD PUSH2 0x512 SWAP1 PUSH2 0xED1 JUMP JUMPDEST DUP1 ISZERO PUSH2 0x55F JUMPI DUP1 PUSH1 0x1F LT PUSH2 0x534 JUMPI PUSH2 0x100 DUP1 DUP4 SLOAD DIV MUL DUP4 MSTORE SWAP2 PUSH1 0x20 ADD SWAP2 PUSH2 0x55F JUMP JUMPDEST DUP3 ADD SWAP2 SWAP1 PUSH1 0x0 MSTORE PUSH1 0x20 PUSH1 0x0 KECCAK256 SWAP1 JUMPDEST DUP2 SLOAD DUP2 MSTORE SWAP1 PUSH1 0x1 ADD SWAP1 PUSH1 0x20 ADD DUP1 DUP4 GT PUSH2 0x542 JUMPI DUP3 SWAP1 SUB PUSH1 0x1F AND DUP3 ADD SWAP2 JUMPDEST POP POP POP POP POP SWAP1 DUP1 PUSH1 0x1 ADD SLOAD SWAP1 DUP1 PUSH1 0x2 ADD PUSH1 0x0 SWAP1 SLOAD SWAP1 PUSH2 0x100 EXP SWAP1 DIV PUSH20 0xFFFFFFFFFFFFFFFFFFFFFFFFFFFFFFFFFFFFFFFF AND SWAP1 DUP1 PUSH1 0x2 ADD PUSH1 0x14 SWAP1 SLOAD SWAP1 PUSH2 0x100 EXP SWAP1 DIV PUSH1 0xFF AND SWAP1 POP DUP5 JUMP JUMPDEST PUSH1 0x0 DUP1 SLOAD SWAP1 PUSH2 0x100 EXP SWAP1 DIV PUSH20 0xFFFFFFFFFFFFFFFFFFFFFFFFFFFFFFFFFFFFFFFF AND PUSH20 0xFFFFFFFFFFFFFFFFFFFFFFFFFFFFFFFFFFFFFFFF AND CALLER PUSH20 0xFFFFFFFFFFFFFFFFFFFFFFFFFFFFFFFFFFFFFFFF AND EQ PUSH2 0x636 JUMPI PUSH1 0x40 MLOAD PUSH32 0x8C379A000000000000000000000000000000000000000000000000000000000 DUP2 MSTORE PUSH1 0x4 ADD PUSH2 0x62D SWAP1 PUSH2 0xD50 JUMP JUMPDEST PUSH1 0x40 MLOAD DUP1 SWAP2 SUB SWAP1 REVERT JUMPDEST PUSH2 0x63E PUSH2 0x8C0 JUMP JUMPDEST DUP3 DUP2 PUSH1 0x0 ADD DUP2 SWAP1 MSTORE POP DUP2 DUP2 PUSH1 0x20 ADD DUP2 DUP2 MSTORE POP POP CALLER DUP2 PUSH1 0x40 ADD SWAP1 PUSH20 0xFFFFFFFFFFFFFFFFFFFFFFFFFFFFFFFFFFFFFFFF AND SWAP1 DUP2 PUSH20 0xFFFFFFFFFFFFFFFFFFFFFFFFFFFFFFFFFFFFFFFF AND DUP2 MSTORE POP POP DUP1 PUSH1 0x3 PUSH1 0x0 DUP7 DUP2 MSTORE PUSH1 0x20 ADD SWAP1 DUP2 MSTORE PUSH1 0x20 ADD PUSH1 0x0 KECCAK256 PUSH1 0x0 DUP3 ADD MLOAD DUP2 PUSH1 0x0 ADD SWAP1 DUP1 MLOAD SWAP1 PUSH1 0x20 ADD SWAP1 PUSH2 0x6B9 SWAP3 SWAP2 SWAP1 PUSH2 0x900 JUMP JUMPDEST POP PUSH1 0x20 DUP3 ADD MLOAD DUP2 PUSH1 0x1 ADD SSTORE PUSH1 0x40 DUP3 ADD MLOAD DUP2 PUSH1 0x2 ADD PUSH1 0x0 PUSH2 0x100 EXP DUP2 SLOAD DUP2 PUSH20 0xFFFFFFFFFFFFFFFFFFFFFFFFFFFFFFFFFFFFFFFF MUL NOT AND SWAP1 DUP4 PUSH20 0xFFFFFFFFFFFFFFFFFFFFFFFFFFFFFFFFFFFFFFFF AND MUL OR SWAP1 SSTORE POP PUSH1 0x60 DUP3 ADD MLOAD DUP2 PUSH1 0x2 ADD PUSH1 0x14 PUSH2 0x100 EXP DUP2 SLOAD DUP2 PUSH1 0xFF MUL NOT AND SWAP1 DUP4 ISZERO ISZERO MUL OR SWAP1 SSTORE POP SWAP1 POP POP PUSH1 0x1 SLOAD PUSH1 0x4 PUSH1 0x0 DUP7 DUP2 MSTORE PUSH1 0x20 ADD SWAP1 DUP2 MSTORE PUSH1 0x20 ADD PUSH1 0x0 KECCAK256 DUP2 SWAP1 SSTORE POP PUSH1 0x2 DUP2 SWAP1 DUP1 PUSH1 0x1 DUP2 SLOAD ADD DUP1 DUP3 SSTORE DUP1 SWAP2 POP POP PUSH1 0x1 SWAP1 SUB SWAP1 PUSH1 0x0 MSTORE PUSH1 0x20 PUSH1 0x0 KECCAK256 SWAP1 PUSH1 0x3 MUL ADD PUSH1 0x0 SWAP1 SWAP2 SWAP1 SWAP2 SWAP1 SWAP2 POP PUSH1 0x0 DUP3 ADD MLOAD DUP2 PUSH1 0x0 ADD SWAP1 DUP1 MLOAD SWAP1 PUSH1 0x20 ADD SWAP1 PUSH2 0x790 SWAP3 SWAP2 SWAP1 PUSH2 0x900 JUMP JUMPDEST POP PUSH1 0x20 DUP3 ADD MLOAD DUP2 PUSH1 0x1 ADD SSTORE PUSH1 0x40 DUP3 ADD MLOAD DUP2 PUSH1 0x2 ADD PUSH1 0x0 PUSH2 0x100 EXP DUP2 SLOAD DUP2 PUSH20 0xFFFFFFFFFFFFFFFFFFFFFFFFFFFFFFFFFFFFFFFF MUL NOT AND SWAP1 DUP4 PUSH20 0xFFFFFFFFFFFFFFFFFFFFFFFFFFFFFFFFFFFFFFFF AND MUL OR SWAP1 SSTORE POP PUSH1 0x60 DUP3 ADD MLOAD DUP2 PUSH1 0x2 ADD PUSH1 0x14 PUSH2 0x100 EXP DUP2 SLOAD DUP2 PUSH1 0xFF MUL NOT AND SWAP1 DUP4 ISZERO ISZERO MUL OR SWAP1 SSTORE POP POP POP PUSH1 0x0 DUP2 PUSH1 0x60 ADD SWAP1 ISZERO ISZERO SWAP1 DUP2 ISZERO ISZERO DUP2 MSTORE POP POP PUSH1 0x1 PUSH1 0x0 DUP2 SLOAD DUP1 SWAP3 SWAP2 SWAP1 PUSH2 0x828 SWAP1 PUSH2 0xF34 JUMP JUMPDEST SWAP2 SWAP1 POP SSTORE POP POP POP POP POP JUMP JUMPDEST DUP3 DUP1 SLOAD PUSH2 0x83F SWAP1 PUSH2 0xED1 JUMP JUMPDEST SWAP1 PUSH1 0x0 MSTORE PUSH1 0x20 PUSH1 0x0 KECCAK256 SWAP1 PUSH1 0x1F ADD PUSH1 0x20 SWAP1 DIV DUP2 ADD SWAP3 DUP3 PUSH2 0x861 JUMPI PUSH1 0x0 DUP6 SSTORE PUSH2 0x8AF JUMP JUMPDEST DUP3 PUSH1 0x1F LT PUSH2 0x872 JUMPI DUP1 SLOAD DUP6 SSTORE PUSH2 0x8AF JUMP JUMPDEST DUP3 DUP1 ADD PUSH1 0x1 ADD DUP6 SSTORE DUP3 ISZERO PUSH2 0x8AF JUMPI PUSH1 0x0 MSTORE PUSH1 0x20 PUSH1 0x0 KECCAK256 SWAP2 PUSH1 0x1F ADD PUSH1 0x20 SWAP1 DIV DUP3 ADD JUMPDEST DUP3 DUP2 GT ISZERO PUSH2 0x8AE JUMPI DUP3 SLOAD DUP3 SSTORE SWAP2 PUSH1 0x1 ADD SWAP2 SWAP1 PUSH1 0x1 ADD SWAP1 PUSH2 0x893 JUMP JUMPDEST JUMPDEST POP SWAP1 POP PUSH2 0x8BC SWAP2 SWAP1 PUSH2 0x986 JUMP JUMPDEST POP SWAP1 JUMP JUMPDEST PUSH1 0x40 MLOAD DUP1 PUSH1 0x80 ADD PUSH1 0x40 MSTORE DUP1 PUSH1 0x60 DUP2 MSTORE PUSH1 0x20 ADD PUSH1 0x0 DUP2 MSTORE PUSH1 0x20 ADD PUSH1 0x0 PUSH20 0xFFFFFFFFFFFFFFFFFFFFFFFFFFFFFFFFFFFFFFFF AND DUP2 MSTORE PUSH1 0x20 ADD PUSH1 0x0 ISZERO ISZERO DUP2 MSTORE POP SWAP1 JUMP JUMPDEST DUP3 DUP1 SLOAD PUSH2 0x90C SWAP1 PUSH2 0xED1 JUMP JUMPDEST SWAP1 PUSH1 0x0 MSTORE PUSH1 0x20 PUSH1 0x0 KECCAK256 SWAP1 PUSH1 0x1F ADD PUSH1 0x20 SWAP1 DIV DUP2 ADD SWAP3 DUP3 PUSH2 0x92E JUMPI PUSH1 0x0 DUP6 SSTORE PUSH2 0x975 JUMP JUMPDEST DUP3 PUSH1 0x1F LT PUSH2 0x947 JUMPI DUP1 MLOAD PUSH1 0xFF NOT AND DUP4 DUP1 ADD OR DUP6 SSTORE PUSH2 0x975 JUMP JUMPDEST DUP3 DUP1 ADD PUSH1 0x1 ADD DUP6 SSTORE DUP3 ISZERO PUSH2 0x975 JUMPI SWAP2 DUP3 ADD JUMPDEST DUP3 DUP2 GT ISZERO PUSH2 0x974 JUMPI DUP3 MLOAD DUP3 SSTORE SWAP2 PUSH1 0x20 ADD SWAP2 SWAP1 PUSH1 0x1 ADD SWAP1 PUSH2 0x959 JUMP JUMPDEST JUMPDEST POP SWAP1 POP PUSH2 0x982 SWAP2 SWAP1 PUSH2 0x986 JUMP JUMPDEST POP SWAP1 JUMP JUMPDEST JUMPDEST DUP1 DUP3 GT ISZERO PUSH2 0x99F JUMPI PUSH1 0x0 DUP2 PUSH1 0x0 SWAP1 SSTORE POP PUSH1 0x1 ADD PUSH2 0x987 JUMP JUMPDEST POP SWAP1 JUMP JUMPDEST PUSH1 0x0 PUSH2 0x9B6 PUSH2 0x9B1 DUP5 PUSH2 0xDB0 JUMP JUMPDEST PUSH2 0xD8B JUMP JUMPDEST SWAP1 POP DUP3 DUP2 MSTORE PUSH1 0x20 DUP2 ADD DUP5 DUP5 DUP5 ADD GT ISZERO PUSH2 0x9D2 JUMPI PUSH2 0x9D1 PUSH2 0x103E JUMP JUMPDEST JUMPDEST PUSH2 0x9DD DUP5 DUP3 DUP6 PUSH2 0xE8F JUMP JUMPDEST POP SWAP4 SWAP3 POP POP POP JUMP JUMPDEST PUSH1 0x0 DUP3 PUSH1 0x1F DUP4 ADD SLT PUSH2 0x9FA JUMPI PUSH2 0x9F9 PUSH2 0x1039 JUMP JUMPDEST JUMPDEST DUP2 CALLDATALOAD PUSH2 0xA0A DUP5 DUP3 PUSH1 0x20 DUP7 ADD PUSH2 0x9A3 JUMP JUMPDEST SWAP2 POP POP SWAP3 SWAP2 POP POP JUMP JUMPDEST PUSH1 0x0 DUP2 CALLDATALOAD SWAP1 POP PUSH2 0xA22 DUP2 PUSH2 0x10D6 JUMP JUMPDEST SWAP3 SWAP2 POP POP JUMP JUMPDEST PUSH1 0x0 PUSH1 0x20 DUP3 DUP5 SUB SLT ISZERO PUSH2 0xA3E JUMPI PUSH2 0xA3D PUSH2 0x1048 JUMP JUMPDEST JUMPDEST PUSH1 0x0 PUSH2 0xA4C DUP5 DUP3 DUP6 ADD PUSH2 0xA13 JUMP JUMPDEST SWAP2 POP POP SWAP3 SWAP2 POP POP JUMP JUMPDEST PUSH1 0x0 DUP1 PUSH1 0x0 PUSH1 0x60 DUP5 DUP7 SUB SLT ISZERO PUSH2 0xA6E JUMPI PUSH2 0xA6D PUSH2 0x1048 JUMP JUMPDEST JUMPDEST PUSH1 0x0 PUSH2 0xA7C DUP7 DUP3 DUP8 ADD PUSH2 0xA13 JUMP JUMPDEST SWAP4 POP POP PUSH1 0x20 DUP5 ADD CALLDATALOAD PUSH8 0xFFFFFFFFFFFFFFFF DUP2 GT ISZERO PUSH2 0xA9D JUMPI PUSH2 0xA9C PUSH2 0x1043 JUMP JUMPDEST JUMPDEST PUSH2 0xAA9 DUP7 DUP3 DUP8 ADD PUSH2 0x9E5 JUMP JUMPDEST SWAP3 POP POP PUSH1 0x40 PUSH2 0xABA DUP7 DUP3 DUP8 ADD PUSH2 0xA13 JUMP JUMPDEST SWAP2 POP POP SWAP3 POP SWAP3 POP SWAP3 JUMP JUMPDEST PUSH1 0x0 PUSH2 0xAD0 DUP4 DUP4 PUSH2 0xC41 JUMP JUMPDEST SWAP1 POP SWAP3 SWAP2 POP POP JUMP JUMPDEST PUSH2 0xAE1 DUP2 PUSH2 0xE47 JUMP JUMPDEST DUP3 MSTORE POP POP JUMP JUMPDEST PUSH2 0xAF0 DUP2 PUSH2 0xE47 JUMP JUMPDEST DUP3 MSTORE POP POP JUMP JUMPDEST PUSH1 0x0 PUSH2 0xB01 DUP3 PUSH2 0xDF1 JUMP JUMPDEST PUSH2 0xB0B DUP2 DUP6 PUSH2 0xE14 JUMP JUMPDEST SWAP4 POP DUP4 PUSH1 0x20 DUP3 MUL DUP6 ADD PUSH2 0xB1D DUP6 PUSH2 0xDE1 JUMP JUMPDEST DUP1 PUSH1 0x0 JUMPDEST DUP6 DUP2 LT ISZERO PUSH2 0xB59 JUMPI DUP5 DUP5 SUB DUP10 MSTORE DUP2 MLOAD PUSH2 0xB3A DUP6 DUP3 PUSH2 0xAC4 JUMP JUMPDEST SWAP5 POP PUSH2 0xB45 DUP4 PUSH2 0xE07 JUMP JUMPDEST SWAP3 POP PUSH1 0x20 DUP11 ADD SWAP10 POP POP PUSH1 0x1 DUP2 ADD SWAP1 POP PUSH2 0xB21 JUMP JUMPDEST POP DUP3 SWAP8 POP DUP8 SWAP6 POP POP POP POP POP POP SWAP3 SWAP2 POP POP JUMP JUMPDEST PUSH2 0xB74 DUP2 PUSH2 0xE59 JUMP JUMPDEST DUP3 MSTORE POP POP JUMP JUMPDEST PUSH2 0xB83 DUP2 PUSH2 0xE59 JUMP JUMPDEST DUP3 MSTORE POP POP JUMP JUMPDEST PUSH1 0x0 PUSH2 0xB94 DUP3 PUSH2 0xDFC JUMP JUMPDEST PUSH2 0xB9E DUP2 DUP6 PUSH2 0xE25 JUMP JUMPDEST SWAP4 POP PUSH2 0xBAE DUP2 DUP6 PUSH1 0x20 DUP7 ADD PUSH2 0xE9E JUMP JUMPDEST PUSH2 0xBB7 DUP2 PUSH2 0x104D JUMP JUMPDEST DUP5 ADD SWAP2 POP POP SWAP3 SWAP2 POP POP JUMP JUMPDEST PUSH1 0x0 PUSH2 0xBCD DUP3 PUSH2 0xDFC JUMP JUMPDEST PUSH2 0xBD7 DUP2 DUP6 PUSH2 0xE36 JUMP JUMPDEST SWAP4 POP PUSH2 0xBE7 DUP2 DUP6 PUSH1 0x20 DUP7 ADD PUSH2 0xE9E JUMP JUMPDEST PUSH2 0xBF0 DUP2 PUSH2 0x104D JUMP JUMPDEST DUP5 ADD SWAP2 POP POP SWAP3 SWAP2 POP POP JUMP JUMPDEST PUSH1 0x0 PUSH2 0xC08 PUSH1 0x24 DUP4 PUSH2 0xE36 JUMP JUMPDEST SWAP2 POP PUSH2 0xC13 DUP3 PUSH2 0x105E JUMP JUMPDEST PUSH1 0x40 DUP3 ADD SWAP1 POP SWAP2 SWAP1 POP JUMP JUMPDEST PUSH1 0x0 PUSH2 0xC2B PUSH1 0x1E DUP4 PUSH2 0xE36 JUMP JUMPDEST SWAP2 POP PUSH2 0xC36 DUP3 PUSH2 0x10AD JUMP JUMPDEST PUSH1 0x20 DUP3 ADD SWAP1 POP SWAP2 SWAP1 POP JUMP JUMPDEST PUSH1 0x0 PUSH1 0x80 DUP4 ADD PUSH1 0x0 DUP4 ADD MLOAD DUP5 DUP3 SUB PUSH1 0x0 DUP7 ADD MSTORE PUSH2 0xC5E DUP3 DUP3 PUSH2 0xB89 JUMP JUMPDEST SWAP2 POP POP PUSH1 0x20 DUP4 ADD MLOAD PUSH2 0xC73 PUSH1 0x20 DUP7 ADD DUP3 PUSH2 0xCA4 JUMP JUMPDEST POP PUSH1 0x40 DUP4 ADD MLOAD PUSH2 0xC86 PUSH1 0x40 DUP7 ADD DUP3 PUSH2 0xAD8 JUMP JUMPDEST POP PUSH1 0x60 DUP4 ADD MLOAD PUSH2 0xC99 PUSH1 0x60 DUP7 ADD DUP3 PUSH2 0xB6B JUMP JUMPDEST POP DUP1 SWAP2 POP POP SWAP3 SWAP2 POP POP JUMP JUMPDEST PUSH2 0xCAD DUP2 PUSH2 0xE85 JUMP JUMPDEST DUP3 MSTORE POP POP JUMP JUMPDEST PUSH2 0xCBC DUP2 PUSH2 0xE85 JUMP JUMPDEST DUP3 MSTORE POP POP JUMP JUMPDEST PUSH1 0x0 PUSH1 0x20 DUP3 ADD SWAP1 POP DUP2 DUP2 SUB PUSH1 0x0 DUP4 ADD MSTORE PUSH2 0xCDC DUP2 DUP5 PUSH2 0xAF6 JUMP JUMPDEST SWAP1 POP SWAP3 SWAP2 POP POP JUMP JUMPDEST PUSH1 0x0 PUSH1 0x80 DUP3 ADD SWAP1 POP DUP2 DUP2 SUB PUSH1 0x0 DUP4 ADD MSTORE PUSH2 0xCFE DUP2 DUP8 PUSH2 0xBC2 JUMP JUMPDEST SWAP1 POP PUSH2 0xD0D PUSH1 0x20 DUP4 ADD DUP7 PUSH2 0xCB3 JUMP JUMPDEST PUSH2 0xD1A PUSH1 0x40 DUP4 ADD DUP6 PUSH2 0xAE7 JUMP JUMPDEST PUSH2 0xD27 PUSH1 0x60 DUP4 ADD DUP5 PUSH2 0xB7A JUMP JUMPDEST SWAP6 SWAP5 POP POP POP POP POP JUMP JUMPDEST PUSH1 0x0 PUSH1 0x20 DUP3 ADD SWAP1 POP DUP2 DUP2 SUB PUSH1 0x0 DUP4 ADD MSTORE PUSH2 0xD49 DUP2 PUSH2 0xBFB JUMP JUMPDEST SWAP1 POP SWAP2 SWAP1 POP JUMP JUMPDEST PUSH1 0x0 PUSH1 0x20 DUP3 ADD SWAP1 POP DUP2 DUP2 SUB PUSH1 0x0 DUP4 ADD MSTORE PUSH2 0xD69 DUP2 PUSH2 0xC1E JUMP JUMPDEST SWAP1 POP SWAP2 SWAP1 POP JUMP JUMPDEST PUSH1 0x0 PUSH1 0x20 DUP3 ADD SWAP1 POP PUSH2 0xD85 PUSH1 0x0 DUP4 ADD DUP5 PUSH2 0xCB3 JUMP JUMPDEST SWAP3 SWAP2 POP POP JUMP JUMPDEST PUSH1 0x0 PUSH2 0xD95 PUSH2 0xDA6 JUMP JUMPDEST SWAP1 POP PUSH2 0xDA1 DUP3 DUP3 PUSH2 0xF03 JUMP JUMPDEST SWAP2 SWAP1 POP JUMP JUMPDEST PUSH1 0x0 PUSH1 0x40 MLOAD SWAP1 POP SWAP1 JUMP JUMPDEST PUSH1 0x0 PUSH8 0xFFFFFFFFFFFFFFFF DUP3 GT ISZERO PUSH2 0xDCB JUMPI PUSH2 0xDCA PUSH2 0x100A JUMP JUMPDEST JUMPDEST PUSH2 0xDD4 DUP3 PUSH2 0x104D JUMP JUMPDEST SWAP1 POP PUSH1 0x20 DUP2 ADD SWAP1 POP SWAP2 SWAP1 POP JUMP JUMPDEST PUSH1 0x0 DUP2 SWAP1 POP PUSH1 0x20 DUP3 ADD SWAP1 POP SWAP2 SWAP1 POP JUMP JUMPDEST PUSH1 0x0 DUP2 MLOAD SWAP1 POP SWAP2 SWAP1 POP JUMP JUMPDEST PUSH1 0x0 DUP2 MLOAD SWAP1 POP SWAP2 SWAP1 POP JUMP JUMPDEST PUSH1 0x0 PUSH1 0x20 DUP3 ADD SWAP1 POP SWAP2 SWAP1 POP JUMP JUMPDEST PUSH1 0x0 DUP3 DUP3 MSTORE PUSH1 0x20 DUP3 ADD SWAP1 POP SWAP3 SWAP2 POP POP JUMP JUMPDEST PUSH1 0x0 DUP3 DUP3 MSTORE PUSH1 0x20 DUP3 ADD SWAP1 POP SWAP3 SWAP2 POP POP JUMP JUMPDEST PUSH1 0x0 DUP3 DUP3 MSTORE PUSH1 0x20 DUP3 ADD SWAP1 POP SWAP3 SWAP2 POP POP JUMP JUMPDEST PUSH1 0x0 PUSH2 0xE52 DUP3 PUSH2 0xE65 JUMP JUMPDEST SWAP1 POP SWAP2 SWAP1 POP JUMP JUMPDEST PUSH1 0x0 DUP2 ISZERO ISZERO SWAP1 POP SWAP2 SWAP1 POP JUMP JUMPDEST PUSH1 0x0 PUSH20 0xFFFFFFFFFFFFFFFFFFFFFFFFFFFFFFFFFFFFFFFF DUP3 AND SWAP1 POP SWAP2 SWAP1 POP JUMP JUMPDEST PUSH1 0x0 DUP2 SWAP1 POP SWAP2 SWAP1 POP JUMP JUMPDEST DUP3 DUP2 DUP4 CALLDATACOPY PUSH1 0x0 DUP4 DUP4 ADD MSTORE POP POP POP JUMP JUMPDEST PUSH1 0x0 JUMPDEST DUP4 DUP2 LT ISZERO PUSH2 0xEBC JUMPI DUP1 DUP3 ADD MLOAD DUP2 DUP5 ADD MSTORE PUSH1 0x20 DUP2 ADD SWAP1 POP PUSH2 0xEA1 JUMP JUMPDEST DUP4 DUP2 GT ISZERO PUSH2 0xECB JUMPI PUSH1 0x0 DUP5 DUP5 ADD MSTORE JUMPDEST POP POP POP POP JUMP JUMPDEST PUSH1 0x0 PUSH1 0x2 DUP3 DIV SWAP1 POP PUSH1 0x1 DUP3 AND DUP1 PUSH2 0xEE9 JUMPI PUSH1 0x7F DUP3 AND SWAP2 POP JUMPDEST PUSH1 0x20 DUP3 LT DUP2 EQ ISZERO PUSH2 0xEFD JUMPI PUSH2 0xEFC PUSH2 0xFAC JUMP JUMPDEST JUMPDEST POP SWAP2 SWAP1 POP JUMP JUMPDEST PUSH2 0xF0C DUP3 PUSH2 0x104D JUMP JUMPDEST DUP2 ADD DUP2 DUP2 LT PUSH8 0xFFFFFFFFFFFFFFFF DUP3 GT OR ISZERO PUSH2 0xF2B JUMPI PUSH2 0xF2A PUSH2 0x100A JUMP JUMPDEST JUMPDEST DUP1 PUSH1 0x40 MSTORE POP POP POP JUMP JUMPDEST PUSH1 0x0 PUSH2 0xF3F DUP3 PUSH2 0xE85 JUMP JUMPDEST SWAP2 POP PUSH32 0xFFFFFFFFFFFFFFFFFFFFFFFFFFFFFFFFFFFFFFFFFFFFFFFFFFFFFFFFFFFFFFFF DUP3 EQ ISZERO PUSH2 0xF72 JUMPI PUSH2 0xF71 PUSH2 0xF7D JUMP JUMPDEST JUMPDEST PUSH1 0x1 DUP3 ADD SWAP1 POP SWAP2 SWAP1 POP JUMP JUMPDEST PUSH32 0x4E487B7100000000000000000000000000000000000000000000000000000000 PUSH1 0x0 MSTORE PUSH1 0x11 PUSH1 0x4 MSTORE PUSH1 0x24 PUSH1 0x0 REVERT JUMPDEST PUSH32 0x4E487B7100000000000000000000000000000000000000000000000000000000 PUSH1 0x0 MSTORE PUSH1 0x22 PUSH1 0x4 MSTORE PUSH1 0x24 PUSH1 0x0 REVERT JUMPDEST PUSH32 0x4E487B7100000000000000000000000000000000000000000000000000000000 PUSH1 0x0 MSTORE PUSH1 0x32 PUSH1 0x4 MSTORE PUSH1 0x24 PUSH1 0x0 REVERT JUMPDEST PUSH32 0x4E487B7100000000000000000000000000000000000000000000000000000000 PUSH1 0x0 MSTORE PUSH1 0x41 PUSH1 0x4 MSTORE PUSH1 0x24 PUSH1 0x0 REVERT JUMPDEST PUSH1 0x0 DUP1 REVERT JUMPDEST PUSH1 0x0 DUP1 REVERT JUMPDEST PUSH1 0x0 DUP1 REVERT JUMPDEST PUSH1 0x0 DUP1 REVERT JUMPDEST PUSH1 0x0 PUSH1 0x1F NOT PUSH1 0x1F DUP4 ADD AND SWAP1 POP SWAP2 SWAP1 POP JUMP JUMPDEST PUSH32 0x656E6E6179207061697379206E6165207465726179206B6F6C2C2063686C2070 PUSH1 0x0 DUP3 ADD MSTORE PUSH32 0x6A206A6100000000000000000000000000000000000000000000000000000000 PUSH1 0x20 DUP3 ADD MSTORE POP JUMP JUMPDEST PUSH32 0x6F6E6C79206F776E65722063616E20616464207468652076656869636C650000 PUSH1 0x0 DUP3 ADD MSTORE POP JUMP JUMPDEST PUSH2 0x10DF DUP2 PUSH2 0xE85 JUMP JUMPDEST DUP2 EQ PUSH2 0x10EA JUMPI PUSH1 0x0 DUP1 REVERT JUMPDEST POP JUMP INVALID LOG2 PUSH5 0x6970667358 0x22 SLT KECCAK256 BALANCE 0xE8 0xF 0xD4 0xBF 0x5E MLOAD SDIV SWAP7 PUSH12 0xDB70C4FF59D8834A9B6E3B5D SWAP10 PC 0xDF 0xE5 0x22 0xD3 AND 0xAC 0x23 SWAP13 PUSH5 0x736F6C6343 STOP ADDMOD SMOD STOP CALLER "
				},
				"gasEstimates": {
					"creation": {
						"codeDepositCost": "877400",
						"executionCost": "25182",
						"totalCost": "902582"
					},
					"external": {
						"": "195",
						"addvehicle(uint256,string,uint256)": "infinite",
						"buytheVehicle(uint256)": "infinite",
						"count()": "2407",
						"getRecords()": "infinite",
						"indexOf(uint256)": "infinite",
						"showVehicle(uint256)": "infinite"
					}
				},
				"methodIdentifiers": {
					"addvehicle(uint256,string,uint256)": "f618a725",
					"buytheVehicle(uint256)": "40a18bb7",
					"count()": "06661abd",
					"getRecords()": "8eff3c29",
					"indexOf(uint256)": "91ac7e65",
					"showVehicle(uint256)": "c9b27ba8"
				}
			},
			"storageLayout": {
				"storage": [
					{
						"astId": 12,
						"contract": "Samples/abcArrayStruct.sol:vehicleShowRoom",
						"label": "owner",
						"offset": 0,
						"slot": "0",
						"type": "t_address"
					},
					{
						"astId": 14,
						"contract": "Samples/abcArrayStruct.sol:vehicleShowRoom",
						"label": "count",
						"offset": 0,
						"slot": "1",
						"type": "t_uint256"
					},
					{
						"astId": 27,
						"contract": "Samples/abcArrayStruct.sol:vehicleShowRoom",
						"label": "vehicleRecords",
						"offset": 0,
						"slot": "2",
						"type": "t_array(t_struct(ListofVehicle)10_storage)dyn_storage"
					},
					{
						"astId": 32,
						"contract": "Samples/abcArrayStruct.sol:vehicleShowRoom",
						"label": "showVehicle",
						"offset": 0,
						"slot": "3",
						"type": "t_mapping(t_uint256,t_struct(ListofVehicle)10_storage)"
					},
					{
						"astId": 36,
						"contract": "Samples/abcArrayStruct.sol:vehicleShowRoom",
						"label": "indexOf",
						"offset": 0,
						"slot": "4",
						"type": "t_mapping(t_uint256,t_uint256)"
					}
				],
				"types": {
					"t_address": {
						"encoding": "inplace",
						"label": "address",
						"numberOfBytes": "20"
					},
					"t_array(t_struct(ListofVehicle)10_storage)dyn_storage": {
						"base": "t_struct(ListofVehicle)10_storage",
						"encoding": "dynamic_array",
						"label": "struct vehicleShowRoom.ListofVehicle[]",
						"numberOfBytes": "32"
					},
					"t_bool": {
						"encoding": "inplace",
						"label": "bool",
						"numberOfBytes": "1"
					},
					"t_mapping(t_uint256,t_struct(ListofVehicle)10_storage)": {
						"encoding": "mapping",
						"key": "t_uint256",
						"label": "mapping(uint256 => struct vehicleShowRoom.ListofVehicle)",
						"numberOfBytes": "32",
						"value": "t_struct(ListofVehicle)10_storage"
					},
					"t_mapping(t_uint256,t_uint256)": {
						"encoding": "mapping",
						"key": "t_uint256",
						"label": "mapping(uint256 => uint256)",
						"numberOfBytes": "32",
						"value": "t_uint256"
					},
					"t_string_storage": {
						"encoding": "bytes",
						"label": "string",
						"numberOfBytes": "32"
					},
					"t_struct(ListofVehicle)10_storage": {
						"encoding": "inplace",
						"label": "struct vehicleShowRoom.ListofVehicle",
						"members": [
							{
								"astId": 3,
								"contract": "Samples/abcArrayStruct.sol:vehicleShowRoom",
								"label": "name",
								"offset": 0,
								"slot": "0",
								"type": "t_string_storage"
							},
							{
								"astId": 5,
								"contract": "Samples/abcArrayStruct.sol:vehicleShowRoom",
								"label": "price",
								"offset": 0,
								"slot": "1",
								"type": "t_uint256"
							},
							{
								"astId": 7,
								"contract": "Samples/abcArrayStruct.sol:vehicleShowRoom",
								"label": "owner",
								"offset": 0,
								"slot": "2",
								"type": "t_address"
							},
							{
								"astId": 9,
								"contract": "Samples/abcArrayStruct.sol:vehicleShowRoom",
								"label": "sold",
								"offset": 20,
								"slot": "2",
								"type": "t_bool"
							}
						],
						"numberOfBytes": "96"
					},
					"t_uint256": {
						"encoding": "inplace",
						"label": "uint256",
						"numberOfBytes": "32"
					}
				}
			},
			"userdoc": {
				"kind": "user",
				"methods": {},
				"version": 1
			}
		}
	}
}