{
	"Samples/structExample.sol": {
		"Data": {
			"abi": [
				{
					"inputs": [
						{
							"internalType": "uint256",
							"name": "",
							"type": "uint256"
						}
					],
					"name": "BookRecord",
					"outputs": [
						{
							"internalType": "string",
							"name": "title",
							"type": "string"
						},
						{
							"internalType": "string",
							"name": "author",
							"type": "string"
						},
						{
							"internalType": "uint256",
							"name": "id",
							"type": "uint256"
						}
					],
					"stateMutability": "view",
					"type": "function"
				},
				{
					"inputs": [
						{
							"internalType": "uint256",
							"name": "checkID",
							"type": "uint256"
						},
						{
							"internalType": "string",
							"name": "Title",
							"type": "string"
						},
						{
							"internalType": "string",
							"name": "Author",
							"type": "string"
						},
						{
							"internalType": "uint256",
							"name": "ID",
							"type": "uint256"
						}
					],
					"name": "checkbook",
					"outputs": [],
					"stateMutability": "nonpayable",
					"type": "function"
				}
			],
			"devdoc": {
				"kind": "dev",
				"methods": {},
				"version": 1
			},
			"evm": {
				"assembly": "    /* \"Samples/structExample.sol\":59:642  contract Data{\r... */\n  mstore(0x40, 0x80)\n  callvalue\n  dup1\n  iszero\n  tag_1\n  jumpi\n  0x00\n  dup1\n  revert\ntag_1:\n  pop\n  dataSize(sub_0)\n  dup1\n  dataOffset(sub_0)\n  0x00\n  codecopy\n  0x00\n  return\nstop\n\nsub_0: assembly {\n        /* \"Samples/structExample.sol\":59:642  contract Data{\r... */\n      mstore(0x40, 0x80)\n      callvalue\n      dup1\n      iszero\n      tag_1\n      jumpi\n      0x00\n      dup1\n      revert\n    tag_1:\n      pop\n      jumpi(tag_2, lt(calldatasize, 0x04))\n      shr(0xe0, calldataload(0x00))\n      dup1\n      0xb6e19d17\n      eq\n      tag_3\n      jumpi\n      dup1\n      0xeba2c5fd\n      eq\n      tag_4\n      jumpi\n    tag_2:\n      0x00\n      dup1\n      revert\n        /* \"Samples/structExample.sol\":173:212  mapping(uint => Book) public BookRecord */\n    tag_3:\n      tag_5\n      0x04\n      dup1\n      calldatasize\n      sub\n      dup2\n      add\n      swap1\n      tag_6\n      swap2\n      swap1\n      tag_7\n      jump\t// in\n    tag_6:\n      tag_8\n      jump\t// in\n    tag_5:\n      mload(0x40)\n      tag_9\n      swap4\n      swap3\n      swap2\n      swap1\n      tag_10\n      jump\t// in\n    tag_9:\n      mload(0x40)\n      dup1\n      swap2\n      sub\n      swap1\n      return\n        /* \"Samples/structExample.sol\":327:637  function checkbook(uint256 checkID, string memory Title, string memory Author, uint ID) public myCondition(ID) {\r... */\n    tag_4:\n      tag_11\n      0x04\n      dup1\n      calldatasize\n      sub\n      dup2\n      add\n      swap1\n      tag_12\n      swap2\n      swap1\n      tag_13\n      jump\t// in\n    tag_12:\n      tag_14\n      jump\t// in\n    tag_11:\n      stop\n        /* \"Samples/structExample.sol\":173:212  mapping(uint => Book) public BookRecord */\n    tag_8:\n      mstore(0x20, 0x00)\n      dup1\n      0x00\n      mstore\n      keccak256(0x00, 0x40)\n      0x00\n      swap2\n      pop\n      swap1\n      pop\n      dup1\n      0x00\n      add\n      dup1\n      sload\n      tag_15\n      swap1\n      tag_16\n      jump\t// in\n    tag_15:\n      dup1\n      0x1f\n      add\n      0x20\n      dup1\n      swap2\n      div\n      mul\n      0x20\n      add\n      mload(0x40)\n      swap1\n      dup2\n      add\n      0x40\n      mstore\n      dup1\n      swap3\n      swap2\n      swap1\n      dup2\n      dup2\n      mstore\n      0x20\n      add\n      dup3\n      dup1\n      sload\n      tag_17\n      swap1\n      tag_16\n      jump\t// in\n    tag_17:\n      dup1\n      iszero\n      tag_18\n      jumpi\n      dup1\n      0x1f\n      lt\n      tag_19\n      jumpi\n      0x0100\n      dup1\n      dup4\n      sload\n      div\n      mul\n      dup4\n      mstore\n      swap2\n      0x20\n      add\n      swap2\n      jump(tag_18)\n    tag_19:\n      dup3\n      add\n      swap2\n      swap1\n      0x00\n      mstore\n      keccak256(0x00, 0x20)\n      swap1\n    tag_20:\n      dup2\n      sload\n      dup2\n      mstore\n      swap1\n      0x01\n      add\n      swap1\n      0x20\n      add\n      dup1\n      dup4\n      gt\n      tag_20\n      jumpi\n      dup3\n      swap1\n      sub\n      0x1f\n      and\n      dup3\n      add\n      swap2\n    tag_18:\n      pop\n      pop\n      pop\n      pop\n      pop\n      swap1\n      dup1\n      0x01\n      add\n      dup1\n      sload\n      tag_21\n      swap1\n      tag_16\n      jump\t// in\n    tag_21:\n      dup1\n      0x1f\n      add\n      0x20\n      dup1\n      swap2\n      div\n      mul\n      0x20\n      add\n      mload(0x40)\n      swap1\n      dup2\n      add\n      0x40\n      mstore\n      dup1\n      swap3\n      swap2\n      swap1\n      dup2\n      dup2\n      mstore\n      0x20\n      add\n      dup3\n      dup1\n      sload\n      tag_22\n      swap1\n      tag_16\n      jump\t// in\n    tag_22:\n      dup1\n      iszero\n      tag_23\n      jumpi\n      dup1\n      0x1f\n      lt\n      tag_24\n      jumpi\n      0x0100\n      dup1\n      dup4\n      sload\n      div\n      mul\n      dup4\n      mstore\n      swap2\n      0x20\n      add\n      swap2\n      jump(tag_23)\n    tag_24:\n      dup3\n      add\n      swap2\n      swap1\n      0x00\n      mstore\n      keccak256(0x00, 0x20)\n      swap1\n    tag_25:\n      dup2\n      sload\n      dup2\n      mstore\n      swap1\n      0x01\n      add\n      swap1\n      0x20\n      add\n      dup1\n      dup4\n      gt\n      tag_25\n      jumpi\n      dup3\n      swap1\n      sub\n      0x1f\n      and\n      dup3\n      add\n      swap2\n    tag_23:\n      pop\n      pop\n      pop\n      pop\n      pop\n      swap1\n      dup1\n      0x02\n      add\n      sload\n      swap1\n      pop\n      dup4\n      jump\t// out\n        /* \"Samples/structExample.sol\":327:637  function checkbook(uint256 checkID, string memory Title, string memory Author, uint ID) public myCondition(ID) {\r... */\n    tag_14:\n        /* \"Samples/structExample.sol\":434:436  ID */\n      dup1\n        /* \"Samples/structExample.sol\":276:277  5 */\n      0x05\n        /* \"Samples/structExample.sol\":270:272  ID */\n      dup2\n        /* \"Samples/structExample.sol\":270:277  ID != 5 */\n      eq\n      iszero\n        /* \"Samples/structExample.sol\":262:299  require(ID != 5, \"ID is not matched\") */\n      tag_27\n      jumpi\n      mload(0x40)\n      0x08c379a000000000000000000000000000000000000000000000000000000000\n      dup2\n      mstore\n      0x04\n      add\n      tag_28\n      swap1\n      tag_29\n      jump\t// in\n    tag_28:\n      mload(0x40)\n      dup1\n      swap2\n      sub\n      swap1\n      revert\n    tag_27:\n        /* \"Samples/structExample.sol\":449:465  Book memory book */\n      tag_31\n      tag_32\n      jump\t// in\n    tag_31:\n        /* \"Samples/structExample.sol\":487:492  Title */\n      dup5\n        /* \"Samples/structExample.sol\":476:480  book */\n      dup2\n        /* \"Samples/structExample.sol\":476:486  book.title */\n      0x00\n      add\n        /* \"Samples/structExample.sol\":476:492  book.title=Title */\n      dup2\n      swap1\n      mstore\n      pop\n        /* \"Samples/structExample.sol\":515:521  Author */\n      dup4\n        /* \"Samples/structExample.sol\":503:507  book */\n      dup2\n        /* \"Samples/structExample.sol\":503:514  book.author */\n      0x20\n      add\n        /* \"Samples/structExample.sol\":503:521  book.author=Author */\n      dup2\n      swap1\n      mstore\n      pop\n        /* \"Samples/structExample.sol\":540:542  ID */\n      dup3\n        /* \"Samples/structExample.sol\":532:536  book */\n      dup2\n        /* \"Samples/structExample.sol\":532:539  book.id */\n      0x40\n      add\n        /* \"Samples/structExample.sol\":532:542  book.id=ID */\n      dup2\n      dup2\n      mstore\n      pop\n      pop\n        /* \"Samples/structExample.sol\":625:629  book */\n      dup1\n        /* \"Samples/structExample.sol\":603:613  BookRecord */\n      0x00\n        /* \"Samples/structExample.sol\":603:622  BookRecord[checkID] */\n      dup1\n        /* \"Samples/structExample.sol\":614:621  checkID */\n      dup9\n        /* \"Samples/structExample.sol\":603:622  BookRecord[checkID] */\n      dup2\n      mstore\n      0x20\n      add\n      swap1\n      dup2\n      mstore\n      0x20\n      add\n      0x00\n      keccak256\n        /* \"Samples/structExample.sol\":603:629  BookRecord[checkID] = book */\n      0x00\n      dup3\n      add\n      mload\n      dup2\n      0x00\n      add\n      swap1\n      dup1\n      mload\n      swap1\n      0x20\n      add\n      swap1\n      tag_33\n      swap3\n      swap2\n      swap1\n      tag_34\n      jump\t// in\n    tag_33:\n      pop\n      0x20\n      dup3\n      add\n      mload\n      dup2\n      0x01\n      add\n      swap1\n      dup1\n      mload\n      swap1\n      0x20\n      add\n      swap1\n      tag_35\n      swap3\n      swap2\n      swap1\n      tag_34\n      jump\t// in\n    tag_35:\n      pop\n      0x40\n      dup3\n      add\n      mload\n      dup2\n      0x02\n      add\n      sstore\n      swap1\n      pop\n      pop\n        /* \"Samples/structExample.sol\":438:637  {\r... */\n      pop\n        /* \"Samples/structExample.sol\":327:637  function checkbook(uint256 checkID, string memory Title, string memory Author, uint ID) public myCondition(ID) {\r... */\n      pop\n      pop\n      pop\n      pop\n      pop\n      jump\t// out\n    tag_32:\n      mload(0x40)\n      dup1\n      0x60\n      add\n      0x40\n      mstore\n      dup1\n      0x60\n      dup2\n      mstore\n      0x20\n      add\n      0x60\n      dup2\n      mstore\n      0x20\n      add\n      0x00\n      dup2\n      mstore\n      pop\n      swap1\n      jump\t// out\n    tag_34:\n      dup3\n      dup1\n      sload\n      tag_36\n      swap1\n      tag_16\n      jump\t// in\n    tag_36:\n      swap1\n      0x00\n      mstore\n      keccak256(0x00, 0x20)\n      swap1\n      0x1f\n      add\n      0x20\n      swap1\n      div\n      dup2\n      add\n      swap3\n      dup3\n      tag_38\n      jumpi\n      0x00\n      dup6\n      sstore\n      jump(tag_37)\n    tag_38:\n      dup3\n      0x1f\n      lt\n      tag_39\n      jumpi\n      dup1\n      mload\n      not(0xff)\n      and\n      dup4\n      dup1\n      add\n      or\n      dup6\n      sstore\n      jump(tag_37)\n    tag_39:\n      dup3\n      dup1\n      add\n      0x01\n      add\n      dup6\n      sstore\n      dup3\n      iszero\n      tag_37\n      jumpi\n      swap2\n      dup3\n      add\n    tag_40:\n      dup3\n      dup2\n      gt\n      iszero\n      tag_41\n      jumpi\n      dup3\n      mload\n      dup3\n      sstore\n      swap2\n      0x20\n      add\n      swap2\n      swap1\n      0x01\n      add\n      swap1\n      jump(tag_40)\n    tag_41:\n    tag_37:\n      pop\n      swap1\n      pop\n      tag_42\n      swap2\n      swap1\n      tag_43\n      jump\t// in\n    tag_42:\n      pop\n      swap1\n      jump\t// out\n    tag_43:\n    tag_44:\n      dup1\n      dup3\n      gt\n      iszero\n      tag_45\n      jumpi\n      0x00\n      dup2\n      0x00\n      swap1\n      sstore\n      pop\n      0x01\n      add\n      jump(tag_44)\n    tag_45:\n      pop\n      swap1\n      jump\t// out\n        /* \"#utility.yul\":7:419   */\n    tag_47:\n        /* \"#utility.yul\":85:90   */\n      0x00\n        /* \"#utility.yul\":110:176   */\n      tag_49\n        /* \"#utility.yul\":126:175   */\n      tag_50\n        /* \"#utility.yul\":168:174   */\n      dup5\n        /* \"#utility.yul\":126:175   */\n      tag_51\n      jump\t// in\n    tag_50:\n        /* \"#utility.yul\":110:176   */\n      tag_52\n      jump\t// in\n    tag_49:\n        /* \"#utility.yul\":101:176   */\n      swap1\n      pop\n        /* \"#utility.yul\":199:205   */\n      dup3\n        /* \"#utility.yul\":192:197   */\n      dup2\n        /* \"#utility.yul\":185:206   */\n      mstore\n        /* \"#utility.yul\":237:241   */\n      0x20\n        /* \"#utility.yul\":230:235   */\n      dup2\n        /* \"#utility.yul\":226:242   */\n      add\n        /* \"#utility.yul\":275:278   */\n      dup5\n        /* \"#utility.yul\":266:272   */\n      dup5\n        /* \"#utility.yul\":261:264   */\n      dup5\n        /* \"#utility.yul\":257:273   */\n      add\n        /* \"#utility.yul\":254:279   */\n      gt\n        /* \"#utility.yul\":251:363   */\n      iszero\n      tag_53\n      jumpi\n        /* \"#utility.yul\":282:361   */\n      tag_54\n      tag_55\n      jump\t// in\n    tag_54:\n        /* \"#utility.yul\":251:363   */\n    tag_53:\n        /* \"#utility.yul\":372:413   */\n      tag_56\n        /* \"#utility.yul\":406:412   */\n      dup5\n        /* \"#utility.yul\":401:404   */\n      dup3\n        /* \"#utility.yul\":396:399   */\n      dup6\n        /* \"#utility.yul\":372:413   */\n      tag_57\n      jump\t// in\n    tag_56:\n        /* \"#utility.yul\":91:419   */\n      pop\n        /* \"#utility.yul\":7:419   */\n      swap4\n      swap3\n      pop\n      pop\n      pop\n      jump\t// out\n        /* \"#utility.yul\":439:779   */\n    tag_58:\n        /* \"#utility.yul\":495:500   */\n      0x00\n        /* \"#utility.yul\":544:547   */\n      dup3\n        /* \"#utility.yul\":537:541   */\n      0x1f\n        /* \"#utility.yul\":529:535   */\n      dup4\n        /* \"#utility.yul\":525:542   */\n      add\n        /* \"#utility.yul\":521:548   */\n      slt\n        /* \"#utility.yul\":511:633   */\n      tag_60\n      jumpi\n        /* \"#utility.yul\":552:631   */\n      tag_61\n      tag_62\n      jump\t// in\n    tag_61:\n        /* \"#utility.yul\":511:633   */\n    tag_60:\n        /* \"#utility.yul\":669:675   */\n      dup2\n        /* \"#utility.yul\":656:676   */\n      calldataload\n        /* \"#utility.yul\":694:773   */\n      tag_63\n        /* \"#utility.yul\":769:772   */\n      dup5\n        /* \"#utility.yul\":761:767   */\n      dup3\n        /* \"#utility.yul\":754:758   */\n      0x20\n        /* \"#utility.yul\":746:752   */\n      dup7\n        /* \"#utility.yul\":742:759   */\n      add\n        /* \"#utility.yul\":694:773   */\n      tag_47\n      jump\t// in\n    tag_63:\n        /* \"#utility.yul\":685:773   */\n      swap2\n      pop\n        /* \"#utility.yul\":501:779   */\n      pop\n        /* \"#utility.yul\":439:779   */\n      swap3\n      swap2\n      pop\n      pop\n      jump\t// out\n        /* \"#utility.yul\":785:924   */\n    tag_64:\n        /* \"#utility.yul\":831:836   */\n      0x00\n        /* \"#utility.yul\":869:875   */\n      dup2\n        /* \"#utility.yul\":856:876   */\n      calldataload\n        /* \"#utility.yul\":847:876   */\n      swap1\n      pop\n        /* \"#utility.yul\":885:918   */\n      tag_66\n        /* \"#utility.yul\":912:917   */\n      dup2\n        /* \"#utility.yul\":885:918   */\n      tag_67\n      jump\t// in\n    tag_66:\n        /* \"#utility.yul\":785:924   */\n      swap3\n      swap2\n      pop\n      pop\n      jump\t// out\n        /* \"#utility.yul\":930:1259   */\n    tag_7:\n        /* \"#utility.yul\":989:995   */\n      0x00\n        /* \"#utility.yul\":1038:1040   */\n      0x20\n        /* \"#utility.yul\":1026:1035   */\n      dup3\n        /* \"#utility.yul\":1017:1024   */\n      dup5\n        /* \"#utility.yul\":1013:1036   */\n      sub\n        /* \"#utility.yul\":1009:1041   */\n      slt\n        /* \"#utility.yul\":1006:1125   */\n      iszero\n      tag_69\n      jumpi\n        /* \"#utility.yul\":1044:1123   */\n      tag_70\n      tag_71\n      jump\t// in\n    tag_70:\n        /* \"#utility.yul\":1006:1125   */\n    tag_69:\n        /* \"#utility.yul\":1164:1165   */\n      0x00\n        /* \"#utility.yul\":1189:1242   */\n      tag_72\n        /* \"#utility.yul\":1234:1241   */\n      dup5\n        /* \"#utility.yul\":1225:1231   */\n      dup3\n        /* \"#utility.yul\":1214:1223   */\n      dup6\n        /* \"#utility.yul\":1210:1232   */\n      add\n        /* \"#utility.yul\":1189:1242   */\n      tag_64\n      jump\t// in\n    tag_72:\n        /* \"#utility.yul\":1179:1242   */\n      swap2\n      pop\n        /* \"#utility.yul\":1135:1252   */\n      pop\n        /* \"#utility.yul\":930:1259   */\n      swap3\n      swap2\n      pop\n      pop\n      jump\t// out\n        /* \"#utility.yul\":1265:2390   */\n    tag_13:\n        /* \"#utility.yul\":1371:1377   */\n      0x00\n        /* \"#utility.yul\":1379:1385   */\n      dup1\n        /* \"#utility.yul\":1387:1393   */\n      0x00\n        /* \"#utility.yul\":1395:1401   */\n      dup1\n        /* \"#utility.yul\":1444:1447   */\n      0x80\n        /* \"#utility.yul\":1432:1441   */\n      dup6\n        /* \"#utility.yul\":1423:1430   */\n      dup8\n        /* \"#utility.yul\":1419:1442   */\n      sub\n        /* \"#utility.yul\":1415:1448   */\n      slt\n        /* \"#utility.yul\":1412:1532   */\n      iszero\n      tag_74\n      jumpi\n        /* \"#utility.yul\":1451:1530   */\n      tag_75\n      tag_71\n      jump\t// in\n    tag_75:\n        /* \"#utility.yul\":1412:1532   */\n    tag_74:\n        /* \"#utility.yul\":1571:1572   */\n      0x00\n        /* \"#utility.yul\":1596:1649   */\n      tag_76\n        /* \"#utility.yul\":1641:1648   */\n      dup8\n        /* \"#utility.yul\":1632:1638   */\n      dup3\n        /* \"#utility.yul\":1621:1630   */\n      dup9\n        /* \"#utility.yul\":1617:1639   */\n      add\n        /* \"#utility.yul\":1596:1649   */\n      tag_64\n      jump\t// in\n    tag_76:\n        /* \"#utility.yul\":1586:1649   */\n      swap5\n      pop\n        /* \"#utility.yul\":1542:1659   */\n      pop\n        /* \"#utility.yul\":1726:1728   */\n      0x20\n        /* \"#utility.yul\":1715:1724   */\n      dup6\n        /* \"#utility.yul\":1711:1729   */\n      add\n        /* \"#utility.yul\":1698:1730   */\n      calldataload\n        /* \"#utility.yul\":1757:1775   */\n      0xffffffffffffffff\n        /* \"#utility.yul\":1749:1755   */\n      dup2\n        /* \"#utility.yul\":1746:1776   */\n      gt\n        /* \"#utility.yul\":1743:1860   */\n      iszero\n      tag_77\n      jumpi\n        /* \"#utility.yul\":1779:1858   */\n      tag_78\n      tag_79\n      jump\t// in\n    tag_78:\n        /* \"#utility.yul\":1743:1860   */\n    tag_77:\n        /* \"#utility.yul\":1884:1947   */\n      tag_80\n        /* \"#utility.yul\":1939:1946   */\n      dup8\n        /* \"#utility.yul\":1930:1936   */\n      dup3\n        /* \"#utility.yul\":1919:1928   */\n      dup9\n        /* \"#utility.yul\":1915:1937   */\n      add\n        /* \"#utility.yul\":1884:1947   */\n      tag_58\n      jump\t// in\n    tag_80:\n        /* \"#utility.yul\":1874:1947   */\n      swap4\n      pop\n        /* \"#utility.yul\":1669:1957   */\n      pop\n        /* \"#utility.yul\":2024:2026   */\n      0x40\n        /* \"#utility.yul\":2013:2022   */\n      dup6\n        /* \"#utility.yul\":2009:2027   */\n      add\n        /* \"#utility.yul\":1996:2028   */\n      calldataload\n        /* \"#utility.yul\":2055:2073   */\n      0xffffffffffffffff\n        /* \"#utility.yul\":2047:2053   */\n      dup2\n        /* \"#utility.yul\":2044:2074   */\n      gt\n        /* \"#utility.yul\":2041:2158   */\n      iszero\n      tag_81\n      jumpi\n        /* \"#utility.yul\":2077:2156   */\n      tag_82\n      tag_79\n      jump\t// in\n    tag_82:\n        /* \"#utility.yul\":2041:2158   */\n    tag_81:\n        /* \"#utility.yul\":2182:2245   */\n      tag_83\n        /* \"#utility.yul\":2237:2244   */\n      dup8\n        /* \"#utility.yul\":2228:2234   */\n      dup3\n        /* \"#utility.yul\":2217:2226   */\n      dup9\n        /* \"#utility.yul\":2213:2235   */\n      add\n        /* \"#utility.yul\":2182:2245   */\n      tag_58\n      jump\t// in\n    tag_83:\n        /* \"#utility.yul\":2172:2245   */\n      swap3\n      pop\n        /* \"#utility.yul\":1967:2255   */\n      pop\n        /* \"#utility.yul\":2294:2296   */\n      0x60\n        /* \"#utility.yul\":2320:2373   */\n      tag_84\n        /* \"#utility.yul\":2365:2372   */\n      dup8\n        /* \"#utility.yul\":2356:2362   */\n      dup3\n        /* \"#utility.yul\":2345:2354   */\n      dup9\n        /* \"#utility.yul\":2341:2363   */\n      add\n        /* \"#utility.yul\":2320:2373   */\n      tag_64\n      jump\t// in\n    tag_84:\n        /* \"#utility.yul\":2310:2373   */\n      swap2\n      pop\n        /* \"#utility.yul\":2265:2383   */\n      pop\n        /* \"#utility.yul\":1265:2390   */\n      swap3\n      swap6\n      swap2\n      swap5\n      pop\n      swap3\n      pop\n      jump\t// out\n        /* \"#utility.yul\":2396:2760   */\n    tag_85:\n        /* \"#utility.yul\":2484:2487   */\n      0x00\n        /* \"#utility.yul\":2512:2551   */\n      tag_87\n        /* \"#utility.yul\":2545:2550   */\n      dup3\n        /* \"#utility.yul\":2512:2551   */\n      tag_88\n      jump\t// in\n    tag_87:\n        /* \"#utility.yul\":2567:2638   */\n      tag_89\n        /* \"#utility.yul\":2631:2637   */\n      dup2\n        /* \"#utility.yul\":2626:2629   */\n      dup6\n        /* \"#utility.yul\":2567:2638   */\n      tag_90\n      jump\t// in\n    tag_89:\n        /* \"#utility.yul\":2560:2638   */\n      swap4\n      pop\n        /* \"#utility.yul\":2647:2699   */\n      tag_91\n        /* \"#utility.yul\":2692:2698   */\n      dup2\n        /* \"#utility.yul\":2687:2690   */\n      dup6\n        /* \"#utility.yul\":2680:2684   */\n      0x20\n        /* \"#utility.yul\":2673:2678   */\n      dup7\n        /* \"#utility.yul\":2669:2685   */\n      add\n        /* \"#utility.yul\":2647:2699   */\n      tag_92\n      jump\t// in\n    tag_91:\n        /* \"#utility.yul\":2724:2753   */\n      tag_93\n        /* \"#utility.yul\":2746:2752   */\n      dup2\n        /* \"#utility.yul\":2724:2753   */\n      tag_94\n      jump\t// in\n    tag_93:\n        /* \"#utility.yul\":2719:2722   */\n      dup5\n        /* \"#utility.yul\":2715:2754   */\n      add\n        /* \"#utility.yul\":2708:2754   */\n      swap2\n      pop\n        /* \"#utility.yul\":2488:2760   */\n      pop\n        /* \"#utility.yul\":2396:2760   */\n      swap3\n      swap2\n      pop\n      pop\n      jump\t// out\n        /* \"#utility.yul\":2766:3132   */\n    tag_95:\n        /* \"#utility.yul\":2908:2911   */\n      0x00\n        /* \"#utility.yul\":2929:2996   */\n      tag_97\n        /* \"#utility.yul\":2993:2995   */\n      0x11\n        /* \"#utility.yul\":2988:2991   */\n      dup4\n        /* \"#utility.yul\":2929:2996   */\n      tag_90\n      jump\t// in\n    tag_97:\n        /* \"#utility.yul\":2922:2996   */\n      swap2\n      pop\n        /* \"#utility.yul\":3005:3098   */\n      tag_98\n        /* \"#utility.yul\":3094:3097   */\n      dup3\n        /* \"#utility.yul\":3005:3098   */\n      tag_99\n      jump\t// in\n    tag_98:\n        /* \"#utility.yul\":3123:3125   */\n      0x20\n        /* \"#utility.yul\":3118:3121   */\n      dup3\n        /* \"#utility.yul\":3114:3126   */\n      add\n        /* \"#utility.yul\":3107:3126   */\n      swap1\n      pop\n        /* \"#utility.yul\":2766:3132   */\n      swap2\n      swap1\n      pop\n      jump\t// out\n        /* \"#utility.yul\":3138:3256   */\n    tag_100:\n        /* \"#utility.yul\":3225:3249   */\n      tag_102\n        /* \"#utility.yul\":3243:3248   */\n      dup2\n        /* \"#utility.yul\":3225:3249   */\n      tag_103\n      jump\t// in\n    tag_102:\n        /* \"#utility.yul\":3220:3223   */\n      dup3\n        /* \"#utility.yul\":3213:3250   */\n      mstore\n        /* \"#utility.yul\":3138:3256   */\n      pop\n      pop\n      jump\t// out\n        /* \"#utility.yul\":3262:3886   */\n    tag_10:\n        /* \"#utility.yul\":3451:3455   */\n      0x00\n        /* \"#utility.yul\":3489:3491   */\n      0x60\n        /* \"#utility.yul\":3478:3487   */\n      dup3\n        /* \"#utility.yul\":3474:3492   */\n      add\n        /* \"#utility.yul\":3466:3492   */\n      swap1\n      pop\n        /* \"#utility.yul\":3538:3547   */\n      dup2\n        /* \"#utility.yul\":3532:3536   */\n      dup2\n        /* \"#utility.yul\":3528:3548   */\n      sub\n        /* \"#utility.yul\":3524:3525   */\n      0x00\n        /* \"#utility.yul\":3513:3522   */\n      dup4\n        /* \"#utility.yul\":3509:3526   */\n      add\n        /* \"#utility.yul\":3502:3549   */\n      mstore\n        /* \"#utility.yul\":3566:3644   */\n      tag_105\n        /* \"#utility.yul\":3639:3643   */\n      dup2\n        /* \"#utility.yul\":3630:3636   */\n      dup7\n        /* \"#utility.yul\":3566:3644   */\n      tag_85\n      jump\t// in\n    tag_105:\n        /* \"#utility.yul\":3558:3644   */\n      swap1\n      pop\n        /* \"#utility.yul\":3691:3700   */\n      dup2\n        /* \"#utility.yul\":3685:3689   */\n      dup2\n        /* \"#utility.yul\":3681:3701   */\n      sub\n        /* \"#utility.yul\":3676:3678   */\n      0x20\n        /* \"#utility.yul\":3665:3674   */\n      dup4\n        /* \"#utility.yul\":3661:3679   */\n      add\n        /* \"#utility.yul\":3654:3702   */\n      mstore\n        /* \"#utility.yul\":3719:3797   */\n      tag_106\n        /* \"#utility.yul\":3792:3796   */\n      dup2\n        /* \"#utility.yul\":3783:3789   */\n      dup6\n        /* \"#utility.yul\":3719:3797   */\n      tag_85\n      jump\t// in\n    tag_106:\n        /* \"#utility.yul\":3711:3797   */\n      swap1\n      pop\n        /* \"#utility.yul\":3807:3879   */\n      tag_107\n        /* \"#utility.yul\":3875:3877   */\n      0x40\n        /* \"#utility.yul\":3864:3873   */\n      dup4\n        /* \"#utility.yul\":3860:3878   */\n      add\n        /* \"#utility.yul\":3851:3857   */\n      dup5\n        /* \"#utility.yul\":3807:3879   */\n      tag_100\n      jump\t// in\n    tag_107:\n        /* \"#utility.yul\":3262:3886   */\n      swap5\n      swap4\n      pop\n      pop\n      pop\n      pop\n      jump\t// out\n        /* \"#utility.yul\":3892:4311   */\n    tag_29:\n        /* \"#utility.yul\":4058:4062   */\n      0x00\n        /* \"#utility.yul\":4096:4098   */\n      0x20\n        /* \"#utility.yul\":4085:4094   */\n      dup3\n        /* \"#utility.yul\":4081:4099   */\n      add\n        /* \"#utility.yul\":4073:4099   */\n      swap1\n      pop\n        /* \"#utility.yul\":4145:4154   */\n      dup2\n        /* \"#utility.yul\":4139:4143   */\n      dup2\n        /* \"#utility.yul\":4135:4155   */\n      sub\n        /* \"#utility.yul\":4131:4132   */\n      0x00\n        /* \"#utility.yul\":4120:4129   */\n      dup4\n        /* \"#utility.yul\":4116:4133   */\n      add\n        /* \"#utility.yul\":4109:4156   */\n      mstore\n        /* \"#utility.yul\":4173:4304   */\n      tag_109\n        /* \"#utility.yul\":4299:4303   */\n      dup2\n        /* \"#utility.yul\":4173:4304   */\n      tag_95\n      jump\t// in\n    tag_109:\n        /* \"#utility.yul\":4165:4304   */\n      swap1\n      pop\n        /* \"#utility.yul\":3892:4311   */\n      swap2\n      swap1\n      pop\n      jump\t// out\n        /* \"#utility.yul\":4317:4446   */\n    tag_52:\n        /* \"#utility.yul\":4351:4357   */\n      0x00\n        /* \"#utility.yul\":4378:4398   */\n      tag_111\n      tag_112\n      jump\t// in\n    tag_111:\n        /* \"#utility.yul\":4368:4398   */\n      swap1\n      pop\n        /* \"#utility.yul\":4407:4440   */\n      tag_113\n        /* \"#utility.yul\":4435:4439   */\n      dup3\n        /* \"#utility.yul\":4427:4433   */\n      dup3\n        /* \"#utility.yul\":4407:4440   */\n      tag_114\n      jump\t// in\n    tag_113:\n        /* \"#utility.yul\":4317:4446   */\n      swap2\n      swap1\n      pop\n      jump\t// out\n        /* \"#utility.yul\":4452:4527   */\n    tag_112:\n        /* \"#utility.yul\":4485:4491   */\n      0x00\n        /* \"#utility.yul\":4518:4520   */\n      0x40\n        /* \"#utility.yul\":4512:4521   */\n      mload\n        /* \"#utility.yul\":4502:4521   */\n      swap1\n      pop\n        /* \"#utility.yul\":4452:4527   */\n      swap1\n      jump\t// out\n        /* \"#utility.yul\":4533:4841   */\n    tag_51:\n        /* \"#utility.yul\":4595:4599   */\n      0x00\n        /* \"#utility.yul\":4685:4703   */\n      0xffffffffffffffff\n        /* \"#utility.yul\":4677:4683   */\n      dup3\n        /* \"#utility.yul\":4674:4704   */\n      gt\n        /* \"#utility.yul\":4671:4727   */\n      iszero\n      tag_117\n      jumpi\n        /* \"#utility.yul\":4707:4725   */\n      tag_118\n      tag_119\n      jump\t// in\n    tag_118:\n        /* \"#utility.yul\":4671:4727   */\n    tag_117:\n        /* \"#utility.yul\":4745:4774   */\n      tag_120\n        /* \"#utility.yul\":4767:4773   */\n      dup3\n        /* \"#utility.yul\":4745:4774   */\n      tag_94\n      jump\t// in\n    tag_120:\n        /* \"#utility.yul\":4737:4774   */\n      swap1\n      pop\n        /* \"#utility.yul\":4829:4833   */\n      0x20\n        /* \"#utility.yul\":4823:4827   */\n      dup2\n        /* \"#utility.yul\":4819:4834   */\n      add\n        /* \"#utility.yul\":4811:4834   */\n      swap1\n      pop\n        /* \"#utility.yul\":4533:4841   */\n      swap2\n      swap1\n      pop\n      jump\t// out\n        /* \"#utility.yul\":4847:4946   */\n    tag_88:\n        /* \"#utility.yul\":4899:4905   */\n      0x00\n        /* \"#utility.yul\":4933:4938   */\n      dup2\n        /* \"#utility.yul\":4927:4939   */\n      mload\n        /* \"#utility.yul\":4917:4939   */\n      swap1\n      pop\n        /* \"#utility.yul\":4847:4946   */\n      swap2\n      swap1\n      pop\n      jump\t// out\n        /* \"#utility.yul\":4952:5121   */\n    tag_90:\n        /* \"#utility.yul\":5036:5047   */\n      0x00\n        /* \"#utility.yul\":5070:5076   */\n      dup3\n        /* \"#utility.yul\":5065:5068   */\n      dup3\n        /* \"#utility.yul\":5058:5077   */\n      mstore\n        /* \"#utility.yul\":5110:5114   */\n      0x20\n        /* \"#utility.yul\":5105:5108   */\n      dup3\n        /* \"#utility.yul\":5101:5115   */\n      add\n        /* \"#utility.yul\":5086:5115   */\n      swap1\n      pop\n        /* \"#utility.yul\":4952:5121   */\n      swap3\n      swap2\n      pop\n      pop\n      jump\t// out\n        /* \"#utility.yul\":5127:5204   */\n    tag_103:\n        /* \"#utility.yul\":5164:5171   */\n      0x00\n        /* \"#utility.yul\":5193:5198   */\n      dup2\n        /* \"#utility.yul\":5182:5198   */\n      swap1\n      pop\n        /* \"#utility.yul\":5127:5204   */\n      swap2\n      swap1\n      pop\n      jump\t// out\n        /* \"#utility.yul\":5210:5364   */\n    tag_57:\n        /* \"#utility.yul\":5294:5300   */\n      dup3\n        /* \"#utility.yul\":5289:5292   */\n      dup2\n        /* \"#utility.yul\":5284:5287   */\n      dup4\n        /* \"#utility.yul\":5271:5301   */\n      calldatacopy\n        /* \"#utility.yul\":5356:5357   */\n      0x00\n        /* \"#utility.yul\":5347:5353   */\n      dup4\n        /* \"#utility.yul\":5342:5345   */\n      dup4\n        /* \"#utility.yul\":5338:5354   */\n      add\n        /* \"#utility.yul\":5331:5358   */\n      mstore\n        /* \"#utility.yul\":5210:5364   */\n      pop\n      pop\n      pop\n      jump\t// out\n        /* \"#utility.yul\":5370:5677   */\n    tag_92:\n        /* \"#utility.yul\":5438:5439   */\n      0x00\n        /* \"#utility.yul\":5448:5561   */\n    tag_126:\n        /* \"#utility.yul\":5462:5468   */\n      dup4\n        /* \"#utility.yul\":5459:5460   */\n      dup2\n        /* \"#utility.yul\":5456:5469   */\n      lt\n        /* \"#utility.yul\":5448:5561   */\n      iszero\n      tag_128\n      jumpi\n        /* \"#utility.yul\":5547:5548   */\n      dup1\n        /* \"#utility.yul\":5542:5545   */\n      dup3\n        /* \"#utility.yul\":5538:5549   */\n      add\n        /* \"#utility.yul\":5532:5550   */\n      mload\n        /* \"#utility.yul\":5528:5529   */\n      dup2\n        /* \"#utility.yul\":5523:5526   */\n      dup5\n        /* \"#utility.yul\":5519:5530   */\n      add\n        /* \"#utility.yul\":5512:5551   */\n      mstore\n        /* \"#utility.yul\":5484:5486   */\n      0x20\n        /* \"#utility.yul\":5481:5482   */\n      dup2\n        /* \"#utility.yul\":5477:5487   */\n      add\n        /* \"#utility.yul\":5472:5487   */\n      swap1\n      pop\n        /* \"#utility.yul\":5448:5561   */\n      jump(tag_126)\n    tag_128:\n        /* \"#utility.yul\":5579:5585   */\n      dup4\n        /* \"#utility.yul\":5576:5577   */\n      dup2\n        /* \"#utility.yul\":5573:5586   */\n      gt\n        /* \"#utility.yul\":5570:5671   */\n      iszero\n      tag_129\n      jumpi\n        /* \"#utility.yul\":5659:5660   */\n      0x00\n        /* \"#utility.yul\":5650:5656   */\n      dup5\n        /* \"#utility.yul\":5645:5648   */\n      dup5\n        /* \"#utility.yul\":5641:5657   */\n      add\n        /* \"#utility.yul\":5634:5661   */\n      mstore\n        /* \"#utility.yul\":5570:5671   */\n    tag_129:\n        /* \"#utility.yul\":5419:5677   */\n      pop\n        /* \"#utility.yul\":5370:5677   */\n      pop\n      pop\n      pop\n      jump\t// out\n        /* \"#utility.yul\":5683:6003   */\n    tag_16:\n        /* \"#utility.yul\":5727:5733   */\n      0x00\n        /* \"#utility.yul\":5764:5765   */\n      0x02\n        /* \"#utility.yul\":5758:5762   */\n      dup3\n        /* \"#utility.yul\":5754:5766   */\n      div\n        /* \"#utility.yul\":5744:5766   */\n      swap1\n      pop\n        /* \"#utility.yul\":5811:5812   */\n      0x01\n        /* \"#utility.yul\":5805:5809   */\n      dup3\n        /* \"#utility.yul\":5801:5813   */\n      and\n        /* \"#utility.yul\":5832:5850   */\n      dup1\n        /* \"#utility.yul\":5822:5903   */\n      tag_131\n      jumpi\n        /* \"#utility.yul\":5888:5892   */\n      0x7f\n        /* \"#utility.yul\":5880:5886   */\n      dup3\n        /* \"#utility.yul\":5876:5893   */\n      and\n        /* \"#utility.yul\":5866:5893   */\n      swap2\n      pop\n        /* \"#utility.yul\":5822:5903   */\n    tag_131:\n        /* \"#utility.yul\":5950:5952   */\n      0x20\n        /* \"#utility.yul\":5942:5948   */\n      dup3\n        /* \"#utility.yul\":5939:5953   */\n      lt\n        /* \"#utility.yul\":5919:5937   */\n      dup2\n        /* \"#utility.yul\":5916:5954   */\n      eq\n        /* \"#utility.yul\":5913:5997   */\n      iszero\n      tag_132\n      jumpi\n        /* \"#utility.yul\":5969:5987   */\n      tag_133\n      tag_134\n      jump\t// in\n    tag_133:\n        /* \"#utility.yul\":5913:5997   */\n    tag_132:\n        /* \"#utility.yul\":5734:6003   */\n      pop\n        /* \"#utility.yul\":5683:6003   */\n      swap2\n      swap1\n      pop\n      jump\t// out\n        /* \"#utility.yul\":6009:6290   */\n    tag_114:\n        /* \"#utility.yul\":6092:6119   */\n      tag_136\n        /* \"#utility.yul\":6114:6118   */\n      dup3\n        /* \"#utility.yul\":6092:6119   */\n      tag_94\n      jump\t// in\n    tag_136:\n        /* \"#utility.yul\":6084:6090   */\n      dup2\n        /* \"#utility.yul\":6080:6120   */\n      add\n        /* \"#utility.yul\":6222:6228   */\n      dup2\n        /* \"#utility.yul\":6210:6220   */\n      dup2\n        /* \"#utility.yul\":6207:6229   */\n      lt\n        /* \"#utility.yul\":6186:6204   */\n      0xffffffffffffffff\n        /* \"#utility.yul\":6174:6184   */\n      dup3\n        /* \"#utility.yul\":6171:6205   */\n      gt\n        /* \"#utility.yul\":6168:6230   */\n      or\n        /* \"#utility.yul\":6165:6253   */\n      iszero\n      tag_137\n      jumpi\n        /* \"#utility.yul\":6233:6251   */\n      tag_138\n      tag_119\n      jump\t// in\n    tag_138:\n        /* \"#utility.yul\":6165:6253   */\n    tag_137:\n        /* \"#utility.yul\":6273:6283   */\n      dup1\n        /* \"#utility.yul\":6269:6271   */\n      0x40\n        /* \"#utility.yul\":6262:6284   */\n      mstore\n        /* \"#utility.yul\":6052:6290   */\n      pop\n        /* \"#utility.yul\":6009:6290   */\n      pop\n      pop\n      jump\t// out\n        /* \"#utility.yul\":6296:6476   */\n    tag_134:\n        /* \"#utility.yul\":6344:6421   */\n      0x4e487b7100000000000000000000000000000000000000000000000000000000\n        /* \"#utility.yul\":6341:6342   */\n      0x00\n        /* \"#utility.yul\":6334:6422   */\n      mstore\n        /* \"#utility.yul\":6441:6445   */\n      0x22\n        /* \"#utility.yul\":6438:6439   */\n      0x04\n        /* \"#utility.yul\":6431:6446   */\n      mstore\n        /* \"#utility.yul\":6465:6469   */\n      0x24\n        /* \"#utility.yul\":6462:6463   */\n      0x00\n        /* \"#utility.yul\":6455:6470   */\n      revert\n        /* \"#utility.yul\":6482:6662   */\n    tag_119:\n        /* \"#utility.yul\":6530:6607   */\n      0x4e487b7100000000000000000000000000000000000000000000000000000000\n        /* \"#utility.yul\":6527:6528   */\n      0x00\n        /* \"#utility.yul\":6520:6608   */\n      mstore\n        /* \"#utility.yul\":6627:6631   */\n      0x41\n        /* \"#utility.yul\":6624:6625   */\n      0x04\n        /* \"#utility.yul\":6617:6632   */\n      mstore\n        /* \"#utility.yul\":6651:6655   */\n      0x24\n        /* \"#utility.yul\":6648:6649   */\n      0x00\n        /* \"#utility.yul\":6641:6656   */\n      revert\n        /* \"#utility.yul\":6668:6785   */\n    tag_62:\n        /* \"#utility.yul\":6777:6778   */\n      0x00\n        /* \"#utility.yul\":6774:6775   */\n      dup1\n        /* \"#utility.yul\":6767:6779   */\n      revert\n        /* \"#utility.yul\":6791:6908   */\n    tag_55:\n        /* \"#utility.yul\":6900:6901   */\n      0x00\n        /* \"#utility.yul\":6897:6898   */\n      dup1\n        /* \"#utility.yul\":6890:6902   */\n      revert\n        /* \"#utility.yul\":6914:7031   */\n    tag_79:\n        /* \"#utility.yul\":7023:7024   */\n      0x00\n        /* \"#utility.yul\":7020:7021   */\n      dup1\n        /* \"#utility.yul\":7013:7025   */\n      revert\n        /* \"#utility.yul\":7037:7154   */\n    tag_71:\n        /* \"#utility.yul\":7146:7147   */\n      0x00\n        /* \"#utility.yul\":7143:7144   */\n      dup1\n        /* \"#utility.yul\":7136:7148   */\n      revert\n        /* \"#utility.yul\":7160:7262   */\n    tag_94:\n        /* \"#utility.yul\":7201:7207   */\n      0x00\n        /* \"#utility.yul\":7252:7254   */\n      0x1f\n        /* \"#utility.yul\":7248:7255   */\n      not\n        /* \"#utility.yul\":7243:7245   */\n      0x1f\n        /* \"#utility.yul\":7236:7241   */\n      dup4\n        /* \"#utility.yul\":7232:7246   */\n      add\n        /* \"#utility.yul\":7228:7256   */\n      and\n        /* \"#utility.yul\":7218:7256   */\n      swap1\n      pop\n        /* \"#utility.yul\":7160:7262   */\n      swap2\n      swap1\n      pop\n      jump\t// out\n        /* \"#utility.yul\":7268:7435   */\n    tag_99:\n        /* \"#utility.yul\":7408:7427   */\n      0x4944206973206e6f74206d617463686564000000000000000000000000000000\n        /* \"#utility.yul\":7404:7405   */\n      0x00\n        /* \"#utility.yul\":7396:7402   */\n      dup3\n        /* \"#utility.yul\":7392:7406   */\n      add\n        /* \"#utility.yul\":7385:7428   */\n      mstore\n        /* \"#utility.yul\":7268:7435   */\n      pop\n      jump\t// out\n        /* \"#utility.yul\":7441:7563   */\n    tag_67:\n        /* \"#utility.yul\":7514:7538   */\n      tag_148\n        /* \"#utility.yul\":7532:7537   */\n      dup2\n        /* \"#utility.yul\":7514:7538   */\n      tag_103\n      jump\t// in\n    tag_148:\n        /* \"#utility.yul\":7507:7512   */\n      dup2\n        /* \"#utility.yul\":7504:7539   */\n      eq\n        /* \"#utility.yul\":7494:7557   */\n      tag_149\n      jumpi\n        /* \"#utility.yul\":7553:7554   */\n      0x00\n        /* \"#utility.yul\":7550:7551   */\n      dup1\n        /* \"#utility.yul\":7543:7555   */\n      revert\n        /* \"#utility.yul\":7494:7557   */\n    tag_149:\n        /* \"#utility.yul\":7441:7563   */\n      pop\n      jump\t// out\n\n    auxdata: 0xa2646970667358221220af1f55da3a3110173908d64260c1eb745c0abe1b93a2b6f75928be6832a71bb564736f6c63430008070033\n}\n",
				"bytecode": {
					"linkReferences": {},
					"object": "608060405234801561001057600080fd5b5061078d806100206000396000f3fe608060405234801561001057600080fd5b50600436106100365760003560e01c8063b6e19d171461003b578063eba2c5fd1461006d575b600080fd5b610055600480360381019061005091906103d7565b610089565b6040516100649392919061050e565b60405180910390f35b61008760048036038101906100829190610404565b6101c3565b005b60006020528060005260406000206000915090508060000180546100ac90610631565b80601f01602080910402602001604051908101604052809291908181526020018280546100d890610631565b80156101255780601f106100fa57610100808354040283529160200191610125565b820191906000526020600020905b81548152906001019060200180831161010857829003601f168201915b50505050509080600101805461013a90610631565b80601f016020809104026020016040519081016040528092919081815260200182805461016690610631565b80156101b35780601f10610188576101008083540402835291602001916101b3565b820191906000526020600020905b81548152906001019060200180831161019657829003601f168201915b5050505050908060020154905083565b806005811415610208576040517f08c379a00000000000000000000000000000000000000000000000000000000081526004016101ff90610553565b60405180910390fd5b61021061028e565b8481600001819052508381602001819052508281604001818152505080600080888152602001908152602001600020600082015181600001908051906020019061025b9291906102af565b5060208201518160010190805190602001906102789291906102af565b5060408201518160020155905050505050505050565b60405180606001604052806060815260200160608152602001600081525090565b8280546102bb90610631565b90600052602060002090601f0160209004810192826102dd5760008555610324565b82601f106102f657805160ff1916838001178555610324565b82800160010185558215610324579182015b82811115610323578251825591602001919060010190610308565b5b5090506103319190610335565b5090565b5b8082111561034e576000816000905550600101610336565b5090565b600061036561036084610598565b610573565b905082815260208101848484011115610381576103806106f7565b5b61038c8482856105ef565b509392505050565b600082601f8301126103a9576103a86106f2565b5b81356103b9848260208601610352565b91505092915050565b6000813590506103d181610740565b92915050565b6000602082840312156103ed576103ec610701565b5b60006103fb848285016103c2565b91505092915050565b6000806000806080858703121561041e5761041d610701565b5b600061042c878288016103c2565b945050602085013567ffffffffffffffff81111561044d5761044c6106fc565b5b61045987828801610394565b935050604085013567ffffffffffffffff81111561047a576104796106fc565b5b61048687828801610394565b9250506060610497878288016103c2565b91505092959194509250565b60006104ae826105c9565b6104b881856105d4565b93506104c88185602086016105fe565b6104d181610706565b840191505092915050565b60006104e96011836105d4565b91506104f482610717565b602082019050919050565b610508816105e5565b82525050565b6000606082019050818103600083015261052881866104a3565b9050818103602083015261053c81856104a3565b905061054b60408301846104ff565b949350505050565b6000602082019050818103600083015261056c816104dc565b9050919050565b600061057d61058e565b90506105898282610663565b919050565b6000604051905090565b600067ffffffffffffffff8211156105b3576105b26106c3565b5b6105bc82610706565b9050602081019050919050565b600081519050919050565b600082825260208201905092915050565b6000819050919050565b82818337600083830152505050565b60005b8381101561061c578082015181840152602081019050610601565b8381111561062b576000848401525b50505050565b6000600282049050600182168061064957607f821691505b6020821081141561065d5761065c610694565b5b50919050565b61066c82610706565b810181811067ffffffffffffffff8211171561068b5761068a6106c3565b5b80604052505050565b7f4e487b7100000000000000000000000000000000000000000000000000000000600052602260045260246000fd5b7f4e487b7100000000000000000000000000000000000000000000000000000000600052604160045260246000fd5b600080fd5b600080fd5b600080fd5b600080fd5b6000601f19601f8301169050919050565b7f4944206973206e6f74206d617463686564000000000000000000000000000000600082015250565b610749816105e5565b811461075457600080fd5b5056fea2646970667358221220af1f55da3a3110173908d64260c1eb745c0abe1b93a2b6f75928be6832a71bb564736f6c63430008070033",
					"opcodes": "PUSH1 0x80 PUSH1 0x40 MSTORE CALLVALUE DUP1 ISZERO PUSH2 0x10 JUMPI PUSH1 0x0 DUP1 REVERT JUMPDEST POP PUSH2 0x78D DUP1 PUSH2 0x20 PUSH1 0x0 CODECOPY PUSH1 0x0 RETURN INVALID PUSH1 0x80 PUSH1 0x40 MSTORE CALLVALUE DUP1 ISZERO PUSH2 0x10 JUMPI PUSH1 0x0 DUP1 REVERT JUMPDEST POP PUSH1 0x4 CALLDATASIZE LT PUSH2 0x36 JUMPI PUSH1 0x0 CALLDATALOAD PUSH1 0xE0 SHR DUP1 PUSH4 0xB6E19D17 EQ PUSH2 0x3B JUMPI DUP1 PUSH4 0xEBA2C5FD EQ PUSH2 0x6D JUMPI JUMPDEST PUSH1 0x0 DUP1 REVERT JUMPDEST PUSH2 0x55 PUSH1 0x4 DUP1 CALLDATASIZE SUB DUP2 ADD SWAP1 PUSH2 0x50 SWAP2 SWAP1 PUSH2 0x3D7 JUMP JUMPDEST PUSH2 0x89 JUMP JUMPDEST PUSH1 0x40 MLOAD PUSH2 0x64 SWAP4 SWAP3 SWAP2 SWAP1 PUSH2 0x50E JUMP JUMPDEST PUSH1 0x40 MLOAD DUP1 SWAP2 SUB SWAP1 RETURN JUMPDEST PUSH2 0x87 PUSH1 0x4 DUP1 CALLDATASIZE SUB DUP2 ADD SWAP1 PUSH2 0x82 SWAP2 SWAP1 PUSH2 0x404 JUMP JUMPDEST PUSH2 0x1C3 JUMP JUMPDEST STOP JUMPDEST PUSH1 0x0 PUSH1 0x20 MSTORE DUP1 PUSH1 0x0 MSTORE PUSH1 0x40 PUSH1 0x0 KECCAK256 PUSH1 0x0 SWAP2 POP SWAP1 POP DUP1 PUSH1 0x0 ADD DUP1 SLOAD PUSH2 0xAC SWAP1 PUSH2 0x631 JUMP JUMPDEST DUP1 PUSH1 0x1F ADD PUSH1 0x20 DUP1 SWAP2 DIV MUL PUSH1 0x20 ADD PUSH1 0x40 MLOAD SWAP1 DUP2 ADD PUSH1 0x40 MSTORE DUP1 SWAP3 SWAP2 SWAP1 DUP2 DUP2 MSTORE PUSH1 0x20 ADD DUP3 DUP1 SLOAD PUSH2 0xD8 SWAP1 PUSH2 0x631 JUMP JUMPDEST DUP1 ISZERO PUSH2 0x125 JUMPI DUP1 PUSH1 0x1F LT PUSH2 0xFA JUMPI PUSH2 0x100 DUP1 DUP4 SLOAD DIV MUL DUP4 MSTORE SWAP2 PUSH1 0x20 ADD SWAP2 PUSH2 0x125 JUMP JUMPDEST DUP3 ADD SWAP2 SWAP1 PUSH1 0x0 MSTORE PUSH1 0x20 PUSH1 0x0 KECCAK256 SWAP1 JUMPDEST DUP2 SLOAD DUP2 MSTORE SWAP1 PUSH1 0x1 ADD SWAP1 PUSH1 0x20 ADD DUP1 DUP4 GT PUSH2 0x108 JUMPI DUP3 SWAP1 SUB PUSH1 0x1F AND DUP3 ADD SWAP2 JUMPDEST POP POP POP POP POP SWAP1 DUP1 PUSH1 0x1 ADD DUP1 SLOAD PUSH2 0x13A SWAP1 PUSH2 0x631 JUMP JUMPDEST DUP1 PUSH1 0x1F ADD PUSH1 0x20 DUP1 SWAP2 DIV MUL PUSH1 0x20 ADD PUSH1 0x40 MLOAD SWAP1 DUP2 ADD PUSH1 0x40 MSTORE DUP1 SWAP3 SWAP2 SWAP1 DUP2 DUP2 MSTORE PUSH1 0x20 ADD DUP3 DUP1 SLOAD PUSH2 0x166 SWAP1 PUSH2 0x631 JUMP JUMPDEST DUP1 ISZERO PUSH2 0x1B3 JUMPI DUP1 PUSH1 0x1F LT PUSH2 0x188 JUMPI PUSH2 0x100 DUP1 DUP4 SLOAD DIV MUL DUP4 MSTORE SWAP2 PUSH1 0x20 ADD SWAP2 PUSH2 0x1B3 JUMP JUMPDEST DUP3 ADD SWAP2 SWAP1 PUSH1 0x0 MSTORE PUSH1 0x20 PUSH1 0x0 KECCAK256 SWAP1 JUMPDEST DUP2 SLOAD DUP2 MSTORE SWAP1 PUSH1 0x1 ADD SWAP1 PUSH1 0x20 ADD DUP1 DUP4 GT PUSH2 0x196 JUMPI DUP3 SWAP1 SUB PUSH1 0x1F AND DUP3 ADD SWAP2 JUMPDEST POP POP POP POP POP SWAP1 DUP1 PUSH1 0x2 ADD SLOAD SWAP1 POP DUP4 JUMP JUMPDEST DUP1 PUSH1 0x5 DUP2 EQ ISZERO PUSH2 0x208 JUMPI PUSH1 0x40 MLOAD PUSH32 0x8C379A000000000000000000000000000000000000000000000000000000000 DUP2 MSTORE PUSH1 0x4 ADD PUSH2 0x1FF SWAP1 PUSH2 0x553 JUMP JUMPDEST PUSH1 0x40 MLOAD DUP1 SWAP2 SUB SWAP1 REVERT JUMPDEST PUSH2 0x210 PUSH2 0x28E JUMP JUMPDEST DUP5 DUP2 PUSH1 0x0 ADD DUP2 SWAP1 MSTORE POP DUP4 DUP2 PUSH1 0x20 ADD DUP2 SWAP1 MSTORE POP DUP3 DUP2 PUSH1 0x40 ADD DUP2 DUP2 MSTORE POP POP DUP1 PUSH1 0x0 DUP1 DUP9 DUP2 MSTORE PUSH1 0x20 ADD SWAP1 DUP2 MSTORE PUSH1 0x20 ADD PUSH1 0x0 KECCAK256 PUSH1 0x0 DUP3 ADD MLOAD DUP2 PUSH1 0x0 ADD SWAP1 DUP1 MLOAD SWAP1 PUSH1 0x20 ADD SWAP1 PUSH2 0x25B SWAP3 SWAP2 SWAP1 PUSH2 0x2AF JUMP JUMPDEST POP PUSH1 0x20 DUP3 ADD MLOAD DUP2 PUSH1 0x1 ADD SWAP1 DUP1 MLOAD SWAP1 PUSH1 0x20 ADD SWAP1 PUSH2 0x278 SWAP3 SWAP2 SWAP1 PUSH2 0x2AF JUMP JUMPDEST POP PUSH1 0x40 DUP3 ADD MLOAD DUP2 PUSH1 0x2 ADD SSTORE SWAP1 POP POP POP POP POP POP POP POP JUMP JUMPDEST PUSH1 0x40 MLOAD DUP1 PUSH1 0x60 ADD PUSH1 0x40 MSTORE DUP1 PUSH1 0x60 DUP2 MSTORE PUSH1 0x20 ADD PUSH1 0x60 DUP2 MSTORE PUSH1 0x20 ADD PUSH1 0x0 DUP2 MSTORE POP SWAP1 JUMP JUMPDEST DUP3 DUP1 SLOAD PUSH2 0x2BB SWAP1 PUSH2 0x631 JUMP JUMPDEST SWAP1 PUSH1 0x0 MSTORE PUSH1 0x20 PUSH1 0x0 KECCAK256 SWAP1 PUSH1 0x1F ADD PUSH1 0x20 SWAP1 DIV DUP2 ADD SWAP3 DUP3 PUSH2 0x2DD JUMPI PUSH1 0x0 DUP6 SSTORE PUSH2 0x324 JUMP JUMPDEST DUP3 PUSH1 0x1F LT PUSH2 0x2F6 JUMPI DUP1 MLOAD PUSH1 0xFF NOT AND DUP4 DUP1 ADD OR DUP6 SSTORE PUSH2 0x324 JUMP JUMPDEST DUP3 DUP1 ADD PUSH1 0x1 ADD DUP6 SSTORE DUP3 ISZERO PUSH2 0x324 JUMPI SWAP2 DUP3 ADD JUMPDEST DUP3 DUP2 GT ISZERO PUSH2 0x323 JUMPI DUP3 MLOAD DUP3 SSTORE SWAP2 PUSH1 0x20 ADD SWAP2 SWAP1 PUSH1 0x1 ADD SWAP1 PUSH2 0x308 JUMP JUMPDEST JUMPDEST POP SWAP1 POP PUSH2 0x331 SWAP2 SWAP1 PUSH2 0x335 JUMP JUMPDEST POP SWAP1 JUMP JUMPDEST JUMPDEST DUP1 DUP3 GT ISZERO PUSH2 0x34E JUMPI PUSH1 0x0 DUP2 PUSH1 0x0 SWAP1 SSTORE POP PUSH1 0x1 ADD PUSH2 0x336 JUMP JUMPDEST POP SWAP1 JUMP JUMPDEST PUSH1 0x0 PUSH2 0x365 PUSH2 0x360 DUP5 PUSH2 0x598 JUMP JUMPDEST PUSH2 0x573 JUMP JUMPDEST SWAP1 POP DUP3 DUP2 MSTORE PUSH1 0x20 DUP2 ADD DUP5 DUP5 DUP5 ADD GT ISZERO PUSH2 0x381 JUMPI PUSH2 0x380 PUSH2 0x6F7 JUMP JUMPDEST JUMPDEST PUSH2 0x38C DUP5 DUP3 DUP6 PUSH2 0x5EF JUMP JUMPDEST POP SWAP4 SWAP3 POP POP POP JUMP JUMPDEST PUSH1 0x0 DUP3 PUSH1 0x1F DUP4 ADD SLT PUSH2 0x3A9 JUMPI PUSH2 0x3A8 PUSH2 0x6F2 JUMP JUMPDEST JUMPDEST DUP2 CALLDATALOAD PUSH2 0x3B9 DUP5 DUP3 PUSH1 0x20 DUP7 ADD PUSH2 0x352 JUMP JUMPDEST SWAP2 POP POP SWAP3 SWAP2 POP POP JUMP JUMPDEST PUSH1 0x0 DUP2 CALLDATALOAD SWAP1 POP PUSH2 0x3D1 DUP2 PUSH2 0x740 JUMP JUMPDEST SWAP3 SWAP2 POP POP JUMP JUMPDEST PUSH1 0x0 PUSH1 0x20 DUP3 DUP5 SUB SLT ISZERO PUSH2 0x3ED JUMPI PUSH2 0x3EC PUSH2 0x701 JUMP JUMPDEST JUMPDEST PUSH1 0x0 PUSH2 0x3FB DUP5 DUP3 DUP6 ADD PUSH2 0x3C2 JUMP JUMPDEST SWAP2 POP POP SWAP3 SWAP2 POP POP JUMP JUMPDEST PUSH1 0x0 DUP1 PUSH1 0x0 DUP1 PUSH1 0x80 DUP6 DUP8 SUB SLT ISZERO PUSH2 0x41E JUMPI PUSH2 0x41D PUSH2 0x701 JUMP JUMPDEST JUMPDEST PUSH1 0x0 PUSH2 0x42C DUP8 DUP3 DUP9 ADD PUSH2 0x3C2 JUMP JUMPDEST SWAP5 POP POP PUSH1 0x20 DUP6 ADD CALLDATALOAD PUSH8 0xFFFFFFFFFFFFFFFF DUP2 GT ISZERO PUSH2 0x44D JUMPI PUSH2 0x44C PUSH2 0x6FC JUMP JUMPDEST JUMPDEST PUSH2 0x459 DUP8 DUP3 DUP9 ADD PUSH2 0x394 JUMP JUMPDEST SWAP4 POP POP PUSH1 0x40 DUP6 ADD CALLDATALOAD PUSH8 0xFFFFFFFFFFFFFFFF DUP2 GT ISZERO PUSH2 0x47A JUMPI PUSH2 0x479 PUSH2 0x6FC JUMP JUMPDEST JUMPDEST PUSH2 0x486 DUP8 DUP3 DUP9 ADD PUSH2 0x394 JUMP JUMPDEST SWAP3 POP POP PUSH1 0x60 PUSH2 0x497 DUP8 DUP3 DUP9 ADD PUSH2 0x3C2 JUMP JUMPDEST SWAP2 POP POP SWAP3 SWAP6 SWAP2 SWAP5 POP SWAP3 POP JUMP JUMPDEST PUSH1 0x0 PUSH2 0x4AE DUP3 PUSH2 0x5C9 JUMP JUMPDEST PUSH2 0x4B8 DUP2 DUP6 PUSH2 0x5D4 JUMP JUMPDEST SWAP4 POP PUSH2 0x4C8 DUP2 DUP6 PUSH1 0x20 DUP7 ADD PUSH2 0x5FE JUMP JUMPDEST PUSH2 0x4D1 DUP2 PUSH2 0x706 JUMP JUMPDEST DUP5 ADD SWAP2 POP POP SWAP3 SWAP2 POP POP JUMP JUMPDEST PUSH1 0x0 PUSH2 0x4E9 PUSH1 0x11 DUP4 PUSH2 0x5D4 JUMP JUMPDEST SWAP2 POP PUSH2 0x4F4 DUP3 PUSH2 0x717 JUMP JUMPDEST PUSH1 0x20 DUP3 ADD SWAP1 POP SWAP2 SWAP1 POP JUMP JUMPDEST PUSH2 0x508 DUP2 PUSH2 0x5E5 JUMP JUMPDEST DUP3 MSTORE POP POP JUMP JUMPDEST PUSH1 0x0 PUSH1 0x60 DUP3 ADD SWAP1 POP DUP2 DUP2 SUB PUSH1 0x0 DUP4 ADD MSTORE PUSH2 0x528 DUP2 DUP7 PUSH2 0x4A3 JUMP JUMPDEST SWAP1 POP DUP2 DUP2 SUB PUSH1 0x20 DUP4 ADD MSTORE PUSH2 0x53C DUP2 DUP6 PUSH2 0x4A3 JUMP JUMPDEST SWAP1 POP PUSH2 0x54B PUSH1 0x40 DUP4 ADD DUP5 PUSH2 0x4FF JUMP JUMPDEST SWAP5 SWAP4 POP POP POP POP JUMP JUMPDEST PUSH1 0x0 PUSH1 0x20 DUP3 ADD SWAP1 POP DUP2 DUP2 SUB PUSH1 0x0 DUP4 ADD MSTORE PUSH2 0x56C DUP2 PUSH2 0x4DC JUMP JUMPDEST SWAP1 POP SWAP2 SWAP1 POP JUMP JUMPDEST PUSH1 0x0 PUSH2 0x57D PUSH2 0x58E JUMP JUMPDEST SWAP1 POP PUSH2 0x589 DUP3 DUP3 PUSH2 0x663 JUMP JUMPDEST SWAP2 SWAP1 POP JUMP JUMPDEST PUSH1 0x0 PUSH1 0x40 MLOAD SWAP1 POP SWAP1 JUMP JUMPDEST PUSH1 0x0 PUSH8 0xFFFFFFFFFFFFFFFF DUP3 GT ISZERO PUSH2 0x5B3 JUMPI PUSH2 0x5B2 PUSH2 0x6C3 JUMP JUMPDEST JUMPDEST PUSH2 0x5BC DUP3 PUSH2 0x706 JUMP JUMPDEST SWAP1 POP PUSH1 0x20 DUP2 ADD SWAP1 POP SWAP2 SWAP1 POP JUMP JUMPDEST PUSH1 0x0 DUP2 MLOAD SWAP1 POP SWAP2 SWAP1 POP JUMP JUMPDEST PUSH1 0x0 DUP3 DUP3 MSTORE PUSH1 0x20 DUP3 ADD SWAP1 POP SWAP3 SWAP2 POP POP JUMP JUMPDEST PUSH1 0x0 DUP2 SWAP1 POP SWAP2 SWAP1 POP JUMP JUMPDEST DUP3 DUP2 DUP4 CALLDATACOPY PUSH1 0x0 DUP4 DUP4 ADD MSTORE POP POP POP JUMP JUMPDEST PUSH1 0x0 JUMPDEST DUP4 DUP2 LT ISZERO PUSH2 0x61C JUMPI DUP1 DUP3 ADD MLOAD DUP2 DUP5 ADD MSTORE PUSH1 0x20 DUP2 ADD SWAP1 POP PUSH2 0x601 JUMP JUMPDEST DUP4 DUP2 GT ISZERO PUSH2 0x62B JUMPI PUSH1 0x0 DUP5 DUP5 ADD MSTORE JUMPDEST POP POP POP POP JUMP JUMPDEST PUSH1 0x0 PUSH1 0x2 DUP3 DIV SWAP1 POP PUSH1 0x1 DUP3 AND DUP1 PUSH2 0x649 JUMPI PUSH1 0x7F DUP3 AND SWAP2 POP JUMPDEST PUSH1 0x20 DUP3 LT DUP2 EQ ISZERO PUSH2 0x65D JUMPI PUSH2 0x65C PUSH2 0x694 JUMP JUMPDEST JUMPDEST POP SWAP2 SWAP1 POP JUMP JUMPDEST PUSH2 0x66C DUP3 PUSH2 0x706 JUMP JUMPDEST DUP2 ADD DUP2 DUP2 LT PUSH8 0xFFFFFFFFFFFFFFFF DUP3 GT OR ISZERO PUSH2 0x68B JUMPI PUSH2 0x68A PUSH2 0x6C3 JUMP JUMPDEST JUMPDEST DUP1 PUSH1 0x40 MSTORE POP POP POP JUMP JUMPDEST PUSH32 0x4E487B7100000000000000000000000000000000000000000000000000000000 PUSH1 0x0 MSTORE PUSH1 0x22 PUSH1 0x4 MSTORE PUSH1 0x24 PUSH1 0x0 REVERT JUMPDEST PUSH32 0x4E487B7100000000000000000000000000000000000000000000000000000000 PUSH1 0x0 MSTORE PUSH1 0x41 PUSH1 0x4 MSTORE PUSH1 0x24 PUSH1 0x0 REVERT JUMPDEST PUSH1 0x0 DUP1 REVERT JUMPDEST PUSH1 0x0 DUP1 REVERT JUMPDEST PUSH1 0x0 DUP1 REVERT JUMPDEST PUSH1 0x0 DUP1 REVERT JUMPDEST PUSH1 0x0 PUSH1 0x1F NOT PUSH1 0x1F DUP4 ADD AND SWAP1 POP SWAP2 SWAP1 POP JUMP JUMPDEST PUSH32 0x4944206973206E6F74206D617463686564000000000000000000000000000000 PUSH1 0x0 DUP3 ADD MSTORE POP JUMP JUMPDEST PUSH2 0x749 DUP2 PUSH2 0x5E5 JUMP JUMPDEST DUP2 EQ PUSH2 0x754 JUMPI PUSH1 0x0 DUP1 REVERT JUMPDEST POP JUMP INVALID LOG2 PUSH5 0x6970667358 0x22 SLT KECCAK256 0xAF 0x1F SSTORE 0xDA GASPRICE BALANCE LT OR CODECOPY ADDMOD 0xD6 TIMESTAMP PUSH1 0xC1 0xEB PUSH21 0x5C0ABE1B93A2B6F75928BE6832A71BB564736F6C63 NUMBER STOP ADDMOD SMOD STOP CALLER "
				},
				"gasEstimates": {
					"creation": {
						"codeDepositCost": "386600",
						"executionCost": "424",
						"totalCost": "387024"
					},
					"external": {
						"BookRecord(uint256)": "infinite",
						"checkbook(uint256,string,string,uint256)": "infinite"
					}
				},
				"methodIdentifiers": {
					"BookRecord(uint256)": "b6e19d17",
					"checkbook(uint256,string,string,uint256)": "eba2c5fd"
				}
			},
			"storageLayout": {
				"storage": [
					{
						"astId": 13,
						"contract": "Samples/structExample.sol:Data",
						"label": "BookRecord",
						"offset": 0,
						"slot": "0",
						"type": "t_mapping(t_uint256,t_struct(Book)8_storage)"
					}
				],
				"types": {
					"t_mapping(t_uint256,t_struct(Book)8_storage)": {
						"encoding": "mapping",
						"key": "t_uint256",
						"label": "mapping(uint256 => struct Data.Book)",
						"numberOfBytes": "32",
						"value": "t_struct(Book)8_storage"
					},
					"t_string_storage": {
						"encoding": "bytes",
						"label": "string",
						"numberOfBytes": "32"
					},
					"t_struct(Book)8_storage": {
						"encoding": "inplace",
						"label": "struct Data.Book",
						"members": [
							{
								"astId": 3,
								"contract": "Samples/structExample.sol:Data",
								"label": "title",
								"offset": 0,
								"slot": "0",
								"type": "t_string_storage"
							},
							{
								"astId": 5,
								"contract": "Samples/structExample.sol:Data",
								"label": "author",
								"offset": 0,
								"slot": "1",
								"type": "t_string_storage"
							},
							{
								"astId": 7,
								"contract": "Samples/structExample.sol:Data",
								"label": "id",
								"offset": 0,
								"slot": "2",
								"type": "t_uint256"
							}
						],
						"numberOfBytes": "96"
					},
					"t_uint256": {
						"encoding": "inplace",
						"label": "uint256",
						"numberOfBytes": "32"
					}
				}
			},
			"userdoc": {
				"kind": "user",
				"methods": {},
				"version": 1
			}
		}
	}
}