{
	"Samples/erc20function.sol": {
		"example": {
			"abi": [
				{
					"inputs": [],
					"stateMutability": "nonpayable",
					"type": "constructor"
				},
				{
					"inputs": [
						{
							"internalType": "address",
							"name": "_userAddress",
							"type": "address"
						},
						{
							"internalType": "uint256",
							"name": "_amount",
							"type": "uint256"
						}
					],
					"name": "_mint",
					"outputs": [],
					"stateMutability": "nonpayable",
					"type": "function"
				},
				{
					"inputs": [
						{
							"internalType": "address",
							"name": "",
							"type": "address"
						}
					],
					"name": "allowence",
					"outputs": [
						{
							"internalType": "uint256",
							"name": "",
							"type": "uint256"
						}
					],
					"stateMutability": "view",
					"type": "function"
				},
				{
					"inputs": [
						{
							"internalType": "address",
							"name": "from",
							"type": "address"
						},
						{
							"internalType": "uint256",
							"name": "amount",
							"type": "uint256"
						}
					],
					"name": "approve",
					"outputs": [],
					"stateMutability": "nonpayable",
					"type": "function"
				},
				{
					"inputs": [
						{
							"internalType": "address",
							"name": "",
							"type": "address"
						}
					],
					"name": "balance",
					"outputs": [
						{
							"internalType": "uint256",
							"name": "",
							"type": "uint256"
						}
					],
					"stateMutability": "view",
					"type": "function"
				},
				{
					"inputs": [
						{
							"internalType": "address",
							"name": "checkbalance",
							"type": "address"
						}
					],
					"name": "balanceof",
					"outputs": [
						{
							"internalType": "uint256",
							"name": "",
							"type": "uint256"
						}
					],
					"stateMutability": "view",
					"type": "function"
				},
				{
					"inputs": [],
					"name": "totalsupply",
					"outputs": [
						{
							"internalType": "uint256",
							"name": "",
							"type": "uint256"
						}
					],
					"stateMutability": "view",
					"type": "function"
				},
				{
					"inputs": [
						{
							"internalType": "address",
							"name": "to",
							"type": "address"
						},
						{
							"internalType": "uint256",
							"name": "amount",
							"type": "uint256"
						}
					],
					"name": "transfer",
					"outputs": [],
					"stateMutability": "nonpayable",
					"type": "function"
				},
				{
					"inputs": [
						{
							"internalType": "address",
							"name": "from",
							"type": "address"
						},
						{
							"internalType": "address",
							"name": "to",
							"type": "address"
						},
						{
							"internalType": "uint256",
							"name": "amount",
							"type": "uint256"
						}
					],
					"name": "transferfrom",
					"outputs": [],
					"stateMutability": "nonpayable",
					"type": "function"
				}
			],
			"devdoc": {
				"kind": "dev",
				"methods": {},
				"version": 1
			},
			"evm": {
				"assembly": "    /* \"Samples/erc20function.sol\":60:1195  contract example {\r... */\n  mstore(0x40, 0x80)\n    /* \"Samples/erc20function.sol\":86:200  constructor() {\r... */\n  callvalue\n  dup1\n  iszero\n  tag_1\n  jumpi\n  0x00\n  dup1\n  revert\ntag_1:\n  pop\n    /* \"Samples/erc20function.sol\":111:148  _mint(msg.sender, 1000000000 *10**18) */\n  tag_4\n    /* \"Samples/erc20function.sol\":117:127  msg.sender */\n  caller\n    /* \"Samples/erc20function.sol\":129:147  1000000000 *10**18 */\n  0x033b2e3c9fd0803ce8000000\n    /* \"Samples/erc20function.sol\":111:116  _mint */\n  shl(0x20, tag_5)\n    /* \"Samples/erc20function.sol\":111:148  _mint(msg.sender, 1000000000 *10**18) */\n  0x20\n  shr\n  jump\t// in\ntag_4:\n    /* \"Samples/erc20function.sol\":174:192  1000000000 *10**18 */\n  0x033b2e3c9fd0803ce8000000\n    /* \"Samples/erc20function.sol\":159:171  total_supply */\n  0x02\n    /* \"Samples/erc20function.sol\":159:192  total_supply = 1000000000 *10**18 */\n  dup2\n  swap1\n  sstore\n  pop\n    /* \"Samples/erc20function.sol\":60:1195  contract example {\r... */\n  jump(tag_6)\n    /* \"Samples/erc20function.sol\":423:533  function _mint(address _userAddress, uint256 _amount) public{\r... */\ntag_5:\n    /* \"Samples/erc20function.sol\":518:525  _amount */\n  dup1\n    /* \"Samples/erc20function.sol\":494:501  balance */\n  0x00\n    /* \"Samples/erc20function.sol\":494:515  balance[_userAddress] */\n  dup1\n    /* \"Samples/erc20function.sol\":502:514  _userAddress */\n  dup5\n    /* \"Samples/erc20function.sol\":494:515  balance[_userAddress] */\n  0xffffffffffffffffffffffffffffffffffffffff\n  and\n  0xffffffffffffffffffffffffffffffffffffffff\n  and\n  dup2\n  mstore\n  0x20\n  add\n  swap1\n  dup2\n  mstore\n  0x20\n  add\n  0x00\n  keccak256\n    /* \"Samples/erc20function.sol\":494:525  balance[_userAddress] = _amount */\n  dup2\n  swap1\n  sstore\n  pop\n    /* \"Samples/erc20function.sol\":423:533  function _mint(address _userAddress, uint256 _amount) public{\r... */\n  pop\n  pop\n  jump\t// out\n    /* \"Samples/erc20function.sol\":60:1195  contract example {\r... */\ntag_6:\n  dataSize(sub_0)\n  dup1\n  dataOffset(sub_0)\n  0x00\n  codecopy\n  0x00\n  return\nstop\n\nsub_0: assembly {\n        /* \"Samples/erc20function.sol\":60:1195  contract example {\r... */\n      mstore(0x40, 0x80)\n      callvalue\n      dup1\n      iszero\n      tag_1\n      jumpi\n      0x00\n      dup1\n      revert\n    tag_1:\n      pop\n      jumpi(tag_2, lt(calldatasize, 0x04))\n      shr(0xe0, calldataload(0x00))\n      dup1\n      0x72dd529b\n      gt\n      tag_11\n      jumpi\n      dup1\n      0x72dd529b\n      eq\n      tag_7\n      jumpi\n      dup1\n      0xa9059cbb\n      eq\n      tag_8\n      jumpi\n      dup1\n      0xaef46244\n      eq\n      tag_9\n      jumpi\n      dup1\n      0xe3d670d7\n      eq\n      tag_10\n      jumpi\n      jump(tag_2)\n    tag_11:\n      dup1\n      0x095ea7b3\n      eq\n      tag_3\n      jumpi\n      dup1\n      0x3d64125b\n      eq\n      tag_4\n      jumpi\n      dup1\n      0x4e6ec247\n      eq\n      tag_5\n      jumpi\n      dup1\n      0x63b0545f\n      eq\n      tag_6\n      jumpi\n    tag_2:\n      0x00\n      dup1\n      revert\n        /* \"Samples/erc20function.sol\":1095:1189  function approve(address from, uint amount) public{\r... */\n    tag_3:\n      tag_12\n      0x04\n      dup1\n      calldatasize\n      sub\n      dup2\n      add\n      swap1\n      tag_13\n      swap2\n      swap1\n      tag_14\n      jump\t// in\n    tag_13:\n      tag_15\n      jump\t// in\n    tag_12:\n      stop\n        /* \"Samples/erc20function.sol\":541:654  function balanceof(address checkbalance) public view returns(uint){\r... */\n    tag_4:\n      tag_16\n      0x04\n      dup1\n      calldatasize\n      sub\n      dup2\n      add\n      swap1\n      tag_17\n      swap2\n      swap1\n      tag_18\n      jump\t// in\n    tag_17:\n      tag_19\n      jump\t// in\n    tag_16:\n      mload(0x40)\n      tag_20\n      swap2\n      swap1\n      tag_21\n      jump\t// in\n    tag_20:\n      mload(0x40)\n      dup1\n      swap2\n      sub\n      swap1\n      return\n        /* \"Samples/erc20function.sol\":423:533  function _mint(address _userAddress, uint256 _amount) public{\r... */\n    tag_5:\n      tag_22\n      0x04\n      dup1\n      calldatasize\n      sub\n      dup2\n      add\n      swap1\n      tag_23\n      swap2\n      swap1\n      tag_14\n      jump\t// in\n    tag_23:\n      tag_24\n      jump\t// in\n    tag_22:\n      stop\n        /* \"Samples/erc20function.sol\":797:1087  function transferfrom(address from, address to, uint amount) public{\r... */\n    tag_6:\n      tag_25\n      0x04\n      dup1\n      calldatasize\n      sub\n      dup2\n      add\n      swap1\n      tag_26\n      swap2\n      swap1\n      tag_27\n      jump\t// in\n    tag_26:\n      tag_28\n      jump\t// in\n    tag_25:\n      stop\n        /* \"Samples/erc20function.sol\":331:417  function totalsupply() public view returns(uint){\r... */\n    tag_7:\n      tag_29\n      tag_30\n      jump\t// in\n    tag_29:\n      mload(0x40)\n      tag_31\n      swap2\n      swap1\n      tag_21\n      jump\t// in\n    tag_31:\n      mload(0x40)\n      dup1\n      swap2\n      sub\n      swap1\n      return\n        /* \"Samples/erc20function.sol\":662:789  function transfer(address to, uint amount) public{\r... */\n    tag_8:\n      tag_32\n      0x04\n      dup1\n      calldatasize\n      sub\n      dup2\n      add\n      swap1\n      tag_33\n      swap2\n      swap1\n      tag_14\n      jump\t// in\n    tag_33:\n      tag_34\n      jump\t// in\n    tag_32:\n      stop\n        /* \"Samples/erc20function.sol\":254:295  mapping(address => uint) public allowence */\n    tag_9:\n      tag_35\n      0x04\n      dup1\n      calldatasize\n      sub\n      dup2\n      add\n      swap1\n      tag_36\n      swap2\n      swap1\n      tag_18\n      jump\t// in\n    tag_36:\n      tag_37\n      jump\t// in\n    tag_35:\n      mload(0x40)\n      tag_38\n      swap2\n      swap1\n      tag_21\n      jump\t// in\n    tag_38:\n      mload(0x40)\n      dup1\n      swap2\n      sub\n      swap1\n      return\n        /* \"Samples/erc20function.sol\":208:247  mapping(address => uint) public balance */\n    tag_10:\n      tag_39\n      0x04\n      dup1\n      calldatasize\n      sub\n      dup2\n      add\n      swap1\n      tag_40\n      swap2\n      swap1\n      tag_18\n      jump\t// in\n    tag_40:\n      tag_41\n      jump\t// in\n    tag_39:\n      mload(0x40)\n      tag_42\n      swap2\n      swap1\n      tag_21\n      jump\t// in\n    tag_42:\n      mload(0x40)\n      dup1\n      swap2\n      sub\n      swap1\n      return\n        /* \"Samples/erc20function.sol\":1095:1189  function approve(address from, uint amount) public{\r... */\n    tag_15:\n        /* \"Samples/erc20function.sol\":1175:1181  amount */\n      dup1\n        /* \"Samples/erc20function.sol\":1156:1165  allowence */\n      0x01\n        /* \"Samples/erc20function.sol\":1156:1171  allowence[from] */\n      0x00\n        /* \"Samples/erc20function.sol\":1166:1170  from */\n      dup5\n        /* \"Samples/erc20function.sol\":1156:1171  allowence[from] */\n      0xffffffffffffffffffffffffffffffffffffffff\n      and\n      0xffffffffffffffffffffffffffffffffffffffff\n      and\n      dup2\n      mstore\n      0x20\n      add\n      swap1\n      dup2\n      mstore\n      0x20\n      add\n      0x00\n      keccak256\n      0x00\n        /* \"Samples/erc20function.sol\":1156:1181  allowence[from] += amount */\n      dup3\n      dup3\n      sload\n      tag_44\n      swap2\n      swap1\n      tag_45\n      jump\t// in\n    tag_44:\n      swap3\n      pop\n      pop\n      dup2\n      swap1\n      sstore\n      pop\n        /* \"Samples/erc20function.sol\":1095:1189  function approve(address from, uint amount) public{\r... */\n      pop\n      pop\n      jump\t// out\n        /* \"Samples/erc20function.sol\":541:654  function balanceof(address checkbalance) public view returns(uint){\r... */\n    tag_19:\n        /* \"Samples/erc20function.sol\":602:606  uint */\n      0x00\n        /* \"Samples/erc20function.sol\":625:632  balance */\n      dup1\n        /* \"Samples/erc20function.sol\":625:646  balance[checkbalance] */\n      0x00\n        /* \"Samples/erc20function.sol\":633:645  checkbalance */\n      dup4\n        /* \"Samples/erc20function.sol\":625:646  balance[checkbalance] */\n      0xffffffffffffffffffffffffffffffffffffffff\n      and\n      0xffffffffffffffffffffffffffffffffffffffff\n      and\n      dup2\n      mstore\n      0x20\n      add\n      swap1\n      dup2\n      mstore\n      0x20\n      add\n      0x00\n      keccak256\n      sload\n        /* \"Samples/erc20function.sol\":618:646  return balance[checkbalance] */\n      swap1\n      pop\n        /* \"Samples/erc20function.sol\":541:654  function balanceof(address checkbalance) public view returns(uint){\r... */\n      swap2\n      swap1\n      pop\n      jump\t// out\n        /* \"Samples/erc20function.sol\":423:533  function _mint(address _userAddress, uint256 _amount) public{\r... */\n    tag_24:\n        /* \"Samples/erc20function.sol\":518:525  _amount */\n      dup1\n        /* \"Samples/erc20function.sol\":494:501  balance */\n      0x00\n        /* \"Samples/erc20function.sol\":494:515  balance[_userAddress] */\n      dup1\n        /* \"Samples/erc20function.sol\":502:514  _userAddress */\n      dup5\n        /* \"Samples/erc20function.sol\":494:515  balance[_userAddress] */\n      0xffffffffffffffffffffffffffffffffffffffff\n      and\n      0xffffffffffffffffffffffffffffffffffffffff\n      and\n      dup2\n      mstore\n      0x20\n      add\n      swap1\n      dup2\n      mstore\n      0x20\n      add\n      0x00\n      keccak256\n        /* \"Samples/erc20function.sol\":494:525  balance[_userAddress] = _amount */\n      dup2\n      swap1\n      sstore\n      pop\n        /* \"Samples/erc20function.sol\":423:533  function _mint(address _userAddress, uint256 _amount) public{\r... */\n      pop\n      pop\n      jump\t// out\n        /* \"Samples/erc20function.sol\":797:1087  function transferfrom(address from, address to, uint amount) public{\r... */\n    tag_28:\n        /* \"Samples/erc20function.sol\":898:907  allowence */\n      0x01\n        /* \"Samples/erc20function.sol\":898:913  allowence[from] */\n      0x00\n        /* \"Samples/erc20function.sol\":908:912  from */\n      dup5\n        /* \"Samples/erc20function.sol\":898:913  allowence[from] */\n      0xffffffffffffffffffffffffffffffffffffffff\n      and\n      0xffffffffffffffffffffffffffffffffffffffff\n      and\n      dup2\n      mstore\n      0x20\n      add\n      swap1\n      dup2\n      mstore\n      0x20\n      add\n      0x00\n      keccak256\n      sload\n        /* \"Samples/erc20function.sol\":889:895  amount */\n      dup2\n        /* \"Samples/erc20function.sol\":889:913  amount < allowence[from] */\n      lt\n        /* \"Samples/erc20function.sol\":881:932  require(amount < allowence[from], \"not authorized\") */\n      tag_49\n      jumpi\n      mload(0x40)\n      0x08c379a000000000000000000000000000000000000000000000000000000000\n      dup2\n      mstore\n      0x04\n      add\n      tag_50\n      swap1\n      tag_51\n      jump\t// in\n    tag_50:\n      mload(0x40)\n      dup1\n      swap2\n      sub\n      swap1\n      revert\n    tag_49:\n        /* \"Samples/erc20function.sol\":961:968  balance */\n      0x00\n        /* \"Samples/erc20function.sol\":961:974  balance[from] */\n      dup1\n        /* \"Samples/erc20function.sol\":969:973  from */\n      dup5\n        /* \"Samples/erc20function.sol\":961:974  balance[from] */\n      0xffffffffffffffffffffffffffffffffffffffff\n      and\n      0xffffffffffffffffffffffffffffffffffffffff\n      and\n      dup2\n      mstore\n      0x20\n      add\n      swap1\n      dup2\n      mstore\n      0x20\n      add\n      0x00\n      keccak256\n      sload\n        /* \"Samples/erc20function.sol\":951:957  amount */\n      dup2\n        /* \"Samples/erc20function.sol\":951:974  amount <= balance[from] */\n      gt\n      iszero\n        /* \"Samples/erc20function.sol\":943:1008  require(amount <= balance[from], \"amount must be less than from\") */\n      tag_52\n      jumpi\n      mload(0x40)\n      0x08c379a000000000000000000000000000000000000000000000000000000000\n      dup2\n      mstore\n      0x04\n      add\n      tag_53\n      swap1\n      tag_54\n      jump\t// in\n    tag_53:\n      mload(0x40)\n      dup1\n      swap2\n      sub\n      swap1\n      revert\n    tag_52:\n        /* \"Samples/erc20function.sol\":1038:1044  amount */\n      dup1\n        /* \"Samples/erc20function.sol\":1021:1028  balance */\n      0x00\n        /* \"Samples/erc20function.sol\":1021:1034  balance[from] */\n      dup1\n        /* \"Samples/erc20function.sol\":1029:1033  from */\n      dup6\n        /* \"Samples/erc20function.sol\":1021:1034  balance[from] */\n      0xffffffffffffffffffffffffffffffffffffffff\n      and\n      0xffffffffffffffffffffffffffffffffffffffff\n      and\n      dup2\n      mstore\n      0x20\n      add\n      swap1\n      dup2\n      mstore\n      0x20\n      add\n      0x00\n      keccak256\n      0x00\n        /* \"Samples/erc20function.sol\":1021:1044  balance[from] -= amount */\n      dup3\n      dup3\n      sload\n      tag_55\n      swap2\n      swap1\n      tag_56\n      jump\t// in\n    tag_55:\n      swap3\n      pop\n      pop\n      dup2\n      swap1\n      sstore\n      pop\n        /* \"Samples/erc20function.sol\":1070:1076  amount */\n      dup1\n        /* \"Samples/erc20function.sol\":1055:1062  balance */\n      0x00\n        /* \"Samples/erc20function.sol\":1055:1066  balance[to] */\n      dup1\n        /* \"Samples/erc20function.sol\":1063:1065  to */\n      dup5\n        /* \"Samples/erc20function.sol\":1055:1066  balance[to] */\n      0xffffffffffffffffffffffffffffffffffffffff\n      and\n      0xffffffffffffffffffffffffffffffffffffffff\n      and\n      dup2\n      mstore\n      0x20\n      add\n      swap1\n      dup2\n      mstore\n      0x20\n      add\n      0x00\n      keccak256\n      0x00\n        /* \"Samples/erc20function.sol\":1055:1076  balance[to] += amount */\n      dup3\n      dup3\n      sload\n      tag_57\n      swap2\n      swap1\n      tag_45\n      jump\t// in\n    tag_57:\n      swap3\n      pop\n      pop\n      dup2\n      swap1\n      sstore\n      pop\n        /* \"Samples/erc20function.sol\":797:1087  function transferfrom(address from, address to, uint amount) public{\r... */\n      pop\n      pop\n      pop\n      jump\t// out\n        /* \"Samples/erc20function.sol\":331:417  function totalsupply() public view returns(uint){\r... */\n    tag_30:\n        /* \"Samples/erc20function.sol\":374:378  uint */\n      0x00\n        /* \"Samples/erc20function.sol\":397:409  total_supply */\n      sload(0x02)\n        /* \"Samples/erc20function.sol\":390:409  return total_supply */\n      swap1\n      pop\n        /* \"Samples/erc20function.sol\":331:417  function totalsupply() public view returns(uint){\r... */\n      swap1\n      jump\t// out\n        /* \"Samples/erc20function.sol\":662:789  function transfer(address to, uint amount) public{\r... */\n    tag_34:\n        /* \"Samples/erc20function.sol\":744:750  amount */\n      dup1\n        /* \"Samples/erc20function.sol\":722:729  balance */\n      0x00\n        /* \"Samples/erc20function.sol\":722:741  balance[msg.sender] */\n      dup1\n        /* \"Samples/erc20function.sol\":730:740  msg.sender */\n      caller\n        /* \"Samples/erc20function.sol\":722:741  balance[msg.sender] */\n      0xffffffffffffffffffffffffffffffffffffffff\n      and\n      0xffffffffffffffffffffffffffffffffffffffff\n      and\n      dup2\n      mstore\n      0x20\n      add\n      swap1\n      dup2\n      mstore\n      0x20\n      add\n      0x00\n      keccak256\n        /* \"Samples/erc20function.sol\":722:750  balance[msg.sender] = amount */\n      dup2\n      swap1\n      sstore\n      pop\n        /* \"Samples/erc20function.sol\":775:781  amount */\n      dup1\n        /* \"Samples/erc20function.sol\":761:768  balance */\n      0x00\n        /* \"Samples/erc20function.sol\":761:772  balance[to] */\n      dup1\n        /* \"Samples/erc20function.sol\":769:771  to */\n      dup5\n        /* \"Samples/erc20function.sol\":761:772  balance[to] */\n      0xffffffffffffffffffffffffffffffffffffffff\n      and\n      0xffffffffffffffffffffffffffffffffffffffff\n      and\n      dup2\n      mstore\n      0x20\n      add\n      swap1\n      dup2\n      mstore\n      0x20\n      add\n      0x00\n      keccak256\n      0x00\n        /* \"Samples/erc20function.sol\":761:781  balance[to] +=amount */\n      dup3\n      dup3\n      sload\n      tag_60\n      swap2\n      swap1\n      tag_45\n      jump\t// in\n    tag_60:\n      swap3\n      pop\n      pop\n      dup2\n      swap1\n      sstore\n      pop\n        /* \"Samples/erc20function.sol\":662:789  function transfer(address to, uint amount) public{\r... */\n      pop\n      pop\n      jump\t// out\n        /* \"Samples/erc20function.sol\":254:295  mapping(address => uint) public allowence */\n    tag_37:\n      mstore(0x20, 0x01)\n      dup1\n      0x00\n      mstore\n      keccak256(0x00, 0x40)\n      0x00\n      swap2\n      pop\n      swap1\n      pop\n      sload\n      dup2\n      jump\t// out\n        /* \"Samples/erc20function.sol\":208:247  mapping(address => uint) public balance */\n    tag_41:\n      mstore(0x20, 0x00)\n      dup1\n      0x00\n      mstore\n      keccak256(0x00, 0x40)\n      0x00\n      swap2\n      pop\n      swap1\n      pop\n      sload\n      dup2\n      jump\t// out\n        /* \"#utility.yul\":7:146   */\n    tag_62:\n        /* \"#utility.yul\":53:58   */\n      0x00\n        /* \"#utility.yul\":91:97   */\n      dup2\n        /* \"#utility.yul\":78:98   */\n      calldataload\n        /* \"#utility.yul\":69:98   */\n      swap1\n      pop\n        /* \"#utility.yul\":107:140   */\n      tag_64\n        /* \"#utility.yul\":134:139   */\n      dup2\n        /* \"#utility.yul\":107:140   */\n      tag_65\n      jump\t// in\n    tag_64:\n        /* \"#utility.yul\":7:146   */\n      swap3\n      swap2\n      pop\n      pop\n      jump\t// out\n        /* \"#utility.yul\":152:291   */\n    tag_66:\n        /* \"#utility.yul\":198:203   */\n      0x00\n        /* \"#utility.yul\":236:242   */\n      dup2\n        /* \"#utility.yul\":223:243   */\n      calldataload\n        /* \"#utility.yul\":214:243   */\n      swap1\n      pop\n        /* \"#utility.yul\":252:285   */\n      tag_68\n        /* \"#utility.yul\":279:284   */\n      dup2\n        /* \"#utility.yul\":252:285   */\n      tag_69\n      jump\t// in\n    tag_68:\n        /* \"#utility.yul\":152:291   */\n      swap3\n      swap2\n      pop\n      pop\n      jump\t// out\n        /* \"#utility.yul\":297:626   */\n    tag_18:\n        /* \"#utility.yul\":356:362   */\n      0x00\n        /* \"#utility.yul\":405:407   */\n      0x20\n        /* \"#utility.yul\":393:402   */\n      dup3\n        /* \"#utility.yul\":384:391   */\n      dup5\n        /* \"#utility.yul\":380:403   */\n      sub\n        /* \"#utility.yul\":376:408   */\n      slt\n        /* \"#utility.yul\":373:492   */\n      iszero\n      tag_71\n      jumpi\n        /* \"#utility.yul\":411:490   */\n      tag_72\n      tag_73\n      jump\t// in\n    tag_72:\n        /* \"#utility.yul\":373:492   */\n    tag_71:\n        /* \"#utility.yul\":531:532   */\n      0x00\n        /* \"#utility.yul\":556:609   */\n      tag_74\n        /* \"#utility.yul\":601:608   */\n      dup5\n        /* \"#utility.yul\":592:598   */\n      dup3\n        /* \"#utility.yul\":581:590   */\n      dup6\n        /* \"#utility.yul\":577:599   */\n      add\n        /* \"#utility.yul\":556:609   */\n      tag_62\n      jump\t// in\n    tag_74:\n        /* \"#utility.yul\":546:609   */\n      swap2\n      pop\n        /* \"#utility.yul\":502:619   */\n      pop\n        /* \"#utility.yul\":297:626   */\n      swap3\n      swap2\n      pop\n      pop\n      jump\t// out\n        /* \"#utility.yul\":632:1251   */\n    tag_27:\n        /* \"#utility.yul\":709:715   */\n      0x00\n        /* \"#utility.yul\":717:723   */\n      dup1\n        /* \"#utility.yul\":725:731   */\n      0x00\n        /* \"#utility.yul\":774:776   */\n      0x60\n        /* \"#utility.yul\":762:771   */\n      dup5\n        /* \"#utility.yul\":753:760   */\n      dup7\n        /* \"#utility.yul\":749:772   */\n      sub\n        /* \"#utility.yul\":745:777   */\n      slt\n        /* \"#utility.yul\":742:861   */\n      iszero\n      tag_76\n      jumpi\n        /* \"#utility.yul\":780:859   */\n      tag_77\n      tag_73\n      jump\t// in\n    tag_77:\n        /* \"#utility.yul\":742:861   */\n    tag_76:\n        /* \"#utility.yul\":900:901   */\n      0x00\n        /* \"#utility.yul\":925:978   */\n      tag_78\n        /* \"#utility.yul\":970:977   */\n      dup7\n        /* \"#utility.yul\":961:967   */\n      dup3\n        /* \"#utility.yul\":950:959   */\n      dup8\n        /* \"#utility.yul\":946:968   */\n      add\n        /* \"#utility.yul\":925:978   */\n      tag_62\n      jump\t// in\n    tag_78:\n        /* \"#utility.yul\":915:978   */\n      swap4\n      pop\n        /* \"#utility.yul\":871:988   */\n      pop\n        /* \"#utility.yul\":1027:1029   */\n      0x20\n        /* \"#utility.yul\":1053:1106   */\n      tag_79\n        /* \"#utility.yul\":1098:1105   */\n      dup7\n        /* \"#utility.yul\":1089:1095   */\n      dup3\n        /* \"#utility.yul\":1078:1087   */\n      dup8\n        /* \"#utility.yul\":1074:1096   */\n      add\n        /* \"#utility.yul\":1053:1106   */\n      tag_62\n      jump\t// in\n    tag_79:\n        /* \"#utility.yul\":1043:1106   */\n      swap3\n      pop\n        /* \"#utility.yul\":998:1116   */\n      pop\n        /* \"#utility.yul\":1155:1157   */\n      0x40\n        /* \"#utility.yul\":1181:1234   */\n      tag_80\n        /* \"#utility.yul\":1226:1233   */\n      dup7\n        /* \"#utility.yul\":1217:1223   */\n      dup3\n        /* \"#utility.yul\":1206:1215   */\n      dup8\n        /* \"#utility.yul\":1202:1224   */\n      add\n        /* \"#utility.yul\":1181:1234   */\n      tag_66\n      jump\t// in\n    tag_80:\n        /* \"#utility.yul\":1171:1234   */\n      swap2\n      pop\n        /* \"#utility.yul\":1126:1244   */\n      pop\n        /* \"#utility.yul\":632:1251   */\n      swap3\n      pop\n      swap3\n      pop\n      swap3\n      jump\t// out\n        /* \"#utility.yul\":1257:1731   */\n    tag_14:\n        /* \"#utility.yul\":1325:1331   */\n      0x00\n        /* \"#utility.yul\":1333:1339   */\n      dup1\n        /* \"#utility.yul\":1382:1384   */\n      0x40\n        /* \"#utility.yul\":1370:1379   */\n      dup4\n        /* \"#utility.yul\":1361:1368   */\n      dup6\n        /* \"#utility.yul\":1357:1380   */\n      sub\n        /* \"#utility.yul\":1353:1385   */\n      slt\n        /* \"#utility.yul\":1350:1469   */\n      iszero\n      tag_82\n      jumpi\n        /* \"#utility.yul\":1388:1467   */\n      tag_83\n      tag_73\n      jump\t// in\n    tag_83:\n        /* \"#utility.yul\":1350:1469   */\n    tag_82:\n        /* \"#utility.yul\":1508:1509   */\n      0x00\n        /* \"#utility.yul\":1533:1586   */\n      tag_84\n        /* \"#utility.yul\":1578:1585   */\n      dup6\n        /* \"#utility.yul\":1569:1575   */\n      dup3\n        /* \"#utility.yul\":1558:1567   */\n      dup7\n        /* \"#utility.yul\":1554:1576   */\n      add\n        /* \"#utility.yul\":1533:1586   */\n      tag_62\n      jump\t// in\n    tag_84:\n        /* \"#utility.yul\":1523:1586   */\n      swap3\n      pop\n        /* \"#utility.yul\":1479:1596   */\n      pop\n        /* \"#utility.yul\":1635:1637   */\n      0x20\n        /* \"#utility.yul\":1661:1714   */\n      tag_85\n        /* \"#utility.yul\":1706:1713   */\n      dup6\n        /* \"#utility.yul\":1697:1703   */\n      dup3\n        /* \"#utility.yul\":1686:1695   */\n      dup7\n        /* \"#utility.yul\":1682:1704   */\n      add\n        /* \"#utility.yul\":1661:1714   */\n      tag_66\n      jump\t// in\n    tag_85:\n        /* \"#utility.yul\":1651:1714   */\n      swap2\n      pop\n        /* \"#utility.yul\":1606:1724   */\n      pop\n        /* \"#utility.yul\":1257:1731   */\n      swap3\n      pop\n      swap3\n      swap1\n      pop\n      jump\t// out\n        /* \"#utility.yul\":1737:2103   */\n    tag_86:\n        /* \"#utility.yul\":1879:1882   */\n      0x00\n        /* \"#utility.yul\":1900:1967   */\n      tag_88\n        /* \"#utility.yul\":1964:1966   */\n      0x1d\n        /* \"#utility.yul\":1959:1962   */\n      dup4\n        /* \"#utility.yul\":1900:1967   */\n      tag_89\n      jump\t// in\n    tag_88:\n        /* \"#utility.yul\":1893:1967   */\n      swap2\n      pop\n        /* \"#utility.yul\":1976:2069   */\n      tag_90\n        /* \"#utility.yul\":2065:2068   */\n      dup3\n        /* \"#utility.yul\":1976:2069   */\n      tag_91\n      jump\t// in\n    tag_90:\n        /* \"#utility.yul\":2094:2096   */\n      0x20\n        /* \"#utility.yul\":2089:2092   */\n      dup3\n        /* \"#utility.yul\":2085:2097   */\n      add\n        /* \"#utility.yul\":2078:2097   */\n      swap1\n      pop\n        /* \"#utility.yul\":1737:2103   */\n      swap2\n      swap1\n      pop\n      jump\t// out\n        /* \"#utility.yul\":2109:2475   */\n    tag_92:\n        /* \"#utility.yul\":2251:2254   */\n      0x00\n        /* \"#utility.yul\":2272:2339   */\n      tag_94\n        /* \"#utility.yul\":2336:2338   */\n      0x0e\n        /* \"#utility.yul\":2331:2334   */\n      dup4\n        /* \"#utility.yul\":2272:2339   */\n      tag_89\n      jump\t// in\n    tag_94:\n        /* \"#utility.yul\":2265:2339   */\n      swap2\n      pop\n        /* \"#utility.yul\":2348:2441   */\n      tag_95\n        /* \"#utility.yul\":2437:2440   */\n      dup3\n        /* \"#utility.yul\":2348:2441   */\n      tag_96\n      jump\t// in\n    tag_95:\n        /* \"#utility.yul\":2466:2468   */\n      0x20\n        /* \"#utility.yul\":2461:2464   */\n      dup3\n        /* \"#utility.yul\":2457:2469   */\n      add\n        /* \"#utility.yul\":2450:2469   */\n      swap1\n      pop\n        /* \"#utility.yul\":2109:2475   */\n      swap2\n      swap1\n      pop\n      jump\t// out\n        /* \"#utility.yul\":2481:2599   */\n    tag_97:\n        /* \"#utility.yul\":2568:2592   */\n      tag_99\n        /* \"#utility.yul\":2586:2591   */\n      dup2\n        /* \"#utility.yul\":2568:2592   */\n      tag_100\n      jump\t// in\n    tag_99:\n        /* \"#utility.yul\":2563:2566   */\n      dup3\n        /* \"#utility.yul\":2556:2593   */\n      mstore\n        /* \"#utility.yul\":2481:2599   */\n      pop\n      pop\n      jump\t// out\n        /* \"#utility.yul\":2605:3024   */\n    tag_54:\n        /* \"#utility.yul\":2771:2775   */\n      0x00\n        /* \"#utility.yul\":2809:2811   */\n      0x20\n        /* \"#utility.yul\":2798:2807   */\n      dup3\n        /* \"#utility.yul\":2794:2812   */\n      add\n        /* \"#utility.yul\":2786:2812   */\n      swap1\n      pop\n        /* \"#utility.yul\":2858:2867   */\n      dup2\n        /* \"#utility.yul\":2852:2856   */\n      dup2\n        /* \"#utility.yul\":2848:2868   */\n      sub\n        /* \"#utility.yul\":2844:2845   */\n      0x00\n        /* \"#utility.yul\":2833:2842   */\n      dup4\n        /* \"#utility.yul\":2829:2846   */\n      add\n        /* \"#utility.yul\":2822:2869   */\n      mstore\n        /* \"#utility.yul\":2886:3017   */\n      tag_102\n        /* \"#utility.yul\":3012:3016   */\n      dup2\n        /* \"#utility.yul\":2886:3017   */\n      tag_86\n      jump\t// in\n    tag_102:\n        /* \"#utility.yul\":2878:3017   */\n      swap1\n      pop\n        /* \"#utility.yul\":2605:3024   */\n      swap2\n      swap1\n      pop\n      jump\t// out\n        /* \"#utility.yul\":3030:3449   */\n    tag_51:\n        /* \"#utility.yul\":3196:3200   */\n      0x00\n        /* \"#utility.yul\":3234:3236   */\n      0x20\n        /* \"#utility.yul\":3223:3232   */\n      dup3\n        /* \"#utility.yul\":3219:3237   */\n      add\n        /* \"#utility.yul\":3211:3237   */\n      swap1\n      pop\n        /* \"#utility.yul\":3283:3292   */\n      dup2\n        /* \"#utility.yul\":3277:3281   */\n      dup2\n        /* \"#utility.yul\":3273:3293   */\n      sub\n        /* \"#utility.yul\":3269:3270   */\n      0x00\n        /* \"#utility.yul\":3258:3267   */\n      dup4\n        /* \"#utility.yul\":3254:3271   */\n      add\n        /* \"#utility.yul\":3247:3294   */\n      mstore\n        /* \"#utility.yul\":3311:3442   */\n      tag_104\n        /* \"#utility.yul\":3437:3441   */\n      dup2\n        /* \"#utility.yul\":3311:3442   */\n      tag_92\n      jump\t// in\n    tag_104:\n        /* \"#utility.yul\":3303:3442   */\n      swap1\n      pop\n        /* \"#utility.yul\":3030:3449   */\n      swap2\n      swap1\n      pop\n      jump\t// out\n        /* \"#utility.yul\":3455:3677   */\n    tag_21:\n        /* \"#utility.yul\":3548:3552   */\n      0x00\n        /* \"#utility.yul\":3586:3588   */\n      0x20\n        /* \"#utility.yul\":3575:3584   */\n      dup3\n        /* \"#utility.yul\":3571:3589   */\n      add\n        /* \"#utility.yul\":3563:3589   */\n      swap1\n      pop\n        /* \"#utility.yul\":3599:3670   */\n      tag_106\n        /* \"#utility.yul\":3667:3668   */\n      0x00\n        /* \"#utility.yul\":3656:3665   */\n      dup4\n        /* \"#utility.yul\":3652:3669   */\n      add\n        /* \"#utility.yul\":3643:3649   */\n      dup5\n        /* \"#utility.yul\":3599:3670   */\n      tag_97\n      jump\t// in\n    tag_106:\n        /* \"#utility.yul\":3455:3677   */\n      swap3\n      swap2\n      pop\n      pop\n      jump\t// out\n        /* \"#utility.yul\":3764:3933   */\n    tag_89:\n        /* \"#utility.yul\":3848:3859   */\n      0x00\n        /* \"#utility.yul\":3882:3888   */\n      dup3\n        /* \"#utility.yul\":3877:3880   */\n      dup3\n        /* \"#utility.yul\":3870:3889   */\n      mstore\n        /* \"#utility.yul\":3922:3926   */\n      0x20\n        /* \"#utility.yul\":3917:3920   */\n      dup3\n        /* \"#utility.yul\":3913:3927   */\n      add\n        /* \"#utility.yul\":3898:3927   */\n      swap1\n      pop\n        /* \"#utility.yul\":3764:3933   */\n      swap3\n      swap2\n      pop\n      pop\n      jump\t// out\n        /* \"#utility.yul\":3939:4244   */\n    tag_45:\n        /* \"#utility.yul\":3979:3982   */\n      0x00\n        /* \"#utility.yul\":3998:4018   */\n      tag_111\n        /* \"#utility.yul\":4016:4017   */\n      dup3\n        /* \"#utility.yul\":3998:4018   */\n      tag_100\n      jump\t// in\n    tag_111:\n        /* \"#utility.yul\":3993:4018   */\n      swap2\n      pop\n        /* \"#utility.yul\":4032:4052   */\n      tag_112\n        /* \"#utility.yul\":4050:4051   */\n      dup4\n        /* \"#utility.yul\":4032:4052   */\n      tag_100\n      jump\t// in\n    tag_112:\n        /* \"#utility.yul\":4027:4052   */\n      swap3\n      pop\n        /* \"#utility.yul\":4186:4187   */\n      dup3\n        /* \"#utility.yul\":4118:4184   */\n      0xffffffffffffffffffffffffffffffffffffffffffffffffffffffffffffffff\n        /* \"#utility.yul\":4114:4188   */\n      sub\n        /* \"#utility.yul\":4111:4112   */\n      dup3\n        /* \"#utility.yul\":4108:4189   */\n      gt\n        /* \"#utility.yul\":4105:4212   */\n      iszero\n      tag_113\n      jumpi\n        /* \"#utility.yul\":4192:4210   */\n      tag_114\n      tag_115\n      jump\t// in\n    tag_114:\n        /* \"#utility.yul\":4105:4212   */\n    tag_113:\n        /* \"#utility.yul\":4236:4237   */\n      dup3\n        /* \"#utility.yul\":4233:4234   */\n      dup3\n        /* \"#utility.yul\":4229:4238   */\n      add\n        /* \"#utility.yul\":4222:4238   */\n      swap1\n      pop\n        /* \"#utility.yul\":3939:4244   */\n      swap3\n      swap2\n      pop\n      pop\n      jump\t// out\n        /* \"#utility.yul\":4250:4441   */\n    tag_56:\n        /* \"#utility.yul\":4290:4294   */\n      0x00\n        /* \"#utility.yul\":4310:4330   */\n      tag_117\n        /* \"#utility.yul\":4328:4329   */\n      dup3\n        /* \"#utility.yul\":4310:4330   */\n      tag_100\n      jump\t// in\n    tag_117:\n        /* \"#utility.yul\":4305:4330   */\n      swap2\n      pop\n        /* \"#utility.yul\":4344:4364   */\n      tag_118\n        /* \"#utility.yul\":4362:4363   */\n      dup4\n        /* \"#utility.yul\":4344:4364   */\n      tag_100\n      jump\t// in\n    tag_118:\n        /* \"#utility.yul\":4339:4364   */\n      swap3\n      pop\n        /* \"#utility.yul\":4383:4384   */\n      dup3\n        /* \"#utility.yul\":4380:4381   */\n      dup3\n        /* \"#utility.yul\":4377:4385   */\n      lt\n        /* \"#utility.yul\":4374:4408   */\n      iszero\n      tag_119\n      jumpi\n        /* \"#utility.yul\":4388:4406   */\n      tag_120\n      tag_115\n      jump\t// in\n    tag_120:\n        /* \"#utility.yul\":4374:4408   */\n    tag_119:\n        /* \"#utility.yul\":4433:4434   */\n      dup3\n        /* \"#utility.yul\":4430:4431   */\n      dup3\n        /* \"#utility.yul\":4426:4435   */\n      sub\n        /* \"#utility.yul\":4418:4435   */\n      swap1\n      pop\n        /* \"#utility.yul\":4250:4441   */\n      swap3\n      swap2\n      pop\n      pop\n      jump\t// out\n        /* \"#utility.yul\":4447:4543   */\n    tag_121:\n        /* \"#utility.yul\":4484:4491   */\n      0x00\n        /* \"#utility.yul\":4513:4537   */\n      tag_123\n        /* \"#utility.yul\":4531:4536   */\n      dup3\n        /* \"#utility.yul\":4513:4537   */\n      tag_124\n      jump\t// in\n    tag_123:\n        /* \"#utility.yul\":4502:4537   */\n      swap1\n      pop\n        /* \"#utility.yul\":4447:4543   */\n      swap2\n      swap1\n      pop\n      jump\t// out\n        /* \"#utility.yul\":4549:4675   */\n    tag_124:\n        /* \"#utility.yul\":4586:4593   */\n      0x00\n        /* \"#utility.yul\":4626:4668   */\n      0xffffffffffffffffffffffffffffffffffffffff\n        /* \"#utility.yul\":4619:4624   */\n      dup3\n        /* \"#utility.yul\":4615:4669   */\n      and\n        /* \"#utility.yul\":4604:4669   */\n      swap1\n      pop\n        /* \"#utility.yul\":4549:4675   */\n      swap2\n      swap1\n      pop\n      jump\t// out\n        /* \"#utility.yul\":4681:4758   */\n    tag_100:\n        /* \"#utility.yul\":4718:4725   */\n      0x00\n        /* \"#utility.yul\":4747:4752   */\n      dup2\n        /* \"#utility.yul\":4736:4752   */\n      swap1\n      pop\n        /* \"#utility.yul\":4681:4758   */\n      swap2\n      swap1\n      pop\n      jump\t// out\n        /* \"#utility.yul\":4764:4944   */\n    tag_115:\n        /* \"#utility.yul\":4812:4889   */\n      0x4e487b7100000000000000000000000000000000000000000000000000000000\n        /* \"#utility.yul\":4809:4810   */\n      0x00\n        /* \"#utility.yul\":4802:4890   */\n      mstore\n        /* \"#utility.yul\":4909:4913   */\n      0x11\n        /* \"#utility.yul\":4906:4907   */\n      0x04\n        /* \"#utility.yul\":4899:4914   */\n      mstore\n        /* \"#utility.yul\":4933:4937   */\n      0x24\n        /* \"#utility.yul\":4930:4931   */\n      0x00\n        /* \"#utility.yul\":4923:4938   */\n      revert\n        /* \"#utility.yul\":5073:5190   */\n    tag_73:\n        /* \"#utility.yul\":5182:5183   */\n      0x00\n        /* \"#utility.yul\":5179:5180   */\n      dup1\n        /* \"#utility.yul\":5172:5184   */\n      revert\n        /* \"#utility.yul\":5196:5375   */\n    tag_91:\n        /* \"#utility.yul\":5336:5367   */\n      0x616d6f756e74206d757374206265206c657373207468616e2066726f6d000000\n        /* \"#utility.yul\":5332:5333   */\n      0x00\n        /* \"#utility.yul\":5324:5330   */\n      dup3\n        /* \"#utility.yul\":5320:5334   */\n      add\n        /* \"#utility.yul\":5313:5368   */\n      mstore\n        /* \"#utility.yul\":5196:5375   */\n      pop\n      jump\t// out\n        /* \"#utility.yul\":5381:5545   */\n    tag_96:\n        /* \"#utility.yul\":5521:5537   */\n      0x6e6f7420617574686f72697a6564000000000000000000000000000000000000\n        /* \"#utility.yul\":5517:5518   */\n      0x00\n        /* \"#utility.yul\":5509:5515   */\n      dup3\n        /* \"#utility.yul\":5505:5519   */\n      add\n        /* \"#utility.yul\":5498:5538   */\n      mstore\n        /* \"#utility.yul\":5381:5545   */\n      pop\n      jump\t// out\n        /* \"#utility.yul\":5551:5673   */\n    tag_65:\n        /* \"#utility.yul\":5624:5648   */\n      tag_134\n        /* \"#utility.yul\":5642:5647   */\n      dup2\n        /* \"#utility.yul\":5624:5648   */\n      tag_121\n      jump\t// in\n    tag_134:\n        /* \"#utility.yul\":5617:5622   */\n      dup2\n        /* \"#utility.yul\":5614:5649   */\n      eq\n        /* \"#utility.yul\":5604:5667   */\n      tag_135\n      jumpi\n        /* \"#utility.yul\":5663:5664   */\n      0x00\n        /* \"#utility.yul\":5660:5661   */\n      dup1\n        /* \"#utility.yul\":5653:5665   */\n      revert\n        /* \"#utility.yul\":5604:5667   */\n    tag_135:\n        /* \"#utility.yul\":5551:5673   */\n      pop\n      jump\t// out\n        /* \"#utility.yul\":5679:5801   */\n    tag_69:\n        /* \"#utility.yul\":5752:5776   */\n      tag_137\n        /* \"#utility.yul\":5770:5775   */\n      dup2\n        /* \"#utility.yul\":5752:5776   */\n      tag_100\n      jump\t// in\n    tag_137:\n        /* \"#utility.yul\":5745:5750   */\n      dup2\n        /* \"#utility.yul\":5742:5777   */\n      eq\n        /* \"#utility.yul\":5732:5795   */\n      tag_138\n      jumpi\n        /* \"#utility.yul\":5791:5792   */\n      0x00\n        /* \"#utility.yul\":5788:5789   */\n      dup1\n        /* \"#utility.yul\":5781:5793   */\n      revert\n        /* \"#utility.yul\":5732:5795   */\n    tag_138:\n        /* \"#utility.yul\":5679:5801   */\n      pop\n      jump\t// out\n\n    auxdata: 0xa2646970667358221220bd2d2958640bf5641769f60f891166e82d1c31b2c6b53eb249508e7bff3a44bb64736f6c63430008070033\n}\n",
				"bytecode": {
					"linkReferences": {},
					"object": "608060405234801561001057600080fd5b5061002d336b033b2e3c9fd0803ce800000061004560201b60201c565b6b033b2e3c9fd0803ce800000060028190555061008c565b806000808473ffffffffffffffffffffffffffffffffffffffff1673ffffffffffffffffffffffffffffffffffffffff168152602001908152602001600020819055505050565b6108768061009b6000396000f3fe608060405234801561001057600080fd5b50600436106100885760003560e01c806372dd529b1161005b57806372dd529b14610111578063a9059cbb1461012f578063aef462441461014b578063e3d670d71461017b57610088565b8063095ea7b31461008d5780633d64125b146100a95780634e6ec247146100d957806363b0545f146100f5575b600080fd5b6100a760048036038101906100a291906105c5565b6101ab565b005b6100c360048036038101906100be9190610545565b610205565b6040516100d0919061069a565b60405180910390f35b6100f360048036038101906100ee91906105c5565b61024d565b005b61010f600480360381019061010a9190610572565b610294565b005b610119610445565b604051610126919061069a565b60405180910390f35b610149600480360381019061014491906105c5565b61044f565b005b61016560048036038101906101609190610545565b6104eb565b604051610172919061069a565b60405180910390f35b61019560048036038101906101909190610545565b610503565b6040516101a2919061069a565b60405180910390f35b80600160008473ffffffffffffffffffffffffffffffffffffffff1673ffffffffffffffffffffffffffffffffffffffff16815260200190815260200160002060008282546101fa91906106c6565b925050819055505050565b60008060008373ffffffffffffffffffffffffffffffffffffffff1673ffffffffffffffffffffffffffffffffffffffff168152602001908152602001600020549050919050565b806000808473ffffffffffffffffffffffffffffffffffffffff1673ffffffffffffffffffffffffffffffffffffffff168152602001908152602001600020819055505050565b600160008473ffffffffffffffffffffffffffffffffffffffff1673ffffffffffffffffffffffffffffffffffffffff168152602001908152602001600020548110610315576040517f08c379a000000000000000000000000000000000000000000000000000000000815260040161030c9061067a565b60405180910390fd5b6000808473ffffffffffffffffffffffffffffffffffffffff1673ffffffffffffffffffffffffffffffffffffffff16815260200190815260200160002054811115610396576040517f08c379a000000000000000000000000000000000000000000000000000000000815260040161038d9061065a565b60405180910390fd5b806000808573ffffffffffffffffffffffffffffffffffffffff1673ffffffffffffffffffffffffffffffffffffffff16815260200190815260200160002060008282546103e4919061071c565b92505081905550806000808473ffffffffffffffffffffffffffffffffffffffff1673ffffffffffffffffffffffffffffffffffffffff168152602001908152602001600020600082825461043991906106c6565b92505081905550505050565b6000600254905090565b806000803373ffffffffffffffffffffffffffffffffffffffff1673ffffffffffffffffffffffffffffffffffffffff16815260200190815260200160002081905550806000808473ffffffffffffffffffffffffffffffffffffffff1673ffffffffffffffffffffffffffffffffffffffff16815260200190815260200160002060008282546104e091906106c6565b925050819055505050565b60016020528060005260406000206000915090505481565b60006020528060005260406000206000915090505481565b60008135905061052a81610812565b92915050565b60008135905061053f81610829565b92915050565b60006020828403121561055b5761055a6107bb565b5b60006105698482850161051b565b91505092915050565b60008060006060848603121561058b5761058a6107bb565b5b60006105998682870161051b565b93505060206105aa8682870161051b565b92505060406105bb86828701610530565b9150509250925092565b600080604083850312156105dc576105db6107bb565b5b60006105ea8582860161051b565b92505060206105fb85828601610530565b9150509250929050565b6000610612601d836106b5565b915061061d826107c0565b602082019050919050565b6000610635600e836106b5565b9150610640826107e9565b602082019050919050565b61065481610782565b82525050565b6000602082019050818103600083015261067381610605565b9050919050565b6000602082019050818103600083015261069381610628565b9050919050565b60006020820190506106af600083018461064b565b92915050565b600082825260208201905092915050565b60006106d182610782565b91506106dc83610782565b9250827fffffffffffffffffffffffffffffffffffffffffffffffffffffffffffffffff038211156107115761071061078c565b5b828201905092915050565b600061072782610782565b915061073283610782565b9250828210156107455761074461078c565b5b828203905092915050565b600061075b82610762565b9050919050565b600073ffffffffffffffffffffffffffffffffffffffff82169050919050565b6000819050919050565b7f4e487b7100000000000000000000000000000000000000000000000000000000600052601160045260246000fd5b600080fd5b7f616d6f756e74206d757374206265206c657373207468616e2066726f6d000000600082015250565b7f6e6f7420617574686f72697a6564000000000000000000000000000000000000600082015250565b61081b81610750565b811461082657600080fd5b50565b61083281610782565b811461083d57600080fd5b5056fea2646970667358221220bd2d2958640bf5641769f60f891166e82d1c31b2c6b53eb249508e7bff3a44bb64736f6c63430008070033",
					"opcodes": "PUSH1 0x80 PUSH1 0x40 MSTORE CALLVALUE DUP1 ISZERO PUSH2 0x10 JUMPI PUSH1 0x0 DUP1 REVERT JUMPDEST POP PUSH2 0x2D CALLER PUSH12 0x33B2E3C9FD0803CE8000000 PUSH2 0x45 PUSH1 0x20 SHL PUSH1 0x20 SHR JUMP JUMPDEST PUSH12 0x33B2E3C9FD0803CE8000000 PUSH1 0x2 DUP2 SWAP1 SSTORE POP PUSH2 0x8C JUMP JUMPDEST DUP1 PUSH1 0x0 DUP1 DUP5 PUSH20 0xFFFFFFFFFFFFFFFFFFFFFFFFFFFFFFFFFFFFFFFF AND PUSH20 0xFFFFFFFFFFFFFFFFFFFFFFFFFFFFFFFFFFFFFFFF AND DUP2 MSTORE PUSH1 0x20 ADD SWAP1 DUP2 MSTORE PUSH1 0x20 ADD PUSH1 0x0 KECCAK256 DUP2 SWAP1 SSTORE POP POP POP JUMP JUMPDEST PUSH2 0x876 DUP1 PUSH2 0x9B PUSH1 0x0 CODECOPY PUSH1 0x0 RETURN INVALID PUSH1 0x80 PUSH1 0x40 MSTORE CALLVALUE DUP1 ISZERO PUSH2 0x10 JUMPI PUSH1 0x0 DUP1 REVERT JUMPDEST POP PUSH1 0x4 CALLDATASIZE LT PUSH2 0x88 JUMPI PUSH1 0x0 CALLDATALOAD PUSH1 0xE0 SHR DUP1 PUSH4 0x72DD529B GT PUSH2 0x5B JUMPI DUP1 PUSH4 0x72DD529B EQ PUSH2 0x111 JUMPI DUP1 PUSH4 0xA9059CBB EQ PUSH2 0x12F JUMPI DUP1 PUSH4 0xAEF46244 EQ PUSH2 0x14B JUMPI DUP1 PUSH4 0xE3D670D7 EQ PUSH2 0x17B JUMPI PUSH2 0x88 JUMP JUMPDEST DUP1 PUSH4 0x95EA7B3 EQ PUSH2 0x8D JUMPI DUP1 PUSH4 0x3D64125B EQ PUSH2 0xA9 JUMPI DUP1 PUSH4 0x4E6EC247 EQ PUSH2 0xD9 JUMPI DUP1 PUSH4 0x63B0545F EQ PUSH2 0xF5 JUMPI JUMPDEST PUSH1 0x0 DUP1 REVERT JUMPDEST PUSH2 0xA7 PUSH1 0x4 DUP1 CALLDATASIZE SUB DUP2 ADD SWAP1 PUSH2 0xA2 SWAP2 SWAP1 PUSH2 0x5C5 JUMP JUMPDEST PUSH2 0x1AB JUMP JUMPDEST STOP JUMPDEST PUSH2 0xC3 PUSH1 0x4 DUP1 CALLDATASIZE SUB DUP2 ADD SWAP1 PUSH2 0xBE SWAP2 SWAP1 PUSH2 0x545 JUMP JUMPDEST PUSH2 0x205 JUMP JUMPDEST PUSH1 0x40 MLOAD PUSH2 0xD0 SWAP2 SWAP1 PUSH2 0x69A JUMP JUMPDEST PUSH1 0x40 MLOAD DUP1 SWAP2 SUB SWAP1 RETURN JUMPDEST PUSH2 0xF3 PUSH1 0x4 DUP1 CALLDATASIZE SUB DUP2 ADD SWAP1 PUSH2 0xEE SWAP2 SWAP1 PUSH2 0x5C5 JUMP JUMPDEST PUSH2 0x24D JUMP JUMPDEST STOP JUMPDEST PUSH2 0x10F PUSH1 0x4 DUP1 CALLDATASIZE SUB DUP2 ADD SWAP1 PUSH2 0x10A SWAP2 SWAP1 PUSH2 0x572 JUMP JUMPDEST PUSH2 0x294 JUMP JUMPDEST STOP JUMPDEST PUSH2 0x119 PUSH2 0x445 JUMP JUMPDEST PUSH1 0x40 MLOAD PUSH2 0x126 SWAP2 SWAP1 PUSH2 0x69A JUMP JUMPDEST PUSH1 0x40 MLOAD DUP1 SWAP2 SUB SWAP1 RETURN JUMPDEST PUSH2 0x149 PUSH1 0x4 DUP1 CALLDATASIZE SUB DUP2 ADD SWAP1 PUSH2 0x144 SWAP2 SWAP1 PUSH2 0x5C5 JUMP JUMPDEST PUSH2 0x44F JUMP JUMPDEST STOP JUMPDEST PUSH2 0x165 PUSH1 0x4 DUP1 CALLDATASIZE SUB DUP2 ADD SWAP1 PUSH2 0x160 SWAP2 SWAP1 PUSH2 0x545 JUMP JUMPDEST PUSH2 0x4EB JUMP JUMPDEST PUSH1 0x40 MLOAD PUSH2 0x172 SWAP2 SWAP1 PUSH2 0x69A JUMP JUMPDEST PUSH1 0x40 MLOAD DUP1 SWAP2 SUB SWAP1 RETURN JUMPDEST PUSH2 0x195 PUSH1 0x4 DUP1 CALLDATASIZE SUB DUP2 ADD SWAP1 PUSH2 0x190 SWAP2 SWAP1 PUSH2 0x545 JUMP JUMPDEST PUSH2 0x503 JUMP JUMPDEST PUSH1 0x40 MLOAD PUSH2 0x1A2 SWAP2 SWAP1 PUSH2 0x69A JUMP JUMPDEST PUSH1 0x40 MLOAD DUP1 SWAP2 SUB SWAP1 RETURN JUMPDEST DUP1 PUSH1 0x1 PUSH1 0x0 DUP5 PUSH20 0xFFFFFFFFFFFFFFFFFFFFFFFFFFFFFFFFFFFFFFFF AND PUSH20 0xFFFFFFFFFFFFFFFFFFFFFFFFFFFFFFFFFFFFFFFF AND DUP2 MSTORE PUSH1 0x20 ADD SWAP1 DUP2 MSTORE PUSH1 0x20 ADD PUSH1 0x0 KECCAK256 PUSH1 0x0 DUP3 DUP3 SLOAD PUSH2 0x1FA SWAP2 SWAP1 PUSH2 0x6C6 JUMP JUMPDEST SWAP3 POP POP DUP2 SWAP1 SSTORE POP POP POP JUMP JUMPDEST PUSH1 0x0 DUP1 PUSH1 0x0 DUP4 PUSH20 0xFFFFFFFFFFFFFFFFFFFFFFFFFFFFFFFFFFFFFFFF AND PUSH20 0xFFFFFFFFFFFFFFFFFFFFFFFFFFFFFFFFFFFFFFFF AND DUP2 MSTORE PUSH1 0x20 ADD SWAP1 DUP2 MSTORE PUSH1 0x20 ADD PUSH1 0x0 KECCAK256 SLOAD SWAP1 POP SWAP2 SWAP1 POP JUMP JUMPDEST DUP1 PUSH1 0x0 DUP1 DUP5 PUSH20 0xFFFFFFFFFFFFFFFFFFFFFFFFFFFFFFFFFFFFFFFF AND PUSH20 0xFFFFFFFFFFFFFFFFFFFFFFFFFFFFFFFFFFFFFFFF AND DUP2 MSTORE PUSH1 0x20 ADD SWAP1 DUP2 MSTORE PUSH1 0x20 ADD PUSH1 0x0 KECCAK256 DUP2 SWAP1 SSTORE POP POP POP JUMP JUMPDEST PUSH1 0x1 PUSH1 0x0 DUP5 PUSH20 0xFFFFFFFFFFFFFFFFFFFFFFFFFFFFFFFFFFFFFFFF AND PUSH20 0xFFFFFFFFFFFFFFFFFFFFFFFFFFFFFFFFFFFFFFFF AND DUP2 MSTORE PUSH1 0x20 ADD SWAP1 DUP2 MSTORE PUSH1 0x20 ADD PUSH1 0x0 KECCAK256 SLOAD DUP2 LT PUSH2 0x315 JUMPI PUSH1 0x40 MLOAD PUSH32 0x8C379A000000000000000000000000000000000000000000000000000000000 DUP2 MSTORE PUSH1 0x4 ADD PUSH2 0x30C SWAP1 PUSH2 0x67A JUMP JUMPDEST PUSH1 0x40 MLOAD DUP1 SWAP2 SUB SWAP1 REVERT JUMPDEST PUSH1 0x0 DUP1 DUP5 PUSH20 0xFFFFFFFFFFFFFFFFFFFFFFFFFFFFFFFFFFFFFFFF AND PUSH20 0xFFFFFFFFFFFFFFFFFFFFFFFFFFFFFFFFFFFFFFFF AND DUP2 MSTORE PUSH1 0x20 ADD SWAP1 DUP2 MSTORE PUSH1 0x20 ADD PUSH1 0x0 KECCAK256 SLOAD DUP2 GT ISZERO PUSH2 0x396 JUMPI PUSH1 0x40 MLOAD PUSH32 0x8C379A000000000000000000000000000000000000000000000000000000000 DUP2 MSTORE PUSH1 0x4 ADD PUSH2 0x38D SWAP1 PUSH2 0x65A JUMP JUMPDEST PUSH1 0x40 MLOAD DUP1 SWAP2 SUB SWAP1 REVERT JUMPDEST DUP1 PUSH1 0x0 DUP1 DUP6 PUSH20 0xFFFFFFFFFFFFFFFFFFFFFFFFFFFFFFFFFFFFFFFF AND PUSH20 0xFFFFFFFFFFFFFFFFFFFFFFFFFFFFFFFFFFFFFFFF AND DUP2 MSTORE PUSH1 0x20 ADD SWAP1 DUP2 MSTORE PUSH1 0x20 ADD PUSH1 0x0 KECCAK256 PUSH1 0x0 DUP3 DUP3 SLOAD PUSH2 0x3E4 SWAP2 SWAP1 PUSH2 0x71C JUMP JUMPDEST SWAP3 POP POP DUP2 SWAP1 SSTORE POP DUP1 PUSH1 0x0 DUP1 DUP5 PUSH20 0xFFFFFFFFFFFFFFFFFFFFFFFFFFFFFFFFFFFFFFFF AND PUSH20 0xFFFFFFFFFFFFFFFFFFFFFFFFFFFFFFFFFFFFFFFF AND DUP2 MSTORE PUSH1 0x20 ADD SWAP1 DUP2 MSTORE PUSH1 0x20 ADD PUSH1 0x0 KECCAK256 PUSH1 0x0 DUP3 DUP3 SLOAD PUSH2 0x439 SWAP2 SWAP1 PUSH2 0x6C6 JUMP JUMPDEST SWAP3 POP POP DUP2 SWAP1 SSTORE POP POP POP POP JUMP JUMPDEST PUSH1 0x0 PUSH1 0x2 SLOAD SWAP1 POP SWAP1 JUMP JUMPDEST DUP1 PUSH1 0x0 DUP1 CALLER PUSH20 0xFFFFFFFFFFFFFFFFFFFFFFFFFFFFFFFFFFFFFFFF AND PUSH20 0xFFFFFFFFFFFFFFFFFFFFFFFFFFFFFFFFFFFFFFFF AND DUP2 MSTORE PUSH1 0x20 ADD SWAP1 DUP2 MSTORE PUSH1 0x20 ADD PUSH1 0x0 KECCAK256 DUP2 SWAP1 SSTORE POP DUP1 PUSH1 0x0 DUP1 DUP5 PUSH20 0xFFFFFFFFFFFFFFFFFFFFFFFFFFFFFFFFFFFFFFFF AND PUSH20 0xFFFFFFFFFFFFFFFFFFFFFFFFFFFFFFFFFFFFFFFF AND DUP2 MSTORE PUSH1 0x20 ADD SWAP1 DUP2 MSTORE PUSH1 0x20 ADD PUSH1 0x0 KECCAK256 PUSH1 0x0 DUP3 DUP3 SLOAD PUSH2 0x4E0 SWAP2 SWAP1 PUSH2 0x6C6 JUMP JUMPDEST SWAP3 POP POP DUP2 SWAP1 SSTORE POP POP POP JUMP JUMPDEST PUSH1 0x1 PUSH1 0x20 MSTORE DUP1 PUSH1 0x0 MSTORE PUSH1 0x40 PUSH1 0x0 KECCAK256 PUSH1 0x0 SWAP2 POP SWAP1 POP SLOAD DUP2 JUMP JUMPDEST PUSH1 0x0 PUSH1 0x20 MSTORE DUP1 PUSH1 0x0 MSTORE PUSH1 0x40 PUSH1 0x0 KECCAK256 PUSH1 0x0 SWAP2 POP SWAP1 POP SLOAD DUP2 JUMP JUMPDEST PUSH1 0x0 DUP2 CALLDATALOAD SWAP1 POP PUSH2 0x52A DUP2 PUSH2 0x812 JUMP JUMPDEST SWAP3 SWAP2 POP POP JUMP JUMPDEST PUSH1 0x0 DUP2 CALLDATALOAD SWAP1 POP PUSH2 0x53F DUP2 PUSH2 0x829 JUMP JUMPDEST SWAP3 SWAP2 POP POP JUMP JUMPDEST PUSH1 0x0 PUSH1 0x20 DUP3 DUP5 SUB SLT ISZERO PUSH2 0x55B JUMPI PUSH2 0x55A PUSH2 0x7BB JUMP JUMPDEST JUMPDEST PUSH1 0x0 PUSH2 0x569 DUP5 DUP3 DUP6 ADD PUSH2 0x51B JUMP JUMPDEST SWAP2 POP POP SWAP3 SWAP2 POP POP JUMP JUMPDEST PUSH1 0x0 DUP1 PUSH1 0x0 PUSH1 0x60 DUP5 DUP7 SUB SLT ISZERO PUSH2 0x58B JUMPI PUSH2 0x58A PUSH2 0x7BB JUMP JUMPDEST JUMPDEST PUSH1 0x0 PUSH2 0x599 DUP7 DUP3 DUP8 ADD PUSH2 0x51B JUMP JUMPDEST SWAP4 POP POP PUSH1 0x20 PUSH2 0x5AA DUP7 DUP3 DUP8 ADD PUSH2 0x51B JUMP JUMPDEST SWAP3 POP POP PUSH1 0x40 PUSH2 0x5BB DUP7 DUP3 DUP8 ADD PUSH2 0x530 JUMP JUMPDEST SWAP2 POP POP SWAP3 POP SWAP3 POP SWAP3 JUMP JUMPDEST PUSH1 0x0 DUP1 PUSH1 0x40 DUP4 DUP6 SUB SLT ISZERO PUSH2 0x5DC JUMPI PUSH2 0x5DB PUSH2 0x7BB JUMP JUMPDEST JUMPDEST PUSH1 0x0 PUSH2 0x5EA DUP6 DUP3 DUP7 ADD PUSH2 0x51B JUMP JUMPDEST SWAP3 POP POP PUSH1 0x20 PUSH2 0x5FB DUP6 DUP3 DUP7 ADD PUSH2 0x530 JUMP JUMPDEST SWAP2 POP POP SWAP3 POP SWAP3 SWAP1 POP JUMP JUMPDEST PUSH1 0x0 PUSH2 0x612 PUSH1 0x1D DUP4 PUSH2 0x6B5 JUMP JUMPDEST SWAP2 POP PUSH2 0x61D DUP3 PUSH2 0x7C0 JUMP JUMPDEST PUSH1 0x20 DUP3 ADD SWAP1 POP SWAP2 SWAP1 POP JUMP JUMPDEST PUSH1 0x0 PUSH2 0x635 PUSH1 0xE DUP4 PUSH2 0x6B5 JUMP JUMPDEST SWAP2 POP PUSH2 0x640 DUP3 PUSH2 0x7E9 JUMP JUMPDEST PUSH1 0x20 DUP3 ADD SWAP1 POP SWAP2 SWAP1 POP JUMP JUMPDEST PUSH2 0x654 DUP2 PUSH2 0x782 JUMP JUMPDEST DUP3 MSTORE POP POP JUMP JUMPDEST PUSH1 0x0 PUSH1 0x20 DUP3 ADD SWAP1 POP DUP2 DUP2 SUB PUSH1 0x0 DUP4 ADD MSTORE PUSH2 0x673 DUP2 PUSH2 0x605 JUMP JUMPDEST SWAP1 POP SWAP2 SWAP1 POP JUMP JUMPDEST PUSH1 0x0 PUSH1 0x20 DUP3 ADD SWAP1 POP DUP2 DUP2 SUB PUSH1 0x0 DUP4 ADD MSTORE PUSH2 0x693 DUP2 PUSH2 0x628 JUMP JUMPDEST SWAP1 POP SWAP2 SWAP1 POP JUMP JUMPDEST PUSH1 0x0 PUSH1 0x20 DUP3 ADD SWAP1 POP PUSH2 0x6AF PUSH1 0x0 DUP4 ADD DUP5 PUSH2 0x64B JUMP JUMPDEST SWAP3 SWAP2 POP POP JUMP JUMPDEST PUSH1 0x0 DUP3 DUP3 MSTORE PUSH1 0x20 DUP3 ADD SWAP1 POP SWAP3 SWAP2 POP POP JUMP JUMPDEST PUSH1 0x0 PUSH2 0x6D1 DUP3 PUSH2 0x782 JUMP JUMPDEST SWAP2 POP PUSH2 0x6DC DUP4 PUSH2 0x782 JUMP JUMPDEST SWAP3 POP DUP3 PUSH32 0xFFFFFFFFFFFFFFFFFFFFFFFFFFFFFFFFFFFFFFFFFFFFFFFFFFFFFFFFFFFFFFFF SUB DUP3 GT ISZERO PUSH2 0x711 JUMPI PUSH2 0x710 PUSH2 0x78C JUMP JUMPDEST JUMPDEST DUP3 DUP3 ADD SWAP1 POP SWAP3 SWAP2 POP POP JUMP JUMPDEST PUSH1 0x0 PUSH2 0x727 DUP3 PUSH2 0x782 JUMP JUMPDEST SWAP2 POP PUSH2 0x732 DUP4 PUSH2 0x782 JUMP JUMPDEST SWAP3 POP DUP3 DUP3 LT ISZERO PUSH2 0x745 JUMPI PUSH2 0x744 PUSH2 0x78C JUMP JUMPDEST JUMPDEST DUP3 DUP3 SUB SWAP1 POP SWAP3 SWAP2 POP POP JUMP JUMPDEST PUSH1 0x0 PUSH2 0x75B DUP3 PUSH2 0x762 JUMP JUMPDEST SWAP1 POP SWAP2 SWAP1 POP JUMP JUMPDEST PUSH1 0x0 PUSH20 0xFFFFFFFFFFFFFFFFFFFFFFFFFFFFFFFFFFFFFFFF DUP3 AND SWAP1 POP SWAP2 SWAP1 POP JUMP JUMPDEST PUSH1 0x0 DUP2 SWAP1 POP SWAP2 SWAP1 POP JUMP JUMPDEST PUSH32 0x4E487B7100000000000000000000000000000000000000000000000000000000 PUSH1 0x0 MSTORE PUSH1 0x11 PUSH1 0x4 MSTORE PUSH1 0x24 PUSH1 0x0 REVERT JUMPDEST PUSH1 0x0 DUP1 REVERT JUMPDEST PUSH32 0x616D6F756E74206D757374206265206C657373207468616E2066726F6D000000 PUSH1 0x0 DUP3 ADD MSTORE POP JUMP JUMPDEST PUSH32 0x6E6F7420617574686F72697A6564000000000000000000000000000000000000 PUSH1 0x0 DUP3 ADD MSTORE POP JUMP JUMPDEST PUSH2 0x81B DUP2 PUSH2 0x750 JUMP JUMPDEST DUP2 EQ PUSH2 0x826 JUMPI PUSH1 0x0 DUP1 REVERT JUMPDEST POP JUMP JUMPDEST PUSH2 0x832 DUP2 PUSH2 0x782 JUMP JUMPDEST DUP2 EQ PUSH2 0x83D JUMPI PUSH1 0x0 DUP1 REVERT JUMPDEST POP JUMP INVALID LOG2 PUSH5 0x6970667358 0x22 SLT KECCAK256 0xBD 0x2D 0x29 PC PUSH5 0xBF5641769 0xF6 0xF DUP10 GT PUSH7 0xE82D1C31B2C6B5 RETURNDATACOPY 0xB2 0x49 POP DUP15 PUSH28 0xFF3A44BB64736F6C6343000807003300000000000000000000000000 "
				},
				"gasEstimates": {
					"creation": {
						"codeDepositCost": "433200",
						"executionCost": "infinite",
						"totalCost": "infinite"
					},
					"external": {
						"_mint(address,uint256)": "22877",
						"allowence(address)": "2858",
						"approve(address,uint256)": "infinite",
						"balance(address)": "2880",
						"balanceof(address)": "2864",
						"totalsupply()": "2437",
						"transfer(address,uint256)": "infinite",
						"transferfrom(address,address,uint256)": "infinite"
					}
				},
				"methodIdentifiers": {
					"_mint(address,uint256)": "4e6ec247",
					"allowence(address)": "aef46244",
					"approve(address,uint256)": "095ea7b3",
					"balance(address)": "e3d670d7",
					"balanceof(address)": "3d64125b",
					"totalsupply()": "72dd529b",
					"transfer(address,uint256)": "a9059cbb",
					"transferfrom(address,address,uint256)": "63b0545f"
				}
			},
			"storageLayout": {
				"storage": [
					{
						"astId": 27,
						"contract": "Samples/erc20function.sol:example",
						"label": "balance",
						"offset": 0,
						"slot": "0",
						"type": "t_mapping(t_address,t_uint256)"
					},
					{
						"astId": 31,
						"contract": "Samples/erc20function.sol:example",
						"label": "allowence",
						"offset": 0,
						"slot": "1",
						"type": "t_mapping(t_address,t_uint256)"
					},
					{
						"astId": 33,
						"contract": "Samples/erc20function.sol:example",
						"label": "total_supply",
						"offset": 0,
						"slot": "2",
						"type": "t_uint256"
					}
				],
				"types": {
					"t_address": {
						"encoding": "inplace",
						"label": "address",
						"numberOfBytes": "20"
					},
					"t_mapping(t_address,t_uint256)": {
						"encoding": "mapping",
						"key": "t_address",
						"label": "mapping(address => uint256)",
						"numberOfBytes": "32",
						"value": "t_uint256"
					},
					"t_uint256": {
						"encoding": "inplace",
						"label": "uint256",
						"numberOfBytes": "32"
					}
				}
			},
			"userdoc": {
				"kind": "user",
				"methods": {},
				"version": 1
			}
		}
	}
}