{
	"Samples/recordarray.sol": {
		"dataStorage": {
			"abi": [
				{
					"inputs": [],
					"name": "addArray",
					"outputs": [],
					"stateMutability": "nonpayable",
					"type": "function"
				},
				{
					"inputs": [
						{
							"internalType": "uint256",
							"name": "anynumber",
							"type": "uint256"
						}
					],
					"name": "arraydata",
					"outputs": [],
					"stateMutability": "nonpayable",
					"type": "function"
				},
				{
					"inputs": [],
					"name": "getResult",
					"outputs": [
						{
							"internalType": "uint256[]",
							"name": "",
							"type": "uint256[]"
						}
					],
					"stateMutability": "view",
					"type": "function"
				}
			],
			"devdoc": {
				"kind": "dev",
				"methods": {},
				"version": 1
			},
			"evm": {
				"assembly": "    /* \"Samples/recordarray.sol\":59:471  contract dataStorage{\r... */\n  mstore(0x40, 0x80)\n  callvalue\n  dup1\n  iszero\n  tag_1\n  jumpi\n  0x00\n  dup1\n  revert\ntag_1:\n  pop\n  dataSize(sub_0)\n  dup1\n  dataOffset(sub_0)\n  0x00\n  codecopy\n  0x00\n  return\nstop\n\nsub_0: assembly {\n        /* \"Samples/recordarray.sol\":59:471  contract dataStorage{\r... */\n      mstore(0x40, 0x80)\n      callvalue\n      dup1\n      iszero\n      tag_1\n      jumpi\n      0x00\n      dup1\n      revert\n    tag_1:\n      pop\n      jumpi(tag_2, lt(calldatasize, 0x04))\n      shr(0xe0, calldataload(0x00))\n      dup1\n      0x4840493a\n      eq\n      tag_3\n      jumpi\n      dup1\n      0xc8e9be6c\n      eq\n      tag_4\n      jumpi\n      dup1\n      0xde292789\n      eq\n      tag_5\n      jumpi\n    tag_2:\n      0x00\n      dup1\n      revert\n        /* \"Samples/recordarray.sol\":120:208  function arraydata( uint anynumber) public {\r... */\n    tag_3:\n      tag_6\n      0x04\n      dup1\n      calldatasize\n      sub\n      dup2\n      add\n      swap1\n      tag_7\n      swap2\n      swap1\n      tag_8\n      jump\t// in\n    tag_7:\n      tag_9\n      jump\t// in\n    tag_6:\n      stop\n        /* \"Samples/recordarray.sol\":340:467  function addArray() public {\r... */\n    tag_4:\n      tag_10\n      tag_11\n      jump\t// in\n    tag_10:\n      stop\n        /* \"Samples/recordarray.sol\":216:327  function getResult() public view returns(uint256[] memory){\r... */\n    tag_5:\n      tag_12\n      tag_13\n      jump\t// in\n    tag_12:\n      mload(0x40)\n      tag_14\n      swap2\n      swap1\n      tag_15\n      jump\t// in\n    tag_14:\n      mload(0x40)\n      dup1\n      swap2\n      sub\n      swap1\n      return\n        /* \"Samples/recordarray.sol\":120:208  function arraydata( uint anynumber) public {\r... */\n    tag_9:\n        /* \"Samples/recordarray.sol\":176:184  dataShow */\n      0x00\n        /* \"Samples/recordarray.sol\":190:199  anynumber */\n      dup2\n        /* \"Samples/recordarray.sol\":176:200  dataShow.push(anynumber) */\n      swap1\n      dup1\n      0x01\n      dup2\n      sload\n      add\n      dup1\n      dup3\n      sstore\n      dup1\n      swap2\n      pop\n      pop\n      0x01\n      swap1\n      sub\n      swap1\n      0x00\n      mstore\n      keccak256(0x00, 0x20)\n      add\n      0x00\n      swap1\n      swap2\n      swap1\n      swap2\n      swap1\n      swap2\n      pop\n      sstore\n        /* \"Samples/recordarray.sol\":120:208  function arraydata( uint anynumber) public {\r... */\n      pop\n      jump\t// out\n        /* \"Samples/recordarray.sol\":340:467  function addArray() public {\r... */\n    tag_11:\n        /* \"Samples/recordarray.sol\":382:388  uint x */\n      0x00\n        /* \"Samples/recordarray.sol\":378:460  for(uint x=0; x < dataShow.length; x++){\r... */\n    tag_19:\n        /* \"Samples/recordarray.sol\":396:404  dataShow */\n      0x00\n        /* \"Samples/recordarray.sol\":396:411  dataShow.length */\n      dup1\n      sload\n      swap1\n      pop\n        /* \"Samples/recordarray.sol\":392:393  x */\n      dup2\n        /* \"Samples/recordarray.sol\":392:411  x < dataShow.length */\n      lt\n        /* \"Samples/recordarray.sol\":378:460  for(uint x=0; x < dataShow.length; x++){\r... */\n      iszero\n      tag_20\n      jumpi\n        /* \"Samples/recordarray.sol\":447:448  6 */\n      0x06\n        /* \"Samples/recordarray.sol\":432:440  dataShow */\n      0x00\n        /* \"Samples/recordarray.sol\":441:442  x */\n      dup3\n        /* \"Samples/recordarray.sol\":432:443  dataShow[x] */\n      dup2\n      sload\n      dup2\n      lt\n      tag_22\n      jumpi\n      tag_23\n      tag_24\n      jump\t// in\n    tag_23:\n    tag_22:\n      swap1\n      0x00\n      mstore\n      keccak256(0x00, 0x20)\n      add\n      0x00\n        /* \"Samples/recordarray.sol\":432:448  dataShow[x] += 6 */\n      dup3\n      dup3\n      sload\n      tag_26\n      swap2\n      swap1\n      tag_27\n      jump\t// in\n    tag_26:\n      swap3\n      pop\n      pop\n      dup2\n      swap1\n      sstore\n      pop\n        /* \"Samples/recordarray.sol\":413:416  x++ */\n      dup1\n      dup1\n      tag_28\n      swap1\n      tag_29\n      jump\t// in\n    tag_28:\n      swap2\n      pop\n      pop\n        /* \"Samples/recordarray.sol\":378:460  for(uint x=0; x < dataShow.length; x++){\r... */\n      jump(tag_19)\n    tag_20:\n      pop\n        /* \"Samples/recordarray.sol\":340:467  function addArray() public {\r... */\n      jump\t// out\n        /* \"Samples/recordarray.sol\":216:327  function getResult() public view returns(uint256[] memory){\r... */\n    tag_13:\n        /* \"Samples/recordarray.sol\":257:273  uint256[] memory */\n      0x60\n        /* \"Samples/recordarray.sol\":305:313  dataShow */\n      0x00\n        /* \"Samples/recordarray.sol\":298:313  return dataShow */\n      dup1\n      sload\n      dup1\n      0x20\n      mul\n      0x20\n      add\n      mload(0x40)\n      swap1\n      dup2\n      add\n      0x40\n      mstore\n      dup1\n      swap3\n      swap2\n      swap1\n      dup2\n      dup2\n      mstore\n      0x20\n      add\n      dup3\n      dup1\n      sload\n      dup1\n      iszero\n      tag_31\n      jumpi\n      0x20\n      mul\n      dup3\n      add\n      swap2\n      swap1\n      0x00\n      mstore\n      keccak256(0x00, 0x20)\n      swap1\n    tag_32:\n      dup2\n      sload\n      dup2\n      mstore\n      0x20\n      add\n      swap1\n      0x01\n      add\n      swap1\n      dup1\n      dup4\n      gt\n      tag_32\n      jumpi\n    tag_31:\n      pop\n      pop\n      pop\n      pop\n      pop\n      swap1\n      pop\n        /* \"Samples/recordarray.sol\":216:327  function getResult() public view returns(uint256[] memory){\r... */\n      swap1\n      jump\t// out\n        /* \"#utility.yul\":7:146   */\n    tag_34:\n        /* \"#utility.yul\":53:58   */\n      0x00\n        /* \"#utility.yul\":91:97   */\n      dup2\n        /* \"#utility.yul\":78:98   */\n      calldataload\n        /* \"#utility.yul\":69:98   */\n      swap1\n      pop\n        /* \"#utility.yul\":107:140   */\n      tag_36\n        /* \"#utility.yul\":134:139   */\n      dup2\n        /* \"#utility.yul\":107:140   */\n      tag_37\n      jump\t// in\n    tag_36:\n        /* \"#utility.yul\":7:146   */\n      swap3\n      swap2\n      pop\n      pop\n      jump\t// out\n        /* \"#utility.yul\":152:481   */\n    tag_8:\n        /* \"#utility.yul\":211:217   */\n      0x00\n        /* \"#utility.yul\":260:262   */\n      0x20\n        /* \"#utility.yul\":248:257   */\n      dup3\n        /* \"#utility.yul\":239:246   */\n      dup5\n        /* \"#utility.yul\":235:258   */\n      sub\n        /* \"#utility.yul\":231:263   */\n      slt\n        /* \"#utility.yul\":228:347   */\n      iszero\n      tag_39\n      jumpi\n        /* \"#utility.yul\":266:345   */\n      tag_40\n      tag_41\n      jump\t// in\n    tag_40:\n        /* \"#utility.yul\":228:347   */\n    tag_39:\n        /* \"#utility.yul\":386:387   */\n      0x00\n        /* \"#utility.yul\":411:464   */\n      tag_42\n        /* \"#utility.yul\":456:463   */\n      dup5\n        /* \"#utility.yul\":447:453   */\n      dup3\n        /* \"#utility.yul\":436:445   */\n      dup6\n        /* \"#utility.yul\":432:454   */\n      add\n        /* \"#utility.yul\":411:464   */\n      tag_34\n      jump\t// in\n    tag_42:\n        /* \"#utility.yul\":401:464   */\n      swap2\n      pop\n        /* \"#utility.yul\":357:474   */\n      pop\n        /* \"#utility.yul\":152:481   */\n      swap3\n      swap2\n      pop\n      pop\n      jump\t// out\n        /* \"#utility.yul\":487:666   */\n    tag_43:\n        /* \"#utility.yul\":556:566   */\n      0x00\n        /* \"#utility.yul\":577:623   */\n      tag_45\n        /* \"#utility.yul\":619:622   */\n      dup4\n        /* \"#utility.yul\":611:617   */\n      dup4\n        /* \"#utility.yul\":577:623   */\n      tag_46\n      jump\t// in\n    tag_45:\n        /* \"#utility.yul\":655:659   */\n      0x20\n        /* \"#utility.yul\":650:653   */\n      dup4\n        /* \"#utility.yul\":646:660   */\n      add\n        /* \"#utility.yul\":632:660   */\n      swap1\n      pop\n        /* \"#utility.yul\":487:666   */\n      swap3\n      swap2\n      pop\n      pop\n      jump\t// out\n        /* \"#utility.yul\":702:1434   */\n    tag_47:\n        /* \"#utility.yul\":821:824   */\n      0x00\n        /* \"#utility.yul\":850:904   */\n      tag_49\n        /* \"#utility.yul\":898:903   */\n      dup3\n        /* \"#utility.yul\":850:904   */\n      tag_50\n      jump\t// in\n    tag_49:\n        /* \"#utility.yul\":920:1006   */\n      tag_51\n        /* \"#utility.yul\":999:1005   */\n      dup2\n        /* \"#utility.yul\":994:997   */\n      dup6\n        /* \"#utility.yul\":920:1006   */\n      tag_52\n      jump\t// in\n    tag_51:\n        /* \"#utility.yul\":913:1006   */\n      swap4\n      pop\n        /* \"#utility.yul\":1030:1086   */\n      tag_53\n        /* \"#utility.yul\":1080:1085   */\n      dup4\n        /* \"#utility.yul\":1030:1086   */\n      tag_54\n      jump\t// in\n    tag_53:\n        /* \"#utility.yul\":1109:1116   */\n      dup1\n        /* \"#utility.yul\":1140:1141   */\n      0x00\n        /* \"#utility.yul\":1125:1409   */\n    tag_55:\n        /* \"#utility.yul\":1150:1156   */\n      dup4\n        /* \"#utility.yul\":1147:1148   */\n      dup2\n        /* \"#utility.yul\":1144:1157   */\n      lt\n        /* \"#utility.yul\":1125:1409   */\n      iszero\n      tag_57\n      jumpi\n        /* \"#utility.yul\":1226:1232   */\n      dup2\n        /* \"#utility.yul\":1220:1233   */\n      mload\n        /* \"#utility.yul\":1253:1316   */\n      tag_58\n        /* \"#utility.yul\":1312:1315   */\n      dup9\n        /* \"#utility.yul\":1297:1310   */\n      dup3\n        /* \"#utility.yul\":1253:1316   */\n      tag_43\n      jump\t// in\n    tag_58:\n        /* \"#utility.yul\":1246:1316   */\n      swap8\n      pop\n        /* \"#utility.yul\":1339:1399   */\n      tag_59\n        /* \"#utility.yul\":1392:1398   */\n      dup4\n        /* \"#utility.yul\":1339:1399   */\n      tag_60\n      jump\t// in\n    tag_59:\n        /* \"#utility.yul\":1329:1399   */\n      swap3\n      pop\n        /* \"#utility.yul\":1185:1409   */\n      pop\n        /* \"#utility.yul\":1172:1173   */\n      0x01\n        /* \"#utility.yul\":1169:1170   */\n      dup2\n        /* \"#utility.yul\":1165:1174   */\n      add\n        /* \"#utility.yul\":1160:1174   */\n      swap1\n      pop\n        /* \"#utility.yul\":1125:1409   */\n      jump(tag_55)\n    tag_57:\n        /* \"#utility.yul\":1129:1143   */\n      pop\n        /* \"#utility.yul\":1425:1428   */\n      dup6\n        /* \"#utility.yul\":1418:1428   */\n      swap4\n      pop\n        /* \"#utility.yul\":826:1434   */\n      pop\n      pop\n      pop\n        /* \"#utility.yul\":702:1434   */\n      swap3\n      swap2\n      pop\n      pop\n      jump\t// out\n        /* \"#utility.yul\":1440:1548   */\n    tag_46:\n        /* \"#utility.yul\":1517:1541   */\n      tag_62\n        /* \"#utility.yul\":1535:1540   */\n      dup2\n        /* \"#utility.yul\":1517:1541   */\n      tag_63\n      jump\t// in\n    tag_62:\n        /* \"#utility.yul\":1512:1515   */\n      dup3\n        /* \"#utility.yul\":1505:1542   */\n      mstore\n        /* \"#utility.yul\":1440:1548   */\n      pop\n      pop\n      jump\t// out\n        /* \"#utility.yul\":1554:1927   */\n    tag_15:\n        /* \"#utility.yul\":1697:1701   */\n      0x00\n        /* \"#utility.yul\":1735:1737   */\n      0x20\n        /* \"#utility.yul\":1724:1733   */\n      dup3\n        /* \"#utility.yul\":1720:1738   */\n      add\n        /* \"#utility.yul\":1712:1738   */\n      swap1\n      pop\n        /* \"#utility.yul\":1784:1793   */\n      dup2\n        /* \"#utility.yul\":1778:1782   */\n      dup2\n        /* \"#utility.yul\":1774:1794   */\n      sub\n        /* \"#utility.yul\":1770:1771   */\n      0x00\n        /* \"#utility.yul\":1759:1768   */\n      dup4\n        /* \"#utility.yul\":1755:1772   */\n      add\n        /* \"#utility.yul\":1748:1795   */\n      mstore\n        /* \"#utility.yul\":1812:1920   */\n      tag_65\n        /* \"#utility.yul\":1915:1919   */\n      dup2\n        /* \"#utility.yul\":1906:1912   */\n      dup5\n        /* \"#utility.yul\":1812:1920   */\n      tag_47\n      jump\t// in\n    tag_65:\n        /* \"#utility.yul\":1804:1920   */\n      swap1\n      pop\n        /* \"#utility.yul\":1554:1927   */\n      swap3\n      swap2\n      pop\n      pop\n      jump\t// out\n        /* \"#utility.yul\":2014:2146   */\n    tag_54:\n        /* \"#utility.yul\":2081:2085   */\n      0x00\n        /* \"#utility.yul\":2104:2107   */\n      dup2\n        /* \"#utility.yul\":2096:2107   */\n      swap1\n      pop\n        /* \"#utility.yul\":2134:2138   */\n      0x20\n        /* \"#utility.yul\":2129:2132   */\n      dup3\n        /* \"#utility.yul\":2125:2139   */\n      add\n        /* \"#utility.yul\":2117:2139   */\n      swap1\n      pop\n        /* \"#utility.yul\":2014:2146   */\n      swap2\n      swap1\n      pop\n      jump\t// out\n        /* \"#utility.yul\":2152:2266   */\n    tag_50:\n        /* \"#utility.yul\":2219:2225   */\n      0x00\n        /* \"#utility.yul\":2253:2258   */\n      dup2\n        /* \"#utility.yul\":2247:2259   */\n      mload\n        /* \"#utility.yul\":2237:2259   */\n      swap1\n      pop\n        /* \"#utility.yul\":2152:2266   */\n      swap2\n      swap1\n      pop\n      jump\t// out\n        /* \"#utility.yul\":2272:2385   */\n    tag_60:\n        /* \"#utility.yul\":2342:2346   */\n      0x00\n        /* \"#utility.yul\":2374:2378   */\n      0x20\n        /* \"#utility.yul\":2369:2372   */\n      dup3\n        /* \"#utility.yul\":2365:2379   */\n      add\n        /* \"#utility.yul\":2357:2379   */\n      swap1\n      pop\n        /* \"#utility.yul\":2272:2385   */\n      swap2\n      swap1\n      pop\n      jump\t// out\n        /* \"#utility.yul\":2391:2575   */\n    tag_52:\n        /* \"#utility.yul\":2490:2501   */\n      0x00\n        /* \"#utility.yul\":2524:2530   */\n      dup3\n        /* \"#utility.yul\":2519:2522   */\n      dup3\n        /* \"#utility.yul\":2512:2531   */\n      mstore\n        /* \"#utility.yul\":2564:2568   */\n      0x20\n        /* \"#utility.yul\":2559:2562   */\n      dup3\n        /* \"#utility.yul\":2555:2569   */\n      add\n        /* \"#utility.yul\":2540:2569   */\n      swap1\n      pop\n        /* \"#utility.yul\":2391:2575   */\n      swap3\n      swap2\n      pop\n      pop\n      jump\t// out\n        /* \"#utility.yul\":2581:2886   */\n    tag_27:\n        /* \"#utility.yul\":2621:2624   */\n      0x00\n        /* \"#utility.yul\":2640:2660   */\n      tag_73\n        /* \"#utility.yul\":2658:2659   */\n      dup3\n        /* \"#utility.yul\":2640:2660   */\n      tag_63\n      jump\t// in\n    tag_73:\n        /* \"#utility.yul\":2635:2660   */\n      swap2\n      pop\n        /* \"#utility.yul\":2674:2694   */\n      tag_74\n        /* \"#utility.yul\":2692:2693   */\n      dup4\n        /* \"#utility.yul\":2674:2694   */\n      tag_63\n      jump\t// in\n    tag_74:\n        /* \"#utility.yul\":2669:2694   */\n      swap3\n      pop\n        /* \"#utility.yul\":2828:2829   */\n      dup3\n        /* \"#utility.yul\":2760:2826   */\n      0xffffffffffffffffffffffffffffffffffffffffffffffffffffffffffffffff\n        /* \"#utility.yul\":2756:2830   */\n      sub\n        /* \"#utility.yul\":2753:2754   */\n      dup3\n        /* \"#utility.yul\":2750:2831   */\n      gt\n        /* \"#utility.yul\":2747:2854   */\n      iszero\n      tag_75\n      jumpi\n        /* \"#utility.yul\":2834:2852   */\n      tag_76\n      tag_77\n      jump\t// in\n    tag_76:\n        /* \"#utility.yul\":2747:2854   */\n    tag_75:\n        /* \"#utility.yul\":2878:2879   */\n      dup3\n        /* \"#utility.yul\":2875:2876   */\n      dup3\n        /* \"#utility.yul\":2871:2880   */\n      add\n        /* \"#utility.yul\":2864:2880   */\n      swap1\n      pop\n        /* \"#utility.yul\":2581:2886   */\n      swap3\n      swap2\n      pop\n      pop\n      jump\t// out\n        /* \"#utility.yul\":2892:2969   */\n    tag_63:\n        /* \"#utility.yul\":2929:2936   */\n      0x00\n        /* \"#utility.yul\":2958:2963   */\n      dup2\n        /* \"#utility.yul\":2947:2963   */\n      swap1\n      pop\n        /* \"#utility.yul\":2892:2969   */\n      swap2\n      swap1\n      pop\n      jump\t// out\n        /* \"#utility.yul\":2975:3208   */\n    tag_29:\n        /* \"#utility.yul\":3014:3017   */\n      0x00\n        /* \"#utility.yul\":3037:3061   */\n      tag_80\n        /* \"#utility.yul\":3055:3060   */\n      dup3\n        /* \"#utility.yul\":3037:3061   */\n      tag_63\n      jump\t// in\n    tag_80:\n        /* \"#utility.yul\":3028:3061   */\n      swap2\n      pop\n        /* \"#utility.yul\":3083:3149   */\n      0xffffffffffffffffffffffffffffffffffffffffffffffffffffffffffffffff\n        /* \"#utility.yul\":3076:3081   */\n      dup3\n        /* \"#utility.yul\":3073:3150   */\n      eq\n        /* \"#utility.yul\":3070:3173   */\n      iszero\n      tag_81\n      jumpi\n        /* \"#utility.yul\":3153:3171   */\n      tag_82\n      tag_77\n      jump\t// in\n    tag_82:\n        /* \"#utility.yul\":3070:3173   */\n    tag_81:\n        /* \"#utility.yul\":3200:3201   */\n      0x01\n        /* \"#utility.yul\":3193:3198   */\n      dup3\n        /* \"#utility.yul\":3189:3202   */\n      add\n        /* \"#utility.yul\":3182:3202   */\n      swap1\n      pop\n        /* \"#utility.yul\":2975:3208   */\n      swap2\n      swap1\n      pop\n      jump\t// out\n        /* \"#utility.yul\":3214:3394   */\n    tag_77:\n        /* \"#utility.yul\":3262:3339   */\n      0x4e487b7100000000000000000000000000000000000000000000000000000000\n        /* \"#utility.yul\":3259:3260   */\n      0x00\n        /* \"#utility.yul\":3252:3340   */\n      mstore\n        /* \"#utility.yul\":3359:3363   */\n      0x11\n        /* \"#utility.yul\":3356:3357   */\n      0x04\n        /* \"#utility.yul\":3349:3364   */\n      mstore\n        /* \"#utility.yul\":3383:3387   */\n      0x24\n        /* \"#utility.yul\":3380:3381   */\n      0x00\n        /* \"#utility.yul\":3373:3388   */\n      revert\n        /* \"#utility.yul\":3400:3580   */\n    tag_24:\n        /* \"#utility.yul\":3448:3525   */\n      0x4e487b7100000000000000000000000000000000000000000000000000000000\n        /* \"#utility.yul\":3445:3446   */\n      0x00\n        /* \"#utility.yul\":3438:3526   */\n      mstore\n        /* \"#utility.yul\":3545:3549   */\n      0x32\n        /* \"#utility.yul\":3542:3543   */\n      0x04\n        /* \"#utility.yul\":3535:3550   */\n      mstore\n        /* \"#utility.yul\":3569:3573   */\n      0x24\n        /* \"#utility.yul\":3566:3567   */\n      0x00\n        /* \"#utility.yul\":3559:3574   */\n      revert\n        /* \"#utility.yul\":3709:3826   */\n    tag_41:\n        /* \"#utility.yul\":3818:3819   */\n      0x00\n        /* \"#utility.yul\":3815:3816   */\n      dup1\n        /* \"#utility.yul\":3808:3820   */\n      revert\n        /* \"#utility.yul\":3832:3954   */\n    tag_37:\n        /* \"#utility.yul\":3905:3929   */\n      tag_89\n        /* \"#utility.yul\":3923:3928   */\n      dup2\n        /* \"#utility.yul\":3905:3929   */\n      tag_63\n      jump\t// in\n    tag_89:\n        /* \"#utility.yul\":3898:3903   */\n      dup2\n        /* \"#utility.yul\":3895:3930   */\n      eq\n        /* \"#utility.yul\":3885:3948   */\n      tag_90\n      jumpi\n        /* \"#utility.yul\":3944:3945   */\n      0x00\n        /* \"#utility.yul\":3941:3942   */\n      dup1\n        /* \"#utility.yul\":3934:3946   */\n      revert\n        /* \"#utility.yul\":3885:3948   */\n    tag_90:\n        /* \"#utility.yul\":3832:3954   */\n      pop\n      jump\t// out\n\n    auxdata: 0xa26469706673582212202b84c41e5afc36f406690dd4b95ca053efbd5d8cc5c9318d5f78863edfbfce4c64736f6c63430008070033\n}\n",
				"bytecode": {
					"linkReferences": {},
					"object": "608060405234801561001057600080fd5b506103e5806100206000396000f3fe608060405234801561001057600080fd5b50600436106100415760003560e01c80634840493a14610046578063c8e9be6c14610062578063de2927891461006c575b600080fd5b610060600480360381019061005b919061017f565b61008a565b005b61006a6100b6565b005b610074610112565b6040516100819190610231565b60405180910390f35b600081908060018154018082558091505060019003906000526020600020016000909190919091505550565b60005b60008054905081101561010f576006600082815481106100dc576100db610364565b5b9060005260206000200160008282546100f5919061028c565b925050819055508080610107906102ec565b9150506100b9565b50565b6060600080548060200260200160405190810160405280929190818152602001828054801561016057602002820191906000526020600020905b81548152602001906001019080831161014c575b5050505050905090565b60008135905061017981610398565b92915050565b60006020828403121561019557610194610393565b5b60006101a38482850161016a565b91505092915050565b60006101b88383610222565b60208301905092915050565b60006101cf82610263565b6101d9818561027b565b93506101e483610253565b8060005b838110156102155781516101fc88826101ac565b97506102078361026e565b9250506001810190506101e8565b5085935050505092915050565b61022b816102e2565b82525050565b6000602082019050818103600083015261024b81846101c4565b905092915050565b6000819050602082019050919050565b600081519050919050565b6000602082019050919050565b600082825260208201905092915050565b6000610297826102e2565b91506102a2836102e2565b9250827fffffffffffffffffffffffffffffffffffffffffffffffffffffffffffffffff038211156102d7576102d6610335565b5b828201905092915050565b6000819050919050565b60006102f7826102e2565b91507fffffffffffffffffffffffffffffffffffffffffffffffffffffffffffffffff82141561032a57610329610335565b5b600182019050919050565b7f4e487b7100000000000000000000000000000000000000000000000000000000600052601160045260246000fd5b7f4e487b7100000000000000000000000000000000000000000000000000000000600052603260045260246000fd5b600080fd5b6103a1816102e2565b81146103ac57600080fd5b5056fea26469706673582212202b84c41e5afc36f406690dd4b95ca053efbd5d8cc5c9318d5f78863edfbfce4c64736f6c63430008070033",
					"opcodes": "PUSH1 0x80 PUSH1 0x40 MSTORE CALLVALUE DUP1 ISZERO PUSH2 0x10 JUMPI PUSH1 0x0 DUP1 REVERT JUMPDEST POP PUSH2 0x3E5 DUP1 PUSH2 0x20 PUSH1 0x0 CODECOPY PUSH1 0x0 RETURN INVALID PUSH1 0x80 PUSH1 0x40 MSTORE CALLVALUE DUP1 ISZERO PUSH2 0x10 JUMPI PUSH1 0x0 DUP1 REVERT JUMPDEST POP PUSH1 0x4 CALLDATASIZE LT PUSH2 0x41 JUMPI PUSH1 0x0 CALLDATALOAD PUSH1 0xE0 SHR DUP1 PUSH4 0x4840493A EQ PUSH2 0x46 JUMPI DUP1 PUSH4 0xC8E9BE6C EQ PUSH2 0x62 JUMPI DUP1 PUSH4 0xDE292789 EQ PUSH2 0x6C JUMPI JUMPDEST PUSH1 0x0 DUP1 REVERT JUMPDEST PUSH2 0x60 PUSH1 0x4 DUP1 CALLDATASIZE SUB DUP2 ADD SWAP1 PUSH2 0x5B SWAP2 SWAP1 PUSH2 0x17F JUMP JUMPDEST PUSH2 0x8A JUMP JUMPDEST STOP JUMPDEST PUSH2 0x6A PUSH2 0xB6 JUMP JUMPDEST STOP JUMPDEST PUSH2 0x74 PUSH2 0x112 JUMP JUMPDEST PUSH1 0x40 MLOAD PUSH2 0x81 SWAP2 SWAP1 PUSH2 0x231 JUMP JUMPDEST PUSH1 0x40 MLOAD DUP1 SWAP2 SUB SWAP1 RETURN JUMPDEST PUSH1 0x0 DUP2 SWAP1 DUP1 PUSH1 0x1 DUP2 SLOAD ADD DUP1 DUP3 SSTORE DUP1 SWAP2 POP POP PUSH1 0x1 SWAP1 SUB SWAP1 PUSH1 0x0 MSTORE PUSH1 0x20 PUSH1 0x0 KECCAK256 ADD PUSH1 0x0 SWAP1 SWAP2 SWAP1 SWAP2 SWAP1 SWAP2 POP SSTORE POP JUMP JUMPDEST PUSH1 0x0 JUMPDEST PUSH1 0x0 DUP1 SLOAD SWAP1 POP DUP2 LT ISZERO PUSH2 0x10F JUMPI PUSH1 0x6 PUSH1 0x0 DUP3 DUP2 SLOAD DUP2 LT PUSH2 0xDC JUMPI PUSH2 0xDB PUSH2 0x364 JUMP JUMPDEST JUMPDEST SWAP1 PUSH1 0x0 MSTORE PUSH1 0x20 PUSH1 0x0 KECCAK256 ADD PUSH1 0x0 DUP3 DUP3 SLOAD PUSH2 0xF5 SWAP2 SWAP1 PUSH2 0x28C JUMP JUMPDEST SWAP3 POP POP DUP2 SWAP1 SSTORE POP DUP1 DUP1 PUSH2 0x107 SWAP1 PUSH2 0x2EC JUMP JUMPDEST SWAP2 POP POP PUSH2 0xB9 JUMP JUMPDEST POP JUMP JUMPDEST PUSH1 0x60 PUSH1 0x0 DUP1 SLOAD DUP1 PUSH1 0x20 MUL PUSH1 0x20 ADD PUSH1 0x40 MLOAD SWAP1 DUP2 ADD PUSH1 0x40 MSTORE DUP1 SWAP3 SWAP2 SWAP1 DUP2 DUP2 MSTORE PUSH1 0x20 ADD DUP3 DUP1 SLOAD DUP1 ISZERO PUSH2 0x160 JUMPI PUSH1 0x20 MUL DUP3 ADD SWAP2 SWAP1 PUSH1 0x0 MSTORE PUSH1 0x20 PUSH1 0x0 KECCAK256 SWAP1 JUMPDEST DUP2 SLOAD DUP2 MSTORE PUSH1 0x20 ADD SWAP1 PUSH1 0x1 ADD SWAP1 DUP1 DUP4 GT PUSH2 0x14C JUMPI JUMPDEST POP POP POP POP POP SWAP1 POP SWAP1 JUMP JUMPDEST PUSH1 0x0 DUP2 CALLDATALOAD SWAP1 POP PUSH2 0x179 DUP2 PUSH2 0x398 JUMP JUMPDEST SWAP3 SWAP2 POP POP JUMP JUMPDEST PUSH1 0x0 PUSH1 0x20 DUP3 DUP5 SUB SLT ISZERO PUSH2 0x195 JUMPI PUSH2 0x194 PUSH2 0x393 JUMP JUMPDEST JUMPDEST PUSH1 0x0 PUSH2 0x1A3 DUP5 DUP3 DUP6 ADD PUSH2 0x16A JUMP JUMPDEST SWAP2 POP POP SWAP3 SWAP2 POP POP JUMP JUMPDEST PUSH1 0x0 PUSH2 0x1B8 DUP4 DUP4 PUSH2 0x222 JUMP JUMPDEST PUSH1 0x20 DUP4 ADD SWAP1 POP SWAP3 SWAP2 POP POP JUMP JUMPDEST PUSH1 0x0 PUSH2 0x1CF DUP3 PUSH2 0x263 JUMP JUMPDEST PUSH2 0x1D9 DUP2 DUP6 PUSH2 0x27B JUMP JUMPDEST SWAP4 POP PUSH2 0x1E4 DUP4 PUSH2 0x253 JUMP JUMPDEST DUP1 PUSH1 0x0 JUMPDEST DUP4 DUP2 LT ISZERO PUSH2 0x215 JUMPI DUP2 MLOAD PUSH2 0x1FC DUP9 DUP3 PUSH2 0x1AC JUMP JUMPDEST SWAP8 POP PUSH2 0x207 DUP4 PUSH2 0x26E JUMP JUMPDEST SWAP3 POP POP PUSH1 0x1 DUP2 ADD SWAP1 POP PUSH2 0x1E8 JUMP JUMPDEST POP DUP6 SWAP4 POP POP POP POP SWAP3 SWAP2 POP POP JUMP JUMPDEST PUSH2 0x22B DUP2 PUSH2 0x2E2 JUMP JUMPDEST DUP3 MSTORE POP POP JUMP JUMPDEST PUSH1 0x0 PUSH1 0x20 DUP3 ADD SWAP1 POP DUP2 DUP2 SUB PUSH1 0x0 DUP4 ADD MSTORE PUSH2 0x24B DUP2 DUP5 PUSH2 0x1C4 JUMP JUMPDEST SWAP1 POP SWAP3 SWAP2 POP POP JUMP JUMPDEST PUSH1 0x0 DUP2 SWAP1 POP PUSH1 0x20 DUP3 ADD SWAP1 POP SWAP2 SWAP1 POP JUMP JUMPDEST PUSH1 0x0 DUP2 MLOAD SWAP1 POP SWAP2 SWAP1 POP JUMP JUMPDEST PUSH1 0x0 PUSH1 0x20 DUP3 ADD SWAP1 POP SWAP2 SWAP1 POP JUMP JUMPDEST PUSH1 0x0 DUP3 DUP3 MSTORE PUSH1 0x20 DUP3 ADD SWAP1 POP SWAP3 SWAP2 POP POP JUMP JUMPDEST PUSH1 0x0 PUSH2 0x297 DUP3 PUSH2 0x2E2 JUMP JUMPDEST SWAP2 POP PUSH2 0x2A2 DUP4 PUSH2 0x2E2 JUMP JUMPDEST SWAP3 POP DUP3 PUSH32 0xFFFFFFFFFFFFFFFFFFFFFFFFFFFFFFFFFFFFFFFFFFFFFFFFFFFFFFFFFFFFFFFF SUB DUP3 GT ISZERO PUSH2 0x2D7 JUMPI PUSH2 0x2D6 PUSH2 0x335 JUMP JUMPDEST JUMPDEST DUP3 DUP3 ADD SWAP1 POP SWAP3 SWAP2 POP POP JUMP JUMPDEST PUSH1 0x0 DUP2 SWAP1 POP SWAP2 SWAP1 POP JUMP JUMPDEST PUSH1 0x0 PUSH2 0x2F7 DUP3 PUSH2 0x2E2 JUMP JUMPDEST SWAP2 POP PUSH32 0xFFFFFFFFFFFFFFFFFFFFFFFFFFFFFFFFFFFFFFFFFFFFFFFFFFFFFFFFFFFFFFFF DUP3 EQ ISZERO PUSH2 0x32A JUMPI PUSH2 0x329 PUSH2 0x335 JUMP JUMPDEST JUMPDEST PUSH1 0x1 DUP3 ADD SWAP1 POP SWAP2 SWAP1 POP JUMP JUMPDEST PUSH32 0x4E487B7100000000000000000000000000000000000000000000000000000000 PUSH1 0x0 MSTORE PUSH1 0x11 PUSH1 0x4 MSTORE PUSH1 0x24 PUSH1 0x0 REVERT JUMPDEST PUSH32 0x4E487B7100000000000000000000000000000000000000000000000000000000 PUSH1 0x0 MSTORE PUSH1 0x32 PUSH1 0x4 MSTORE PUSH1 0x24 PUSH1 0x0 REVERT JUMPDEST PUSH1 0x0 DUP1 REVERT JUMPDEST PUSH2 0x3A1 DUP2 PUSH2 0x2E2 JUMP JUMPDEST DUP2 EQ PUSH2 0x3AC JUMPI PUSH1 0x0 DUP1 REVERT JUMPDEST POP JUMP INVALID LOG2 PUSH5 0x6970667358 0x22 SLT KECCAK256 0x2B DUP5 0xC4 0x1E GAS 0xFC CALLDATASIZE DELEGATECALL MOD PUSH10 0xDD4B95CA053EFBD5D8C 0xC5 0xC9 BALANCE DUP14 0x5F PUSH25 0x863EDFBFCE4C64736F6C634300080700330000000000000000 "
				},
				"gasEstimates": {
					"creation": {
						"codeDepositCost": "199400",
						"executionCost": "245",
						"totalCost": "199645"
					},
					"external": {
						"addArray()": "infinite",
						"arraydata(uint256)": "46807",
						"getResult()": "infinite"
					}
				},
				"methodIdentifiers": {
					"addArray()": "c8e9be6c",
					"arraydata(uint256)": "4840493a",
					"getResult()": "de292789"
				}
			},
			"storageLayout": {
				"storage": [
					{
						"astId": 4,
						"contract": "Samples/recordarray.sol:dataStorage",
						"label": "dataShow",
						"offset": 0,
						"slot": "0",
						"type": "t_array(t_uint256)dyn_storage"
					}
				],
				"types": {
					"t_array(t_uint256)dyn_storage": {
						"base": "t_uint256",
						"encoding": "dynamic_array",
						"label": "uint256[]",
						"numberOfBytes": "32"
					},
					"t_uint256": {
						"encoding": "inplace",
						"label": "uint256",
						"numberOfBytes": "32"
					}
				}
			},
			"userdoc": {
				"kind": "user",
				"methods": {},
				"version": 1
			}
		}
	}
}